{
  "contractName": "AdminUserManager",
  "abi": [
    {
      "inputs": [],
      "payable": false,
      "stateMutability": "nonpayable",
      "type": "constructor"
    },
    {
      "constant": false,
      "inputs": [
        {
          "name": "name",
          "type": "string"
        },
        {
          "name": "account",
          "type": "address"
        },
        {
          "name": "role",
          "type": "uint256"
        }
      ],
      "name": "createAdminUser",
      "outputs": [
        {
          "name": "",
          "type": "bool"
        }
      ],
      "payable": false,
      "stateMutability": "nonpayable",
      "type": "function"
    },
    {
      "constant": true,
      "inputs": [],
      "name": "getAdminUsersCount",
      "outputs": [
        {
          "name": "",
          "type": "uint256"
        }
      ],
      "payable": false,
      "stateMutability": "view",
      "type": "function"
    },
    {
      "constant": true,
      "inputs": [
        {
          "name": "account",
          "type": "address"
        }
      ],
      "name": "getAdminUserByAddress",
      "outputs": [
        {
          "name": "",
          "type": "string"
        },
        {
          "name": "",
          "type": "uint256"
        },
        {
          "name": "",
          "type": "address"
        }
      ],
      "payable": false,
      "stateMutability": "view",
      "type": "function"
    },
    {
      "constant": true,
      "inputs": [
        {
          "name": "index",
          "type": "uint256"
        }
      ],
      "name": "getAdminUserByIndex",
      "outputs": [
        {
          "name": "",
          "type": "string"
        },
        {
          "name": "",
          "type": "uint256"
        },
        {
          "name": "",
          "type": "address"
        }
      ],
      "payable": false,
      "stateMutability": "view",
      "type": "function"
    }
  ],
  "bytecode": "0x60806040523480156200001157600080fd5b506200002564010000000062000077810204565b60408051808201909152600581527f4f776e6572000000000000000000000000000000000000000000000000000000602082015262000070903360006401000000006200008b810204565b506200042a565b60008054600160a060020a03191633179055565b60008054600160a060020a03163314620000a457600080fd5b6000826005811115620000b357fe5b6005811115620000bf57fe5b146200015257604080517f08c379a000000000000000000000000000000000000000000000000000000000815260206004820152602760248201527f544845205350454349464945442041444d494e20524f4c4520444f4553204e4f60448201527f5420455849535400000000000000000000000000000000000000000000000000606482015290519081900360840190fd5b6200016884848464010000000062000170810204565b949350505050565b60008054600160a060020a031633146200018957600080fd5b608060405190810160405280858152602001836005811115620001a857fe5b6005811115620001b457fe5b8152600160a060020a03851660208083018290526001604093840181905260009283528152919020825180519192620001f39284929091019062000385565b50602082015160018083018054909160ff19909116908360058111156200021657fe5b021790555060408281015160019092018054606090940151151575010000000000000000000000000000000000000000000260a860020a60ff0219600160a060020a039094166101000261010060a860020a03199095169490941792909216929092179055805160808101909152848152600290602081018460058111156200029b57fe5b6005811115620002a757fe5b8152600160a060020a03861660208083019190915260016040909201829052835491820180855560009485529381902083518051600290940290910192620002f3928492019062000385565b50602082015160018083018054909160ff19909116908360058111156200031657fe5b0217905550604082015160019182018054606090940151151575010000000000000000000000000000000000000000000260a860020a60ff0219600160a060020a039093166101000261010060a860020a03199095169490941791909116929092179091559150509392505050565b828054600181600116156101000203166002900490600052602060002090601f016020900481019282601f10620003c857805160ff1916838001178555620003f8565b82800160010185558215620003f8579182015b82811115620003f8578251825591602001919060010190620003db565b50620004069291506200040a565b5090565b6200042791905b8082111562000406576000815560010162000411565b90565b610873806200043a6000396000f3006080604052600436106100615763ffffffff7c01000000000000000000000000000000000000000000000000000000006000350416635406214381146100665780637f266904146100e4578063a93e999d1461010b578063bb3fac14146101bb575b600080fd5b34801561007257600080fd5b506040805160206004803580820135601f81018490048402850184019095528484526100d094369492936024939284019190819084018382808284375094975050508335600160a060020a03169450505060209091013590506101dc565b604080519115158252519081900360200190f35b3480156100f057600080fd5b506100f96102d5565b60408051918252519081900360200190f35b34801561011757600080fd5b50610123600435610308565b604051808060200184815260200183600160a060020a0316600160a060020a03168152602001828103825285818151815260200191508051906020019080838360005b8381101561017e578181015183820152602001610166565b50505050905090810190601f1680156101ab5780820380516001836020036101000a031916815260200191505b5094505050505060405180910390f35b3480156101c757600080fd5b50610123600160a060020a0360043516610460565b60008054600160a060020a031633146101f457600080fd5b600182600581111561020257fe5b600581111561020d57fe5b148061022f5750600282600581111561022257fe5b600581111561022d57fe5b145b15156102c257604080517f08c379a000000000000000000000000000000000000000000000000000000000815260206004820152602760248201527f544845205350454349464945442041444d494e20524f4c4520444f4553204e4f60448201527f5420455849535400000000000000000000000000000000000000000000000000606482015290519081900360840190fd5b6102cd84848461056d565b949350505050565b60008054600160a060020a031633146102ed57600080fd5b600254600010156103015750600254610305565b5060005b90565b60008054606091908190600160a060020a0316331461032657600080fd5b600254841061033457600080fd5b600280548590811061034257fe5b906000526020600020906002020160000160028581548110151561036257fe5b600091825260209091206001600290920201015460ff16600581111561038457fe5b600280548790811061039257fe5b906000526020600020906002020160010160019054906101000a9004600160a060020a0316828054600181600116156101000203166002900480601f01602080910402602001604051908101604052809291908181526020018280546001816001161561010002031660029004801561044c5780601f106104215761010080835404028352916020019161044c565b820191906000526020600020905b81548152906001019060200180831161042f57829003601f168201915b505050505092509250925092509193909250565b60008054606091908190600160a060020a0316331461047e57600080fd5b600160a060020a038416600090815260016020819052604090912001547501000000000000000000000000000000000000000000900460ff1615156104c257600080fd5b600160a060020a03841660009081526001602081905260409091209081015460ff1660058111156104ef57fe5b600160a060020a038681166000908152600160208181526040928390208201548654845160026101009583161586026000190190921691909104601f8101849004840282018401909552848152929004909316929091859183018282801561044c5780601f106104215761010080835404028352916020019161044c565b60008054600160a060020a0316331461058557600080fd5b6080604051908101604052808581526020018360058111156105a357fe5b60058111156105ae57fe5b8152600160a060020a038516602080830182905260016040938401819052600092835281529190208251805191926105eb928492909101906107af565b50602082015160018083018054909160ff199091169083600581111561060d57fe5b021790555060408281015160019092018054606090940151151575010000000000000000000000000000000000000000000275ff00000000000000000000000000000000000000000019600160a060020a039094166101000274ffffffffffffffffffffffffffffffffffffffff00199095169490941792909216929092179055805160808101909152848152600290602081018460058111156106ad57fe5b60058111156106b857fe5b8152600160a060020a0386166020808301919091526001604090920182905283549182018085556000948552938190208351805160029094029091019261070292849201906107af565b50602082015160018083018054909160ff199091169083600581111561072457fe5b0217905550604082015160019182018054606090940151151575010000000000000000000000000000000000000000000275ff00000000000000000000000000000000000000000019600160a060020a039093166101000274ffffffffffffffffffffffffffffffffffffffff00199095169490941791909116929092179091559150509392505050565b828054600181600116156101000203166002900490600052602060002090601f016020900481019282601f106107f057805160ff191683800117855561081d565b8280016001018555821561081d579182015b8281111561081d578251825591602001919060010190610802565b5061082992915061082d565b5090565b61030591905b8082111561082957600081556001016108335600a165627a7a72305820001c4d29305e565c5b413c2f44f7e16360a310683fea9225d91f5b398a6abd1a0029",
  "source": "pragma solidity ^0.4.18;\nimport \"./Ownerble.sol\";\n\ncontract AdminUserManager is Ownerble{\n    \n    constructor() public {\n       createContractOwner(\"Owner\" ,msg.sender, uint(AppRole.Owner));\n    }\n    \n    mapping(address => Administrator) internal adminstratorAccounts;\n    Administrator[] private adminstratorAccountsList;\n    \n       \n    struct Administrator {\n         string name;\n         AppRole role;\n         address account;\n         bool isAdmin;\n     }\n     \n     function createContractOwner(string name, address account, uint role) private ownerOnly returns(bool){\n      require(AppRole(role) == AppRole.Owner, \"THE SPECIFIED ADMIN ROLE DOES NOT EXIST\");\n       \n        return createUser(name, account, role);\n    }\n     \n    function createAdminUser(string name, address account, uint role) public ownerOnly returns(bool){\n      require(AppRole(role) == AppRole.SuperAdmin || AppRole(role) == AppRole.Admin,\n      \"THE SPECIFIED ADMIN ROLE DOES NOT EXIST\");\n       \n        return createUser(name, account, role);\n    }\n    \n    function createUser(string name, address account, uint role) private  ownerOnly returns(bool) {\n          \n         adminstratorAccounts[account] = Administrator(\n          name,\n          AppRole(role),\n            account,\n          true\n         );\n        \n          adminstratorAccountsList.push(Administrator(\n          name,\n          AppRole(role),\n            account,\n          true\n        ));\n        \n        return true;\n    }\n    \n    function getAdminUsersCount() public ownerOnly view returns (uint) {\n        \n          if(adminstratorAccountsList.length > 0) {\n               return adminstratorAccountsList.length;\n          }\n          return 0;\n    }\n    \n     function getAdminUserByAddress(address account) public ownerOnly view returns(string, uint, address) {\n        require(adminstratorAccounts[account].isAdmin);\n        \n        return(\n            adminstratorAccounts[account].name,\n            uint(adminstratorAccounts[account].role),\n            adminstratorAccounts[account].account\n        );\n    }\n    \n    function getAdminUserByIndex(uint index) public ownerOnly view returns(string, uint, address) {\n        require(index < adminstratorAccountsList.length);\n        \n        return(\n            adminstratorAccountsList[index].name,\n            uint(adminstratorAccountsList[index].role),\n            adminstratorAccountsList[index].account\n        );\n    }\n    \n}",
  "sourcePath": "/Users/yusufkelo/Documents/DEVELOPER/ETHEREAUM/blockchain-market/market-place/contracts/AdminUserManager.sol",
  "compiler": {
    "name": "solc",
    "version": "0.4.24+commit.e67f0147.Emscripten.clang"
  },
  "schemaVersion": "2.0.0",
  "updatedAt": "2018-08-03T21:31:12.614Z"
}