{
  "contractName": "ApplicationUserManager",
  "abi": [
    {
      "constant": false,
      "inputs": [],
      "name": "createAdmin",
      "outputs": [],
      "payable": false,
      "stateMutability": "nonpayable",
      "type": "function"
    },
    {
      "constant": true,
      "inputs": [],
      "name": "getUserRole",
      "outputs": [
        {
          "name": "",
          "type": "uint256"
        }
      ],
      "payable": false,
      "stateMutability": "view",
      "type": "function"
    },
    {
      "constant": true,
      "inputs": [],
      "name": "getPendingVendorsCount",
      "outputs": [
        {
          "name": "",
          "type": "uint256"
        }
      ],
      "payable": false,
      "stateMutability": "view",
      "type": "function"
    },
    {
      "constant": true,
      "inputs": [],
      "name": "getApprovedVendorsCount",
      "outputs": [
        {
          "name": "",
          "type": "uint256"
        }
      ],
      "payable": false,
      "stateMutability": "view",
      "type": "function"
    },
    {
      "constant": true,
      "inputs": [],
      "name": "getPendingVendors",
      "outputs": [
        {
          "name": "",
          "type": "uint256"
        }
      ],
      "payable": false,
      "stateMutability": "view",
      "type": "function"
    },
    {
      "constant": true,
      "inputs": [
        {
          "name": "index",
          "type": "uint256"
        }
      ],
      "name": "getApprovedVendorByIndex",
      "outputs": [
        {
          "name": "",
          "type": "string"
        },
        {
          "name": "",
          "type": "string"
        },
        {
          "name": "",
          "type": "string"
        },
        {
          "name": "",
          "type": "uint256"
        },
        {
          "name": "",
          "type": "address"
        }
      ],
      "payable": false,
      "stateMutability": "view",
      "type": "function"
    },
    {
      "constant": true,
      "inputs": [
        {
          "name": "index",
          "type": "uint256"
        }
      ],
      "name": "getPendingVendorByIndex",
      "outputs": [
        {
          "name": "",
          "type": "string"
        },
        {
          "name": "",
          "type": "string"
        },
        {
          "name": "",
          "type": "string"
        },
        {
          "name": "",
          "type": "uint256"
        },
        {
          "name": "",
          "type": "address"
        }
      ],
      "payable": false,
      "stateMutability": "view",
      "type": "function"
    },
    {
      "constant": true,
      "inputs": [
        {
          "name": "account",
          "type": "address"
        }
      ],
      "name": "getVendorByAddress",
      "outputs": [
        {
          "name": "",
          "type": "string"
        },
        {
          "name": "",
          "type": "string"
        },
        {
          "name": "",
          "type": "string"
        },
        {
          "name": "",
          "type": "uint256"
        },
        {
          "name": "",
          "type": "address"
        }
      ],
      "payable": false,
      "stateMutability": "view",
      "type": "function"
    },
    {
      "constant": false,
      "inputs": [
        {
          "name": "_name",
          "type": "string"
        },
        {
          "name": "_email",
          "type": "string"
        },
        {
          "name": "_phone",
          "type": "string"
        }
      ],
      "name": "requestVendorAccount",
      "outputs": [
        {
          "name": "",
          "type": "bool"
        }
      ],
      "payable": false,
      "stateMutability": "nonpayable",
      "type": "function"
    },
    {
      "constant": false,
      "inputs": [
        {
          "name": "account",
          "type": "address"
        }
      ],
      "name": "approveVendorAccount",
      "outputs": [
        {
          "name": "",
          "type": "bool"
        }
      ],
      "payable": false,
      "stateMutability": "nonpayable",
      "type": "function"
    }
  ],
  "bytecode": "0x60806040526200001d6200003d640100000000026401000000009004565b62000037336200007f640100000000026401000000009004565b620001f3565b336000806101000a81548173ffffffffffffffffffffffffffffffffffffffff021916908373ffffffffffffffffffffffffffffffffffffffff160217905550565b6000809054906101000a900473ffffffffffffffffffffffffffffffffffffffff1673ffffffffffffffffffffffffffffffffffffffff163373ffffffffffffffffffffffffffffffffffffffff16141515620000db57600080fd5b60606040519081016040528060006004811115620000f557fe5b81526020018273ffffffffffffffffffffffffffffffffffffffff16815260200160011515815250600160003373ffffffffffffffffffffffffffffffffffffffff1673ffffffffffffffffffffffffffffffffffffffff16815260200190815260200160002060008201518160000160006101000a81548160ff021916908360048111156200018157fe5b021790555060208201518160000160016101000a81548173ffffffffffffffffffffffffffffffffffffffff021916908373ffffffffffffffffffffffffffffffffffffffff16021790555060408201518160000160156101000a81548160ff02191690831515021790555090505050565b6123c580620002036000396000f3006080604052600436106100a4576000357c0100000000000000000000000000000000000000000000000000000000900463ffffffff16806306667429146100a957806306cfcb86146100d457806328617c7c1461028c578063340cffbe146103995780633d055963146103c457806343defc10146103ef57806358e99175146105bd57806399dcec8514610775578063bf04a10d146107d0578063e92980c5146107fb575b600080fd5b3480156100b557600080fd5b506100be610812565b6040518082815260200191505060405180910390f35b3480156100e057600080fd5b506100ff60048036038101908080359060200190929190505050610836565b604051808060200180602001806020018681526020018573ffffffffffffffffffffffffffffffffffffffff1673ffffffffffffffffffffffffffffffffffffffff168152602001848103845289818151815260200191508051906020019080838360005b8381101561017f578082015181840152602081019050610164565b50505050905090810190601f1680156101ac5780820380516001836020036101000a031916815260200191505b50848103835288818151815260200191508051906020019080838360005b838110156101e55780820151818401526020810190506101ca565b50505050905090810190601f1680156102125780820380516001836020036101000a031916815260200191505b50848103825287818151815260200191508051906020019080838360005b8381101561024b578082015181840152602081019050610230565b50505050905090810190601f1680156102785780820380516001836020036101000a031916815260200191505b509850505050505050505060405180910390f35b34801561029857600080fd5b5061037f600480360381019080803590602001908201803590602001908080601f0160208091040260200160405190810160405280939291908181526020018383808284378201915050505050509192919290803590602001908201803590602001908080601f0160208091040260200160405190810160405280939291908181526020018383808284378201915050505050509192919290803590602001908201803590602001908080601f0160208091040260200160405190810160405280939291908181526020018383808284378201915050505050509192919290505050610b7b565b604051808215151515815260200191505060405180910390f35b3480156103a557600080fd5b506103ae610e43565b6040518082815260200191505060405180910390f35b3480156103d057600080fd5b506103d9610e67565b6040518082815260200191505060405180910390f35b3480156103fb57600080fd5b50610430600480360381019080803573ffffffffffffffffffffffffffffffffffffffff169060200190929190505050610e8b565b604051808060200180602001806020018681526020018573ffffffffffffffffffffffffffffffffffffffff1673ffffffffffffffffffffffffffffffffffffffff168152602001848103845289818151815260200191508051906020019080838360005b838110156104b0578082015181840152602081019050610495565b50505050905090810190601f1680156104dd5780820380516001836020036101000a031916815260200191505b50848103835288818151815260200191508051906020019080838360005b838110156105165780820151818401526020810190506104fb565b50505050905090810190601f1680156105435780820380516001836020036101000a031916815260200191505b50848103825287818151815260200191508051906020019080838360005b8381101561057c578082015181840152602081019050610561565b50505050905090810190601f1680156105a95780820380516001836020036101000a031916815260200191505b509850505050505050505060405180910390f35b3480156105c957600080fd5b506105e860048036038101908080359060200190929190505050611259565b604051808060200180602001806020018681526020018573ffffffffffffffffffffffffffffffffffffffff1673ffffffffffffffffffffffffffffffffffffffff168152602001848103845289818151815260200191508051906020019080838360005b8381101561066857808201518184015260208101905061064d565b50505050905090810190601f1680156106955780820380516001836020036101000a031916815260200191505b50848103835288818151815260200191508051906020019080838360005b838110156106ce5780820151818401526020810190506106b3565b50505050905090810190601f1680156106fb5780820380516001836020036101000a031916815260200191505b50848103825287818151815260200191508051906020019080838360005b83811015610734578082015181840152602081019050610719565b50505050905090810190601f1680156107615780820380516001836020036101000a031916815260200191505b509850505050505050505060405180910390f35b34801561078157600080fd5b506107b6600480360381019080803573ffffffffffffffffffffffffffffffffffffffff16906020019092919050505061159e565b604051808215151515815260200191505060405180910390f35b3480156107dc57600080fd5b506107e56116e6565b6040518082815260200191505060405180910390f35b34801561080757600080fd5b50610810611876565b005b600080600480549050111561082e576004805490509050610833565b600090505b90565b6060806060600080600480549050861015156108ba576040517f08c379a000000000000000000000000000000000000000000000000000000000815260040180806020018281038252600d8152602001807f496e76616c696420696e6465780000000000000000000000000000000000000081525060200191505060405180910390fd5b6004868154811015156108c957fe5b90600052602060002090600702016000016004878154811015156108e957fe5b906000526020600020906007020160010160048881548110151561090957fe5b906000526020600020906007020160020160048981548110151561092957fe5b906000526020600020906007020160030160009054906101000a900460ff16600181111561095357fe5b60048a81548110151561096257fe5b906000526020600020906007020160030160019054906101000a900473ffffffffffffffffffffffffffffffffffffffff16848054600181600116156101000203166002900480601f016020809104026020016040519081016040528092919081815260200182805460018160011615610100020316600290048015610a295780601f106109fe57610100808354040283529160200191610a29565b820191906000526020600020905b815481529060010190602001808311610a0c57829003601f168201915b50505050509450838054600181600116156101000203166002900480601f016020809104026020016040519081016040528092919081815260200182805460018160011615610100020316600290048015610ac55780601f10610a9a57610100808354040283529160200191610ac5565b820191906000526020600020905b815481529060010190602001808311610aa857829003601f168201915b50505050509350828054600181600116156101000203166002900480601f016020809104026020016040519081016040528092919081815260200182805460018160011615610100020316600290048015610b615780601f10610b3657610100808354040283529160200191610b61565b820191906000526020600020905b815481529060010190602001808311610b4457829003601f168201915b505050505092509450945094509450945091939590929450565b6000801515600260003373ffffffffffffffffffffffffffffffffffffffff1673ffffffffffffffffffffffffffffffffffffffff16815260200190815260200160002060030160159054906101000a900460ff161515141515610c47576040517f08c379a00000000000000000000000000000000000000000000000000000000081526004018080602001828103825260158152602001807f5245515545535420495320494e2050524f43455353000000000000000000000081525060200191505060405180910390fd5b6101206040519081016040528085815260200184815260200183815260200160006001811115610c7357fe5b81526020013373ffffffffffffffffffffffffffffffffffffffff1681526020016001151581526020016004805490508152602001610cb06119e6565b815260200160036004811115610cc257fe5b815250600260003373ffffffffffffffffffffffffffffffffffffffff1673ffffffffffffffffffffffffffffffffffffffff1681526020019081526020016000206000820151816000019080519060200190610d20929190612131565b506020820151816001019080519060200190610d3d929190612131565b506040820151816002019080519060200190610d5a929190612131565b5060608201518160030160006101000a81548160ff02191690836001811115610d7f57fe5b021790555060808201518160030160016101000a81548173ffffffffffffffffffffffffffffffffffffffff021916908373ffffffffffffffffffffffffffffffffffffffff16021790555060a08201518160030160156101000a81548160ff02191690831515021790555060c0820151816004015560e082015181600501556101008201518160060160006101000a81548160ff02191690836004811115610e2457fe5b0217905550905050610e37848484611a0e565b50600190509392505050565b6000806004805490501115610e5f576004805490509050610e64565b600090505b90565b6000806005805490501115610e83576005805490509050610e88565b600090505b90565b6060806060600080600260008773ffffffffffffffffffffffffffffffffffffffff1673ffffffffffffffffffffffffffffffffffffffff16815260200190815260200160002060030160159054906101000a900460ff161515610eee57600080fd5b600260008773ffffffffffffffffffffffffffffffffffffffff1673ffffffffffffffffffffffffffffffffffffffff168152602001908152602001600020600001600260008873ffffffffffffffffffffffffffffffffffffffff1673ffffffffffffffffffffffffffffffffffffffff168152602001908152602001600020600101600260008973ffffffffffffffffffffffffffffffffffffffff1673ffffffffffffffffffffffffffffffffffffffff168152602001908152602001600020600201600260008a73ffffffffffffffffffffffffffffffffffffffff1673ffffffffffffffffffffffffffffffffffffffff16815260200190815260200160002060030160009054906101000a900460ff16600181111561100f57fe5b600260008b73ffffffffffffffffffffffffffffffffffffffff1673ffffffffffffffffffffffffffffffffffffffff16815260200190815260200160002060030160019054906101000a900473ffffffffffffffffffffffffffffffffffffffff16848054600181600116156101000203166002900480601f0160208091040260200160405190810160405280929190818152602001828054600181600116156101000203166002900480156111075780601f106110dc57610100808354040283529160200191611107565b820191906000526020600020905b8154815290600101906020018083116110ea57829003601f168201915b50505050509450838054600181600116156101000203166002900480601f0160208091040260200160405190810160405280929190818152602001828054600181600116156101000203166002900480156111a35780601f10611178576101008083540402835291602001916111a3565b820191906000526020600020905b81548152906001019060200180831161118657829003601f168201915b50505050509350828054600181600116156101000203166002900480601f01602080910402602001604051908101604052809291908181526020018280546001816001161561010002031660029004801561123f5780601f106112145761010080835404028352916020019161123f565b820191906000526020600020905b81548152906001019060200180831161122257829003601f168201915b505050505092509450945094509450945091939590929450565b6060806060600080600580549050861015156112dd576040517f08c379a000000000000000000000000000000000000000000000000000000000815260040180806020018281038252600d8152602001807f496e76616c696420696e6465780000000000000000000000000000000000000081525060200191505060405180910390fd5b6005868154811015156112ec57fe5b906000526020600020906007020160000160058781548110151561130c57fe5b906000526020600020906007020160010160058881548110151561132c57fe5b906000526020600020906007020160020160058981548110151561134c57fe5b906000526020600020906007020160030160009054906101000a900460ff16600181111561137657fe5b60058a81548110151561138557fe5b906000526020600020906007020160030160019054906101000a900473ffffffffffffffffffffffffffffffffffffffff16848054600181600116156101000203166002900480601f01602080910402602001604051908101604052809291908181526020018280546001816001161561010002031660029004801561144c5780601f106114215761010080835404028352916020019161144c565b820191906000526020600020905b81548152906001019060200180831161142f57829003601f168201915b50505050509450838054600181600116156101000203166002900480601f0160208091040260200160405190810160405280929190818152602001828054600181600116156101000203166002900480156114e85780601f106114bd576101008083540402835291602001916114e8565b820191906000526020600020905b8154815290600101906020018083116114cb57829003601f168201915b50505050509350828054600181600116156101000203166002900480601f0160208091040260200160405190810160405280929190818152602001828054600181600116156101000203166002900480156115845780601f1061155957610100808354040283529160200191611584565b820191906000526020600020905b81548152906001019060200180831161156757829003601f168201915b505050505092509450945094509450945091939590929450565b600060011515600260008473ffffffffffffffffffffffffffffffffffffffff1673ffffffffffffffffffffffffffffffffffffffff16815260200190815260200160002060030160159054906101000a900460ff16151514151561160257600080fd5b6001600260008473ffffffffffffffffffffffffffffffffffffffff1673ffffffffffffffffffffffffffffffffffffffff16815260200190815260200160002060030160006101000a81548160ff0219169083600181111561166157fe5b021790555060028060008473ffffffffffffffffffffffffffffffffffffffff1673ffffffffffffffffffffffffffffffffffffffff16815260200190815260200160002060060160006101000a81548160ff021916908360048111156116c457fe5b02179055506116d282611bed565b506116dc82611edf565b5060019050919050565b600060011515600260003373ffffffffffffffffffffffffffffffffffffffff1673ffffffffffffffffffffffffffffffffffffffff16815260200190815260200160002060030160159054906101000a900460ff16151514156117a657600260003373ffffffffffffffffffffffffffffffffffffffff1673ffffffffffffffffffffffffffffffffffffffff16815260200190815260200160002060060160009054906101000a900460ff16600481111561179f57fe5b9050611873565b60011515600160003373ffffffffffffffffffffffffffffffffffffffff1673ffffffffffffffffffffffffffffffffffffffff16815260200190815260200160002060000160159054906101000a900460ff161515141561186457600160003373ffffffffffffffffffffffffffffffffffffffff1673ffffffffffffffffffffffffffffffffffffffff16815260200190815260200160002060000160009054906101000a900460ff16600481111561185d57fe5b9050611873565b60048081111561187057fe5b90505b90565b6000809054906101000a900473ffffffffffffffffffffffffffffffffffffffff1673ffffffffffffffffffffffffffffffffffffffff163373ffffffffffffffffffffffffffffffffffffffff161415156118d157600080fd5b606060405190810160405280600160048111156118ea57fe5b81526020013373ffffffffffffffffffffffffffffffffffffffff16815260200160011515815250600160003373ffffffffffffffffffffffffffffffffffffffff1673ffffffffffffffffffffffffffffffffffffffff16815260200190815260200160002060008201518160000160006101000a81548160ff0219169083600481111561197557fe5b021790555060208201518160000160016101000a81548173ffffffffffffffffffffffffffffffffffffffff021916908373ffffffffffffffffffffffffffffffffffffffff16021790555060408201518160000160156101000a81548160ff021916908315150217905550905050565b60007fffffffffffffffffffffffffffffffffffffffffffffffffffffffffffffffff905090565b6000600160046101206040519081016040528087815260200186815260200185815260200160006001811115611a4057fe5b81526020013373ffffffffffffffffffffffffffffffffffffffff1681526020016001151581526020016004805490508152602001611a7d6119e6565b815260200160036004811115611a8f57fe5b815250908060018154018082558091505090600182039060005260206000209060070201600090919290919091506000820151816000019080519060200190611ad9929190612131565b506020820151816001019080519060200190611af6929190612131565b506040820151816002019080519060200190611b13929190612131565b5060608201518160030160006101000a81548160ff02191690836001811115611b3857fe5b021790555060808201518160030160016101000a81548173ffffffffffffffffffffffffffffffffffffffff021916908373ffffffffffffffffffffffffffffffffffffffff16021790555060a08201518160030160156101000a81548160ff02191690831515021790555060c0820151816004015560e082015181600501556101008201518160060160006101000a81548160ff02191690836004811115611bdd57fe5b0217905550505050509392505050565b60007fffffffffffffffffffffffffffffffffffffffffffffffffffffffffffffffff600260008473ffffffffffffffffffffffffffffffffffffffff1673ffffffffffffffffffffffffffffffffffffffff16815260200190815260200160002060040154131515611c5f57600080fd5b6004600160048054905003815481101515611c7657fe5b90600052602060002090600702016004600260008573ffffffffffffffffffffffffffffffffffffffff1673ffffffffffffffffffffffffffffffffffffffff16815260200190815260200160002060040154815481101515611cd557fe5b906000526020600020906007020160008201816000019080546001816001161561010002031660029004611d0a9291906121b1565b5060018201816001019080546001816001161561010002031660029004611d329291906121b1565b5060028201816002019080546001816001161561010002031660029004611d5a9291906121b1565b506003820160009054906101000a900460ff168160030160006101000a81548160ff02191690836001811115611d8c57fe5b02179055506003820160019054906101000a900473ffffffffffffffffffffffffffffffffffffffff168160030160016101000a81548173ffffffffffffffffffffffffffffffffffffffff021916908373ffffffffffffffffffffffffffffffffffffffff1602179055506003820160159054906101000a900460ff168160030160156101000a81548160ff02191690831515021790555060048201548160040155600582015481600501556006820160009054906101000a900460ff168160060160006101000a81548160ff02191690836004811115611e6a57fe5b0217905550905050611e7a6119e6565b600260008473ffffffffffffffffffffffffffffffffffffffff1673ffffffffffffffffffffffffffffffffffffffff168152602001908152602001600020600401819055506004805480919060019003611ed59190612238565b5060019050919050565b6000600580549050600260008473ffffffffffffffffffffffffffffffffffffffff1673ffffffffffffffffffffffffffffffffffffffff168152602001908152602001600020600501819055506005600260008473ffffffffffffffffffffffffffffffffffffffff1673ffffffffffffffffffffffffffffffffffffffff1681526020019081526020016000209080600181540180825580915050906001820390600052602060002090600702016000909192909190915060008201816000019080546001816001161561010002031660029004611fc09291906121b1565b5060018201816001019080546001816001161561010002031660029004611fe89291906121b1565b50600282018160020190805460018160011615610100020316600290046120109291906121b1565b506003820160009054906101000a900460ff168160030160006101000a81548160ff0219169083600181111561204257fe5b02179055506003820160019054906101000a900473ffffffffffffffffffffffffffffffffffffffff168160030160016101000a81548173ffffffffffffffffffffffffffffffffffffffff021916908373ffffffffffffffffffffffffffffffffffffffff1602179055506003820160159054906101000a900460ff168160030160156101000a81548160ff02191690831515021790555060048201548160040155600582015481600501556006820160009054906101000a900460ff168160060160006101000a81548160ff0219169083600481111561212057fe5b021790555050505060019050919050565b828054600181600116156101000203166002900490600052602060002090601f016020900481019282601f1061217257805160ff19168380011785556121a0565b828001600101855582156121a0579182015b8281111561219f578251825591602001919060010190612184565b5b5090506121ad919061226a565b5090565b828054600181600116156101000203166002900490600052602060002090601f016020900481019282601f106121ea5780548555612227565b8280016001018555821561222757600052602060002091601f016020900482015b8281111561222657825482559160010191906001019061220b565b5b509050612234919061226a565b5090565b81548183558181111561226557600702816007028360005260206000209182019101612264919061228f565b5b505050565b61228c91905b80821115612288576000816000905550600101612270565b5090565b90565b61234e91905b8082111561234a57600080820160006122ae9190612351565b6001820160006122be9190612351565b6002820160006122ce9190612351565b6003820160006101000a81549060ff02191690556003820160016101000a81549073ffffffffffffffffffffffffffffffffffffffff02191690556003820160156101000a81549060ff0219169055600482016000905560058201600090556006820160006101000a81549060ff021916905550600701612295565b5090565b90565b50805460018160011615610100020316600290046000825580601f106123775750612396565b601f016020900490600052602060002090810190612395919061226a565b5b505600a165627a7a7230582027b5983947feb1a625f18e35792ef0eafbda754eb69297252c6bb8eec4a0d2e20029",
  "source": "pragma solidity ^0.4.18;\nimport \"./Ownerble.sol\";\n\ncontract ApplicationUserManager is Ownerble {\n    \n    enum AccountState {\n        Pending,\n        Approved\n    }\n    \n    \n    struct Vendor {\n        string name;\n        string email;\n        string phone;\n        AccountState state;\n        address account;\n        bool isVendorOrApplicant;\n        int pendingListIndex;\n        int approveListIndex;\n        AppRole role;\n    }\n    \n    mapping(address => Vendor) private vendors;\n    AccountState accountState;\n    Vendor[] private pendingVendors;\n    Vendor[] private approvedVendors;\n    \n    \n    //administrators\n      function createAdmin() public ownerOnly {\n        \n        administrators[msg.sender] = Administrator(\n           AppRole.Admin,\n           msg.sender,\n           true\n        );\n    }\n    \n    \n    function getUserRole() public view returns(uint) {\n        \n        if(vendors[msg.sender].isVendorOrApplicant == true) {\n            return uint(AppRole(vendors[msg.sender].role));\n        }\n        else if(administrators[msg.sender].isAdmin == true) {\n             return uint(AppRole(administrators[msg.sender].role));\n        }else {\n            return uint(AppRole.Customer);\n        }\n    }\n    \n    function getPendingVendorsCount() public view returns (uint) {\n          if(pendingVendors.length>0) {\n                return pendingVendors.length;\n          }\n          return 0;\n         \n    }\n    \n    function getApprovedVendorsCount() public view returns (uint) {\n        if(approvedVendors.length>0) {\n               return approvedVendors.length;\n          }\n          return 0;\n    }\n    \n    function getPendingVendors() public view returns (uint) {\n          if(pendingVendors.length>0) {\n               return pendingVendors.length;\n          }\n          return 0;\n    }\n    \n    function getApprovedVendorByIndex(uint index) public view returns (string, string, string, uint, address) {\n         require(index < approvedVendors.length, \"Invalid index\");\n          return(\n              approvedVendors[index].name,\n              approvedVendors[index].email,\n              approvedVendors[index].phone,\n              uint(approvedVendors[index].state),\n              approvedVendors[index].account\n          );\n    }\n    \n     function getPendingVendorByIndex(uint index) public view returns (string, string, string, uint, address) {\n         require(index < pendingVendors.length, \"Invalid index\");\n          return(\n              pendingVendors[index].name,\n              pendingVendors[index].email,\n              pendingVendors[index].phone,\n              uint(pendingVendors[index].state),\n              pendingVendors[index].account\n          );\n    }\n    \n     function getVendorByAddress(address account) public view returns (string, string, string, uint, address) {\n         require(vendors[account].isVendorOrApplicant);\n          return(\n              vendors[account].name,\n              vendors[account].email,\n              vendors[account].phone,\n              uint(vendors[account].state),\n              vendors[account].account\n          );\n    }\n    \n    \n    \n    function requestVendorAccount(string _name, string _email,  string _phone) public returns(bool) {\n          require(vendors[msg.sender].isVendorOrApplicant == false, \"REQUEST IS IN PROCESS\");\n           \n          vendors[msg.sender] = Vendor(_name, _email, _phone, AccountState.Pending, \n          msg.sender, true,  int(pendingVendors.length),getNotExistsIndex(), AppRole.VendorAwaitingApproval);\n          setPendingVendor(_name,_email,_phone);\n                                         \n         return true;\n    }\n    \n    function setPendingVendor(string _name, string _email,  string _phone) private returns (uint){\n\n         pendingVendors.push(Vendor(_name, _email, _phone, AccountState.Pending,\n         msg.sender, true, int(pendingVendors.length),getNotExistsIndex(),AppRole.VendorAwaitingApproval)) -1;\n         \n    }\n    \n    function approveVendorAccount(address account) public returns(bool) {\n         require(vendors[account].isVendorOrApplicant == true);\n          vendors[account].state = AccountState.Approved;\n          vendors[account].role = AppRole.Vendor;\n          removeAccountFromPendingList(account);\n          addAccountToApprovedList(account);\n          return true;\n    }\n    \n    function removeAccountFromPendingList(address account) private returns(bool) {\n          require(vendors[account].pendingListIndex > -1);\n          pendingVendors[uint(vendors[account].pendingListIndex)] = pendingVendors[pendingVendors.length - 1];\n          vendors[account].pendingListIndex = getNotExistsIndex();\n          pendingVendors.length --;\n           \n          return true;\n    }\n    \n    function addAccountToApprovedList(address account) private returns(bool) {\n          vendors[account].approveListIndex = int(approvedVendors.length);\n          approvedVendors.push(vendors[account]);\n          return true;\n    }\n    \n    function getNotExistsIndex() private pure returns (int) {\n         return -1;\n    }\n             \n\n    \n}",
  "sourcePath": "/Users/yusufkelo/Documents/DEVELOPER/ETHEREAUM/blockchain-market/market-place/contracts/ApplicationUserManager.sol",
  "compiler": {
    "name": "solc",
    "version": "0.4.24+commit.e67f0147.Emscripten.clang"
  },
  "schemaVersion": "2.0.0",
  "updatedAt": "2018-07-28T11:55:49.827Z"
}