{
  "contractName": "ApplicationUserManager",
  "abi": [
    {
      "constant": true,
      "inputs": [],
      "name": "getPendingVendorsCount",
      "outputs": [
        {
          "name": "",
          "type": "uint256"
        }
      ],
      "payable": false,
      "stateMutability": "view",
      "type": "function"
    },
    {
      "constant": true,
      "inputs": [],
      "name": "getApprovedVendorsCount",
      "outputs": [
        {
          "name": "",
          "type": "uint256"
        }
      ],
      "payable": false,
      "stateMutability": "view",
      "type": "function"
    },
    {
      "constant": true,
      "inputs": [],
      "name": "getPendingVendors",
      "outputs": [
        {
          "name": "",
          "type": "uint256"
        }
      ],
      "payable": false,
      "stateMutability": "view",
      "type": "function"
    },
    {
      "constant": true,
      "inputs": [
        {
          "name": "index",
          "type": "uint256"
        }
      ],
      "name": "getApprovedVendorByIndex",
      "outputs": [
        {
          "name": "",
          "type": "string"
        },
        {
          "name": "",
          "type": "string"
        },
        {
          "name": "",
          "type": "string"
        },
        {
          "name": "",
          "type": "uint256"
        },
        {
          "name": "",
          "type": "address"
        }
      ],
      "payable": false,
      "stateMutability": "view",
      "type": "function"
    },
    {
      "constant": true,
      "inputs": [
        {
          "name": "index",
          "type": "uint256"
        }
      ],
      "name": "getPendingVendorByIndex",
      "outputs": [
        {
          "name": "",
          "type": "string"
        },
        {
          "name": "",
          "type": "string"
        },
        {
          "name": "",
          "type": "string"
        },
        {
          "name": "",
          "type": "uint256"
        },
        {
          "name": "",
          "type": "address"
        }
      ],
      "payable": false,
      "stateMutability": "view",
      "type": "function"
    },
    {
      "constant": true,
      "inputs": [
        {
          "name": "account",
          "type": "address"
        }
      ],
      "name": "getVendorByAddress",
      "outputs": [
        {
          "name": "",
          "type": "string"
        },
        {
          "name": "",
          "type": "string"
        },
        {
          "name": "",
          "type": "string"
        },
        {
          "name": "",
          "type": "uint256"
        },
        {
          "name": "",
          "type": "address"
        }
      ],
      "payable": false,
      "stateMutability": "view",
      "type": "function"
    },
    {
      "constant": false,
      "inputs": [
        {
          "name": "_name",
          "type": "string"
        },
        {
          "name": "_email",
          "type": "string"
        },
        {
          "name": "_phone",
          "type": "string"
        }
      ],
      "name": "requestVendorAccount",
      "outputs": [
        {
          "name": "",
          "type": "bool"
        }
      ],
      "payable": false,
      "stateMutability": "nonpayable",
      "type": "function"
    },
    {
      "constant": false,
      "inputs": [
        {
          "name": "account",
          "type": "address"
        }
      ],
      "name": "approveVendorAccount",
      "outputs": [
        {
          "name": "",
          "type": "bool"
        }
      ],
      "payable": false,
      "stateMutability": "nonpayable",
      "type": "function"
    },
    {
      "constant": true,
      "inputs": [],
      "name": "getApprovedIndex_P",
      "outputs": [
        {
          "name": "",
          "type": "int256"
        }
      ],
      "payable": false,
      "stateMutability": "view",
      "type": "function"
    },
    {
      "constant": true,
      "inputs": [],
      "name": "getPendingIndex_P",
      "outputs": [
        {
          "name": "",
          "type": "int256"
        }
      ],
      "payable": false,
      "stateMutability": "view",
      "type": "function"
    },
    {
      "constant": true,
      "inputs": [],
      "name": "getApprovedIndex_A",
      "outputs": [
        {
          "name": "",
          "type": "int256"
        }
      ],
      "payable": false,
      "stateMutability": "view",
      "type": "function"
    },
    {
      "constant": true,
      "inputs": [],
      "name": "getPendingIndex_A",
      "outputs": [
        {
          "name": "",
          "type": "int256"
        }
      ],
      "payable": false,
      "stateMutability": "view",
      "type": "function"
    }
  ],
  "bytecode": "0x608060405234801561001057600080fd5b5061203a806100206000396000f3006080604052600436106100ba576000357c0100000000000000000000000000000000000000000000000000000000900463ffffffff16806302a0de5b146100bf57806306667429146100ea57806306cfcb861461011557806328617c7c146102cd578063340cffbe146103da5780633d0559631461040557806343defc101461043057806358e99175146105fe5780637c67c403146107b657806399dcec85146107e15780639bbf944c1461083c578063d4d7262314610867575b600080fd5b3480156100cb57600080fd5b506100d4610892565b6040518082815260200191505060405180910390f35b3480156100f657600080fd5b506100ff6108bb565b6040518082815260200191505060405180910390f35b34801561012157600080fd5b50610140600480360381019080803590602001909291905050506108c8565b604051808060200180602001806020018681526020018573ffffffffffffffffffffffffffffffffffffffff1673ffffffffffffffffffffffffffffffffffffffff168152602001848103845289818151815260200191508051906020019080838360005b838110156101c05780820151818401526020810190506101a5565b50505050905090810190601f1680156101ed5780820380516001836020036101000a031916815260200191505b50848103835288818151815260200191508051906020019080838360005b8381101561022657808201518184015260208101905061020b565b50505050905090810190601f1680156102535780820380516001836020036101000a031916815260200191505b50848103825287818151815260200191508051906020019080838360005b8381101561028c578082015181840152602081019050610271565b50505050905090810190601f1680156102b95780820380516001836020036101000a031916815260200191505b509850505050505050505060405180910390f35b3480156102d957600080fd5b506103c0600480360381019080803590602001908201803590602001908080601f0160208091040260200160405190810160405280939291908181526020018383808284378201915050505050509192919290803590602001908201803590602001908080601f0160208091040260200160405190810160405280939291908181526020018383808284378201915050505050509192919290803590602001908201803590602001908080601f0160208091040260200160405190810160405280939291908181526020018383808284378201915050505050509192919290505050610c0d565b604051808215151515815260200191505060405180910390f35b3480156103e657600080fd5b506103ef610e97565b6040518082815260200191505060405180910390f35b34801561041157600080fd5b5061041a610ea4565b6040518082815260200191505060405180910390f35b34801561043c57600080fd5b50610471600480360381019080803573ffffffffffffffffffffffffffffffffffffffff169060200190929190505050610eb1565b604051808060200180602001806020018681526020018573ffffffffffffffffffffffffffffffffffffffff1673ffffffffffffffffffffffffffffffffffffffff168152602001848103845289818151815260200191508051906020019080838360005b838110156104f15780820151818401526020810190506104d6565b50505050905090810190601f16801561051e5780820380516001836020036101000a031916815260200191505b50848103835288818151815260200191508051906020019080838360005b8381101561055757808201518184015260208101905061053c565b50505050905090810190601f1680156105845780820380516001836020036101000a031916815260200191505b50848103825287818151815260200191508051906020019080838360005b838110156105bd5780820151818401526020810190506105a2565b50505050905090810190601f1680156105ea5780820380516001836020036101000a031916815260200191505b509850505050505050505060405180910390f35b34801561060a57600080fd5b5061062960048036038101908080359060200190929190505050611279565b604051808060200180602001806020018681526020018573ffffffffffffffffffffffffffffffffffffffff1673ffffffffffffffffffffffffffffffffffffffff168152602001848103845289818151815260200191508051906020019080838360005b838110156106a957808201518184015260208101905061068e565b50505050905090810190601f1680156106d65780820380516001836020036101000a031916815260200191505b50848103835288818151815260200191508051906020019080838360005b8381101561070f5780820151818401526020810190506106f4565b50505050905090810190601f16801561073c5780820380516001836020036101000a031916815260200191505b50848103825287818151815260200191508051906020019080838360005b8381101561077557808201518184015260208101905061075a565b50505050905090810190601f1680156107a25780820380516001836020036101000a031916815260200191505b509850505050505050505060405180910390f35b3480156107c257600080fd5b506107cb6115be565b6040518082815260200191505060405180910390f35b3480156107ed57600080fd5b50610822600480360381019080803573ffffffffffffffffffffffffffffffffffffffff1690602001909291905050506115e7565b604051808215151515815260200191505060405180910390f35b34801561084857600080fd5b506108516116ca565b6040518082815260200191505060405180910390f35b34801561087357600080fd5b5061087c6116f3565b6040518082815260200191505060405180910390f35b6000600260008154811015156108a457fe5b906000526020600020906006020160050154905090565b6000600280549050905090565b60608060606000806002805490508610151561094c576040517f08c379a000000000000000000000000000000000000000000000000000000000815260040180806020018281038252600d8152602001807f496e76616c696420696e6465780000000000000000000000000000000000000081525060200191505060405180910390fd5b60028681548110151561095b57fe5b906000526020600020906006020160000160028781548110151561097b57fe5b906000526020600020906006020160010160028881548110151561099b57fe5b90600052602060002090600602016002016002898154811015156109bb57fe5b906000526020600020906006020160030160009054906101000a900460ff1660018111156109e557fe5b60028a8154811015156109f457fe5b906000526020600020906006020160030160019054906101000a900473ffffffffffffffffffffffffffffffffffffffff16848054600181600116156101000203166002900480601f016020809104026020016040519081016040528092919081815260200182805460018160011615610100020316600290048015610abb5780601f10610a9057610100808354040283529160200191610abb565b820191906000526020600020905b815481529060010190602001808311610a9e57829003601f168201915b50505050509450838054600181600116156101000203166002900480601f016020809104026020016040519081016040528092919081815260200182805460018160011615610100020316600290048015610b575780601f10610b2c57610100808354040283529160200191610b57565b820191906000526020600020905b815481529060010190602001808311610b3a57829003601f168201915b50505050509350828054600181600116156101000203166002900480601f016020809104026020016040519081016040528092919081815260200182805460018160011615610100020316600290048015610bf35780601f10610bc857610100808354040283529160200191610bf3565b820191906000526020600020905b815481529060010190602001808311610bd657829003601f168201915b505050505092509450945094509450945091939590929450565b60008015156000803373ffffffffffffffffffffffffffffffffffffffff1673ffffffffffffffffffffffffffffffffffffffff16815260200190815260200160002060030160159054906101000a900460ff161515141515610cd8576040517f08c379a00000000000000000000000000000000000000000000000000000000081526004018080602001828103825260158152602001807f5245515545535420495320494e2050524f43455353000000000000000000000081525060200191505060405180910390fd5b6101006040519081016040528085815260200184815260200183815260200160006001811115610d0457fe5b81526020013373ffffffffffffffffffffffffffffffffffffffff1681526020016001151581526020016002805490508152602001610d4161171c565b8152506000803373ffffffffffffffffffffffffffffffffffffffff1673ffffffffffffffffffffffffffffffffffffffff1681526020019081526020016000206000820151816000019080519060200190610d9e929190611dba565b506020820151816001019080519060200190610dbb929190611dba565b506040820151816002019080519060200190610dd8929190611dba565b5060608201518160030160006101000a81548160ff02191690836001811115610dfd57fe5b021790555060808201518160030160016101000a81548173ffffffffffffffffffffffffffffffffffffffff021916908373ffffffffffffffffffffffffffffffffffffffff16021790555060a08201518160030160156101000a81548160ff02191690831515021790555060c0820151816004015560e08201518160050155905050610e8b848484611744565b50600190509392505050565b6000600280549050905090565b6000600380549050905090565b60608060606000806000808773ffffffffffffffffffffffffffffffffffffffff1673ffffffffffffffffffffffffffffffffffffffff16815260200190815260200160002060030160159054906101000a900460ff161515610f1357600080fd5b6000808773ffffffffffffffffffffffffffffffffffffffff1673ffffffffffffffffffffffffffffffffffffffff1681526020019081526020016000206000016000808873ffffffffffffffffffffffffffffffffffffffff1673ffffffffffffffffffffffffffffffffffffffff1681526020019081526020016000206001016000808973ffffffffffffffffffffffffffffffffffffffff1673ffffffffffffffffffffffffffffffffffffffff1681526020019081526020016000206002016000808a73ffffffffffffffffffffffffffffffffffffffff1673ffffffffffffffffffffffffffffffffffffffff16815260200190815260200160002060030160009054906101000a900460ff16600181111561103057fe5b6000808b73ffffffffffffffffffffffffffffffffffffffff1673ffffffffffffffffffffffffffffffffffffffff16815260200190815260200160002060030160019054906101000a900473ffffffffffffffffffffffffffffffffffffffff16848054600181600116156101000203166002900480601f0160208091040260200160405190810160405280929190818152602001828054600181600116156101000203166002900480156111275780601f106110fc57610100808354040283529160200191611127565b820191906000526020600020905b81548152906001019060200180831161110a57829003601f168201915b50505050509450838054600181600116156101000203166002900480601f0160208091040260200160405190810160405280929190818152602001828054600181600116156101000203166002900480156111c35780601f10611198576101008083540402835291602001916111c3565b820191906000526020600020905b8154815290600101906020018083116111a657829003601f168201915b50505050509350828054600181600116156101000203166002900480601f01602080910402602001604051908101604052809291908181526020018280546001816001161561010002031660029004801561125f5780601f106112345761010080835404028352916020019161125f565b820191906000526020600020905b81548152906001019060200180831161124257829003601f168201915b505050505092509450945094509450945091939590929450565b6060806060600080600380549050861015156112fd576040517f08c379a000000000000000000000000000000000000000000000000000000000815260040180806020018281038252600d8152602001807f496e76616c696420696e6465780000000000000000000000000000000000000081525060200191505060405180910390fd5b60038681548110151561130c57fe5b906000526020600020906006020160000160038781548110151561132c57fe5b906000526020600020906006020160010160038881548110151561134c57fe5b906000526020600020906006020160020160038981548110151561136c57fe5b906000526020600020906006020160030160009054906101000a900460ff16600181111561139657fe5b60038a8154811015156113a557fe5b906000526020600020906006020160030160019054906101000a900473ffffffffffffffffffffffffffffffffffffffff16848054600181600116156101000203166002900480601f01602080910402602001604051908101604052809291908181526020018280546001816001161561010002031660029004801561146c5780601f106114415761010080835404028352916020019161146c565b820191906000526020600020905b81548152906001019060200180831161144f57829003601f168201915b50505050509450838054600181600116156101000203166002900480601f0160208091040260200160405190810160405280929190818152602001828054600181600116156101000203166002900480156115085780601f106114dd57610100808354040283529160200191611508565b820191906000526020600020905b8154815290600101906020018083116114eb57829003601f168201915b50505050509350828054600181600116156101000203166002900480601f0160208091040260200160405190810160405280929190818152602001828054600181600116156101000203166002900480156115a45780601f10611579576101008083540402835291602001916115a4565b820191906000526020600020905b81548152906001019060200180831161158757829003601f168201915b505050505092509450945094509450945091939590929450565b6000600360008154811015156115d057fe5b906000526020600020906006020160050154905090565b6000600115156000808473ffffffffffffffffffffffffffffffffffffffff1673ffffffffffffffffffffffffffffffffffffffff16815260200190815260200160002060030160159054906101000a900460ff16151514151561164a57600080fd5b60016000808473ffffffffffffffffffffffffffffffffffffffff1673ffffffffffffffffffffffffffffffffffffffff16815260200190815260200160002060030160006101000a81548160ff021916908360018111156116a857fe5b02179055506116b6826118e7565b506116c082611ba0565b5060019050919050565b6000600360008154811015156116dc57fe5b906000526020600020906006020160040154905090565b60006002600081548110151561170557fe5b906000526020600020906006020160040154905090565b60007fffffffffffffffffffffffffffffffffffffffffffffffffffffffffffffffff905090565b600060016002610100604051908101604052808781526020018681526020018581526020016000600181111561177657fe5b81526020013373ffffffffffffffffffffffffffffffffffffffff16815260200160011515815260200160028054905081526020016117b361171c565b8152509080600181540180825580915050906001820390600052602060002090600602016000909192909190915060008201518160000190805190602001906117fd929190611dba565b50602082015181600101908051906020019061181a929190611dba565b506040820151816002019080519060200190611837929190611dba565b5060608201518160030160006101000a81548160ff0219169083600181111561185c57fe5b021790555060808201518160030160016101000a81548173ffffffffffffffffffffffffffffffffffffffff021916908373ffffffffffffffffffffffffffffffffffffffff16021790555060a08201518160030160156101000a81548160ff02191690831515021790555060c0820151816004015560e08201518160050155505050509392505050565b60007fffffffffffffffffffffffffffffffffffffffffffffffffffffffffffffffff6000808473ffffffffffffffffffffffffffffffffffffffff1673ffffffffffffffffffffffffffffffffffffffff1681526020019081526020016000206004015413151561195857600080fd5b600260016002805490500381548110151561196f57fe5b906000526020600020906006020160026000808573ffffffffffffffffffffffffffffffffffffffff1673ffffffffffffffffffffffffffffffffffffffff168152602001908152602001600020600401548154811015156119cd57fe5b906000526020600020906006020160008201816000019080546001816001161561010002031660029004611a02929190611e3a565b5060018201816001019080546001816001161561010002031660029004611a2a929190611e3a565b5060028201816002019080546001816001161561010002031660029004611a52929190611e3a565b506003820160009054906101000a900460ff168160030160006101000a81548160ff02191690836001811115611a8457fe5b02179055506003820160019054906101000a900473ffffffffffffffffffffffffffffffffffffffff168160030160016101000a81548173ffffffffffffffffffffffffffffffffffffffff021916908373ffffffffffffffffffffffffffffffffffffffff1602179055506003820160159054906101000a900460ff168160030160156101000a81548160ff0219169083151502179055506004820154816004015560058201548160050155905050611b3c61171c565b6000808473ffffffffffffffffffffffffffffffffffffffff1673ffffffffffffffffffffffffffffffffffffffff168152602001908152602001600020600401819055506002805480919060019003611b969190611ec1565b5060019050919050565b60006003805490506000808473ffffffffffffffffffffffffffffffffffffffff1673ffffffffffffffffffffffffffffffffffffffff1681526020019081526020016000206005018190555060036000808473ffffffffffffffffffffffffffffffffffffffff1673ffffffffffffffffffffffffffffffffffffffff1681526020019081526020016000209080600181540180825580915050906001820390600052602060002090600602016000909192909190915060008201816000019080546001816001161561010002031660029004611c7f929190611e3a565b5060018201816001019080546001816001161561010002031660029004611ca7929190611e3a565b5060028201816002019080546001816001161561010002031660029004611ccf929190611e3a565b506003820160009054906101000a900460ff168160030160006101000a81548160ff02191690836001811115611d0157fe5b02179055506003820160019054906101000a900473ffffffffffffffffffffffffffffffffffffffff168160030160016101000a81548173ffffffffffffffffffffffffffffffffffffffff021916908373ffffffffffffffffffffffffffffffffffffffff1602179055506003820160159054906101000a900460ff168160030160156101000a81548160ff021916908315150217905550600482015481600401556005820154816005015550505060019050919050565b828054600181600116156101000203166002900490600052602060002090601f016020900481019282601f10611dfb57805160ff1916838001178555611e29565b82800160010185558215611e29579182015b82811115611e28578251825591602001919060010190611e0d565b5b509050611e369190611ef3565b5090565b828054600181600116156101000203166002900490600052602060002090601f016020900481019282601f10611e735780548555611eb0565b82800160010185558215611eb057600052602060002091601f016020900482015b82811115611eaf578254825591600101919060010190611e94565b5b509050611ebd9190611ef3565b5090565b815481835581811115611eee57600602816006028360005260206000209182019101611eed9190611f18565b5b505050565b611f1591905b80821115611f11576000816000905550600101611ef9565b5090565b90565b611fc391905b80821115611fbf5760008082016000611f379190611fc6565b600182016000611f479190611fc6565b600282016000611f579190611fc6565b6003820160006101000a81549060ff02191690556003820160016101000a81549073ffffffffffffffffffffffffffffffffffffffff02191690556003820160156101000a81549060ff02191690556004820160009055600582016000905550600601611f1e565b5090565b90565b50805460018160011615610100020316600290046000825580601f10611fec575061200b565b601f01602090049060005260206000209081019061200a9190611ef3565b5b505600a165627a7a72305820bd45da1dd5709a8f476fac48fb7605e8367ed4485506b9859c505341441fe7fd0029",
  "source": "pragma solidity ^0.4.18;\n\n\ncontract ApplicationUserManager {\n    \n    enum AccountState {\n        Pending,\n        Approved\n    }\n    \n    struct Vendor {\n        string name;\n        string email;\n        string phone;\n        AccountState state;\n        address account;\n        bool isVendorOrApplicant;\n        int pendingListIndex;\n        int approveListIndex;\n    }\n    \n    mapping(address => Vendor) private vendors;\n    AccountState accountState;\n    Vendor[] private pendingVendors;\n    Vendor[] private approvedVendors;\n    \n    \n    \n    \n    function getPendingVendorsCount() public view returns (uint) {\n          return pendingVendors.length;\n    }\n    \n    function getApprovedVendorsCount() public view returns (uint) {\n          return approvedVendors.length;\n    }\n    \n    function getPendingVendors() public view returns (uint) {\n          return pendingVendors.length;\n    }\n    \n    function getApprovedVendorByIndex(uint index) public view returns (string, string, string, uint, address) {\n         require(index < approvedVendors.length, \"Invalid index\");\n          return(\n              approvedVendors[index].name,\n              approvedVendors[index].email,\n              approvedVendors[index].phone,\n              uint(approvedVendors[index].state),\n              approvedVendors[index].account\n          );\n    }\n    \n     function getPendingVendorByIndex(uint index) public view returns (string, string, string, uint, address) {\n         require(index < pendingVendors.length, \"Invalid index\");\n          return(\n              pendingVendors[index].name,\n              pendingVendors[index].email,\n              pendingVendors[index].phone,\n              uint(pendingVendors[index].state),\n              pendingVendors[index].account\n          );\n    }\n    \n     function getVendorByAddress(address account) public view returns (string, string, string, uint, address) {\n         require(vendors[account].isVendorOrApplicant);\n          return(\n              vendors[account].name,\n              vendors[account].email,\n              vendors[account].phone,\n              uint(vendors[account].state),\n              vendors[account].account\n          );\n    }\n    \n    \n    \n    function requestVendorAccount(string _name, string _email,  string _phone) public returns(bool) {\n          require(vendors[msg.sender].isVendorOrApplicant == false, \"REQUEST IS IN PROCESS\");\n           \n          vendors[msg.sender] = Vendor(_name, _email, _phone, AccountState.Pending,  msg.sender, true,  int(pendingVendors.length),getNotExistsIndex());\n          setPendingVendor(_name,_email,_phone);\n                                         \n         return true;\n    }\n    \n    function setPendingVendor(string _name, string _email,  string _phone) private returns (uint){\n\n         pendingVendors.push(Vendor(_name, _email, _phone, AccountState.Pending,  msg.sender, true, int(pendingVendors.length),getNotExistsIndex())) -1;\n         \n    }\n    \n    function approveVendorAccount(address account) public returns(bool) {\n         require(vendors[account].isVendorOrApplicant == true);\n          vendors[account].state = AccountState.Approved;\n          removeAccountFromPendingList(account);\n          addAccountToApprovedList(account);\n          return true;\n    }\n    \n    function removeAccountFromPendingList(address account) private returns(bool) {\n          require(vendors[account].pendingListIndex > -1);\n          pendingVendors[uint(vendors[account].pendingListIndex)] = pendingVendors[pendingVendors.length - 1];\n          vendors[account].pendingListIndex = getNotExistsIndex();\n          pendingVendors.length --;\n           \n          return true;\n    }\n    \n    function addAccountToApprovedList(address account) private returns(bool) {\n          vendors[account].approveListIndex = int(approvedVendors.length);\n          approvedVendors.push(vendors[account]);\n          return true;\n    }\n    \n    function getNotExistsIndex() private pure returns (int) {\n         return -1;\n    }\n             \n    function getApprovedIndex_P() public view returns (int) {\n          return pendingVendors[0].approveListIndex;\n    }\n    \n    function getPendingIndex_P() public view returns (int) {\n          return pendingVendors[0].pendingListIndex;\n    }\n    \n     function getApprovedIndex_A() public view returns (int) {\n          return approvedVendors[0].approveListIndex;\n    }\n    \n    function getPendingIndex_A() public view returns (int) {\n          return approvedVendors[0].pendingListIndex;\n    }\n    \n}",
  "sourcePath": "/Users/yusufkelo/Documents/DEVELOPER/ETHEREAUM/market-place/contracts/ApplicationUserManager.sol",
  "compiler": {
    "name": "solc",
    "version": "0.4.24+commit.e67f0147.Emscripten.clang"
  },
  "schemaVersion": "2.0.0",
  "updatedAt": "2018-07-26T13:56:18.433Z"
}