{
  "contractName": "MarketPlace",
  "abi": [
    {
      "constant": true,
      "inputs": [
        {
          "name": "vendor",
          "type": "address"
        },
        {
          "name": "storeIndex",
          "type": "uint256"
        },
        {
          "name": "productId",
          "type": "uint256"
        }
      ],
      "name": "getProduct",
      "outputs": [
        {
          "name": "",
          "type": "bytes32"
        },
        {
          "name": "",
          "type": "bytes32"
        },
        {
          "name": "",
          "type": "uint256"
        },
        {
          "name": "",
          "type": "uint256"
        },
        {
          "name": "",
          "type": "uint256"
        },
        {
          "name": "",
          "type": "address"
        },
        {
          "name": "",
          "type": "uint256"
        }
      ],
      "payable": false,
      "stateMutability": "view",
      "type": "function"
    },
    {
      "constant": true,
      "inputs": [],
      "name": "getPendingVendors",
      "outputs": [
        {
          "name": "",
          "type": "uint256"
        }
      ],
      "payable": false,
      "stateMutability": "view",
      "type": "function"
    },
    {
      "constant": true,
      "inputs": [
        {
          "name": "index",
          "type": "uint256"
        }
      ],
      "name": "getPendingVendorByIndex",
      "outputs": [
        {
          "name": "",
          "type": "string"
        },
        {
          "name": "",
          "type": "string"
        },
        {
          "name": "",
          "type": "string"
        },
        {
          "name": "",
          "type": "uint256"
        },
        {
          "name": "",
          "type": "address"
        }
      ],
      "payable": false,
      "stateMutability": "view",
      "type": "function"
    },
    {
      "constant": true,
      "inputs": [
        {
          "name": "productId",
          "type": "uint256"
        }
      ],
      "name": "getCartItem",
      "outputs": [
        {
          "name": "",
          "type": "uint256"
        },
        {
          "name": "",
          "type": "bytes32"
        },
        {
          "name": "",
          "type": "uint256"
        },
        {
          "name": "",
          "type": "uint256"
        },
        {
          "name": "",
          "type": "uint256"
        },
        {
          "name": "",
          "type": "uint256"
        },
        {
          "name": "",
          "type": "address"
        }
      ],
      "payable": false,
      "stateMutability": "view",
      "type": "function"
    },
    {
      "constant": true,
      "inputs": [
        {
          "name": "accountIndex",
          "type": "uint256"
        }
      ],
      "name": "getVendorStoreCountPublic",
      "outputs": [
        {
          "name": "",
          "type": "uint256"
        },
        {
          "name": "",
          "type": "uint256"
        }
      ],
      "payable": false,
      "stateMutability": "view",
      "type": "function"
    },
    {
      "constant": true,
      "inputs": [
        {
          "name": "storeIndex",
          "type": "uint256"
        }
      ],
      "name": "getProductsIdsVendor",
      "outputs": [
        {
          "name": "",
          "type": "uint256[]"
        }
      ],
      "payable": false,
      "stateMutability": "view",
      "type": "function"
    },
    {
      "constant": false,
      "inputs": [
        {
          "name": "storeIndex",
          "type": "uint256"
        },
        {
          "name": "productName",
          "type": "bytes32"
        },
        {
          "name": "description",
          "type": "bytes32"
        },
        {
          "name": "price",
          "type": "uint256"
        },
        {
          "name": "quantity",
          "type": "uint256"
        },
        {
          "name": "priceInSpinelToken",
          "type": "uint256"
        }
      ],
      "name": "createProduct",
      "outputs": [
        {
          "name": "",
          "type": "uint256"
        }
      ],
      "payable": false,
      "stateMutability": "nonpayable",
      "type": "function"
    },
    {
      "constant": false,
      "inputs": [
        {
          "name": "orderId",
          "type": "uint256"
        },
        {
          "name": "productId",
          "type": "uint256"
        },
        {
          "name": "price",
          "type": "uint256"
        },
        {
          "name": "quantity",
          "type": "uint256"
        },
        {
          "name": "totalItemsPrice",
          "type": "uint256"
        },
        {
          "name": "vendorAccount",
          "type": "address"
        },
        {
          "name": "storeIndex",
          "type": "uint256"
        },
        {
          "name": "paymentMethod",
          "type": "uint256"
        }
      ],
      "name": "addTransaction",
      "outputs": [
        {
          "name": "",
          "type": "bool"
        }
      ],
      "payable": false,
      "stateMutability": "nonpayable",
      "type": "function"
    },
    {
      "constant": false,
      "inputs": [
        {
          "name": "_name",
          "type": "string"
        },
        {
          "name": "_email",
          "type": "string"
        },
        {
          "name": "_phone",
          "type": "string"
        }
      ],
      "name": "requestVendorAccount",
      "outputs": [
        {
          "name": "",
          "type": "bool"
        }
      ],
      "payable": false,
      "stateMutability": "nonpayable",
      "type": "function"
    },
    {
      "constant": true,
      "inputs": [],
      "name": "getCustomerOrdersHistoryCount",
      "outputs": [
        {
          "name": "",
          "type": "uint256"
        }
      ],
      "payable": false,
      "stateMutability": "view",
      "type": "function"
    },
    {
      "constant": true,
      "inputs": [],
      "name": "getPendingVendorsCount",
      "outputs": [
        {
          "name": "",
          "type": "uint256"
        }
      ],
      "payable": false,
      "stateMutability": "view",
      "type": "function"
    },
    {
      "constant": true,
      "inputs": [
        {
          "name": "accountIndex",
          "type": "uint256"
        },
        {
          "name": "storeIndex",
          "type": "uint256"
        },
        {
          "name": "productId",
          "type": "uint256"
        }
      ],
      "name": "getProductCustomer",
      "outputs": [
        {
          "name": "",
          "type": "bytes32"
        },
        {
          "name": "",
          "type": "bytes32"
        },
        {
          "name": "",
          "type": "uint256"
        },
        {
          "name": "",
          "type": "uint256"
        },
        {
          "name": "",
          "type": "uint256"
        },
        {
          "name": "",
          "type": "address"
        },
        {
          "name": "",
          "type": "uint256"
        }
      ],
      "payable": false,
      "stateMutability": "view",
      "type": "function"
    },
    {
      "constant": true,
      "inputs": [
        {
          "name": "accountIndex",
          "type": "uint256"
        },
        {
          "name": "storeIndex",
          "type": "uint256"
        }
      ],
      "name": "getStorePublic",
      "outputs": [
        {
          "name": "",
          "type": "bytes32"
        },
        {
          "name": "",
          "type": "bytes32"
        },
        {
          "name": "",
          "type": "uint256"
        },
        {
          "name": "",
          "type": "uint256"
        }
      ],
      "payable": false,
      "stateMutability": "view",
      "type": "function"
    },
    {
      "constant": false,
      "inputs": [],
      "name": "withdraw",
      "outputs": [
        {
          "name": "",
          "type": "bool"
        }
      ],
      "payable": false,
      "stateMutability": "nonpayable",
      "type": "function"
    },
    {
      "constant": true,
      "inputs": [],
      "name": "getApprovedVendorsCount",
      "outputs": [
        {
          "name": "",
          "type": "uint256"
        }
      ],
      "payable": false,
      "stateMutability": "view",
      "type": "function"
    },
    {
      "constant": true,
      "inputs": [
        {
          "name": "paymentMethod",
          "type": "uint256"
        },
        {
          "name": "customerBalanceInWei",
          "type": "uint256"
        }
      ],
      "name": "isCustomerBalanceSufficient",
      "outputs": [
        {
          "name": "",
          "type": "bool"
        }
      ],
      "payable": false,
      "stateMutability": "view",
      "type": "function"
    },
    {
      "constant": true,
      "inputs": [
        {
          "name": "account",
          "type": "address"
        }
      ],
      "name": "getVendorByAddress",
      "outputs": [
        {
          "name": "",
          "type": "string"
        },
        {
          "name": "",
          "type": "string"
        },
        {
          "name": "",
          "type": "string"
        },
        {
          "name": "",
          "type": "uint256"
        },
        {
          "name": "",
          "type": "address"
        }
      ],
      "payable": false,
      "stateMutability": "view",
      "type": "function"
    },
    {
      "constant": false,
      "inputs": [
        {
          "name": "name",
          "type": "string"
        },
        {
          "name": "account",
          "type": "address"
        },
        {
          "name": "role",
          "type": "uint256"
        }
      ],
      "name": "createAdminUser",
      "outputs": [
        {
          "name": "",
          "type": "bool"
        }
      ],
      "payable": false,
      "stateMutability": "nonpayable",
      "type": "function"
    },
    {
      "constant": true,
      "inputs": [],
      "name": "getVendorAccountsWithListedStoresCount",
      "outputs": [
        {
          "name": "",
          "type": "uint256"
        }
      ],
      "payable": false,
      "stateMutability": "view",
      "type": "function"
    },
    {
      "constant": true,
      "inputs": [
        {
          "name": "paymentMethod",
          "type": "uint256"
        }
      ],
      "name": "getCartPrice",
      "outputs": [
        {
          "name": "",
          "type": "uint256"
        }
      ],
      "payable": false,
      "stateMutability": "view",
      "type": "function"
    },
    {
      "constant": true,
      "inputs": [
        {
          "name": "index",
          "type": "uint256"
        }
      ],
      "name": "getApprovedVendorByIndex",
      "outputs": [
        {
          "name": "",
          "type": "string"
        },
        {
          "name": "",
          "type": "string"
        },
        {
          "name": "",
          "type": "string"
        },
        {
          "name": "",
          "type": "uint256"
        },
        {
          "name": "",
          "type": "address"
        }
      ],
      "payable": false,
      "stateMutability": "view",
      "type": "function"
    },
    {
      "constant": true,
      "inputs": [
        {
          "name": "account",
          "type": "address"
        },
        {
          "name": "storeIndex",
          "type": "uint256"
        }
      ],
      "name": "getProductsIds",
      "outputs": [
        {
          "name": "",
          "type": "uint256[]"
        }
      ],
      "payable": false,
      "stateMutability": "view",
      "type": "function"
    },
    {
      "constant": true,
      "inputs": [
        {
          "name": "orderId",
          "type": "uint256"
        }
      ],
      "name": "getOrderHistory",
      "outputs": [
        {
          "name": "",
          "type": "uint256"
        },
        {
          "name": "",
          "type": "uint256"
        }
      ],
      "payable": false,
      "stateMutability": "view",
      "type": "function"
    },
    {
      "constant": false,
      "inputs": [
        {
          "name": "paymentMethod",
          "type": "uint256"
        },
        {
          "name": "customerAccount",
          "type": "address"
        },
        {
          "name": "vendorAccount",
          "type": "address"
        },
        {
          "name": "storeIndex",
          "type": "uint256"
        },
        {
          "name": "totalItemsPrice",
          "type": "uint256"
        }
      ],
      "name": "payVendor",
      "outputs": [
        {
          "name": "",
          "type": "bool"
        }
      ],
      "payable": false,
      "stateMutability": "nonpayable",
      "type": "function"
    },
    {
      "constant": false,
      "inputs": [
        {
          "name": "vendorAccount",
          "type": "address"
        },
        {
          "name": "storeIndex",
          "type": "uint256"
        },
        {
          "name": "productId",
          "type": "uint256"
        },
        {
          "name": "productQuantity",
          "type": "uint256"
        }
      ],
      "name": "updateCartItem",
      "outputs": [
        {
          "name": "",
          "type": "bool"
        }
      ],
      "payable": false,
      "stateMutability": "nonpayable",
      "type": "function"
    },
    {
      "constant": true,
      "inputs": [],
      "name": "getVendorBalance",
      "outputs": [
        {
          "name": "",
          "type": "uint256"
        }
      ],
      "payable": false,
      "stateMutability": "view",
      "type": "function"
    },
    {
      "constant": true,
      "inputs": [
        {
          "name": "storeIndex",
          "type": "uint256"
        }
      ],
      "name": "getStorePrivate",
      "outputs": [
        {
          "name": "",
          "type": "bytes32"
        },
        {
          "name": "",
          "type": "bytes32"
        },
        {
          "name": "",
          "type": "uint256"
        },
        {
          "name": "",
          "type": "uint256"
        }
      ],
      "payable": false,
      "stateMutability": "view",
      "type": "function"
    },
    {
      "constant": true,
      "inputs": [],
      "name": "getCartItemsCount",
      "outputs": [
        {
          "name": "",
          "type": "uint256"
        }
      ],
      "payable": false,
      "stateMutability": "view",
      "type": "function"
    },
    {
      "constant": false,
      "inputs": [
        {
          "name": "storeIndex",
          "type": "uint256"
        }
      ],
      "name": "deleteStore",
      "outputs": [
        {
          "name": "",
          "type": "bool"
        }
      ],
      "payable": false,
      "stateMutability": "nonpayable",
      "type": "function"
    },
    {
      "constant": true,
      "inputs": [],
      "name": "getAdminUsersCount",
      "outputs": [
        {
          "name": "",
          "type": "uint256"
        }
      ],
      "payable": false,
      "stateMutability": "view",
      "type": "function"
    },
    {
      "constant": true,
      "inputs": [
        {
          "name": "storeIndex",
          "type": "uint256"
        }
      ],
      "name": "getProductsCount",
      "outputs": [
        {
          "name": "",
          "type": "uint256"
        }
      ],
      "payable": false,
      "stateMutability": "view",
      "type": "function"
    },
    {
      "constant": true,
      "inputs": [
        {
          "name": "",
          "type": "address"
        }
      ],
      "name": "customerOrdersCount",
      "outputs": [
        {
          "name": "",
          "type": "uint256"
        }
      ],
      "payable": false,
      "stateMutability": "view",
      "type": "function"
    },
    {
      "constant": true,
      "inputs": [],
      "name": "getUserStoreCount",
      "outputs": [
        {
          "name": "",
          "type": "uint256"
        }
      ],
      "payable": false,
      "stateMutability": "view",
      "type": "function"
    },
    {
      "constant": true,
      "inputs": [
        {
          "name": "paymentMethod",
          "type": "uint256"
        },
        {
          "name": "customerBalance",
          "type": "uint256"
        }
      ],
      "name": "getcustomerBalance",
      "outputs": [
        {
          "name": "",
          "type": "uint256"
        }
      ],
      "payable": false,
      "stateMutability": "view",
      "type": "function"
    },
    {
      "constant": false,
      "inputs": [
        {
          "name": "account",
          "type": "address"
        }
      ],
      "name": "approveVendorAccount",
      "outputs": [
        {
          "name": "",
          "type": "bool"
        }
      ],
      "payable": false,
      "stateMutability": "nonpayable",
      "type": "function"
    },
    {
      "constant": true,
      "inputs": [
        {
          "name": "paymentMethod",
          "type": "uint256"
        },
        {
          "name": "vendorAccount",
          "type": "address"
        },
        {
          "name": "storeIndex",
          "type": "uint256"
        },
        {
          "name": "productId",
          "type": "uint256"
        }
      ],
      "name": "getItemsPrice",
      "outputs": [
        {
          "name": "",
          "type": "uint256"
        }
      ],
      "payable": false,
      "stateMutability": "view",
      "type": "function"
    },
    {
      "constant": false,
      "inputs": [
        {
          "name": "storeIndex",
          "type": "uint256"
        },
        {
          "name": "productId",
          "type": "uint256"
        }
      ],
      "name": "deleteProduct",
      "outputs": [
        {
          "name": "",
          "type": "bool"
        }
      ],
      "payable": false,
      "stateMutability": "nonpayable",
      "type": "function"
    },
    {
      "constant": true,
      "inputs": [
        {
          "name": "index",
          "type": "uint256"
        }
      ],
      "name": "getAdminUserByIndex",
      "outputs": [
        {
          "name": "",
          "type": "string"
        },
        {
          "name": "",
          "type": "uint256"
        },
        {
          "name": "",
          "type": "address"
        }
      ],
      "payable": false,
      "stateMutability": "view",
      "type": "function"
    },
    {
      "constant": true,
      "inputs": [
        {
          "name": "storeIndex",
          "type": "uint256"
        },
        {
          "name": "productId",
          "type": "uint256"
        }
      ],
      "name": "getProductVendor",
      "outputs": [
        {
          "name": "",
          "type": "bytes32"
        },
        {
          "name": "",
          "type": "bytes32"
        },
        {
          "name": "",
          "type": "uint256"
        },
        {
          "name": "",
          "type": "uint256"
        },
        {
          "name": "",
          "type": "uint256"
        },
        {
          "name": "",
          "type": "address"
        },
        {
          "name": "",
          "type": "uint256"
        }
      ],
      "payable": false,
      "stateMutability": "view",
      "type": "function"
    },
    {
      "constant": true,
      "inputs": [
        {
          "name": "account",
          "type": "address"
        }
      ],
      "name": "getAdminUserByAddress",
      "outputs": [
        {
          "name": "",
          "type": "string"
        },
        {
          "name": "",
          "type": "uint256"
        },
        {
          "name": "",
          "type": "address"
        }
      ],
      "payable": false,
      "stateMutability": "view",
      "type": "function"
    },
    {
      "constant": true,
      "inputs": [],
      "name": "getUserRole",
      "outputs": [
        {
          "name": "",
          "type": "uint256"
        }
      ],
      "payable": false,
      "stateMutability": "view",
      "type": "function"
    },
    {
      "constant": false,
      "inputs": [],
      "name": "incrementCustomerOrdersHistory",
      "outputs": [
        {
          "name": "",
          "type": "uint256"
        }
      ],
      "payable": false,
      "stateMutability": "nonpayable",
      "type": "function"
    },
    {
      "constant": false,
      "inputs": [
        {
          "name": "storeIndex",
          "type": "uint256"
        },
        {
          "name": "storeName",
          "type": "bytes32"
        },
        {
          "name": "description",
          "type": "bytes32"
        }
      ],
      "name": "editStore",
      "outputs": [
        {
          "name": "",
          "type": "bool"
        }
      ],
      "payable": false,
      "stateMutability": "nonpayable",
      "type": "function"
    },
    {
      "constant": true,
      "inputs": [
        {
          "name": "productPrice",
          "type": "uint256"
        },
        {
          "name": "purchasedQuantity",
          "type": "uint256"
        }
      ],
      "name": "getTotalItemsPrice",
      "outputs": [
        {
          "name": "",
          "type": "uint256"
        }
      ],
      "payable": false,
      "stateMutability": "pure",
      "type": "function"
    },
    {
      "constant": true,
      "inputs": [
        {
          "name": "accountIndex",
          "type": "uint256"
        },
        {
          "name": "storeIndex",
          "type": "uint256"
        }
      ],
      "name": "getProductsIdsCustomer",
      "outputs": [
        {
          "name": "",
          "type": "uint256[]"
        }
      ],
      "payable": false,
      "stateMutability": "view",
      "type": "function"
    },
    {
      "constant": false,
      "inputs": [
        {
          "name": "storeIndex",
          "type": "uint256"
        },
        {
          "name": "productId",
          "type": "uint256"
        },
        {
          "name": "productName",
          "type": "bytes32"
        },
        {
          "name": "description",
          "type": "bytes32"
        },
        {
          "name": "price",
          "type": "uint256"
        },
        {
          "name": "quantity",
          "type": "uint256"
        },
        {
          "name": "priceInSpinelToken",
          "type": "uint256"
        }
      ],
      "name": "editProduct",
      "outputs": [
        {
          "name": "",
          "type": "bool"
        }
      ],
      "payable": false,
      "stateMutability": "nonpayable",
      "type": "function"
    },
    {
      "constant": true,
      "inputs": [
        {
          "name": "",
          "type": "address"
        },
        {
          "name": "",
          "type": "address"
        }
      ],
      "name": "allowance",
      "outputs": [
        {
          "name": "",
          "type": "uint256"
        }
      ],
      "payable": false,
      "stateMutability": "view",
      "type": "function"
    },
    {
      "constant": true,
      "inputs": [
        {
          "name": "orderId",
          "type": "uint256"
        },
        {
          "name": "transactionIndex",
          "type": "uint256"
        }
      ],
      "name": "getOrderTransaction",
      "outputs": [
        {
          "name": "",
          "type": "bytes32"
        },
        {
          "name": "",
          "type": "uint256"
        },
        {
          "name": "",
          "type": "uint256"
        },
        {
          "name": "",
          "type": "address"
        },
        {
          "name": "",
          "type": "bytes32"
        },
        {
          "name": "",
          "type": "uint256"
        }
      ],
      "payable": false,
      "stateMutability": "view",
      "type": "function"
    },
    {
      "constant": false,
      "inputs": [
        {
          "name": "vendorAccount",
          "type": "address"
        },
        {
          "name": "storeIndex",
          "type": "uint256"
        },
        {
          "name": "productId",
          "type": "uint256"
        },
        {
          "name": "productQuantity",
          "type": "uint256"
        }
      ],
      "name": "addItemToCart",
      "outputs": [
        {
          "name": "",
          "type": "bool"
        }
      ],
      "payable": false,
      "stateMutability": "nonpayable",
      "type": "function"
    },
    {
      "constant": false,
      "inputs": [
        {
          "name": "storeName",
          "type": "bytes32"
        },
        {
          "name": "description",
          "type": "bytes32"
        }
      ],
      "name": "createStore",
      "outputs": [
        {
          "name": "",
          "type": "uint256"
        }
      ],
      "payable": false,
      "stateMutability": "nonpayable",
      "type": "function"
    },
    {
      "constant": false,
      "inputs": [
        {
          "name": "paymentMethod",
          "type": "uint256"
        }
      ],
      "name": "checkOutTokenPayment",
      "outputs": [
        {
          "name": "",
          "type": "bool"
        }
      ],
      "payable": true,
      "stateMutability": "payable",
      "type": "function"
    },
    {
      "constant": true,
      "inputs": [
        {
          "name": "orderId",
          "type": "uint256"
        }
      ],
      "name": "getOrderTransactionsCount",
      "outputs": [
        {
          "name": "",
          "type": "uint256"
        }
      ],
      "payable": false,
      "stateMutability": "view",
      "type": "function"
    },
    {
      "constant": false,
      "inputs": [
        {
          "name": "orderId",
          "type": "uint256"
        },
        {
          "name": "grandTotal",
          "type": "uint256"
        }
      ],
      "name": "createOrderHistory",
      "outputs": [
        {
          "name": "",
          "type": "bool"
        }
      ],
      "payable": false,
      "stateMutability": "nonpayable",
      "type": "function"
    },
    {
      "constant": false,
      "inputs": [
        {
          "name": "productId",
          "type": "uint256"
        }
      ],
      "name": "deleteCartItem",
      "outputs": [
        {
          "name": "",
          "type": "bool"
        }
      ],
      "payable": false,
      "stateMutability": "nonpayable",
      "type": "function"
    },
    {
      "constant": true,
      "inputs": [
        {
          "name": "storeIndex",
          "type": "uint256"
        },
        {
          "name": "productId",
          "type": "uint256"
        }
      ],
      "name": "getProductQuantity",
      "outputs": [
        {
          "name": "",
          "type": "uint256"
        }
      ],
      "payable": false,
      "stateMutability": "view",
      "type": "function"
    },
    {
      "constant": true,
      "inputs": [],
      "name": "getCartItemsIds",
      "outputs": [
        {
          "name": "",
          "type": "uint256[]"
        }
      ],
      "payable": false,
      "stateMutability": "view",
      "type": "function"
    },
    {
      "inputs": [
        {
          "name": "tokenContract",
          "type": "address"
        }
      ],
      "payable": false,
      "stateMutability": "nonpayable",
      "type": "constructor"
    },
    {
      "anonymous": false,
      "inputs": [
        {
          "indexed": false,
          "name": "amount",
          "type": "uint256"
        }
      ],
      "name": "WithdrawalCompletedSuccessfully",
      "type": "event"
    },
    {
      "anonymous": false,
      "inputs": [
        {
          "indexed": false,
          "name": "cartSize",
          "type": "uint256"
        }
      ],
      "name": "ItemInsertedToCart",
      "type": "event"
    },
    {
      "anonymous": false,
      "inputs": [
        {
          "indexed": false,
          "name": "productQuantity",
          "type": "uint256"
        }
      ],
      "name": "CartItemUpdated",
      "type": "event"
    },
    {
      "anonymous": false,
      "inputs": [
        {
          "indexed": false,
          "name": "cartSize",
          "type": "uint256"
        }
      ],
      "name": "CartItemDeleted",
      "type": "event"
    },
    {
      "anonymous": false,
      "inputs": [
        {
          "indexed": false,
          "name": "status",
          "type": "bool"
        }
      ],
      "name": "PaymentCompleted",
      "type": "event"
    },
    {
      "anonymous": false,
      "inputs": [
        {
          "indexed": false,
          "name": "amount",
          "type": "uint256"
        }
      ],
      "name": "PaymentByTokenCompleted",
      "type": "event"
    },
    {
      "anonymous": false,
      "inputs": [
        {
          "indexed": false,
          "name": "amount",
          "type": "uint256"
        }
      ],
      "name": "PaymentByEtherCompleted",
      "type": "event"
    },
    {
      "anonymous": false,
      "inputs": [
        {
          "indexed": false,
          "name": "status",
          "type": "bool"
        }
      ],
      "name": "VendorAccountRequested",
      "type": "event"
    },
    {
      "anonymous": false,
      "inputs": [
        {
          "indexed": false,
          "name": "status",
          "type": "bool"
        }
      ],
      "name": "VendorAccountApproved",
      "type": "event"
    },
    {
      "anonymous": false,
      "inputs": [
        {
          "indexed": false,
          "name": "productId",
          "type": "uint256"
        },
        {
          "indexed": false,
          "name": "productIdSlot",
          "type": "uint256"
        }
      ],
      "name": "ProductCreated",
      "type": "event"
    },
    {
      "anonymous": false,
      "inputs": [
        {
          "indexed": false,
          "name": "productId",
          "type": "uint256"
        }
      ],
      "name": "ProductUpdated",
      "type": "event"
    },
    {
      "anonymous": false,
      "inputs": [
        {
          "indexed": false,
          "name": "productId",
          "type": "uint256"
        }
      ],
      "name": "ProductDeleted",
      "type": "event"
    },
    {
      "anonymous": false,
      "inputs": [
        {
          "indexed": false,
          "name": "storesSize",
          "type": "uint256"
        }
      ],
      "name": "StoreCreated",
      "type": "event"
    },
    {
      "anonymous": false,
      "inputs": [
        {
          "indexed": false,
          "name": "storeName",
          "type": "bytes32"
        },
        {
          "indexed": false,
          "name": "description",
          "type": "bytes32"
        }
      ],
      "name": "StoreUpdated",
      "type": "event"
    },
    {
      "anonymous": false,
      "inputs": [
        {
          "indexed": false,
          "name": "storesSize",
          "type": "uint256"
        }
      ],
      "name": "StoreDeleteted",
      "type": "event"
    },
    {
      "anonymous": false,
      "inputs": [
        {
          "indexed": false,
          "name": "name",
          "type": "string"
        }
      ],
      "name": "UserCreated",
      "type": "event"
    }
  ],
  "bytecode": "0x60806040523480156200001157600080fd5b5060405160208062005098833981016040525162000037640100000000620000a9810204565b60408051808201909152600581527f4f776e657200000000000000000000000000000000000000000000000000000060208201526200008290336000640100000000620000bd810204565b50600d8054600160a060020a031916600160a060020a0392909216919091179055620004f5565b60008054600160a060020a03191633179055565b60008054600160a060020a03163314620000d657600080fd5b6000826005811115620000e557fe5b6005811115620000f157fe5b146200018457604080517f08c379a000000000000000000000000000000000000000000000000000000000815260206004820152602760248201527f544845205350454349464945442041444d494e20524f4c4520444f4553204e4f60448201527f5420455849535400000000000000000000000000000000000000000000000000606482015290519081900360840190fd5b6200019a848484640100000000620001a2810204565b949350505050565b60008054600160a060020a03163314620001bb57600080fd5b608060405190810160405280858152602001836005811115620001da57fe5b6005811115620001e657fe5b8152600160a060020a03851660208083018290526001604093840181905260009283528152919020825180519192620002259284929091019062000450565b50602082015160018083018054909160ff19909116908360058111156200024857fe5b021790555060408281015160019092018054606090940151151575010000000000000000000000000000000000000000000260a860020a60ff0219600160a060020a039094166101000261010060a860020a0319909516949094179290921692909217905580516080810190915284815260029060208101846005811115620002cd57fe5b6005811115620002d957fe5b8152600160a060020a0386166020808301919091526001604090920182905283549182018085556000948552938190208351805160029094029091019262000325928492019062000450565b50602082015160018083018054909160ff19909116908360058111156200034857fe5b021790555060408281015160019092018054606090940151151575010000000000000000000000000000000000000000000260a860020a60ff0219600160a060020a039094166101000261010060a860020a031990951694909417929092169290921790558051602080825287518183015287517f56b0a2dda7952cd07f438433182565929ba3aba4c3404a7d29a0840ac6284da4945088938392908301919085019080838360005b838110156200040b578181015183820152602001620003f1565b50505050905090810190601f168015620004395780820380516001836020036101000a031916815260200191505b509250505060405180910390a15060019392505050565b828054600181600116156101000203166002900490600052602060002090601f016020900481019282601f106200049357805160ff1916838001178555620004c3565b82800160010185558215620004c3579182015b82811115620004c3578251825591602001919060010190620004a6565b50620004d1929150620004d5565b5090565b620004f291905b80821115620004d15760008155600101620004dc565b90565b614b9380620005056000396000f30060806040526004361061029c5763ffffffff7c010000000000000000000000000000000000000000000000000000000060003504166279892481146102a1578063066674291461030957806306cfcb861461033057806311f83918146104ac57806317a580231461050557806318979559146105365780631f0883651461059e57806320561e78146105c557806328617c7c1461060f57806331becb99146106e4578063340cffbe1461030957806336bbb03c146106f95780633a8fa895146107175780633ccfd60b146107585780633d0559631461076d57806341f6d8751461078257806343defc101461079d57806354062143146107be578063543c73f514610828578063571350af1461083d57806358e99175146108555780635ce9ae531461086d5780635fb973761461089157806360de181a146108a95780636de0c1f2146108d95780636e91c6b8146109035780637105306a1461091857806373ac9d35146109305780637cc69325146109455780637f2669041461095d578063892c45f9146109725780638a3046ba1461098a5780638f0c0f36146109ab57806397cd16f7146109c057806399dcec85146109db5780639b8a373f146109fc578063a1c48cc414610a26578063a93e999d14610a41578063ab7f603f14610af1578063bb3fac1414610b0c578063bf04a10d14610b2d578063bfd9519314610b42578063c08ed9b114610b57578063c83a0ac314610b75578063d1dfaa3e14610b90578063d604362d14610bab578063dd62ed3e14610bd5578063e16002b114610bfc578063e63aefcb14610c52578063e64a282b14610c7c578063e9eefd9214610c97578063eba1160914610ca2578063f288424614610cba578063f513747614610cd5578063f8127a8814610ced578063fa846e5a14610d08575b600080fd5b3480156102ad57600080fd5b506102c8600160a060020a0360043516602435604435610d1d565b6040805197885260208801969096528686019490945260608601929092526080850152600160a060020a031660a084015260c0830152519081900360e00190f35b34801561031557600080fd5b5061031e610ec9565b60408051918252519081900360200190f35b34801561033c57600080fd5b50610348600435610ee6565b6040518080602001806020018060200186815260200185600160a060020a0316600160a060020a03168152602001848103845289818151815260200191508051906020019080838360005b838110156103ab578181015183820152602001610393565b50505050905090810190601f1680156103d85780820380516001836020036101000a031916815260200191505b5084810383528851815288516020918201918a019080838360005b8381101561040b5781810151838201526020016103f3565b50505050905090810190601f1680156104385780820380516001836020036101000a031916815260200191505b50848103825287518152875160209182019189019080838360005b8381101561046b578181015183820152602001610453565b50505050905090810190601f1680156104985780820380516001836020036101000a031916815260200191505b509850505050505050505060405180910390f35b3480156104b857600080fd5b506104c46004356111c6565b604080519788526020880196909652868601949094526060860192909252608085015260a0840152600160a060020a031660c0830152519081900360e00190f35b34801561051157600080fd5b5061051d600435611306565b6040805192835260208301919091528051918290030190f35b34801561054257600080fd5b5061054e60043561134c565b60408051602080825283518183015283519192839290830191858101910280838360005b8381101561058a578181015183820152602001610572565b505050509050019250505060405180910390f35b3480156105aa57600080fd5b5061031e60043560243560443560643560843560a43561135e565b3480156105d157600080fd5b506105fb600435602435604435606435608435600160a060020a0360a4351660c43560e43561155d565b604080519115158252519081900360200190f35b34801561061b57600080fd5b506040805160206004803580820135601f81018490048402850184019095528484526105fb94369492936024939284019190819084018382808284375050604080516020601f89358b018035918201839004830284018301909452808352979a99988101979196509182019450925082915084018382808284375050604080516020601f89358b018035918201839004830284018301909452808352979a9998810197919650918201945092508291508401838280828437509497506116b79650505050505050565b3480156106f057600080fd5b5061031e6118e0565b34801561070557600080fd5b506102c86004356024356044356118f3565b34801561072357600080fd5b50610732600435602435611947565b604080519485526020850193909352838301919091526060830152519081900360800190f35b34801561076457600080fd5b506105fb6119bd565b34801561077957600080fd5b5061031e611a99565b34801561078e57600080fd5b506105fb600435602435611aaf565b3480156107a957600080fd5b50610348600160a060020a0360043516611b87565b3480156107ca57600080fd5b506040805160206004803580820135601f81018490048402850184019095528484526105fb94369492936024939284019190819084018382808284375094975050508335600160a060020a0316945050506020909101359050611c74565b34801561083457600080fd5b5061031e611d56565b34801561084957600080fd5b5061031e600435611d5c565b34801561086157600080fd5b50610348600435611f97565b34801561087957600080fd5b5061054e600160a060020a036004351660243561209b565b34801561089d57600080fd5b5061051d60043561212b565b3480156108b557600080fd5b506105fb600435600160a060020a0360243581169060443516606435608435612153565b3480156108e557600080fd5b506105fb600160a060020a036004351660243560443560643561235a565b34801561090f57600080fd5b5061031e61245a565b34801561092457600080fd5b506107326004356124a0565b34801561093c57600080fd5b5061031e61253e565b34801561095157600080fd5b506105fb600435612554565b34801561096957600080fd5b5061031e612781565b34801561097e57600080fd5b5061031e6004356127ad565b34801561099657600080fd5b5061031e600160a060020a03600435166127e2565b3480156109b757600080fd5b5061031e6127f4565b3480156109cc57600080fd5b5061031e600435602435612807565b3480156109e757600080fd5b506105fb600160a060020a03600435166128c8565b348015610a0857600080fd5b5061031e600435600160a060020a036024351660443560643561299c565b348015610a3257600080fd5b506105fb600435602435612a5f565b348015610a4d57600080fd5b50610a59600435612c9b565b604051808060200184815260200183600160a060020a0316600160a060020a03168152602001828103825285818151815260200191508051906020019080838360005b83811015610ab4578181015183820152602001610a9c565b50505050905090810190601f168015610ae15780820380516001836020036101000a031916815260200191505b5094505050505060405180910390f35b348015610afd57600080fd5b506102c8600435602435612df3565b348015610b1857600080fd5b50610a59600160a060020a0360043516612e21565b348015610b3957600080fd5b5061031e612f1c565b348015610b4e57600080fd5b5061031e612fbb565b348015610b6357600080fd5b506105fb600435602435604435612fd6565b348015610b8157600080fd5b5061031e6004356024356130de565b348015610b9c57600080fd5b5061054e6004356024356130eb565b348015610bb757600080fd5b506105fb60043560243560443560643560843560a43560c435613130565b348015610be157600080fd5b5061031e600160a060020a0360043581169060243516613300565b348015610c0857600080fd5b50610c1760043560243561331d565b60408051968752602087019590955285850193909352600160a060020a039091166060850152608084015260a0830152519081900360c00190f35b348015610c5e57600080fd5b506105fb600160a060020a03600435166024356044356064356134b6565b348015610c8857600080fd5b5061031e6004356024356137c7565b6105fb600435613972565b348015610cae57600080fd5b5061031e600435613c9f565b348015610cc657600080fd5b506105fb600435602435613cbc565b348015610ce157600080fd5b506105fb600435613cee565b348015610cf957600080fd5b5061031e600435602435613e35565b348015610d1457600080fd5b5061054e613e78565b600160a060020a038316600090815260066020526040812080548291829182918291829182918a908110610d4d57fe5b600091825260208083208b84526006928302016005018152604080842054600160a060020a038f1685529290915290912080548b908110610d8a57fe5b906000526020600020906006020160050160008a815260200190815260200160002060010154600660008d600160a060020a0316600160a060020a031681526020019081526020016000208b815481101515610de257fe5b906000526020600020906006020160050160008b815260200190815260200160002060020154600660008e600160a060020a0316600160a060020a031681526020019081526020016000208c815481101515610e3a57fe5b906000526020600020906006020160050160008c815260200190815260200160002060060154600660008f600160a060020a0316600160a060020a031681526020019081526020016000208d815481101515610e9257fe5b600091825260208083208f845260056006909302018201905260409091200154939e929d919c509a92995097509095509350505050565b600b54600090811015610edf5750600b54610ee3565b5060005b90565b6060806060600080600b8054905086101515610f4c576040805160e560020a62461bcd02815260206004820152600d60248201527f496e76616c696420696e64657800000000000000000000000000000000000000604482015290519081900360640190fd5b600b805487908110610f5a57fe5b9060005260206000209060080201600001600b87815481101515610f7a57fe5b9060005260206000209060080201600101600b88815481101515610f9a57fe5b9060005260206000209060080201600201600b89815481101515610fba57fe5b600091825260209091206003600890920201015460ff166001811115610fdc57fe5b600b80548b908110610fea57fe5b600091825260209182902060089190910201600301548554604080516002610100600185161581026000190190941604601f810186900486028201860190925281815291909204600160a060020a031692909187918301828280156110905780601f1061106557610100808354040283529160200191611090565b820191906000526020600020905b81548152906001019060200180831161107357829003601f168201915b5050875460408051602060026001851615610100026000190190941693909304601f8101849004840282018401909252818152959a508994509250840190508282801561111e5780601f106110f35761010080835404028352916020019161111e565b820191906000526020600020905b81548152906001019060200180831161110157829003601f168201915b5050865460408051602060026001851615610100026000190190941693909304601f8101849004840282018401909252818152959950889450925084019050828280156111ac5780601f10611181576101008083540402835291602001916111ac565b820191906000526020600020905b81548152906001019060200180831161118f57829003601f168201915b505050505092509450945094509450945091939590929450565b33600090815260036020908152604080832084845260019081018352818420600281015481549190920154600160a060020a0316808652600690945291842080548594859485948594859485949293929185918590811061122357fe5b600091825260208083208f845260069283020160050181526040808420830154600160a060020a03871685529290915290912080549192508d918690811061126757fe5b906000526020600020906006020160050160008e8152602001908152602001600020600001546006600085600160a060020a0316600160a060020a03168152602001908152602001600020868154811015156112bf57fe5b906000526020600020906006020160050160008f815260200190815260200160002060020154838688879a509a509a509a509a509a509a5050505050919395979092949650565b600080826006600060048681548110151561131d57fe5b6000918252602080832090910154600160a060020a031683528201929092526040019020549092509050915091565b6060611358338361209b565b92915050565b600080806001336000908152600a602052604090206003015460ff16600181111561138557fe5b1461138f57600080fd5b336000908152600660205260408120541180156113ba57503360009081526006602052604090205489105b15156113c557600080fd5b33600090815260066020526040902080548a9081106113e057fe5b600091825260208083206006928302016003015433845291905260409091208054919350908a90811061140f57fe5b6000918252602080832060069283020160040180546001019081905533845291905260409091208054919250908a90811061144657fe5b600091825260208083206006928302016003018054600181018255908452818420018490556040805160e0810182528c81528083018c90528082018b9052606081018790526080810186905260a081018a905260c081018990523385529290915290912080548b9081106114b657fe5b600091825260208083208584526006928302016005908101825260409384902085518155858301516001820155858501516002820155606086015160038201556080860151600482015560a08601519181019190915560c0909401519390910192909255805183815291820184905280517f2a60815e9d2622a909b3c2b731fa879a529c93b5fecdb1cfea183695707572cc9281900390910190a150979650505050505050565b3360009081526009602090815260408083208b845282528083208151610100810183528b8152600160a060020a03881685526006845291842080549193830191879081106115a757fe5b600091825260208083208e8452600692830201600501815260408084205485528482018d90528481018e9052606085018c9052600160a060020a038b166080860181905284529190529020805460a0909201918790811061160457fe5b6000918252602080832060069283020154845292830196909652835460018082018655948252908290208351600890920201908155908201518184015560408201516002820155606082015160038201556080820151600482015560a082015160058201805473ffffffffffffffffffffffffffffffffffffffff1916600160a060020a0390921691909117905560c08201519481019490945560e0015160079093019290925550979650505050505050565b336000908152600a602052604081206003015460a860020a900460ff1615611729576040805160e560020a62461bcd02815260206004820152601560248201527f5245515545535420495320494e2050524f434553530000000000000000000000604482015290519081900360640190fd5b604080516101408101825285815260208101859052908101839052606081016000815233602082015260016040820152600b54606082015260800161176c613edc565b81526020016004815260006020918201819052338152600a82526040902082518051919261179f928492909101906147ec565b5060208281015180516117b892600185019201906147ec565b50604082015180516117d49160028401916020909101906147ec565b50606082015160038201805460ff1916600183818111156117f157fe5b0217905550608082015160038201805460a085015174ffffffffffffffffffffffffffffffffffffffff0019909116610100600160a060020a0390941684021760a860020a60ff02191660a860020a9115159190910217905560c0830151600483015560e0830151600580840191909155908301516006830180549192909160ff191690600190849081111561188357fe5b021790555061012082015181600701559050506118a1848484613ee2565b50604080516001815290517fd249fc9da5140e2e7baacc07add09262bad65b9822b19b86dcece6e652e015519181900360200190a15060019392505050565b3360009081526008602052604090205490565b600080600080600080600061192c60048b81548110151561191057fe5b600091825260209091200154600160a060020a03168a8a610d1d565b96509650965096509650965096509397509397509397909450565b60008060008060048054905086108015611998575060006006600060048981548110151561197157fe5b6000918252602080832090910154600160a060020a03168352820192909252604001902054115b15156119a357600080fd5b6119ad8686614074565b9299919850965090945092505050565b6000806001336000908152600a602052604090206003015460ff1660018111156119e357fe5b146119ed57600080fd5b336000908152600a60205260408120600701541115611a905750336000818152600a6020526040808220600701805490839055905190929183156108fc02918491818181858888f193505050501515611a5c57336000908152600a602052604081206007018290559150611a95565b6040805182815290517fdb4153325201f1faa4d39b6107ff1314df0a4854f49f82955f3686029d726b2b9181900360200190a15b600191505b5090565b600c54600090811015610edf5750600c54610ee3565b60006001836001811115611abf57fe5b6001811115611aca57fe5b1415611b7457611ad983611d5c565b600d54604080517f70a082310000000000000000000000000000000000000000000000000000000081523360048201529051600160a060020a03909216916370a08231916024808201926020929091908290030181600087803b158015611b3f57600080fd5b505af1158015611b53573d6000803e3d6000fd5b505050506040513d6020811015611b6957600080fd5b505110159050611358565b611b7d83611d5c565b9091101592915050565b600160a060020a0381166000908152600a60205260408120600301546060918291829190819060a860020a900460ff161515611bc257600080fd5b600160a060020a0386166000908152600a602052604090206003810154600180830191600284019160ff90911690811115611bf957fe5b600160a060020a038a81166000908152600a602090815260409182902060030154875483516002610100600184161581026000190190931604601f81018590048502820185019095528481529104909316929187918301828280156110905780601f1061106557610100808354040283529160200191611090565b60008054600160a060020a03163314611c8c57600080fd5b6001826005811115611c9a57fe5b6005811115611ca557fe5b1480611cc757506002826005811115611cba57fe5b6005811115611cc557fe5b145b1515611d43576040805160e560020a62461bcd02815260206004820152602760248201527f544845205350454349464945442041444d494e20524f4c4520444f4553204e4f60448201527f5420455849535400000000000000000000000000000000000000000000000000606482015290519081900360840190fd5b611d4e848484614111565b949350505050565b60045490565b600080600080611d6a614866565b6000806001886001811115611d7b57fe5b6001811115611d8657fe5b1480611da857506000886001811115611d9b57fe5b6001811115611da657fe5b145b1515611db357600080fd5b600095505b33600090815260036020526040902060020154851015611f8b57336000908152600360208181526040808420888552600101909152909120015460ff161515611f8057336000908152600360205260409020600201805486908110611e1957fe5b600091825260208083209091015433835260038083526040808520838652600190810185529481902081516080810183528154815281870154600160a060020a031695810195909552600281015491850191909152015460ff161515606083015295509350886001811115611e8a57fe5b6001811115611e9557fe5b1415611ef557602080840151600160a060020a0316600090815260069091526040908190209084015181548110611ec857fe5b90600052602060002090600602016005016000858152602001908152602001600020600601549150611f4b565b602080840151600160a060020a0316600090815260069091526040908190209084015181548110611f2257fe5b906000526020600020906006020160050160008581526020019081526020016000206002015491505b50336000908152600360209081526040808320868452600101909152902054611f7d86611f7884846143a7565b6143d0565b95505b600190940193611db8565b50939695505050505050565b6060806060600080600c8054905086101515611ffd576040805160e560020a62461bcd02815260206004820152600d60248201527f496e76616c696420696e64657800000000000000000000000000000000000000604482015290519081900360640190fd5b600c80548790811061200b57fe5b9060005260206000209060080201600001600c8781548110151561202b57fe5b9060005260206000209060080201600101600c8881548110151561204b57fe5b9060005260206000209060080201600201600c8981548110151561206b57fe5b600091825260209091206003600890920201015460ff16600181111561208d57fe5b600c80548b908110610fea57fe5b600160a060020a0382166000908152600660205260409020805460609190839081106120c357fe5b906000526020600020906006020160030180548060200260200160405190810160405280929190818152602001828054801561211e57602002820191906000526020600020905b81548152602001906001019080831161210a575b5050505050905092915050565b3360009081526009602090815260408083209383529290522060018101546002909101549091565b6000600186600181111561216357fe5b600181111561216e57fe5b141561224f57600d54604080517f23b872dd000000000000000000000000000000000000000000000000000000008152600160a060020a038881166004830152878116602483015260448201869052915191909216916323b872dd9160648083019260209291908290030181600087803b1580156121eb57600080fd5b505af11580156121ff573d6000803e3d6000fd5b505050506040513d602081101561221557600080fd5b50506040805183815290517f7ef3d18d8958a97c57e6d519abf1c9c919d0a78e1d037bf25900a82effaa10809181900360200190a1612351565b600160a060020a0384166000908152600660205260409020805461229091908590811061227857fe5b906000526020600020906006020160020154836143d0565b600160a060020a03851660009081526006602052604090208054859081106122b457fe5b9060005260206000209060060201600201819055506122fb600a600086600160a060020a0316600160a060020a0316815260200190815260200160002060070154836143d0565b600160a060020a0385166000908152600a602090815260409182902060070192909255805184815290517ff1a2788fec7acfb18c707f70d5f3aba63891818f4c3263cfd26868a5f1849b94929181900390910190a15b95945050505050565b600160a060020a038416600090815260066020526040812080548391908690811061238157fe5b600091825260208083208784526005600690930201820190526040909120015410156123ac57600080fd5b600160a060020a03851660009081526006602052604081208054869081106123d057fe5b6000918252602080832087845260056006909302019190910190526040902060040154116123fd57600080fd5b336000908152600360209081526040808320868452600101825291829020849055815184815291517feff915af5abcf733d88ab55ebab7a6842612483ce2447d6de6af02196cbc54939281900390910190a1506001949350505050565b60006001336000908152600a602052604090206003015460ff16600181111561247f57fe5b1461248957600080fd5b50336000908152600a602052604090206007015490565b33600090815260066020526040812080548291829182918291879081106124c357fe5b60009182526020808320600692830201600201543384529190526040909120805491925090879081106124f257fe5b6000918252602080832060069283020154338452919052604090912080548890811061251a57fe5b90600052602060002090600602016001015482889450945094509450509193509193565b3360009081526003602052604090206002015490565b60006001336000908152600a602052604090206003015460ff16600181111561257957fe5b1461258357600080fd5b336000908152600660205260408120541180156125ae57503360009081526006602052604090205482105b15156125b957600080fd5b336000908152600660205260409020805460001981019081106125d857fe5b600091825260208083203384526006918290526040909320805491909202909201918490811061260457fe5b600091825260209091208254600690920201908155600180830154908201556002808301549082015560038083018054612641928401919061488d565b5060049182015491015533600090815260066020526040902080549061266b9060001983016148cd565b503360009081526006602052604090205415156127345760048054600019810190811061269457fe5b6000918252602080832090910154338352600590915260409091206001015460048054600160a060020a039093169290919081106126ce57fe5b6000918252602090912001805473ffffffffffffffffffffffffffffffffffffffff1916600160a060020a039290921691909117905560048054906127179060001983016148fe565b50336000908152600560205260408120805460ff19168155600101555b3360009081526006602090815260409182902054825190815291517fb9a4bd253f65179162993c9e886b8a6a550b811e0a8c2977ee7dd3a1d061e2729281900390910190a1506001919050565b60008054600160a060020a0316331461279957600080fd5b60025460001015610edf5750600254610ee3565b3360009081526006602052604081208054839081106127c857fe5b600091825260209091206003600690920201015492915050565b60086020526000908152604090205481565b3360009081526006602052604090205490565b6000600183600181111561281757fe5b600181111561282257fe5b14156128c157600d54604080517f70a082310000000000000000000000000000000000000000000000000000000081523360048201529051600160a060020a03909216916370a08231916024808201926020929091908290030181600087803b15801561288e57600080fd5b505af11580156128a2573d6000803e3d6000fd5b505050506040513d60208110156128b857600080fd5b50519050611358565b5080611358565b60008054600160a060020a031633146128e057600080fd5b600160a060020a0382166000908152600a602052604090206003015460a860020a900460ff16151560011461291457600080fd5b600160a060020a0382166000908152600a602052604090206003808201805460ff1990811660011790915560069092018054909216179055612955826143dd565b5061295f826145f2565b50604080516001815290517fe3e79272c9f952f960a5911aee0622f58aedfcfe35abc490183d5e96a84cbae19181900360200190a1506001919050565b600060018560018111156129ac57fe5b60018111156129b757fe5b1415612a0e57600160a060020a03841660009081526006602052604090208054849081106129e157fe5b90600052602060002090600602016005016000838152602001908152602001600020600601549050611d4e565b600160a060020a0384166000908152600660205260409020805484908110612a3257fe5b90600052602060002090600602016005016000838152602001908152602001600020600201549050611d4e565b600080806001336000908152600a602052604090206003015460ff166001811115612a8657fe5b14612a9057600080fd5b33600090815260066020526040812054118015612abb57503360009081526006602052604090205485105b1515612ac657600080fd5b336000908152600660205260409020805486908110612ae157fe5b6000918252602080832087845260069283020160050181526040808420600301543385529290915290912080549193509086908110612b1c57fe5b60009182526020808320878452600692830201600590810182526040808520858155600181018690556002810186905560038101869055600481018690559182018590559083018490553384529190529020805486908110612b7a57fe5b6000918252602080832060069283020160030154338452919052604090912080549192509086908110612ba957fe5b906000526020600020906006020160030160018203815481101515612bca57fe5b600091825260208083209091015433835260069091526040909120805487908110612bf157fe5b906000526020600020906006020160030183815481101515612c0f57fe5b6000918252602080832090910192909255338152600690915260409020805486908110612c3857fe5b9060005260206000209060060201600301805480919060019003612c5c91906148fe565b506040805185815290517fc341cf326465fe622f86c468249e8c0cb03ed23ba376a6a34863a1374ac7d7699181900360200190a1506001949350505050565b60008054606091908190600160a060020a03163314612cb957600080fd5b6002548410612cc757600080fd5b6002805485908110612cd557fe5b9060005260206000209060020201600001600285815481101515612cf557fe5b600091825260209091206001600290920201015460ff166005811115612d1757fe5b6002805487908110612d2557fe5b906000526020600020906002020160010160019054906101000a9004600160a060020a0316828054600181600116156101000203166002900480601f016020809104026020016040519081016040528092919081815260200182805460018160011615610100020316600290048015612ddf5780601f10612db457610100808354040283529160200191612ddf565b820191906000526020600020905b815481529060010190602001808311612dc257829003601f168201915b505050505092509250925092509193909250565b6000806000806000806000612e09338a8a610d1d565b959f949e50929c50909a509850965090945092505050565b60008054606091908190600160a060020a03163314612e3f57600080fd5b600160a060020a0384166000908152600160208190526040909120015460a860020a900460ff161515612e7157600080fd5b600160a060020a03841660009081526001602081905260409091209081015460ff166005811115612e9e57fe5b600160a060020a038681166000908152600160208181526040928390208201548654845160026101009583161586026000190190921691909104601f81018490048402820184019095528481529290049093169290918591830182828015612ddf5780601f10612db457610100808354040283529160200191612ddf565b336000908152600a602052604081206003015460a860020a900460ff16151560011415612f6b57336000908152600a602052604090206006015460ff166005811115612f6457fe5b9050610ee3565b33600090815260016020819052604090912081015460a860020a900460ff1615151415612fb457336000908152600160208190526040909120015460ff166005811115612f6457fe5b6005612f64565b33600090815260086020526040902080546001019081905590565b60006001336000908152600a602052604090206003015460ff166001811115612ffb57fe5b1461300557600080fd5b3360009081526006602052604081205411801561303057503360009081526006602052604090205484105b151561303b57600080fd5b33600090815260066020526040902080548491908690811061305957fe5b60009182526020808320600692830201939093553382529091526040902080548391908690811061308657fe5b6000918252602091829020600160069092020101919091556040805185815291820184905280517f745f6c37c7c955a766769f82b258315021a200fd1fe89df40262fc3c38b640d39281900390910190a19392505050565b600080611d4e84846143a7565b60606006600060048581548110151561310057fe5b6000918252602080832090910154600160a060020a0316835282019290925260400190208054839081106120c357fe5b60006001336000908152600a602052604090206003015460ff16600181111561315557fe5b1461315f57600080fd5b3360009081526006602052604081205411801561318a57503360009081526006602052604090205488105b151561319557600080fd5b33600090815260066020526040902080548791908a9081106131b357fe5b600091825260208083208b84526006928302016005018152604080842094909455338352522080548691908a9081106131e857fe5b600091825260208083208b84526006928302016005018152604080842060010194909455338352522080548591908a90811061322057fe5b600091825260208083208b84526006928302016005018152604080842060020194909455338352522080548491908a90811061325857fe5b600091825260208083208b845260069283020160059081018252604080852090910194909455338352522080548391908a90811061329257fe5b90600052602060002090600602016005016000898152602001908152602001600020600601819055507feca6714fcf568fb34cf9db4a414cb0cc48e93c5d4e1ba0582a46ea3704cf24d5876040518082815260200191505060405180910390a1506001979650505050505050565b600760209081526000928352604080842090915290825290205481565b3360009081526009602090815260408083208584529091528120805482918291829182918291908890811061334e57fe5b60009182526020808320600160089093020191909101543383526009825260408084208c8552909252912080548990811061338557fe5b60009182526020808320600260089093020191909101543383526009825260408084208d8552909252912080548a9081106133bc57fe5b60009182526020808320600360089093020191909101543383526009825260408084208e8552909252912080548b9081106133f357fe5b60009182526020808320600560089093020191909101543383526009825260408084208f855290925291208054600160a060020a03909216918c90811061343657fe5b9060005260206000209060080201600601546009600033600160a060020a0316600160a060020a0316815260200190815260200160002060008e81526020019081526020016000206000018c81548110151561348e57fe5b9060005260206000209060080201600701549550955095509550955095509295509295509295565b600160a060020a0384166000908152600660205260408120805482918491879081106134de57fe5b6000918252602080832088845260056006909302018201905260409091200154101561350957600080fd5b600160a060020a038616600090815260066020526040812080548790811061352d57fe5b60009182526020808320888452600560069093020191909101905260409020600401541161355a57600080fd5b6001600160a060020a0387166000908152600a602052604090206003015460ff16600181111561358657fe5b1461359057600080fd5b6003600033600160a060020a0316600160a060020a031681526020019081526020016000206002018054905090506003600033600160a060020a0316600160a060020a031681526020019081526020016000206002018490806001815401808255809150509060018203906000526020600020016000909192909190915055506040805190810160405280600115158152602001828152506003600033600160a060020a0316600160a060020a03168152602001908152602001600020600001600086815260200190815260200160002060008201518160000160006101000a81548160ff0219169083151502179055506020820151816001015590505060806040519081016040528084815260200187600160a060020a03168152602001868152602001600015158152506003600033600160a060020a0316600160a060020a0316815260200190815260200160002060010160008681526020019081526020016000206000820151816000015560208201518160010160006101000a815481600160a060020a030219169083600160a060020a031602179055506040820151816002015560608201518160030160006101000a81548160ff0219169083151502179055509050507f2480268f1c1956aeaceecb84a6f17e474bc61bb5bb84ec8401372ed0a6133ee86003600033600160a060020a0316600160a060020a03168152602001908152602001600020600201805490506040518082815260200191505060405180910390a150600195945050505050565b60006137d1614922565b6001336000908152600a602052604090206003015460ff1660018111156137f457fe5b146137fe57600080fd5b83815260208082018481523360009081526006808452604080832080546001818101808455928652948790208851919094029093019283559351928201929092559084015160028201556060840151805192938593613863926003850192019061494f565b5060809190910151600490910155503360009081526005602052604090205460ff16151561391557604080518082018252600180825260048054602080850191825233600081815260059092529581209451855460ff1916901515178555905193830193909355805491820181559091527f8a35acfbc15ff81a39ae7d344fd709f28e8600b4aa8c65c6b64bfe7fe36bd19b01805473ffffffffffffffffffffffffffffffffffffffff191690911790555b3360009081526006602090815260409182902054825190815291517f6c6c640d5c695d50cab6e007033207e384550c46ef1e827046dd75e4f33dc4329281900390910190a150503360009081526006602052604090205492915050565b336000908152600360205260408120600201548190819081908190819081908190819081106139a057600080fd5b6139aa8a34611aaf565b15156139b557600080fd5b6139bf8a34612807565b9750600096505b33600090815260036020526040902060020154871015613bc957336000908152600360205260408120600201805490919081106139ff57fe5b60009182526020808320909101543383526003808352604080852083865260010190935291909220015490965060ff161515613bbe5733600090815260036020908152604080832089845260019081018352818420805460028201549190920154600160a060020a0316808652600690945291842080549199509197509195509086908110613a8a57fe5b600091825260208083208a84526005600690930201919091019052604090206004015411613ab757600080fd5b600160a060020a0383166000908152600660205260409020805486919086908110613ade57fe5b600091825260208083208a8452600560069093020182019052604090912001541015613b0957600080fd5b6001600160a060020a0384166000908152600a602052604090206003015460ff166001811115613b3557fe5b14613b3f57600080fd5b613b4b8a84868961299c565b9150613b5782866130de565b905080881015613b6657600080fd5b613b70888261479a565b3360008181526003602081815260408084208c8552600190810190925290922001805460ff19169091179055909850613bad908b90858785612153565b50613bbc83878487898f6147ac565b505b6001909601956139c6565b613bd1612fbb565b50613beb613bdd6118e0565b613be68c611d5c565b613cbc565b50604080516001815290517f0cc34d11f43af89bf3aff732f3999051c4251b5ccc351a54712ea98b003a22319181900360200190a13360008181526003602081815260408084208b855260018082018452918520858155918201805473ffffffffffffffffffffffffffffffffffffffff191690556002808301869055918401805460ff19169055948452919052613c8590830182614989565b506000600391909101555060019998505050505050505050565b336000908152600960209081526040808320938352929052205490565b336000908152600960209081526040808320948352939052919091204260018083019190915560029091019190915590565b3360008181526003602081815260408084208685528083529084206001015494845291905260020180549192916000198101908110613d2957fe5b600091825260208083209091015433835260039091526040909120600201805483908110613d5357fe5b6000918252602080832090910192909255338152600390915260409020600201805490613d849060001983016148fe565b5033600081815260036020818152604080842088855260018082018452828620868155808201805473ffffffffffffffffffffffffffffffffffffffff191690556002808201889055908601805460ff1990811690915583865284882080549091168155909101869055959094529181529290910154815190815290517f7deaca4d9411ae1cc8abc39e3b082a716a0c9e3458e2e7ee60649689fa423ce2929181900390910190a150600192915050565b336000908152600660205260408120805484908110613e5057fe5b6000918252602080832085845260056006909302018201905260409091200154905092915050565b33600090815260036020908152604091829020600201805483518184028101840190945280845260609392830182828015613ed257602002820191906000526020600020905b815481526020019060010190808311613ebe575b5050505050905090565b60001990565b60006001600b6101406040519081016040528087815260200186815260200185815260200160006001811115613f1457fe5b815233602082015260016040820152600b546060820152608001613f36613edc565b815260200160048152600060209182018190528354600181018086559482529082902083518051600890930290910192613f75928492909101906147ec565b506020828101518051613f8e92600185019201906147ec565b5060408201518051613faa9160028401916020909101906147ec565b50606082015160038201805460ff191660018381811115613fc757fe5b0217905550608082015160038201805460a085015174ffffffffffffffffffffffffffffffffffffffff0019909116610100600160a060020a0390941684021760a860020a60ff02191660a860020a9115159190910217905560c0830151600483015560e0830151600580840191909155908301516006830180549192909160ff191690600190849081111561405957fe5b02179055506101208201518160070155505050509392505050565b600080600080600060048781548110151561408b57fe5b6000918252602080832090910154600160a060020a031680835260069091526040909120805491925090879081106140bf57fe5b6000918252602080832060069283020154600160a060020a038516845291905260409091208054889081106140f057fe5b60009182526020909120600160069092020101549098909795509350505050565b60008054600160a060020a0316331461412957600080fd5b60806040519081016040528085815260200183600581111561414757fe5b600581111561415257fe5b8152600160a060020a0385166020808301829052600160409384018190526000928352815291902082518051919261418f928492909101906147ec565b50602082015160018083018054909160ff19909116908360058111156141b157fe5b021790555060408281015160019092018054606090940151151560a860020a0260a860020a60ff0219600160a060020a039094166101000274ffffffffffffffffffffffffffffffffffffffff001990951694909417929092169290921790558051608081019091528481526002906020810184600581111561423057fe5b600581111561423b57fe5b8152600160a060020a0386166020808301919091526001604090920182905283549182018085556000948552938190208351805160029094029091019261428592849201906147ec565b50602082015160018083018054909160ff19909116908360058111156142a757fe5b021790555060408281015160019092018054606090940151151560a860020a0260a860020a60ff0219600160a060020a039094166101000274ffffffffffffffffffffffffffffffffffffffff001990951694909417929092169290921790558051602080825287518183015287517f56b0a2dda7952cd07f438433182565929ba3aba4c3404a7d29a0840ac6284da4945088938392908301919085019080838360005b8381101561436357818101518382015260200161434b565b50505050905090810190601f1680156143905780820380516001836020036101000a031916815260200191505b509250505060405180910390a15060019392505050565b60008215156143b857506000611358565b508181028183828115156143c857fe5b041461135857fe5b8181018281101561135857fe5b600160a060020a0381166000908152600a60205260408120600401546000191261440657600080fd5b600b8054600019810190811061441857fe5b9060005260206000209060080201600b600a600085600160a060020a0316600160a060020a031681526020019081526020016000206004015481548110151561445d57fe5b9060005260206000209060080201600082018160000190805460018160011615610100020316600290046144929291906149aa565b50600182018160010190805460018160011615610100020316600290046144ba9291906149aa565b50600282810180546144df9284810192916000196101006001831615020116046149aa565b50600382810154908201805460ff9092169160ff19166001838181111561450257fe5b021790555060038281018054918301805474ffffffffffffffffffffffffffffffffffffffff00191661010093849004600160a060020a031690930292909217808355905460a860020a60ff021990911660a860020a9182900460ff9081161515909202179091556004808401549083015560058084015481840155600680850154908401805491909316929160ff199091169060019084908111156145a457fe5b02179055506007918201549101556145ba613edc565b600160a060020a0383166000908152600a6020526040902060040155600b8054906145e9906000198301614a1e565b50600192915050565b600c8054600160a060020a0383166000908152600a602052604081206005810183905560018084018086559483528154929493919260089092027fdf6966c971051c3d54ec59162606531493a51404a002842f56009d7e5cf4a8c7019161467191839185916002610100918316159190910260001901909116046149aa565b50600182018160010190805460018160011615610100020316600290046146999291906149aa565b50600282810180546146be9284810192916000196101006001831615020116046149aa565b50600382810154908201805460ff9092169160ff1916600183818111156146e157fe5b021790555060038281018054918301805474ffffffffffffffffffffffffffffffffffffffff00191661010093849004600160a060020a031690930292909217808355905460a860020a60ff021990911660a860020a9182900460ff9081161515909202179091556004808401549083015560058084015481840155600680850154908401805491909316929160ff1990911690600190849081111561478357fe5b021790555060079182015491015550600192915050565b6000828211156147a657fe5b50900390565b6000806000806147ba6118e0565b60010192508291506147cc88876130de565b90506147de828a8a89858f8d8c61155d565b505050509695505050505050565b828054600181600116156101000203166002900490600052602060002090601f016020900481019282601f1061482d57805160ff191683800117855561485a565b8280016001018555821561485a579182015b8281111561485a57825182559160200191906001019061483f565b50611a95929150614a4a565b60408051608081018252600080825260208201819052918101829052606081019190915290565b82805482825590600052602060002090810192821561485a5760005260206000209182015b8281111561485a5782548255916001019190600101906148b2565b8154818355818111156148f9576006028160060283600052602060002091820191016148f99190614a64565b505050565b8154818355818111156148f9576000838152602090206148f9918101908301614a4a565b6040805160a081018252600080825260208201819052918101829052606080820152608081019190915290565b82805482825590600052602060002090810192821561485a579160200282018281111561485a57825182559160200191906001019061483f565b50805460008255906000526020600020908101906149a79190614a4a565b50565b828054600181600116156101000203166002900490600052602060002090601f016020900481019282601f106149e3578054855561485a565b8280016001018555821561485a57600052602060002091601f016020900482018281111561485a5782548255916001019190600101906148b2565b8154818355818111156148f9576008028160080283600052602060002091820191016148f99190614aa2565b610ee391905b80821115611a955760008155600101614a50565b610ee391905b80821115611a955760008082556001820181905560028201819055614a926003830182614989565b5060006004820155600601614a6a565b610ee391905b80821115611a95576000614abc8282614b23565b614aca600183016000614b23565b614ad8600283016000614b23565b5060038101805475ffffffffffffffffffffffffffffffffffffffffffff191690556000600482018190556005820181905560068201805460ff191690556007820155600801614aa8565b50805460018160011615610100020316600290046000825580601f10614b4957506149a7565b601f0160209004906000526020600020908101906149a79190614a4a5600a165627a7a723058208bf0e871c8962942bb7305645e437c3779f6b7a243ff9a20e8acf4a0ed0b265f0029",
  "source": "pragma solidity ^0.4.18;\nimport \"./StoreManager.sol\";\nimport \"./ProductManager.sol\";\nimport './UserManager.sol';\nimport \"./Ownerble.sol\";\nimport \"./ShoppingCartManager.sol\";\nimport \"./Withdrawable.sol\";\nimport \"./SpinelToken.sol\";\n\ncontract MarketPlace is Ownerble, StoreManager, ProductManager,\nUserManager, ShoppingCartManager, Withdrawable{\n\n   \n    constructor(SpinelToken tokenContract ) public {\n         tokenContract_shoppingCart = tokenContract;\n        \n    }\n}\n\n",
  "sourcePath": "/Users/yusufkelo/Documents/DEVELOPER/ETHEREAUM/blockchain-market/market-place/contracts/MarketPlace.sol",
  "compiler": {
    "name": "solc",
    "version": "0.4.24+commit.e67f0147.Emscripten.clang"
  },
  "schemaVersion": "2.0.0",
  "updatedAt": "2018-08-25T14:02:49.287Z"
}