{
  "contractName": "MarketPlace",
  "abi": [
    {
      "constant": true,
      "inputs": [
        {
          "name": "vendor",
          "type": "address"
        },
        {
          "name": "storeIndex",
          "type": "uint256"
        },
        {
          "name": "productId",
          "type": "uint256"
        }
      ],
      "name": "getProduct",
      "outputs": [
        {
          "name": "",
          "type": "bytes32"
        },
        {
          "name": "",
          "type": "bytes32"
        },
        {
          "name": "",
          "type": "uint256"
        },
        {
          "name": "",
          "type": "uint256"
        },
        {
          "name": "",
          "type": "uint256"
        },
        {
          "name": "",
          "type": "address"
        },
        {
          "name": "",
          "type": "uint256"
        }
      ],
      "payable": false,
      "stateMutability": "view",
      "type": "function"
    },
    {
      "constant": true,
      "inputs": [],
      "name": "getPendingVendors",
      "outputs": [
        {
          "name": "",
          "type": "uint256"
        }
      ],
      "payable": false,
      "stateMutability": "view",
      "type": "function"
    },
    {
      "constant": true,
      "inputs": [
        {
          "name": "index",
          "type": "uint256"
        }
      ],
      "name": "getPendingVendorByIndex",
      "outputs": [
        {
          "name": "",
          "type": "string"
        },
        {
          "name": "",
          "type": "string"
        },
        {
          "name": "",
          "type": "string"
        },
        {
          "name": "",
          "type": "uint256"
        },
        {
          "name": "",
          "type": "address"
        }
      ],
      "payable": false,
      "stateMutability": "view",
      "type": "function"
    },
    {
      "constant": true,
      "inputs": [
        {
          "name": "productId",
          "type": "uint256"
        }
      ],
      "name": "getCartItem",
      "outputs": [
        {
          "name": "",
          "type": "uint256"
        },
        {
          "name": "",
          "type": "bytes32"
        },
        {
          "name": "",
          "type": "bytes32"
        },
        {
          "name": "",
          "type": "uint256"
        },
        {
          "name": "",
          "type": "uint256"
        },
        {
          "name": "",
          "type": "uint256"
        },
        {
          "name": "",
          "type": "address"
        }
      ],
      "payable": false,
      "stateMutability": "view",
      "type": "function"
    },
    {
      "constant": true,
      "inputs": [
        {
          "name": "accountIndex",
          "type": "uint256"
        }
      ],
      "name": "getVendorStoreCountPublic",
      "outputs": [
        {
          "name": "",
          "type": "uint256"
        },
        {
          "name": "",
          "type": "uint256"
        }
      ],
      "payable": false,
      "stateMutability": "view",
      "type": "function"
    },
    {
      "constant": true,
      "inputs": [
        {
          "name": "storeIndex",
          "type": "uint256"
        }
      ],
      "name": "getProductsIdsVendor",
      "outputs": [
        {
          "name": "",
          "type": "uint256[]"
        }
      ],
      "payable": false,
      "stateMutability": "view",
      "type": "function"
    },
    {
      "constant": false,
      "inputs": [
        {
          "name": "_name",
          "type": "string"
        },
        {
          "name": "_email",
          "type": "string"
        },
        {
          "name": "_phone",
          "type": "string"
        }
      ],
      "name": "requestVendorAccount",
      "outputs": [
        {
          "name": "",
          "type": "bool"
        }
      ],
      "payable": false,
      "stateMutability": "nonpayable",
      "type": "function"
    },
    {
      "constant": true,
      "inputs": [],
      "name": "getPendingVendorsCount",
      "outputs": [
        {
          "name": "",
          "type": "uint256"
        }
      ],
      "payable": false,
      "stateMutability": "view",
      "type": "function"
    },
    {
      "constant": true,
      "inputs": [
        {
          "name": "accountIndex",
          "type": "uint256"
        },
        {
          "name": "storeIndex",
          "type": "uint256"
        },
        {
          "name": "productId",
          "type": "uint256"
        }
      ],
      "name": "getProductCustomer",
      "outputs": [
        {
          "name": "",
          "type": "bytes32"
        },
        {
          "name": "",
          "type": "bytes32"
        },
        {
          "name": "",
          "type": "uint256"
        },
        {
          "name": "",
          "type": "uint256"
        },
        {
          "name": "",
          "type": "uint256"
        },
        {
          "name": "",
          "type": "address"
        },
        {
          "name": "",
          "type": "uint256"
        }
      ],
      "payable": false,
      "stateMutability": "view",
      "type": "function"
    },
    {
      "constant": true,
      "inputs": [
        {
          "name": "accountIndex",
          "type": "uint256"
        },
        {
          "name": "storeIndex",
          "type": "uint256"
        }
      ],
      "name": "getStorePublic",
      "outputs": [
        {
          "name": "",
          "type": "bytes32"
        },
        {
          "name": "",
          "type": "bytes32"
        },
        {
          "name": "",
          "type": "uint256"
        },
        {
          "name": "",
          "type": "uint256"
        }
      ],
      "payable": false,
      "stateMutability": "view",
      "type": "function"
    },
    {
      "constant": false,
      "inputs": [],
      "name": "withdraw",
      "outputs": [
        {
          "name": "",
          "type": "bool"
        }
      ],
      "payable": false,
      "stateMutability": "nonpayable",
      "type": "function"
    },
    {
      "constant": true,
      "inputs": [],
      "name": "getApprovedVendorsCount",
      "outputs": [
        {
          "name": "",
          "type": "uint256"
        }
      ],
      "payable": false,
      "stateMutability": "view",
      "type": "function"
    },
    {
      "constant": true,
      "inputs": [
        {
          "name": "account",
          "type": "address"
        }
      ],
      "name": "getVendorByAddress",
      "outputs": [
        {
          "name": "",
          "type": "string"
        },
        {
          "name": "",
          "type": "string"
        },
        {
          "name": "",
          "type": "string"
        },
        {
          "name": "",
          "type": "uint256"
        },
        {
          "name": "",
          "type": "address"
        }
      ],
      "payable": false,
      "stateMutability": "view",
      "type": "function"
    },
    {
      "constant": false,
      "inputs": [
        {
          "name": "name",
          "type": "string"
        },
        {
          "name": "account",
          "type": "address"
        },
        {
          "name": "role",
          "type": "uint256"
        }
      ],
      "name": "createAdminUser",
      "outputs": [
        {
          "name": "",
          "type": "bool"
        }
      ],
      "payable": false,
      "stateMutability": "nonpayable",
      "type": "function"
    },
    {
      "constant": true,
      "inputs": [],
      "name": "getVendorAccountsWithListedStoresCount",
      "outputs": [
        {
          "name": "",
          "type": "uint256"
        }
      ],
      "payable": false,
      "stateMutability": "view",
      "type": "function"
    },
    {
      "constant": true,
      "inputs": [
        {
          "name": "index",
          "type": "uint256"
        }
      ],
      "name": "getApprovedVendorByIndex",
      "outputs": [
        {
          "name": "",
          "type": "string"
        },
        {
          "name": "",
          "type": "string"
        },
        {
          "name": "",
          "type": "string"
        },
        {
          "name": "",
          "type": "uint256"
        },
        {
          "name": "",
          "type": "address"
        }
      ],
      "payable": false,
      "stateMutability": "view",
      "type": "function"
    },
    {
      "constant": true,
      "inputs": [
        {
          "name": "account",
          "type": "address"
        },
        {
          "name": "storeIndex",
          "type": "uint256"
        }
      ],
      "name": "getProductsIds",
      "outputs": [
        {
          "name": "",
          "type": "uint256[]"
        }
      ],
      "payable": false,
      "stateMutability": "view",
      "type": "function"
    },
    {
      "constant": false,
      "inputs": [
        {
          "name": "storeIndex",
          "type": "uint256"
        },
        {
          "name": "productId",
          "type": "uint256"
        },
        {
          "name": "productName",
          "type": "bytes32"
        },
        {
          "name": "description",
          "type": "bytes32"
        },
        {
          "name": "price",
          "type": "uint256"
        },
        {
          "name": "quantity",
          "type": "uint256"
        }
      ],
      "name": "editProduct",
      "outputs": [
        {
          "name": "",
          "type": "bool"
        }
      ],
      "payable": false,
      "stateMutability": "nonpayable",
      "type": "function"
    },
    {
      "constant": false,
      "inputs": [
        {
          "name": "vendorAccount",
          "type": "address"
        },
        {
          "name": "storeIndex",
          "type": "uint256"
        },
        {
          "name": "productId",
          "type": "uint256"
        },
        {
          "name": "productQuantity",
          "type": "uint256"
        }
      ],
      "name": "updateCartItem",
      "outputs": [
        {
          "name": "",
          "type": "bool"
        }
      ],
      "payable": false,
      "stateMutability": "nonpayable",
      "type": "function"
    },
    {
      "constant": true,
      "inputs": [
        {
          "name": "storeIndex",
          "type": "uint256"
        }
      ],
      "name": "getStorePrivate",
      "outputs": [
        {
          "name": "",
          "type": "bytes32"
        },
        {
          "name": "",
          "type": "bytes32"
        },
        {
          "name": "",
          "type": "uint256"
        },
        {
          "name": "",
          "type": "uint256"
        }
      ],
      "payable": false,
      "stateMutability": "view",
      "type": "function"
    },
    {
      "constant": true,
      "inputs": [],
      "name": "getCartItemsCount",
      "outputs": [
        {
          "name": "",
          "type": "uint256"
        }
      ],
      "payable": false,
      "stateMutability": "view",
      "type": "function"
    },
    {
      "constant": false,
      "inputs": [
        {
          "name": "storeIndex",
          "type": "uint256"
        },
        {
          "name": "productName",
          "type": "bytes32"
        },
        {
          "name": "description",
          "type": "bytes32"
        },
        {
          "name": "price",
          "type": "uint256"
        },
        {
          "name": "quantity",
          "type": "uint256"
        }
      ],
      "name": "createProduct",
      "outputs": [
        {
          "name": "",
          "type": "uint256"
        }
      ],
      "payable": false,
      "stateMutability": "nonpayable",
      "type": "function"
    },
    {
      "constant": false,
      "inputs": [
        {
          "name": "storeIndex",
          "type": "uint256"
        }
      ],
      "name": "deleteStore",
      "outputs": [
        {
          "name": "",
          "type": "bool"
        }
      ],
      "payable": false,
      "stateMutability": "nonpayable",
      "type": "function"
    },
    {
      "constant": true,
      "inputs": [],
      "name": "getAdminUsersCount",
      "outputs": [
        {
          "name": "",
          "type": "uint256"
        }
      ],
      "payable": false,
      "stateMutability": "view",
      "type": "function"
    },
    {
      "constant": true,
      "inputs": [],
      "name": "getCartPrice",
      "outputs": [
        {
          "name": "",
          "type": "uint256"
        }
      ],
      "payable": false,
      "stateMutability": "view",
      "type": "function"
    },
    {
      "constant": true,
      "inputs": [
        {
          "name": "storeIndex",
          "type": "uint256"
        }
      ],
      "name": "getProductsCount",
      "outputs": [
        {
          "name": "",
          "type": "uint256"
        }
      ],
      "payable": false,
      "stateMutability": "view",
      "type": "function"
    },
    {
      "constant": true,
      "inputs": [],
      "name": "getUserStoreCount",
      "outputs": [
        {
          "name": "",
          "type": "uint256"
        }
      ],
      "payable": false,
      "stateMutability": "view",
      "type": "function"
    },
    {
      "constant": false,
      "inputs": [
        {
          "name": "account",
          "type": "address"
        }
      ],
      "name": "approveVendorAccount",
      "outputs": [
        {
          "name": "",
          "type": "bool"
        }
      ],
      "payable": false,
      "stateMutability": "nonpayable",
      "type": "function"
    },
    {
      "constant": false,
      "inputs": [
        {
          "name": "storeIndex",
          "type": "uint256"
        },
        {
          "name": "productId",
          "type": "uint256"
        }
      ],
      "name": "deleteProduct",
      "outputs": [
        {
          "name": "",
          "type": "bool"
        }
      ],
      "payable": false,
      "stateMutability": "nonpayable",
      "type": "function"
    },
    {
      "constant": true,
      "inputs": [
        {
          "name": "index",
          "type": "uint256"
        }
      ],
      "name": "getAdminUserByIndex",
      "outputs": [
        {
          "name": "",
          "type": "string"
        },
        {
          "name": "",
          "type": "uint256"
        },
        {
          "name": "",
          "type": "address"
        }
      ],
      "payable": false,
      "stateMutability": "view",
      "type": "function"
    },
    {
      "constant": true,
      "inputs": [
        {
          "name": "storeIndex",
          "type": "uint256"
        },
        {
          "name": "productId",
          "type": "uint256"
        }
      ],
      "name": "getProductVendor",
      "outputs": [
        {
          "name": "",
          "type": "bytes32"
        },
        {
          "name": "",
          "type": "bytes32"
        },
        {
          "name": "",
          "type": "uint256"
        },
        {
          "name": "",
          "type": "uint256"
        },
        {
          "name": "",
          "type": "uint256"
        },
        {
          "name": "",
          "type": "address"
        },
        {
          "name": "",
          "type": "uint256"
        }
      ],
      "payable": false,
      "stateMutability": "view",
      "type": "function"
    },
    {
      "constant": true,
      "inputs": [
        {
          "name": "account",
          "type": "address"
        }
      ],
      "name": "getAdminUserByAddress",
      "outputs": [
        {
          "name": "",
          "type": "string"
        },
        {
          "name": "",
          "type": "uint256"
        },
        {
          "name": "",
          "type": "address"
        }
      ],
      "payable": false,
      "stateMutability": "view",
      "type": "function"
    },
    {
      "constant": true,
      "inputs": [],
      "name": "getUserRole",
      "outputs": [
        {
          "name": "",
          "type": "uint256"
        }
      ],
      "payable": false,
      "stateMutability": "view",
      "type": "function"
    },
    {
      "constant": false,
      "inputs": [
        {
          "name": "storeIndex",
          "type": "uint256"
        },
        {
          "name": "storeName",
          "type": "bytes32"
        },
        {
          "name": "description",
          "type": "bytes32"
        }
      ],
      "name": "editStore",
      "outputs": [
        {
          "name": "",
          "type": "bool"
        }
      ],
      "payable": false,
      "stateMutability": "nonpayable",
      "type": "function"
    },
    {
      "constant": false,
      "inputs": [],
      "name": "checkOut",
      "outputs": [
        {
          "name": "",
          "type": "bool"
        }
      ],
      "payable": true,
      "stateMutability": "payable",
      "type": "function"
    },
    {
      "constant": true,
      "inputs": [
        {
          "name": "accountIndex",
          "type": "uint256"
        },
        {
          "name": "storeIndex",
          "type": "uint256"
        }
      ],
      "name": "getProductsIdsCustomer",
      "outputs": [
        {
          "name": "",
          "type": "uint256[]"
        }
      ],
      "payable": false,
      "stateMutability": "view",
      "type": "function"
    },
    {
      "constant": false,
      "inputs": [
        {
          "name": "vendorAccount",
          "type": "address"
        },
        {
          "name": "storeIndex",
          "type": "uint256"
        },
        {
          "name": "productId",
          "type": "uint256"
        },
        {
          "name": "productQuantity",
          "type": "uint256"
        }
      ],
      "name": "addItemToCart",
      "outputs": [
        {
          "name": "",
          "type": "bool"
        }
      ],
      "payable": false,
      "stateMutability": "nonpayable",
      "type": "function"
    },
    {
      "constant": false,
      "inputs": [
        {
          "name": "storeName",
          "type": "bytes32"
        },
        {
          "name": "description",
          "type": "bytes32"
        }
      ],
      "name": "createStore",
      "outputs": [
        {
          "name": "",
          "type": "uint256"
        }
      ],
      "payable": false,
      "stateMutability": "nonpayable",
      "type": "function"
    },
    {
      "constant": false,
      "inputs": [
        {
          "name": "productId",
          "type": "uint256"
        }
      ],
      "name": "deleteCartItem",
      "outputs": [
        {
          "name": "",
          "type": "bool"
        }
      ],
      "payable": false,
      "stateMutability": "nonpayable",
      "type": "function"
    },
    {
      "constant": true,
      "inputs": [],
      "name": "getCartItemsIds",
      "outputs": [
        {
          "name": "",
          "type": "uint256[]"
        }
      ],
      "payable": false,
      "stateMutability": "view",
      "type": "function"
    },
    {
      "inputs": [
        {
          "name": "_tokenSaleContract",
          "type": "address"
        }
      ],
      "payable": false,
      "stateMutability": "nonpayable",
      "type": "constructor"
    },
    {
      "anonymous": false,
      "inputs": [
        {
          "indexed": false,
          "name": "cartSize",
          "type": "uint256"
        }
      ],
      "name": "ItemInsertedToCart",
      "type": "event"
    },
    {
      "anonymous": false,
      "inputs": [
        {
          "indexed": false,
          "name": "productQuantity",
          "type": "uint256"
        }
      ],
      "name": "CartItemUpdated",
      "type": "event"
    },
    {
      "anonymous": false,
      "inputs": [
        {
          "indexed": false,
          "name": "cartSize",
          "type": "uint256"
        }
      ],
      "name": "CartItemDeleted",
      "type": "event"
    },
    {
      "anonymous": false,
      "inputs": [
        {
          "indexed": false,
          "name": "status",
          "type": "bool"
        }
      ],
      "name": "PaymentCompleted",
      "type": "event"
    },
    {
      "anonymous": false,
      "inputs": [
        {
          "indexed": false,
          "name": "status",
          "type": "bool"
        }
      ],
      "name": "VendorAccountRequested",
      "type": "event"
    },
    {
      "anonymous": false,
      "inputs": [
        {
          "indexed": false,
          "name": "status",
          "type": "bool"
        }
      ],
      "name": "VendorAccountApproved",
      "type": "event"
    },
    {
      "anonymous": false,
      "inputs": [
        {
          "indexed": false,
          "name": "productId",
          "type": "uint256"
        },
        {
          "indexed": false,
          "name": "productIdSlot",
          "type": "uint256"
        }
      ],
      "name": "ProductCreated",
      "type": "event"
    },
    {
      "anonymous": false,
      "inputs": [
        {
          "indexed": false,
          "name": "productId",
          "type": "uint256"
        }
      ],
      "name": "ProductUpdated",
      "type": "event"
    },
    {
      "anonymous": false,
      "inputs": [
        {
          "indexed": false,
          "name": "productId",
          "type": "uint256"
        }
      ],
      "name": "ProductDeleted",
      "type": "event"
    },
    {
      "anonymous": false,
      "inputs": [
        {
          "indexed": false,
          "name": "storeName",
          "type": "bytes32"
        },
        {
          "indexed": false,
          "name": "description",
          "type": "bytes32"
        }
      ],
      "name": "StoreCreated",
      "type": "event"
    },
    {
      "anonymous": false,
      "inputs": [
        {
          "indexed": false,
          "name": "storeName",
          "type": "bytes32"
        },
        {
          "indexed": false,
          "name": "description",
          "type": "bytes32"
        }
      ],
      "name": "StoreUpdated",
      "type": "event"
    },
    {
      "anonymous": false,
      "inputs": [
        {
          "indexed": false,
          "name": "status",
          "type": "bool"
        }
      ],
      "name": "StoreDeleteted",
      "type": "event"
    },
    {
      "anonymous": false,
      "inputs": [
        {
          "indexed": false,
          "name": "name",
          "type": "string"
        }
      ],
      "name": "UserCreated",
      "type": "event"
    }
  ],
  "bytecode": "0x60806040523480156200001157600080fd5b50604051602080620041b1833981016040525162000037640100000000620000a9810204565b60408051808201909152600581527f4f776e657200000000000000000000000000000000000000000000000000000060208201526200008290336000640100000000620000bd810204565b50600a8054600160a060020a031916600160a060020a0392909216919091179055620004f5565b60008054600160a060020a03191633179055565b60008054600160a060020a03163314620000d657600080fd5b6000826005811115620000e557fe5b6005811115620000f157fe5b146200018457604080517f08c379a000000000000000000000000000000000000000000000000000000000815260206004820152602760248201527f544845205350454349464945442041444d494e20524f4c4520444f4553204e4f60448201527f5420455849535400000000000000000000000000000000000000000000000000606482015290519081900360840190fd5b6200019a848484640100000000620001a2810204565b949350505050565b60008054600160a060020a03163314620001bb57600080fd5b608060405190810160405280858152602001836005811115620001da57fe5b6005811115620001e657fe5b8152600160a060020a03851660208083018290526001604093840181905260009283528152919020825180519192620002259284929091019062000450565b50602082015160018083018054909160ff19909116908360058111156200024857fe5b021790555060408281015160019092018054606090940151151575010000000000000000000000000000000000000000000260a860020a60ff0219600160a060020a039094166101000261010060a860020a0319909516949094179290921692909217905580516080810190915284815260029060208101846005811115620002cd57fe5b6005811115620002d957fe5b8152600160a060020a0386166020808301919091526001604090920182905283549182018085556000948552938190208351805160029094029091019262000325928492019062000450565b50602082015160018083018054909160ff19909116908360058111156200034857fe5b021790555060408281015160019092018054606090940151151575010000000000000000000000000000000000000000000260a860020a60ff0219600160a060020a039094166101000261010060a860020a031990951694909417929092169290921790558051602080825287518183015287517f56b0a2dda7952cd07f438433182565929ba3aba4c3404a7d29a0840ac6284da4945088938392908301919085019080838360005b838110156200040b578181015183820152602001620003f1565b50505050905090810190601f168015620004395780820380516001836020036101000a031916815260200191505b509250505060405180910390a15060019392505050565b828054600181600116156101000203166002900490600052602060002090601f016020900481019282601f106200049357805160ff1916838001178555620004c3565b82800160010185558215620004c3579182015b82811115620004c3578251825591602001919060010190620004a6565b50620004d1929150620004d5565b5090565b620004f291905b80821115620004d15760008155600101620004dc565b90565b613cac80620005056000396000f3006080604052600436106101ec5763ffffffff7c010000000000000000000000000000000000000000000000000000000060003504166279892481146101f1578063066674291461025957806306cfcb861461028057806311f83918146103fc57806317a5802314610455578063189795591461048657806328617c7c146104ee578063340cffbe1461025957806336bbb03c146105d75780633a8fa895146105f55780633ccfd60b146106365780633d0559631461064b57806343defc10146106605780635406214314610681578063543c73f5146106eb57806358e99175146107005780635ce9ae53146107185780636d3698791461073c5780636de0c1f2146107635780637105306a1461078d57806373ac9d35146107a55780637902f880146107ba5780637cc69325146107de5780637f266904146107f65780638297574b1461080b578063892c45f9146108205780638f0c0f361461083857806399dcec851461084d578063a1c48cc41461086e578063a93e999d14610889578063ab7f603f14610939578063bb3fac1414610954578063bf04a10d14610975578063c08ed9b11461098a578063cba5751c146109a8578063d1dfaa3e146109b0578063e63aefcb146109cb578063e64a282b146109f5578063f513747614610a10578063fa846e5a14610a28575b600080fd5b3480156101fd57600080fd5b50610218600160a060020a0360043516602435604435610a3d565b6040805197885260208801969096528686019490945260608601929092526080850152600160a060020a031660a084015260c0830152519081900360e00190f35b34801561026557600080fd5b5061026e610c19565b60408051918252519081900360200190f35b34801561028c57600080fd5b50610298600435610c36565b6040518080602001806020018060200186815260200185600160a060020a0316600160a060020a03168152602001848103845289818151815260200191508051906020019080838360005b838110156102fb5781810151838201526020016102e3565b50505050905090810190601f1680156103285780820380516001836020036101000a031916815260200191505b5084810383528851815288516020918201918a019080838360005b8381101561035b578181015183820152602001610343565b50505050905090810190601f1680156103885780820380516001836020036101000a031916815260200191505b50848103825287518152875160209182019189019080838360005b838110156103bb5781810151838201526020016103a3565b50505050905090810190601f1680156103e85780820380516001836020036101000a031916815260200191505b509850505050505050505060405180910390f35b34801561040857600080fd5b50610414600435610f16565b604080519788526020880196909652868601949094526060860192909252608085015260a0840152600160a060020a031660c0830152519081900360e00190f35b34801561046157600080fd5b5061046d60043561104d565b6040805192835260208301919091528051918290030190f35b34801561049257600080fd5b5061049e600435611093565b60408051602080825283518183015283519192839290830191858101910280838360005b838110156104da5781810151838201526020016104c2565b505050509050019250505060405180910390f35b3480156104fa57600080fd5b506040805160206004803580820135601f81018490048402850184019095528484526105c394369492936024939284019190819084018382808284375050604080516020601f89358b018035918201839004830284018301909452808352979a99988101979196509182019450925082915084018382808284375050604080516020601f89358b018035918201839004830284018301909452808352979a9998810197919650918201945092508291508401838280828437509497506110a59650505050505050565b604080519115158252519081900360200190f35b3480156105e357600080fd5b506102186004356024356044356112ce565b34801561060157600080fd5b50610610600435602435611322565b604080519485526020850193909352838301919091526060830152519081900360800190f35b34801561064257600080fd5b506105c3611398565b34801561065757600080fd5b5061026e611442565b34801561066c57600080fd5b50610298600160a060020a0360043516611458565b34801561068d57600080fd5b506040805160206004803580820135601f81018490048402850184019095528484526105c394369492936024939284019190819084018382808284375094975050508335600160a060020a0316945050506020909101359050611545565b3480156106f757600080fd5b5061026e611627565b34801561070c57600080fd5b5061029860043561162d565b34801561072457600080fd5b5061049e600160a060020a0360043516602435611731565b34801561074857600080fd5b506105c360043560243560443560643560843560a4356117c1565b34801561076f57600080fd5b506105c3600160a060020a03600435166024356044356064356118f1565b34801561079957600080fd5b506106106004356119d2565b3480156107b157600080fd5b5061026e611a04565b3480156107c657600080fd5b5061026e600435602435604435606435608435611a1a565b3480156107ea57600080fd5b506105c3600435611ba1565b34801561080257600080fd5b5061026e611d73565b34801561081757600080fd5b5061026e611d9f565b34801561082c57600080fd5b5061026e600435611f00565b34801561084457600080fd5b5061026e611f35565b34801561085957600080fd5b506105c3600160a060020a0360043516611f48565b34801561087a57600080fd5b506105c3600435602435612004565b34801561089557600080fd5b506108a16004356121d7565b604051808060200184815260200183600160a060020a0316600160a060020a03168152602001828103825285818151815260200191508051906020019080838360005b838110156108fc5781810151838201526020016108e4565b50505050905090810190601f1680156109295780820380516001836020036101000a031916815260200191505b5094505050505060405180910390f35b34801561094557600080fd5b5061021860043560243561232f565b34801561096057600080fd5b506108a1600160a060020a036004351661235d565b34801561098157600080fd5b5061026e612458565b34801561099657600080fd5b506105c36004356024356044356124f7565b6105c36125c9565b3480156109bc57600080fd5b5061049e6004356024356129c3565b3480156109d757600080fd5b506105c3600160a060020a0360043516602435604435606435612a08565b348015610a0157600080fd5b5061026e600435602435612cf6565b348015610a1c57600080fd5b506105c3600435612e97565b348015610a3457600080fd5b5061049e612fde565b600080600080600080600080600660008c600160a060020a0316600160a060020a031681526020019081526020016000208a815481101515610a7b57fe5b906000526020600020906006020160050160008a8152602001908152602001600020600501549050600660008c600160a060020a0316600160a060020a031681526020019081526020016000208a815481101515610ad557fe5b906000526020600020906006020160050160008a815260200190815260200160002060000154600660008d600160a060020a0316600160a060020a031681526020019081526020016000208b815481101515610b2d57fe5b906000526020600020906006020160050160008b815260200190815260200160002060010154600660008e600160a060020a0316600160a060020a031681526020019081526020016000208c815481101515610b8557fe5b906000526020600020906006020160050160008c815260200190815260200160002060020154600660008f600160a060020a0316600160a060020a031681526020019081526020016000208d815481101515610bdd57fe5b600091825260208083209e835260056006909202909e0101909c526040909b2060040154919d909c9a9b919a9199509097509095509350505050565b600854600090811015610c2f5750600854610c33565b5060005b90565b606080606060008060088054905086101515610c9c576040805160e560020a62461bcd02815260206004820152600d60248201527f496e76616c696420696e64657800000000000000000000000000000000000000604482015290519081900360640190fd5b6008805487908110610caa57fe5b9060005260206000209060080201600001600887815481101515610cca57fe5b9060005260206000209060080201600101600888815481101515610cea57fe5b9060005260206000209060080201600201600889815481101515610d0a57fe5b600091825260209091206003600890920201015460ff166001811115610d2c57fe5b600880548b908110610d3a57fe5b600091825260209182902060089190910201600301548554604080516002610100600185161581026000190190941604601f810186900486028201860190925281815291909204600160a060020a03169290918791830182828015610de05780601f10610db557610100808354040283529160200191610de0565b820191906000526020600020905b815481529060010190602001808311610dc357829003601f168201915b5050875460408051602060026001851615610100026000190190941693909304601f8101849004840282018401909252818152959a5089945092508401905082828015610e6e5780601f10610e4357610100808354040283529160200191610e6e565b820191906000526020600020905b815481529060010190602001808311610e5157829003601f168201915b5050865460408051602060026001851615610100026000190190941693909304601f810184900484028201840190925281815295995088945092508401905082828015610efc5780601f10610ed157610100808354040283529160200191610efc565b820191906000526020600020905b815481529060010190602001808311610edf57829003601f168201915b505050505092509450945094509450945091939590929450565b33600090815260036020908152604080832084845260019081018352818420600281015481549190920154600160a060020a031680865260069094529184208054859485948594859485948594929392918c9185908110610f7357fe5b600091825260208083208f84526006928302016005018152604080842054600160a060020a038716855292909152909120805486908110610fb057fe5b906000526020600020906006020160050160008e8152602001908152602001600020600101546006600085600160a060020a0316600160a060020a031681526020019081526020016000208681548110151561100857fe5b906000526020600020906006020160050160008f8152602001908152602001600020600201548587869950995099509950995099509950505050919395979092949650565b600080826006600060048681548110151561106457fe5b6000918252602080832090910154600160a060020a031683528201929092526040019020549092509050915091565b606061109f3383611731565b92915050565b3360009081526007602052604081206003015460a860020a900460ff1615611117576040805160e560020a62461bcd02815260206004820152601560248201527f5245515545535420495320494e2050524f434553530000000000000000000000604482015290519081900360640190fd5b604080516101408101825285815260208101859052908101839052606081016000815233602082015260016040820152600854606082015260800161115a613042565b81526020016004815260006020918201819052338152600782526040902082518051919261118d92849290910190613905565b5060208281015180516111a69260018501920190613905565b50604082015180516111c2916002840191602090910190613905565b50606082015160038201805460ff1916600183818111156111df57fe5b0217905550608082015160038201805460a085015174ffffffffffffffffffffffffffffffffffffffff0019909116610100600160a060020a0390941684021760a860020a60ff02191660a860020a9115159190910217905560c0830151600483015560e0830151600580840191909155908301516006830180549192909160ff191690600190849081111561127157fe5b0217905550610120820151816007015590505061128f848484613048565b50604080516001815290517fd249fc9da5140e2e7baacc07add09262bad65b9822b19b86dcece6e652e015519181900360200190a15060019392505050565b600080600080600080600061130760048b8154811015156112eb57fe5b600091825260209091200154600160a060020a03168a8a610a3d565b96509650965096509650965096509397509397509397909450565b60008060008060048054905086108015611373575060006006600060048981548110151561134c57fe5b6000918252602080832090910154600160a060020a03168352820192909252604001902054115b151561137e57600080fd5b61138886866131da565b9299919850965090945092505050565b60008060013360009081526007602052604090206003015460ff1660018111156113be57fe5b146113c857600080fd5b3360009081526007602081905260408220015411156114395750336000818152600760208190526040808320909101805490839055905190929183156108fc02918491818181858888f19350505050151561143957336000908152600760208190526040822001829055915061143e565b600191505b5090565b600954600090811015610c2f5750600954610c33565b600160a060020a0381166000908152600760205260408120600301546060918291829190819060a860020a900460ff16151561149357600080fd5b600160a060020a03861660009081526007602052604090206003810154600180830191600284019160ff909116908111156114ca57fe5b600160a060020a038a811660009081526007602090815260409182902060030154875483516002610100600184161581026000190190931604601f8101859004850282018501909552848152910490931692918791830182828015610de05780601f10610db557610100808354040283529160200191610de0565b60008054600160a060020a0316331461155d57600080fd5b600182600581111561156b57fe5b600581111561157657fe5b14806115985750600282600581111561158b57fe5b600581111561159657fe5b145b1515611614576040805160e560020a62461bcd02815260206004820152602760248201527f544845205350454349464945442041444d494e20524f4c4520444f4553204e4f60448201527f5420455849535400000000000000000000000000000000000000000000000000606482015290519081900360840190fd5b61161f848484613277565b949350505050565b60045490565b606080606060008060098054905086101515611693576040805160e560020a62461bcd02815260206004820152600d60248201527f496e76616c696420696e64657800000000000000000000000000000000000000604482015290519081900360640190fd5b60098054879081106116a157fe5b90600052602060002090600802016000016009878154811015156116c157fe5b90600052602060002090600802016001016009888154811015156116e157fe5b906000526020600020906008020160020160098981548110151561170157fe5b600091825260209091206003600890920201015460ff16600181111561172357fe5b600980548b908110610d3a57fe5b600160a060020a03821660009081526006602052604090208054606091908390811061175957fe5b90600052602060002090600602016003018054806020026020016040519081016040528092919081815260200182805480156117b457602002820191906000526020600020905b8154815260200190600101908083116117a0575b5050505050905092915050565b3360009081526006602052604081208054869190899081106117df57fe5b600091825260208083208a84526006928302016005018152604080842094909455338352522080548591908990811061181457fe5b600091825260208083208a84526006928302016005018152604080842060010194909455338352522080548491908990811061184c57fe5b600091825260208083208a84526006928302016005018152604080842060020194909455338352522080548391908990811061188457fe5b90600052602060002090600602016005016000888152602001908152602001600020600501819055507feca6714fcf568fb34cf9db4a414cb0cc48e93c5d4e1ba0582a46ea3704cf24d5866040518082815260200191505060405180910390a15060019695505050505050565b600160a060020a038416600090815260066020526040812080548291908690811061191857fe5b906000526020600020906006020160050160008581526020019081526020016000206004015411801561196a575033600090815260036020908152604080832086845290915290205460ff1615156001145b151561197557600080fd5b336000908152600360209081526040808320868452600101825291829020849055815184815291517feff915af5abcf733d88ab55ebab7a6842612483ce2447d6de6af02196cbc54939281900390910190a1506001949350505050565b336000908152600560205260408120600101548190819081906119f590866131da565b93509350935093509193509193565b3360009081526003602052604090206002015490565b33600090815260066020526040812080548291829189908110611a3957fe5b6000918252602080832060069283020160030154338452919052604090912080549193509089908110611a6857fe5b60009182526020808320600692830201600401805460010190819055338452919052604090912080549192509089908110611a9f57fe5b600091825260208083206006928302016003018054600181018255908452818420018490556040805160c0810182528b81528083018b90528082018a9052606081018790526080810186905260a081018990523385529290915290912080548a908110611b0857fe5b6000918252602080832085845260056006909302018201815260409283902084518155848201516001820155848401516002820155606085015160038201556080850151600482015560a0909401519390910192909255805183815291820184905280517f2a60815e9d2622a909b3c2b731fa879a529c93b5fecdb1cfea183695707572cc9281900390910190a1509695505050505050565b336000908152600660205260408120548210611bbc57600080fd5b33600090815260066020526040902080546000198101908110611bdb57fe5b6000918252602080832033845260069182905260409093208054919092029092019184908110611c0757fe5b600091825260209091208254600690920201908155600180830154908201556002808301549082015560038083018054611c44928401919061397f565b50600491820154910155336000908152600660205260409020805490611c6e9060001983016139bf565b50336000908152600660205260409020541515611d3757600480546000198101908110611c9757fe5b6000918252602080832090910154338352600590915260409091206001015460048054600160a060020a03909316929091908110611cd157fe5b6000918252602090912001805473ffffffffffffffffffffffffffffffffffffffff1916600160a060020a03929092169190911790556004805490611d1a9060001983016139f0565b50336000908152600560205260408120805460ff19168155600101555b604080516001815290517f23c5d741b989d258f3dfd0acb51fe94b269a004cc375577fe837f9e8e084f0299181900360200190a1506001919050565b60008054600160a060020a03163314611d8b57600080fd5b60025460001015610c2f5750600254610c33565b600080600080611dad613a14565b600080600095505b33600090815260036020526040902060020154851015611ef557336000908152600360208181526040808420888552600101909152909120015460ff161515611eea57336000908152600360205260409020600201805486908110611e1657fe5b6000918252602080832090910154338352600380835260408085208386526001908101855281862082516080810184528154815291810154600160a060020a03168287018190526002820154838501908152919094015460ff16151560608301529286526006909452909320925183549197509195508110611e9457fe5b60009182526020808320878452600560069093020191909101815260408083206002015433845260038352818420888552600101909252909120549092509050611ee786611ee2848461350d565b613536565b95505b600190940193611db5565b509395945050505050565b336000908152600660205260408120805483908110611f1b57fe5b600091825260209091206003600690920201015492915050565b3360009081526006602052604090205490565b600160a060020a03811660009081526007602052604081206003015460a860020a900460ff161515600114611f7c57600080fd5b600160a060020a03821660009081526007602052604090206003808201805460ff1990811660011790915560069092018054909216179055611fbd82613543565b50611fc78261374b565b50604080516001815290517fe3e79272c9f952f960a5911aee0622f58aedfcfe35abc490183d5e96a84cbae19181900360200190a1506001919050565b3360009081526006602052604081208054829182918690811061202357fe5b600091825260208083208784526006928302016005018152604080842060030154338552929091529091208054919350908690811061205e57fe5b600091825260208083208784526006928302016005908101825260408085208581556001810186905560028101869055600381018690556004810186905590910184905533845291905290208054869081106120b657fe5b60009182526020808320600692830201600301543384529190526040909120805491925090869081106120e557fe5b90600052602060002090600602016003016001820381548110151561210657fe5b60009182526020808320909101543383526006909152604090912080548790811061212d57fe5b90600052602060002090600602016003018381548110151561214b57fe5b600091825260208083209091019290925533815260069091526040902080548690811061217457fe5b906000526020600020906006020160030180548091906001900361219891906139f0565b506040805185815290517fc341cf326465fe622f86c468249e8c0cb03ed23ba376a6a34863a1374ac7d7699181900360200190a1506001949350505050565b60008054606091908190600160a060020a031633146121f557600080fd5b600254841061220357600080fd5b600280548590811061221157fe5b906000526020600020906002020160000160028581548110151561223157fe5b600091825260209091206001600290920201015460ff16600581111561225357fe5b600280548790811061226157fe5b906000526020600020906002020160010160019054906101000a9004600160a060020a0316828054600181600116156101000203166002900480601f01602080910402602001604051908101604052809291908181526020018280546001816001161561010002031660029004801561231b5780601f106122f05761010080835404028352916020019161231b565b820191906000526020600020905b8154815290600101906020018083116122fe57829003601f168201915b505050505092509250925092509193909250565b6000806000806000806000612345338a8a610a3d565b959f949e50929c50909a509850965090945092505050565b60008054606091908190600160a060020a0316331461237b57600080fd5b600160a060020a0384166000908152600160208190526040909120015460a860020a900460ff1615156123ad57600080fd5b600160a060020a03841660009081526001602081905260409091209081015460ff1660058111156123da57fe5b600160a060020a038681166000908152600160208181526040928390208201548654845160026101009583161586026000190190921691909104601f8101849004840282018401909552848152929004909316929091859183018282801561231b5780601f106122f05761010080835404028352916020019161231b565b3360009081526007602052604081206003015460a860020a900460ff161515600114156124a7573360009081526007602052604090206006015460ff1660058111156124a057fe5b9050610c33565b33600090815260016020819052604090912081015460a860020a900460ff16151514156124f057336000908152600160208190526040909120015460ff1660058111156124a057fe5b60056124a0565b600060013360009081526007602052604090206003015460ff16600181111561251c57fe5b1461252657600080fd5b33600090815260066020526040902080548491908690811061254457fe5b60009182526020808320600692830201939093553382529091526040902080548391908690811061257157fe5b6000918252602091829020600160069092020101919091556040805185815291820184905280517f1f06b4504ab663437e6acda30ec31427a9daa3167c298775fbdb45dde4a0e6049281900390910190a19392505050565b336000908152600360205260408120600201548190819081908190819081908190819081106125f757600080fd5b6125ff611d9f565b34101561260b57600080fd5b349750600096505b33600090815260036020526040902060020154871015612980573360009081526003602052604081206002018054909190811061264c57fe5b60009182526020808320909101543383526003808352604080852083865260010190935291909220015490965060ff1615156129755733600090815260036020908152604080832089845260019081018352818420805460028201549190920154600160a060020a03168086526006909452918420805491995091975091955090869081106126d757fe5b600091825260208083208a8452600560069093020191909101905260409020600401541161270457600080fd5b600160a060020a038316600090815260066020526040902080548691908690811061272b57fe5b600091825260208083208a845260056006909302018201905260409091200154101561275657600080fd5b6001600160a060020a03841660009081526007602052604090206003015460ff16600181111561278257fe5b1461278c57600080fd5b600160a060020a03831660009081526006602052604090208054859081106127b057fe5b906000526020600020906006020160050160008781526020019081526020016000206002015491506127e2828661350d565b9050808810156127f157600080fd5b6127fb88826138f3565b3360009081526003602081815260408084208b855260019081018352818520909301805460ff1916909317909255600160a060020a03871683526006905290208054919950612866918690811061284e57fe5b90600052602060002090600602016002015482613536565b600160a060020a038416600090815260066020526040902080548690811061288a57fe5b9060005260206000209060060201600201819055506128d16007600085600160a060020a0316600160a060020a031681526020019081526020016000206007015482613536565b600160a060020a038416600090815260076020818152604080842090920193909355600690925220805461293091908690811061290a57fe5b600091825260208083208a845260056006909302018201905260409091200154866138f3565b600160a060020a038416600090815260066020526040902080548690811061295457fe5b600091825260208083208a8452600560069093020182019052604090912001555b600190960195612613565b604080516001815290517f0cc34d11f43af89bf3aff732f3999051c4251b5ccc351a54712ea98b003a22319181900360200190a160019850505050505050505090565b6060600660006004858154811015156129d857fe5b6000918252602080832090910154600160a060020a03168352820192909252604001902080548390811061175957fe5b600160a060020a038416600090815260066020526040812080548291829187908110612a3057fe5b9060005260206000209060060201600501600086815260200190815260200160002060040154118015612a7e575033600090815260036020908152604080832087845290915290205460ff16155b1515612a8957600080fd5b6001600160a060020a03871660009081526007602052604090206003015460ff166001811115612ab557fe5b14612abf57600080fd5b6003600033600160a060020a0316600160a060020a031681526020019081526020016000206002018054905090506003600033600160a060020a0316600160a060020a031681526020019081526020016000206002018490806001815401808255809150509060018203906000526020600020016000909192909190915055506040805190810160405280600115158152602001828152506003600033600160a060020a0316600160a060020a03168152602001908152602001600020600001600086815260200190815260200160002060008201518160000160006101000a81548160ff0219169083151502179055506020820151816001015590505060806040519081016040528084815260200187600160a060020a03168152602001868152602001600015158152506003600033600160a060020a0316600160a060020a0316815260200190815260200160002060010160008681526020019081526020016000206000820151816000015560208201518160010160006101000a815481600160a060020a030219169083600160a060020a031602179055506040820151816002015560608201518160030160006101000a81548160ff0219169083151502179055509050507f2480268f1c1956aeaceecb84a6f17e474bc61bb5bb84ec8401372ed0a6133ee86003600033600160a060020a0316600160a060020a03168152602001908152602001600020600201805490506040518082815260200191505060405180910390a150600195945050505050565b6000612d00613a3b565b60013360009081526007602052604090206003015460ff166001811115612d2357fe5b14612d2d57600080fd5b83815260208082018481523360009081526006808452604080832080546001818101808455928652948790208851919094029093019283559351928201929092559084015160028201556060840151805192938593612d929260038501920190613a68565b5060809190910151600490910155503360009081526005602052604090205460ff161515612e4457604080518082018252600180825260048054602080850191825233600081815260059092529581209451855460ff1916901515178555905193830193909355805491820181559091527f8a35acfbc15ff81a39ae7d344fd709f28e8600b4aa8c65c6b64bfe7fe36bd19b01805473ffffffffffffffffffffffffffffffffffffffff191690911790555b604080518581526020810185905281517f1f06b4504ab663437e6acda30ec31427a9daa3167c298775fbdb45dde4a0e604929181900390910190a150503360009081526006602052604090205492915050565b3360008181526003602081815260408084208685528083529084206001015494845291905260020180549192916000198101908110612ed257fe5b600091825260208083209091015433835260039091526040909120600201805483908110612efc57fe5b6000918252602080832090910192909255338152600390915260409020600201805490612f2d9060001983016139f0565b5033600081815260036020818152604080842088855260018082018452828620868155808201805473ffffffffffffffffffffffffffffffffffffffff191690556002808201889055908601805460ff1990811690915583865284882080549091168155909101869055959094529181529290910154815190815290517f7deaca4d9411ae1cc8abc39e3b082a716a0c9e3458e2e7ee60649689fa423ce2929181900390910190a150600192915050565b3360009081526003602090815260409182902060020180548351818402810184019094528084526060939283018282801561303857602002820191906000526020600020905b815481526020019060010190808311613024575b5050505050905090565b60001990565b600060016008610140604051908101604052808781526020018681526020018581526020016000600181111561307a57fe5b815233602082015260016040820152600854606082015260800161309c613042565b8152602001600481526000602091820181905283546001810180865594825290829020835180516008909302909101926130db92849290910190613905565b5060208281015180516130f49260018501920190613905565b5060408201518051613110916002840191602090910190613905565b50606082015160038201805460ff19166001838181111561312d57fe5b0217905550608082015160038201805460a085015174ffffffffffffffffffffffffffffffffffffffff0019909116610100600160a060020a0390941684021760a860020a60ff02191660a860020a9115159190910217905560c0830151600483015560e0830151600580840191909155908301516006830180549192909160ff19169060019084908111156131bf57fe5b02179055506101208201518160070155505050509392505050565b60008060008060006004878154811015156131f157fe5b6000918252602080832090910154600160a060020a0316808352600690915260409091208054919250908790811061322557fe5b6000918252602080832060069283020154600160a060020a0385168452919052604090912080548890811061325657fe5b60009182526020909120600160069092020101549098909795509350505050565b60008054600160a060020a0316331461328f57600080fd5b6080604051908101604052808581526020018360058111156132ad57fe5b60058111156132b857fe5b8152600160a060020a038516602080830182905260016040938401819052600092835281529190208251805191926132f592849290910190613905565b50602082015160018083018054909160ff199091169083600581111561331757fe5b021790555060408281015160019092018054606090940151151560a860020a0260a860020a60ff0219600160a060020a039094166101000274ffffffffffffffffffffffffffffffffffffffff001990951694909417929092169290921790558051608081019091528481526002906020810184600581111561339657fe5b60058111156133a157fe5b8152600160a060020a038616602080830191909152600160409092018290528354918201808555600094855293819020835180516002909402909101926133eb9284920190613905565b50602082015160018083018054909160ff199091169083600581111561340d57fe5b021790555060408281015160019092018054606090940151151560a860020a0260a860020a60ff0219600160a060020a039094166101000274ffffffffffffffffffffffffffffffffffffffff001990951694909417929092169290921790558051602080825287518183015287517f56b0a2dda7952cd07f438433182565929ba3aba4c3404a7d29a0840ac6284da4945088938392908301919085019080838360005b838110156134c95781810151838201526020016134b1565b50505050905090810190601f1680156134f65780820380516001836020036101000a031916815260200191505b509250505060405180910390a15060019392505050565b600082151561351e5750600061109f565b5081810281838281151561352e57fe5b041461109f57fe5b8181018281101561109f57fe5b600160a060020a0381166000908152600760205260408120600401546000191261356c57600080fd5b60088054600019810190811061357e57fe5b60009182526020808320600160a060020a0386168452600790915260409092206004015460088054928102909301929181106135b657fe5b9060005260206000209060080201600082018160000190805460018160011615610100020316600290046135eb929190613aa2565b5060018201816001019080546001816001161561010002031660029004613613929190613aa2565b5060028281018054613638928481019291600019610100600183161502011604613aa2565b50600382810154908201805460ff9092169160ff19166001838181111561365b57fe5b021790555060038281018054918301805474ffffffffffffffffffffffffffffffffffffffff00191661010093849004600160a060020a031690930292909217808355905460a860020a60ff021990911660a860020a9182900460ff9081161515909202179091556004808401549083015560058084015481840155600680850154908401805491909316929160ff199091169060019084908111156136fd57fe5b0217905550600791820154910155613713613042565b600160a060020a0383166000908152600760205260409020600401556008805490613742906000198301613b16565b50600192915050565b60098054600160a060020a03831660009081526007602052604081206005810183905560018084018086559483528154929493919260089092027f6e1540171b6c0c960b71a7020d9f60077f6af931a8bbf590da0223dacf75c7af01916137ca9183918591600261010091831615919091026000190190911604613aa2565b50600182018160010190805460018160011615610100020316600290046137f2929190613aa2565b5060028281018054613817928481019291600019610100600183161502011604613aa2565b50600382810154908201805460ff9092169160ff19166001838181111561383a57fe5b021790555060038281018054918301805474ffffffffffffffffffffffffffffffffffffffff00191661010093849004600160a060020a031690930292909217808355905460a860020a60ff021990911660a860020a9182900460ff9081161515909202179091556004808401549083015560058084015481840155600680850154908401805491909316929160ff199091169060019084908111156138dc57fe5b021790555060079182015491015550600192915050565b6000828211156138ff57fe5b50900390565b828054600181600116156101000203166002900490600052602060002090601f016020900481019282601f1061394657805160ff1916838001178555613973565b82800160010185558215613973579182015b82811115613973578251825591602001919060010190613958565b5061143e929150613b42565b8280548282559060005260206000209081019282156139735760005260206000209182015b828111156139735782548255916001019190600101906139a4565b8154818355818111156139eb576006028160060283600052602060002091820191016139eb9190613b5c565b505050565b8154818355818111156139eb576000838152602090206139eb918101908301613b42565b60408051608081018252600080825260208201819052918101829052606081019190915290565b6040805160a081018252600080825260208201819052918101829052606080820152608081019190915290565b8280548282559060005260206000209081019282156139735791602002820182811115613973578251825591602001919060010190613958565b828054600181600116156101000203166002900490600052602060002090601f016020900481019282601f10613adb5780548555613973565b8280016001018555821561397357600052602060002091601f01602090048201828111156139735782548255916001019190600101906139a4565b8154818355818111156139eb576008028160080283600052602060002091820191016139eb9190613b9a565b610c3391905b8082111561143e5760008155600101613b48565b610c3391905b8082111561143e5760008082556001820181905560028201819055613b8a6003830182613c1b565b5060006004820155600601613b62565b610c3391905b8082111561143e576000613bb48282613c3c565b613bc2600183016000613c3c565b613bd0600283016000613c3c565b5060038101805475ffffffffffffffffffffffffffffffffffffffffffff191690556000600482018190556005820181905560068201805460ff191690556007820155600801613ba0565b5080546000825590600052602060002090810190613c399190613b42565b50565b50805460018160011615610100020316600290046000825580601f10613c625750613c39565b601f016020900490600052602060002090810190613c399190613b425600a165627a7a723058202bc65a4a4af4807ba856722e8419c1f13c264ccb11f139d22fad2fc413d9a6150029",
  "source": "pragma solidity ^0.4.18;\nimport \"./StoreManager.sol\";\nimport \"./ProductManager.sol\";\nimport './UserManager.sol';\nimport \"./Ownerble.sol\";\nimport \"./ShoppingCartManager.sol\";\nimport \"./Withdrawable.sol\";\nimport \"./SpinelTokenSale.sol\";\n\ncontract MarketPlace is Ownerble, StoreManager, ProductManager,\nUserManager, ShoppingCartManager, Withdrawable{\n\n    SpinelTokenSale tokenSaleContract;\n    constructor(SpinelTokenSale _tokenSaleContract) public {\n         tokenSaleContract = _tokenSaleContract;\n\n    }\n}\n\n",
  "sourcePath": "/Users/yusufkelo/Documents/DEVELOPER/ETHEREAUM/blockchain-market/market-place/contracts/MarketPlace.sol",
  "compiler": {
    "name": "solc",
    "version": "0.4.24+commit.e67f0147.Emscripten.clang"
  },
  "schemaVersion": "2.0.0",
  "updatedAt": "2018-08-21T13:51:22.224Z"
}