{
  "contractName": "MarketPlace",
  "abi": [
    {
      "constant": true,
      "inputs": [],
      "name": "getPendingVendors",
      "outputs": [
        {
          "name": "",
          "type": "uint256"
        }
      ],
      "payable": false,
      "stateMutability": "view",
      "type": "function"
    },
    {
      "constant": true,
      "inputs": [
        {
          "name": "index",
          "type": "uint256"
        }
      ],
      "name": "getPendingVendorByIndex",
      "outputs": [
        {
          "name": "",
          "type": "string"
        },
        {
          "name": "",
          "type": "string"
        },
        {
          "name": "",
          "type": "string"
        },
        {
          "name": "",
          "type": "uint256"
        },
        {
          "name": "",
          "type": "address"
        }
      ],
      "payable": false,
      "stateMutability": "view",
      "type": "function"
    },
    {
      "constant": true,
      "inputs": [
        {
          "name": "",
          "type": "address"
        }
      ],
      "name": "userStoresCount",
      "outputs": [
        {
          "name": "",
          "type": "uint256"
        }
      ],
      "payable": false,
      "stateMutability": "view",
      "type": "function"
    },
    {
      "constant": false,
      "inputs": [
        {
          "name": "_name",
          "type": "string"
        },
        {
          "name": "_email",
          "type": "string"
        },
        {
          "name": "_phone",
          "type": "string"
        }
      ],
      "name": "requestVendorAccount",
      "outputs": [
        {
          "name": "",
          "type": "bool"
        }
      ],
      "payable": false,
      "stateMutability": "nonpayable",
      "type": "function"
    },
    {
      "constant": true,
      "inputs": [],
      "name": "getPendingVendorsCount",
      "outputs": [
        {
          "name": "",
          "type": "uint256"
        }
      ],
      "payable": false,
      "stateMutability": "view",
      "type": "function"
    },
    {
      "constant": true,
      "inputs": [],
      "name": "getApprovedVendorsCount",
      "outputs": [
        {
          "name": "",
          "type": "uint256"
        }
      ],
      "payable": false,
      "stateMutability": "view",
      "type": "function"
    },
    {
      "constant": true,
      "inputs": [
        {
          "name": "account",
          "type": "address"
        }
      ],
      "name": "getVendorByAddress",
      "outputs": [
        {
          "name": "",
          "type": "string"
        },
        {
          "name": "",
          "type": "string"
        },
        {
          "name": "",
          "type": "string"
        },
        {
          "name": "",
          "type": "uint256"
        },
        {
          "name": "",
          "type": "address"
        }
      ],
      "payable": false,
      "stateMutability": "view",
      "type": "function"
    },
    {
      "constant": false,
      "inputs": [
        {
          "name": "name",
          "type": "string"
        },
        {
          "name": "account",
          "type": "address"
        },
        {
          "name": "role",
          "type": "uint256"
        }
      ],
      "name": "createAdminUser",
      "outputs": [
        {
          "name": "",
          "type": "bool"
        }
      ],
      "payable": false,
      "stateMutability": "nonpayable",
      "type": "function"
    },
    {
      "constant": true,
      "inputs": [
        {
          "name": "index",
          "type": "uint256"
        }
      ],
      "name": "getApprovedVendorByIndex",
      "outputs": [
        {
          "name": "",
          "type": "string"
        },
        {
          "name": "",
          "type": "string"
        },
        {
          "name": "",
          "type": "string"
        },
        {
          "name": "",
          "type": "uint256"
        },
        {
          "name": "",
          "type": "address"
        }
      ],
      "payable": false,
      "stateMutability": "view",
      "type": "function"
    },
    {
      "constant": true,
      "inputs": [],
      "name": "getAdminUsersCount",
      "outputs": [
        {
          "name": "",
          "type": "uint256"
        }
      ],
      "payable": false,
      "stateMutability": "view",
      "type": "function"
    },
    {
      "constant": true,
      "inputs": [
        {
          "name": "",
          "type": "address"
        },
        {
          "name": "",
          "type": "uint256"
        }
      ],
      "name": "userStores",
      "outputs": [
        {
          "name": "name",
          "type": "string"
        },
        {
          "name": "description",
          "type": "string"
        },
        {
          "name": "balance",
          "type": "uint256"
        },
        {
          "name": "publicIndex",
          "type": "uint256"
        }
      ],
      "payable": false,
      "stateMutability": "view",
      "type": "function"
    },
    {
      "constant": false,
      "inputs": [
        {
          "name": "account",
          "type": "address"
        }
      ],
      "name": "approveVendorAccount",
      "outputs": [
        {
          "name": "",
          "type": "bool"
        }
      ],
      "payable": false,
      "stateMutability": "nonpayable",
      "type": "function"
    },
    {
      "constant": true,
      "inputs": [
        {
          "name": "index",
          "type": "uint256"
        }
      ],
      "name": "getAdminUserByIndex",
      "outputs": [
        {
          "name": "",
          "type": "string"
        },
        {
          "name": "",
          "type": "uint256"
        },
        {
          "name": "",
          "type": "address"
        }
      ],
      "payable": false,
      "stateMutability": "view",
      "type": "function"
    },
    {
      "constant": true,
      "inputs": [
        {
          "name": "account",
          "type": "address"
        }
      ],
      "name": "getAdminUserByAddress",
      "outputs": [
        {
          "name": "",
          "type": "string"
        },
        {
          "name": "",
          "type": "uint256"
        },
        {
          "name": "",
          "type": "address"
        }
      ],
      "payable": false,
      "stateMutability": "view",
      "type": "function"
    },
    {
      "constant": true,
      "inputs": [],
      "name": "getUserRole",
      "outputs": [
        {
          "name": "",
          "type": "uint256"
        }
      ],
      "payable": false,
      "stateMutability": "view",
      "type": "function"
    },
    {
      "inputs": [],
      "payable": false,
      "stateMutability": "nonpayable",
      "type": "constructor"
    },
    {
      "constant": true,
      "inputs": [
        {
          "name": "storeIndex",
          "type": "uint256"
        }
      ],
      "name": "getStoreProductsCount",
      "outputs": [
        {
          "name": "",
          "type": "uint256"
        }
      ],
      "payable": false,
      "stateMutability": "view",
      "type": "function"
    },
    {
      "constant": true,
      "inputs": [
        {
          "name": "storeIndex",
          "type": "uint256"
        }
      ],
      "name": "getStoreProductsCountPublic",
      "outputs": [
        {
          "name": "",
          "type": "uint256"
        }
      ],
      "payable": false,
      "stateMutability": "view",
      "type": "function"
    },
    {
      "constant": true,
      "inputs": [
        {
          "name": "storeIndex",
          "type": "uint256"
        },
        {
          "name": "productIndex",
          "type": "uint256"
        }
      ],
      "name": "getUserStoreProduct",
      "outputs": [
        {
          "name": "",
          "type": "string"
        },
        {
          "name": "",
          "type": "string"
        },
        {
          "name": "",
          "type": "uint256"
        },
        {
          "name": "",
          "type": "uint256"
        }
      ],
      "payable": false,
      "stateMutability": "view",
      "type": "function"
    },
    {
      "constant": true,
      "inputs": [
        {
          "name": "storeIndex",
          "type": "uint256"
        },
        {
          "name": "productIndex",
          "type": "uint256"
        }
      ],
      "name": "getStoreProductPublic",
      "outputs": [
        {
          "name": "",
          "type": "string"
        },
        {
          "name": "",
          "type": "string"
        },
        {
          "name": "",
          "type": "uint256"
        },
        {
          "name": "",
          "type": "uint256"
        }
      ],
      "payable": false,
      "stateMutability": "view",
      "type": "function"
    },
    {
      "constant": false,
      "inputs": [
        {
          "name": "storeIndex",
          "type": "uint256"
        },
        {
          "name": "storeName",
          "type": "string"
        },
        {
          "name": "description",
          "type": "string"
        }
      ],
      "name": "editStore",
      "outputs": [
        {
          "name": "",
          "type": "bool"
        }
      ],
      "payable": false,
      "stateMutability": "nonpayable",
      "type": "function"
    },
    {
      "constant": false,
      "inputs": [
        {
          "name": "storeName",
          "type": "string"
        },
        {
          "name": "description",
          "type": "string"
        }
      ],
      "name": "createStore",
      "outputs": [
        {
          "name": "",
          "type": "uint256"
        }
      ],
      "payable": false,
      "stateMutability": "nonpayable",
      "type": "function"
    },
    {
      "constant": false,
      "inputs": [
        {
          "name": "storeIndex",
          "type": "uint256"
        }
      ],
      "name": "deleteStore",
      "outputs": [
        {
          "name": "",
          "type": "bool"
        }
      ],
      "payable": false,
      "stateMutability": "nonpayable",
      "type": "function"
    },
    {
      "constant": true,
      "inputs": [
        {
          "name": "storeIndex",
          "type": "uint256"
        }
      ],
      "name": "getOwnStore",
      "outputs": [
        {
          "name": "",
          "type": "string"
        },
        {
          "name": "",
          "type": "string"
        },
        {
          "name": "",
          "type": "uint256"
        }
      ],
      "payable": false,
      "stateMutability": "view",
      "type": "function"
    },
    {
      "constant": true,
      "inputs": [
        {
          "name": "storeIndex",
          "type": "uint256"
        }
      ],
      "name": "getPublicStore",
      "outputs": [
        {
          "name": "",
          "type": "string"
        },
        {
          "name": "",
          "type": "string"
        }
      ],
      "payable": false,
      "stateMutability": "view",
      "type": "function"
    },
    {
      "constant": true,
      "inputs": [],
      "name": "getPublicStoreSize",
      "outputs": [
        {
          "name": "",
          "type": "uint256"
        }
      ],
      "payable": false,
      "stateMutability": "view",
      "type": "function"
    },
    {
      "constant": true,
      "inputs": [
        {
          "name": "user",
          "type": "address"
        },
        {
          "name": "storeIndex",
          "type": "uint256"
        }
      ],
      "name": "getUserStore",
      "outputs": [
        {
          "name": "",
          "type": "string"
        },
        {
          "name": "",
          "type": "string"
        },
        {
          "name": "",
          "type": "uint256"
        }
      ],
      "payable": false,
      "stateMutability": "view",
      "type": "function"
    },
    {
      "constant": false,
      "inputs": [
        {
          "name": "storeIndex",
          "type": "uint256"
        },
        {
          "name": "name",
          "type": "string"
        },
        {
          "name": "description",
          "type": "string"
        },
        {
          "name": "price",
          "type": "uint256"
        },
        {
          "name": "quantity",
          "type": "uint256"
        }
      ],
      "name": "addProduct",
      "outputs": [
        {
          "name": "",
          "type": "uint256"
        }
      ],
      "payable": false,
      "stateMutability": "nonpayable",
      "type": "function"
    },
    {
      "constant": false,
      "inputs": [
        {
          "name": "storeIndex",
          "type": "uint256"
        },
        {
          "name": "productIndex",
          "type": "uint256"
        },
        {
          "name": "productName",
          "type": "string"
        },
        {
          "name": "description",
          "type": "string"
        },
        {
          "name": "price",
          "type": "uint256"
        },
        {
          "name": "quantity",
          "type": "uint256"
        }
      ],
      "name": "editProduct",
      "outputs": [
        {
          "name": "",
          "type": "bool"
        }
      ],
      "payable": false,
      "stateMutability": "nonpayable",
      "type": "function"
    },
    {
      "constant": false,
      "inputs": [
        {
          "name": "storeIndex",
          "type": "uint256"
        },
        {
          "name": "productIndex_to_delete",
          "type": "uint256"
        }
      ],
      "name": "deleteProduct",
      "outputs": [
        {
          "name": "",
          "type": "bool"
        }
      ],
      "payable": false,
      "stateMutability": "nonpayable",
      "type": "function"
    }
  ],
  "bytecode": "0x60806040523480156200001157600080fd5b506200002564010000000062000077810204565b60408051808201909152600581527f4f776e6572000000000000000000000000000000000000000000000000000000602082015262000070903360006401000000006200008b810204565b506200042a565b60008054600160a060020a03191633179055565b60008054600160a060020a03163314620000a457600080fd5b6000826005811115620000b357fe5b6005811115620000bf57fe5b146200015257604080517f08c379a000000000000000000000000000000000000000000000000000000000815260206004820152602760248201527f544845205350454349464945442041444d494e20524f4c4520444f4553204e4f60448201527f5420455849535400000000000000000000000000000000000000000000000000606482015290519081900360840190fd5b6200016884848464010000000062000170810204565b949350505050565b60008054600160a060020a031633146200018957600080fd5b608060405190810160405280858152602001836005811115620001a857fe5b6005811115620001b457fe5b8152600160a060020a03851660208083018290526001604093840181905260009283528152919020825180519192620001f39284929091019062000385565b50602082015160018083018054909160ff19909116908360058111156200021657fe5b021790555060408281015160019092018054606090940151151575010000000000000000000000000000000000000000000260a860020a60ff0219600160a060020a039094166101000261010060a860020a03199095169490941792909216929092179055805160808101909152848152600290602081018460058111156200029b57fe5b6005811115620002a757fe5b8152600160a060020a03861660208083019190915260016040909201829052835491820180855560009485529381902083518051600290940290910192620002f3928492019062000385565b50602082015160018083018054909160ff19909116908360058111156200031657fe5b0217905550604082015160019182018054606090940151151575010000000000000000000000000000000000000000000260a860020a60ff0219600160a060020a039093166101000261010060a860020a03199095169490941791909116929092179091559150509392505050565b828054600181600116156101000203166002900490600052602060002090601f016020900481019282601f10620003c857805160ff1916838001178555620003f8565b82800160010185558215620003f8579182015b82811115620003f8578251825591602001919060010190620003db565b50620004069291506200040a565b5090565b6200042791905b8082111562000406576000815560010162000411565b90565b613da7806200043a6000396000f3006080604052600436106101745763ffffffff7c01000000000000000000000000000000000000000000000000000000006000350416630141da92811461017957806301db5b4814610280578063066674291461033757806306cfcb861461034c57806307077b07146104c85780630e9dca5d146104e95780631b20335d146105df57806328617c7c14610676578063340cffbe146103375780633c52a42e1461075f5780633d05596314610777578063414686de1461078c57806343defc10146107a457806354062143146107c557806358e991751461082f57806365487a05146108475780636dca56e6146109445780637cc693251461095f5780637f26690414610977578063858bb8c01461098c57806399dcec85146109b0578063a1c48cc4146109d1578063a93e999d146109ec578063bb3fac1414610a5e578063bf04a10d14610a7f578063c239c78914610a94578063eae2001114610b3b578063f16bc89c14610bd7578063f66b0d2614610bfb575b600080fd5b34801561018557600080fd5b50610194600435602435610c10565b604051808060200180602001858152602001848152602001838103835287818151815260200191508051906020019080838360005b838110156101e15781810151838201526020016101c9565b50505050905090810190601f16801561020e5780820380516001836020036101000a031916815260200191505b50838103825286518152865160209182019188019080838360005b83811015610241578181015183820152602001610229565b50505050905090810190601f16801561026e5780820380516001836020036101000a031916815260200191505b50965050505050505060405180910390f35b34801561028c57600080fd5b5060408051602060046024803582810135601f810185900485028601850190965285855261032595833595369560449491939091019190819084018382808284375050604080516020601f89358b018035918201839004830284018301909452808352979a999881019791965091820194509250829150840183828082843750949750508435955050506020909201359150610f9e9050565b60408051918252519081900360200190f35b34801561034357600080fd5b5061032561117e565b34801561035857600080fd5b5061036460043561119b565b6040518080602001806020018060200186815260200185600160a060020a0316600160a060020a03168152602001848103845289818151815260200191508051906020019080838360005b838110156103c75781810151838201526020016103af565b50505050905090810190601f1680156103f45780820380516001836020036101000a031916815260200191505b5084810383528851815288516020918201918a019080838360005b8381101561042757818101518382015260200161040f565b50505050905090810190601f1680156104545780820380516001836020036101000a031916815260200191505b50848103825287518152875160209182019189019080838360005b8381101561048757818101518382015260200161046f565b50505050905090810190601f1680156104b45780820380516001836020036101000a031916815260200191505b509850505050505050505060405180910390f35b3480156104d457600080fd5b50610325600160a060020a036004351661147b565b3480156104f557600080fd5b5061050160043561148d565b604051808060200180602001838103835285818151815260200191508051906020019080838360005b8381101561054257818101518382015260200161052a565b50505050905090810190601f16801561056f5780820380516001836020036101000a031916815260200191505b50838103825284518152845160209182019186019080838360005b838110156105a257818101518382015260200161058a565b50505050905090810190601f1680156105cf5780820380516001836020036101000a031916815260200191505b5094505050505060405180910390f35b3480156105eb57600080fd5b506040805160206004803580820135601f810184900484028501840190955284845261032594369492936024939284019190819084018382808284375050604080516020601f89358b018035918201839004830284018301909452808352979a99988101979196509182019450925082915084018382808284375094975061164e9650505050505050565b34801561068257600080fd5b506040805160206004803580820135601f810184900484028501840190955284845261074b94369492936024939284019190819084018382808284375050604080516020601f89358b018035918201839004830284018301909452808352979a99988101979196509182019450925082915084018382808284375050604080516020601f89358b018035918201839004830284018301909452808352979a99988101979196509182019450925082915084018382808284375094975061188f9650505050505050565b604080519115158252519081900360200190f35b34801561076b57600080fd5b50610325600435611a73565b34801561078357600080fd5b50610325611aa8565b34801561079857600080fd5b50610325600435611abe565b3480156107b057600080fd5b50610364600160a060020a0360043516611af2565b3480156107d157600080fd5b506040805160206004803580820135601f810184900484028501840190955284845261074b94369492936024939284019190819084018382808284375094975050508335600160a060020a0316945050506020909101359050611be1565b34801561083b57600080fd5b50610364600435611cc3565b34801561085357600080fd5b5061085f600435611dc7565b604051808060200180602001848152602001838103835286818151815260200191508051906020019080838360005b838110156108a657818101518382015260200161088e565b50505050905090810190601f1680156108d35780820380516001836020036101000a031916815260200191505b50838103825285518152855160209182019187019080838360005b838110156109065781810151838201526020016108ee565b50505050905090810190601f1680156109335780820380516001836020036101000a031916815260200191505b509550505050505060405180910390f35b34801561095057600080fd5b50610194600435602435611de3565b34801561096b57600080fd5b5061074b600435611fa1565b34801561098357600080fd5b50610325612306565b34801561099857600080fd5b50610194600160a060020a0360043516602435612332565b3480156109bc57600080fd5b5061074b600160a060020a036004351661249a565b3480156109dd57600080fd5b5061074b600435602435612525565b3480156109f857600080fd5b50610a046004356128a7565b604051808060200184815260200183600160a060020a0316600160a060020a0316815260200182810382528581815181526020019150805190602001908083836000838110156105a257818101518382015260200161058a565b348015610a6a57600080fd5b50610a04600160a060020a03600435166129ff565b348015610a8b57600080fd5b50610325612afa565b348015610aa057600080fd5b50604080516020600460443581810135601f810184900484028501840190955284845261074b94823594602480359536959460649492019190819084018382808284375050604080516020601f89358b018035918201839004830284018301909452808352979a999881019791965091820194509250829150840183828082843750949750508435955050506020909201359150612b999050565b348015610b4757600080fd5b5060408051602060046024803582810135601f810185900485028601850190965285855261074b95833595369560449491939091019190819084018382808284375050604080516020601f89358b018035918201839004830284018301909452808352979a999881019791965091820194509250829150840183828082843750949750612efa9650505050505050565b348015610be357600080fd5b5061085f600160a060020a036004351660243561306d565b348015610c0757600080fd5b50610325613089565b6040805160d060020a657075626c69630281526006818101529051908190036026019020546060908190600090819086108015610c9057506040805160d060020a657075626c69630281526006818101529051908190036026019020805487908110610c7857fe5b90600052602060002090600602016003018054905085105b1515610ce6576040805160e560020a62461bcd02815260206004820152601c60248201527f50524f4455435420494e44455820444f4553204e4f5420455849535400000000604482015290519081900360640190fd5b6040805160d060020a657075626c69630281526006818101529051908190036026019020805487908110610d1657fe5b906000526020600020906006020160030185815481101515610d3457fe5b600091825260209091206040805160d060020a657075626c69630281526006818101529051908190036026019020805460049093029091019188908110610d7757fe5b906000526020600020906006020160030186815481101515610d9557fe5b90600052602060002090600402016001016006604051808060d060020a657075626c6963028152506006019050908152602001604051809103902088815481101515610ddd57fe5b906000526020600020906006020160030187815481101515610dfb57fe5b60009182526020909120600260049092020101546040805160d060020a657075626c6963028152600681810152905190819003602601902080548a908110610e3f57fe5b906000526020600020906006020160030188815481101515610e5d57fe5b600091825260209182902060036004909202010154845460408051601f600260001961010060018716150201909416939093049283018590048502810185019091528181529192869190830182828015610ef85780601f10610ecd57610100808354040283529160200191610ef8565b820191906000526020600020905b815481529060010190602001808311610edb57829003601f168201915b5050865460408051602060026001851615610100026000190190941693909304601f810184900484028201840190925281815295995088945092508401905082828015610f865780601f10610f5b57610100808354040283529160200191610f86565b820191906000526020600020905b815481529060010190602001808311610f6957829003601f168201915b50505050509250935093509350935092959194509250565b336000908152600760205260408120805482919088908110610fbc57fe5b60009182526020808320604080516080810182528b81528084018b90529081018990526060810188905260069390930201600301805460018101808355918552938290208351805192956004029091019261101c928492909101906139c1565b50602082810151805161103592600185019201906139c1565b50604082810151600283015560609092015160039091015533600090815260076020522080549091508890811061106857fe5b90600052602060002090600602016004015490506006604051808060d060020a657075626c69630281525060060190509081526020016040518091039020818154811015156110b357fe5b60009182526020808320604080516080810182528b81528084018b905290810189905260608101889052600693909302016003018054600181018083559185529382902083518051929560040290910192611113928492909101906139c1565b50602082810151805161112c92600185019201906139c1565b50604082810151600283015560609092015160039091015533600090815260076020522080549091508890811061115f57fe5b6000918252602090912060036006909202010154979650505050505050565b6004546000908110156111945750600454611198565b5060005b90565b606080606060008060048054905086101515611201576040805160e560020a62461bcd02815260206004820152600d60248201527f496e76616c696420696e64657800000000000000000000000000000000000000604482015290519081900360640190fd5b600480548790811061120f57fe5b906000526020600020906007020160000160048781548110151561122f57fe5b906000526020600020906007020160010160048881548110151561124f57fe5b906000526020600020906007020160020160048981548110151561126f57fe5b600091825260209091206003600790920201015460ff16600181111561129157fe5b600480548b90811061129f57fe5b600091825260209182902060079190910201600301548554604080516002610100600185161581026000190190941604601f810186900486028201860190925281815291909204600160a060020a031692909187918301828280156113455780601f1061131a57610100808354040283529160200191611345565b820191906000526020600020905b81548152906001019060200180831161132857829003601f168201915b5050875460408051602060026001851615610100026000190190941693909304601f8101849004840282018401909252818152959a50899450925084019050828280156113d35780601f106113a8576101008083540402835291602001916113d3565b820191906000526020600020905b8154815290600101906020018083116113b657829003601f168201915b5050865460408051602060026001851615610100026000190190941693909304601f8101849004840282018401909252818152959950889450925084019050828280156114615780601f1061143657610100808354040283529160200191611461565b820191906000526020600020905b81548152906001019060200180831161144457829003601f168201915b505050505092509450945094509450945091939590929450565b60086020526000908152604090205481565b6040805160d060020a657075626c6963028152600681810152905190819003602601902080546060918291849081106114c257fe5b90600052602060002090600602016000016006604051808060d060020a657075626c696302815250600601905090815260200160405180910390208481548110151561150a57fe5b9060005260206000209060060201600101818054600181600116156101000203166002900480601f0160208091040260200160405190810160405280929190818152602001828054600181600116156101000203166002900480156115b05780601f10611585576101008083540402835291602001916115b0565b820191906000526020600020905b81548152906001019060200180831161159357829003601f168201915b5050845460408051602060026001851615610100026000190190941693909304601f81018490048402820184019092528181529597508694509250840190508282801561163e5780601f106116135761010080835404028352916020019161163e565b820191906000526020600020905b81548152906001019060200180831161162157829003601f168201915b5050505050905091509150915091565b33600090815260086020908152604082208054600101905583518291829161167b918391908801906139c1565b50835161169190600184019060208701906139c1565b5060408051602081019091528060019052336000908152600584016020526040902081518154829060ff1916600183818111156116ca57fe5b0217905550506040805160d060020a657075626c696302815260068181018190528251918290036026019091205460048601819055336000908152600760209081529381208054600181810180845592845295909220885493975090955087949190930290920191611752918391859160026101009282161592909202600019011604613a3f565b506001820181600101908054600181600116156101000203166002900461177a929190613a3f565b5060028201548160020155600382018160030190805461179b929190613ab4565b50600491820154910155506040805160d060020a657075626c69630281526006818101819052915190819003602601902080546001818101808455600093845260209093208654939487949302019161180c9183918591600261010091831615919091026000190190911604613a3f565b5060018201816001019080546001816001161561010002031660029004611834929190613a3f565b50600282015481600201556003820181600301908054611855929190613ab4565b50600491820154910155506040805160d060020a657075626c69630281526006818101529051908190036026019020549250505092915050565b3360009081526003602081905260408220015460a860020a900460ff1615611901576040805160e560020a62461bcd02815260206004820152601560248201527f5245515545535420495320494e2050524f434553530000000000000000000000604482015290519081900360640190fd5b60408051610120810182528581526020810185905290810183905260608101600081523360208201526001604082015260045460608201526080016119446130b1565b815260046020918201523360009081526003825260409020825180519192611971928492909101906139c1565b50602082810151805161198a92600185019201906139c1565b50604082015180516119a69160028401916020909101906139c1565b50606082015160038201805460ff1916600183818111156119c357fe5b0217905550608082015160038201805460a085015174ffffffffffffffffffffffffffffffffffffffff0019909116610100600160a060020a0390941684021760a860020a60ff02191660a860020a9115159190910217905560c0830151600483015560e0830151600580840191909155908301516006830180549192909160ff1916906001908490811115611a5557fe5b0217905550905050611a688484846130b7565b506001949350505050565b336000908152600760205260408120805483908110611a8e57fe5b600091825260209091206003600690920201015492915050565b6005546000908110156111945750600554611198565b6040805160d060020a657075626c6963028152600681810152905190819003602601902080546000919083908110611a8e57fe5b600160a060020a0381166000908152600360208190526040822001546060918291829190819060a860020a900460ff161515611b2d57600080fd5b600160a060020a038616600090815260036020819052604090912090810154600180830191600284019160ff90911690811115611b6657fe5b600160a060020a038a811660009081526003602081815260409283902090910154875483516002610100600184161581026000190190931604601f81018590048502820185019095528481529104909316929187918301828280156113455780601f1061131a57610100808354040283529160200191611345565b60008054600160a060020a03163314611bf957600080fd5b6001826005811115611c0757fe5b6005811115611c1257fe5b1480611c3457506002826005811115611c2757fe5b6005811115611c3257fe5b145b1515611cb0576040805160e560020a62461bcd02815260206004820152602760248201527f544845205350454349464945442041444d494e20524f4c4520444f4553204e4f60448201527f5420455849535400000000000000000000000000000000000000000000000000606482015290519081900360840190fd5b611cbb848484613237565b949350505050565b606080606060008060058054905086101515611d29576040805160e560020a62461bcd02815260206004820152600d60248201527f496e76616c696420696e64657800000000000000000000000000000000000000604482015290519081900360640190fd5b6005805487908110611d3757fe5b9060005260206000209060070201600001600587815481101515611d5757fe5b9060005260206000209060070201600101600588815481101515611d7757fe5b9060005260206000209060070201600201600589815481101515611d9757fe5b600091825260209091206003600790920201015460ff166001811115611db957fe5b600580548b90811061129f57fe5b6060806000611dd63385613437565b9250925092509193909250565b336000908152600760205260408120546060918291819086108015611e365750336000908152600760205260409020805487908110611e1e57fe5b90600052602060002090600602016003018054905085105b1515611e8c576040805160e560020a62461bcd02815260206004820152601c60248201527f50524f4455435420494e44455820444f4553204e4f5420455849535400000000604482015290519081900360640190fd5b336000908152600760205260409020805487908110611ea757fe5b906000526020600020906006020160030185815481101515611ec557fe5b600091825260208083203384526007909152604090922080546004909202909201919088908110611ef257fe5b906000526020600020906006020160030186815481101515611f1057fe5b90600052602060002090600402016001016007600033600160a060020a0316600160a060020a0316815260200190815260200160002088815481101515611f5357fe5b906000526020600020906006020160030187815481101515611f7157fe5b60009182526020808320600260049093020191909101543383526007909152604090912080548a908110610e3f57fe5b336000908152600760205260408120548190819081908510611fc257600080fd5b336000908152600760205260409020805486908110611fdd57fe5b600091825260208083206004600690930201919091015433835260079091526040909120805491945090600019810190811061201557fe5b906000526020600020906006020160040154915060016006604051808060d060020a657075626c69630281525060060190509081526020016040518091039020805490500390508181141561209c573360009081526007602052604090208054849190600019810190811061208657fe5b9060005260206000209060060201600401819055505b6040805160d060020a657075626c6963028082526006828101819052835192839003602690810184209284528382019190915292519182900390920190205481546000199091019081106120ec57fe5b90600052602060002090600602016006604051808060d060020a657075626c696302815250600601905090815260200160405180910390208481548110151561213157fe5b906000526020600020906006020160008201816000019080546001816001161561010002031660029004612166929190613a3f565b506001820181600101908054600181600116156101000203166002900461218e929190613a3f565b506002820154816002015560038201816003019080546121af929190613ab4565b50600491820154910155336000908152600760205260409020805460001981019081106121d857fe5b60009182526020808320338452600790915260409092208054600690920290920191908790811061220557fe5b90600052602060002090600602016000820181600001908054600181600116156101000203166002900461223a929190613a3f565b5060018201816001019080546001816001161561010002031660029004612262929190613a3f565b50600282015481600201556003820181600301908054612283929190613ab4565b506004918201549101553360009081526007602052604090208054906122ad906000198301613b67565b506040805160d060020a657075626c696302815260068181015290519081900360260190208054906122e3906000198301613b67565b505033600090815260086020526040902080546000190190555060019392505050565b60008054600160a060020a0316331461231e57600080fd5b600254600010156111945750600254611198565b60076020528160005260406000208181548110151561234d57fe5b60009182526020918290206006919091020180546040805160026001841615610100026000190190931692909204601f8101859004850283018501909152808252919450925083918301828280156123e65780601f106123bb576101008083540402835291602001916123e6565b820191906000526020600020905b8154815290600101906020018083116123c957829003601f168201915b505050505090806001018054600181600116156101000203166002900480601f0160208091040260200160405190810160405280929190818152602001828054600181600116156101000203166002900480156124845780601f1061245957610100808354040283529160200191612484565b820191906000526020600020905b81548152906001019060200180831161246757829003601f168201915b5050505050908060020154908060040154905084565b600160a060020a03811660009081526003602081905260408220015460a860020a900460ff1615156001146124ce57600080fd5b600160a060020a0382166000908152600360208190526040909120808201805460ff1990811660011790915560069091018054909116909117905561251282613618565b5061251c82613821565b50600192915050565b336000908152600760205260408120548190819085108015612575575033600090815260076020526040902080548690811061255d57fe5b90600052602060002090600602016003018054905084105b151561258057600080fd5b33600090815260076020526040902080548690811061259b57fe5b600091825260208083206003600690930201919091015433835260079091526040909120805491935090869081106125cf57fe5b9060005260206000209060060201600301600183038154811015156125f057fe5b60009182526020808320338452600790915260409092208054600490920290920191908790811061261d57fe5b90600052602060002090600602016003018581548110151561263b57fe5b906000526020600020906004020160008201816000019080546001816001161561010002031660029004612670929190613a3f565b5060018201816001019080546001816001161561010002031660029004612698929190613a3f565b50600282810154908201556003918201549101553360009081526007602052604090208054869081106126c757fe5b90600052602060002090600602016003018054809190600190036126eb9190613b98565b5033600090815260076020526040902080548690811061270757fe5b90600052602060002090600602016004015490506006604051808060d060020a657075626c696302815250600601905090815260200160405180910390208181548110151561275257fe5b90600052602060002090600602016003016001830381548110151561277357fe5b90600052602060002090600402016006604051808060d060020a657075626c69630281525060060190509081526020016040518091039020828154811015156127b857fe5b9060005260206000209060060201600301858154811015156127d657fe5b90600052602060002090600402016000820181600001908054600181600116156101000203166002900461280b929190613a3f565b5060018201816001019080546001816001161561010002031660029004612833929190613a3f565b50600282810154908201556003918201549101556040805160d060020a657075626c6963028152600681810152905190819003602601902080548290811061287757fe5b906000526020600020906006020160030180548091906001900361289b9190613b98565b50600195945050505050565b60008054606091908190600160a060020a031633146128c557600080fd5b60025484106128d357600080fd5b60028054859081106128e157fe5b906000526020600020906002020160000160028581548110151561290157fe5b600091825260209091206001600290920201015460ff16600581111561292357fe5b600280548790811061293157fe5b906000526020600020906002020160010160019054906101000a9004600160a060020a0316828054600181600116156101000203166002900480601f0160208091040260200160405190810160405280929190818152602001828054600181600116156101000203166002900480156129eb5780601f106129c0576101008083540402835291602001916129eb565b820191906000526020600020905b8154815290600101906020018083116129ce57829003601f168201915b505050505092509250925092509193909250565b60008054606091908190600160a060020a03163314612a1d57600080fd5b600160a060020a0384166000908152600160208190526040909120015460a860020a900460ff161515612a4f57600080fd5b600160a060020a03841660009081526001602081905260409091209081015460ff166005811115612a7c57fe5b600160a060020a038681166000908152600160208181526040928390208201548654845160026101009583161586026000190190921691909104601f810184900484028201840190955284815292900490931692909185918301828280156129eb5780601f106129c0576101008083540402835291602001916129eb565b3360009081526003602081905260408220015460a860020a900460ff16151560011415612b49573360009081526003602052604090206006015460ff166005811115612b4257fe5b9050611198565b33600090815260016020819052604090912081015460a860020a900460ff1615151415612b9257336000908152600160208190526040909120015460ff166005811115612b4257fe5b6005612b42565b3360009081526007602052604081208054829187918a908110612bb857fe5b906000526020600020906006020160030188815481101515612bd657fe5b90600052602060002090600402016000019080519060200190612bfa9291906139c1565b5033600090815260076020526040902080548691908a908110612c1957fe5b906000526020600020906006020160030188815481101515612c3757fe5b90600052602060002090600402016001019080519060200190612c5b9291906139c1565b5033600090815260076020526040902080548591908a908110612c7a57fe5b906000526020600020906006020160030188815481101515612c9857fe5b600091825260208083206002600490930201919091019290925533815260079091526040902080548491908a908110612ccd57fe5b906000526020600020906006020160030188815481101515612ceb57fe5b6000918252602080832060036004909302019190910192909255338152600790915260409020805489908110612d1d57fe5b9060005260206000209060060201600401549050856006604051808060d060020a657075626c6963028152506006019050908152602001604051809103902082815481101515612d6957fe5b906000526020600020906006020160030188815481101515612d8757fe5b90600052602060002090600402016000019080519060200190612dab9291906139c1565b506040805160d060020a657075626c69630281526006818101529051908190036026019020805486919083908110612ddf57fe5b906000526020600020906006020160030188815481101515612dfd57fe5b90600052602060002090600402016001019080519060200190612e219291906139c1565b506040805160d060020a657075626c69630281526006818101529051908190036026019020805485919083908110612e5557fe5b906000526020600020906006020160030188815481101515612e7357fe5b60009182526020909120600260049092020101556040805160d060020a657075626c69630281526006818101529051908190036026019020805484919083908110612eba57fe5b906000526020600020906006020160030188815481101515612ed857fe5b6000918252602090912060036004909202010155506001979650505050505050565b33600090815260076020526040812080548291859187908110612f1957fe5b90600052602060002090600602016000019080519060200190612f3d9291906139c1565b50336000908152600760205260409020805484919087908110612f5c57fe5b90600052602060002090600602016001019080519060200190612f809291906139c1565b50336000908152600760205260409020805486908110612f9c57fe5b9060005260206000209060060201600401549050836006604051808060d060020a657075626c6963028152506006019050908152602001604051809103902082815481101515612fe857fe5b9060005260206000209060060201600001908051906020019061300c9291906139c1565b506040805160d060020a657075626c6963028152600681810152905190819003602601902080548491908390811061304057fe5b906000526020600020906006020160010190805190602001906130649291906139c1565b50509392505050565b606080600061307c8585613437565b9250925092509250925092565b6040805160d060020a657075626c696302815260068181015290519081900360260190205490565b60001990565b60006001600461012060405190810160405280878152602001868152602001858152602001600060018111156130e957fe5b815233602082015260016040820152600454606082015260800161310b6130b1565b8152600460209182015282546001810180855560009485529382902083518051600790930290910192613143928492909101906139c1565b50602082810151805161315c92600185019201906139c1565b50604082015180516131789160028401916020909101906139c1565b50606082015160038201805460ff19166001838181111561319557fe5b0217905550608082015160038201805460a085015174ffffffffffffffffffffffffffffffffffffffff0019909116610100600160a060020a0390941684021760a860020a60ff02191660a860020a9115159190910217905560c0830151600483015560e0830151600580840191909155908301516006830180549192909160ff191690600190849081111561322757fe5b0217905550505050509392505050565b60008054600160a060020a0316331461324f57600080fd5b60806040519081016040528085815260200183600581111561326d57fe5b600581111561327857fe5b8152600160a060020a038516602080830182905260016040938401819052600092835281529190208251805191926132b5928492909101906139c1565b50602082015160018083018054909160ff19909116908360058111156132d757fe5b021790555060408281015160019092018054606090940151151560a860020a0260a860020a60ff0219600160a060020a039094166101000274ffffffffffffffffffffffffffffffffffffffff001990951694909417929092169290921790558051608081019091528481526002906020810184600581111561335657fe5b600581111561336157fe5b8152600160a060020a038616602080830191909152600160409092018290528354918201808555600094855293819020835180516002909402909101926133ab92849201906139c1565b50602082015160018083018054909160ff19909116908360058111156133cd57fe5b0217905550604082015160019182018054606090940151151560a860020a0260a860020a60ff0219600160a060020a039093166101000274ffffffffffffffffffffffffffffffffffffffff00199095169490941791909116929092179091559150509392505050565b600160a060020a03821660009081526007602052604081208054606092839290918590811061346257fe5b60009182526020808320600160a060020a0389168452600790915260409092208054600690920290920191908690811061349857fe5b90600052602060002090600602016001016007600088600160a060020a0316600160a060020a03168152602001908152602001600020868154811015156134db57fe5b600091825260209182902060046006909202010154835460408051601f6002600019610100600187161502019094169390930492830185900485028101850190915281815291928591908301828280156135765780601f1061354b57610100808354040283529160200191613576565b820191906000526020600020905b81548152906001019060200180831161355957829003601f168201915b5050855460408051602060026001851615610100026000190190941693909304601f8101849004840282018401909252818152959850879450925084019050828280156136045780601f106135d957610100808354040283529160200191613604565b820191906000526020600020905b8154815290600101906020018083116135e757829003601f168201915b505050505091509250925092509250925092565b600160a060020a0381166000908152600360205260408120600401546000191261364157600080fd5b60048054600019810190811061365357fe5b906000526020600020906007020160046003600085600160a060020a0316600160a060020a031681526020019081526020016000206004015481548110151561369857fe5b9060005260206000209060070201600082018160000190805460018160011615610100020316600290046136cd929190613a3f565b50600182018160010190805460018160011615610100020316600290046136f5929190613a3f565b506002828101805461371a928481019291600019610100600183161502011604613a3f565b50600382810154908201805460ff9092169160ff19166001838181111561373d57fe5b021790555060038281018054918301805474ffffffffffffffffffffffffffffffffffffffff00191661010093849004600160a060020a031690930292909217808355905460a860020a60ff021990911660a860020a9182900460ff9081161515909202179091556004808401549083015560058084015481840155600680850154908401805491909316929160ff199091169060019084908111156137df57fe5b02179055509050506137ef6130b1565b600160a060020a038316600090815260036020526040902060049081019190915580549061251c906000198301613bc4565b60058054600160a060020a038316600090815260036020526040812080840183905560018084018086559483528154929493919260079092027f036b6384b5eca791c62761152d0c79bb0604c104a5fb6f4eb0703f3154bb3db0019161389f9183918591600261010091831615919091026000190190911604613a3f565b50600182018160010190805460018160011615610100020316600290046138c7929190613a3f565b50600282810180546138ec928481019291600019610100600183161502011604613a3f565b50600382810154908201805460ff9092169160ff19166001838181111561390f57fe5b021790555060038281018054918301805474ffffffffffffffffffffffffffffffffffffffff00191661010093849004600160a060020a031690930292909217808355905460a860020a60ff021990911660a860020a9182900460ff9081161515909202179091556004808401549083015560058084015481840155600680850154908401805491909316929160ff199091169060019084908111156139b157fe5b0217905550600195945050505050565b828054600181600116156101000203166002900490600052602060002090601f016020900481019282601f10613a0257805160ff1916838001178555613a2f565b82800160010185558215613a2f579182015b82811115613a2f578251825591602001919060010190613a14565b50613a3b929150613bf0565b5090565b828054600181600116156101000203166002900490600052602060002090601f016020900481019282601f10613a785780548555613a2f565b82800160010185558215613a2f57600052602060002091601f016020900482015b82811115613a2f578254825591600101919060010190613a99565b828054828255906000526020600020906004028101928215613b5b5760005260206000209160040282015b82811115613b5b57825483908390613b0d908290849060026000196101006001841615020190911604613a3f565b5060018201816001019080546001816001161561010002031660029004613b35929190613a3f565b506002820154816002015560038201548160030155505091600401919060040190613adf565b50613a3b929150613c0a565b815481835581811115613b9357600602816006028360005260206000209182019101613b939190613c49565b505050565b815481835581811115613b9357600402816004028360005260206000209182019101613b939190613c0a565b815481835581811115613b9357600702816007028360005260206000209182019101613b939190613c99565b61119891905b80821115613a3b5760008155600101613bf6565b61119891905b80821115613a3b576000613c248282613d13565b613c32600183016000613d13565b506000600282018190556003820155600401613c10565b61119891905b80821115613a3b576000613c638282613d13565b613c71600183016000613d13565b6002820160009055600382016000613c899190613d5a565b5060006004820155600601613c4f565b61119891905b80821115613a3b576000613cb38282613d13565b613cc1600183016000613d13565b613ccf600283016000613d13565b5060038101805475ffffffffffffffffffffffffffffffffffffffffffff19169055600060048201819055600582015560068101805460ff19169055600701613c9f565b50805460018160011615610100020316600290046000825580601f10613d395750613d57565b601f016020900490600052602060002090810190613d579190613bf0565b50565b5080546000825560040290600052602060002090810190613d579190613c0a5600a165627a7a7230582089afc8273657ee63dce531b9f0f9edbbf4db80c3cc8a324150eb597d1860c63c0029",
  "source": "pragma solidity ^0.4.18;\nimport './UserManager.sol';\nimport \"./Ownerble.sol\";\n\ncontract MarketPlace is Ownerble, UserManager {\n    \n   \n    struct Product {\n       // uint id;\n        string name;\n        string description;\n        uint price;\n        uint quantity;\n    }\n    \n   \n    enum Role {\n        Admin, SuperAdmin\n    }\n\n    struct StoreUser {\n        Role role;\n    }\n    struct Store {\n        string name;\n        string description;\n        uint balance;\n        Product[] products;\n        uint publicIndex;\n        mapping(address => StoreUser) users;\n    }\n    \n  \n\n    \n    mapping(string =>  Store[]) private publicStore; \n    \n    mapping(address => Store[]) public userStores;\n    mapping(address => uint) public userStoresCount;\n\n     \n    constructor() public {\n    \n        \n    }\n    \n    function getStoreProductsCount(uint storeIndex) public constant returns(uint) {\n          return userStores[msg.sender][storeIndex].products.length;\n    }\n    \n      function getStoreProductsCountPublic(uint storeIndex) public constant returns(uint) {\n          return publicStore[\"public\"][storeIndex].products.length;\n    }\n    \n    \n     function getUserStoreProduct(uint storeIndex, uint productIndex) public constant returns(string, string, uint, uint) {\n          \n          require(storeIndex < userStores[msg.sender].length && productIndex < userStores[msg.sender][storeIndex].products.length, \"PRODUCT INDEX DOES NOT EXIST\");\n            \n          return (\n                 userStores[msg.sender][storeIndex].products[productIndex].name,\n                 userStores[msg.sender][storeIndex].products[productIndex].description,\n                 userStores[msg.sender][storeIndex].products[productIndex].price,\n                   userStores[msg.sender][storeIndex].products[productIndex].quantity\n              );\n        }\n        \n        //get product from public storeIndex  function getUserStoreProduct(uint storeIndex, uint productIndex) public constant returns(string, string, uint, uint) {\n          \n        function getStoreProductPublic(uint storeIndex, uint productIndex) public constant returns(string, string, uint, uint) {\n          \n          require(storeIndex < publicStore[\"public\"].length && productIndex < publicStore[\"public\"][storeIndex].products.length, \"PRODUCT INDEX DOES NOT EXIST\");\n            \n          return (\n                 publicStore[\"public\"][storeIndex].products[productIndex].name,\n                 publicStore[\"public\"][storeIndex].products[productIndex].description,\n                 publicStore[\"public\"][storeIndex].products[productIndex].price,\n                 publicStore[\"public\"][storeIndex].products[productIndex].quantity\n              );\n        }\n    \n  \n    \n    function editStore(uint storeIndex, string storeName, string description) public returns(bool) {\n           userStores[msg.sender][storeIndex].name = storeName;\n           userStores[msg.sender][storeIndex].description = description;\n           //get store publicIndex\n           uint publicIndex = userStores[msg.sender][storeIndex].publicIndex;\n           //update public store\n           publicStore[\"public\"][publicIndex].name = storeName;\n           publicStore[\"public\"][publicIndex].description = description;\n    }\n    \n    function createStore(string storeName, string description) public  returns(uint){\n          Store storage store;\n          //Store storage store =   userStores[msg.sender][0];\n          userStoresCount[msg.sender]++;\n          store.name=storeName;\n          store.description =description;\n          store.users[msg.sender] = StoreUser(Role.SuperAdmin);\n          \n          //add to public store publicStoreList\n          //GET THE INDEX WHERE THE STORE WILL BE STORED IN THE PUBLIC STORE publicStoreList\n          uint publicIndex = publicStore[\"public\"].length;\n          store.publicIndex = publicIndex;\n          \n          userStores[msg.sender].push(store);\n          publicStore[\"public\"].push(store);\n          return  publicStore[\"public\"].length;\n    }\n    \n  \n    \n    function deleteStore(uint storeIndex) public returns(bool) {\n          require(storeIndex < userStores[msg.sender].length);\n            //GET THE PUBLIC INDEX OF THE ITEM TO DELTE TO UPDATE IN THE PUBLIC STORE LIST\n          uint publicIndex_item_to_delete = userStores[msg.sender][storeIndex].publicIndex;\n          uint publicIndex_item_to_update = userStores[msg.sender][userStores[msg.sender].length - 1].publicIndex;\n         \n         uint index_of_last_public_item =  publicStore[\"public\"].length - 1;\n         \n         if(index_of_last_public_item == publicIndex_item_to_update) {\n             userStores[msg.sender][userStores[msg.sender].length - 1].publicIndex = publicIndex_item_to_delete;\n         }\n         \n          //COPY THE STORE IN THE LAST INDEX INTO THE DELETE INDEX (REPLACE) - public stores\n          publicStore[\"public\"][publicIndex_item_to_delete] = publicStore[\"public\"][publicStore[\"public\"].length - 1];\n          \n          //COPY THE STORE IN THE LAST INDEX INTO THE DELETE INDEX (REPLACE)\n          userStores[msg.sender][storeIndex] = userStores[msg.sender][userStores[msg.sender].length - 1];\n\n          \n          //REDUCE STORE LENGTH BY 1\n          userStores[msg.sender].length --;\n          publicStore[\"public\"].length --;\n          userStoresCount[msg.sender]--;\n          \n          return true;\n    }\n    \n    \n    function getOwnStore(uint storeIndex) public view returns(string, string, uint){\n        return getStore(msg.sender, storeIndex);\n    }\n    \n    function getPublicStore(uint storeIndex) public view returns(string, string) {\n             return (\n            publicStore[\"public\"][storeIndex].name,\n            publicStore[\"public\"][storeIndex].description\n        );\n    }\n    \n     function getPublicStoreSize() public view returns(uint) {\n             return (\n            publicStore[\"public\"].length\n        );\n    }\n    \n    \n     function getUserStore(address user, uint storeIndex) public view returns(string, string, uint){\n        return getStore(user, storeIndex);\n    }\n    \n    function getStore(address user, uint storeIndex) private view returns (string, string, uint) {\n          return (\n            userStores[user][storeIndex].name,\n            userStores[user][storeIndex].description,\n             userStores[user][storeIndex].publicIndex\n            \n        );\n    }\n    function addProduct(uint storeIndex, string name, string description, uint price, uint quantity) public  returns(uint){\n          \n          userStores[msg.sender][storeIndex].products.push(Product(name, description, price, quantity));\n          //get public index of product\n          uint publicIndex = userStores[msg.sender][storeIndex].publicIndex;\n          //add product to public store\n          publicStore[\"public\"][publicIndex].products.push(Product(name, description, price, quantity));\n          \n          return userStores[msg.sender][storeIndex].products.length;\n    }\n    \n    function editProduct(uint storeIndex, uint productIndex, string productName, string description, uint price, uint quantity) public  returns(bool) {\n         userStores[msg.sender][storeIndex].products[productIndex].name = productName;\n         userStores[msg.sender][storeIndex].products[productIndex].description = description;\n         userStores[msg.sender][storeIndex].products[productIndex].price = price;\n         userStores[msg.sender][storeIndex].products[productIndex].quantity = quantity; \n         \n         //get public index of product\n         uint publicIndex = userStores[msg.sender][storeIndex].publicIndex;\n         \n         //\n         publicStore[\"public\"][publicIndex].products[productIndex].name = productName;\n         publicStore[\"public\"][publicIndex].products[productIndex].description = description;\n         publicStore[\"public\"][publicIndex].products[productIndex].price = price;\n         publicStore[\"public\"][publicIndex].products[productIndex].quantity = quantity; \n         \n         return true;\n    }\n    \n    function deleteProduct(uint storeIndex, uint productIndex_to_delete) public returns(bool) {\n           require(storeIndex < userStores[msg.sender].length && productIndex_to_delete < userStores[msg.sender][storeIndex].products.length);\n           \n           uint productsLength = userStores[msg.sender][storeIndex].products.length;\n           //copy the last product to the index of the product to remove\n           userStores[msg.sender][storeIndex].products[productIndex_to_delete] = userStores[msg.sender][storeIndex].products[productsLength - 1];\n           userStores[msg.sender][storeIndex].products.length --;\n           \n          //get public index of product\n          uint publicIndex = userStores[msg.sender][storeIndex].publicIndex;\n          publicStore[\"public\"][publicIndex].products[productIndex_to_delete] = publicStore[\"public\"][publicIndex].products[productsLength - 1];\n          publicStore[\"public\"][publicIndex].products.length --;\n          \n          return true;\n    } \n    \n   \n    \n}\n",
  "sourcePath": "/Users/yusufkelo/Documents/DEVELOPER/ETHEREAUM/blockchain-market/market-place/contracts/MarketPlace.sol",
  "compiler": {
    "name": "solc",
    "version": "0.4.24+commit.e67f0147.Emscripten.clang"
  },
  "schemaVersion": "2.0.0",
  "updatedAt": "2018-07-29T20:14:34.922Z"
}