{
  "contractName": "MarketPlace",
  "abi": [
    {
      "constant": true,
      "inputs": [],
      "name": "getPendingVendors",
      "outputs": [
        {
          "name": "",
          "type": "uint256"
        }
      ],
      "payable": false,
      "stateMutability": "view",
      "type": "function"
    },
    {
      "constant": true,
      "inputs": [
        {
          "name": "index",
          "type": "uint256"
        }
      ],
      "name": "getPendingVendorByIndex",
      "outputs": [
        {
          "name": "",
          "type": "string"
        },
        {
          "name": "",
          "type": "string"
        },
        {
          "name": "",
          "type": "string"
        },
        {
          "name": "",
          "type": "uint256"
        },
        {
          "name": "",
          "type": "address"
        }
      ],
      "payable": false,
      "stateMutability": "view",
      "type": "function"
    },
    {
      "constant": true,
      "inputs": [
        {
          "name": "",
          "type": "address"
        }
      ],
      "name": "userStoresCount",
      "outputs": [
        {
          "name": "",
          "type": "uint256"
        }
      ],
      "payable": false,
      "stateMutability": "view",
      "type": "function"
    },
    {
      "constant": false,
      "inputs": [
        {
          "name": "_name",
          "type": "string"
        },
        {
          "name": "_email",
          "type": "string"
        },
        {
          "name": "_phone",
          "type": "string"
        }
      ],
      "name": "requestVendorAccount",
      "outputs": [
        {
          "name": "",
          "type": "bool"
        }
      ],
      "payable": false,
      "stateMutability": "nonpayable",
      "type": "function"
    },
    {
      "constant": true,
      "inputs": [],
      "name": "getPendingVendorsCount",
      "outputs": [
        {
          "name": "",
          "type": "uint256"
        }
      ],
      "payable": false,
      "stateMutability": "view",
      "type": "function"
    },
    {
      "constant": true,
      "inputs": [],
      "name": "getApprovedVendorsCount",
      "outputs": [
        {
          "name": "",
          "type": "uint256"
        }
      ],
      "payable": false,
      "stateMutability": "view",
      "type": "function"
    },
    {
      "constant": true,
      "inputs": [
        {
          "name": "account",
          "type": "address"
        }
      ],
      "name": "getVendorByAddress",
      "outputs": [
        {
          "name": "",
          "type": "string"
        },
        {
          "name": "",
          "type": "string"
        },
        {
          "name": "",
          "type": "string"
        },
        {
          "name": "",
          "type": "uint256"
        },
        {
          "name": "",
          "type": "address"
        }
      ],
      "payable": false,
      "stateMutability": "view",
      "type": "function"
    },
    {
      "constant": true,
      "inputs": [
        {
          "name": "index",
          "type": "uint256"
        }
      ],
      "name": "getApprovedVendorByIndex",
      "outputs": [
        {
          "name": "",
          "type": "string"
        },
        {
          "name": "",
          "type": "string"
        },
        {
          "name": "",
          "type": "string"
        },
        {
          "name": "",
          "type": "uint256"
        },
        {
          "name": "",
          "type": "address"
        }
      ],
      "payable": false,
      "stateMutability": "view",
      "type": "function"
    },
    {
      "constant": true,
      "inputs": [
        {
          "name": "",
          "type": "address"
        },
        {
          "name": "",
          "type": "uint256"
        }
      ],
      "name": "userStores",
      "outputs": [
        {
          "name": "name",
          "type": "string"
        },
        {
          "name": "description",
          "type": "string"
        },
        {
          "name": "balance",
          "type": "uint256"
        },
        {
          "name": "publicIndex",
          "type": "uint256"
        }
      ],
      "payable": false,
      "stateMutability": "view",
      "type": "function"
    },
    {
      "constant": false,
      "inputs": [
        {
          "name": "account",
          "type": "address"
        }
      ],
      "name": "approveVendorAccount",
      "outputs": [
        {
          "name": "",
          "type": "bool"
        }
      ],
      "payable": false,
      "stateMutability": "nonpayable",
      "type": "function"
    },
    {
      "constant": true,
      "inputs": [],
      "name": "getUserRole",
      "outputs": [
        {
          "name": "",
          "type": "uint256"
        }
      ],
      "payable": false,
      "stateMutability": "view",
      "type": "function"
    },
    {
      "constant": false,
      "inputs": [],
      "name": "createAdmin",
      "outputs": [],
      "payable": false,
      "stateMutability": "nonpayable",
      "type": "function"
    },
    {
      "inputs": [],
      "payable": false,
      "stateMutability": "nonpayable",
      "type": "constructor"
    },
    {
      "constant": true,
      "inputs": [
        {
          "name": "storeIndex",
          "type": "uint256"
        }
      ],
      "name": "getStoreProductsCount",
      "outputs": [
        {
          "name": "",
          "type": "uint256"
        }
      ],
      "payable": false,
      "stateMutability": "view",
      "type": "function"
    },
    {
      "constant": true,
      "inputs": [
        {
          "name": "storeIndex",
          "type": "uint256"
        }
      ],
      "name": "getStoreProductsCountPublic",
      "outputs": [
        {
          "name": "",
          "type": "uint256"
        }
      ],
      "payable": false,
      "stateMutability": "view",
      "type": "function"
    },
    {
      "constant": true,
      "inputs": [
        {
          "name": "storeIndex",
          "type": "uint256"
        },
        {
          "name": "productIndex",
          "type": "uint256"
        }
      ],
      "name": "getUserStoreProduct",
      "outputs": [
        {
          "name": "",
          "type": "string"
        },
        {
          "name": "",
          "type": "string"
        },
        {
          "name": "",
          "type": "uint256"
        },
        {
          "name": "",
          "type": "uint256"
        }
      ],
      "payable": false,
      "stateMutability": "view",
      "type": "function"
    },
    {
      "constant": true,
      "inputs": [
        {
          "name": "storeIndex",
          "type": "uint256"
        },
        {
          "name": "productIndex",
          "type": "uint256"
        }
      ],
      "name": "getStoreProductPublic",
      "outputs": [
        {
          "name": "",
          "type": "string"
        },
        {
          "name": "",
          "type": "string"
        },
        {
          "name": "",
          "type": "uint256"
        },
        {
          "name": "",
          "type": "uint256"
        }
      ],
      "payable": false,
      "stateMutability": "view",
      "type": "function"
    },
    {
      "constant": false,
      "inputs": [
        {
          "name": "storeIndex",
          "type": "uint256"
        },
        {
          "name": "storeName",
          "type": "string"
        },
        {
          "name": "description",
          "type": "string"
        }
      ],
      "name": "editStore",
      "outputs": [
        {
          "name": "",
          "type": "bool"
        }
      ],
      "payable": false,
      "stateMutability": "nonpayable",
      "type": "function"
    },
    {
      "constant": false,
      "inputs": [
        {
          "name": "storeName",
          "type": "string"
        },
        {
          "name": "description",
          "type": "string"
        }
      ],
      "name": "createStore",
      "outputs": [
        {
          "name": "",
          "type": "uint256"
        }
      ],
      "payable": false,
      "stateMutability": "nonpayable",
      "type": "function"
    },
    {
      "constant": false,
      "inputs": [
        {
          "name": "storeIndex",
          "type": "uint256"
        }
      ],
      "name": "deleteStore",
      "outputs": [
        {
          "name": "",
          "type": "bool"
        }
      ],
      "payable": false,
      "stateMutability": "nonpayable",
      "type": "function"
    },
    {
      "constant": true,
      "inputs": [
        {
          "name": "storeIndex",
          "type": "uint256"
        }
      ],
      "name": "getOwnStore",
      "outputs": [
        {
          "name": "",
          "type": "string"
        },
        {
          "name": "",
          "type": "string"
        },
        {
          "name": "",
          "type": "uint256"
        }
      ],
      "payable": false,
      "stateMutability": "view",
      "type": "function"
    },
    {
      "constant": true,
      "inputs": [
        {
          "name": "storeIndex",
          "type": "uint256"
        }
      ],
      "name": "getPublicStore",
      "outputs": [
        {
          "name": "",
          "type": "string"
        },
        {
          "name": "",
          "type": "string"
        }
      ],
      "payable": false,
      "stateMutability": "view",
      "type": "function"
    },
    {
      "constant": true,
      "inputs": [],
      "name": "getPublicStoreSize",
      "outputs": [
        {
          "name": "",
          "type": "uint256"
        }
      ],
      "payable": false,
      "stateMutability": "view",
      "type": "function"
    },
    {
      "constant": true,
      "inputs": [
        {
          "name": "user",
          "type": "address"
        },
        {
          "name": "storeIndex",
          "type": "uint256"
        }
      ],
      "name": "getUserStore",
      "outputs": [
        {
          "name": "",
          "type": "string"
        },
        {
          "name": "",
          "type": "string"
        },
        {
          "name": "",
          "type": "uint256"
        }
      ],
      "payable": false,
      "stateMutability": "view",
      "type": "function"
    },
    {
      "constant": false,
      "inputs": [
        {
          "name": "storeIndex",
          "type": "uint256"
        },
        {
          "name": "name",
          "type": "string"
        },
        {
          "name": "description",
          "type": "string"
        },
        {
          "name": "price",
          "type": "uint256"
        },
        {
          "name": "quantity",
          "type": "uint256"
        }
      ],
      "name": "addProduct",
      "outputs": [
        {
          "name": "",
          "type": "uint256"
        }
      ],
      "payable": false,
      "stateMutability": "nonpayable",
      "type": "function"
    },
    {
      "constant": false,
      "inputs": [
        {
          "name": "storeIndex",
          "type": "uint256"
        },
        {
          "name": "productIndex",
          "type": "uint256"
        },
        {
          "name": "productName",
          "type": "string"
        },
        {
          "name": "description",
          "type": "string"
        },
        {
          "name": "price",
          "type": "uint256"
        },
        {
          "name": "quantity",
          "type": "uint256"
        }
      ],
      "name": "editProduct",
      "outputs": [
        {
          "name": "",
          "type": "bool"
        }
      ],
      "payable": false,
      "stateMutability": "nonpayable",
      "type": "function"
    },
    {
      "constant": false,
      "inputs": [
        {
          "name": "storeIndex",
          "type": "uint256"
        },
        {
          "name": "productIndex_to_delete",
          "type": "uint256"
        }
      ],
      "name": "deleteProduct",
      "outputs": [
        {
          "name": "",
          "type": "bool"
        }
      ],
      "payable": false,
      "stateMutability": "nonpayable",
      "type": "function"
    }
  ],
  "bytecode": "0x60806040523480156200001157600080fd5b506200002b6200004b640100000000026401000000009004565b62000045336200008d640100000000026401000000009004565b62000201565b336000806101000a81548173ffffffffffffffffffffffffffffffffffffffff021916908373ffffffffffffffffffffffffffffffffffffffff160217905550565b6000809054906101000a900473ffffffffffffffffffffffffffffffffffffffff1673ffffffffffffffffffffffffffffffffffffffff163373ffffffffffffffffffffffffffffffffffffffff16141515620000e957600080fd5b606060405190810160405280600060048111156200010357fe5b81526020018273ffffffffffffffffffffffffffffffffffffffff16815260200160011515815250600160003373ffffffffffffffffffffffffffffffffffffffff1673ffffffffffffffffffffffffffffffffffffffff16815260200190815260200160002060008201518160000160006101000a81548160ff021916908360048111156200018f57fe5b021790555060208201518160000160016101000a81548173ffffffffffffffffffffffffffffffffffffffff021916908373ffffffffffffffffffffffffffffffffffffffff16021790555060408201518160000160156101000a81548160ff02191690831515021790555090505050565b615b5980620002116000396000f300608060405260043610610154576000357c0100000000000000000000000000000000000000000000000000000000900463ffffffff1680630141da921461015957806301db5b4814610283578063066674291461036457806306cfcb861461038f57806307077b07146105475780630e9dca5d1461059e5780631b20335d146106b057806328617c7c14610773578063340cffbe146108805780633c52a42e146108ab5780633d055963146108ec578063414686de1461091757806343defc101461095857806358e9917514610b2657806365487a0514610cde5780636dca56e614610df75780637cc6932514610f21578063858bb8c014610f6657806399dcec85146110a6578063a1c48cc414611101578063bf04a10d14611150578063c239c7891461117b578063e92980c51461126a578063eae2001114611281578063f16bc89c14611352578063f66b0d261461148b575b600080fd5b34801561016557600080fd5b5061018e60048036038101908080359060200190929190803590602001909291905050506114b6565b604051808060200180602001858152602001848152602001838103835287818151815260200191508051906020019080838360005b838110156101de5780820151818401526020810190506101c3565b50505050905090810190601f16801561020b5780820380516001836020036101000a031916815260200191505b50838103825286818151815260200191508051906020019080838360005b83811015610244578082015181840152602081019050610229565b50505050905090810190601f1680156102715780820380516001836020036101000a031916815260200191505b50965050505050505060405180910390f35b34801561028f57600080fd5b5061034e60048036038101908080359060200190929190803590602001908201803590602001908080601f0160208091040260200160405190810160405280939291908181526020018383808284378201915050505050509192919290803590602001908201803590602001908080601f01602080910402602001604051908101604052809392919081815260200183838082843782019150505050505091929192908035906020019092919080359060200190929190505050611911565b6040518082815260200191505060405180910390f35b34801561037057600080fd5b50610379611bd6565b6040518082815260200191505060405180910390f35b34801561039b57600080fd5b506103ba60048036038101908080359060200190929190505050611bfa565b604051808060200180602001806020018681526020018573ffffffffffffffffffffffffffffffffffffffff1673ffffffffffffffffffffffffffffffffffffffff168152602001848103845289818151815260200191508051906020019080838360005b8381101561043a57808201518184015260208101905061041f565b50505050905090810190601f1680156104675780820380516001836020036101000a031916815260200191505b50848103835288818151815260200191508051906020019080838360005b838110156104a0578082015181840152602081019050610485565b50505050905090810190601f1680156104cd5780820380516001836020036101000a031916815260200191505b50848103825287818151815260200191508051906020019080838360005b838110156105065780820151818401526020810190506104eb565b50505050905090810190601f1680156105335780820380516001836020036101000a031916815260200191505b509850505050505050505060405180910390f35b34801561055357600080fd5b50610588600480360381019080803573ffffffffffffffffffffffffffffffffffffffff169060200190929190505050611f3f565b6040518082815260200191505060405180910390f35b3480156105aa57600080fd5b506105c960048036038101908080359060200190929190505050611f57565b604051808060200180602001838103835285818151815260200191508051906020019080838360005b8381101561060d5780820151818401526020810190506105f2565b50505050905090810190601f16801561063a5780820380516001836020036101000a031916815260200191505b50838103825284818151815260200191508051906020019080838360005b83811015610673578082015181840152602081019050610658565b50505050905090810190601f1680156106a05780820380516001836020036101000a031916815260200191505b5094505050505060405180910390f35b3480156106bc57600080fd5b5061075d600480360381019080803590602001908201803590602001908080601f0160208091040260200160405190810160405280939291908181526020018383808284378201915050505050509192919290803590602001908201803590602001908080601f0160208091040260200160405190810160405280939291908181526020018383808284378201915050505050509192919290505050612153565b6040518082815260200191505060405180910390f35b34801561077f57600080fd5b50610866600480360381019080803590602001908201803590602001908080601f0160208091040260200160405190810160405280939291908181526020018383808284378201915050505050509192919290803590602001908201803590602001908080601f0160208091040260200160405190810160405280939291908181526020018383808284378201915050505050509192919290803590602001908201803590602001908080601f01602080910402602001604051908101604052809392919081815260200183838082843782019150505050505091929192905050506124cb565b604051808215151515815260200191505060405180910390f35b34801561088c57600080fd5b50610895612793565b6040518082815260200191505060405180910390f35b3480156108b757600080fd5b506108d6600480360381019080803590602001909291905050506127b7565b6040518082815260200191505060405180910390f35b3480156108f857600080fd5b50610901612821565b6040518082815260200191505060405180910390f35b34801561092357600080fd5b5061094260048036038101908080359060200190929190505050612845565b6040518082815260200191505060405180910390f35b34801561096457600080fd5b50610999600480360381019080803573ffffffffffffffffffffffffffffffffffffffff1690602001909291905050506128ae565b604051808060200180602001806020018681526020018573ffffffffffffffffffffffffffffffffffffffff1673ffffffffffffffffffffffffffffffffffffffff168152602001848103845289818151815260200191508051906020019080838360005b83811015610a195780820151818401526020810190506109fe565b50505050905090810190601f168015610a465780820380516001836020036101000a031916815260200191505b50848103835288818151815260200191508051906020019080838360005b83811015610a7f578082015181840152602081019050610a64565b50505050905090810190601f168015610aac5780820380516001836020036101000a031916815260200191505b50848103825287818151815260200191508051906020019080838360005b83811015610ae5578082015181840152602081019050610aca565b50505050905090810190601f168015610b125780820380516001836020036101000a031916815260200191505b509850505050505050505060405180910390f35b348015610b3257600080fd5b50610b5160048036038101908080359060200190929190505050612c7c565b604051808060200180602001806020018681526020018573ffffffffffffffffffffffffffffffffffffffff1673ffffffffffffffffffffffffffffffffffffffff168152602001848103845289818151815260200191508051906020019080838360005b83811015610bd1578082015181840152602081019050610bb6565b50505050905090810190601f168015610bfe5780820380516001836020036101000a031916815260200191505b50848103835288818151815260200191508051906020019080838360005b83811015610c37578082015181840152602081019050610c1c565b50505050905090810190601f168015610c645780820380516001836020036101000a031916815260200191505b50848103825287818151815260200191508051906020019080838360005b83811015610c9d578082015181840152602081019050610c82565b50505050905090810190601f168015610cca5780820380516001836020036101000a031916815260200191505b509850505050505050505060405180910390f35b348015610cea57600080fd5b50610d0960048036038101908080359060200190929190505050612fc1565b604051808060200180602001848152602001838103835286818151815260200191508051906020019080838360005b83811015610d53578082015181840152602081019050610d38565b50505050905090810190601f168015610d805780820380516001836020036101000a031916815260200191505b50838103825285818151815260200191508051906020019080838360005b83811015610db9578082015181840152602081019050610d9e565b50505050905090810190601f168015610de65780820380516001836020036101000a031916815260200191505b509550505050505060405180910390f35b348015610e0357600080fd5b50610e2c6004803603810190808035906020019092919080359060200190929190505050612fdd565b604051808060200180602001858152602001848152602001838103835287818151815260200191508051906020019080838360005b83811015610e7c578082015181840152602081019050610e61565b50505050905090810190601f168015610ea95780820380516001836020036101000a031916815260200191505b50838103825286818151815260200191508051906020019080838360005b83811015610ee2578082015181840152602081019050610ec7565b50505050905090810190601f168015610f0f5780820380516001836020036101000a031916815260200191505b50965050505050505060405180910390f35b348015610f2d57600080fd5b50610f4c6004803603810190808035906020019092919050505061343e565b604051808215151515815260200191505060405180910390f35b348015610f7257600080fd5b50610fb1600480360381019080803573ffffffffffffffffffffffffffffffffffffffff16906020019092919080359060200190929190505050613a7c565b604051808060200180602001858152602001848152602001838103835287818151815260200191508051906020019080838360005b83811015611001578082015181840152602081019050610fe6565b50505050905090810190601f16801561102e5780820380516001836020036101000a031916815260200191505b50838103825286818151815260200191508051906020019080838360005b8381101561106757808201518184015260208101905061104c565b50505050905090810190601f1680156110945780820380516001836020036101000a031916815260200191505b50965050505050505060405180910390f35b3480156110b257600080fd5b506110e7600480360381019080803573ffffffffffffffffffffffffffffffffffffffff169060200190929190505050613bf8565b604051808215151515815260200191505060405180910390f35b34801561110d57600080fd5b506111366004803603810190808035906020019092919080359060200190929190505050613d40565b604051808215151515815260200191505060405180910390f35b34801561115c57600080fd5b50611165614262565b6040518082815260200191505060405180910390f35b34801561118757600080fd5b506112506004803603810190808035906020019092919080359060200190929190803590602001908201803590602001908080601f0160208091040260200160405190810160405280939291908181526020018383808284378201915050505050509192919290803590602001908201803590602001908080601f016020809104026020016040519081016040528093929190818152602001838380828437820191505050505050919291929080359060200190929190803590602001909291905050506143f2565b604051808215151515815260200191505060405180910390f35b34801561127657600080fd5b5061127f6148a0565b005b34801561128d57600080fd5b5061133860048036038101908080359060200190929190803590602001908201803590602001908080601f0160208091040260200160405190810160405280939291908181526020018383808284378201915050505050509192919290803590602001908201803590602001908080601f0160208091040260200160405190810160405280939291908181526020018383808284378201915050505050509192919290505050614a10565b604051808215151515815260200191505060405180910390f35b34801561135e57600080fd5b5061139d600480360381019080803573ffffffffffffffffffffffffffffffffffffffff16906020019092919080359060200190929190505050614c41565b604051808060200180602001848152602001838103835286818151815260200191508051906020019080838360005b838110156113e75780820151818401526020810190506113cc565b50505050905090810190601f1680156114145780820380516001836020036101000a031916815260200191505b50838103825285818151815260200191508051906020019080838360005b8381101561144d578082015181840152602081019050611432565b50505050905090810190601f16801561147a5780820380516001836020036101000a031916815260200191505b509550505050505060405180910390f35b34801561149757600080fd5b506114a0614c5d565b6040518082815260200191505060405180910390f35b606080600080600660405180807f7075626c6963000000000000000000000000000000000000000000000000000081525060060190509081526020016040518091039020805490508610801561156a5750600660405180807f7075626c69630000000000000000000000000000000000000000000000000000815250600601905090815260200160405180910390208681548110151561155257fe5b90600052602060002090600602016003018054905085105b15156115de576040517f08c379a000000000000000000000000000000000000000000000000000000000815260040180806020018281038252601c8152602001807f50524f4455435420494e44455820444f4553204e4f542045584953540000000081525060200191505060405180910390fd5b600660405180807f7075626c69630000000000000000000000000000000000000000000000000000815250600601905090815260200160405180910390208681548110151561162957fe5b90600052602060002090600602016003018581548110151561164757fe5b9060005260206000209060040201600001600660405180807f7075626c6963000000000000000000000000000000000000000000000000000081525060060190509081526020016040518091039020878154811015156116a357fe5b9060005260206000209060060201600301868154811015156116c157fe5b9060005260206000209060040201600101600660405180807f7075626c69630000000000000000000000000000000000000000000000000000815250600601905090815260200160405180910390208881548110151561171d57fe5b90600052602060002090600602016003018781548110151561173b57fe5b906000526020600020906004020160020154600660405180807f7075626c69630000000000000000000000000000000000000000000000000000815250600601905090815260200160405180910390208981548110151561179857fe5b9060005260206000209060060201600301888154811015156117b657fe5b906000526020600020906004020160030154838054600181600116156101000203166002900480601f01602080910402602001604051908101604052809291908181526020018280546001816001161561010002031660029004801561185d5780601f106118325761010080835404028352916020019161185d565b820191906000526020600020905b81548152906001019060200180831161184057829003601f168201915b50505050509350828054600181600116156101000203166002900480601f0160208091040260200160405190810160405280929190818152602001828054600181600116156101000203166002900480156118f95780601f106118ce576101008083540402835291602001916118f9565b820191906000526020600020905b8154815290600101906020018083116118dc57829003601f168201915b50505050509250935093509350935092959194509250565b600080600760003373ffffffffffffffffffffffffffffffffffffffff1673ffffffffffffffffffffffffffffffffffffffff1681526020019081526020016000208781548110151561196057fe5b9060005260206000209060060201600301608060405190810160405280888152602001878152602001868152602001858152509080600181540180825580915050906001820390600052602060002090600402016000909192909190915060008201518160000190805190602001906119da929190615653565b5060208201518160010190805190602001906119f7929190615653565b506040820151816002015560608201518160030155505050600760003373ffffffffffffffffffffffffffffffffffffffff1673ffffffffffffffffffffffffffffffffffffffff16815260200190815260200160002087815481101515611a5b57fe5b9060005260206000209060060201600401549050600660405180807f7075626c696300000000000000000000000000000000000000000000000000008152506006019050908152602001604051809103902081815481101515611aba57fe5b906000526020600020906006020160030160806040519081016040528088815260200187815260200186815260200185815250908060018154018082558091505090600182039060005260206000209060040201600090919290919091506000820151816000019080519060200190611b34929190615653565b506020820151816001019080519060200190611b51929190615653565b506040820151816002015560608201518160030155505050600760003373ffffffffffffffffffffffffffffffffffffffff1673ffffffffffffffffffffffffffffffffffffffff16815260200190815260200160002087815481101515611bb557fe5b90600052602060002090600602016003018054905091505095945050505050565b6000806004805490501115611bf2576004805490509050611bf7565b600090505b90565b606080606060008060048054905086101515611c7e576040517f08c379a000000000000000000000000000000000000000000000000000000000815260040180806020018281038252600d8152602001807f496e76616c696420696e6465780000000000000000000000000000000000000081525060200191505060405180910390fd5b600486815481101515611c8d57fe5b9060005260206000209060070201600001600487815481101515611cad57fe5b9060005260206000209060070201600101600488815481101515611ccd57fe5b9060005260206000209060070201600201600489815481101515611ced57fe5b906000526020600020906007020160030160009054906101000a900460ff166001811115611d1757fe5b60048a815481101515611d2657fe5b906000526020600020906007020160030160019054906101000a900473ffffffffffffffffffffffffffffffffffffffff16848054600181600116156101000203166002900480601f016020809104026020016040519081016040528092919081815260200182805460018160011615610100020316600290048015611ded5780601f10611dc257610100808354040283529160200191611ded565b820191906000526020600020905b815481529060010190602001808311611dd057829003601f168201915b50505050509450838054600181600116156101000203166002900480601f016020809104026020016040519081016040528092919081815260200182805460018160011615610100020316600290048015611e895780601f10611e5e57610100808354040283529160200191611e89565b820191906000526020600020905b815481529060010190602001808311611e6c57829003601f168201915b50505050509350828054600181600116156101000203166002900480601f016020809104026020016040519081016040528092919081815260200182805460018160011615610100020316600290048015611f255780601f10611efa57610100808354040283529160200191611f25565b820191906000526020600020905b815481529060010190602001808311611f0857829003601f168201915b505050505092509450945094509450945091939590929450565b60086020528060005260406000206000915090505481565b606080600660405180807f7075626c696300000000000000000000000000000000000000000000000000008152506006019050908152602001604051809103902083815481101515611fa557fe5b9060005260206000209060060201600001600660405180807f7075626c69630000000000000000000000000000000000000000000000000000815250600601905090815260200160405180910390208481548110151561200157fe5b9060005260206000209060060201600101818054600181600116156101000203166002900480601f0160208091040260200160405190810160405280929190818152602001828054600181600116156101000203166002900480156120a75780601f1061207c576101008083540402835291602001916120a7565b820191906000526020600020905b81548152906001019060200180831161208a57829003601f168201915b50505050509150808054600181600116156101000203166002900480601f0160208091040260200160405190810160405280929190818152602001828054600181600116156101000203166002900480156121435780601f1061211857610100808354040283529160200191612143565b820191906000526020600020905b81548152906001019060200180831161212657829003601f168201915b5050505050905091509150915091565b6000806000600860003373ffffffffffffffffffffffffffffffffffffffff1673ffffffffffffffffffffffffffffffffffffffff16815260200190815260200160002060008154809291906001019190505550848260000190805190602001906121bf9291906156d3565b50838260010190805190602001906121d89291906156d3565b506020604051908101604052806001808111156121f157fe5b8152508260050160003373ffffffffffffffffffffffffffffffffffffffff1673ffffffffffffffffffffffffffffffffffffffff16815260200190815260200160002060008201518160000160006101000a81548160ff0219169083600181111561225957fe5b0217905550905050600660405180807f7075626c6963000000000000000000000000000000000000000000000000000081525060060190509081526020016040518091039020805490509050808260040181905550600760003373ffffffffffffffffffffffffffffffffffffffff1673ffffffffffffffffffffffffffffffffffffffff168152602001908152602001600020829080600181540180825580915050906001820390600052602060002090600602016000909192909190915060008201816000019080546001816001161561010002031660029004612340929190615753565b5060018201816001019080546001816001161561010002031660029004612368929190615753565b506002820154816002015560038201816003019080546123899291906157da565b5060048201548160040155505050600660405180807f7075626c6963000000000000000000000000000000000000000000000000000081525060060190509081526020016040518091039020829080600181540180825580915050906001820390600052602060002090600602016000909192909190915060008201816000019080546001816001161561010002031660029004612428929190615753565b5060018201816001019080546001816001161561010002031660029004612450929190615753565b506002820154816002015560038201816003019080546124719291906157da565b5060048201548160040155505050600660405180807f7075626c6963000000000000000000000000000000000000000000000000000081525060060190509081526020016040518091039020805490509250505092915050565b6000801515600260003373ffffffffffffffffffffffffffffffffffffffff1673ffffffffffffffffffffffffffffffffffffffff16815260200190815260200160002060030160159054906101000a900460ff161515141515612597576040517f08c379a00000000000000000000000000000000000000000000000000000000081526004018080602001828103825260158152602001807f5245515545535420495320494e2050524f43455353000000000000000000000081525060200191505060405180910390fd5b61012060405190810160405280858152602001848152602001838152602001600060018111156125c357fe5b81526020013373ffffffffffffffffffffffffffffffffffffffff1681526020016001151581526020016004805490508152602001612600614ca6565b81526020016003600481111561261257fe5b815250600260003373ffffffffffffffffffffffffffffffffffffffff1673ffffffffffffffffffffffffffffffffffffffff1681526020019081526020016000206000820151816000019080519060200190612670929190615653565b50602082015181600101908051906020019061268d929190615653565b5060408201518160020190805190602001906126aa929190615653565b5060608201518160030160006101000a81548160ff021916908360018111156126cf57fe5b021790555060808201518160030160016101000a81548173ffffffffffffffffffffffffffffffffffffffff021916908373ffffffffffffffffffffffffffffffffffffffff16021790555060a08201518160030160156101000a81548160ff02191690831515021790555060c0820151816004015560e082015181600501556101008201518160060160006101000a81548160ff0219169083600481111561277457fe5b0217905550905050612787848484614cce565b50600190509392505050565b60008060048054905011156127af5760048054905090506127b4565b600090505b90565b6000600760003373ffffffffffffffffffffffffffffffffffffffff1673ffffffffffffffffffffffffffffffffffffffff1681526020019081526020016000208281548110151561280557fe5b9060005260206000209060060201600301805490509050919050565b600080600580549050111561283d576005805490509050612842565b600090505b90565b6000600660405180807f7075626c69630000000000000000000000000000000000000000000000000000815250600601905090815260200160405180910390208281548110151561289257fe5b9060005260206000209060060201600301805490509050919050565b6060806060600080600260008773ffffffffffffffffffffffffffffffffffffffff1673ffffffffffffffffffffffffffffffffffffffff16815260200190815260200160002060030160159054906101000a900460ff16151561291157600080fd5b600260008773ffffffffffffffffffffffffffffffffffffffff1673ffffffffffffffffffffffffffffffffffffffff168152602001908152602001600020600001600260008873ffffffffffffffffffffffffffffffffffffffff1673ffffffffffffffffffffffffffffffffffffffff168152602001908152602001600020600101600260008973ffffffffffffffffffffffffffffffffffffffff1673ffffffffffffffffffffffffffffffffffffffff168152602001908152602001600020600201600260008a73ffffffffffffffffffffffffffffffffffffffff1673ffffffffffffffffffffffffffffffffffffffff16815260200190815260200160002060030160009054906101000a900460ff166001811115612a3257fe5b600260008b73ffffffffffffffffffffffffffffffffffffffff1673ffffffffffffffffffffffffffffffffffffffff16815260200190815260200160002060030160019054906101000a900473ffffffffffffffffffffffffffffffffffffffff16848054600181600116156101000203166002900480601f016020809104026020016040519081016040528092919081815260200182805460018160011615610100020316600290048015612b2a5780601f10612aff57610100808354040283529160200191612b2a565b820191906000526020600020905b815481529060010190602001808311612b0d57829003601f168201915b50505050509450838054600181600116156101000203166002900480601f016020809104026020016040519081016040528092919081815260200182805460018160011615610100020316600290048015612bc65780601f10612b9b57610100808354040283529160200191612bc6565b820191906000526020600020905b815481529060010190602001808311612ba957829003601f168201915b50505050509350828054600181600116156101000203166002900480601f016020809104026020016040519081016040528092919081815260200182805460018160011615610100020316600290048015612c625780601f10612c3757610100808354040283529160200191612c62565b820191906000526020600020905b815481529060010190602001808311612c4557829003601f168201915b505050505092509450945094509450945091939590929450565b606080606060008060058054905086101515612d00576040517f08c379a000000000000000000000000000000000000000000000000000000000815260040180806020018281038252600d8152602001807f496e76616c696420696e6465780000000000000000000000000000000000000081525060200191505060405180910390fd5b600586815481101515612d0f57fe5b9060005260206000209060070201600001600587815481101515612d2f57fe5b9060005260206000209060070201600101600588815481101515612d4f57fe5b9060005260206000209060070201600201600589815481101515612d6f57fe5b906000526020600020906007020160030160009054906101000a900460ff166001811115612d9957fe5b60058a815481101515612da857fe5b906000526020600020906007020160030160019054906101000a900473ffffffffffffffffffffffffffffffffffffffff16848054600181600116156101000203166002900480601f016020809104026020016040519081016040528092919081815260200182805460018160011615610100020316600290048015612e6f5780601f10612e4457610100808354040283529160200191612e6f565b820191906000526020600020905b815481529060010190602001808311612e5257829003601f168201915b50505050509450838054600181600116156101000203166002900480601f016020809104026020016040519081016040528092919081815260200182805460018160011615610100020316600290048015612f0b5780601f10612ee057610100808354040283529160200191612f0b565b820191906000526020600020905b815481529060010190602001808311612eee57829003601f168201915b50505050509350828054600181600116156101000203166002900480601f016020809104026020016040519081016040528092919081815260200182805460018160011615610100020316600290048015612fa75780601f10612f7c57610100808354040283529160200191612fa7565b820191906000526020600020905b815481529060010190602001808311612f8a57829003601f168201915b505050505092509450945094509450945091939590929450565b6060806000612fd03385614ead565b9250925092509193909250565b606080600080600760003373ffffffffffffffffffffffffffffffffffffffff1673ffffffffffffffffffffffffffffffffffffffff16815260200190815260200160002080549050861080156130935750600760003373ffffffffffffffffffffffffffffffffffffffff1673ffffffffffffffffffffffffffffffffffffffff1681526020019081526020016000208681548110151561307b57fe5b90600052602060002090600602016003018054905085105b1515613107576040517f08c379a000000000000000000000000000000000000000000000000000000000815260040180806020018281038252601c8152602001807f50524f4455435420494e44455820444f4553204e4f542045584953540000000081525060200191505060405180910390fd5b600760003373ffffffffffffffffffffffffffffffffffffffff1673ffffffffffffffffffffffffffffffffffffffff1681526020019081526020016000208681548110151561315357fe5b90600052602060002090600602016003018581548110151561317157fe5b9060005260206000209060040201600001600760003373ffffffffffffffffffffffffffffffffffffffff1673ffffffffffffffffffffffffffffffffffffffff168152602001908152602001600020878154811015156131ce57fe5b9060005260206000209060060201600301868154811015156131ec57fe5b9060005260206000209060040201600101600760003373ffffffffffffffffffffffffffffffffffffffff1673ffffffffffffffffffffffffffffffffffffffff1681526020019081526020016000208881548110151561324957fe5b90600052602060002090600602016003018781548110151561326757fe5b906000526020600020906004020160020154600760003373ffffffffffffffffffffffffffffffffffffffff1673ffffffffffffffffffffffffffffffffffffffff168152602001908152602001600020898154811015156132c557fe5b9060005260206000209060060201600301888154811015156132e357fe5b906000526020600020906004020160030154838054600181600116156101000203166002900480601f01602080910402602001604051908101604052809291908181526020018280546001816001161561010002031660029004801561338a5780601f1061335f5761010080835404028352916020019161338a565b820191906000526020600020905b81548152906001019060200180831161336d57829003601f168201915b50505050509350828054600181600116156101000203166002900480601f0160208091040260200160405190810160405280929190818152602001828054600181600116156101000203166002900480156134265780601f106133fb57610100808354040283529160200191613426565b820191906000526020600020905b81548152906001019060200180831161340957829003601f168201915b50505050509250935093509350935092959194509250565b600080600080600760003373ffffffffffffffffffffffffffffffffffffffff1673ffffffffffffffffffffffffffffffffffffffff168152602001908152602001600020805490508510151561349457600080fd5b600760003373ffffffffffffffffffffffffffffffffffffffff1673ffffffffffffffffffffffffffffffffffffffff168152602001908152602001600020858154811015156134e057fe5b9060005260206000209060060201600401549250600760003373ffffffffffffffffffffffffffffffffffffffff1673ffffffffffffffffffffffffffffffffffffffff1681526020019081526020016000206001600760003373ffffffffffffffffffffffffffffffffffffffff1673ffffffffffffffffffffffffffffffffffffffff168152602001908152602001600020805490500381548110151561358557fe5b90600052602060002090600602016004015491506001600660405180807f7075626c696300000000000000000000000000000000000000000000000000008152506006019050908152602001604051809103902080549050039050818114156136905782600760003373ffffffffffffffffffffffffffffffffffffffff1673ffffffffffffffffffffffffffffffffffffffff1681526020019081526020016000206001600760003373ffffffffffffffffffffffffffffffffffffffff1673ffffffffffffffffffffffffffffffffffffffff168152602001908152602001600020805490500381548110151561367a57fe5b9060005260206000209060060201600401819055505b600660405180807f7075626c69630000000000000000000000000000000000000000000000000000815250600601905090815260200160405180910390206001600660405180807f7075626c6963000000000000000000000000000000000000000000000000000081525060060190509081526020016040518091039020805490500381548110151561371f57fe5b9060005260206000209060060201600660405180807f7075626c69630000000000000000000000000000000000000000000000000000815250600601905090815260200160405180910390208481548110151561377857fe5b9060005260206000209060060201600082018160000190805460018160011615610100020316600290046137ad929190615753565b50600182018160010190805460018160011615610100020316600290046137d5929190615753565b506002820154816002015560038201816003019080546137f69291906157da565b5060048201548160040155905050600760003373ffffffffffffffffffffffffffffffffffffffff1673ffffffffffffffffffffffffffffffffffffffff1681526020019081526020016000206001600760003373ffffffffffffffffffffffffffffffffffffffff1673ffffffffffffffffffffffffffffffffffffffff168152602001908152602001600020805490500381548110151561389557fe5b9060005260206000209060060201600760003373ffffffffffffffffffffffffffffffffffffffff1673ffffffffffffffffffffffffffffffffffffffff168152602001908152602001600020868154811015156138ef57fe5b906000526020600020906006020160008201816000019080546001816001161561010002031660029004613924929190615753565b506001820181600101908054600181600116156101000203166002900461394c929190615753565b5060028201548160020155600382018160030190805461396d9291906157da565b5060048201548160040155905050600760003373ffffffffffffffffffffffffffffffffffffffff1673ffffffffffffffffffffffffffffffffffffffff1681526020019081526020016000208054809190600190036139cd9190615896565b50600660405180807f7075626c6963000000000000000000000000000000000000000000000000000081525060060190509081526020016040518091039020805480919060019003613a1f9190615896565b50600860003373ffffffffffffffffffffffffffffffffffffffff1673ffffffffffffffffffffffffffffffffffffffff168152602001908152602001600020600081548092919060019003919050555060019350505050919050565b600760205281600052604060002081815481101515613a9757fe5b906000526020600020906006020160009150915050806000018054600181600116156101000203166002900480601f016020809104026020016040519081016040528092919081815260200182805460018160011615610100020316600290048015613b445780601f10613b1957610100808354040283529160200191613b44565b820191906000526020600020905b815481529060010190602001808311613b2757829003601f168201915b505050505090806001018054600181600116156101000203166002900480601f016020809104026020016040519081016040528092919081815260200182805460018160011615610100020316600290048015613be25780601f10613bb757610100808354040283529160200191613be2565b820191906000526020600020905b815481529060010190602001808311613bc557829003601f168201915b5050505050908060020154908060040154905084565b600060011515600260008473ffffffffffffffffffffffffffffffffffffffff1673ffffffffffffffffffffffffffffffffffffffff16815260200190815260200160002060030160159054906101000a900460ff161515141515613c5c57600080fd5b6001600260008473ffffffffffffffffffffffffffffffffffffffff1673ffffffffffffffffffffffffffffffffffffffff16815260200190815260200160002060030160006101000a81548160ff02191690836001811115613cbb57fe5b021790555060028060008473ffffffffffffffffffffffffffffffffffffffff1673ffffffffffffffffffffffffffffffffffffffff16815260200190815260200160002060060160006101000a81548160ff02191690836004811115613d1e57fe5b0217905550613d2c8261510f565b50613d3682615401565b5060019050919050565b6000806000600760003373ffffffffffffffffffffffffffffffffffffffff1673ffffffffffffffffffffffffffffffffffffffff1681526020019081526020016000208054905085108015613df55750600760003373ffffffffffffffffffffffffffffffffffffffff1673ffffffffffffffffffffffffffffffffffffffff16815260200190815260200160002085815481101515613ddd57fe5b90600052602060002090600602016003018054905084105b1515613e0057600080fd5b600760003373ffffffffffffffffffffffffffffffffffffffff1673ffffffffffffffffffffffffffffffffffffffff16815260200190815260200160002085815481101515613e4c57fe5b9060005260206000209060060201600301805490509150600760003373ffffffffffffffffffffffffffffffffffffffff1673ffffffffffffffffffffffffffffffffffffffff16815260200190815260200160002085815481101515613eaf57fe5b906000526020600020906006020160030160018303815481101515613ed057fe5b9060005260206000209060040201600760003373ffffffffffffffffffffffffffffffffffffffff1673ffffffffffffffffffffffffffffffffffffffff16815260200190815260200160002086815481101515613f2a57fe5b906000526020600020906006020160030185815481101515613f4857fe5b906000526020600020906004020160008201816000019080546001816001161561010002031660029004613f7d929190615753565b5060018201816001019080546001816001161561010002031660029004613fa5929190615753565b506002820154816002015560038201548160030155905050600760003373ffffffffffffffffffffffffffffffffffffffff1673ffffffffffffffffffffffffffffffffffffffff1681526020019081526020016000208581548110151561400957fe5b906000526020600020906006020160030180548091906001900361402d91906158c8565b50600760003373ffffffffffffffffffffffffffffffffffffffff1673ffffffffffffffffffffffffffffffffffffffff1681526020019081526020016000208581548110151561407a57fe5b9060005260206000209060060201600401549050600660405180807f7075626c6963000000000000000000000000000000000000000000000000000081525060060190509081526020016040518091039020818154811015156140d957fe5b9060005260206000209060060201600301600183038154811015156140fa57fe5b9060005260206000209060040201600660405180807f7075626c69630000000000000000000000000000000000000000000000000000815250600601905090815260200160405180910390208281548110151561415357fe5b90600052602060002090600602016003018581548110151561417157fe5b9060005260206000209060040201600082018160000190805460018160011615610100020316600290046141a6929190615753565b50600182018160010190805460018160011615610100020316600290046141ce929190615753565b506002820154816002015560038201548160030155905050600660405180807f7075626c69630000000000000000000000000000000000000000000000000000815250600601905090815260200160405180910390208181548110151561423157fe5b906000526020600020906006020160030180548091906001900361425591906158c8565b5060019250505092915050565b600060011515600260003373ffffffffffffffffffffffffffffffffffffffff1673ffffffffffffffffffffffffffffffffffffffff16815260200190815260200160002060030160159054906101000a900460ff161515141561432257600260003373ffffffffffffffffffffffffffffffffffffffff1673ffffffffffffffffffffffffffffffffffffffff16815260200190815260200160002060060160009054906101000a900460ff16600481111561431b57fe5b90506143ef565b60011515600160003373ffffffffffffffffffffffffffffffffffffffff1673ffffffffffffffffffffffffffffffffffffffff16815260200190815260200160002060000160159054906101000a900460ff16151514156143e057600160003373ffffffffffffffffffffffffffffffffffffffff1673ffffffffffffffffffffffffffffffffffffffff16815260200190815260200160002060000160009054906101000a900460ff1660048111156143d957fe5b90506143ef565b6004808111156143ec57fe5b90505b90565b60008085600760003373ffffffffffffffffffffffffffffffffffffffff1673ffffffffffffffffffffffffffffffffffffffff1681526020019081526020016000208981548110151561444257fe5b90600052602060002090600602016003018881548110151561446057fe5b906000526020600020906004020160000190805190602001906144849291906156d3565b5084600760003373ffffffffffffffffffffffffffffffffffffffff1673ffffffffffffffffffffffffffffffffffffffff168152602001908152602001600020898154811015156144d257fe5b9060005260206000209060060201600301888154811015156144f057fe5b906000526020600020906004020160010190805190602001906145149291906156d3565b5083600760003373ffffffffffffffffffffffffffffffffffffffff1673ffffffffffffffffffffffffffffffffffffffff1681526020019081526020016000208981548110151561456257fe5b90600052602060002090600602016003018881548110151561458057fe5b90600052602060002090600402016002018190555082600760003373ffffffffffffffffffffffffffffffffffffffff1673ffffffffffffffffffffffffffffffffffffffff168152602001908152602001600020898154811015156145e257fe5b90600052602060002090600602016003018881548110151561460057fe5b906000526020600020906004020160030181905550600760003373ffffffffffffffffffffffffffffffffffffffff1673ffffffffffffffffffffffffffffffffffffffff1681526020019081526020016000208881548110151561466157fe5b906000526020600020906006020160040154905085600660405180807f7075626c6963000000000000000000000000000000000000000000000000000081525060060190509081526020016040518091039020828154811015156146c157fe5b9060005260206000209060060201600301888154811015156146df57fe5b906000526020600020906004020160000190805190602001906147039291906156d3565b5084600660405180807f7075626c69630000000000000000000000000000000000000000000000000000815250600601905090815260200160405180910390208281548110151561475057fe5b90600052602060002090600602016003018881548110151561476e57fe5b906000526020600020906004020160010190805190602001906147929291906156d3565b5083600660405180807f7075626c6963000000000000000000000000000000000000000000000000000081525060060190509081526020016040518091039020828154811015156147df57fe5b9060005260206000209060060201600301888154811015156147fd57fe5b90600052602060002090600402016002018190555082600660405180807f7075626c69630000000000000000000000000000000000000000000000000000815250600601905090815260200160405180910390208281548110151561485e57fe5b90600052602060002090600602016003018881548110151561487c57fe5b90600052602060002090600402016003018190555060019150509695505050505050565b6000809054906101000a900473ffffffffffffffffffffffffffffffffffffffff1673ffffffffffffffffffffffffffffffffffffffff163373ffffffffffffffffffffffffffffffffffffffff161415156148fb57600080fd5b6060604051908101604052806001600481111561491457fe5b81526020013373ffffffffffffffffffffffffffffffffffffffff16815260200160011515815250600160003373ffffffffffffffffffffffffffffffffffffffff1673ffffffffffffffffffffffffffffffffffffffff16815260200190815260200160002060008201518160000160006101000a81548160ff0219169083600481111561499f57fe5b021790555060208201518160000160016101000a81548173ffffffffffffffffffffffffffffffffffffffff021916908373ffffffffffffffffffffffffffffffffffffffff16021790555060408201518160000160156101000a81548160ff021916908315150217905550905050565b60008083600760003373ffffffffffffffffffffffffffffffffffffffff1673ffffffffffffffffffffffffffffffffffffffff16815260200190815260200160002086815481101515614a6057fe5b90600052602060002090600602016000019080519060200190614a849291906156d3565b5082600760003373ffffffffffffffffffffffffffffffffffffffff1673ffffffffffffffffffffffffffffffffffffffff16815260200190815260200160002086815481101515614ad257fe5b90600052602060002090600602016001019080519060200190614af69291906156d3565b50600760003373ffffffffffffffffffffffffffffffffffffffff1673ffffffffffffffffffffffffffffffffffffffff16815260200190815260200160002085815481101515614b4357fe5b906000526020600020906006020160040154905083600660405180807f7075626c696300000000000000000000000000000000000000000000000000008152506006019050908152602001604051809103902082815481101515614ba357fe5b90600052602060002090600602016000019080519060200190614bc79291906156d3565b5082600660405180807f7075626c696300000000000000000000000000000000000000000000000000008152506006019050908152602001604051809103902082815481101515614c1457fe5b90600052602060002090600602016001019080519060200190614c389291906156d3565b50509392505050565b6060806000614c508585614ead565b9250925092509250925092565b6000600660405180807f7075626c696300000000000000000000000000000000000000000000000000008152506006019050908152602001604051809103902080549050905090565b60007fffffffffffffffffffffffffffffffffffffffffffffffffffffffffffffffff905090565b6000600160046101206040519081016040528087815260200186815260200185815260200160006001811115614d0057fe5b81526020013373ffffffffffffffffffffffffffffffffffffffff1681526020016001151581526020016004805490508152602001614d3d614ca6565b815260200160036004811115614d4f57fe5b815250908060018154018082558091505090600182039060005260206000209060070201600090919290919091506000820151816000019080519060200190614d99929190615653565b506020820151816001019080519060200190614db6929190615653565b506040820151816002019080519060200190614dd3929190615653565b5060608201518160030160006101000a81548160ff02191690836001811115614df857fe5b021790555060808201518160030160016101000a81548173ffffffffffffffffffffffffffffffffffffffff021916908373ffffffffffffffffffffffffffffffffffffffff16021790555060a08201518160030160156101000a81548160ff02191690831515021790555060c0820151816004015560e082015181600501556101008201518160060160006101000a81548160ff02191690836004811115614e9d57fe5b0217905550505050509392505050565b6060806000600760008673ffffffffffffffffffffffffffffffffffffffff1673ffffffffffffffffffffffffffffffffffffffff16815260200190815260200160002084815481101515614efe57fe5b9060005260206000209060060201600001600760008773ffffffffffffffffffffffffffffffffffffffff1673ffffffffffffffffffffffffffffffffffffffff16815260200190815260200160002085815481101515614f5b57fe5b9060005260206000209060060201600101600760008873ffffffffffffffffffffffffffffffffffffffff1673ffffffffffffffffffffffffffffffffffffffff16815260200190815260200160002086815481101515614fb857fe5b906000526020600020906006020160040154828054600181600116156101000203166002900480601f01602080910402602001604051908101604052809291908181526020018280546001816001161561010002031660029004801561505f5780601f106150345761010080835404028352916020019161505f565b820191906000526020600020905b81548152906001019060200180831161504257829003601f168201915b50505050509250818054600181600116156101000203166002900480601f0160208091040260200160405190810160405280929190818152602001828054600181600116156101000203166002900480156150fb5780601f106150d0576101008083540402835291602001916150fb565b820191906000526020600020905b8154815290600101906020018083116150de57829003601f168201915b505050505091509250925092509250925092565b60007fffffffffffffffffffffffffffffffffffffffffffffffffffffffffffffffff600260008473ffffffffffffffffffffffffffffffffffffffff1673ffffffffffffffffffffffffffffffffffffffff1681526020019081526020016000206004015413151561518157600080fd5b600460016004805490500381548110151561519857fe5b90600052602060002090600702016004600260008573ffffffffffffffffffffffffffffffffffffffff1673ffffffffffffffffffffffffffffffffffffffff168152602001908152602001600020600401548154811015156151f757fe5b90600052602060002090600702016000820181600001908054600181600116156101000203166002900461522c929190615753565b5060018201816001019080546001816001161561010002031660029004615254929190615753565b506002820181600201908054600181600116156101000203166002900461527c929190615753565b506003820160009054906101000a900460ff168160030160006101000a81548160ff021916908360018111156152ae57fe5b02179055506003820160019054906101000a900473ffffffffffffffffffffffffffffffffffffffff168160030160016101000a81548173ffffffffffffffffffffffffffffffffffffffff021916908373ffffffffffffffffffffffffffffffffffffffff1602179055506003820160159054906101000a900460ff168160030160156101000a81548160ff02191690831515021790555060048201548160040155600582015481600501556006820160009054906101000a900460ff168160060160006101000a81548160ff0219169083600481111561538c57fe5b021790555090505061539c614ca6565b600260008473ffffffffffffffffffffffffffffffffffffffff1673ffffffffffffffffffffffffffffffffffffffff1681526020019081526020016000206004018190555060048054809190600190036153f791906158fa565b5060019050919050565b6000600580549050600260008473ffffffffffffffffffffffffffffffffffffffff1673ffffffffffffffffffffffffffffffffffffffff168152602001908152602001600020600501819055506005600260008473ffffffffffffffffffffffffffffffffffffffff1673ffffffffffffffffffffffffffffffffffffffff16815260200190815260200160002090806001815401808255809150509060018203906000526020600020906007020160009091929091909150600082018160000190805460018160011615610100020316600290046154e2929190615753565b506001820181600101908054600181600116156101000203166002900461550a929190615753565b5060028201816002019080546001816001161561010002031660029004615532929190615753565b506003820160009054906101000a900460ff168160030160006101000a81548160ff0219169083600181111561556457fe5b02179055506003820160019054906101000a900473ffffffffffffffffffffffffffffffffffffffff168160030160016101000a81548173ffffffffffffffffffffffffffffffffffffffff021916908373ffffffffffffffffffffffffffffffffffffffff1602179055506003820160159054906101000a900460ff168160030160156101000a81548160ff02191690831515021790555060048201548160040155600582015481600501556006820160009054906101000a900460ff168160060160006101000a81548160ff0219169083600481111561564257fe5b021790555050505060019050919050565b828054600181600116156101000203166002900490600052602060002090601f016020900481019282601f1061569457805160ff19168380011785556156c2565b828001600101855582156156c2579182015b828111156156c15782518255916020019190600101906156a6565b5b5090506156cf919061592c565b5090565b828054600181600116156101000203166002900490600052602060002090601f016020900481019282601f1061571457805160ff1916838001178555615742565b82800160010185558215615742579182015b82811115615741578251825591602001919060010190615726565b5b50905061574f919061592c565b5090565b828054600181600116156101000203166002900490600052602060002090601f016020900481019282601f1061578c57805485556157c9565b828001600101855582156157c957600052602060002091601f016020900482015b828111156157c85782548255916001019190600101906157ad565b5b5090506157d6919061592c565b5090565b8280548282559060005260206000209060040281019282156158855760005260206000209160040282015b8281111561588457828260008201816000019080546001816001161561010002031660029004615836929190615753565b506001820181600101908054600181600116156101000203166002900461585e929190615753565b506002820154816002015560038201548160030155505091600401919060040190615805565b5b5090506158929190615951565b5090565b8154818355818111156158c3576006028160060283600052602060002091820191016158c291906159a0565b5b505050565b8154818355818111156158f5576004028160040283600052602060002091820191016158f49190615951565b5b505050565b8154818355818111156159275760070281600702836000526020600020918201910161592691906159ff565b5b505050565b61594e91905b8082111561594a576000816000905550600101615932565b5090565b90565b61599d91905b8082111561599957600080820160006159709190615ac1565b6001820160006159809190615ac1565b6002820160009055600382016000905550600401615957565b5090565b90565b6159fc91905b808211156159f857600080820160006159bf9190615ac1565b6001820160006159cf9190615ac1565b60028201600090556003820160006159e79190615b09565b6004820160009055506006016159a6565b5090565b90565b615abe91905b80821115615aba5760008082016000615a1e9190615ac1565b600182016000615a2e9190615ac1565b600282016000615a3e9190615ac1565b6003820160006101000a81549060ff02191690556003820160016101000a81549073ffffffffffffffffffffffffffffffffffffffff02191690556003820160156101000a81549060ff0219169055600482016000905560058201600090556006820160006101000a81549060ff021916905550600701615a05565b5090565b90565b50805460018160011615610100020316600290046000825580601f10615ae75750615b06565b601f016020900490600052602060002090810190615b05919061592c565b5b50565b5080546000825560040290600052602060002090810190615b2a9190615951565b505600a165627a7a7230582099d0334f382698dca263ab5f3e1ca5ec9bb9d8837f4defcb8ad4c934a5a7f8910029",
  "source": "pragma solidity ^0.4.18;\nimport './ApplicationUserManager.sol';\nimport \"./Ownerble.sol\";\n\ncontract MarketPlace is Ownerble, ApplicationUserManager {\n    \n   \n    struct Product {\n       // uint id;\n        string name;\n        string description;\n        uint price;\n        uint quantity;\n    }\n    \n   \n    enum Role {\n        Admin, SuperAdmin\n    }\n\n    struct StoreUser {\n        Role role;\n    }\n    struct Store {\n        string name;\n        string description;\n        uint balance;\n        Product[] products;\n        uint publicIndex;\n        mapping(address => StoreUser) users;\n    }\n    \n  \n\n    \n    mapping(string =>  Store[]) private publicStore; \n    \n    mapping(address => Store[]) public userStores;\n    mapping(address => uint) public userStoresCount;\n\n     \n    constructor() public {\n    \n        \n    }\n    \n    function getStoreProductsCount(uint storeIndex) public constant returns(uint) {\n          return userStores[msg.sender][storeIndex].products.length;\n    }\n    \n      function getStoreProductsCountPublic(uint storeIndex) public constant returns(uint) {\n          return publicStore[\"public\"][storeIndex].products.length;\n    }\n    \n    \n     function getUserStoreProduct(uint storeIndex, uint productIndex) public constant returns(string, string, uint, uint) {\n          \n          require(storeIndex < userStores[msg.sender].length && productIndex < userStores[msg.sender][storeIndex].products.length, \"PRODUCT INDEX DOES NOT EXIST\");\n            \n          return (\n                 userStores[msg.sender][storeIndex].products[productIndex].name,\n                 userStores[msg.sender][storeIndex].products[productIndex].description,\n                 userStores[msg.sender][storeIndex].products[productIndex].price,\n                   userStores[msg.sender][storeIndex].products[productIndex].quantity\n              );\n        }\n        \n        //get product from public storeIndex  function getUserStoreProduct(uint storeIndex, uint productIndex) public constant returns(string, string, uint, uint) {\n          \n        function getStoreProductPublic(uint storeIndex, uint productIndex) public constant returns(string, string, uint, uint) {\n          \n          require(storeIndex < publicStore[\"public\"].length && productIndex < publicStore[\"public\"][storeIndex].products.length, \"PRODUCT INDEX DOES NOT EXIST\");\n            \n          return (\n                 publicStore[\"public\"][storeIndex].products[productIndex].name,\n                 publicStore[\"public\"][storeIndex].products[productIndex].description,\n                 publicStore[\"public\"][storeIndex].products[productIndex].price,\n                 publicStore[\"public\"][storeIndex].products[productIndex].quantity\n              );\n        }\n    \n  \n    \n    function editStore(uint storeIndex, string storeName, string description) public returns(bool) {\n           userStores[msg.sender][storeIndex].name = storeName;\n           userStores[msg.sender][storeIndex].description = description;\n           //get store publicIndex\n           uint publicIndex = userStores[msg.sender][storeIndex].publicIndex;\n           //update public store\n           publicStore[\"public\"][publicIndex].name = storeName;\n           publicStore[\"public\"][publicIndex].description = description;\n    }\n    \n    function createStore(string storeName, string description) public  returns(uint){\n          Store storage store;\n          //Store storage store =   userStores[msg.sender][0];\n          userStoresCount[msg.sender]++;\n          store.name=storeName;\n          store.description =description;\n          store.users[msg.sender] = StoreUser(Role.SuperAdmin);\n          \n          //add to public store publicStoreList\n          //GET THE INDEX WHERE THE STORE WILL BE STORED IN THE PUBLIC STORE publicStoreList\n          uint publicIndex = publicStore[\"public\"].length;\n          store.publicIndex = publicIndex;\n          \n          userStores[msg.sender].push(store);\n          publicStore[\"public\"].push(store);\n          return  publicStore[\"public\"].length;\n    }\n    \n  \n    \n    function deleteStore(uint storeIndex) public returns(bool) {\n          require(storeIndex < userStores[msg.sender].length);\n            //GET THE PUBLIC INDEX OF THE ITEM TO DELTE TO UPDATE IN THE PUBLIC STORE LIST\n          uint publicIndex_item_to_delete = userStores[msg.sender][storeIndex].publicIndex;\n          uint publicIndex_item_to_update = userStores[msg.sender][userStores[msg.sender].length - 1].publicIndex;\n         \n         uint index_of_last_public_item =  publicStore[\"public\"].length - 1;\n         \n         if(index_of_last_public_item == publicIndex_item_to_update) {\n             userStores[msg.sender][userStores[msg.sender].length - 1].publicIndex = publicIndex_item_to_delete;\n         }\n         \n          //COPY THE STORE IN THE LAST INDEX INTO THE DELETE INDEX (REPLACE) - public stores\n          publicStore[\"public\"][publicIndex_item_to_delete] = publicStore[\"public\"][publicStore[\"public\"].length - 1];\n          \n          //COPY THE STORE IN THE LAST INDEX INTO THE DELETE INDEX (REPLACE)\n          userStores[msg.sender][storeIndex] = userStores[msg.sender][userStores[msg.sender].length - 1];\n\n          \n          //REDUCE STORE LENGTH BY 1\n          userStores[msg.sender].length --;\n          publicStore[\"public\"].length --;\n          userStoresCount[msg.sender]--;\n          \n          return true;\n    }\n    \n    \n    function getOwnStore(uint storeIndex) public view returns(string, string, uint){\n        return getStore(msg.sender, storeIndex);\n    }\n    \n    function getPublicStore(uint storeIndex) public view returns(string, string) {\n             return (\n            publicStore[\"public\"][storeIndex].name,\n            publicStore[\"public\"][storeIndex].description\n        );\n    }\n    \n     function getPublicStoreSize() public view returns(uint) {\n             return (\n            publicStore[\"public\"].length\n        );\n    }\n    \n    \n     function getUserStore(address user, uint storeIndex) public view returns(string, string, uint){\n        return getStore(user, storeIndex);\n    }\n    \n    function getStore(address user, uint storeIndex) private view returns (string, string, uint) {\n          return (\n            userStores[user][storeIndex].name,\n            userStores[user][storeIndex].description,\n             userStores[user][storeIndex].publicIndex\n            \n        );\n    }\n    function addProduct(uint storeIndex, string name, string description, uint price, uint quantity) public  returns(uint){\n          \n          userStores[msg.sender][storeIndex].products.push(Product(name, description, price, quantity));\n          //get public index of product\n          uint publicIndex = userStores[msg.sender][storeIndex].publicIndex;\n          //add product to public store\n          publicStore[\"public\"][publicIndex].products.push(Product(name, description, price, quantity));\n          \n          return userStores[msg.sender][storeIndex].products.length;\n    }\n    \n    function editProduct(uint storeIndex, uint productIndex, string productName, string description, uint price, uint quantity) public  returns(bool) {\n         userStores[msg.sender][storeIndex].products[productIndex].name = productName;\n         userStores[msg.sender][storeIndex].products[productIndex].description = description;\n         userStores[msg.sender][storeIndex].products[productIndex].price = price;\n         userStores[msg.sender][storeIndex].products[productIndex].quantity = quantity; \n         \n         //get public index of product\n         uint publicIndex = userStores[msg.sender][storeIndex].publicIndex;\n         \n         //\n         publicStore[\"public\"][publicIndex].products[productIndex].name = productName;\n         publicStore[\"public\"][publicIndex].products[productIndex].description = description;\n         publicStore[\"public\"][publicIndex].products[productIndex].price = price;\n         publicStore[\"public\"][publicIndex].products[productIndex].quantity = quantity; \n         \n         return true;\n    }\n    \n    function deleteProduct(uint storeIndex, uint productIndex_to_delete) public returns(bool) {\n           require(storeIndex < userStores[msg.sender].length && productIndex_to_delete < userStores[msg.sender][storeIndex].products.length);\n           \n           uint productsLength = userStores[msg.sender][storeIndex].products.length;\n           //copy the last product to the index of the product to remove\n           userStores[msg.sender][storeIndex].products[productIndex_to_delete] = userStores[msg.sender][storeIndex].products[productsLength - 1];\n           userStores[msg.sender][storeIndex].products.length --;\n           \n          //get public index of product\n          uint publicIndex = userStores[msg.sender][storeIndex].publicIndex;\n          publicStore[\"public\"][publicIndex].products[productIndex_to_delete] = publicStore[\"public\"][publicIndex].products[productsLength - 1];\n          publicStore[\"public\"][publicIndex].products.length --;\n          \n          return true;\n    } \n    \n   \n    \n}\n",
  "sourcePath": "/Users/yusufkelo/Documents/DEVELOPER/ETHEREAUM/blockchain-market/market-place/contracts/MarketPlace.sol",
  "compiler": {
    "name": "solc",
    "version": "0.4.24+commit.e67f0147.Emscripten.clang"
  },
  "schemaVersion": "2.0.0",
  "updatedAt": "2018-07-28T11:55:56.676Z"
}