{
  "contractName": "MarketPlace",
  "abi": [
    {
      "constant": true,
      "inputs": [],
      "name": "getPendingVendors",
      "outputs": [
        {
          "name": "",
          "type": "uint256"
        }
      ],
      "payable": false,
      "stateMutability": "view",
      "type": "function"
    },
    {
      "constant": true,
      "inputs": [
        {
          "name": "index",
          "type": "uint256"
        }
      ],
      "name": "getPendingVendorByIndex",
      "outputs": [
        {
          "name": "",
          "type": "string"
        },
        {
          "name": "",
          "type": "string"
        },
        {
          "name": "",
          "type": "string"
        },
        {
          "name": "",
          "type": "uint256"
        },
        {
          "name": "",
          "type": "address"
        }
      ],
      "payable": false,
      "stateMutability": "view",
      "type": "function"
    },
    {
      "constant": true,
      "inputs": [
        {
          "name": "accountIndex",
          "type": "uint256"
        }
      ],
      "name": "getVendorStoreCountPublic",
      "outputs": [
        {
          "name": "",
          "type": "uint256"
        },
        {
          "name": "",
          "type": "uint256"
        }
      ],
      "payable": false,
      "stateMutability": "view",
      "type": "function"
    },
    {
      "constant": true,
      "inputs": [
        {
          "name": "storeIndex",
          "type": "uint256"
        },
        {
          "name": "productId",
          "type": "uint256"
        }
      ],
      "name": "getProduct",
      "outputs": [
        {
          "name": "",
          "type": "bytes32"
        },
        {
          "name": "",
          "type": "bytes32"
        },
        {
          "name": "",
          "type": "uint256"
        },
        {
          "name": "",
          "type": "uint256"
        },
        {
          "name": "",
          "type": "uint256"
        }
      ],
      "payable": false,
      "stateMutability": "view",
      "type": "function"
    },
    {
      "constant": false,
      "inputs": [
        {
          "name": "storeIndex",
          "type": "uint256"
        },
        {
          "name": "productName",
          "type": "bytes32"
        },
        {
          "name": "description",
          "type": "bytes32"
        },
        {
          "name": "price",
          "type": "uint256"
        }
      ],
      "name": "createProduct",
      "outputs": [
        {
          "name": "",
          "type": "uint256"
        }
      ],
      "payable": false,
      "stateMutability": "nonpayable",
      "type": "function"
    },
    {
      "constant": false,
      "inputs": [
        {
          "name": "_name",
          "type": "string"
        },
        {
          "name": "_email",
          "type": "string"
        },
        {
          "name": "_phone",
          "type": "string"
        }
      ],
      "name": "requestVendorAccount",
      "outputs": [
        {
          "name": "",
          "type": "bool"
        }
      ],
      "payable": false,
      "stateMutability": "nonpayable",
      "type": "function"
    },
    {
      "constant": true,
      "inputs": [],
      "name": "getPendingVendorsCount",
      "outputs": [
        {
          "name": "",
          "type": "uint256"
        }
      ],
      "payable": false,
      "stateMutability": "view",
      "type": "function"
    },
    {
      "constant": true,
      "inputs": [
        {
          "name": "accountIndex",
          "type": "uint256"
        },
        {
          "name": "storeIndex",
          "type": "uint256"
        }
      ],
      "name": "getStorePublic",
      "outputs": [
        {
          "name": "",
          "type": "bytes32"
        },
        {
          "name": "",
          "type": "bytes32"
        }
      ],
      "payable": false,
      "stateMutability": "view",
      "type": "function"
    },
    {
      "constant": true,
      "inputs": [],
      "name": "getApprovedVendorsCount",
      "outputs": [
        {
          "name": "",
          "type": "uint256"
        }
      ],
      "payable": false,
      "stateMutability": "view",
      "type": "function"
    },
    {
      "constant": true,
      "inputs": [
        {
          "name": "account",
          "type": "address"
        }
      ],
      "name": "getVendorByAddress",
      "outputs": [
        {
          "name": "",
          "type": "string"
        },
        {
          "name": "",
          "type": "string"
        },
        {
          "name": "",
          "type": "string"
        },
        {
          "name": "",
          "type": "uint256"
        },
        {
          "name": "",
          "type": "address"
        }
      ],
      "payable": false,
      "stateMutability": "view",
      "type": "function"
    },
    {
      "constant": false,
      "inputs": [
        {
          "name": "storeIndex",
          "type": "uint256"
        },
        {
          "name": "productId",
          "type": "uint256"
        },
        {
          "name": "productName",
          "type": "bytes32"
        },
        {
          "name": "description",
          "type": "bytes32"
        },
        {
          "name": "price",
          "type": "uint256"
        }
      ],
      "name": "editProduct",
      "outputs": [
        {
          "name": "",
          "type": "bool"
        }
      ],
      "payable": false,
      "stateMutability": "nonpayable",
      "type": "function"
    },
    {
      "constant": false,
      "inputs": [
        {
          "name": "name",
          "type": "string"
        },
        {
          "name": "account",
          "type": "address"
        },
        {
          "name": "role",
          "type": "uint256"
        }
      ],
      "name": "createAdminUser",
      "outputs": [
        {
          "name": "",
          "type": "bool"
        }
      ],
      "payable": false,
      "stateMutability": "nonpayable",
      "type": "function"
    },
    {
      "constant": true,
      "inputs": [],
      "name": "getVendorAccountsWithListedStoresCount",
      "outputs": [
        {
          "name": "",
          "type": "uint256"
        }
      ],
      "payable": false,
      "stateMutability": "view",
      "type": "function"
    },
    {
      "constant": true,
      "inputs": [
        {
          "name": "index",
          "type": "uint256"
        }
      ],
      "name": "getApprovedVendorByIndex",
      "outputs": [
        {
          "name": "",
          "type": "string"
        },
        {
          "name": "",
          "type": "string"
        },
        {
          "name": "",
          "type": "string"
        },
        {
          "name": "",
          "type": "uint256"
        },
        {
          "name": "",
          "type": "address"
        }
      ],
      "payable": false,
      "stateMutability": "view",
      "type": "function"
    },
    {
      "constant": true,
      "inputs": [
        {
          "name": "storeIndex",
          "type": "uint256"
        }
      ],
      "name": "getProductsIds",
      "outputs": [
        {
          "name": "",
          "type": "uint256[]"
        }
      ],
      "payable": false,
      "stateMutability": "view",
      "type": "function"
    },
    {
      "constant": true,
      "inputs": [
        {
          "name": "storeIndex",
          "type": "uint256"
        }
      ],
      "name": "getStorePrivate",
      "outputs": [
        {
          "name": "",
          "type": "bytes32"
        },
        {
          "name": "",
          "type": "bytes32"
        }
      ],
      "payable": false,
      "stateMutability": "view",
      "type": "function"
    },
    {
      "constant": false,
      "inputs": [
        {
          "name": "storeIndex",
          "type": "uint256"
        }
      ],
      "name": "deleteStore",
      "outputs": [
        {
          "name": "",
          "type": "bool"
        }
      ],
      "payable": false,
      "stateMutability": "nonpayable",
      "type": "function"
    },
    {
      "constant": true,
      "inputs": [],
      "name": "getAdminUsersCount",
      "outputs": [
        {
          "name": "",
          "type": "uint256"
        }
      ],
      "payable": false,
      "stateMutability": "view",
      "type": "function"
    },
    {
      "constant": true,
      "inputs": [
        {
          "name": "storeIndex",
          "type": "uint256"
        }
      ],
      "name": "getProductsCount",
      "outputs": [
        {
          "name": "",
          "type": "uint256"
        }
      ],
      "payable": false,
      "stateMutability": "view",
      "type": "function"
    },
    {
      "constant": true,
      "inputs": [],
      "name": "getUserStoreCount",
      "outputs": [
        {
          "name": "",
          "type": "uint256"
        }
      ],
      "payable": false,
      "stateMutability": "view",
      "type": "function"
    },
    {
      "constant": false,
      "inputs": [
        {
          "name": "account",
          "type": "address"
        }
      ],
      "name": "approveVendorAccount",
      "outputs": [
        {
          "name": "",
          "type": "bool"
        }
      ],
      "payable": false,
      "stateMutability": "nonpayable",
      "type": "function"
    },
    {
      "constant": false,
      "inputs": [
        {
          "name": "storeIndex",
          "type": "uint256"
        },
        {
          "name": "productId",
          "type": "uint256"
        }
      ],
      "name": "deleteProduct",
      "outputs": [
        {
          "name": "",
          "type": "bool"
        }
      ],
      "payable": false,
      "stateMutability": "nonpayable",
      "type": "function"
    },
    {
      "constant": true,
      "inputs": [
        {
          "name": "index",
          "type": "uint256"
        }
      ],
      "name": "getAdminUserByIndex",
      "outputs": [
        {
          "name": "",
          "type": "string"
        },
        {
          "name": "",
          "type": "uint256"
        },
        {
          "name": "",
          "type": "address"
        }
      ],
      "payable": false,
      "stateMutability": "view",
      "type": "function"
    },
    {
      "constant": true,
      "inputs": [
        {
          "name": "account",
          "type": "address"
        }
      ],
      "name": "getAdminUserByAddress",
      "outputs": [
        {
          "name": "",
          "type": "string"
        },
        {
          "name": "",
          "type": "uint256"
        },
        {
          "name": "",
          "type": "address"
        }
      ],
      "payable": false,
      "stateMutability": "view",
      "type": "function"
    },
    {
      "constant": true,
      "inputs": [],
      "name": "getUserRole",
      "outputs": [
        {
          "name": "",
          "type": "uint256"
        }
      ],
      "payable": false,
      "stateMutability": "view",
      "type": "function"
    },
    {
      "constant": false,
      "inputs": [
        {
          "name": "storeIndex",
          "type": "uint256"
        },
        {
          "name": "storeName",
          "type": "bytes32"
        },
        {
          "name": "description",
          "type": "bytes32"
        }
      ],
      "name": "editStore",
      "outputs": [
        {
          "name": "",
          "type": "bool"
        }
      ],
      "payable": false,
      "stateMutability": "nonpayable",
      "type": "function"
    },
    {
      "constant": false,
      "inputs": [
        {
          "name": "storeName",
          "type": "bytes32"
        },
        {
          "name": "description",
          "type": "bytes32"
        }
      ],
      "name": "createStore",
      "outputs": [
        {
          "name": "",
          "type": "uint256"
        }
      ],
      "payable": false,
      "stateMutability": "nonpayable",
      "type": "function"
    }
  ],
  "bytecode": "0x60806040526200001764010000000062000069810204565b60408051808201909152600581527f4f776e6572000000000000000000000000000000000000000000000000000000602082015262000062903360006401000000006200007d810204565b506200041b565b60008054600160a060020a03191633179055565b60008054600160a060020a031633146200009657600080fd5b6000826005811115620000a557fe5b6005811115620000b157fe5b146200014457604080517f08c379a000000000000000000000000000000000000000000000000000000000815260206004820152602760248201527f544845205350454349464945442041444d494e20524f4c4520444f4553204e4f60448201527f5420455849535400000000000000000000000000000000000000000000000000606482015290519081900360840190fd5b6200015a84848464010000000062000162810204565b949350505050565b60008054600160a060020a031633146200017b57600080fd5b6080604051908101604052808581526020018360058111156200019a57fe5b6005811115620001a657fe5b8152600160a060020a03851660208083018290526001604093840152600091825260048152919020825180519192620001e59284929091019062000376565b50602082015160018083018054909160ff19909116908360058111156200020857fe5b021790555060408281015160019092018054606090940151151575010000000000000000000000000000000000000000000260a860020a60ff0219600160a060020a039094166101000261010060a860020a031990951694909417929092169290921790558051608081019091528481526005906020810184838111156200028c57fe5b60058111156200029857fe5b8152600160a060020a03861660208083019190915260016040909201829052835491820180855560009485529381902083518051600290940290910192620002e4928492019062000376565b50602082015160018083018054909160ff19909116908360058111156200030757fe5b0217905550604082015160019182018054606090940151151575010000000000000000000000000000000000000000000260a860020a60ff0219600160a060020a039093166101000261010060a860020a03199095169490941791909116929092179091559150509392505050565b828054600181600116156101000203166002900490600052602060002090601f016020900481019282601f10620003b957805160ff1916838001178555620003e9565b82800160010185558215620003e9579182015b82811115620003e9578251825591602001919060010190620003cc565b50620003f7929150620003fb565b5090565b6200041891905b80821115620003f7576000815560010162000402565b90565b6127b3806200042b6000396000f30060806040526004361061015e5763ffffffff7c010000000000000000000000000000000000000000000000000000000060003504166306667429811461016357806306cfcb861461018a57806317a580231461030657806324f346ab1461033757806326614a7e1461037d57806328617c7c1461039e578063340cffbe146101635780633a8fa895146104875780633d055963146104a257806343defc10146104b75780634406788e146104d857806354062143146104fc578063543c73f51461056657806358e991751461057b57806360b6fcd7146105935780637105306a146105fb5780637cc69325146106135780637f2669041461062b578063892c45f9146106405780638f0c0f361461065857806399dcec851461066d578063a1c48cc41461068e578063a93e999d146106a9578063bb3fac1414610759578063bf04a10d1461077a578063c08ed9b11461078f578063e64a282b146107ad575b600080fd5b34801561016f57600080fd5b506101786107c8565b60408051918252519081900360200190f35b34801561019657600080fd5b506101a26004356107e5565b6040518080602001806020018060200186815260200185600160a060020a0316600160a060020a03168152602001848103845289818151815260200191508051906020019080838360005b838110156102055781810151838201526020016101ed565b50505050905090810190601f1680156102325780820380516001836020036101000a031916815260200191505b5084810383528851815288516020918201918a019080838360005b8381101561026557818101518382015260200161024d565b50505050905090810190601f1680156102925780820380516001836020036101000a031916815260200191505b50848103825287518152875160209182019189019080838360005b838110156102c55781810151838201526020016102ad565b50505050905090810190601f1680156102f25780820380516001836020036101000a031916815260200191505b509850505050505050505060405180910390f35b34801561031257600080fd5b5061031e600435610ac5565b6040805192835260208301919091528051918290030190f35b34801561034357600080fd5b50610352600435602435610b0b565b6040805195865260208601949094528484019290925260608401526080830152519081900360a00190f35b34801561038957600080fd5b50610178600435602435604435606435610bd4565b3480156103aa57600080fd5b506040805160206004803580820135601f810184900484028501840190955284845261047394369492936024939284019190819084018382808284375050604080516020601f89358b018035918201839004830284018301909452808352979a99988101979196509182019450925082915084018382808284375050604080516020601f89358b018035918201839004830284018301909452808352979a999881019791965091820194509250829150840183828082843750949750610d0a9650505050505050565b604080519115158252519081900360200190f35b34801561049357600080fd5b5061031e600435602435610eee565b3480156104ae57600080fd5b50610178610f7e565b3480156104c357600080fd5b506101a2600160a060020a0360043516610f94565b3480156104e457600080fd5b50610473600435602435604435606435608435611081565b34801561050857600080fd5b506040805160206004803580820135601f810184900484028501840190955284845261047394369492936024939284019190819084018382808284375094975050508335600160a060020a0316945050506020909101359050611148565b34801561057257600080fd5b5061017861122a565b34801561058757600080fd5b506101a2600435611230565b34801561059f57600080fd5b506105ab600435611334565b60408051602080825283518183015283519192839290830191858101910280838360005b838110156105e75781810151838201526020016105cf565b505050509050019250505060405180910390f35b34801561060757600080fd5b5061031e6004356113ba565b34801561061f57600080fd5b506104736004356113d0565b34801561063757600080fd5b5061017861156f565b34801561064c57600080fd5b5061017860043561159b565b34801561066457600080fd5b506101786115d0565b34801561067957600080fd5b50610473600160a060020a03600435166115e3565b34801561069a57600080fd5b5061047360043560243561166f565b3480156106b557600080fd5b506106c160043561180e565b604051808060200184815260200183600160a060020a0316600160a060020a03168152602001828103825285818151815260200191508051906020019080838360005b8381101561071c578181015183820152602001610704565b50505050905090810190601f1680156107495780820380516001836020036101000a031916815260200191505b5094505050505060405180910390f35b34801561076557600080fd5b506106c1600160a060020a0360043516611966565b34801561078657600080fd5b50610178611a60565b34801561079b57600080fd5b50610473600435602435604435611aff565b3480156107b957600080fd5b50610178600435602435611b69565b6007546000908110156107de57506007546107e2565b5060005b90565b60608060606000806007805490508610151561084b576040805160e560020a62461bcd02815260206004820152600d60248201527f496e76616c696420696e64657800000000000000000000000000000000000000604482015290519081900360640190fd5b600780548790811061085957fe5b906000526020600020906007020160000160078781548110151561087957fe5b906000526020600020906007020160010160078881548110151561089957fe5b90600052602060002090600702016002016007898154811015156108b957fe5b600091825260209091206003600790920201015460ff1660018111156108db57fe5b600780548b9081106108e957fe5b600091825260209182902060079190910201600301548554604080516002610100600185161581026000190190941604601f810186900486028201860190925281815291909204600160a060020a0316929091879183018282801561098f5780601f106109645761010080835404028352916020019161098f565b820191906000526020600020905b81548152906001019060200180831161097257829003601f168201915b5050875460408051602060026001851615610100026000190190941693909304601f8101849004840282018401909252818152959a5089945092508401905082828015610a1d5780601f106109f257610100808354040283529160200191610a1d565b820191906000526020600020905b815481529060010190602001808311610a0057829003601f168201915b5050865460408051602060026001851615610100026000190190941693909304601f810184900484028201840190925281815295995088945092508401905082828015610aab5780601f10610a8057610100808354040283529160200191610aab565b820191906000526020600020905b815481529060010190602001808311610a8e57829003601f168201915b505050505092509450945094509450945091939590929450565b6000808260016000600286815481101515610adc57fe5b6000918252602080832090910154600160a060020a031683528201929092526040019020549092509050915091565b3360009081526001602052604081208054829182918291829188908110610b2e57fe5b6000918252602080832089845260056006909302019190910181526040808320543384526001909252909120805489908110610b6657fe5b600091825260208083208a845260056006909302019190910181526040808320600190810154338552925290912080548a908110610ba057fe5b600091825260208083208b845260056006909302019190910190526040902060020154919990989197965090945092505050565b33600090815260016020526040812080548291829188908110610bf357fe5b60009182526020808320600360069093020191909101543383526001909152604090912080549193509088908110610c2757fe5b600091825260208083206004600690930201919091018054600190810191829055338452909152604090912080549192509088908110610c6357fe5b6000918252602080832060036006909302019190910180546001818101835591845282842001849055604080516080810182528a81528084018a905280820189905260608101879052338552919092529120805489908110610cc157fe5b6000918252602080832094835260069190910290930160050183526040908190208251815592820151600184015581015160028301556060015160039091015595945050505050565b3360009081526006602052604081206003015460a860020a900460ff1615610d7c576040805160e560020a62461bcd02815260206004820152601560248201527f5245515545535420495320494e2050524f434553530000000000000000000000604482015290519081900360640190fd5b6040805161012081018252858152602081018590529081018390526060810160008152336020820152600160408201526007546060820152608001610dbf611c9e565b815260046020918201523360009081526006825260409020825180519192610dec92849290910190612436565b506020828101518051610e059260018501920190612436565b5060408201518051610e21916002840191602090910190612436565b50606082015160038201805460ff191660018381811115610e3e57fe5b0217905550608082015160038201805460a085015174ffffffffffffffffffffffffffffffffffffffff0019909116610100600160a060020a0390941684021760a860020a60ff02191660a860020a9115159190910217905560c0830151600483015560e0830151600580840191909155908301516006830180549192909160ff1916906001908490811115610ed057fe5b0217905550905050610ee3848484611ca4565b506001949350505050565b600254600090819084108015610f3b5750600060016000600287815481101515610f1457fe5b6000918252602080832090910154600160a060020a03168352820192909252604001902054115b1515610f4657600080fd5b610f73600285815481101515610f5857fe5b600091825260209091200154600160a060020a031684611e24565b915091509250929050565b6008546000908110156107de57506008546107e2565b600160a060020a0381166000908152600660205260408120600301546060918291829190819060a860020a900460ff161515610fcf57600080fd5b600160a060020a03861660009081526006602052604090206003810154600180830191600284019160ff9091169081111561100657fe5b600160a060020a038a811660009081526006602090815260409182902060030154875483516002610100600184161581026000190190931604601f810185900485028201850190955284815291049093169291879183018282801561098f5780601f106109645761010080835404028352916020019161098f565b33600090815260016020526040812080548591908890811061109f57fe5b60009182526020808320898452600560069093020191909101815260408083209390935533825260019052208054849190889081106110da57fe5b60009182526020808320898452600560069093020191909101815260408083206001908101949094553383529290522080548391908890811061111957fe5b600091825260208083208984526005600690930201919091019052604090206002015550600195945050505050565b60008054600160a060020a0316331461116057600080fd5b600182600581111561116e57fe5b600581111561117957fe5b148061119b5750600282600581111561118e57fe5b600581111561119957fe5b145b1515611217576040805160e560020a62461bcd02815260206004820152602760248201527f544845205350454349464945442041444d494e20524f4c4520444f4553204e4f60448201527f5420455849535400000000000000000000000000000000000000000000000000606482015290519081900360840190fd5b611222848484611e9d565b949350505050565b60025490565b606080606060008060088054905086101515611296576040805160e560020a62461bcd02815260206004820152600d60248201527f496e76616c696420696e64657800000000000000000000000000000000000000604482015290519081900360640190fd5b60088054879081106112a457fe5b90600052602060002090600702016000016008878154811015156112c457fe5b90600052602060002090600702016001016008888154811015156112e457fe5b906000526020600020906007020160020160088981548110151561130457fe5b600091825260209091206003600790920201015460ff16600181111561132657fe5b600880548b9081106108e957fe5b3360009081526001602052604090208054606091908390811061135357fe5b90600052602060002090600602016003018054806020026020016040519081016040528092919081815260200182805480156113ae57602002820191906000526020600020905b81548152602001906001019080831161139a575b50505050509050919050565b6000806113c73384611e24565b91509150915091565b3360009081526001602052604081205482106113eb57600080fd5b3360009081526001602052604090208054600019810190811061140a57fe5b60009182526020808320338452600190915260409092208054600690920290920191908490811061143757fe5b60009182526020909120825460069092020190815560018083015490820155600280830154908201556003808301805461147492840191906124b4565b5060049182015491015533600090815260016020526040902080549061149e9060001983016124f4565b50336000908152600160205260409020541515611567576002805460001981019081106114c757fe5b6000918252602080832090910154338352600390915260409091206001015460028054600160a060020a0390931692909190811061150157fe5b6000918252602090912001805473ffffffffffffffffffffffffffffffffffffffff1916600160a060020a0392909216919091179055600280549061154a906000198301612525565b50336000908152600360205260408120805460ff19168155600101555b506001919050565b60008054600160a060020a0316331461158757600080fd5b600554600010156107de57506005546107e2565b3360009081526001602052604081208054839081106115b657fe5b600091825260209091206003600690920201015492915050565b3360009081526001602052604090205490565b600160a060020a03811660009081526006602052604081206003015460a860020a900460ff16151560011461161757600080fd5b600160a060020a03821660009081526006602081905260409091206003808201805460ff19908116600117909155919092018054909116909117905561165c8261209c565b5061166682612295565b50600192915050565b3360009081526001602052604081208054829182918690811061168e57fe5b6000918252602080832087845260056006909302019190910181526040808320600301543384526001909252909120805491935090869081106116cd57fe5b60009182526020808320878452600560069093020191909101815260408083208381556001808201859055600282018590556003909101849055338452909152902080548690811061171b57fe5b6000918252602080832060036006909302019190910154338352600190915260409091208054919250908690811061174f57fe5b90600052602060002090600602016003016001820381548110151561177057fe5b60009182526020808320909101543383526001909152604090912080548790811061179757fe5b9060005260206000209060060201600301838154811015156117b557fe5b60009182526020808320909101929092553381526001909152604090208054869081106117de57fe5b90600052602060002090600602016003018054809190600190036118029190612525565b50600195945050505050565b60008054606091908190600160a060020a0316331461182c57600080fd5b600554841061183a57600080fd5b600580548590811061184857fe5b906000526020600020906002020160000160058581548110151561186857fe5b600091825260209091206001600290920201015460ff16600581111561188a57fe5b600580548790811061189857fe5b906000526020600020906002020160010160019054906101000a9004600160a060020a0316828054600181600116156101000203166002900480601f0160208091040260200160405190810160405280929190818152602001828054600181600116156101000203166002900480156119525780601f1061192757610100808354040283529160200191611952565b820191906000526020600020905b81548152906001019060200180831161193557829003601f168201915b505050505092509250925092509193909250565b60008054606091908190600160a060020a0316331461198457600080fd5b600160a060020a03841660009081526004602052604090206001015460a860020a900460ff1615156119b557600080fd5b600160a060020a0384166000908152600460205260409020600181015460ff1660058111156119e057fe5b600160a060020a038681166000908152600460209081526040918290206001908101548654845160026101009483161585026000190190921691909104601f8101859004850282018501909552848152919004909316929185918301828280156119525780601f1061192757610100808354040283529160200191611952565b3360009081526006602052604081206003015460a860020a900460ff16151560011415611ab057336000908152600660208190526040909120015460ff166005811115611aa957fe5b90506107e2565b33600090815260046020526040902060019081015460a860020a900460ff1615151415611af8573360009081526004602052604090206001015460ff166005811115611aa957fe5b6005611aa9565b336000908152600160205260408120805484919086908110611b1d57fe5b60009182526020808320600690920290910192909255338152600190915260409020805483919086908110611b4e57fe5b60009182526020909120600160069092020101559392505050565b6000611b73612549565b838152602080820184815233600090815260018084526040808320805480840180835591855293869020875160069095020193845593519183019190915584015160028201556060840151805192938593611bd49260038501920190612576565b5060809190910151600490910155503360009081526003602052604090205460ff161515611c8657604080518082018252600180825260028054602080850191825233600081815260039092529581209451855460ff1916901515178555905193830193909355805491820181559091527f405787fa12a823e0f2b7631cc41b3ba8828b3321ca811111fa75cd3aa3bb5ace01805473ffffffffffffffffffffffffffffffffffffffff191690911790555b50503360009081526001602052604090205492915050565b60001990565b6000600160076101206040519081016040528087815260200186815260200185815260200160006001811115611cd657fe5b8152336020820152600160408201526007546060820152608001611cf8611c9e565b8152600460209182015282546001810180855560009485529382902083518051600790930290910192611d3092849290910190612436565b506020828101518051611d499260018501920190612436565b5060408201518051611d65916002840191602090910190612436565b50606082015160038201805460ff191660018381811115611d8257fe5b0217905550608082015160038201805460a085015174ffffffffffffffffffffffffffffffffffffffff0019909116610100600160a060020a0390941684021760a860020a60ff02191660a860020a9115159190910217905560c0830151600483015560e0830151600580840191909155908301516006830180549192909160ff1916906001908490811115611e1457fe5b0217905550505050509392505050565b600160a060020a0382166000908152600160205260408120805482919084908110611e4b57fe5b60009182526020808320600690920290910154600160a060020a038716835260019091526040909120805485908110611e8057fe5b906000526020600020906006020160010154915091509250929050565b60008054600160a060020a03163314611eb557600080fd5b608060405190810160405280858152602001836005811115611ed357fe5b6005811115611ede57fe5b8152600160a060020a03851660208083018290526001604093840152600091825260048152919020825180519192611f1b92849290910190612436565b50602082015160018083018054909160ff1990911690836005811115611f3d57fe5b021790555060408281015160019092018054606090940151151560a860020a0260a860020a60ff0219600160a060020a039094166101000274ffffffffffffffffffffffffffffffffffffffff00199095169490941792909216929092179055805160808101909152848152600590602081018483811115611fbb57fe5b6005811115611fc657fe5b8152600160a060020a038616602080830191909152600160409092018290528354918201808555600094855293819020835180516002909402909101926120109284920190612436565b50602082015160018083018054909160ff199091169083600581111561203257fe5b0217905550604082015160019182018054606090940151151560a860020a0260a860020a60ff0219600160a060020a039093166101000274ffffffffffffffffffffffffffffffffffffffff00199095169490941791909116929092179091559150509392505050565b600160a060020a038116600090815260066020526040812060040154600019126120c557600080fd5b6007805460001981019081106120d757fe5b60009182526020808320600160a060020a03861684526006909152604090922060040154600780549281029093019291811061210f57fe5b9060005260206000209060070201600082018160000190805460018160011615610100020316600290046121449291906125b0565b506001820181600101908054600181600116156101000203166002900461216c9291906125b0565b50600282810180546121919284810192916000196101006001831615020116046125b0565b50600382810154908201805460ff9092169160ff1916600183818111156121b457fe5b021790555060038281018054918301805474ffffffffffffffffffffffffffffffffffffffff00191661010093849004600160a060020a031690930292909217808355905460a860020a60ff021990911660a860020a9182900460ff9081161515909202179091556004808401549083015560058084015481840155600680850154908401805491909316929160ff1990911690600190849081111561225657fe5b0217905550905050612266611c9e565b600160a060020a0383166000908152600660205260409020600401556007805490611666906000198301612624565b60088054600160a060020a03831660009081526006602052604081206005810183905560018084018086559483528154929493919260079092027ff3f7a9fe364faab93b216da50a3214154f22a0a2b415b23a84c8169e8b636ee3019161231491839185916002610100918316159190910260001901909116046125b0565b506001820181600101908054600181600116156101000203166002900461233c9291906125b0565b50600282810180546123619284810192916000196101006001831615020116046125b0565b50600382810154908201805460ff9092169160ff19166001838181111561238457fe5b021790555060038281018054918301805474ffffffffffffffffffffffffffffffffffffffff00191661010093849004600160a060020a031690930292909217808355905460a860020a60ff021990911660a860020a9182900460ff9081161515909202179091556004808401549083015560058084015481840155600680850154908401805491909316929160ff1990911690600190849081111561242657fe5b0217905550600195945050505050565b828054600181600116156101000203166002900490600052602060002090601f016020900481019282601f1061247757805160ff19168380011785556124a4565b828001600101855582156124a4579182015b828111156124a4578251825591602001919060010190612489565b506124b0929150612650565b5090565b8280548282559060005260206000209081019282156124a45760005260206000209182015b828111156124a45782548255916001019190600101906124d9565b81548183558181111561252057600602816006028360005260206000209182019101612520919061266a565b505050565b81548183558181111561252057600083815260209020612520918101908301612650565b6040805160a081018252600080825260208201819052918101829052606080820152608081019190915290565b8280548282559060005260206000209081019282156124a457916020028201828111156124a4578251825591602001919060010190612489565b828054600181600116156101000203166002900490600052602060002090601f016020900481019282601f106125e957805485556124a4565b828001600101855582156124a457600052602060002091601f01602090048201828111156124a45782548255916001019190600101906124d9565b8154818355818111156125205760070281600702836000526020600020918201910161252091906126a8565b6107e291905b808211156124b05760008155600101612656565b6107e291905b808211156124b057600080825560018201819055600282018190556126986003830182612722565b5060006004820155600601612670565b6107e291905b808211156124b05760006126c28282612743565b6126d0600183016000612743565b6126de600283016000612743565b5060038101805475ffffffffffffffffffffffffffffffffffffffffffff19169055600060048201819055600582015560068101805460ff191690556007016126ae565b50805460008255906000526020600020908101906127409190612650565b50565b50805460018160011615610100020316600290046000825580601f106127695750612740565b601f01602090049060005260206000209081019061274091906126505600a165627a7a7230582067178c9b26a3b7fff991a66ca8b8f965bdbdf2b6e6fd6c2f8ca81e74da518cb40029",
  "source": "pragma solidity ^0.4.18;\nimport \"./StoreManager.sol\";\nimport \"./ProductManager.sol\";\nimport './UserManager.sol';\nimport \"./Ownerble.sol\";\n\ncontract MarketPlace is Ownerble, StoreManager, ProductManager,\nUserManager {\n    \n    \n\n}\n\n",
  "sourcePath": "/Users/yusufkelo/Documents/DEVELOPER/ETHEREAUM/blockchain-market/market-place/contracts/MarketPlace.sol",
  "compiler": {
    "name": "solc",
    "version": "0.4.24+commit.e67f0147.Emscripten.clang"
  },
  "schemaVersion": "2.0.0",
  "updatedAt": "2018-08-03T21:31:24.386Z"
}