{
  "contractName": "MarketPlace",
  "abi": [
    {
      "constant": true,
      "inputs": [],
      "name": "getApprovedIndex_P",
      "outputs": [
        {
          "name": "",
          "type": "int256"
        }
      ],
      "payable": false,
      "stateMutability": "view",
      "type": "function"
    },
    {
      "constant": true,
      "inputs": [],
      "name": "getPendingVendors",
      "outputs": [
        {
          "name": "",
          "type": "uint256"
        }
      ],
      "payable": false,
      "stateMutability": "view",
      "type": "function"
    },
    {
      "constant": true,
      "inputs": [
        {
          "name": "index",
          "type": "uint256"
        }
      ],
      "name": "getPendingVendorByIndex",
      "outputs": [
        {
          "name": "",
          "type": "string"
        },
        {
          "name": "",
          "type": "string"
        },
        {
          "name": "",
          "type": "string"
        },
        {
          "name": "",
          "type": "uint256"
        },
        {
          "name": "",
          "type": "address"
        }
      ],
      "payable": false,
      "stateMutability": "view",
      "type": "function"
    },
    {
      "constant": true,
      "inputs": [
        {
          "name": "",
          "type": "address"
        }
      ],
      "name": "userStoresCount",
      "outputs": [
        {
          "name": "",
          "type": "uint256"
        }
      ],
      "payable": false,
      "stateMutability": "view",
      "type": "function"
    },
    {
      "constant": false,
      "inputs": [
        {
          "name": "_name",
          "type": "string"
        },
        {
          "name": "_email",
          "type": "string"
        },
        {
          "name": "_phone",
          "type": "string"
        }
      ],
      "name": "requestVendorAccount",
      "outputs": [
        {
          "name": "",
          "type": "bool"
        }
      ],
      "payable": false,
      "stateMutability": "nonpayable",
      "type": "function"
    },
    {
      "constant": true,
      "inputs": [],
      "name": "getPendingVendorsCount",
      "outputs": [
        {
          "name": "",
          "type": "uint256"
        }
      ],
      "payable": false,
      "stateMutability": "view",
      "type": "function"
    },
    {
      "constant": true,
      "inputs": [],
      "name": "getApprovedVendorsCount",
      "outputs": [
        {
          "name": "",
          "type": "uint256"
        }
      ],
      "payable": false,
      "stateMutability": "view",
      "type": "function"
    },
    {
      "constant": true,
      "inputs": [
        {
          "name": "account",
          "type": "address"
        }
      ],
      "name": "getVendorByAddress",
      "outputs": [
        {
          "name": "",
          "type": "string"
        },
        {
          "name": "",
          "type": "string"
        },
        {
          "name": "",
          "type": "string"
        },
        {
          "name": "",
          "type": "uint256"
        },
        {
          "name": "",
          "type": "address"
        }
      ],
      "payable": false,
      "stateMutability": "view",
      "type": "function"
    },
    {
      "constant": true,
      "inputs": [
        {
          "name": "index",
          "type": "uint256"
        }
      ],
      "name": "getApprovedVendorByIndex",
      "outputs": [
        {
          "name": "",
          "type": "string"
        },
        {
          "name": "",
          "type": "string"
        },
        {
          "name": "",
          "type": "string"
        },
        {
          "name": "",
          "type": "uint256"
        },
        {
          "name": "",
          "type": "address"
        }
      ],
      "payable": false,
      "stateMutability": "view",
      "type": "function"
    },
    {
      "constant": true,
      "inputs": [],
      "name": "getApprovedIndex_A",
      "outputs": [
        {
          "name": "",
          "type": "int256"
        }
      ],
      "payable": false,
      "stateMutability": "view",
      "type": "function"
    },
    {
      "constant": true,
      "inputs": [
        {
          "name": "",
          "type": "address"
        },
        {
          "name": "",
          "type": "uint256"
        }
      ],
      "name": "userStores",
      "outputs": [
        {
          "name": "name",
          "type": "string"
        },
        {
          "name": "description",
          "type": "string"
        },
        {
          "name": "balance",
          "type": "uint256"
        },
        {
          "name": "publicIndex",
          "type": "uint256"
        }
      ],
      "payable": false,
      "stateMutability": "view",
      "type": "function"
    },
    {
      "constant": false,
      "inputs": [
        {
          "name": "account",
          "type": "address"
        }
      ],
      "name": "approveVendorAccount",
      "outputs": [
        {
          "name": "",
          "type": "bool"
        }
      ],
      "payable": false,
      "stateMutability": "nonpayable",
      "type": "function"
    },
    {
      "constant": true,
      "inputs": [],
      "name": "getPendingIndex_A",
      "outputs": [
        {
          "name": "",
          "type": "int256"
        }
      ],
      "payable": false,
      "stateMutability": "view",
      "type": "function"
    },
    {
      "constant": true,
      "inputs": [],
      "name": "getPendingIndex_P",
      "outputs": [
        {
          "name": "",
          "type": "int256"
        }
      ],
      "payable": false,
      "stateMutability": "view",
      "type": "function"
    },
    {
      "inputs": [],
      "payable": false,
      "stateMutability": "nonpayable",
      "type": "constructor"
    },
    {
      "constant": true,
      "inputs": [
        {
          "name": "storeIndex",
          "type": "uint256"
        }
      ],
      "name": "getStoreProductsCount",
      "outputs": [
        {
          "name": "",
          "type": "uint256"
        }
      ],
      "payable": false,
      "stateMutability": "view",
      "type": "function"
    },
    {
      "constant": true,
      "inputs": [
        {
          "name": "storeIndex",
          "type": "uint256"
        }
      ],
      "name": "getStoreProductsCountPublic",
      "outputs": [
        {
          "name": "",
          "type": "uint256"
        }
      ],
      "payable": false,
      "stateMutability": "view",
      "type": "function"
    },
    {
      "constant": true,
      "inputs": [
        {
          "name": "storeIndex",
          "type": "uint256"
        },
        {
          "name": "productIndex",
          "type": "uint256"
        }
      ],
      "name": "getUserStoreProduct",
      "outputs": [
        {
          "name": "",
          "type": "string"
        },
        {
          "name": "",
          "type": "string"
        },
        {
          "name": "",
          "type": "uint256"
        },
        {
          "name": "",
          "type": "uint256"
        }
      ],
      "payable": false,
      "stateMutability": "view",
      "type": "function"
    },
    {
      "constant": true,
      "inputs": [
        {
          "name": "storeIndex",
          "type": "uint256"
        },
        {
          "name": "productIndex",
          "type": "uint256"
        }
      ],
      "name": "getStoreProductPublic",
      "outputs": [
        {
          "name": "",
          "type": "string"
        },
        {
          "name": "",
          "type": "string"
        },
        {
          "name": "",
          "type": "uint256"
        },
        {
          "name": "",
          "type": "uint256"
        }
      ],
      "payable": false,
      "stateMutability": "view",
      "type": "function"
    },
    {
      "constant": false,
      "inputs": [
        {
          "name": "storeIndex",
          "type": "uint256"
        },
        {
          "name": "storeName",
          "type": "string"
        },
        {
          "name": "description",
          "type": "string"
        }
      ],
      "name": "editStore",
      "outputs": [
        {
          "name": "",
          "type": "bool"
        }
      ],
      "payable": false,
      "stateMutability": "nonpayable",
      "type": "function"
    },
    {
      "constant": false,
      "inputs": [
        {
          "name": "storeName",
          "type": "string"
        },
        {
          "name": "description",
          "type": "string"
        }
      ],
      "name": "createStore",
      "outputs": [
        {
          "name": "",
          "type": "uint256"
        }
      ],
      "payable": false,
      "stateMutability": "nonpayable",
      "type": "function"
    },
    {
      "constant": false,
      "inputs": [
        {
          "name": "storeIndex",
          "type": "uint256"
        }
      ],
      "name": "deleteStore",
      "outputs": [
        {
          "name": "",
          "type": "bool"
        }
      ],
      "payable": false,
      "stateMutability": "nonpayable",
      "type": "function"
    },
    {
      "constant": true,
      "inputs": [
        {
          "name": "storeIndex",
          "type": "uint256"
        }
      ],
      "name": "getOwnStore",
      "outputs": [
        {
          "name": "",
          "type": "string"
        },
        {
          "name": "",
          "type": "string"
        },
        {
          "name": "",
          "type": "uint256"
        }
      ],
      "payable": false,
      "stateMutability": "view",
      "type": "function"
    },
    {
      "constant": true,
      "inputs": [
        {
          "name": "storeIndex",
          "type": "uint256"
        }
      ],
      "name": "getPublicStore",
      "outputs": [
        {
          "name": "",
          "type": "string"
        },
        {
          "name": "",
          "type": "string"
        }
      ],
      "payable": false,
      "stateMutability": "view",
      "type": "function"
    },
    {
      "constant": true,
      "inputs": [],
      "name": "getPublicStoreSize",
      "outputs": [
        {
          "name": "",
          "type": "uint256"
        }
      ],
      "payable": false,
      "stateMutability": "view",
      "type": "function"
    },
    {
      "constant": true,
      "inputs": [
        {
          "name": "user",
          "type": "address"
        },
        {
          "name": "storeIndex",
          "type": "uint256"
        }
      ],
      "name": "getUserStore",
      "outputs": [
        {
          "name": "",
          "type": "string"
        },
        {
          "name": "",
          "type": "string"
        },
        {
          "name": "",
          "type": "uint256"
        }
      ],
      "payable": false,
      "stateMutability": "view",
      "type": "function"
    },
    {
      "constant": false,
      "inputs": [
        {
          "name": "storeIndex",
          "type": "uint256"
        },
        {
          "name": "name",
          "type": "string"
        },
        {
          "name": "description",
          "type": "string"
        },
        {
          "name": "price",
          "type": "uint256"
        },
        {
          "name": "quantity",
          "type": "uint256"
        }
      ],
      "name": "addProduct",
      "outputs": [
        {
          "name": "",
          "type": "uint256"
        }
      ],
      "payable": false,
      "stateMutability": "nonpayable",
      "type": "function"
    },
    {
      "constant": false,
      "inputs": [
        {
          "name": "storeIndex",
          "type": "uint256"
        },
        {
          "name": "productIndex",
          "type": "uint256"
        },
        {
          "name": "productName",
          "type": "string"
        },
        {
          "name": "description",
          "type": "string"
        },
        {
          "name": "price",
          "type": "uint256"
        },
        {
          "name": "quantity",
          "type": "uint256"
        }
      ],
      "name": "editProduct",
      "outputs": [
        {
          "name": "",
          "type": "bool"
        }
      ],
      "payable": false,
      "stateMutability": "nonpayable",
      "type": "function"
    },
    {
      "constant": false,
      "inputs": [
        {
          "name": "storeIndex",
          "type": "uint256"
        },
        {
          "name": "productIndex_to_delete",
          "type": "uint256"
        }
      ],
      "name": "deleteProduct",
      "outputs": [
        {
          "name": "",
          "type": "bool"
        }
      ],
      "payable": false,
      "stateMutability": "nonpayable",
      "type": "function"
    }
  ],
  "bytecode": "0x608060405234801561001057600080fd5b506157ce80620000216000396000f30060806040526004361061016a576000357c0100000000000000000000000000000000000000000000000000000000900463ffffffff1680630141da921461016f57806301db5b481461029957806302a0de5b1461037a57806306667429146103a557806306cfcb86146103d057806307077b07146105885780630e9dca5d146105df5780631b20335d146106f157806328617c7c146107b4578063340cffbe146108c15780633c52a42e146108ec5780633d0559631461092d578063414686de1461095857806343defc101461099957806358e9917514610b6757806365487a0514610d1f5780636dca56e614610e385780637c67c40314610f625780637cc6932514610f8d578063858bb8c014610fd257806399dcec85146111125780639bbf944c1461116d578063a1c48cc414611198578063c239c789146111e7578063d4d72623146112d6578063eae2001114611301578063f16bc89c146113d2578063f66b0d261461150b575b600080fd5b34801561017b57600080fd5b506101a46004803603810190808035906020019092919080359060200190929190505050611536565b604051808060200180602001858152602001848152602001838103835287818151815260200191508051906020019080838360005b838110156101f45780820151818401526020810190506101d9565b50505050905090810190601f1680156102215780820380516001836020036101000a031916815260200191505b50838103825286818151815260200191508051906020019080838360005b8381101561025a57808201518184015260208101905061023f565b50505050905090810190601f1680156102875780820380516001836020036101000a031916815260200191505b50965050505050505060405180910390f35b3480156102a557600080fd5b5061036460048036038101908080359060200190929190803590602001908201803590602001908080601f0160208091040260200160405190810160405280939291908181526020018383808284378201915050505050509192919290803590602001908201803590602001908080601f01602080910402602001604051908101604052809392919081815260200183838082843782019150505050505091929192908035906020019092919080359060200190929190505050611991565b6040518082815260200191505060405180910390f35b34801561038657600080fd5b5061038f611c56565b6040518082815260200191505060405180910390f35b3480156103b157600080fd5b506103ba611c7f565b6040518082815260200191505060405180910390f35b3480156103dc57600080fd5b506103fb60048036038101908080359060200190929190505050611c8c565b604051808060200180602001806020018681526020018573ffffffffffffffffffffffffffffffffffffffff1673ffffffffffffffffffffffffffffffffffffffff168152602001848103845289818151815260200191508051906020019080838360005b8381101561047b578082015181840152602081019050610460565b50505050905090810190601f1680156104a85780820380516001836020036101000a031916815260200191505b50848103835288818151815260200191508051906020019080838360005b838110156104e15780820151818401526020810190506104c6565b50505050905090810190601f16801561050e5780820380516001836020036101000a031916815260200191505b50848103825287818151815260200191508051906020019080838360005b8381101561054757808201518184015260208101905061052c565b50505050905090810190601f1680156105745780820380516001836020036101000a031916815260200191505b509850505050505050505060405180910390f35b34801561059457600080fd5b506105c9600480360381019080803573ffffffffffffffffffffffffffffffffffffffff169060200190929190505050611fd1565b6040518082815260200191505060405180910390f35b3480156105eb57600080fd5b5061060a60048036038101908080359060200190929190505050611fe9565b604051808060200180602001838103835285818151815260200191508051906020019080838360005b8381101561064e578082015181840152602081019050610633565b50505050905090810190601f16801561067b5780820380516001836020036101000a031916815260200191505b50838103825284818151815260200191508051906020019080838360005b838110156106b4578082015181840152602081019050610699565b50505050905090810190601f1680156106e15780820380516001836020036101000a031916815260200191505b5094505050505060405180910390f35b3480156106fd57600080fd5b5061079e600480360381019080803590602001908201803590602001908080601f0160208091040260200160405190810160405280939291908181526020018383808284378201915050505050509192919290803590602001908201803590602001908080601f01602080910402602001604051908101604052809392919081815260200183838082843782019150505050505091929192905050506121e5565b6040518082815260200191505060405180910390f35b3480156107c057600080fd5b506108a7600480360381019080803590602001908201803590602001908080601f0160208091040260200160405190810160405280939291908181526020018383808284378201915050505050509192919290803590602001908201803590602001908080601f0160208091040260200160405190810160405280939291908181526020018383808284378201915050505050509192919290803590602001908201803590602001908080601f016020809104026020016040519081016040528093929190818152602001838380828437820191505050505050919291929050505061255d565b604051808215151515815260200191505060405180910390f35b3480156108cd57600080fd5b506108d66127e7565b6040518082815260200191505060405180910390f35b3480156108f857600080fd5b50610917600480360381019080803590602001909291905050506127f4565b6040518082815260200191505060405180910390f35b34801561093957600080fd5b5061094261285e565b6040518082815260200191505060405180910390f35b34801561096457600080fd5b506109836004803603810190808035906020019092919050505061286b565b6040518082815260200191505060405180910390f35b3480156109a557600080fd5b506109da600480360381019080803573ffffffffffffffffffffffffffffffffffffffff1690602001909291905050506128d4565b604051808060200180602001806020018681526020018573ffffffffffffffffffffffffffffffffffffffff1673ffffffffffffffffffffffffffffffffffffffff168152602001848103845289818151815260200191508051906020019080838360005b83811015610a5a578082015181840152602081019050610a3f565b50505050905090810190601f168015610a875780820380516001836020036101000a031916815260200191505b50848103835288818151815260200191508051906020019080838360005b83811015610ac0578082015181840152602081019050610aa5565b50505050905090810190601f168015610aed5780820380516001836020036101000a031916815260200191505b50848103825287818151815260200191508051906020019080838360005b83811015610b26578082015181840152602081019050610b0b565b50505050905090810190601f168015610b535780820380516001836020036101000a031916815260200191505b509850505050505050505060405180910390f35b348015610b7357600080fd5b50610b9260048036038101908080359060200190929190505050612c9c565b604051808060200180602001806020018681526020018573ffffffffffffffffffffffffffffffffffffffff1673ffffffffffffffffffffffffffffffffffffffff168152602001848103845289818151815260200191508051906020019080838360005b83811015610c12578082015181840152602081019050610bf7565b50505050905090810190601f168015610c3f5780820380516001836020036101000a031916815260200191505b50848103835288818151815260200191508051906020019080838360005b83811015610c78578082015181840152602081019050610c5d565b50505050905090810190601f168015610ca55780820380516001836020036101000a031916815260200191505b50848103825287818151815260200191508051906020019080838360005b83811015610cde578082015181840152602081019050610cc3565b50505050905090810190601f168015610d0b5780820380516001836020036101000a031916815260200191505b509850505050505050505060405180910390f35b348015610d2b57600080fd5b50610d4a60048036038101908080359060200190929190505050612fe1565b604051808060200180602001848152602001838103835286818151815260200191508051906020019080838360005b83811015610d94578082015181840152602081019050610d79565b50505050905090810190601f168015610dc15780820380516001836020036101000a031916815260200191505b50838103825285818151815260200191508051906020019080838360005b83811015610dfa578082015181840152602081019050610ddf565b50505050905090810190601f168015610e275780820380516001836020036101000a031916815260200191505b509550505050505060405180910390f35b348015610e4457600080fd5b50610e6d6004803603810190808035906020019092919080359060200190929190505050612ffd565b604051808060200180602001858152602001848152602001838103835287818151815260200191508051906020019080838360005b83811015610ebd578082015181840152602081019050610ea2565b50505050905090810190601f168015610eea5780820380516001836020036101000a031916815260200191505b50838103825286818151815260200191508051906020019080838360005b83811015610f23578082015181840152602081019050610f08565b50505050905090810190601f168015610f505780820380516001836020036101000a031916815260200191505b50965050505050505060405180910390f35b348015610f6e57600080fd5b50610f7761345e565b6040518082815260200191505060405180910390f35b348015610f9957600080fd5b50610fb860048036038101908080359060200190929190505050613487565b604051808215151515815260200191505060405180910390f35b348015610fde57600080fd5b5061101d600480360381019080803573ffffffffffffffffffffffffffffffffffffffff16906020019092919080359060200190929190505050613ac5565b604051808060200180602001858152602001848152602001838103835287818151815260200191508051906020019080838360005b8381101561106d578082015181840152602081019050611052565b50505050905090810190601f16801561109a5780820380516001836020036101000a031916815260200191505b50838103825286818151815260200191508051906020019080838360005b838110156110d35780820151818401526020810190506110b8565b50505050905090810190601f1680156111005780820380516001836020036101000a031916815260200191505b50965050505050505060405180910390f35b34801561111e57600080fd5b50611153600480360381019080803573ffffffffffffffffffffffffffffffffffffffff169060200190929190505050613c41565b604051808215151515815260200191505060405180910390f35b34801561117957600080fd5b50611182613d24565b6040518082815260200191505060405180910390f35b3480156111a457600080fd5b506111cd6004803603810190808035906020019092919080359060200190929190505050613d4d565b604051808215151515815260200191505060405180910390f35b3480156111f357600080fd5b506112bc6004803603810190808035906020019092919080359060200190929190803590602001908201803590602001908080601f0160208091040260200160405190810160405280939291908181526020018383808284378201915050505050509192919290803590602001908201803590602001908080601f0160208091040260200160405190810160405280939291908181526020018383808284378201915050505050509192919290803590602001909291908035906020019092919050505061426f565b604051808215151515815260200191505060405180910390f35b3480156112e257600080fd5b506112eb61471d565b6040518082815260200191505060405180910390f35b34801561130d57600080fd5b506113b860048036038101908080359060200190929190803590602001908201803590602001908080601f0160208091040260200160405190810160405280939291908181526020018383808284378201915050505050509192919290803590602001908201803590602001908080601f0160208091040260200160405190810160405280939291908181526020018383808284378201915050505050509192919290505050614746565b604051808215151515815260200191505060405180910390f35b3480156113de57600080fd5b5061141d600480360381019080803573ffffffffffffffffffffffffffffffffffffffff16906020019092919080359060200190929190505050614977565b604051808060200180602001848152602001838103835286818151815260200191508051906020019080838360005b8381101561146757808201518184015260208101905061144c565b50505050905090810190601f1680156114945780820380516001836020036101000a031916815260200191505b50838103825285818151815260200191508051906020019080838360005b838110156114cd5780820151818401526020810190506114b2565b50505050905090810190601f1680156114fa5780820380516001836020036101000a031916815260200191505b509550505050505060405180910390f35b34801561151757600080fd5b50611520614993565b6040518082815260200191505060405180910390f35b606080600080600460405180807f7075626c696300000000000000000000000000000000000000000000000000008152506006019050908152602001604051809103902080549050861080156115ea5750600460405180807f7075626c6963000000000000000000000000000000000000000000000000000081525060060190509081526020016040518091039020868154811015156115d257fe5b90600052602060002090600602016003018054905085105b151561165e576040517f08c379a000000000000000000000000000000000000000000000000000000000815260040180806020018281038252601c8152602001807f50524f4455435420494e44455820444f4553204e4f542045584953540000000081525060200191505060405180910390fd5b600460405180807f7075626c6963000000000000000000000000000000000000000000000000000081525060060190509081526020016040518091039020868154811015156116a957fe5b9060005260206000209060060201600301858154811015156116c757fe5b9060005260206000209060040201600001600460405180807f7075626c69630000000000000000000000000000000000000000000000000000815250600601905090815260200160405180910390208781548110151561172357fe5b90600052602060002090600602016003018681548110151561174157fe5b9060005260206000209060040201600101600460405180807f7075626c69630000000000000000000000000000000000000000000000000000815250600601905090815260200160405180910390208881548110151561179d57fe5b9060005260206000209060060201600301878154811015156117bb57fe5b906000526020600020906004020160020154600460405180807f7075626c69630000000000000000000000000000000000000000000000000000815250600601905090815260200160405180910390208981548110151561181857fe5b90600052602060002090600602016003018881548110151561183657fe5b906000526020600020906004020160030154838054600181600116156101000203166002900480601f0160208091040260200160405190810160405280929190818152602001828054600181600116156101000203166002900480156118dd5780601f106118b2576101008083540402835291602001916118dd565b820191906000526020600020905b8154815290600101906020018083116118c057829003601f168201915b50505050509350828054600181600116156101000203166002900480601f0160208091040260200160405190810160405280929190818152602001828054600181600116156101000203166002900480156119795780601f1061194e57610100808354040283529160200191611979565b820191906000526020600020905b81548152906001019060200180831161195c57829003601f168201915b50505050509250935093509350935092959194509250565b600080600560003373ffffffffffffffffffffffffffffffffffffffff1673ffffffffffffffffffffffffffffffffffffffff168152602001908152602001600020878154811015156119e057fe5b906000526020600020906006020160030160806040519081016040528088815260200187815260200186815260200185815250908060018154018082558091505090600182039060005260206000209060040201600090919290919091506000820151816000019080519060200190611a5a9291906152dc565b506020820151816001019080519060200190611a779291906152dc565b506040820151816002015560608201518160030155505050600560003373ffffffffffffffffffffffffffffffffffffffff1673ffffffffffffffffffffffffffffffffffffffff16815260200190815260200160002087815481101515611adb57fe5b9060005260206000209060060201600401549050600460405180807f7075626c696300000000000000000000000000000000000000000000000000008152506006019050908152602001604051809103902081815481101515611b3a57fe5b906000526020600020906006020160030160806040519081016040528088815260200187815260200186815260200185815250908060018154018082558091505090600182039060005260206000209060040201600090919290919091506000820151816000019080519060200190611bb49291906152dc565b506020820151816001019080519060200190611bd19291906152dc565b506040820151816002015560608201518160030155505050600560003373ffffffffffffffffffffffffffffffffffffffff1673ffffffffffffffffffffffffffffffffffffffff16815260200190815260200160002087815481101515611c3557fe5b90600052602060002090600602016003018054905091505095945050505050565b600060026000815481101515611c6857fe5b906000526020600020906006020160050154905090565b6000600280549050905090565b606080606060008060028054905086101515611d10576040517f08c379a000000000000000000000000000000000000000000000000000000000815260040180806020018281038252600d8152602001807f496e76616c696420696e6465780000000000000000000000000000000000000081525060200191505060405180910390fd5b600286815481101515611d1f57fe5b9060005260206000209060060201600001600287815481101515611d3f57fe5b9060005260206000209060060201600101600288815481101515611d5f57fe5b9060005260206000209060060201600201600289815481101515611d7f57fe5b906000526020600020906006020160030160009054906101000a900460ff166001811115611da957fe5b60028a815481101515611db857fe5b906000526020600020906006020160030160019054906101000a900473ffffffffffffffffffffffffffffffffffffffff16848054600181600116156101000203166002900480601f016020809104026020016040519081016040528092919081815260200182805460018160011615610100020316600290048015611e7f5780601f10611e5457610100808354040283529160200191611e7f565b820191906000526020600020905b815481529060010190602001808311611e6257829003601f168201915b50505050509450838054600181600116156101000203166002900480601f016020809104026020016040519081016040528092919081815260200182805460018160011615610100020316600290048015611f1b5780601f10611ef057610100808354040283529160200191611f1b565b820191906000526020600020905b815481529060010190602001808311611efe57829003601f168201915b50505050509350828054600181600116156101000203166002900480601f016020809104026020016040519081016040528092919081815260200182805460018160011615610100020316600290048015611fb75780601f10611f8c57610100808354040283529160200191611fb7565b820191906000526020600020905b815481529060010190602001808311611f9a57829003601f168201915b505050505092509450945094509450945091939590929450565b60066020528060005260406000206000915090505481565b606080600460405180807f7075626c69630000000000000000000000000000000000000000000000000000815250600601905090815260200160405180910390208381548110151561203757fe5b9060005260206000209060060201600001600460405180807f7075626c69630000000000000000000000000000000000000000000000000000815250600601905090815260200160405180910390208481548110151561209357fe5b9060005260206000209060060201600101818054600181600116156101000203166002900480601f0160208091040260200160405190810160405280929190818152602001828054600181600116156101000203166002900480156121395780601f1061210e57610100808354040283529160200191612139565b820191906000526020600020905b81548152906001019060200180831161211c57829003601f168201915b50505050509150808054600181600116156101000203166002900480601f0160208091040260200160405190810160405280929190818152602001828054600181600116156101000203166002900480156121d55780601f106121aa576101008083540402835291602001916121d5565b820191906000526020600020905b8154815290600101906020018083116121b857829003601f168201915b5050505050905091509150915091565b6000806000600660003373ffffffffffffffffffffffffffffffffffffffff1673ffffffffffffffffffffffffffffffffffffffff168152602001908152602001600020600081548092919060010191905055508482600001908051906020019061225192919061535c565b508382600101908051906020019061226a92919061535c565b5060206040519081016040528060018081111561228357fe5b8152508260050160003373ffffffffffffffffffffffffffffffffffffffff1673ffffffffffffffffffffffffffffffffffffffff16815260200190815260200160002060008201518160000160006101000a81548160ff021916908360018111156122eb57fe5b0217905550905050600460405180807f7075626c6963000000000000000000000000000000000000000000000000000081525060060190509081526020016040518091039020805490509050808260040181905550600560003373ffffffffffffffffffffffffffffffffffffffff1673ffffffffffffffffffffffffffffffffffffffff1681526020019081526020016000208290806001815401808255809150509060018203906000526020600020906006020160009091929091909150600082018160000190805460018160011615610100020316600290046123d29291906153dc565b50600182018160010190805460018160011615610100020316600290046123fa9291906153dc565b5060028201548160020155600382018160030190805461241b929190615463565b5060048201548160040155505050600460405180807f7075626c69630000000000000000000000000000000000000000000000000000815250600601905090815260200160405180910390208290806001815401808255809150509060018203906000526020600020906006020160009091929091909150600082018160000190805460018160011615610100020316600290046124ba9291906153dc565b50600182018160010190805460018160011615610100020316600290046124e29291906153dc565b50600282015481600201556003820181600301908054612503929190615463565b5060048201548160040155505050600460405180807f7075626c6963000000000000000000000000000000000000000000000000000081525060060190509081526020016040518091039020805490509250505092915050565b60008015156000803373ffffffffffffffffffffffffffffffffffffffff1673ffffffffffffffffffffffffffffffffffffffff16815260200190815260200160002060030160159054906101000a900460ff161515141515612628576040517f08c379a00000000000000000000000000000000000000000000000000000000081526004018080602001828103825260158152602001807f5245515545535420495320494e2050524f43455353000000000000000000000081525060200191505060405180910390fd5b610100604051908101604052808581526020018481526020018381526020016000600181111561265457fe5b81526020013373ffffffffffffffffffffffffffffffffffffffff16815260200160011515815260200160028054905081526020016126916149dc565b8152506000803373ffffffffffffffffffffffffffffffffffffffff1673ffffffffffffffffffffffffffffffffffffffff16815260200190815260200160002060008201518160000190805190602001906126ee9291906152dc565b50602082015181600101908051906020019061270b9291906152dc565b5060408201518160020190805190602001906127289291906152dc565b5060608201518160030160006101000a81548160ff0219169083600181111561274d57fe5b021790555060808201518160030160016101000a81548173ffffffffffffffffffffffffffffffffffffffff021916908373ffffffffffffffffffffffffffffffffffffffff16021790555060a08201518160030160156101000a81548160ff02191690831515021790555060c0820151816004015560e082015181600501559050506127db848484614a04565b50600190509392505050565b6000600280549050905090565b6000600560003373ffffffffffffffffffffffffffffffffffffffff1673ffffffffffffffffffffffffffffffffffffffff1681526020019081526020016000208281548110151561284257fe5b9060005260206000209060060201600301805490509050919050565b6000600380549050905090565b6000600460405180807f7075626c6963000000000000000000000000000000000000000000000000000081525060060190509081526020016040518091039020828154811015156128b857fe5b9060005260206000209060060201600301805490509050919050565b60608060606000806000808773ffffffffffffffffffffffffffffffffffffffff1673ffffffffffffffffffffffffffffffffffffffff16815260200190815260200160002060030160159054906101000a900460ff16151561293657600080fd5b6000808773ffffffffffffffffffffffffffffffffffffffff1673ffffffffffffffffffffffffffffffffffffffff1681526020019081526020016000206000016000808873ffffffffffffffffffffffffffffffffffffffff1673ffffffffffffffffffffffffffffffffffffffff1681526020019081526020016000206001016000808973ffffffffffffffffffffffffffffffffffffffff1673ffffffffffffffffffffffffffffffffffffffff1681526020019081526020016000206002016000808a73ffffffffffffffffffffffffffffffffffffffff1673ffffffffffffffffffffffffffffffffffffffff16815260200190815260200160002060030160009054906101000a900460ff166001811115612a5357fe5b6000808b73ffffffffffffffffffffffffffffffffffffffff1673ffffffffffffffffffffffffffffffffffffffff16815260200190815260200160002060030160019054906101000a900473ffffffffffffffffffffffffffffffffffffffff16848054600181600116156101000203166002900480601f016020809104026020016040519081016040528092919081815260200182805460018160011615610100020316600290048015612b4a5780601f10612b1f57610100808354040283529160200191612b4a565b820191906000526020600020905b815481529060010190602001808311612b2d57829003601f168201915b50505050509450838054600181600116156101000203166002900480601f016020809104026020016040519081016040528092919081815260200182805460018160011615610100020316600290048015612be65780601f10612bbb57610100808354040283529160200191612be6565b820191906000526020600020905b815481529060010190602001808311612bc957829003601f168201915b50505050509350828054600181600116156101000203166002900480601f016020809104026020016040519081016040528092919081815260200182805460018160011615610100020316600290048015612c825780601f10612c5757610100808354040283529160200191612c82565b820191906000526020600020905b815481529060010190602001808311612c6557829003601f168201915b505050505092509450945094509450945091939590929450565b606080606060008060038054905086101515612d20576040517f08c379a000000000000000000000000000000000000000000000000000000000815260040180806020018281038252600d8152602001807f496e76616c696420696e6465780000000000000000000000000000000000000081525060200191505060405180910390fd5b600386815481101515612d2f57fe5b9060005260206000209060060201600001600387815481101515612d4f57fe5b9060005260206000209060060201600101600388815481101515612d6f57fe5b9060005260206000209060060201600201600389815481101515612d8f57fe5b906000526020600020906006020160030160009054906101000a900460ff166001811115612db957fe5b60038a815481101515612dc857fe5b906000526020600020906006020160030160019054906101000a900473ffffffffffffffffffffffffffffffffffffffff16848054600181600116156101000203166002900480601f016020809104026020016040519081016040528092919081815260200182805460018160011615610100020316600290048015612e8f5780601f10612e6457610100808354040283529160200191612e8f565b820191906000526020600020905b815481529060010190602001808311612e7257829003601f168201915b50505050509450838054600181600116156101000203166002900480601f016020809104026020016040519081016040528092919081815260200182805460018160011615610100020316600290048015612f2b5780601f10612f0057610100808354040283529160200191612f2b565b820191906000526020600020905b815481529060010190602001808311612f0e57829003601f168201915b50505050509350828054600181600116156101000203166002900480601f016020809104026020016040519081016040528092919081815260200182805460018160011615610100020316600290048015612fc75780601f10612f9c57610100808354040283529160200191612fc7565b820191906000526020600020905b815481529060010190602001808311612faa57829003601f168201915b505050505092509450945094509450945091939590929450565b6060806000612ff03385614ba7565b9250925092509193909250565b606080600080600560003373ffffffffffffffffffffffffffffffffffffffff1673ffffffffffffffffffffffffffffffffffffffff16815260200190815260200160002080549050861080156130b35750600560003373ffffffffffffffffffffffffffffffffffffffff1673ffffffffffffffffffffffffffffffffffffffff1681526020019081526020016000208681548110151561309b57fe5b90600052602060002090600602016003018054905085105b1515613127576040517f08c379a000000000000000000000000000000000000000000000000000000000815260040180806020018281038252601c8152602001807f50524f4455435420494e44455820444f4553204e4f542045584953540000000081525060200191505060405180910390fd5b600560003373ffffffffffffffffffffffffffffffffffffffff1673ffffffffffffffffffffffffffffffffffffffff1681526020019081526020016000208681548110151561317357fe5b90600052602060002090600602016003018581548110151561319157fe5b9060005260206000209060040201600001600560003373ffffffffffffffffffffffffffffffffffffffff1673ffffffffffffffffffffffffffffffffffffffff168152602001908152602001600020878154811015156131ee57fe5b90600052602060002090600602016003018681548110151561320c57fe5b9060005260206000209060040201600101600560003373ffffffffffffffffffffffffffffffffffffffff1673ffffffffffffffffffffffffffffffffffffffff1681526020019081526020016000208881548110151561326957fe5b90600052602060002090600602016003018781548110151561328757fe5b906000526020600020906004020160020154600560003373ffffffffffffffffffffffffffffffffffffffff1673ffffffffffffffffffffffffffffffffffffffff168152602001908152602001600020898154811015156132e557fe5b90600052602060002090600602016003018881548110151561330357fe5b906000526020600020906004020160030154838054600181600116156101000203166002900480601f0160208091040260200160405190810160405280929190818152602001828054600181600116156101000203166002900480156133aa5780601f1061337f576101008083540402835291602001916133aa565b820191906000526020600020905b81548152906001019060200180831161338d57829003601f168201915b50505050509350828054600181600116156101000203166002900480601f0160208091040260200160405190810160405280929190818152602001828054600181600116156101000203166002900480156134465780601f1061341b57610100808354040283529160200191613446565b820191906000526020600020905b81548152906001019060200180831161342957829003601f168201915b50505050509250935093509350935092959194509250565b60006003600081548110151561347057fe5b906000526020600020906006020160050154905090565b600080600080600560003373ffffffffffffffffffffffffffffffffffffffff1673ffffffffffffffffffffffffffffffffffffffff16815260200190815260200160002080549050851015156134dd57600080fd5b600560003373ffffffffffffffffffffffffffffffffffffffff1673ffffffffffffffffffffffffffffffffffffffff1681526020019081526020016000208581548110151561352957fe5b9060005260206000209060060201600401549250600560003373ffffffffffffffffffffffffffffffffffffffff1673ffffffffffffffffffffffffffffffffffffffff1681526020019081526020016000206001600560003373ffffffffffffffffffffffffffffffffffffffff1673ffffffffffffffffffffffffffffffffffffffff16815260200190815260200160002080549050038154811015156135ce57fe5b90600052602060002090600602016004015491506001600460405180807f7075626c696300000000000000000000000000000000000000000000000000008152506006019050908152602001604051809103902080549050039050818114156136d95782600560003373ffffffffffffffffffffffffffffffffffffffff1673ffffffffffffffffffffffffffffffffffffffff1681526020019081526020016000206001600560003373ffffffffffffffffffffffffffffffffffffffff1673ffffffffffffffffffffffffffffffffffffffff16815260200190815260200160002080549050038154811015156136c357fe5b9060005260206000209060060201600401819055505b600460405180807f7075626c69630000000000000000000000000000000000000000000000000000815250600601905090815260200160405180910390206001600460405180807f7075626c6963000000000000000000000000000000000000000000000000000081525060060190509081526020016040518091039020805490500381548110151561376857fe5b9060005260206000209060060201600460405180807f7075626c6963000000000000000000000000000000000000000000000000000081525060060190509081526020016040518091039020848154811015156137c157fe5b9060005260206000209060060201600082018160000190805460018160011615610100020316600290046137f69291906153dc565b506001820181600101908054600181600116156101000203166002900461381e9291906153dc565b5060028201548160020155600382018160030190805461383f929190615463565b5060048201548160040155905050600560003373ffffffffffffffffffffffffffffffffffffffff1673ffffffffffffffffffffffffffffffffffffffff1681526020019081526020016000206001600560003373ffffffffffffffffffffffffffffffffffffffff1673ffffffffffffffffffffffffffffffffffffffff16815260200190815260200160002080549050038154811015156138de57fe5b9060005260206000209060060201600560003373ffffffffffffffffffffffffffffffffffffffff1673ffffffffffffffffffffffffffffffffffffffff1681526020019081526020016000208681548110151561393857fe5b90600052602060002090600602016000820181600001908054600181600116156101000203166002900461396d9291906153dc565b50600182018160010190805460018160011615610100020316600290046139959291906153dc565b506002820154816002015560038201816003019080546139b6929190615463565b5060048201548160040155905050600560003373ffffffffffffffffffffffffffffffffffffffff1673ffffffffffffffffffffffffffffffffffffffff168152602001908152602001600020805480919060019003613a16919061551f565b50600460405180807f7075626c6963000000000000000000000000000000000000000000000000000081525060060190509081526020016040518091039020805480919060019003613a68919061551f565b50600660003373ffffffffffffffffffffffffffffffffffffffff1673ffffffffffffffffffffffffffffffffffffffff168152602001908152602001600020600081548092919060019003919050555060019350505050919050565b600560205281600052604060002081815481101515613ae057fe5b906000526020600020906006020160009150915050806000018054600181600116156101000203166002900480601f016020809104026020016040519081016040528092919081815260200182805460018160011615610100020316600290048015613b8d5780601f10613b6257610100808354040283529160200191613b8d565b820191906000526020600020905b815481529060010190602001808311613b7057829003601f168201915b505050505090806001018054600181600116156101000203166002900480601f016020809104026020016040519081016040528092919081815260200182805460018160011615610100020316600290048015613c2b5780601f10613c0057610100808354040283529160200191613c2b565b820191906000526020600020905b815481529060010190602001808311613c0e57829003601f168201915b5050505050908060020154908060040154905084565b6000600115156000808473ffffffffffffffffffffffffffffffffffffffff1673ffffffffffffffffffffffffffffffffffffffff16815260200190815260200160002060030160159054906101000a900460ff161515141515613ca457600080fd5b60016000808473ffffffffffffffffffffffffffffffffffffffff1673ffffffffffffffffffffffffffffffffffffffff16815260200190815260200160002060030160006101000a81548160ff02191690836001811115613d0257fe5b0217905550613d1082614e09565b50613d1a826150c2565b5060019050919050565b600060036000815481101515613d3657fe5b906000526020600020906006020160040154905090565b6000806000600560003373ffffffffffffffffffffffffffffffffffffffff1673ffffffffffffffffffffffffffffffffffffffff1681526020019081526020016000208054905085108015613e025750600560003373ffffffffffffffffffffffffffffffffffffffff1673ffffffffffffffffffffffffffffffffffffffff16815260200190815260200160002085815481101515613dea57fe5b90600052602060002090600602016003018054905084105b1515613e0d57600080fd5b600560003373ffffffffffffffffffffffffffffffffffffffff1673ffffffffffffffffffffffffffffffffffffffff16815260200190815260200160002085815481101515613e5957fe5b9060005260206000209060060201600301805490509150600560003373ffffffffffffffffffffffffffffffffffffffff1673ffffffffffffffffffffffffffffffffffffffff16815260200190815260200160002085815481101515613ebc57fe5b906000526020600020906006020160030160018303815481101515613edd57fe5b9060005260206000209060040201600560003373ffffffffffffffffffffffffffffffffffffffff1673ffffffffffffffffffffffffffffffffffffffff16815260200190815260200160002086815481101515613f3757fe5b906000526020600020906006020160030185815481101515613f5557fe5b906000526020600020906004020160008201816000019080546001816001161561010002031660029004613f8a9291906153dc565b5060018201816001019080546001816001161561010002031660029004613fb29291906153dc565b506002820154816002015560038201548160030155905050600560003373ffffffffffffffffffffffffffffffffffffffff1673ffffffffffffffffffffffffffffffffffffffff1681526020019081526020016000208581548110151561401657fe5b906000526020600020906006020160030180548091906001900361403a9190615551565b50600560003373ffffffffffffffffffffffffffffffffffffffff1673ffffffffffffffffffffffffffffffffffffffff1681526020019081526020016000208581548110151561408757fe5b9060005260206000209060060201600401549050600460405180807f7075626c6963000000000000000000000000000000000000000000000000000081525060060190509081526020016040518091039020818154811015156140e657fe5b90600052602060002090600602016003016001830381548110151561410757fe5b9060005260206000209060040201600460405180807f7075626c69630000000000000000000000000000000000000000000000000000815250600601905090815260200160405180910390208281548110151561416057fe5b90600052602060002090600602016003018581548110151561417e57fe5b9060005260206000209060040201600082018160000190805460018160011615610100020316600290046141b39291906153dc565b50600182018160010190805460018160011615610100020316600290046141db9291906153dc565b506002820154816002015560038201548160030155905050600460405180807f7075626c69630000000000000000000000000000000000000000000000000000815250600601905090815260200160405180910390208181548110151561423e57fe5b90600052602060002090600602016003018054809190600190036142629190615551565b5060019250505092915050565b60008085600560003373ffffffffffffffffffffffffffffffffffffffff1673ffffffffffffffffffffffffffffffffffffffff168152602001908152602001600020898154811015156142bf57fe5b9060005260206000209060060201600301888154811015156142dd57fe5b9060005260206000209060040201600001908051906020019061430192919061535c565b5084600560003373ffffffffffffffffffffffffffffffffffffffff1673ffffffffffffffffffffffffffffffffffffffff1681526020019081526020016000208981548110151561434f57fe5b90600052602060002090600602016003018881548110151561436d57fe5b9060005260206000209060040201600101908051906020019061439192919061535c565b5083600560003373ffffffffffffffffffffffffffffffffffffffff1673ffffffffffffffffffffffffffffffffffffffff168152602001908152602001600020898154811015156143df57fe5b9060005260206000209060060201600301888154811015156143fd57fe5b90600052602060002090600402016002018190555082600560003373ffffffffffffffffffffffffffffffffffffffff1673ffffffffffffffffffffffffffffffffffffffff1681526020019081526020016000208981548110151561445f57fe5b90600052602060002090600602016003018881548110151561447d57fe5b906000526020600020906004020160030181905550600560003373ffffffffffffffffffffffffffffffffffffffff1673ffffffffffffffffffffffffffffffffffffffff168152602001908152602001600020888154811015156144de57fe5b906000526020600020906006020160040154905085600460405180807f7075626c69630000000000000000000000000000000000000000000000000000815250600601905090815260200160405180910390208281548110151561453e57fe5b90600052602060002090600602016003018881548110151561455c57fe5b9060005260206000209060040201600001908051906020019061458092919061535c565b5084600460405180807f7075626c6963000000000000000000000000000000000000000000000000000081525060060190509081526020016040518091039020828154811015156145cd57fe5b9060005260206000209060060201600301888154811015156145eb57fe5b9060005260206000209060040201600101908051906020019061460f92919061535c565b5083600460405180807f7075626c69630000000000000000000000000000000000000000000000000000815250600601905090815260200160405180910390208281548110151561465c57fe5b90600052602060002090600602016003018881548110151561467a57fe5b90600052602060002090600402016002018190555082600460405180807f7075626c6963000000000000000000000000000000000000000000000000000081525060060190509081526020016040518091039020828154811015156146db57fe5b9060005260206000209060060201600301888154811015156146f957fe5b90600052602060002090600402016003018190555060019150509695505050505050565b60006002600081548110151561472f57fe5b906000526020600020906006020160040154905090565b60008083600560003373ffffffffffffffffffffffffffffffffffffffff1673ffffffffffffffffffffffffffffffffffffffff1681526020019081526020016000208681548110151561479657fe5b906000526020600020906006020160000190805190602001906147ba92919061535c565b5082600560003373ffffffffffffffffffffffffffffffffffffffff1673ffffffffffffffffffffffffffffffffffffffff1681526020019081526020016000208681548110151561480857fe5b9060005260206000209060060201600101908051906020019061482c92919061535c565b50600560003373ffffffffffffffffffffffffffffffffffffffff1673ffffffffffffffffffffffffffffffffffffffff1681526020019081526020016000208581548110151561487957fe5b906000526020600020906006020160040154905083600460405180807f7075626c6963000000000000000000000000000000000000000000000000000081525060060190509081526020016040518091039020828154811015156148d957fe5b906000526020600020906006020160000190805190602001906148fd92919061535c565b5082600460405180807f7075626c69630000000000000000000000000000000000000000000000000000815250600601905090815260200160405180910390208281548110151561494a57fe5b9060005260206000209060060201600101908051906020019061496e92919061535c565b50509392505050565b60608060006149868585614ba7565b9250925092509250925092565b6000600460405180807f7075626c696300000000000000000000000000000000000000000000000000008152506006019050908152602001604051809103902080549050905090565b60007fffffffffffffffffffffffffffffffffffffffffffffffffffffffffffffffff905090565b6000600160026101006040519081016040528087815260200186815260200185815260200160006001811115614a3657fe5b81526020013373ffffffffffffffffffffffffffffffffffffffff1681526020016001151581526020016002805490508152602001614a736149dc565b815250908060018154018082558091505090600182039060005260206000209060060201600090919290919091506000820151816000019080519060200190614abd9291906152dc565b506020820151816001019080519060200190614ada9291906152dc565b506040820151816002019080519060200190614af79291906152dc565b5060608201518160030160006101000a81548160ff02191690836001811115614b1c57fe5b021790555060808201518160030160016101000a81548173ffffffffffffffffffffffffffffffffffffffff021916908373ffffffffffffffffffffffffffffffffffffffff16021790555060a08201518160030160156101000a81548160ff02191690831515021790555060c0820151816004015560e08201518160050155505050509392505050565b6060806000600560008673ffffffffffffffffffffffffffffffffffffffff1673ffffffffffffffffffffffffffffffffffffffff16815260200190815260200160002084815481101515614bf857fe5b9060005260206000209060060201600001600560008773ffffffffffffffffffffffffffffffffffffffff1673ffffffffffffffffffffffffffffffffffffffff16815260200190815260200160002085815481101515614c5557fe5b9060005260206000209060060201600101600560008873ffffffffffffffffffffffffffffffffffffffff1673ffffffffffffffffffffffffffffffffffffffff16815260200190815260200160002086815481101515614cb257fe5b906000526020600020906006020160040154828054600181600116156101000203166002900480601f016020809104026020016040519081016040528092919081815260200182805460018160011615610100020316600290048015614d595780601f10614d2e57610100808354040283529160200191614d59565b820191906000526020600020905b815481529060010190602001808311614d3c57829003601f168201915b50505050509250818054600181600116156101000203166002900480601f016020809104026020016040519081016040528092919081815260200182805460018160011615610100020316600290048015614df55780601f10614dca57610100808354040283529160200191614df5565b820191906000526020600020905b815481529060010190602001808311614dd857829003601f168201915b505050505091509250925092509250925092565b60007fffffffffffffffffffffffffffffffffffffffffffffffffffffffffffffffff6000808473ffffffffffffffffffffffffffffffffffffffff1673ffffffffffffffffffffffffffffffffffffffff16815260200190815260200160002060040154131515614e7a57600080fd5b6002600160028054905003815481101515614e9157fe5b906000526020600020906006020160026000808573ffffffffffffffffffffffffffffffffffffffff1673ffffffffffffffffffffffffffffffffffffffff16815260200190815260200160002060040154815481101515614eef57fe5b906000526020600020906006020160008201816000019080546001816001161561010002031660029004614f249291906153dc565b5060018201816001019080546001816001161561010002031660029004614f4c9291906153dc565b5060028201816002019080546001816001161561010002031660029004614f749291906153dc565b506003820160009054906101000a900460ff168160030160006101000a81548160ff02191690836001811115614fa657fe5b02179055506003820160019054906101000a900473ffffffffffffffffffffffffffffffffffffffff168160030160016101000a81548173ffffffffffffffffffffffffffffffffffffffff021916908373ffffffffffffffffffffffffffffffffffffffff1602179055506003820160159054906101000a900460ff168160030160156101000a81548160ff021916908315150217905550600482015481600401556005820154816005015590505061505e6149dc565b6000808473ffffffffffffffffffffffffffffffffffffffff1673ffffffffffffffffffffffffffffffffffffffff1681526020019081526020016000206004018190555060028054809190600190036150b89190615583565b5060019050919050565b60006003805490506000808473ffffffffffffffffffffffffffffffffffffffff1673ffffffffffffffffffffffffffffffffffffffff1681526020019081526020016000206005018190555060036000808473ffffffffffffffffffffffffffffffffffffffff1673ffffffffffffffffffffffffffffffffffffffff16815260200190815260200160002090806001815401808255809150509060018203906000526020600020906006020160009091929091909150600082018160000190805460018160011615610100020316600290046151a19291906153dc565b50600182018160010190805460018160011615610100020316600290046151c99291906153dc565b50600282018160020190805460018160011615610100020316600290046151f19291906153dc565b506003820160009054906101000a900460ff168160030160006101000a81548160ff0219169083600181111561522357fe5b02179055506003820160019054906101000a900473ffffffffffffffffffffffffffffffffffffffff168160030160016101000a81548173ffffffffffffffffffffffffffffffffffffffff021916908373ffffffffffffffffffffffffffffffffffffffff1602179055506003820160159054906101000a900460ff168160030160156101000a81548160ff021916908315150217905550600482015481600401556005820154816005015550505060019050919050565b828054600181600116156101000203166002900490600052602060002090601f016020900481019282601f1061531d57805160ff191683800117855561534b565b8280016001018555821561534b579182015b8281111561534a57825182559160200191906001019061532f565b5b50905061535891906155b5565b5090565b828054600181600116156101000203166002900490600052602060002090601f016020900481019282601f1061539d57805160ff19168380011785556153cb565b828001600101855582156153cb579182015b828111156153ca5782518255916020019190600101906153af565b5b5090506153d891906155b5565b5090565b828054600181600116156101000203166002900490600052602060002090601f016020900481019282601f106154155780548555615452565b8280016001018555821561545257600052602060002091601f016020900482015b82811115615451578254825591600101919060010190615436565b5b50905061545f91906155b5565b5090565b82805482825590600052602060002090600402810192821561550e5760005260206000209160040282015b8281111561550d578282600082018160000190805460018160011615610100020316600290046154bf9291906153dc565b50600182018160010190805460018160011615610100020316600290046154e79291906153dc565b50600282015481600201556003820154816003015550509160040191906004019061548e565b5b50905061551b91906155da565b5090565b81548183558181111561554c5760060281600602836000526020600020918201910161554b9190615629565b5b505050565b81548183558181111561557e5760040281600402836000526020600020918201910161557d91906155da565b5b505050565b8154818355818111156155b0576006028160060283600052602060002091820191016155af9190615688565b5b505050565b6155d791905b808211156155d35760008160009055506001016155bb565b5090565b90565b61562691905b8082111561562257600080820160006155f99190615736565b6001820160006156099190615736565b60028201600090556003820160009055506004016155e0565b5090565b90565b61568591905b8082111561568157600080820160006156489190615736565b6001820160006156589190615736565b6002820160009055600382016000615670919061577e565b60048201600090555060060161562f565b5090565b90565b61573391905b8082111561572f57600080820160006156a79190615736565b6001820160006156b79190615736565b6002820160006156c79190615736565b6003820160006101000a81549060ff02191690556003820160016101000a81549073ffffffffffffffffffffffffffffffffffffffff02191690556003820160156101000a81549060ff0219169055600482016000905560058201600090555060060161568e565b5090565b90565b50805460018160011615610100020316600290046000825580601f1061575c575061577b565b601f01602090049060005260206000209081019061577a91906155b5565b5b50565b508054600082556004029060005260206000209081019061579f91906155da565b505600a165627a7a72305820fe9eae2b1b763c1edeae79b0c4932486461efe613f4544da6c8d0d576fbd0fe20029",
  "source": "pragma solidity ^0.4.18;\nimport './ApplicationUserManager.sol';\n\ncontract MarketPlace is ApplicationUserManager {\n    \n   \n    struct Product {\n       // uint id;\n        string name;\n        string description;\n        uint price;\n        uint quantity;\n    }\n    \n   \n    enum Role {\n        Admin, SuperAdmin\n    }\n\n    struct StoreUser {\n        Role role;\n    }\n    struct Store {\n        string name;\n        string description;\n        uint balance;\n        Product[] products;\n        uint publicIndex;\n        mapping(address => StoreUser) users;\n    }\n    \n  \n\n    \n    mapping(string =>  Store[]) private publicStore; \n    \n    mapping(address => Store[]) public userStores;\n    mapping(address => uint) public userStoresCount;\n\n     \n    constructor() public {\n    \n        \n    }\n    \n    function getStoreProductsCount(uint storeIndex) public constant returns(uint) {\n          return userStores[msg.sender][storeIndex].products.length;\n    }\n    \n      function getStoreProductsCountPublic(uint storeIndex) public constant returns(uint) {\n          return publicStore[\"public\"][storeIndex].products.length;\n    }\n    \n    \n     function getUserStoreProduct(uint storeIndex, uint productIndex) public constant returns(string, string, uint, uint) {\n          \n          require(storeIndex < userStores[msg.sender].length && productIndex < userStores[msg.sender][storeIndex].products.length, \"PRODUCT INDEX DOES NOT EXIST\");\n            \n          return (\n                 userStores[msg.sender][storeIndex].products[productIndex].name,\n                 userStores[msg.sender][storeIndex].products[productIndex].description,\n                 userStores[msg.sender][storeIndex].products[productIndex].price,\n                   userStores[msg.sender][storeIndex].products[productIndex].quantity\n              );\n        }\n        \n        //get product from public storeIndex  function getUserStoreProduct(uint storeIndex, uint productIndex) public constant returns(string, string, uint, uint) {\n          \n        function getStoreProductPublic(uint storeIndex, uint productIndex) public constant returns(string, string, uint, uint) {\n          \n          require(storeIndex < publicStore[\"public\"].length && productIndex < publicStore[\"public\"][storeIndex].products.length, \"PRODUCT INDEX DOES NOT EXIST\");\n            \n          return (\n                 publicStore[\"public\"][storeIndex].products[productIndex].name,\n                 publicStore[\"public\"][storeIndex].products[productIndex].description,\n                 publicStore[\"public\"][storeIndex].products[productIndex].price,\n                 publicStore[\"public\"][storeIndex].products[productIndex].quantity\n              );\n        }\n    \n  \n    \n    function editStore(uint storeIndex, string storeName, string description) public returns(bool) {\n           userStores[msg.sender][storeIndex].name = storeName;\n           userStores[msg.sender][storeIndex].description = description;\n           //get store publicIndex\n           uint publicIndex = userStores[msg.sender][storeIndex].publicIndex;\n           //update public store\n           publicStore[\"public\"][publicIndex].name = storeName;\n           publicStore[\"public\"][publicIndex].description = description;\n    }\n    \n    function createStore(string storeName, string description) public  returns(uint){\n          Store storage store;\n          //Store storage store =   userStores[msg.sender][0];\n          userStoresCount[msg.sender]++;\n          store.name=storeName;\n          store.description =description;\n          store.users[msg.sender] = StoreUser(Role.SuperAdmin);\n          \n          //add to public store publicStoreList\n          //GET THE INDEX WHERE THE STORE WILL BE STORED IN THE PUBLIC STORE publicStoreList\n          uint publicIndex = publicStore[\"public\"].length;\n          store.publicIndex = publicIndex;\n          \n          userStores[msg.sender].push(store);\n          publicStore[\"public\"].push(store);\n          return  publicStore[\"public\"].length;\n    }\n    \n  \n    \n    function deleteStore(uint storeIndex) public returns(bool) {\n          require(storeIndex < userStores[msg.sender].length);\n            //GET THE PUBLIC INDEX OF THE ITEM TO DELTE TO UPDATE IN THE PUBLIC STORE LIST\n          uint publicIndex_item_to_delete = userStores[msg.sender][storeIndex].publicIndex;\n          uint publicIndex_item_to_update = userStores[msg.sender][userStores[msg.sender].length - 1].publicIndex;\n         \n         uint index_of_last_public_item =  publicStore[\"public\"].length - 1;\n         \n         if(index_of_last_public_item == publicIndex_item_to_update) {\n             userStores[msg.sender][userStores[msg.sender].length - 1].publicIndex = publicIndex_item_to_delete;\n         }\n         \n          //COPY THE STORE IN THE LAST INDEX INTO THE DELETE INDEX (REPLACE) - public stores\n          publicStore[\"public\"][publicIndex_item_to_delete] = publicStore[\"public\"][publicStore[\"public\"].length - 1];\n          \n          //COPY THE STORE IN THE LAST INDEX INTO THE DELETE INDEX (REPLACE)\n          userStores[msg.sender][storeIndex] = userStores[msg.sender][userStores[msg.sender].length - 1];\n\n          \n          //REDUCE STORE LENGTH BY 1\n          userStores[msg.sender].length --;\n          publicStore[\"public\"].length --;\n          userStoresCount[msg.sender]--;\n          \n          return true;\n    }\n    \n    \n    function getOwnStore(uint storeIndex) public view returns(string, string, uint){\n        return getStore(msg.sender, storeIndex);\n    }\n    \n    function getPublicStore(uint storeIndex) public view returns(string, string) {\n             return (\n            publicStore[\"public\"][storeIndex].name,\n            publicStore[\"public\"][storeIndex].description\n        );\n    }\n    \n     function getPublicStoreSize() public view returns(uint) {\n             return (\n            publicStore[\"public\"].length\n        );\n    }\n    \n    \n     function getUserStore(address user, uint storeIndex) public view returns(string, string, uint){\n        return getStore(user, storeIndex);\n    }\n    \n    function getStore(address user, uint storeIndex) private view returns (string, string, uint) {\n          return (\n            userStores[user][storeIndex].name,\n            userStores[user][storeIndex].description,\n             userStores[user][storeIndex].publicIndex\n            \n        );\n    }\n    function addProduct(uint storeIndex, string name, string description, uint price, uint quantity) public  returns(uint){\n          \n          userStores[msg.sender][storeIndex].products.push(Product(name, description, price, quantity));\n          //get public index of product\n          uint publicIndex = userStores[msg.sender][storeIndex].publicIndex;\n          //add product to public store\n          publicStore[\"public\"][publicIndex].products.push(Product(name, description, price, quantity));\n          \n          return userStores[msg.sender][storeIndex].products.length;\n    }\n    \n    function editProduct(uint storeIndex, uint productIndex, string productName, string description, uint price, uint quantity) public  returns(bool) {\n         userStores[msg.sender][storeIndex].products[productIndex].name = productName;\n         userStores[msg.sender][storeIndex].products[productIndex].description = description;\n         userStores[msg.sender][storeIndex].products[productIndex].price = price;\n         userStores[msg.sender][storeIndex].products[productIndex].quantity = quantity; \n         \n         //get public index of product\n         uint publicIndex = userStores[msg.sender][storeIndex].publicIndex;\n         \n         //\n         publicStore[\"public\"][publicIndex].products[productIndex].name = productName;\n         publicStore[\"public\"][publicIndex].products[productIndex].description = description;\n         publicStore[\"public\"][publicIndex].products[productIndex].price = price;\n         publicStore[\"public\"][publicIndex].products[productIndex].quantity = quantity; \n         \n         return true;\n    }\n    \n    function deleteProduct(uint storeIndex, uint productIndex_to_delete) public returns(bool) {\n           require(storeIndex < userStores[msg.sender].length && productIndex_to_delete < userStores[msg.sender][storeIndex].products.length);\n           \n           uint productsLength = userStores[msg.sender][storeIndex].products.length;\n           //copy the last product to the index of the product to remove\n           userStores[msg.sender][storeIndex].products[productIndex_to_delete] = userStores[msg.sender][storeIndex].products[productsLength - 1];\n           userStores[msg.sender][storeIndex].products.length --;\n           \n          //get public index of product\n          uint publicIndex = userStores[msg.sender][storeIndex].publicIndex;\n          publicStore[\"public\"][publicIndex].products[productIndex_to_delete] = publicStore[\"public\"][publicIndex].products[productsLength - 1];\n          publicStore[\"public\"][publicIndex].products.length --;\n          \n          return true;\n    } \n    \n   \n    \n}\n",
  "sourcePath": "/Users/yusufkelo/Documents/DEVELOPER/ETHEREAUM/market-place/contracts/MarketPlace.sol",
  "compiler": {
    "name": "solc",
    "version": "0.4.24+commit.e67f0147.Emscripten.clang"
  },
  "schemaVersion": "2.0.0",
  "updatedAt": "2018-07-26T13:56:24.047Z"
}