{
  "contractName": "MarketPlace",
  "abi": [
    {
      "constant": true,
      "inputs": [
        {
          "name": "vendor",
          "type": "address"
        },
        {
          "name": "storeIndex",
          "type": "uint256"
        },
        {
          "name": "productId",
          "type": "uint256"
        }
      ],
      "name": "getProduct",
      "outputs": [
        {
          "name": "",
          "type": "bytes32"
        },
        {
          "name": "",
          "type": "bytes32"
        },
        {
          "name": "",
          "type": "uint256"
        },
        {
          "name": "",
          "type": "uint256"
        },
        {
          "name": "",
          "type": "uint256"
        },
        {
          "name": "",
          "type": "address"
        },
        {
          "name": "",
          "type": "uint256"
        }
      ],
      "payable": false,
      "stateMutability": "view",
      "type": "function"
    },
    {
      "constant": true,
      "inputs": [],
      "name": "getPendingVendors",
      "outputs": [
        {
          "name": "",
          "type": "uint256"
        }
      ],
      "payable": false,
      "stateMutability": "view",
      "type": "function"
    },
    {
      "constant": true,
      "inputs": [
        {
          "name": "index",
          "type": "uint256"
        }
      ],
      "name": "getPendingVendorByIndex",
      "outputs": [
        {
          "name": "",
          "type": "string"
        },
        {
          "name": "",
          "type": "string"
        },
        {
          "name": "",
          "type": "string"
        },
        {
          "name": "",
          "type": "uint256"
        },
        {
          "name": "",
          "type": "address"
        }
      ],
      "payable": false,
      "stateMutability": "view",
      "type": "function"
    },
    {
      "constant": true,
      "inputs": [
        {
          "name": "productId",
          "type": "uint256"
        }
      ],
      "name": "getCartItem",
      "outputs": [
        {
          "name": "",
          "type": "uint256"
        },
        {
          "name": "",
          "type": "bytes32"
        },
        {
          "name": "",
          "type": "uint256"
        },
        {
          "name": "",
          "type": "uint256"
        },
        {
          "name": "",
          "type": "uint256"
        },
        {
          "name": "",
          "type": "uint256"
        },
        {
          "name": "",
          "type": "address"
        }
      ],
      "payable": false,
      "stateMutability": "view",
      "type": "function"
    },
    {
      "constant": true,
      "inputs": [
        {
          "name": "accountIndex",
          "type": "uint256"
        }
      ],
      "name": "getVendorStoreCountPublic",
      "outputs": [
        {
          "name": "",
          "type": "uint256"
        },
        {
          "name": "",
          "type": "uint256"
        }
      ],
      "payable": false,
      "stateMutability": "view",
      "type": "function"
    },
    {
      "constant": true,
      "inputs": [
        {
          "name": "storeIndex",
          "type": "uint256"
        }
      ],
      "name": "getProductsIdsVendor",
      "outputs": [
        {
          "name": "",
          "type": "uint256[]"
        }
      ],
      "payable": false,
      "stateMutability": "view",
      "type": "function"
    },
    {
      "constant": false,
      "inputs": [
        {
          "name": "storeIndex",
          "type": "uint256"
        },
        {
          "name": "productName",
          "type": "bytes32"
        },
        {
          "name": "description",
          "type": "bytes32"
        },
        {
          "name": "price",
          "type": "uint256"
        },
        {
          "name": "quantity",
          "type": "uint256"
        },
        {
          "name": "priceInSpinelToken",
          "type": "uint256"
        }
      ],
      "name": "createProduct",
      "outputs": [
        {
          "name": "",
          "type": "uint256"
        }
      ],
      "payable": false,
      "stateMutability": "nonpayable",
      "type": "function"
    },
    {
      "constant": false,
      "inputs": [
        {
          "name": "_name",
          "type": "string"
        },
        {
          "name": "_email",
          "type": "string"
        },
        {
          "name": "_phone",
          "type": "string"
        }
      ],
      "name": "requestVendorAccount",
      "outputs": [
        {
          "name": "",
          "type": "bool"
        }
      ],
      "payable": false,
      "stateMutability": "nonpayable",
      "type": "function"
    },
    {
      "constant": true,
      "inputs": [],
      "name": "getPendingVendorsCount",
      "outputs": [
        {
          "name": "",
          "type": "uint256"
        }
      ],
      "payable": false,
      "stateMutability": "view",
      "type": "function"
    },
    {
      "constant": true,
      "inputs": [
        {
          "name": "accountIndex",
          "type": "uint256"
        },
        {
          "name": "storeIndex",
          "type": "uint256"
        },
        {
          "name": "productId",
          "type": "uint256"
        }
      ],
      "name": "getProductCustomer",
      "outputs": [
        {
          "name": "",
          "type": "bytes32"
        },
        {
          "name": "",
          "type": "bytes32"
        },
        {
          "name": "",
          "type": "uint256"
        },
        {
          "name": "",
          "type": "uint256"
        },
        {
          "name": "",
          "type": "uint256"
        },
        {
          "name": "",
          "type": "address"
        },
        {
          "name": "",
          "type": "uint256"
        }
      ],
      "payable": false,
      "stateMutability": "view",
      "type": "function"
    },
    {
      "constant": true,
      "inputs": [
        {
          "name": "accountIndex",
          "type": "uint256"
        },
        {
          "name": "storeIndex",
          "type": "uint256"
        }
      ],
      "name": "getStorePublic",
      "outputs": [
        {
          "name": "",
          "type": "bytes32"
        },
        {
          "name": "",
          "type": "bytes32"
        },
        {
          "name": "",
          "type": "uint256"
        },
        {
          "name": "",
          "type": "uint256"
        }
      ],
      "payable": false,
      "stateMutability": "view",
      "type": "function"
    },
    {
      "constant": false,
      "inputs": [],
      "name": "withdraw",
      "outputs": [
        {
          "name": "",
          "type": "bool"
        }
      ],
      "payable": false,
      "stateMutability": "nonpayable",
      "type": "function"
    },
    {
      "constant": true,
      "inputs": [],
      "name": "getApprovedVendorsCount",
      "outputs": [
        {
          "name": "",
          "type": "uint256"
        }
      ],
      "payable": false,
      "stateMutability": "view",
      "type": "function"
    },
    {
      "constant": true,
      "inputs": [
        {
          "name": "account",
          "type": "address"
        }
      ],
      "name": "getVendorByAddress",
      "outputs": [
        {
          "name": "",
          "type": "string"
        },
        {
          "name": "",
          "type": "string"
        },
        {
          "name": "",
          "type": "string"
        },
        {
          "name": "",
          "type": "uint256"
        },
        {
          "name": "",
          "type": "address"
        }
      ],
      "payable": false,
      "stateMutability": "view",
      "type": "function"
    },
    {
      "constant": false,
      "inputs": [
        {
          "name": "name",
          "type": "string"
        },
        {
          "name": "account",
          "type": "address"
        },
        {
          "name": "role",
          "type": "uint256"
        }
      ],
      "name": "createAdminUser",
      "outputs": [
        {
          "name": "",
          "type": "bool"
        }
      ],
      "payable": false,
      "stateMutability": "nonpayable",
      "type": "function"
    },
    {
      "constant": true,
      "inputs": [],
      "name": "getVendorAccountsWithListedStoresCount",
      "outputs": [
        {
          "name": "",
          "type": "uint256"
        }
      ],
      "payable": false,
      "stateMutability": "view",
      "type": "function"
    },
    {
      "constant": true,
      "inputs": [
        {
          "name": "index",
          "type": "uint256"
        }
      ],
      "name": "getApprovedVendorByIndex",
      "outputs": [
        {
          "name": "",
          "type": "string"
        },
        {
          "name": "",
          "type": "string"
        },
        {
          "name": "",
          "type": "string"
        },
        {
          "name": "",
          "type": "uint256"
        },
        {
          "name": "",
          "type": "address"
        }
      ],
      "payable": false,
      "stateMutability": "view",
      "type": "function"
    },
    {
      "constant": true,
      "inputs": [
        {
          "name": "account",
          "type": "address"
        },
        {
          "name": "storeIndex",
          "type": "uint256"
        }
      ],
      "name": "getProductsIds",
      "outputs": [
        {
          "name": "",
          "type": "uint256[]"
        }
      ],
      "payable": false,
      "stateMutability": "view",
      "type": "function"
    },
    {
      "constant": false,
      "inputs": [
        {
          "name": "paymentMethod",
          "type": "uint256"
        },
        {
          "name": "customerAccount",
          "type": "address"
        },
        {
          "name": "vendorAccount",
          "type": "address"
        },
        {
          "name": "storeIndex",
          "type": "uint256"
        },
        {
          "name": "totalItemsPrice",
          "type": "uint256"
        }
      ],
      "name": "payVendor",
      "outputs": [
        {
          "name": "",
          "type": "bool"
        }
      ],
      "payable": false,
      "stateMutability": "nonpayable",
      "type": "function"
    },
    {
      "constant": false,
      "inputs": [
        {
          "name": "vendorAccount",
          "type": "address"
        },
        {
          "name": "storeIndex",
          "type": "uint256"
        },
        {
          "name": "productId",
          "type": "uint256"
        },
        {
          "name": "productQuantity",
          "type": "uint256"
        }
      ],
      "name": "updateCartItem",
      "outputs": [
        {
          "name": "",
          "type": "bool"
        }
      ],
      "payable": false,
      "stateMutability": "nonpayable",
      "type": "function"
    },
    {
      "constant": true,
      "inputs": [],
      "name": "getVendorBalance",
      "outputs": [
        {
          "name": "",
          "type": "uint256"
        }
      ],
      "payable": false,
      "stateMutability": "view",
      "type": "function"
    },
    {
      "constant": true,
      "inputs": [
        {
          "name": "storeIndex",
          "type": "uint256"
        }
      ],
      "name": "getStorePrivate",
      "outputs": [
        {
          "name": "",
          "type": "bytes32"
        },
        {
          "name": "",
          "type": "bytes32"
        },
        {
          "name": "",
          "type": "uint256"
        },
        {
          "name": "",
          "type": "uint256"
        }
      ],
      "payable": false,
      "stateMutability": "view",
      "type": "function"
    },
    {
      "constant": true,
      "inputs": [],
      "name": "getCartItemsCount",
      "outputs": [
        {
          "name": "",
          "type": "uint256"
        }
      ],
      "payable": false,
      "stateMutability": "view",
      "type": "function"
    },
    {
      "constant": false,
      "inputs": [
        {
          "name": "storeIndex",
          "type": "uint256"
        }
      ],
      "name": "deleteStore",
      "outputs": [
        {
          "name": "",
          "type": "bool"
        }
      ],
      "payable": false,
      "stateMutability": "nonpayable",
      "type": "function"
    },
    {
      "constant": true,
      "inputs": [],
      "name": "getAdminUsersCount",
      "outputs": [
        {
          "name": "",
          "type": "uint256"
        }
      ],
      "payable": false,
      "stateMutability": "view",
      "type": "function"
    },
    {
      "constant": true,
      "inputs": [],
      "name": "getCartPrice",
      "outputs": [
        {
          "name": "",
          "type": "uint256"
        }
      ],
      "payable": false,
      "stateMutability": "view",
      "type": "function"
    },
    {
      "constant": true,
      "inputs": [
        {
          "name": "storeIndex",
          "type": "uint256"
        }
      ],
      "name": "getProductsCount",
      "outputs": [
        {
          "name": "",
          "type": "uint256"
        }
      ],
      "payable": false,
      "stateMutability": "view",
      "type": "function"
    },
    {
      "constant": true,
      "inputs": [],
      "name": "getUserStoreCount",
      "outputs": [
        {
          "name": "",
          "type": "uint256"
        }
      ],
      "payable": false,
      "stateMutability": "view",
      "type": "function"
    },
    {
      "constant": true,
      "inputs": [
        {
          "name": "paymentMethod",
          "type": "uint256"
        },
        {
          "name": "customerBalance",
          "type": "uint256"
        }
      ],
      "name": "getcustomerBalance",
      "outputs": [
        {
          "name": "",
          "type": "uint256"
        }
      ],
      "payable": false,
      "stateMutability": "view",
      "type": "function"
    },
    {
      "constant": false,
      "inputs": [
        {
          "name": "account",
          "type": "address"
        }
      ],
      "name": "approveVendorAccount",
      "outputs": [
        {
          "name": "",
          "type": "bool"
        }
      ],
      "payable": false,
      "stateMutability": "nonpayable",
      "type": "function"
    },
    {
      "constant": true,
      "inputs": [
        {
          "name": "paymentMethod",
          "type": "uint256"
        },
        {
          "name": "vendorAccount",
          "type": "address"
        },
        {
          "name": "storeIndex",
          "type": "uint256"
        },
        {
          "name": "productId",
          "type": "uint256"
        }
      ],
      "name": "getItemsPrice",
      "outputs": [
        {
          "name": "",
          "type": "uint256"
        }
      ],
      "payable": false,
      "stateMutability": "view",
      "type": "function"
    },
    {
      "constant": false,
      "inputs": [
        {
          "name": "storeIndex",
          "type": "uint256"
        },
        {
          "name": "productId",
          "type": "uint256"
        }
      ],
      "name": "deleteProduct",
      "outputs": [
        {
          "name": "",
          "type": "bool"
        }
      ],
      "payable": false,
      "stateMutability": "nonpayable",
      "type": "function"
    },
    {
      "constant": true,
      "inputs": [
        {
          "name": "index",
          "type": "uint256"
        }
      ],
      "name": "getAdminUserByIndex",
      "outputs": [
        {
          "name": "",
          "type": "string"
        },
        {
          "name": "",
          "type": "uint256"
        },
        {
          "name": "",
          "type": "address"
        }
      ],
      "payable": false,
      "stateMutability": "view",
      "type": "function"
    },
    {
      "constant": true,
      "inputs": [
        {
          "name": "storeIndex",
          "type": "uint256"
        },
        {
          "name": "productId",
          "type": "uint256"
        }
      ],
      "name": "getProductVendor",
      "outputs": [
        {
          "name": "",
          "type": "bytes32"
        },
        {
          "name": "",
          "type": "bytes32"
        },
        {
          "name": "",
          "type": "uint256"
        },
        {
          "name": "",
          "type": "uint256"
        },
        {
          "name": "",
          "type": "uint256"
        },
        {
          "name": "",
          "type": "address"
        },
        {
          "name": "",
          "type": "uint256"
        }
      ],
      "payable": false,
      "stateMutability": "view",
      "type": "function"
    },
    {
      "constant": true,
      "inputs": [
        {
          "name": "account",
          "type": "address"
        }
      ],
      "name": "getAdminUserByAddress",
      "outputs": [
        {
          "name": "",
          "type": "string"
        },
        {
          "name": "",
          "type": "uint256"
        },
        {
          "name": "",
          "type": "address"
        }
      ],
      "payable": false,
      "stateMutability": "view",
      "type": "function"
    },
    {
      "constant": true,
      "inputs": [],
      "name": "getUserRole",
      "outputs": [
        {
          "name": "",
          "type": "uint256"
        }
      ],
      "payable": false,
      "stateMutability": "view",
      "type": "function"
    },
    {
      "constant": false,
      "inputs": [
        {
          "name": "storeIndex",
          "type": "uint256"
        },
        {
          "name": "storeName",
          "type": "bytes32"
        },
        {
          "name": "description",
          "type": "bytes32"
        }
      ],
      "name": "editStore",
      "outputs": [
        {
          "name": "",
          "type": "bool"
        }
      ],
      "payable": false,
      "stateMutability": "nonpayable",
      "type": "function"
    },
    {
      "constant": true,
      "inputs": [
        {
          "name": "productPrice",
          "type": "uint256"
        },
        {
          "name": "purchasedQuantity",
          "type": "uint256"
        }
      ],
      "name": "getTotalItemsPrice",
      "outputs": [
        {
          "name": "",
          "type": "uint256"
        }
      ],
      "payable": false,
      "stateMutability": "pure",
      "type": "function"
    },
    {
      "constant": false,
      "inputs": [],
      "name": "checkOut",
      "outputs": [
        {
          "name": "",
          "type": "bool"
        }
      ],
      "payable": true,
      "stateMutability": "payable",
      "type": "function"
    },
    {
      "constant": true,
      "inputs": [
        {
          "name": "accountIndex",
          "type": "uint256"
        },
        {
          "name": "storeIndex",
          "type": "uint256"
        }
      ],
      "name": "getProductsIdsCustomer",
      "outputs": [
        {
          "name": "",
          "type": "uint256[]"
        }
      ],
      "payable": false,
      "stateMutability": "view",
      "type": "function"
    },
    {
      "constant": false,
      "inputs": [
        {
          "name": "storeIndex",
          "type": "uint256"
        },
        {
          "name": "productId",
          "type": "uint256"
        },
        {
          "name": "productName",
          "type": "bytes32"
        },
        {
          "name": "description",
          "type": "bytes32"
        },
        {
          "name": "price",
          "type": "uint256"
        },
        {
          "name": "quantity",
          "type": "uint256"
        },
        {
          "name": "priceInSpinelToken",
          "type": "uint256"
        }
      ],
      "name": "editProduct",
      "outputs": [
        {
          "name": "",
          "type": "bool"
        }
      ],
      "payable": false,
      "stateMutability": "nonpayable",
      "type": "function"
    },
    {
      "constant": false,
      "inputs": [
        {
          "name": "vendorAccount",
          "type": "address"
        },
        {
          "name": "storeIndex",
          "type": "uint256"
        },
        {
          "name": "productId",
          "type": "uint256"
        },
        {
          "name": "productQuantity",
          "type": "uint256"
        }
      ],
      "name": "addItemToCart",
      "outputs": [
        {
          "name": "",
          "type": "bool"
        }
      ],
      "payable": false,
      "stateMutability": "nonpayable",
      "type": "function"
    },
    {
      "constant": false,
      "inputs": [
        {
          "name": "storeName",
          "type": "bytes32"
        },
        {
          "name": "description",
          "type": "bytes32"
        }
      ],
      "name": "createStore",
      "outputs": [
        {
          "name": "",
          "type": "uint256"
        }
      ],
      "payable": false,
      "stateMutability": "nonpayable",
      "type": "function"
    },
    {
      "constant": false,
      "inputs": [
        {
          "name": "productId",
          "type": "uint256"
        }
      ],
      "name": "deleteCartItem",
      "outputs": [
        {
          "name": "",
          "type": "bool"
        }
      ],
      "payable": false,
      "stateMutability": "nonpayable",
      "type": "function"
    },
    {
      "constant": true,
      "inputs": [
        {
          "name": "storeIndex",
          "type": "uint256"
        },
        {
          "name": "productId",
          "type": "uint256"
        }
      ],
      "name": "getProductQuantity",
      "outputs": [
        {
          "name": "",
          "type": "uint256"
        }
      ],
      "payable": false,
      "stateMutability": "view",
      "type": "function"
    },
    {
      "constant": true,
      "inputs": [],
      "name": "getCartItemsIds",
      "outputs": [
        {
          "name": "",
          "type": "uint256[]"
        }
      ],
      "payable": false,
      "stateMutability": "view",
      "type": "function"
    },
    {
      "inputs": [
        {
          "name": "_tokenSaleContract",
          "type": "address"
        }
      ],
      "payable": false,
      "stateMutability": "nonpayable",
      "type": "constructor"
    },
    {
      "anonymous": false,
      "inputs": [
        {
          "indexed": false,
          "name": "cartSize",
          "type": "uint256"
        }
      ],
      "name": "ItemInsertedToCart",
      "type": "event"
    },
    {
      "anonymous": false,
      "inputs": [
        {
          "indexed": false,
          "name": "productQuantity",
          "type": "uint256"
        }
      ],
      "name": "CartItemUpdated",
      "type": "event"
    },
    {
      "anonymous": false,
      "inputs": [
        {
          "indexed": false,
          "name": "cartSize",
          "type": "uint256"
        }
      ],
      "name": "CartItemDeleted",
      "type": "event"
    },
    {
      "anonymous": false,
      "inputs": [
        {
          "indexed": false,
          "name": "status",
          "type": "bool"
        }
      ],
      "name": "PaymentCompleted",
      "type": "event"
    },
    {
      "anonymous": false,
      "inputs": [
        {
          "indexed": false,
          "name": "amount",
          "type": "uint256"
        }
      ],
      "name": "PaymentByTokenCompleted",
      "type": "event"
    },
    {
      "anonymous": false,
      "inputs": [
        {
          "indexed": false,
          "name": "amount",
          "type": "uint256"
        }
      ],
      "name": "PaymentByEtherCompleted",
      "type": "event"
    },
    {
      "anonymous": false,
      "inputs": [
        {
          "indexed": false,
          "name": "status",
          "type": "bool"
        }
      ],
      "name": "VendorAccountRequested",
      "type": "event"
    },
    {
      "anonymous": false,
      "inputs": [
        {
          "indexed": false,
          "name": "status",
          "type": "bool"
        }
      ],
      "name": "VendorAccountApproved",
      "type": "event"
    },
    {
      "anonymous": false,
      "inputs": [
        {
          "indexed": false,
          "name": "productId",
          "type": "uint256"
        },
        {
          "indexed": false,
          "name": "productIdSlot",
          "type": "uint256"
        }
      ],
      "name": "ProductCreated",
      "type": "event"
    },
    {
      "anonymous": false,
      "inputs": [
        {
          "indexed": false,
          "name": "productId",
          "type": "uint256"
        }
      ],
      "name": "ProductUpdated",
      "type": "event"
    },
    {
      "anonymous": false,
      "inputs": [
        {
          "indexed": false,
          "name": "productId",
          "type": "uint256"
        }
      ],
      "name": "ProductDeleted",
      "type": "event"
    },
    {
      "anonymous": false,
      "inputs": [
        {
          "indexed": false,
          "name": "storesSize",
          "type": "uint256"
        }
      ],
      "name": "StoreCreated",
      "type": "event"
    },
    {
      "anonymous": false,
      "inputs": [
        {
          "indexed": false,
          "name": "storeName",
          "type": "bytes32"
        },
        {
          "indexed": false,
          "name": "description",
          "type": "bytes32"
        }
      ],
      "name": "StoreUpdated",
      "type": "event"
    },
    {
      "anonymous": false,
      "inputs": [
        {
          "indexed": false,
          "name": "storesSize",
          "type": "uint256"
        }
      ],
      "name": "StoreDeleteted",
      "type": "event"
    },
    {
      "anonymous": false,
      "inputs": [
        {
          "indexed": false,
          "name": "name",
          "type": "string"
        }
      ],
      "name": "UserCreated",
      "type": "event"
    }
  ],
  "bytecode": "0x60806040523480156200001157600080fd5b50604051602080620049c7833981016040525162000037640100000000620000b3810204565b60408051808201909152600581527f4f776e657200000000000000000000000000000000000000000000000000000060208201526200008290336000640100000000620000c7810204565b50600b8054600160a060020a03909216600160a060020a03199283168117909155600a8054909216179055620004ff565b60008054600160a060020a03191633179055565b60008054600160a060020a03163314620000e057600080fd5b6000826005811115620000ef57fe5b6005811115620000fb57fe5b146200018e57604080517f08c379a000000000000000000000000000000000000000000000000000000000815260206004820152602760248201527f544845205350454349464945442041444d494e20524f4c4520444f4553204e4f60448201527f5420455849535400000000000000000000000000000000000000000000000000606482015290519081900360840190fd5b620001a4848484640100000000620001ac810204565b949350505050565b60008054600160a060020a03163314620001c557600080fd5b608060405190810160405280858152602001836005811115620001e457fe5b6005811115620001f057fe5b8152600160a060020a038516602080830182905260016040938401819052600092835281529190208251805191926200022f928492909101906200045a565b50602082015160018083018054909160ff19909116908360058111156200025257fe5b021790555060408281015160019092018054606090940151151575010000000000000000000000000000000000000000000260a860020a60ff0219600160a060020a039094166101000261010060a860020a0319909516949094179290921692909217905580516080810190915284815260029060208101846005811115620002d757fe5b6005811115620002e357fe5b8152600160a060020a038616602080830191909152600160409092018290528354918201808555600094855293819020835180516002909402909101926200032f92849201906200045a565b50602082015160018083018054909160ff19909116908360058111156200035257fe5b021790555060408281015160019092018054606090940151151575010000000000000000000000000000000000000000000260a860020a60ff0219600160a060020a039094166101000261010060a860020a031990951694909417929092169290921790558051602080825287518183015287517f56b0a2dda7952cd07f438433182565929ba3aba4c3404a7d29a0840ac6284da4945088938392908301919085019080838360005b8381101562000415578181015183820152602001620003fb565b50505050905090810190601f168015620004435780820380516001836020036101000a031916815260200191505b509250505060405180910390a15060019392505050565b828054600181600116156101000203166002900490600052602060002090601f016020900481019282601f106200049d57805160ff1916838001178555620004cd565b82800160010185558215620004cd579182015b82811115620004cd578251825591602001919060010190620004b0565b50620004db929150620004df565b5090565b620004fc91905b80821115620004db5760008155600101620004e6565b90565b6144b8806200050f6000396000f30060806040526004361061022e5763ffffffff7c01000000000000000000000000000000000000000000000000000000006000350416627989248114610233578063066674291461029b57806306cfcb86146102c257806311f839181461043e57806317a580231461049757806318979559146104c85780631f0883651461053057806328617c7c14610557578063340cffbe1461029b57806336bbb03c146106405780633a8fa8951461065e5780633ccfd60b1461069f5780633d055963146106b457806343defc10146106c957806354062143146106ea578063543c73f51461075457806358e99175146107695780635ce9ae531461078157806360de181a146107a55780636de0c1f2146107d55780636e91c6b8146107ff5780637105306a1461081457806373ac9d351461082c5780637cc69325146108415780637f266904146108595780638297574b1461086e578063892c45f9146108835780638f0c0f361461089b57806397cd16f7146108b057806399dcec85146108cb5780639b8a373f146108ec578063a1c48cc414610916578063a93e999d14610931578063ab7f603f146109e1578063bb3fac14146109fc578063bf04a10d14610a1d578063c08ed9b114610a32578063c83a0ac314610a50578063cba5751c14610a6b578063d1dfaa3e14610a73578063d604362d14610a8e578063e63aefcb14610ab8578063e64a282b14610ae2578063f513747614610afd578063f8127a8814610b15578063fa846e5a14610b30575b600080fd5b34801561023f57600080fd5b5061025a600160a060020a0360043516602435604435610b45565b6040805197885260208801969096528686019490945260608601929092526080850152600160a060020a031660a084015260c0830152519081900360e00190f35b3480156102a757600080fd5b506102b0610cf1565b60408051918252519081900360200190f35b3480156102ce57600080fd5b506102da600435610d0e565b6040518080602001806020018060200186815260200185600160a060020a0316600160a060020a03168152602001848103845289818151815260200191508051906020019080838360005b8381101561033d578181015183820152602001610325565b50505050905090810190601f16801561036a5780820380516001836020036101000a031916815260200191505b5084810383528851815288516020918201918a019080838360005b8381101561039d578181015183820152602001610385565b50505050905090810190601f1680156103ca5780820380516001836020036101000a031916815260200191505b50848103825287518152875160209182019189019080838360005b838110156103fd5781810151838201526020016103e5565b50505050905090810190601f16801561042a5780820380516001836020036101000a031916815260200191505b509850505050505050505060405180910390f35b34801561044a57600080fd5b50610456600435610fee565b604080519788526020880196909652868601949094526060860192909252608085015260a0840152600160a060020a031660c0830152519081900360e00190f35b3480156104a357600080fd5b506104af60043561112e565b6040805192835260208301919091528051918290030190f35b3480156104d457600080fd5b506104e0600435611174565b60408051602080825283518183015283519192839290830191858101910280838360005b8381101561051c578181015183820152602001610504565b505050509050019250505060405180910390f35b34801561053c57600080fd5b506102b060043560243560443560643560843560a435611186565b34801561056357600080fd5b506040805160206004803580820135601f810184900484028501840190955284845261062c94369492936024939284019190819084018382808284375050604080516020601f89358b018035918201839004830284018301909452808352979a99988101979196509182019450925082915084018382808284375050604080516020601f89358b018035918201839004830284018301909452808352979a9998810197919650918201945092508291508401838280828437509497506113859650505050505050565b604080519115158252519081900360200190f35b34801561064c57600080fd5b5061025a6004356024356044356115ae565b34801561066a57600080fd5b50610679600435602435611602565b604080519485526020850193909352838301919091526060830152519081900360800190f35b3480156106ab57600080fd5b5061062c611678565b3480156106c057600080fd5b506102b0611722565b3480156106d557600080fd5b506102da600160a060020a0360043516611738565b3480156106f657600080fd5b506040805160206004803580820135601f810184900484028501840190955284845261062c94369492936024939284019190819084018382808284375094975050508335600160a060020a0316945050506020909101359050611825565b34801561076057600080fd5b506102b0611907565b34801561077557600080fd5b506102da60043561190d565b34801561078d57600080fd5b506104e0600160a060020a0360043516602435611a11565b3480156107b157600080fd5b5061062c600435600160a060020a0360243581169060443516606435608435611aa1565b3480156107e157600080fd5b5061062c600160a060020a0360043516602435604435606435611ca8565b34801561080b57600080fd5b506102b0611da8565b34801561082057600080fd5b50610679600435611def565b34801561083857600080fd5b506102b0611e8d565b34801561084d57600080fd5b5061062c600435611ea3565b34801561086557600080fd5b506102b06120d0565b34801561087a57600080fd5b506102b06120fc565b34801561088f57600080fd5b506102b060043561225d565b3480156108a757600080fd5b506102b0612292565b3480156108bc57600080fd5b506102b06004356024356122a5565b3480156108d757600080fd5b5061062c600160a060020a0360043516612366565b3480156108f857600080fd5b506102b0600435600160a060020a036024351660443560643561243a565b34801561092257600080fd5b5061062c6004356024356124fd565b34801561093d57600080fd5b50610949600435612739565b604051808060200184815260200183600160a060020a0316600160a060020a03168152602001828103825285818151815260200191508051906020019080838360005b838110156109a457818101518382015260200161098c565b50505050905090810190601f1680156109d15780820380516001836020036101000a031916815260200191505b5094505050505060405180910390f35b3480156109ed57600080fd5b5061025a600435602435612891565b348015610a0857600080fd5b50610949600160a060020a03600435166128bf565b348015610a2957600080fd5b506102b06129ba565b348015610a3e57600080fd5b5061062c600435602435604435612a59565b348015610a5c57600080fd5b506102b0600435602435612b61565b61062c612b6e565b348015610a7f57600080fd5b506104e0600435602435612f8f565b348015610a9a57600080fd5b5061062c60043560243560443560643560843560a43560c435612fd4565b348015610ac457600080fd5b5061062c600160a060020a03600435166024356044356064356131a4565b348015610aee57600080fd5b506102b06004356024356134b5565b348015610b0957600080fd5b5061062c600435613660565b348015610b2157600080fd5b506102b06004356024356137a7565b348015610b3c57600080fd5b506104e06137ea565b600160a060020a038316600090815260066020526040812080548291829182918291829182918a908110610b7557fe5b600091825260208083208b84526006928302016005018152604080842054600160a060020a038f1685529290915290912080548b908110610bb257fe5b906000526020600020906006020160050160008a815260200190815260200160002060010154600660008d600160a060020a0316600160a060020a031681526020019081526020016000208b815481101515610c0a57fe5b906000526020600020906006020160050160008b815260200190815260200160002060020154600660008e600160a060020a0316600160a060020a031681526020019081526020016000208c815481101515610c6257fe5b906000526020600020906006020160050160008c815260200190815260200160002060060154600660008f600160a060020a0316600160a060020a031681526020019081526020016000208d815481101515610cba57fe5b600091825260208083208f845260056006909302018201905260409091200154939e929d919c509a92995097509095509350505050565b600854600090811015610d075750600854610d0b565b5060005b90565b606080606060008060088054905086101515610d74576040805160e560020a62461bcd02815260206004820152600d60248201527f496e76616c696420696e64657800000000000000000000000000000000000000604482015290519081900360640190fd5b6008805487908110610d8257fe5b9060005260206000209060080201600001600887815481101515610da257fe5b9060005260206000209060080201600101600888815481101515610dc257fe5b9060005260206000209060080201600201600889815481101515610de257fe5b600091825260209091206003600890920201015460ff166001811115610e0457fe5b600880548b908110610e1257fe5b600091825260209182902060089190910201600301548554604080516002610100600185161581026000190190941604601f810186900486028201860190925281815291909204600160a060020a03169290918791830182828015610eb85780601f10610e8d57610100808354040283529160200191610eb8565b820191906000526020600020905b815481529060010190602001808311610e9b57829003601f168201915b5050875460408051602060026001851615610100026000190190941693909304601f8101849004840282018401909252818152959a5089945092508401905082828015610f465780601f10610f1b57610100808354040283529160200191610f46565b820191906000526020600020905b815481529060010190602001808311610f2957829003601f168201915b5050865460408051602060026001851615610100026000190190941693909304601f810184900484028201840190925281815295995088945092508401905082828015610fd45780601f10610fa957610100808354040283529160200191610fd4565b820191906000526020600020905b815481529060010190602001808311610fb757829003601f168201915b505050505092509450945094509450945091939590929450565b33600090815260036020908152604080832084845260019081018352818420600281015481549190920154600160a060020a0316808652600690945291842080548594859485948594859485949293929185918590811061104b57fe5b600091825260208083208f845260069283020160050181526040808420830154600160a060020a03871685529290915290912080549192508d918690811061108f57fe5b906000526020600020906006020160050160008e8152602001908152602001600020600001546006600085600160a060020a0316600160a060020a03168152602001908152602001600020868154811015156110e757fe5b906000526020600020906006020160050160008f815260200190815260200160002060020154838688879a509a509a509a509a509a509a5050505050919395979092949650565b600080826006600060048681548110151561114557fe5b6000918252602080832090910154600160a060020a031683528201929092526040019020549092509050915091565b60606111803383611a11565b92915050565b6000808060013360009081526007602052604090206003015460ff1660018111156111ad57fe5b146111b757600080fd5b336000908152600660205260408120541180156111e257503360009081526006602052604090205489105b15156111ed57600080fd5b33600090815260066020526040902080548a90811061120857fe5b600091825260208083206006928302016003015433845291905260409091208054919350908a90811061123757fe5b6000918252602080832060069283020160040180546001019081905533845291905260409091208054919250908a90811061126e57fe5b600091825260208083206006928302016003018054600181018255908452818420018490556040805160e0810182528c81528083018c90528082018b9052606081018790526080810186905260a081018a905260c081018990523385529290915290912080548b9081106112de57fe5b600091825260208083208584526006928302016005908101825260409384902085518155858301516001820155858501516002820155606086015160038201556080860151600482015560a08601519181019190915560c0909401519390910192909255805183815291820184905280517f2a60815e9d2622a909b3c2b731fa879a529c93b5fecdb1cfea183695707572cc9281900390910190a150979650505050505050565b3360009081526007602052604081206003015460a860020a900460ff16156113f7576040805160e560020a62461bcd02815260206004820152601560248201527f5245515545535420495320494e2050524f434553530000000000000000000000604482015290519081900360640190fd5b604080516101408101825285815260208101859052908101839052606081016000815233602082015260016040820152600854606082015260800161143a61384e565b81526020016004815260006020918201819052338152600782526040902082518051919261146d92849290910190614111565b5060208281015180516114869260018501920190614111565b50604082015180516114a2916002840191602090910190614111565b50606082015160038201805460ff1916600183818111156114bf57fe5b0217905550608082015160038201805460a085015174ffffffffffffffffffffffffffffffffffffffff0019909116610100600160a060020a0390941684021760a860020a60ff02191660a860020a9115159190910217905560c0830151600483015560e0830151600580840191909155908301516006830180549192909160ff191690600190849081111561155157fe5b0217905550610120820151816007015590505061156f848484613854565b50604080516001815290517fd249fc9da5140e2e7baacc07add09262bad65b9822b19b86dcece6e652e015519181900360200190a15060019392505050565b60008060008060008060006115e760048b8154811015156115cb57fe5b600091825260209091200154600160a060020a03168a8a610b45565b96509650965096509650965096509397509397509397909450565b60008060008060048054905086108015611653575060006006600060048981548110151561162c57fe5b6000918252602080832090910154600160a060020a03168352820192909252604001902054115b151561165e57600080fd5b61166886866139e6565b9299919850965090945092505050565b60008060013360009081526007602052604090206003015460ff16600181111561169e57fe5b146116a857600080fd5b3360009081526007602081905260408220015411156117195750336000818152600760208190526040808320909101805490839055905190929183156108fc02918491818181858888f19350505050151561171957336000908152600760208190526040822001829055915061171e565b600191505b5090565b600954600090811015610d075750600954610d0b565b600160a060020a0381166000908152600760205260408120600301546060918291829190819060a860020a900460ff16151561177357600080fd5b600160a060020a03861660009081526007602052604090206003810154600180830191600284019160ff909116908111156117aa57fe5b600160a060020a038a811660009081526007602090815260409182902060030154875483516002610100600184161581026000190190931604601f8101859004850282018501909552848152910490931692918791830182828015610eb85780601f10610e8d57610100808354040283529160200191610eb8565b60008054600160a060020a0316331461183d57600080fd5b600182600581111561184b57fe5b600581111561185657fe5b14806118785750600282600581111561186b57fe5b600581111561187657fe5b145b15156118f4576040805160e560020a62461bcd02815260206004820152602760248201527f544845205350454349464945442041444d494e20524f4c4520444f4553204e4f60448201527f5420455849535400000000000000000000000000000000000000000000000000606482015290519081900360840190fd5b6118ff848484613a83565b949350505050565b60045490565b606080606060008060098054905086101515611973576040805160e560020a62461bcd02815260206004820152600d60248201527f496e76616c696420696e64657800000000000000000000000000000000000000604482015290519081900360640190fd5b600980548790811061198157fe5b90600052602060002090600802016000016009878154811015156119a157fe5b90600052602060002090600802016001016009888154811015156119c157fe5b90600052602060002090600802016002016009898154811015156119e157fe5b600091825260209091206003600890920201015460ff166001811115611a0357fe5b600980548b908110610e1257fe5b600160a060020a038216600090815260066020526040902080546060919083908110611a3957fe5b9060005260206000209060060201600301805480602002602001604051908101604052809291908181526020018280548015611a9457602002820191906000526020600020905b815481526020019060010190808311611a80575b5050505050905092915050565b60006001866001811115611ab157fe5b6001811115611abc57fe5b1415611b9d57600a54604080517f23b872dd000000000000000000000000000000000000000000000000000000008152600160a060020a038881166004830152878116602483015260448201869052915191909216916323b872dd9160648083019260209291908290030181600087803b158015611b3957600080fd5b505af1158015611b4d573d6000803e3d6000fd5b505050506040513d6020811015611b6357600080fd5b50506040805183815290517f7ef3d18d8958a97c57e6d519abf1c9c919d0a78e1d037bf25900a82effaa10809181900360200190a1611c9f565b600160a060020a03841660009081526006602052604090208054611bde919085908110611bc657fe5b90600052602060002090600602016002015483613d19565b600160a060020a0385166000908152600660205260409020805485908110611c0257fe5b906000526020600020906006020160020181905550611c496007600086600160a060020a0316600160a060020a031681526020019081526020016000206007015483613d19565b600160a060020a03851660009081526007602081815260409283902090910192909255805184815290517ff1a2788fec7acfb18c707f70d5f3aba63891818f4c3263cfd26868a5f1849b94929181900390910190a15b95945050505050565b600160a060020a0384166000908152600660205260408120805483919086908110611ccf57fe5b60009182526020808320878452600560069093020182019052604090912001541015611cfa57600080fd5b600160a060020a0385166000908152600660205260408120805486908110611d1e57fe5b600091825260208083208784526005600690930201919091019052604090206004015411611d4b57600080fd5b336000908152600360209081526040808320868452600101825291829020849055815184815291517feff915af5abcf733d88ab55ebab7a6842612483ce2447d6de6af02196cbc54939281900390910190a1506001949350505050565b600060013360009081526007602052604090206003015460ff166001811115611dcd57fe5b14611dd757600080fd5b50336000908152600760208190526040909120015490565b3360009081526006602052604081208054829182918291829187908110611e1257fe5b6000918252602080832060069283020160020154338452919052604090912080549192509087908110611e4157fe5b60009182526020808320600692830201543384529190526040909120805488908110611e6957fe5b90600052602060002090600602016001015482889450945094509450509193509193565b3360009081526003602052604090206002015490565b600060013360009081526007602052604090206003015460ff166001811115611ec857fe5b14611ed257600080fd5b33600090815260066020526040812054118015611efd57503360009081526006602052604090205482105b1515611f0857600080fd5b33600090815260066020526040902080546000198101908110611f2757fe5b6000918252602080832033845260069182905260409093208054919092029092019184908110611f5357fe5b600091825260209091208254600690920201908155600180830154908201556002808301549082015560038083018054611f90928401919061418b565b50600491820154910155336000908152600660205260409020805490611fba9060001983016141cb565b5033600090815260066020526040902054151561208357600480546000198101908110611fe357fe5b6000918252602080832090910154338352600590915260409091206001015460048054600160a060020a0390931692909190811061201d57fe5b6000918252602090912001805473ffffffffffffffffffffffffffffffffffffffff1916600160a060020a039290921691909117905560048054906120669060001983016141fc565b50336000908152600560205260408120805460ff19168155600101555b3360009081526006602090815260409182902054825190815291517fb9a4bd253f65179162993c9e886b8a6a550b811e0a8c2977ee7dd3a1d061e2729281900390910190a1506001919050565b60008054600160a060020a031633146120e857600080fd5b60025460001015610d075750600254610d0b565b60008060008061210a614220565b600080600095505b3360009081526003602052604090206002015485101561225257336000908152600360208181526040808420888552600101909152909120015460ff1615156122475733600090815260036020526040902060020180548690811061217357fe5b6000918252602080832090910154338352600380835260408085208386526001908101855281862082516080810184528154815291810154600160a060020a03168287018190526002820154838501908152919094015460ff161515606083015292865260069094529093209251835491975091955081106121f157fe5b600091825260208083208784526005600690930201919091018152604080832060020154338452600383528184208885526001019092529091205490925090506122448661223f8484613d26565b613d19565b95505b600190940193612112565b509395945050505050565b33600090815260066020526040812080548390811061227857fe5b600091825260209091206003600690920201015492915050565b3360009081526006602052604090205490565b600060018360018111156122b557fe5b60018111156122c057fe5b141561235f57600a54604080517f9b96eece0000000000000000000000000000000000000000000000000000000081523360048201529051600160a060020a0390921691639b96eece916024808201926020929091908290030181600087803b15801561232c57600080fd5b505af1158015612340573d6000803e3d6000fd5b505050506040513d602081101561235657600080fd5b50519050611180565b5080611180565b60008054600160a060020a0316331461237e57600080fd5b600160a060020a03821660009081526007602052604090206003015460a860020a900460ff1615156001146123b257600080fd5b600160a060020a03821660009081526007602052604090206003808201805460ff19908116600117909155600690920180549092161790556123f382613d4f565b506123fd82613f57565b50604080516001815290517fe3e79272c9f952f960a5911aee0622f58aedfcfe35abc490183d5e96a84cbae19181900360200190a1506001919050565b6000600185600181111561244a57fe5b600181111561245557fe5b14156124ac57600160a060020a038416600090815260066020526040902080548490811061247f57fe5b906000526020600020906006020160050160008381526020019081526020016000206006015490506118ff565b600160a060020a03841660009081526006602052604090208054849081106124d057fe5b906000526020600020906006020160050160008381526020019081526020016000206002015490506118ff565b6000808060013360009081526007602052604090206003015460ff16600181111561252457fe5b1461252e57600080fd5b3360009081526006602052604081205411801561255957503360009081526006602052604090205485105b151561256457600080fd5b33600090815260066020526040902080548690811061257f57fe5b60009182526020808320878452600692830201600501815260408084206003015433855292909152909120805491935090869081106125ba57fe5b6000918252602080832087845260069283020160059081018252604080852085815560018101869055600281018690556003810186905560048101869055918201859055908301849055338452919052902080548690811061261857fe5b600091825260208083206006928302016003015433845291905260409091208054919250908690811061264757fe5b90600052602060002090600602016003016001820381548110151561266857fe5b60009182526020808320909101543383526006909152604090912080548790811061268f57fe5b9060005260206000209060060201600301838154811015156126ad57fe5b60009182526020808320909101929092553381526006909152604090208054869081106126d657fe5b90600052602060002090600602016003018054809190600190036126fa91906141fc565b506040805185815290517fc341cf326465fe622f86c468249e8c0cb03ed23ba376a6a34863a1374ac7d7699181900360200190a1506001949350505050565b60008054606091908190600160a060020a0316331461275757600080fd5b600254841061276557600080fd5b600280548590811061277357fe5b906000526020600020906002020160000160028581548110151561279357fe5b600091825260209091206001600290920201015460ff1660058111156127b557fe5b60028054879081106127c357fe5b906000526020600020906002020160010160019054906101000a9004600160a060020a0316828054600181600116156101000203166002900480601f01602080910402602001604051908101604052809291908181526020018280546001816001161561010002031660029004801561287d5780601f106128525761010080835404028352916020019161287d565b820191906000526020600020905b81548152906001019060200180831161286057829003601f168201915b505050505092509250925092509193909250565b60008060008060008060006128a7338a8a610b45565b959f949e50929c50909a509850965090945092505050565b60008054606091908190600160a060020a031633146128dd57600080fd5b600160a060020a0384166000908152600160208190526040909120015460a860020a900460ff16151561290f57600080fd5b600160a060020a03841660009081526001602081905260409091209081015460ff16600581111561293c57fe5b600160a060020a038681166000908152600160208181526040928390208201548654845160026101009583161586026000190190921691909104601f8101849004840282018401909552848152929004909316929091859183018282801561287d5780601f106128525761010080835404028352916020019161287d565b3360009081526007602052604081206003015460a860020a900460ff16151560011415612a09573360009081526007602052604090206006015460ff166005811115612a0257fe5b9050610d0b565b33600090815260016020819052604090912081015460a860020a900460ff1615151415612a5257336000908152600160208190526040909120015460ff166005811115612a0257fe5b6005612a02565b600060013360009081526007602052604090206003015460ff166001811115612a7e57fe5b14612a8857600080fd5b33600090815260066020526040812054118015612ab357503360009081526006602052604090205484105b1515612abe57600080fd5b336000908152600660205260409020805484919086908110612adc57fe5b600091825260208083206006928302019390935533825290915260409020805483919086908110612b0957fe5b6000918252602091829020600160069092020101919091556040805185815291820184905280517f745f6c37c7c955a766769f82b258315021a200fd1fe89df40262fc3c38b640d39281900390910190a19392505050565b6000806118ff8484613d26565b33600090815260036020526040812060020154819081908190819081908190819081908110612b9c57600080fd5b612ba46120fc565b341015612bb057600080fd5b349750600096505b33600090815260036020526040902060020154871015612f255733600090815260036020526040812060020180549091908110612bf157fe5b60009182526020808320909101543383526003808352604080852083865260010190935291909220015490965060ff161515612f1a5733600090815260036020908152604080832089845260019081018352818420805460028201549190920154600160a060020a0316808652600690945291842080549199509197509195509086908110612c7c57fe5b600091825260208083208a84526005600690930201919091019052604090206004015411612ca957600080fd5b600160a060020a0383166000908152600660205260409020805486919086908110612cd057fe5b600091825260208083208a8452600560069093020182019052604090912001541015612cfb57600080fd5b6001600160a060020a03841660009081526007602052604090206003015460ff166001811115612d2757fe5b14612d3157600080fd5b600160a060020a0383166000908152600660205260409020805485908110612d5557fe5b90600052602060002090600602016005016000878152602001908152602001600020600201549150612d878286613d26565b905080881015612d9657600080fd5b612da088826140ff565b3360009081526003602081815260408084208b855260019081018352818520909301805460ff1916909317909255600160a060020a03871683526006905290208054919950612e0b9186908110612df357fe5b90600052602060002090600602016002015482613d19565b600160a060020a0384166000908152600660205260409020805486908110612e2f57fe5b906000526020600020906006020160020181905550612e766007600085600160a060020a0316600160a060020a031681526020019081526020016000206007015482613d19565b600160a060020a0384166000908152600760208181526040808420909201939093556006909252208054612ed5919086908110612eaf57fe5b600091825260208083208a845260056006909302018201905260409091200154866140ff565b600160a060020a0384166000908152600660205260409020805486908110612ef957fe5b600091825260208083208a8452600560069093020182019052604090912001555b600190960195612bb8565b604080516001815290517f0cc34d11f43af89bf3aff732f3999051c4251b5ccc351a54712ea98b003a22319181900360200190a133600090815260036020526040812090612f766002830182614247565b6003820160009055505060019850505050505050505090565b606060066000600485815481101515612fa457fe5b6000918252602080832090910154600160a060020a031683528201929092526040019020805483908110611a3957fe5b600060013360009081526007602052604090206003015460ff166001811115612ff957fe5b1461300357600080fd5b3360009081526006602052604081205411801561302e57503360009081526006602052604090205488105b151561303957600080fd5b33600090815260066020526040902080548791908a90811061305757fe5b600091825260208083208b84526006928302016005018152604080842094909455338352522080548691908a90811061308c57fe5b600091825260208083208b84526006928302016005018152604080842060010194909455338352522080548591908a9081106130c457fe5b600091825260208083208b84526006928302016005018152604080842060020194909455338352522080548491908a9081106130fc57fe5b600091825260208083208b845260069283020160059081018252604080852090910194909455338352522080548391908a90811061313657fe5b90600052602060002090600602016005016000898152602001908152602001600020600601819055507feca6714fcf568fb34cf9db4a414cb0cc48e93c5d4e1ba0582a46ea3704cf24d5876040518082815260200191505060405180910390a1506001979650505050505050565b600160a060020a0384166000908152600660205260408120805482918491879081106131cc57fe5b600091825260208083208884526005600690930201820190526040909120015410156131f757600080fd5b600160a060020a038616600090815260066020526040812080548790811061321b57fe5b60009182526020808320888452600560069093020191909101905260409020600401541161324857600080fd5b6001600160a060020a03871660009081526007602052604090206003015460ff16600181111561327457fe5b1461327e57600080fd5b6003600033600160a060020a0316600160a060020a031681526020019081526020016000206002018054905090506003600033600160a060020a0316600160a060020a031681526020019081526020016000206002018490806001815401808255809150509060018203906000526020600020016000909192909190915055506040805190810160405280600115158152602001828152506003600033600160a060020a0316600160a060020a03168152602001908152602001600020600001600086815260200190815260200160002060008201518160000160006101000a81548160ff0219169083151502179055506020820151816001015590505060806040519081016040528084815260200187600160a060020a03168152602001868152602001600015158152506003600033600160a060020a0316600160a060020a0316815260200190815260200160002060010160008681526020019081526020016000206000820151816000015560208201518160010160006101000a815481600160a060020a030219169083600160a060020a031602179055506040820151816002015560608201518160030160006101000a81548160ff0219169083151502179055509050507f2480268f1c1956aeaceecb84a6f17e474bc61bb5bb84ec8401372ed0a6133ee86003600033600160a060020a0316600160a060020a03168152602001908152602001600020600201805490506040518082815260200191505060405180910390a150600195945050505050565b60006134bf614268565b60013360009081526007602052604090206003015460ff1660018111156134e257fe5b146134ec57600080fd5b838152602080820184815233600090815260068084526040808320805460018181018084559286529487902088519190940290930192835593519282019290925590840151600282015560608401518051929385936135519260038501920190614295565b5060809190910151600490910155503360009081526005602052604090205460ff16151561360357604080518082018252600180825260048054602080850191825233600081815260059092529581209451855460ff1916901515178555905193830193909355805491820181559091527f8a35acfbc15ff81a39ae7d344fd709f28e8600b4aa8c65c6b64bfe7fe36bd19b01805473ffffffffffffffffffffffffffffffffffffffff191690911790555b3360009081526006602090815260409182902054825190815291517f6c6c640d5c695d50cab6e007033207e384550c46ef1e827046dd75e4f33dc4329281900390910190a150503360009081526006602052604090205492915050565b336000818152600360208181526040808420868552808352908420600101549484529190526002018054919291600019810190811061369b57fe5b6000918252602080832090910154338352600390915260409091206002018054839081106136c557fe5b60009182526020808320909101929092553381526003909152604090206002018054906136f69060001983016141fc565b5033600081815260036020818152604080842088855260018082018452828620868155808201805473ffffffffffffffffffffffffffffffffffffffff191690556002808201889055908601805460ff1990811690915583865284882080549091168155909101869055959094529181529290910154815190815290517f7deaca4d9411ae1cc8abc39e3b082a716a0c9e3458e2e7ee60649689fa423ce2929181900390910190a150600192915050565b3360009081526006602052604081208054849081106137c257fe5b6000918252602080832085845260056006909302018201905260409091200154905092915050565b3360009081526003602090815260409182902060020180548351818402810184019094528084526060939283018282801561384457602002820191906000526020600020905b815481526020019060010190808311613830575b5050505050905090565b60001990565b600060016008610140604051908101604052808781526020018681526020018581526020016000600181111561388657fe5b81523360208201526001604082015260085460608201526080016138a861384e565b8152602001600481526000602091820181905283546001810180865594825290829020835180516008909302909101926138e792849290910190614111565b5060208281015180516139009260018501920190614111565b506040820151805161391c916002840191602090910190614111565b50606082015160038201805460ff19166001838181111561393957fe5b0217905550608082015160038201805460a085015174ffffffffffffffffffffffffffffffffffffffff0019909116610100600160a060020a0390941684021760a860020a60ff02191660a860020a9115159190910217905560c0830151600483015560e0830151600580840191909155908301516006830180549192909160ff19169060019084908111156139cb57fe5b02179055506101208201518160070155505050509392505050565b60008060008060006004878154811015156139fd57fe5b6000918252602080832090910154600160a060020a03168083526006909152604090912080549192509087908110613a3157fe5b6000918252602080832060069283020154600160a060020a03851684529190526040909120805488908110613a6257fe5b60009182526020909120600160069092020101549098909795509350505050565b60008054600160a060020a03163314613a9b57600080fd5b608060405190810160405280858152602001836005811115613ab957fe5b6005811115613ac457fe5b8152600160a060020a03851660208083018290526001604093840181905260009283528152919020825180519192613b0192849290910190614111565b50602082015160018083018054909160ff1990911690836005811115613b2357fe5b021790555060408281015160019092018054606090940151151560a860020a0260a860020a60ff0219600160a060020a039094166101000274ffffffffffffffffffffffffffffffffffffffff0019909516949094179290921692909217905580516080810190915284815260029060208101846005811115613ba257fe5b6005811115613bad57fe5b8152600160a060020a03861660208083019190915260016040909201829052835491820180855560009485529381902083518051600290940290910192613bf79284920190614111565b50602082015160018083018054909160ff1990911690836005811115613c1957fe5b021790555060408281015160019092018054606090940151151560a860020a0260a860020a60ff0219600160a060020a039094166101000274ffffffffffffffffffffffffffffffffffffffff001990951694909417929092169290921790558051602080825287518183015287517f56b0a2dda7952cd07f438433182565929ba3aba4c3404a7d29a0840ac6284da4945088938392908301919085019080838360005b83811015613cd5578181015183820152602001613cbd565b50505050905090810190601f168015613d025780820380516001836020036101000a031916815260200191505b509250505060405180910390a15060019392505050565b8181018281101561118057fe5b6000821515613d3757506000611180565b50818102818382811515613d4757fe5b041461118057fe5b600160a060020a03811660009081526007602052604081206004015460001912613d7857600080fd5b600880546000198101908110613d8a57fe5b60009182526020808320600160a060020a038616845260079091526040909220600401546008805492810290930192918110613dc257fe5b906000526020600020906008020160008201816000019080546001816001161561010002031660029004613df79291906142cf565b5060018201816001019080546001816001161561010002031660029004613e1f9291906142cf565b5060028281018054613e449284810192916000196101006001831615020116046142cf565b50600382810154908201805460ff9092169160ff191660018381811115613e6757fe5b021790555060038281018054918301805474ffffffffffffffffffffffffffffffffffffffff00191661010093849004600160a060020a031690930292909217808355905460a860020a60ff021990911660a860020a9182900460ff9081161515909202179091556004808401549083015560058084015481840155600680850154908401805491909316929160ff19909116906001908490811115613f0957fe5b0217905550600791820154910155613f1f61384e565b600160a060020a0383166000908152600760205260409020600401556008805490613f4e906000198301614343565b50600192915050565b60098054600160a060020a03831660009081526007602052604081206005810183905560018084018086559483528154929493919260089092027f6e1540171b6c0c960b71a7020d9f60077f6af931a8bbf590da0223dacf75c7af0191613fd691839185916002610100918316159190910260001901909116046142cf565b5060018201816001019080546001816001161561010002031660029004613ffe9291906142cf565b50600282810180546140239284810192916000196101006001831615020116046142cf565b50600382810154908201805460ff9092169160ff19166001838181111561404657fe5b021790555060038281018054918301805474ffffffffffffffffffffffffffffffffffffffff00191661010093849004600160a060020a031690930292909217808355905460a860020a60ff021990911660a860020a9182900460ff9081161515909202179091556004808401549083015560058084015481840155600680850154908401805491909316929160ff199091169060019084908111156140e857fe5b021790555060079182015491015550600192915050565b60008282111561410b57fe5b50900390565b828054600181600116156101000203166002900490600052602060002090601f016020900481019282601f1061415257805160ff191683800117855561417f565b8280016001018555821561417f579182015b8281111561417f578251825591602001919060010190614164565b5061171e92915061436f565b82805482825590600052602060002090810192821561417f5760005260206000209182015b8281111561417f5782548255916001019190600101906141b0565b8154818355818111156141f7576006028160060283600052602060002091820191016141f79190614389565b505050565b8154818355818111156141f7576000838152602090206141f791810190830161436f565b60408051608081018252600080825260208201819052918101829052606081019190915290565b5080546000825590600052602060002090810190614265919061436f565b50565b6040805160a081018252600080825260208201819052918101829052606080820152608081019190915290565b82805482825590600052602060002090810192821561417f579160200282018281111561417f578251825591602001919060010190614164565b828054600181600116156101000203166002900490600052602060002090601f016020900481019282601f10614308578054855561417f565b8280016001018555821561417f57600052602060002091601f016020900482018281111561417f5782548255916001019190600101906141b0565b8154818355818111156141f7576008028160080283600052602060002091820191016141f791906143c7565b610d0b91905b8082111561171e5760008155600101614375565b610d0b91905b8082111561171e57600080825560018201819055600282018190556143b76003830182614247565b506000600482015560060161438f565b610d0b91905b8082111561171e5760006143e18282614448565b6143ef600183016000614448565b6143fd600283016000614448565b5060038101805475ffffffffffffffffffffffffffffffffffffffffffff191690556000600482018190556005820181905560068201805460ff1916905560078201556008016143cd565b50805460018160011615610100020316600290046000825580601f1061446e5750614265565b601f016020900490600052602060002090810190614265919061436f5600a165627a7a72305820e33ac5d7cdcf3c2f290c70d6f1eca15b640738e06c6f89dbf1306bf0ed10c9880029",
  "source": "pragma solidity ^0.4.18;\nimport \"./StoreManager.sol\";\nimport \"./ProductManager.sol\";\nimport './UserManager.sol';\nimport \"./Ownerble.sol\";\nimport \"./ShoppingCartManager.sol\";\nimport \"./Withdrawable.sol\";\nimport \"./SpinelTokenSale.sol\";\n\ncontract MarketPlace is Ownerble, StoreManager, ProductManager,\nUserManager, ShoppingCartManager, Withdrawable{\n\n    SpinelTokenSale tokenSaleContract;\n    constructor(SpinelTokenSale _tokenSaleContract) public {\n         tokenSaleContract = _tokenSaleContract;\n         tokenSaleContract_shoppingCart = _tokenSaleContract;\n        \n    }\n}\n\n",
  "sourcePath": "/Users/yusufkelo/Documents/DEVELOPER/ETHEREAUM/blockchain-market/market-place/contracts/MarketPlace.sol",
  "compiler": {
    "name": "solc",
    "version": "0.4.24+commit.e67f0147.Emscripten.clang"
  },
  "schemaVersion": "2.0.0",
  "updatedAt": "2018-08-23T12:05:40.294Z"
}