{
  "contractName": "MarketPlace",
  "abi": [
    {
      "constant": true,
      "inputs": [],
      "name": "getPendingVendors",
      "outputs": [
        {
          "name": "",
          "type": "uint256"
        }
      ],
      "payable": false,
      "stateMutability": "view",
      "type": "function"
    },
    {
      "constant": true,
      "inputs": [
        {
          "name": "index",
          "type": "uint256"
        }
      ],
      "name": "getPendingVendorByIndex",
      "outputs": [
        {
          "name": "",
          "type": "string"
        },
        {
          "name": "",
          "type": "string"
        },
        {
          "name": "",
          "type": "string"
        },
        {
          "name": "",
          "type": "uint256"
        },
        {
          "name": "",
          "type": "address"
        }
      ],
      "payable": false,
      "stateMutability": "view",
      "type": "function"
    },
    {
      "constant": true,
      "inputs": [
        {
          "name": "productId",
          "type": "uint256"
        }
      ],
      "name": "getCartItem",
      "outputs": [
        {
          "name": "",
          "type": "uint256"
        },
        {
          "name": "",
          "type": "bytes32"
        },
        {
          "name": "",
          "type": "uint256"
        },
        {
          "name": "",
          "type": "uint256"
        },
        {
          "name": "",
          "type": "uint256"
        },
        {
          "name": "",
          "type": "uint256"
        },
        {
          "name": "",
          "type": "address"
        }
      ],
      "payable": false,
      "stateMutability": "view",
      "type": "function"
    },
    {
      "constant": true,
      "inputs": [
        {
          "name": "accountIndex",
          "type": "uint256"
        }
      ],
      "name": "getVendorStoreCountPublic",
      "outputs": [
        {
          "name": "",
          "type": "uint256"
        },
        {
          "name": "",
          "type": "uint256"
        }
      ],
      "payable": false,
      "stateMutability": "view",
      "type": "function"
    },
    {
      "constant": true,
      "inputs": [
        {
          "name": "storeIndex",
          "type": "uint256"
        }
      ],
      "name": "getProductsIdsVendor",
      "outputs": [
        {
          "name": "",
          "type": "uint256[]"
        }
      ],
      "payable": false,
      "stateMutability": "view",
      "type": "function"
    },
    {
      "constant": false,
      "inputs": [
        {
          "name": "orderId",
          "type": "uint256"
        },
        {
          "name": "grandTotal",
          "type": "uint256"
        },
        {
          "name": "paymentMethod",
          "type": "uint256"
        },
        {
          "name": "paymentDateTimeStamp",
          "type": "uint256"
        }
      ],
      "name": "createOrderHistory",
      "outputs": [
        {
          "name": "",
          "type": "bool"
        }
      ],
      "payable": false,
      "stateMutability": "nonpayable",
      "type": "function"
    },
    {
      "constant": false,
      "inputs": [
        {
          "name": "storeIndex",
          "type": "uint256"
        },
        {
          "name": "productName",
          "type": "bytes32"
        },
        {
          "name": "description",
          "type": "bytes32"
        },
        {
          "name": "price",
          "type": "uint256"
        },
        {
          "name": "quantity",
          "type": "uint256"
        },
        {
          "name": "priceInSpinelToken",
          "type": "uint256"
        }
      ],
      "name": "createProduct",
      "outputs": [
        {
          "name": "",
          "type": "uint256"
        }
      ],
      "payable": false,
      "stateMutability": "nonpayable",
      "type": "function"
    },
    {
      "constant": false,
      "inputs": [
        {
          "name": "orderId",
          "type": "uint256"
        },
        {
          "name": "productId",
          "type": "uint256"
        },
        {
          "name": "price",
          "type": "uint256"
        },
        {
          "name": "quantity",
          "type": "uint256"
        },
        {
          "name": "totalItemsPrice",
          "type": "uint256"
        },
        {
          "name": "vendorAccount",
          "type": "address"
        },
        {
          "name": "storeIndex",
          "type": "uint256"
        },
        {
          "name": "paymentMethod",
          "type": "uint256"
        }
      ],
      "name": "addTransaction",
      "outputs": [
        {
          "name": "",
          "type": "bool"
        }
      ],
      "payable": false,
      "stateMutability": "nonpayable",
      "type": "function"
    },
    {
      "constant": false,
      "inputs": [
        {
          "name": "_name",
          "type": "string"
        },
        {
          "name": "_email",
          "type": "string"
        },
        {
          "name": "_phone",
          "type": "string"
        }
      ],
      "name": "requestVendorAccount",
      "outputs": [
        {
          "name": "",
          "type": "bool"
        }
      ],
      "payable": false,
      "stateMutability": "nonpayable",
      "type": "function"
    },
    {
      "constant": true,
      "inputs": [],
      "name": "getCustomerOrdersHistoryCount",
      "outputs": [
        {
          "name": "",
          "type": "uint256"
        }
      ],
      "payable": false,
      "stateMutability": "view",
      "type": "function"
    },
    {
      "constant": true,
      "inputs": [],
      "name": "getPendingVendorsCount",
      "outputs": [
        {
          "name": "",
          "type": "uint256"
        }
      ],
      "payable": false,
      "stateMutability": "view",
      "type": "function"
    },
    {
      "constant": true,
      "inputs": [
        {
          "name": "accountIndex",
          "type": "uint256"
        },
        {
          "name": "storeIndex",
          "type": "uint256"
        },
        {
          "name": "productId",
          "type": "uint256"
        }
      ],
      "name": "getProductCustomer",
      "outputs": [
        {
          "name": "",
          "type": "bytes32"
        },
        {
          "name": "",
          "type": "bytes32"
        },
        {
          "name": "",
          "type": "uint256"
        },
        {
          "name": "",
          "type": "uint256"
        },
        {
          "name": "",
          "type": "string"
        },
        {
          "name": "",
          "type": "address"
        },
        {
          "name": "",
          "type": "uint256"
        }
      ],
      "payable": false,
      "stateMutability": "view",
      "type": "function"
    },
    {
      "constant": true,
      "inputs": [
        {
          "name": "accountIndex",
          "type": "uint256"
        },
        {
          "name": "storeIndex",
          "type": "uint256"
        }
      ],
      "name": "getStorePublic",
      "outputs": [
        {
          "name": "",
          "type": "bytes32"
        },
        {
          "name": "",
          "type": "bytes32"
        },
        {
          "name": "",
          "type": "uint256"
        },
        {
          "name": "",
          "type": "uint256"
        }
      ],
      "payable": false,
      "stateMutability": "view",
      "type": "function"
    },
    {
      "constant": false,
      "inputs": [],
      "name": "withdraw",
      "outputs": [
        {
          "name": "",
          "type": "bool"
        }
      ],
      "payable": false,
      "stateMutability": "nonpayable",
      "type": "function"
    },
    {
      "constant": true,
      "inputs": [],
      "name": "getApprovedVendorsCount",
      "outputs": [
        {
          "name": "",
          "type": "uint256"
        }
      ],
      "payable": false,
      "stateMutability": "view",
      "type": "function"
    },
    {
      "constant": true,
      "inputs": [
        {
          "name": "paymentMethod",
          "type": "uint256"
        },
        {
          "name": "customerBalanceInWei",
          "type": "uint256"
        }
      ],
      "name": "isCustomerBalanceSufficient",
      "outputs": [
        {
          "name": "",
          "type": "bool"
        }
      ],
      "payable": false,
      "stateMutability": "view",
      "type": "function"
    },
    {
      "constant": true,
      "inputs": [
        {
          "name": "account",
          "type": "address"
        }
      ],
      "name": "getVendorByAddress",
      "outputs": [
        {
          "name": "",
          "type": "string"
        },
        {
          "name": "",
          "type": "string"
        },
        {
          "name": "",
          "type": "string"
        },
        {
          "name": "",
          "type": "uint256"
        },
        {
          "name": "",
          "type": "address"
        }
      ],
      "payable": false,
      "stateMutability": "view",
      "type": "function"
    },
    {
      "constant": false,
      "inputs": [
        {
          "name": "name",
          "type": "string"
        },
        {
          "name": "account",
          "type": "address"
        },
        {
          "name": "role",
          "type": "uint256"
        }
      ],
      "name": "createAdminUser",
      "outputs": [
        {
          "name": "",
          "type": "bool"
        }
      ],
      "payable": false,
      "stateMutability": "nonpayable",
      "type": "function"
    },
    {
      "constant": true,
      "inputs": [],
      "name": "getVendorAccountsWithListedStoresCount",
      "outputs": [
        {
          "name": "",
          "type": "uint256"
        }
      ],
      "payable": false,
      "stateMutability": "view",
      "type": "function"
    },
    {
      "constant": true,
      "inputs": [
        {
          "name": "paymentMethod",
          "type": "uint256"
        }
      ],
      "name": "getCartPrice",
      "outputs": [
        {
          "name": "",
          "type": "uint256"
        }
      ],
      "payable": false,
      "stateMutability": "view",
      "type": "function"
    },
    {
      "constant": true,
      "inputs": [
        {
          "name": "index",
          "type": "uint256"
        }
      ],
      "name": "getApprovedVendorByIndex",
      "outputs": [
        {
          "name": "",
          "type": "string"
        },
        {
          "name": "",
          "type": "string"
        },
        {
          "name": "",
          "type": "string"
        },
        {
          "name": "",
          "type": "uint256"
        },
        {
          "name": "",
          "type": "address"
        }
      ],
      "payable": false,
      "stateMutability": "view",
      "type": "function"
    },
    {
      "constant": true,
      "inputs": [
        {
          "name": "account",
          "type": "address"
        },
        {
          "name": "storeIndex",
          "type": "uint256"
        }
      ],
      "name": "getProductsIds",
      "outputs": [
        {
          "name": "",
          "type": "uint256[]"
        }
      ],
      "payable": false,
      "stateMutability": "view",
      "type": "function"
    },
    {
      "constant": true,
      "inputs": [
        {
          "name": "orderId",
          "type": "uint256"
        }
      ],
      "name": "getOrderHistory",
      "outputs": [
        {
          "name": "",
          "type": "uint256"
        },
        {
          "name": "",
          "type": "uint256"
        }
      ],
      "payable": false,
      "stateMutability": "view",
      "type": "function"
    },
    {
      "constant": false,
      "inputs": [
        {
          "name": "paymentMethod",
          "type": "uint256"
        },
        {
          "name": "customerAccount",
          "type": "address"
        },
        {
          "name": "vendorAccount",
          "type": "address"
        },
        {
          "name": "storeIndex",
          "type": "uint256"
        },
        {
          "name": "totalItemsPrice",
          "type": "uint256"
        }
      ],
      "name": "payVendor",
      "outputs": [
        {
          "name": "",
          "type": "bool"
        }
      ],
      "payable": false,
      "stateMutability": "nonpayable",
      "type": "function"
    },
    {
      "constant": false,
      "inputs": [
        {
          "name": "vendorAccount",
          "type": "address"
        },
        {
          "name": "storeIndex",
          "type": "uint256"
        },
        {
          "name": "productId",
          "type": "uint256"
        },
        {
          "name": "productQuantity",
          "type": "uint256"
        }
      ],
      "name": "updateCartItem",
      "outputs": [
        {
          "name": "",
          "type": "bool"
        }
      ],
      "payable": false,
      "stateMutability": "nonpayable",
      "type": "function"
    },
    {
      "constant": true,
      "inputs": [],
      "name": "getVendorBalance",
      "outputs": [
        {
          "name": "",
          "type": "uint256"
        }
      ],
      "payable": false,
      "stateMutability": "view",
      "type": "function"
    },
    {
      "constant": true,
      "inputs": [
        {
          "name": "storeIndex",
          "type": "uint256"
        }
      ],
      "name": "getStorePrivate",
      "outputs": [
        {
          "name": "",
          "type": "bytes32"
        },
        {
          "name": "",
          "type": "bytes32"
        },
        {
          "name": "",
          "type": "uint256"
        },
        {
          "name": "",
          "type": "uint256"
        }
      ],
      "payable": false,
      "stateMutability": "view",
      "type": "function"
    },
    {
      "constant": true,
      "inputs": [],
      "name": "getCartItemsCount",
      "outputs": [
        {
          "name": "",
          "type": "uint256"
        }
      ],
      "payable": false,
      "stateMutability": "view",
      "type": "function"
    },
    {
      "constant": false,
      "inputs": [
        {
          "name": "storeIndex",
          "type": "uint256"
        }
      ],
      "name": "deleteStore",
      "outputs": [
        {
          "name": "",
          "type": "bool"
        }
      ],
      "payable": false,
      "stateMutability": "nonpayable",
      "type": "function"
    },
    {
      "constant": true,
      "inputs": [],
      "name": "getAdminUsersCount",
      "outputs": [
        {
          "name": "",
          "type": "uint256"
        }
      ],
      "payable": false,
      "stateMutability": "view",
      "type": "function"
    },
    {
      "constant": true,
      "inputs": [
        {
          "name": "storeIndex",
          "type": "uint256"
        }
      ],
      "name": "getProductsCount",
      "outputs": [
        {
          "name": "",
          "type": "uint256"
        }
      ],
      "payable": false,
      "stateMutability": "view",
      "type": "function"
    },
    {
      "constant": true,
      "inputs": [
        {
          "name": "",
          "type": "address"
        }
      ],
      "name": "customerOrdersCount",
      "outputs": [
        {
          "name": "",
          "type": "uint256"
        }
      ],
      "payable": false,
      "stateMutability": "view",
      "type": "function"
    },
    {
      "constant": true,
      "inputs": [],
      "name": "getUserStoreCount",
      "outputs": [
        {
          "name": "",
          "type": "uint256"
        }
      ],
      "payable": false,
      "stateMutability": "view",
      "type": "function"
    },
    {
      "constant": false,
      "inputs": [
        {
          "name": "imageHash",
          "type": "string"
        },
        {
          "name": "storeIndex",
          "type": "uint256"
        },
        {
          "name": "productId",
          "type": "uint256"
        }
      ],
      "name": "updateProductImage",
      "outputs": [
        {
          "name": "",
          "type": "bool"
        }
      ],
      "payable": false,
      "stateMutability": "nonpayable",
      "type": "function"
    },
    {
      "constant": true,
      "inputs": [
        {
          "name": "paymentMethod",
          "type": "uint256"
        },
        {
          "name": "customerBalance",
          "type": "uint256"
        }
      ],
      "name": "getcustomerBalance",
      "outputs": [
        {
          "name": "",
          "type": "uint256"
        }
      ],
      "payable": false,
      "stateMutability": "view",
      "type": "function"
    },
    {
      "constant": false,
      "inputs": [
        {
          "name": "account",
          "type": "address"
        }
      ],
      "name": "approveVendorAccount",
      "outputs": [
        {
          "name": "",
          "type": "bool"
        }
      ],
      "payable": false,
      "stateMutability": "nonpayable",
      "type": "function"
    },
    {
      "constant": true,
      "inputs": [
        {
          "name": "paymentMethod",
          "type": "uint256"
        },
        {
          "name": "vendorAccount",
          "type": "address"
        },
        {
          "name": "storeIndex",
          "type": "uint256"
        },
        {
          "name": "productId",
          "type": "uint256"
        }
      ],
      "name": "getItemsPrice",
      "outputs": [
        {
          "name": "",
          "type": "uint256"
        }
      ],
      "payable": false,
      "stateMutability": "view",
      "type": "function"
    },
    {
      "constant": false,
      "inputs": [
        {
          "name": "storeIndex",
          "type": "uint256"
        },
        {
          "name": "productId",
          "type": "uint256"
        }
      ],
      "name": "deleteProduct",
      "outputs": [
        {
          "name": "",
          "type": "bool"
        }
      ],
      "payable": false,
      "stateMutability": "nonpayable",
      "type": "function"
    },
    {
      "constant": true,
      "inputs": [
        {
          "name": "index",
          "type": "uint256"
        }
      ],
      "name": "getAdminUserByIndex",
      "outputs": [
        {
          "name": "",
          "type": "string"
        },
        {
          "name": "",
          "type": "uint256"
        },
        {
          "name": "",
          "type": "address"
        }
      ],
      "payable": false,
      "stateMutability": "view",
      "type": "function"
    },
    {
      "constant": true,
      "inputs": [
        {
          "name": "storeIndex",
          "type": "uint256"
        },
        {
          "name": "productId",
          "type": "uint256"
        }
      ],
      "name": "getProductVendor",
      "outputs": [
        {
          "name": "",
          "type": "bytes32"
        },
        {
          "name": "",
          "type": "bytes32"
        },
        {
          "name": "",
          "type": "uint256"
        },
        {
          "name": "",
          "type": "uint256"
        },
        {
          "name": "",
          "type": "uint256"
        },
        {
          "name": "",
          "type": "string"
        },
        {
          "name": "",
          "type": "address"
        },
        {
          "name": "",
          "type": "uint256"
        }
      ],
      "payable": false,
      "stateMutability": "view",
      "type": "function"
    },
    {
      "constant": true,
      "inputs": [
        {
          "name": "account",
          "type": "address"
        }
      ],
      "name": "getAdminUserByAddress",
      "outputs": [
        {
          "name": "",
          "type": "string"
        },
        {
          "name": "",
          "type": "uint256"
        },
        {
          "name": "",
          "type": "address"
        }
      ],
      "payable": false,
      "stateMutability": "view",
      "type": "function"
    },
    {
      "constant": true,
      "inputs": [],
      "name": "getUserRole",
      "outputs": [
        {
          "name": "",
          "type": "uint256"
        }
      ],
      "payable": false,
      "stateMutability": "view",
      "type": "function"
    },
    {
      "constant": false,
      "inputs": [
        {
          "name": "storeIndex",
          "type": "uint256"
        },
        {
          "name": "storeName",
          "type": "bytes32"
        },
        {
          "name": "description",
          "type": "bytes32"
        }
      ],
      "name": "editStore",
      "outputs": [
        {
          "name": "",
          "type": "bool"
        }
      ],
      "payable": false,
      "stateMutability": "nonpayable",
      "type": "function"
    },
    {
      "constant": true,
      "inputs": [
        {
          "name": "productPrice",
          "type": "uint256"
        },
        {
          "name": "purchasedQuantity",
          "type": "uint256"
        }
      ],
      "name": "getTotalItemsPrice",
      "outputs": [
        {
          "name": "",
          "type": "uint256"
        }
      ],
      "payable": false,
      "stateMutability": "pure",
      "type": "function"
    },
    {
      "constant": true,
      "inputs": [
        {
          "name": "accountIndex",
          "type": "uint256"
        },
        {
          "name": "storeIndex",
          "type": "uint256"
        }
      ],
      "name": "getProductsIdsCustomer",
      "outputs": [
        {
          "name": "",
          "type": "uint256[]"
        }
      ],
      "payable": false,
      "stateMutability": "view",
      "type": "function"
    },
    {
      "constant": false,
      "inputs": [
        {
          "name": "storeIndex",
          "type": "uint256"
        },
        {
          "name": "productId",
          "type": "uint256"
        },
        {
          "name": "productName",
          "type": "bytes32"
        },
        {
          "name": "description",
          "type": "bytes32"
        },
        {
          "name": "price",
          "type": "uint256"
        },
        {
          "name": "quantity",
          "type": "uint256"
        },
        {
          "name": "priceInSpinelToken",
          "type": "uint256"
        }
      ],
      "name": "editProduct",
      "outputs": [
        {
          "name": "",
          "type": "bool"
        }
      ],
      "payable": false,
      "stateMutability": "nonpayable",
      "type": "function"
    },
    {
      "constant": true,
      "inputs": [
        {
          "name": "",
          "type": "address"
        },
        {
          "name": "",
          "type": "address"
        }
      ],
      "name": "allowance",
      "outputs": [
        {
          "name": "",
          "type": "uint256"
        }
      ],
      "payable": false,
      "stateMutability": "view",
      "type": "function"
    },
    {
      "constant": true,
      "inputs": [
        {
          "name": "orderId",
          "type": "uint256"
        },
        {
          "name": "transactionIndex",
          "type": "uint256"
        }
      ],
      "name": "getOrderTransaction",
      "outputs": [
        {
          "name": "",
          "type": "bytes32"
        },
        {
          "name": "",
          "type": "uint256"
        },
        {
          "name": "",
          "type": "uint256"
        },
        {
          "name": "",
          "type": "address"
        },
        {
          "name": "",
          "type": "bytes32"
        },
        {
          "name": "",
          "type": "uint256"
        }
      ],
      "payable": false,
      "stateMutability": "view",
      "type": "function"
    },
    {
      "constant": false,
      "inputs": [
        {
          "name": "vendorAccount",
          "type": "address"
        },
        {
          "name": "storeIndex",
          "type": "uint256"
        },
        {
          "name": "productId",
          "type": "uint256"
        },
        {
          "name": "productQuantity",
          "type": "uint256"
        }
      ],
      "name": "addItemToCart",
      "outputs": [
        {
          "name": "",
          "type": "bool"
        }
      ],
      "payable": false,
      "stateMutability": "nonpayable",
      "type": "function"
    },
    {
      "constant": false,
      "inputs": [
        {
          "name": "storeName",
          "type": "bytes32"
        },
        {
          "name": "description",
          "type": "bytes32"
        }
      ],
      "name": "createStore",
      "outputs": [
        {
          "name": "",
          "type": "uint256"
        }
      ],
      "payable": false,
      "stateMutability": "nonpayable",
      "type": "function"
    },
    {
      "constant": false,
      "inputs": [
        {
          "name": "paymentMethod",
          "type": "uint256"
        },
        {
          "name": "paymentDateTimeStamp",
          "type": "uint256"
        }
      ],
      "name": "checkOutTokenPayment",
      "outputs": [
        {
          "name": "",
          "type": "bool"
        }
      ],
      "payable": true,
      "stateMutability": "payable",
      "type": "function"
    },
    {
      "constant": true,
      "inputs": [
        {
          "name": "orderId",
          "type": "uint256"
        }
      ],
      "name": "getOrderTransactionsCount",
      "outputs": [
        {
          "name": "",
          "type": "uint256"
        }
      ],
      "payable": false,
      "stateMutability": "view",
      "type": "function"
    },
    {
      "constant": false,
      "inputs": [
        {
          "name": "productId",
          "type": "uint256"
        }
      ],
      "name": "deleteCartItem",
      "outputs": [
        {
          "name": "",
          "type": "bool"
        }
      ],
      "payable": false,
      "stateMutability": "nonpayable",
      "type": "function"
    },
    {
      "constant": true,
      "inputs": [
        {
          "name": "storeIndex",
          "type": "uint256"
        },
        {
          "name": "productId",
          "type": "uint256"
        }
      ],
      "name": "getProductQuantity",
      "outputs": [
        {
          "name": "",
          "type": "uint256"
        }
      ],
      "payable": false,
      "stateMutability": "view",
      "type": "function"
    },
    {
      "constant": true,
      "inputs": [],
      "name": "getCartItemsIds",
      "outputs": [
        {
          "name": "",
          "type": "uint256[]"
        }
      ],
      "payable": false,
      "stateMutability": "view",
      "type": "function"
    },
    {
      "inputs": [
        {
          "name": "tokenContract",
          "type": "address"
        }
      ],
      "payable": false,
      "stateMutability": "nonpayable",
      "type": "constructor"
    },
    {
      "payable": false,
      "stateMutability": "nonpayable",
      "type": "fallback"
    },
    {
      "anonymous": false,
      "inputs": [
        {
          "indexed": false,
          "name": "amount",
          "type": "uint256"
        }
      ],
      "name": "WithdrawalCompletedSuccessfully",
      "type": "event"
    },
    {
      "anonymous": false,
      "inputs": [
        {
          "indexed": false,
          "name": "cartSize",
          "type": "uint256"
        }
      ],
      "name": "ItemInsertedToCart",
      "type": "event"
    },
    {
      "anonymous": false,
      "inputs": [
        {
          "indexed": false,
          "name": "productQuantity",
          "type": "uint256"
        }
      ],
      "name": "CartItemUpdated",
      "type": "event"
    },
    {
      "anonymous": false,
      "inputs": [
        {
          "indexed": false,
          "name": "cartSize",
          "type": "uint256"
        }
      ],
      "name": "CartItemDeleted",
      "type": "event"
    },
    {
      "anonymous": false,
      "inputs": [
        {
          "indexed": false,
          "name": "status",
          "type": "bool"
        }
      ],
      "name": "PaymentCompleted",
      "type": "event"
    },
    {
      "anonymous": false,
      "inputs": [
        {
          "indexed": false,
          "name": "amount",
          "type": "uint256"
        }
      ],
      "name": "PaymentByTokenCompleted",
      "type": "event"
    },
    {
      "anonymous": false,
      "inputs": [
        {
          "indexed": false,
          "name": "amount",
          "type": "uint256"
        }
      ],
      "name": "PaymentByEtherCompleted",
      "type": "event"
    },
    {
      "anonymous": false,
      "inputs": [
        {
          "indexed": false,
          "name": "status",
          "type": "bool"
        }
      ],
      "name": "VendorAccountRequested",
      "type": "event"
    },
    {
      "anonymous": false,
      "inputs": [
        {
          "indexed": false,
          "name": "status",
          "type": "bool"
        }
      ],
      "name": "VendorAccountApproved",
      "type": "event"
    },
    {
      "anonymous": false,
      "inputs": [
        {
          "indexed": false,
          "name": "productId",
          "type": "uint256"
        },
        {
          "indexed": false,
          "name": "productIdSlot",
          "type": "uint256"
        }
      ],
      "name": "ProductCreated",
      "type": "event"
    },
    {
      "anonymous": false,
      "inputs": [
        {
          "indexed": false,
          "name": "productId",
          "type": "uint256"
        }
      ],
      "name": "ProductUpdated",
      "type": "event"
    },
    {
      "anonymous": false,
      "inputs": [
        {
          "indexed": false,
          "name": "productId",
          "type": "uint256"
        }
      ],
      "name": "ProductDeleted",
      "type": "event"
    },
    {
      "anonymous": false,
      "inputs": [
        {
          "indexed": false,
          "name": "imageHash",
          "type": "string"
        },
        {
          "indexed": false,
          "name": "storeIndex",
          "type": "uint256"
        },
        {
          "indexed": false,
          "name": "productId",
          "type": "uint256"
        }
      ],
      "name": "ImageUpdated",
      "type": "event"
    },
    {
      "anonymous": false,
      "inputs": [
        {
          "indexed": false,
          "name": "storesSize",
          "type": "uint256"
        }
      ],
      "name": "StoreCreated",
      "type": "event"
    },
    {
      "anonymous": false,
      "inputs": [
        {
          "indexed": false,
          "name": "storeName",
          "type": "bytes32"
        },
        {
          "indexed": false,
          "name": "description",
          "type": "bytes32"
        }
      ],
      "name": "StoreUpdated",
      "type": "event"
    },
    {
      "anonymous": false,
      "inputs": [
        {
          "indexed": false,
          "name": "storesSize",
          "type": "uint256"
        }
      ],
      "name": "StoreDeleteted",
      "type": "event"
    },
    {
      "anonymous": false,
      "inputs": [
        {
          "indexed": false,
          "name": "name",
          "type": "string"
        }
      ],
      "name": "UserCreated",
      "type": "event"
    }
  ],
  "bytecode": "0x60806040523480156200001157600080fd5b50604051602080620056f6833981016040525162000037640100000000620000a9810204565b60408051808201909152600581527f4f776e657200000000000000000000000000000000000000000000000000000060208201526200008290336000640100000000620000bd810204565b50600d8054600160a060020a031916600160a060020a0392909216919091179055620004f5565b60008054600160a060020a03191633179055565b60008054600160a060020a03163314620000d657600080fd5b6000826005811115620000e557fe5b6005811115620000f157fe5b146200018457604080517f08c379a000000000000000000000000000000000000000000000000000000000815260206004820152602760248201527f544845205350454349464945442041444d494e20524f4c4520444f4553204e4f60448201527f5420455849535400000000000000000000000000000000000000000000000000606482015290519081900360840190fd5b6200019a848484640100000000620001a2810204565b949350505050565b60008054600160a060020a03163314620001bb57600080fd5b608060405190810160405280858152602001836005811115620001da57fe5b6005811115620001e657fe5b8152600160a060020a03851660208083018290526001604093840181905260009283528152919020825180519192620002259284929091019062000450565b50602082015160018083018054909160ff19909116908360058111156200024857fe5b021790555060408281015160019092018054606090940151151575010000000000000000000000000000000000000000000260a860020a60ff0219600160a060020a039094166101000261010060a860020a0319909516949094179290921692909217905580516080810190915284815260029060208101846005811115620002cd57fe5b6005811115620002d957fe5b8152600160a060020a0386166020808301919091526001604090920182905283549182018085556000948552938190208351805160029094029091019262000325928492019062000450565b50602082015160018083018054909160ff19909116908360058111156200034857fe5b021790555060408281015160019092018054606090940151151575010000000000000000000000000000000000000000000260a860020a60ff0219600160a060020a039094166101000261010060a860020a031990951694909417929092169290921790558051602080825287518183015287517f56b0a2dda7952cd07f438433182565929ba3aba4c3404a7d29a0840ac6284da4945088938392908301919085019080838360005b838110156200040b578181015183820152602001620003f1565b50505050905090810190601f168015620004395780820380516001836020036101000a031916815260200191505b509250505060405180910390a15060019392505050565b828054600181600116156101000203166002900490600052602060002090601f016020900481019282601f106200049357805160ff1916838001178555620004c3565b82800160010185558215620004c3579182015b82811115620004c3578251825591602001919060010190620004a6565b50620004d1929150620004d5565b5090565b620004f291905b80821115620004d15760008155600101620004dc565b90565b6151f180620005056000396000f3006080604052600436106102925763ffffffff7c01000000000000000000000000000000000000000000000000000000006000350416630666742981146102a457806306cfcb86146102cb57806311f839181461044757806317a58023146104a057806318979559146104d15780631d8e75c3146105395780631f0883651461056e57806320561e781461059557806328617c7c146105cb57806331becb99146106a0578063340cffbe146102a457806336bbb03c146106b55780633a8fa895146107435780633ccfd60b146107845780633d0559631461079957806341f6d875146107ae57806343defc10146107c957806354062143146107ea578063543c73f514610854578063571350af1461086957806358e99175146108815780635ce9ae53146108995780635fb97376146108bd57806360de181a146108d55780636de0c1f2146109055780636e91c6b81461092f5780637105306a1461094457806373ac9d351461095c5780637cc69325146109715780637f26690414610989578063892c45f91461099e5780638a3046ba146109b65780638f0c0f36146109d75780639042c70e146109ec57806397cd16f714610a4e57806399dcec8514610a695780639b8a373f14610a8a578063a1c48cc414610ab4578063a93e999d14610acf578063ab7f603f14610b7f578063bb3fac1414610c55578063bf04a10d14610c76578063c08ed9b114610c8b578063c83a0ac314610ca9578063d1dfaa3e14610cc4578063d604362d14610cdf578063dd62ed3e14610d09578063e16002b114610d30578063e63aefcb14610d86578063e64a282b14610db0578063e82ca79414610dcb578063eba1160914610dd9578063f513747614610df1578063f8127a8814610e09578063fa846e5a14610e24575b34801561029e57600080fd5b50600080fd5b3480156102b057600080fd5b506102b9610e39565b60408051918252519081900360200190f35b3480156102d757600080fd5b506102e3600435610e56565b6040518080602001806020018060200186815260200185600160a060020a0316600160a060020a03168152602001848103845289818151815260200191508051906020019080838360005b8381101561034657818101518382015260200161032e565b50505050905090810190601f1680156103735780820380516001836020036101000a031916815260200191505b5084810383528851815288516020918201918a019080838360005b838110156103a657818101518382015260200161038e565b50505050905090810190601f1680156103d35780820380516001836020036101000a031916815260200191505b50848103825287518152875160209182019189019080838360005b838110156104065781810151838201526020016103ee565b50505050905090810190601f1680156104335780820380516001836020036101000a031916815260200191505b509850505050505050505060405180910390f35b34801561045357600080fd5b5061045f600435611136565b604080519788526020880196909652868601949094526060860192909252608085015260a0840152600160a060020a031660c0830152519081900360e00190f35b3480156104ac57600080fd5b506104b8600435611276565b6040805192835260208301919091528051918290030190f35b3480156104dd57600080fd5b506104e96004356112bc565b60408051602080825283518183015283519192839290830191858101910280838360005b8381101561052557818101518382015260200161050d565b505050509050019250505060405180910390f35b34801561054557600080fd5b5061055a6004356024356044356064356112ce565b604080519115158252519081900360200190f35b34801561057a57600080fd5b506102b960043560243560443560643560843560a435611351565b3480156105a157600080fd5b5061055a600435602435604435606435608435600160a060020a0360a4351660c43560e435611579565b3480156105d757600080fd5b506040805160206004803580820135601f810184900484028501840190955284845261055a94369492936024939284019190819084018382808284375050604080516020601f89358b018035918201839004830284018301909452808352979a99988101979196509182019450925082915084018382808284375050604080516020601f89358b018035918201839004830284018301909452808352979a9998810197919650918201945092508291508401838280828437509497506116d39650505050505050565b3480156106ac57600080fd5b506102b96118fc565b3480156106c157600080fd5b506106d360043560243560443561190f565b60408051888152602080820189905291810187905260608101869052600160a060020a03841660a082015260c0810183905260e0608082018181528651918301919091528551919290916101008401918701908083836000838110156104065781810151838201526020016103ee565b34801561074f57600080fd5b5061075e600435602435611b3a565b604080519485526020850193909352838301919091526060830152519081900360800190f35b34801561079057600080fd5b5061055a611bb0565b3480156107a557600080fd5b506102b9611c8c565b3480156107ba57600080fd5b5061055a600435602435611ca2565b3480156107d557600080fd5b506102e3600160a060020a0360043516611d7a565b3480156107f657600080fd5b506040805160206004803580820135601f810184900484028501840190955284845261055a94369492936024939284019190819084018382808284375094975050508335600160a060020a0316945050506020909101359050611e67565b34801561086057600080fd5b506102b9611f41565b34801561087557600080fd5b506102b9600435611f47565b34801561088d57600080fd5b506102e3600435612182565b3480156108a557600080fd5b506104e9600160a060020a0360043516602435612286565b3480156108c957600080fd5b506104b8600435612316565b3480156108e157600080fd5b5061055a600435600160a060020a036024358116906044351660643560843561233e565b34801561091157600080fd5b5061055a600160a060020a0360043516602435604435606435612545565b34801561093b57600080fd5b506102b9612645565b34801561095057600080fd5b5061075e60043561268b565b34801561096857600080fd5b506102b9612729565b34801561097d57600080fd5b5061055a60043561273f565b34801561099557600080fd5b506102b961296c565b3480156109aa57600080fd5b506102b9600435612998565b3480156109c257600080fd5b506102b9600160a060020a03600435166129cd565b3480156109e357600080fd5b506102b96129df565b3480156109f857600080fd5b506040805160206004803580820135601f810184900484028501840190955284845261055a9436949293602493928401919081908401838280828437509497505084359550505060209092013591506129f29050565b348015610a5a57600080fd5b506102b9600435602435612b28565b348015610a7557600080fd5b5061055a600160a060020a0360043516612be9565b348015610a9657600080fd5b506102b9600435600160a060020a0360243516604435606435612cbd565b348015610ac057600080fd5b5061055a600435602435612d80565b348015610adb57600080fd5b50610ae7600435612fd3565b604051808060200184815260200183600160a060020a0316600160a060020a03168152602001828103825285818151815260200191508051906020019080838360005b83811015610b42578181015183820152602001610b2a565b50505050905090810190601f168015610b6f5780820380516001836020036101000a031916815260200191505b5094505050505060405180910390f35b348015610b8b57600080fd5b50610b9a60043560243561312b565b6040805189815260208082018a90529181018890526060810187905260808101869052600160a060020a03841660c082015260e0810183905261010060a0820181815286519183019190915285519192909161012084019187019080838360005b83811015610c13578181015183820152602001610bfb565b50505050905090810190601f168015610c405780820380516001836020036101000a031916815260200191505b50995050505050505050505060405180910390f35b348015610c6157600080fd5b50610ae7600160a060020a0360043516613366565b348015610c8257600080fd5b506102b9613461565b348015610c9757600080fd5b5061055a600435602435604435613500565b348015610cb557600080fd5b506102b9600435602435613608565b348015610cd057600080fd5b506104e9600435602435613615565b348015610ceb57600080fd5b5061055a60043560243560443560643560843560a43560c43561365a565b348015610d1557600080fd5b506102b9600160a060020a036004358116906024351661382a565b348015610d3c57600080fd5b50610d4b600435602435613847565b60408051968752602087019590955285850193909352600160a060020a039091166060850152608084015260a0830152519081900360c00190f35b348015610d9257600080fd5b5061055a600160a060020a03600435166024356044356064356139e0565b348015610dbc57600080fd5b506102b9600435602435613d1d565b61055a600435602435613ec8565b348015610de557600080fd5b506102b96004356142e6565b348015610dfd57600080fd5b5061055a600435614303565b348015610e1557600080fd5b506102b960043560243561444a565b348015610e3057600080fd5b506104e961448d565b600b54600090811015610e4f5750600b54610e53565b5060005b90565b6060806060600080600b8054905086101515610ebc576040805160e560020a62461bcd02815260206004820152600d60248201527f496e76616c696420696e64657800000000000000000000000000000000000000604482015290519081900360640190fd5b600b805487908110610eca57fe5b9060005260206000209060080201600001600b87815481101515610eea57fe5b9060005260206000209060080201600101600b88815481101515610f0a57fe5b9060005260206000209060080201600201600b89815481101515610f2a57fe5b600091825260209091206003600890920201015460ff166001811115610f4c57fe5b600b80548b908110610f5a57fe5b600091825260209182902060089190910201600301548554604080516002610100600185161581026000190190941604601f810186900486028201860190925281815291909204600160a060020a031692909187918301828280156110005780601f10610fd557610100808354040283529160200191611000565b820191906000526020600020905b815481529060010190602001808311610fe357829003601f168201915b5050875460408051602060026001851615610100026000190190941693909304601f8101849004840282018401909252818152959a508994509250840190508282801561108e5780601f106110635761010080835404028352916020019161108e565b820191906000526020600020905b81548152906001019060200180831161107157829003601f168201915b5050865460408051602060026001851615610100026000190190941693909304601f81018490048402820184019092528181529599508894509250840190508282801561111c5780601f106110f15761010080835404028352916020019161111c565b820191906000526020600020905b8154815290600101906020018083116110ff57829003601f168201915b505050505092509450945094509450945091939590929450565b33600090815260036020908152604080832084845260019081018352818420600281015481549190920154600160a060020a0316808652600690945291842080548594859485948594859485949293929185918590811061119357fe5b600091825260208083208f845260069283020160050181526040808420830154600160a060020a03871685529290915290912080549192508d91869081106111d757fe5b906000526020600020906006020160050160008e8152602001908152602001600020600001546006600085600160a060020a0316600160a060020a031681526020019081526020016000208681548110151561122f57fe5b906000526020600020906006020160050160008f815260200190815260200160002060020154838688879a509a509a509a509a509a509a5050505050919395979092949650565b600080826006600060048681548110151561128d57fe5b6000918252602080832090910154600160a060020a031683528201929092526040019020549092509050915091565b60606112c83383612286565b92915050565b600060018360018111156112de57fe5b60018111156112e957fe5b148061130b575060008360018111156112fe57fe5b600181111561130957fe5b145b151561131657600080fd5b50336000908152600960209081526040808320878452909152902060018082018390556002820185905560039091018390555b949350505050565b600080806001336000908152600a602052604090206003015460ff16600181111561137857fe5b1461138257600080fd5b336000908152600660205260408120541180156113ad57503360009081526006602052604090205489105b15156113b857600080fd5b33600090815260066020526040902080548a9081106113d357fe5b600091825260208083206006928302016003015433845291905260409091208054919350908a90811061140257fe5b6000918252602080832060069283020160040180546001019081905533845291905260409091208054919250908a90811061143957fe5b6000918252602080832060069283020160030180546001810182559084528184200184905560408051610100810182528c81528083018c90528082018b9052606081018790526080810186905260a081018a905260c081018990528151808401835285815260e08201523385529290915290912080548b9081106114b957fe5b600091825260208083208584526006928302016005908101825260409384902085518155858301516001820155938501516002850155606085015160038501556080850151600485015560a08501519084015560c08401519183019190915560e0830151805161152f9260078501920190614e4a565b5050604080518381526020810185905281517f2a60815e9d2622a909b3c2b731fa879a529c93b5fecdb1cfea183695707572cc93509081900390910190a150979650505050505050565b3360009081526009602090815260408083208b845282528083208151610100810183528b8152600160a060020a03881685526006845291842080549193830191879081106115c357fe5b600091825260208083208e8452600692830201600501815260408084205485528482018d90528481018e9052606085018c9052600160a060020a038b166080860181905284529190529020805460a0909201918790811061162057fe5b6000918252602080832060069283020154845292830196909652835460018082018655948252908290208351600890920201908155908201518184015560408201516002820155606082015160038201556080820151600482015560a082015160058201805473ffffffffffffffffffffffffffffffffffffffff1916600160a060020a0390921691909117905560c08201519481019490945560e0015160079093019290925550979650505050505050565b336000908152600a602052604081206003015460a860020a900460ff1615611745576040805160e560020a62461bcd02815260206004820152601560248201527f5245515545535420495320494e2050524f434553530000000000000000000000604482015290519081900360640190fd5b604080516101408101825285815260208101859052908101839052606081016000815233602082015260016040820152600b5460608201526080016117886144f1565b81526020016004815260006020918201819052338152600a8252604090208251805191926117bb92849290910190614e4a565b5060208281015180516117d49260018501920190614e4a565b50604082015180516117f0916002840191602090910190614e4a565b50606082015160038201805460ff19166001838181111561180d57fe5b0217905550608082015160038201805460a085015174ffffffffffffffffffffffffffffffffffffffff0019909116610100600160a060020a0390941684021760a860020a60ff02191660a860020a9115159190910217905560c0830151600483015560e0830151600580840191909155908301516006830180549192909160ff191690600190849081111561189f57fe5b021790555061012082015181600701559050506118bd8484846144f7565b50604080516001815290517fd249fc9da5140e2e7baacc07add09262bad65b9822b19b86dcece6e652e015519181900360200190a15060019392505050565b3360009081526008602052604090205490565b6000806000806060600080600060048b81548110151561192b57fe5b6000918252602080832090910154600160a060020a0316808352600690915260409091208054919250908b90811061195f57fe5b600091825260208083208c84526006928302016005018152604080842054600160a060020a03861685529290915290912080548c90811061199c57fe5b600091825260208083208d84526006928302016005018152604080842060010154600160a060020a03871685529290915290912080548d9081106119dc57fe5b600091825260208083208e84526006928302016005018152604080842060020154600160a060020a03881685529290915290912080548e908110611a1c57fe5b600091825260208083208f845260069283020160050181526040808420830154600160a060020a03891685529290915290912080548f908110611a5b57fe5b906000526020600020906006020160050160008e8152602001908152602001600020600701858e828054600181600116156101000203166002900480601f016020809104026020016040519081016040528092919081815260200182805460018160011615610100020316600290048015611b175780601f10611aec57610100808354040283529160200191611b17565b820191906000526020600020905b815481529060010190602001808311611afa57829003601f168201915b505050505092509750975097509750975097509750509397509397509397909450565b60008060008060048054905086108015611b8b5750600060066000600489815481101515611b6457fe5b6000918252602080832090910154600160a060020a03168352820192909252604001902054115b1515611b9657600080fd5b611ba08686614689565b9299919850965090945092505050565b6000806001336000908152600a602052604090206003015460ff166001811115611bd657fe5b14611be057600080fd5b336000908152600a60205260408120600701541115611c835750336000818152600a6020526040808220600701805490839055905190929183156108fc02918491818181858888f193505050501515611c4f57336000908152600a602052604081206007018290559150611c88565b6040805182815290517fdb4153325201f1faa4d39b6107ff1314df0a4854f49f82955f3686029d726b2b9181900360200190a15b600191505b5090565b600c54600090811015610e4f5750600c54610e53565b60006001836001811115611cb257fe5b6001811115611cbd57fe5b1415611d6757611ccc83611f47565b600d54604080517f70a082310000000000000000000000000000000000000000000000000000000081523360048201529051600160a060020a03909216916370a08231916024808201926020929091908290030181600087803b158015611d3257600080fd5b505af1158015611d46573d6000803e3d6000fd5b505050506040513d6020811015611d5c57600080fd5b5051101590506112c8565b611d7083611f47565b9091101592915050565b600160a060020a0381166000908152600a60205260408120600301546060918291829190819060a860020a900460ff161515611db557600080fd5b600160a060020a0386166000908152600a602052604090206003810154600180830191600284019160ff90911690811115611dec57fe5b600160a060020a038a81166000908152600a602090815260409182902060030154875483516002610100600184161581026000190190931604601f81018590048502820185019095528481529104909316929187918301828280156110005780601f10610fd557610100808354040283529160200191611000565b60008054600160a060020a03163314611e7f57600080fd5b6001826005811115611e8d57fe5b6005811115611e9857fe5b1480611eba57506002826005811115611ead57fe5b6005811115611eb857fe5b145b1515611f36576040805160e560020a62461bcd02815260206004820152602760248201527f544845205350454349464945442041444d494e20524f4c4520444f4553204e4f60448201527f5420455849535400000000000000000000000000000000000000000000000000606482015290519081900360840190fd5b611349848484614726565b60045490565b600080600080611f55614ec4565b6000806001886001811115611f6657fe5b6001811115611f7157fe5b1480611f9357506000886001811115611f8657fe5b6001811115611f9157fe5b145b1515611f9e57600080fd5b600095505b3360009081526003602052604090206002015485101561217657336000908152600360208181526040808420888552600101909152909120015460ff16151561216b5733600090815260036020526040902060020180548690811061200457fe5b600091825260208083209091015433835260038083526040808520838652600190810185529481902081516080810183528154815281870154600160a060020a031695810195909552600281015491850191909152015460ff16151560608301529550935088600181111561207557fe5b600181111561208057fe5b14156120e057602080840151600160a060020a03166000908152600690915260409081902090840151815481106120b357fe5b90600052602060002090600602016005016000858152602001908152602001600020600601549150612136565b602080840151600160a060020a031660009081526006909152604090819020908401518154811061210d57fe5b906000526020600020906006020160050160008581526020019081526020016000206002015491505b503360009081526003602090815260408083208684526001019091529020546121688661216384846149bc565b6149e5565b95505b600190940193611fa3565b50939695505050505050565b6060806060600080600c80549050861015156121e8576040805160e560020a62461bcd02815260206004820152600d60248201527f496e76616c696420696e64657800000000000000000000000000000000000000604482015290519081900360640190fd5b600c8054879081106121f657fe5b9060005260206000209060080201600001600c8781548110151561221657fe5b9060005260206000209060080201600101600c8881548110151561223657fe5b9060005260206000209060080201600201600c8981548110151561225657fe5b600091825260209091206003600890920201015460ff16600181111561227857fe5b600c80548b908110610f5a57fe5b600160a060020a0382166000908152600660205260409020805460609190839081106122ae57fe5b906000526020600020906006020160030180548060200260200160405190810160405280929190818152602001828054801561230957602002820191906000526020600020905b8154815260200190600101908083116122f5575b5050505050905092915050565b3360009081526009602090815260408083209383529290522060018101546002909101549091565b6000600186600181111561234e57fe5b600181111561235957fe5b141561243a57600d54604080517f23b872dd000000000000000000000000000000000000000000000000000000008152600160a060020a038881166004830152878116602483015260448201869052915191909216916323b872dd9160648083019260209291908290030181600087803b1580156123d657600080fd5b505af11580156123ea573d6000803e3d6000fd5b505050506040513d602081101561240057600080fd5b50506040805183815290517f7ef3d18d8958a97c57e6d519abf1c9c919d0a78e1d037bf25900a82effaa10809181900360200190a161253c565b600160a060020a0384166000908152600660205260409020805461247b91908590811061246357fe5b906000526020600020906006020160020154836149e5565b600160a060020a038516600090815260066020526040902080548590811061249f57fe5b9060005260206000209060060201600201819055506124e6600a600086600160a060020a0316600160a060020a0316815260200190815260200160002060070154836149e5565b600160a060020a0385166000908152600a602090815260409182902060070192909255805184815290517ff1a2788fec7acfb18c707f70d5f3aba63891818f4c3263cfd26868a5f1849b94929181900390910190a15b95945050505050565b600160a060020a038416600090815260066020526040812080548391908690811061256c57fe5b6000918252602080832087845260056006909302018201905260409091200154101561259757600080fd5b600160a060020a03851660009081526006602052604081208054869081106125bb57fe5b6000918252602080832087845260056006909302019190910190526040902060040154116125e857600080fd5b336000908152600360209081526040808320868452600101825291829020849055815184815291517feff915af5abcf733d88ab55ebab7a6842612483ce2447d6de6af02196cbc54939281900390910190a1506001949350505050565b60006001336000908152600a602052604090206003015460ff16600181111561266a57fe5b1461267457600080fd5b50336000908152600a602052604090206007015490565b33600090815260066020526040812080548291829182918291879081106126ae57fe5b60009182526020808320600692830201600201543384529190526040909120805491925090879081106126dd57fe5b6000918252602080832060069283020154338452919052604090912080548890811061270557fe5b90600052602060002090600602016001015482889450945094509450509193509193565b3360009081526003602052604090206002015490565b60006001336000908152600a602052604090206003015460ff16600181111561276457fe5b1461276e57600080fd5b3360009081526006602052604081205411801561279957503360009081526006602052604090205482105b15156127a457600080fd5b336000908152600660205260409020805460001981019081106127c357fe5b60009182526020808320338452600691829052604090932080549190920290920191849081106127ef57fe5b60009182526020909120825460069092020190815560018083015490820155600280830154908201556003808301805461282c9284019190614eeb565b50600491820154910155336000908152600660205260409020805490612856906000198301614f2b565b5033600090815260066020526040902054151561291f5760048054600019810190811061287f57fe5b6000918252602080832090910154338352600590915260409091206001015460048054600160a060020a039093169290919081106128b957fe5b6000918252602090912001805473ffffffffffffffffffffffffffffffffffffffff1916600160a060020a03929092169190911790556004805490612902906000198301614f5c565b50336000908152600560205260408120805460ff19168155600101555b3360009081526006602090815260409182902054825190815291517fb9a4bd253f65179162993c9e886b8a6a550b811e0a8c2977ee7dd3a1d061e2729281900390910190a1506001919050565b60008054600160a060020a0316331461298457600080fd5b60025460001015610e4f5750600254610e53565b3360009081526006602052604081208054839081106129b357fe5b600091825260209091206003600690920201015492915050565b60086020526000908152604090205481565b3360009081526006602052604090205490565b60006001336000908152600a602052604090206003015460ff166001811115612a1757fe5b14612a2157600080fd5b336000908152600660205260409020805485919085908110612a3f57fe5b906000526020600020906006020160050160008481526020019081526020016000206007019080519060200190612a77929190614e4a565b507f79b0340e74038ce50ce1234a2a1c2b9ac27086a941eeeeaa70a17693eebe94748484846040518080602001848152602001838152602001828103825285818151815260200191508051906020019080838360005b83811015612ae5578181015183820152602001612acd565b50505050905090810190601f168015612b125780820380516001836020036101000a031916815260200191505b5094505050505060405180910390a19392505050565b60006001836001811115612b3857fe5b6001811115612b4357fe5b1415612be257600d54604080517f70a082310000000000000000000000000000000000000000000000000000000081523360048201529051600160a060020a03909216916370a08231916024808201926020929091908290030181600087803b158015612baf57600080fd5b505af1158015612bc3573d6000803e3d6000fd5b505050506040513d6020811015612bd957600080fd5b505190506112c8565b50806112c8565b60008054600160a060020a03163314612c0157600080fd5b600160a060020a0382166000908152600a602052604090206003015460a860020a900460ff161515600114612c3557600080fd5b600160a060020a0382166000908152600a602052604090206003808201805460ff1990811660011790915560069092018054909216179055612c76826149f2565b50612c8082614c07565b50604080516001815290517fe3e79272c9f952f960a5911aee0622f58aedfcfe35abc490183d5e96a84cbae19181900360200190a1506001919050565b60006001856001811115612ccd57fe5b6001811115612cd857fe5b1415612d2f57600160a060020a0384166000908152600660205260409020805484908110612d0257fe5b90600052602060002090600602016005016000838152602001908152602001600020600601549050611349565b600160a060020a0384166000908152600660205260409020805484908110612d5357fe5b90600052602060002090600602016005016000838152602001908152602001600020600201549050611349565b600080806001336000908152600a602052604090206003015460ff166001811115612da757fe5b14612db157600080fd5b33600090815260066020526040812054118015612ddc57503360009081526006602052604090205485105b1515612de757600080fd5b336000908152600660205260409020805486908110612e0257fe5b6000918252602080832087845260069283020160050181526040808420600301543385529290915290912080549193509086908110612e3d57fe5b600091825260208083208784526006928302016005908101909152604083208381556001810184905560028101849055600381018490556004810184905590810183905590810182905590612e956007830182614f80565b5050336000908152600660205260409020805486908110612eb257fe5b6000918252602080832060069283020160030154338452919052604090912080549192509086908110612ee157fe5b906000526020600020906006020160030160018203815481101515612f0257fe5b600091825260208083209091015433835260069091526040909120805487908110612f2957fe5b906000526020600020906006020160030183815481101515612f4757fe5b6000918252602080832090910192909255338152600690915260409020805486908110612f7057fe5b9060005260206000209060060201600301805480919060019003612f949190614f5c565b506040805185815290517fc341cf326465fe622f86c468249e8c0cb03ed23ba376a6a34863a1374ac7d7699181900360200190a1506001949350505050565b60008054606091908190600160a060020a03163314612ff157600080fd5b6002548410612fff57600080fd5b600280548590811061300d57fe5b906000526020600020906002020160000160028581548110151561302d57fe5b600091825260209091206001600290920201015460ff16600581111561304f57fe5b600280548790811061305d57fe5b906000526020600020906002020160010160019054906101000a9004600160a060020a0316828054600181600116156101000203166002900480601f0160208091040260200160405190810160405280929190818152602001828054600181600116156101000203166002900480156131175780601f106130ec57610100808354040283529160200191613117565b820191906000526020600020905b8154815290600101906020018083116130fa57829003601f168201915b505050505092509250925092509193909250565b3360009081526006602052604081208054829182918291829160609183918291908b90811061315657fe5b600091825260208083208c845260069283020160050181526040808420543385529290915290912080548c90811061318a57fe5b600091825260208083208d845260069283020160050181526040808420600101543385529290915290912080548d9081106131c157fe5b600091825260208083208e845260069283020160050181526040808420600201543385529290915290912080548e9081106131f857fe5b600091825260208083208f8452600692830201600501815260408084208301543385529290915290912080548f90811061322e57fe5b906000526020600020906006020160050160008e8152602001908152602001600020600501546006600033600160a060020a0316600160a060020a031681526020019081526020016000208f81548110151561328657fe5b906000526020600020906006020160050160008f8152602001908152602001600020600701338f828054600181600116156101000203166002900480601f0160208091040260200160405190810160405280929190818152602001828054600181600116156101000203166002900480156133425780601f1061331757610100808354040283529160200191613342565b820191906000526020600020905b81548152906001019060200180831161332557829003601f168201915b50505050509250975097509750975097509750975097509295985092959890939650565b60008054606091908190600160a060020a0316331461338457600080fd5b600160a060020a0384166000908152600160208190526040909120015460a860020a900460ff1615156133b657600080fd5b600160a060020a03841660009081526001602081905260409091209081015460ff1660058111156133e357fe5b600160a060020a038681166000908152600160208181526040928390208201548654845160026101009583161586026000190190921691909104601f810184900484028201840190955284815292900490931692909185918301828280156131175780601f106130ec57610100808354040283529160200191613117565b336000908152600a602052604081206003015460a860020a900460ff161515600114156134b057336000908152600a602052604090206006015460ff1660058111156134a957fe5b9050610e53565b33600090815260016020819052604090912081015460a860020a900460ff16151514156134f957336000908152600160208190526040909120015460ff1660058111156134a957fe5b60056134a9565b60006001336000908152600a602052604090206003015460ff16600181111561352557fe5b1461352f57600080fd5b3360009081526006602052604081205411801561355a57503360009081526006602052604090205484105b151561356557600080fd5b33600090815260066020526040902080548491908690811061358357fe5b6000918252602080832060069283020193909355338252909152604090208054839190869081106135b057fe5b6000918252602091829020600160069092020101919091556040805185815291820184905280517f745f6c37c7c955a766769f82b258315021a200fd1fe89df40262fc3c38b640d39281900390910190a19392505050565b60008061134984846149bc565b60606006600060048581548110151561362a57fe5b6000918252602080832090910154600160a060020a0316835282019290925260400190208054839081106122ae57fe5b60006001336000908152600a602052604090206003015460ff16600181111561367f57fe5b1461368957600080fd5b336000908152600660205260408120541180156136b457503360009081526006602052604090205488105b15156136bf57600080fd5b33600090815260066020526040902080548791908a9081106136dd57fe5b600091825260208083208b84526006928302016005018152604080842094909455338352522080548691908a90811061371257fe5b600091825260208083208b84526006928302016005018152604080842060010194909455338352522080548591908a90811061374a57fe5b600091825260208083208b84526006928302016005018152604080842060020194909455338352522080548491908a90811061378257fe5b600091825260208083208b845260069283020160059081018252604080852090910194909455338352522080548391908a9081106137bc57fe5b90600052602060002090600602016005016000898152602001908152602001600020600601819055507feca6714fcf568fb34cf9db4a414cb0cc48e93c5d4e1ba0582a46ea3704cf24d5876040518082815260200191505060405180910390a1506001979650505050505050565b600760209081526000928352604080842090915290825290205481565b3360009081526009602090815260408083208584529091528120805482918291829182918291908890811061387857fe5b60009182526020808320600160089093020191909101543383526009825260408084208c855290925291208054899081106138af57fe5b60009182526020808320600260089093020191909101543383526009825260408084208d8552909252912080548a9081106138e657fe5b60009182526020808320600360089093020191909101543383526009825260408084208e8552909252912080548b90811061391d57fe5b60009182526020808320600560089093020191909101543383526009825260408084208f855290925291208054600160a060020a03909216918c90811061396057fe5b9060005260206000209060080201600601546009600033600160a060020a0316600160a060020a0316815260200190815260200160002060008e81526020019081526020016000206000018c8154811015156139b857fe5b9060005260206000209060080201600701549550955095509550955095509295509295509295565b600160a060020a038416600090815260066020526040812080548291849187908110613a0857fe5b60009182526020808320888452600560069093020182019052604090912001541015613a3357600080fd5b600160a060020a0386166000908152600660205260408120805487908110613a5757fe5b9060005260206000209060060201600501600086815260200190815260200160002060040154118015613aa5575033600090815260036020908152604080832087845290915290205460ff16155b1515613ab057600080fd5b6001600160a060020a0387166000908152600a602052604090206003015460ff166001811115613adc57fe5b14613ae657600080fd5b6003600033600160a060020a0316600160a060020a031681526020019081526020016000206002018054905090506003600033600160a060020a0316600160a060020a031681526020019081526020016000206002018490806001815401808255809150509060018203906000526020600020016000909192909190915055506040805190810160405280600115158152602001828152506003600033600160a060020a0316600160a060020a03168152602001908152602001600020600001600086815260200190815260200160002060008201518160000160006101000a81548160ff0219169083151502179055506020820151816001015590505060806040519081016040528084815260200187600160a060020a03168152602001868152602001600015158152506003600033600160a060020a0316600160a060020a0316815260200190815260200160002060010160008681526020019081526020016000206000820151816000015560208201518160010160006101000a815481600160a060020a030219169083600160a060020a031602179055506040820151816002015560608201518160030160006101000a81548160ff0219169083151502179055509050507f2480268f1c1956aeaceecb84a6f17e474bc61bb5bb84ec8401372ed0a6133ee86003600033600160a060020a0316600160a060020a03168152602001908152602001600020600201805490506040518082815260200191505060405180910390a150600195945050505050565b6000613d27614fc7565b6001336000908152600a602052604090206003015460ff166001811115613d4a57fe5b14613d5457600080fd5b83815260208082018481523360009081526006808452604080832080546001818101808455928652948790208851919094029093019283559351928201929092559084015160028201556060840151805192938593613db99260038501920190614ff4565b5060809190910151600490910155503360009081526005602052604090205460ff161515613e6b57604080518082018252600180825260048054602080850191825233600081815260059092529581209451855460ff1916901515178555905193830193909355805491820181559091527f8a35acfbc15ff81a39ae7d344fd709f28e8600b4aa8c65c6b64bfe7fe36bd19b01805473ffffffffffffffffffffffffffffffffffffffff191690911790555b3360009081526006602090815260409182902054825190815291517f6c6c640d5c695d50cab6e007033207e384550c46ef1e827046dd75e4f33dc4329281900390910190a150503360009081526006602052604090205492915050565b60008080808080808060018a6001811115613edf57fe5b6001811115613eea57fe5b1480613f0c575060008a6001811115613eff57fe5b6001811115613f0a57fe5b145b1515613f1757600080fd5b3360009081526003602052604081206002015411613f3457600080fd5b613f3e8a34611ca2565b1515613f4957600080fd5b613f538a34612b28565b9650600095505b336000908152600360205260409020600201548610156141f85733600090815260036020526040812060020180549091908110613f9357fe5b60009182526020808320909101543383526003808352604080852083865260010190935291909220015490955060ff1615156141ed5733600090815260036020908152604080832088845260019081018352818420805460028201549190920154600160a060020a031680865260069094529184208054919850919650919450908590811061401e57fe5b60009182526020808320898452600560069093020191909101905260409020600401541161404b57600080fd5b600160a060020a038216600090815260066020526040902080548591908590811061407257fe5b6000918252602080832089845260056006909302018201905260409091200154101561409d57600080fd5b6001600160a060020a0383166000908152600a602052604090206003015460ff1660018111156140c957fe5b146140d357600080fd5b6140e86140e28b848689612cbd565b85613608565b9050808710156140f757600080fd5b6141018782614ddd565b3360008181526003602081815260408084208b8552600190810190925290922001805460ff1916909117905590975061413e908b9084868561233e565b50600160a060020a0382166000908152600660205260409020805461418e91908590811061416857fe5b600091825260208083208984526005600690930201820190526040909120015485614ddd565b600160a060020a03831660009081526006602052604090208054859081106141b257fe5b60009182526020808320898452600560069093020182019052604090912001556141eb82866141e38d838884612cbd565b86888f614def565b505b600190950194613f5a565b614200614e2f565b5061421c61420c6118fc565b6142158c611f47565b8c8c6112ce565b50604080516001815290517f0cc34d11f43af89bf3aff732f3999051c4251b5ccc351a54712ea98b003a22319181900360200190a13360008181526003602081815260408084208a8552808352818520805460ff19908116825560019182018790558183018552928620868155908101805473ffffffffffffffffffffffffffffffffffffffff19169055600280820187905590850180549093169092559484529190526142cc9083018261502e565b506000600391909101555060019998505050505050505050565b336000908152600960209081526040808320938352929052205490565b336000818152600360208181526040808420868552808352908420600101549484529190526002018054919291600019810190811061433e57fe5b60009182526020808320909101543383526003909152604090912060020180548390811061436857fe5b6000918252602080832090910192909255338152600390915260409020600201805490614399906000198301614f5c565b5033600081815260036020818152604080842088855260018082018452828620868155808201805473ffffffffffffffffffffffffffffffffffffffff191690556002808201889055908601805460ff1990811690915583865284882080549091168155909101869055959094529181529290910154815190815290517f7deaca4d9411ae1cc8abc39e3b082a716a0c9e3458e2e7ee60649689fa423ce2929181900390910190a150600192915050565b33600090815260066020526040812080548490811061446557fe5b6000918252602080832085845260056006909302018201905260409091200154905092915050565b336000908152600360209081526040918290206002018054835181840281018401909452808452606093928301828280156144e757602002820191906000526020600020905b8154815260200190600101908083116144d3575b5050505050905090565b60001990565b60006001600b610140604051908101604052808781526020018681526020018581526020016000600181111561452957fe5b815233602082015260016040820152600b54606082015260800161454b6144f1565b81526020016004815260006020918201819052835460018101808655948252908290208351805160089093029091019261458a92849290910190614e4a565b5060208281015180516145a39260018501920190614e4a565b50604082015180516145bf916002840191602090910190614e4a565b50606082015160038201805460ff1916600183818111156145dc57fe5b0217905550608082015160038201805460a085015174ffffffffffffffffffffffffffffffffffffffff0019909116610100600160a060020a0390941684021760a860020a60ff02191660a860020a9115159190910217905560c0830151600483015560e0830151600580840191909155908301516006830180549192909160ff191690600190849081111561466e57fe5b02179055506101208201518160070155505050509392505050565b60008060008060006004878154811015156146a057fe5b6000918252602080832090910154600160a060020a031680835260069091526040909120805491925090879081106146d457fe5b6000918252602080832060069283020154600160a060020a0385168452919052604090912080548890811061470557fe5b60009182526020909120600160069092020101549098909795509350505050565b60008054600160a060020a0316331461473e57600080fd5b60806040519081016040528085815260200183600581111561475c57fe5b600581111561476757fe5b8152600160a060020a038516602080830182905260016040938401819052600092835281529190208251805191926147a492849290910190614e4a565b50602082015160018083018054909160ff19909116908360058111156147c657fe5b021790555060408281015160019092018054606090940151151560a860020a0260a860020a60ff0219600160a060020a039094166101000274ffffffffffffffffffffffffffffffffffffffff001990951694909417929092169290921790558051608081019091528481526002906020810184600581111561484557fe5b600581111561485057fe5b8152600160a060020a0386166020808301919091526001604090920182905283549182018085556000948552938190208351805160029094029091019261489a9284920190614e4a565b50602082015160018083018054909160ff19909116908360058111156148bc57fe5b021790555060408281015160019092018054606090940151151560a860020a0260a860020a60ff0219600160a060020a039094166101000274ffffffffffffffffffffffffffffffffffffffff001990951694909417929092169290921790558051602080825287518183015287517f56b0a2dda7952cd07f438433182565929ba3aba4c3404a7d29a0840ac6284da4945088938392908301919085019080838360005b83811015614978578181015183820152602001614960565b50505050905090810190601f1680156149a55780820380516001836020036101000a031916815260200191505b509250505060405180910390a15060019392505050565b60008215156149cd575060006112c8565b508181028183828115156149dd57fe5b04146112c857fe5b818101828110156112c857fe5b600160a060020a0381166000908152600a602052604081206004015460001912614a1b57600080fd5b600b80546000198101908110614a2d57fe5b9060005260206000209060080201600b600a600085600160a060020a0316600160a060020a0316815260200190815260200160002060040154815481101515614a7257fe5b906000526020600020906008020160008201816000019080546001816001161561010002031660029004614aa792919061504c565b5060018201816001019080546001816001161561010002031660029004614acf92919061504c565b5060028281018054614af492848101929160001961010060018316150201160461504c565b50600382810154908201805460ff9092169160ff191660018381811115614b1757fe5b021790555060038281018054918301805474ffffffffffffffffffffffffffffffffffffffff00191661010093849004600160a060020a031690930292909217808355905460a860020a60ff021990911660a860020a9182900460ff9081161515909202179091556004808401549083015560058084015481840155600680850154908401805491909316929160ff19909116906001908490811115614bb957fe5b0217905550600791820154910155614bcf6144f1565b600160a060020a0383166000908152600a6020526040902060040155600b805490614bfe9060001983016150c0565b50600192915050565b600160a060020a0381166000908152600a602052604081206003015460a860020a900460ff161515600114614c3b57600080fd5b600c8054600160a060020a0384166000908152600a6020526040812060058101839055600180840180865594909252805490926008027fdf6966c971051c3d54ec59162606531493a51404a002842f56009d7e5cf4a8c70191614cb491839185916002610100928216159290920260001901160461504c565b5060018201816001019080546001816001161561010002031660029004614cdc92919061504c565b5060028281018054614d0192848101929160001961010060018316150201160461504c565b50600382810154908201805460ff9092169160ff191660018381811115614d2457fe5b021790555060038281018054918301805474ffffffffffffffffffffffffffffffffffffffff00191661010093849004600160a060020a031690930292909217808355905460a860020a60ff021990911660a860020a9182900460ff9081161515909202179091556004808401549083015560058084015481840155600680850154908401805491909316929160ff19909116906001908490811115614dc657fe5b021790555060079182015491015550600192915050565b600082821115614de957fe5b50900390565b600080600080614dfd6118fc565b6001019250829150614e0f8887613608565b9050614e21828a8a89858f8d8c611579565b505050509695505050505050565b33600090815260086020526040902080546001019081905590565b828054600181600116156101000203166002900490600052602060002090601f016020900481019282601f10614e8b57805160ff1916838001178555614eb8565b82800160010185558215614eb8579182015b82811115614eb8578251825591602001919060010190614e9d565b50611c889291506150ec565b60408051608081018252600080825260208201819052918101829052606081019190915290565b828054828255906000526020600020908101928215614eb85760005260206000209182015b82811115614eb8578254825591600101919060010190614f10565b815481835581811115614f5757600602816006028360005260206000209182019101614f579190615106565b505050565b815481835581811115614f5757600083815260209020614f579181019083016150ec565b50805460018160011615610100020316600290046000825580601f10614fa65750614fc4565b601f016020900490600052602060002090810190614fc491906150ec565b50565b6040805160a081018252600080825260208201819052918101829052606080820152608081019190915290565b828054828255906000526020600020908101928215614eb85791602002820182811115614eb8578251825591602001919060010190614e9d565b5080546000825590600052602060002090810190614fc491906150ec565b828054600181600116156101000203166002900490600052602060002090601f016020900481019282601f106150855780548555614eb8565b82800160010185558215614eb857600052602060002091601f0160209004820182811115614eb8578254825591600101919060010190614f10565b815481835581811115614f5757600802816008028360005260206000209182019101614f579190615144565b610e5391905b80821115611c8857600081556001016150f2565b610e5391905b80821115611c885760008082556001820181905560028201819055615134600383018261502e565b506000600482015560060161510c565b610e5391905b80821115611c8857600061515e8282614f80565b61516c600183016000614f80565b61517a600283016000614f80565b5060038101805475ffffffffffffffffffffffffffffffffffffffffffff191690556000600482018190556005820181905560068201805460ff19169055600782015560080161514a5600a165627a7a72305820ab3299e9742a63602c5b2e2c238cb92d1444031891cf828485a15869e5b3e2860029",
  "source": "pragma solidity 0.4.24;\nimport \"./StoreManager.sol\";\nimport \"./ProductManager.sol\";\nimport './UserManager.sol';\nimport \"./Ownerble.sol\";\nimport \"./ShoppingCartManager.sol\";\nimport \"./Withdrawable.sol\";\nimport \"./SpinelToken.sol\";\n\n\n /** @title Application entry point. */\ncontract MarketPlace is Ownerble, StoreManager, ProductManager,\nUserManager, ShoppingCartManager, Withdrawable{\n\n     /**\n      * @dev Initialzes the smart contracts - application main entry point \n      * @param tokenContract address of token contract\n      */\n    constructor(SpinelToken tokenContract ) public {\n         tokenContract_shoppingCart = tokenContract;\n        \n    }\n\n    \n    /**\n      * @dev \n      *Fallback function - Called if other functions don't match call or\n      * sent ether without data\n      * Typically, called when invalid data is sent\n      * Added so ether sent to this contract is reverted if the contract fails\n      * otherwise, the sender's money is transferred to contract\n      */\n    function () public{\n        revert();\n    }\n}\n\n",
  "sourcePath": "/home/yusuf/Documents/DEVELOPER/PROJECTS/truffle/marketplace/Blockchain-Market-Place/contracts/MarketPlace.sol",
  "compiler": {
    "name": "solc",
    "version": "0.4.24+commit.e67f0147.Emscripten.clang"
  },
  "schemaVersion": "2.0.1",
  "updatedAt": "2018-08-28T07:32:08.371Z"
}