{
  "contractName": "MarketPlace",
  "abi": [
    {
      "constant": true,
      "inputs": [
        {
          "name": "vendor",
          "type": "address"
        },
        {
          "name": "storeIndex",
          "type": "uint256"
        },
        {
          "name": "productId",
          "type": "uint256"
        }
      ],
      "name": "getProduct",
      "outputs": [
        {
          "name": "",
          "type": "bytes32"
        },
        {
          "name": "",
          "type": "bytes32"
        },
        {
          "name": "",
          "type": "uint256"
        },
        {
          "name": "",
          "type": "uint256"
        },
        {
          "name": "",
          "type": "uint256"
        },
        {
          "name": "",
          "type": "address"
        },
        {
          "name": "",
          "type": "uint256"
        }
      ],
      "payable": false,
      "stateMutability": "view",
      "type": "function"
    },
    {
      "constant": true,
      "inputs": [],
      "name": "getPendingVendors",
      "outputs": [
        {
          "name": "",
          "type": "uint256"
        }
      ],
      "payable": false,
      "stateMutability": "view",
      "type": "function"
    },
    {
      "constant": true,
      "inputs": [
        {
          "name": "index",
          "type": "uint256"
        }
      ],
      "name": "getPendingVendorByIndex",
      "outputs": [
        {
          "name": "",
          "type": "string"
        },
        {
          "name": "",
          "type": "string"
        },
        {
          "name": "",
          "type": "string"
        },
        {
          "name": "",
          "type": "uint256"
        },
        {
          "name": "",
          "type": "address"
        }
      ],
      "payable": false,
      "stateMutability": "view",
      "type": "function"
    },
    {
      "constant": true,
      "inputs": [
        {
          "name": "productId",
          "type": "uint256"
        }
      ],
      "name": "getCartItem",
      "outputs": [
        {
          "name": "",
          "type": "uint256"
        },
        {
          "name": "",
          "type": "bytes32"
        },
        {
          "name": "",
          "type": "uint256"
        },
        {
          "name": "",
          "type": "uint256"
        },
        {
          "name": "",
          "type": "uint256"
        },
        {
          "name": "",
          "type": "uint256"
        },
        {
          "name": "",
          "type": "address"
        }
      ],
      "payable": false,
      "stateMutability": "view",
      "type": "function"
    },
    {
      "constant": true,
      "inputs": [
        {
          "name": "accountIndex",
          "type": "uint256"
        }
      ],
      "name": "getVendorStoreCountPublic",
      "outputs": [
        {
          "name": "",
          "type": "uint256"
        },
        {
          "name": "",
          "type": "uint256"
        }
      ],
      "payable": false,
      "stateMutability": "view",
      "type": "function"
    },
    {
      "constant": true,
      "inputs": [
        {
          "name": "storeIndex",
          "type": "uint256"
        }
      ],
      "name": "getProductsIdsVendor",
      "outputs": [
        {
          "name": "",
          "type": "uint256[]"
        }
      ],
      "payable": false,
      "stateMutability": "view",
      "type": "function"
    },
    {
      "constant": false,
      "inputs": [
        {
          "name": "storeIndex",
          "type": "uint256"
        },
        {
          "name": "productName",
          "type": "bytes32"
        },
        {
          "name": "description",
          "type": "bytes32"
        },
        {
          "name": "price",
          "type": "uint256"
        },
        {
          "name": "quantity",
          "type": "uint256"
        },
        {
          "name": "priceInSpinelToken",
          "type": "uint256"
        }
      ],
      "name": "createProduct",
      "outputs": [
        {
          "name": "",
          "type": "uint256"
        }
      ],
      "payable": false,
      "stateMutability": "nonpayable",
      "type": "function"
    },
    {
      "constant": false,
      "inputs": [
        {
          "name": "_name",
          "type": "string"
        },
        {
          "name": "_email",
          "type": "string"
        },
        {
          "name": "_phone",
          "type": "string"
        }
      ],
      "name": "requestVendorAccount",
      "outputs": [
        {
          "name": "",
          "type": "bool"
        }
      ],
      "payable": false,
      "stateMutability": "nonpayable",
      "type": "function"
    },
    {
      "constant": true,
      "inputs": [],
      "name": "getPendingVendorsCount",
      "outputs": [
        {
          "name": "",
          "type": "uint256"
        }
      ],
      "payable": false,
      "stateMutability": "view",
      "type": "function"
    },
    {
      "constant": true,
      "inputs": [
        {
          "name": "accountIndex",
          "type": "uint256"
        },
        {
          "name": "storeIndex",
          "type": "uint256"
        },
        {
          "name": "productId",
          "type": "uint256"
        }
      ],
      "name": "getProductCustomer",
      "outputs": [
        {
          "name": "",
          "type": "bytes32"
        },
        {
          "name": "",
          "type": "bytes32"
        },
        {
          "name": "",
          "type": "uint256"
        },
        {
          "name": "",
          "type": "uint256"
        },
        {
          "name": "",
          "type": "uint256"
        },
        {
          "name": "",
          "type": "address"
        },
        {
          "name": "",
          "type": "uint256"
        }
      ],
      "payable": false,
      "stateMutability": "view",
      "type": "function"
    },
    {
      "constant": true,
      "inputs": [
        {
          "name": "accountIndex",
          "type": "uint256"
        },
        {
          "name": "storeIndex",
          "type": "uint256"
        }
      ],
      "name": "getStorePublic",
      "outputs": [
        {
          "name": "",
          "type": "bytes32"
        },
        {
          "name": "",
          "type": "bytes32"
        },
        {
          "name": "",
          "type": "uint256"
        },
        {
          "name": "",
          "type": "uint256"
        }
      ],
      "payable": false,
      "stateMutability": "view",
      "type": "function"
    },
    {
      "constant": false,
      "inputs": [],
      "name": "withdraw",
      "outputs": [
        {
          "name": "",
          "type": "bool"
        }
      ],
      "payable": false,
      "stateMutability": "nonpayable",
      "type": "function"
    },
    {
      "constant": true,
      "inputs": [],
      "name": "getApprovedVendorsCount",
      "outputs": [
        {
          "name": "",
          "type": "uint256"
        }
      ],
      "payable": false,
      "stateMutability": "view",
      "type": "function"
    },
    {
      "constant": true,
      "inputs": [
        {
          "name": "account",
          "type": "address"
        }
      ],
      "name": "getVendorByAddress",
      "outputs": [
        {
          "name": "",
          "type": "string"
        },
        {
          "name": "",
          "type": "string"
        },
        {
          "name": "",
          "type": "string"
        },
        {
          "name": "",
          "type": "uint256"
        },
        {
          "name": "",
          "type": "address"
        }
      ],
      "payable": false,
      "stateMutability": "view",
      "type": "function"
    },
    {
      "constant": false,
      "inputs": [
        {
          "name": "name",
          "type": "string"
        },
        {
          "name": "account",
          "type": "address"
        },
        {
          "name": "role",
          "type": "uint256"
        }
      ],
      "name": "createAdminUser",
      "outputs": [
        {
          "name": "",
          "type": "bool"
        }
      ],
      "payable": false,
      "stateMutability": "nonpayable",
      "type": "function"
    },
    {
      "constant": true,
      "inputs": [],
      "name": "getVendorAccountsWithListedStoresCount",
      "outputs": [
        {
          "name": "",
          "type": "uint256"
        }
      ],
      "payable": false,
      "stateMutability": "view",
      "type": "function"
    },
    {
      "constant": true,
      "inputs": [
        {
          "name": "index",
          "type": "uint256"
        }
      ],
      "name": "getApprovedVendorByIndex",
      "outputs": [
        {
          "name": "",
          "type": "string"
        },
        {
          "name": "",
          "type": "string"
        },
        {
          "name": "",
          "type": "string"
        },
        {
          "name": "",
          "type": "uint256"
        },
        {
          "name": "",
          "type": "address"
        }
      ],
      "payable": false,
      "stateMutability": "view",
      "type": "function"
    },
    {
      "constant": true,
      "inputs": [
        {
          "name": "account",
          "type": "address"
        },
        {
          "name": "storeIndex",
          "type": "uint256"
        }
      ],
      "name": "getProductsIds",
      "outputs": [
        {
          "name": "",
          "type": "uint256[]"
        }
      ],
      "payable": false,
      "stateMutability": "view",
      "type": "function"
    },
    {
      "constant": false,
      "inputs": [
        {
          "name": "vendorAccount",
          "type": "address"
        },
        {
          "name": "storeIndex",
          "type": "uint256"
        },
        {
          "name": "productId",
          "type": "uint256"
        },
        {
          "name": "productQuantity",
          "type": "uint256"
        }
      ],
      "name": "updateCartItem",
      "outputs": [
        {
          "name": "",
          "type": "bool"
        }
      ],
      "payable": false,
      "stateMutability": "nonpayable",
      "type": "function"
    },
    {
      "constant": true,
      "inputs": [],
      "name": "getVendorBalance",
      "outputs": [
        {
          "name": "",
          "type": "uint256"
        }
      ],
      "payable": false,
      "stateMutability": "view",
      "type": "function"
    },
    {
      "constant": true,
      "inputs": [
        {
          "name": "storeIndex",
          "type": "uint256"
        }
      ],
      "name": "getStorePrivate",
      "outputs": [
        {
          "name": "",
          "type": "bytes32"
        },
        {
          "name": "",
          "type": "bytes32"
        },
        {
          "name": "",
          "type": "uint256"
        },
        {
          "name": "",
          "type": "uint256"
        }
      ],
      "payable": false,
      "stateMutability": "view",
      "type": "function"
    },
    {
      "constant": true,
      "inputs": [],
      "name": "getCartItemsCount",
      "outputs": [
        {
          "name": "",
          "type": "uint256"
        }
      ],
      "payable": false,
      "stateMutability": "view",
      "type": "function"
    },
    {
      "constant": false,
      "inputs": [
        {
          "name": "storeIndex",
          "type": "uint256"
        }
      ],
      "name": "deleteStore",
      "outputs": [
        {
          "name": "",
          "type": "bool"
        }
      ],
      "payable": false,
      "stateMutability": "nonpayable",
      "type": "function"
    },
    {
      "constant": true,
      "inputs": [],
      "name": "getAdminUsersCount",
      "outputs": [
        {
          "name": "",
          "type": "uint256"
        }
      ],
      "payable": false,
      "stateMutability": "view",
      "type": "function"
    },
    {
      "constant": true,
      "inputs": [],
      "name": "getCartPrice",
      "outputs": [
        {
          "name": "",
          "type": "uint256"
        }
      ],
      "payable": false,
      "stateMutability": "view",
      "type": "function"
    },
    {
      "constant": true,
      "inputs": [
        {
          "name": "storeIndex",
          "type": "uint256"
        }
      ],
      "name": "getProductsCount",
      "outputs": [
        {
          "name": "",
          "type": "uint256"
        }
      ],
      "payable": false,
      "stateMutability": "view",
      "type": "function"
    },
    {
      "constant": true,
      "inputs": [],
      "name": "getUserStoreCount",
      "outputs": [
        {
          "name": "",
          "type": "uint256"
        }
      ],
      "payable": false,
      "stateMutability": "view",
      "type": "function"
    },
    {
      "constant": false,
      "inputs": [
        {
          "name": "account",
          "type": "address"
        }
      ],
      "name": "approveVendorAccount",
      "outputs": [
        {
          "name": "",
          "type": "bool"
        }
      ],
      "payable": false,
      "stateMutability": "nonpayable",
      "type": "function"
    },
    {
      "constant": true,
      "inputs": [
        {
          "name": "paymentMethod",
          "type": "uint256"
        },
        {
          "name": "vendorAccount",
          "type": "address"
        },
        {
          "name": "storeIndex",
          "type": "uint256"
        },
        {
          "name": "productId",
          "type": "uint256"
        }
      ],
      "name": "getItemsPrice",
      "outputs": [
        {
          "name": "",
          "type": "uint256"
        }
      ],
      "payable": false,
      "stateMutability": "view",
      "type": "function"
    },
    {
      "constant": false,
      "inputs": [
        {
          "name": "storeIndex",
          "type": "uint256"
        },
        {
          "name": "productId",
          "type": "uint256"
        }
      ],
      "name": "deleteProduct",
      "outputs": [
        {
          "name": "",
          "type": "bool"
        }
      ],
      "payable": false,
      "stateMutability": "nonpayable",
      "type": "function"
    },
    {
      "constant": true,
      "inputs": [
        {
          "name": "index",
          "type": "uint256"
        }
      ],
      "name": "getAdminUserByIndex",
      "outputs": [
        {
          "name": "",
          "type": "string"
        },
        {
          "name": "",
          "type": "uint256"
        },
        {
          "name": "",
          "type": "address"
        }
      ],
      "payable": false,
      "stateMutability": "view",
      "type": "function"
    },
    {
      "constant": true,
      "inputs": [
        {
          "name": "storeIndex",
          "type": "uint256"
        },
        {
          "name": "productId",
          "type": "uint256"
        }
      ],
      "name": "getProductVendor",
      "outputs": [
        {
          "name": "",
          "type": "bytes32"
        },
        {
          "name": "",
          "type": "bytes32"
        },
        {
          "name": "",
          "type": "uint256"
        },
        {
          "name": "",
          "type": "uint256"
        },
        {
          "name": "",
          "type": "uint256"
        },
        {
          "name": "",
          "type": "address"
        },
        {
          "name": "",
          "type": "uint256"
        }
      ],
      "payable": false,
      "stateMutability": "view",
      "type": "function"
    },
    {
      "constant": true,
      "inputs": [
        {
          "name": "account",
          "type": "address"
        }
      ],
      "name": "getAdminUserByAddress",
      "outputs": [
        {
          "name": "",
          "type": "string"
        },
        {
          "name": "",
          "type": "uint256"
        },
        {
          "name": "",
          "type": "address"
        }
      ],
      "payable": false,
      "stateMutability": "view",
      "type": "function"
    },
    {
      "constant": true,
      "inputs": [],
      "name": "getUserRole",
      "outputs": [
        {
          "name": "",
          "type": "uint256"
        }
      ],
      "payable": false,
      "stateMutability": "view",
      "type": "function"
    },
    {
      "constant": false,
      "inputs": [
        {
          "name": "storeIndex",
          "type": "uint256"
        },
        {
          "name": "storeName",
          "type": "bytes32"
        },
        {
          "name": "description",
          "type": "bytes32"
        }
      ],
      "name": "editStore",
      "outputs": [
        {
          "name": "",
          "type": "bool"
        }
      ],
      "payable": false,
      "stateMutability": "nonpayable",
      "type": "function"
    },
    {
      "constant": true,
      "inputs": [
        {
          "name": "productPrice",
          "type": "uint256"
        },
        {
          "name": "purchasedQuantity",
          "type": "uint256"
        }
      ],
      "name": "getTotalItemsPrice",
      "outputs": [
        {
          "name": "",
          "type": "uint256"
        }
      ],
      "payable": false,
      "stateMutability": "pure",
      "type": "function"
    },
    {
      "constant": false,
      "inputs": [],
      "name": "checkOut",
      "outputs": [
        {
          "name": "",
          "type": "bool"
        }
      ],
      "payable": true,
      "stateMutability": "payable",
      "type": "function"
    },
    {
      "constant": true,
      "inputs": [
        {
          "name": "accountIndex",
          "type": "uint256"
        },
        {
          "name": "storeIndex",
          "type": "uint256"
        }
      ],
      "name": "getProductsIdsCustomer",
      "outputs": [
        {
          "name": "",
          "type": "uint256[]"
        }
      ],
      "payable": false,
      "stateMutability": "view",
      "type": "function"
    },
    {
      "constant": false,
      "inputs": [
        {
          "name": "storeIndex",
          "type": "uint256"
        },
        {
          "name": "productId",
          "type": "uint256"
        },
        {
          "name": "productName",
          "type": "bytes32"
        },
        {
          "name": "description",
          "type": "bytes32"
        },
        {
          "name": "price",
          "type": "uint256"
        },
        {
          "name": "quantity",
          "type": "uint256"
        },
        {
          "name": "priceInSpinelToken",
          "type": "uint256"
        }
      ],
      "name": "editProduct",
      "outputs": [
        {
          "name": "",
          "type": "bool"
        }
      ],
      "payable": false,
      "stateMutability": "nonpayable",
      "type": "function"
    },
    {
      "constant": false,
      "inputs": [
        {
          "name": "vendorAccount",
          "type": "address"
        },
        {
          "name": "storeIndex",
          "type": "uint256"
        },
        {
          "name": "productId",
          "type": "uint256"
        },
        {
          "name": "productQuantity",
          "type": "uint256"
        }
      ],
      "name": "addItemToCart",
      "outputs": [
        {
          "name": "",
          "type": "bool"
        }
      ],
      "payable": false,
      "stateMutability": "nonpayable",
      "type": "function"
    },
    {
      "constant": false,
      "inputs": [
        {
          "name": "storeName",
          "type": "bytes32"
        },
        {
          "name": "description",
          "type": "bytes32"
        }
      ],
      "name": "createStore",
      "outputs": [
        {
          "name": "",
          "type": "uint256"
        }
      ],
      "payable": false,
      "stateMutability": "nonpayable",
      "type": "function"
    },
    {
      "constant": false,
      "inputs": [
        {
          "name": "productId",
          "type": "uint256"
        }
      ],
      "name": "deleteCartItem",
      "outputs": [
        {
          "name": "",
          "type": "bool"
        }
      ],
      "payable": false,
      "stateMutability": "nonpayable",
      "type": "function"
    },
    {
      "constant": true,
      "inputs": [
        {
          "name": "storeIndex",
          "type": "uint256"
        },
        {
          "name": "productId",
          "type": "uint256"
        }
      ],
      "name": "getProductQuantity",
      "outputs": [
        {
          "name": "",
          "type": "uint256"
        }
      ],
      "payable": false,
      "stateMutability": "view",
      "type": "function"
    },
    {
      "constant": true,
      "inputs": [],
      "name": "getCartItemsIds",
      "outputs": [
        {
          "name": "",
          "type": "uint256[]"
        }
      ],
      "payable": false,
      "stateMutability": "view",
      "type": "function"
    },
    {
      "inputs": [
        {
          "name": "_tokenSaleContract",
          "type": "address"
        }
      ],
      "payable": false,
      "stateMutability": "nonpayable",
      "type": "constructor"
    },
    {
      "anonymous": false,
      "inputs": [
        {
          "indexed": false,
          "name": "amount",
          "type": "uint256"
        }
      ],
      "name": "WithdrawalCompletedSuccessfully",
      "type": "event"
    },
    {
      "anonymous": false,
      "inputs": [
        {
          "indexed": false,
          "name": "cartSize",
          "type": "uint256"
        }
      ],
      "name": "ItemInsertedToCart",
      "type": "event"
    },
    {
      "anonymous": false,
      "inputs": [
        {
          "indexed": false,
          "name": "productQuantity",
          "type": "uint256"
        }
      ],
      "name": "CartItemUpdated",
      "type": "event"
    },
    {
      "anonymous": false,
      "inputs": [
        {
          "indexed": false,
          "name": "cartSize",
          "type": "uint256"
        }
      ],
      "name": "CartItemDeleted",
      "type": "event"
    },
    {
      "anonymous": false,
      "inputs": [
        {
          "indexed": false,
          "name": "status",
          "type": "bool"
        }
      ],
      "name": "PaymentCompleted",
      "type": "event"
    },
    {
      "anonymous": false,
      "inputs": [
        {
          "indexed": false,
          "name": "amount",
          "type": "uint256"
        }
      ],
      "name": "PaymentByTokenCompleted",
      "type": "event"
    },
    {
      "anonymous": false,
      "inputs": [
        {
          "indexed": false,
          "name": "amount",
          "type": "uint256"
        }
      ],
      "name": "PaymentByEtherCompleted",
      "type": "event"
    },
    {
      "anonymous": false,
      "inputs": [
        {
          "indexed": false,
          "name": "status",
          "type": "bool"
        }
      ],
      "name": "VendorAccountRequested",
      "type": "event"
    },
    {
      "anonymous": false,
      "inputs": [
        {
          "indexed": false,
          "name": "status",
          "type": "bool"
        }
      ],
      "name": "VendorAccountApproved",
      "type": "event"
    },
    {
      "anonymous": false,
      "inputs": [
        {
          "indexed": false,
          "name": "productId",
          "type": "uint256"
        },
        {
          "indexed": false,
          "name": "productIdSlot",
          "type": "uint256"
        }
      ],
      "name": "ProductCreated",
      "type": "event"
    },
    {
      "anonymous": false,
      "inputs": [
        {
          "indexed": false,
          "name": "productId",
          "type": "uint256"
        }
      ],
      "name": "ProductUpdated",
      "type": "event"
    },
    {
      "anonymous": false,
      "inputs": [
        {
          "indexed": false,
          "name": "productId",
          "type": "uint256"
        }
      ],
      "name": "ProductDeleted",
      "type": "event"
    },
    {
      "anonymous": false,
      "inputs": [
        {
          "indexed": false,
          "name": "storesSize",
          "type": "uint256"
        }
      ],
      "name": "StoreCreated",
      "type": "event"
    },
    {
      "anonymous": false,
      "inputs": [
        {
          "indexed": false,
          "name": "storeName",
          "type": "bytes32"
        },
        {
          "indexed": false,
          "name": "description",
          "type": "bytes32"
        }
      ],
      "name": "StoreUpdated",
      "type": "event"
    },
    {
      "anonymous": false,
      "inputs": [
        {
          "indexed": false,
          "name": "storesSize",
          "type": "uint256"
        }
      ],
      "name": "StoreDeleteted",
      "type": "event"
    },
    {
      "anonymous": false,
      "inputs": [
        {
          "indexed": false,
          "name": "name",
          "type": "string"
        }
      ],
      "name": "UserCreated",
      "type": "event"
    }
  ],
  "bytecode": "0x60806040523480156200001157600080fd5b50604051602080620046d2833981016040525162000037640100000000620000b3810204565b60408051808201909152600581527f4f776e657200000000000000000000000000000000000000000000000000000060208201526200008290336000640100000000620000c7810204565b50600b8054600160a060020a03909216600160a060020a03199283168117909155600a8054909216179055620004ff565b60008054600160a060020a03191633179055565b60008054600160a060020a03163314620000e057600080fd5b6000826005811115620000ef57fe5b6005811115620000fb57fe5b146200018e57604080517f08c379a000000000000000000000000000000000000000000000000000000000815260206004820152602760248201527f544845205350454349464945442041444d494e20524f4c4520444f4553204e4f60448201527f5420455849535400000000000000000000000000000000000000000000000000606482015290519081900360840190fd5b620001a4848484640100000000620001ac810204565b949350505050565b60008054600160a060020a03163314620001c557600080fd5b608060405190810160405280858152602001836005811115620001e457fe5b6005811115620001f057fe5b8152600160a060020a038516602080830182905260016040938401819052600092835281529190208251805191926200022f928492909101906200045a565b50602082015160018083018054909160ff19909116908360058111156200025257fe5b021790555060408281015160019092018054606090940151151575010000000000000000000000000000000000000000000260a860020a60ff0219600160a060020a039094166101000261010060a860020a0319909516949094179290921692909217905580516080810190915284815260029060208101846005811115620002d757fe5b6005811115620002e357fe5b8152600160a060020a038616602080830191909152600160409092018290528354918201808555600094855293819020835180516002909402909101926200032f92849201906200045a565b50602082015160018083018054909160ff19909116908360058111156200035257fe5b021790555060408281015160019092018054606090940151151575010000000000000000000000000000000000000000000260a860020a60ff0219600160a060020a039094166101000261010060a860020a031990951694909417929092169290921790558051602080825287518183015287517f56b0a2dda7952cd07f438433182565929ba3aba4c3404a7d29a0840ac6284da4945088938392908301919085019080838360005b8381101562000415578181015183820152602001620003fb565b50505050905090810190601f168015620004435780820380516001836020036101000a031916815260200191505b509250505060405180910390a15060019392505050565b828054600181600116156101000203166002900490600052602060002090601f016020900481019282601f106200049d57805160ff1916838001178555620004cd565b82800160010185558215620004cd579182015b82811115620004cd578251825591602001919060010190620004b0565b50620004db929150620004df565b5090565b620004fc91905b80821115620004db5760008155600101620004e6565b90565b6141c3806200050f6000396000f3006080604052600436106102185763ffffffff7c0100000000000000000000000000000000000000000000000000000000600035041662798924811461021d578063066674291461028557806306cfcb86146102ac57806311f839181461042857806317a580231461048157806318979559146104b25780631f0883651461051a57806328617c7c14610541578063340cffbe1461028557806336bbb03c1461062a5780633a8fa895146106485780633ccfd60b146106895780633d0559631461069e57806343defc10146106b357806354062143146106d4578063543c73f51461073e57806358e99175146107535780635ce9ae531461076b5780636de0c1f21461078f5780636e91c6b8146107b95780637105306a146107ce57806373ac9d35146107e65780637cc69325146107fb5780637f266904146108135780638297574b14610828578063892c45f91461083d5780638f0c0f361461085557806399dcec851461086a5780639b8a373f1461088b578063a1c48cc4146108b5578063a93e999d146108d0578063ab7f603f14610980578063bb3fac141461099b578063bf04a10d146109bc578063c08ed9b1146109d1578063c83a0ac3146109ef578063cba5751c14610a0a578063d1dfaa3e14610a12578063d604362d14610a2d578063e63aefcb14610a57578063e64a282b14610a81578063f513747614610a9c578063f8127a8814610ab4578063fa846e5a14610acf575b600080fd5b34801561022957600080fd5b50610244600160a060020a0360043516602435604435610ae4565b6040805197885260208801969096528686019490945260608601929092526080850152600160a060020a031660a084015260c0830152519081900360e00190f35b34801561029157600080fd5b5061029a610c90565b60408051918252519081900360200190f35b3480156102b857600080fd5b506102c4600435610cad565b6040518080602001806020018060200186815260200185600160a060020a0316600160a060020a03168152602001848103845289818151815260200191508051906020019080838360005b8381101561032757818101518382015260200161030f565b50505050905090810190601f1680156103545780820380516001836020036101000a031916815260200191505b5084810383528851815288516020918201918a019080838360005b8381101561038757818101518382015260200161036f565b50505050905090810190601f1680156103b45780820380516001836020036101000a031916815260200191505b50848103825287518152875160209182019189019080838360005b838110156103e75781810151838201526020016103cf565b50505050905090810190601f1680156104145780820380516001836020036101000a031916815260200191505b509850505050505050505060405180910390f35b34801561043457600080fd5b50610440600435610f8d565b604080519788526020880196909652868601949094526060860192909252608085015260a0840152600160a060020a031660c0830152519081900360e00190f35b34801561048d57600080fd5b506104996004356110cd565b6040805192835260208301919091528051918290030190f35b3480156104be57600080fd5b506104ca600435611113565b60408051602080825283518183015283519192839290830191858101910280838360005b838110156105065781810151838201526020016104ee565b505050509050019250505060405180910390f35b34801561052657600080fd5b5061029a60043560243560443560643560843560a435611125565b34801561054d57600080fd5b506040805160206004803580820135601f810184900484028501840190955284845261061694369492936024939284019190819084018382808284375050604080516020601f89358b018035918201839004830284018301909452808352979a99988101979196509182019450925082915084018382808284375050604080516020601f89358b018035918201839004830284018301909452808352979a9998810197919650918201945092508291508401838280828437509497506113249650505050505050565b604080519115158252519081900360200190f35b34801561063657600080fd5b5061024460043560243560443561154d565b34801561065457600080fd5b506106636004356024356115a1565b604080519485526020850193909352838301919091526060830152519081900360800190f35b34801561069557600080fd5b50610616611617565b3480156106aa57600080fd5b5061029a6116f5565b3480156106bf57600080fd5b506102c4600160a060020a036004351661170b565b3480156106e057600080fd5b506040805160206004803580820135601f810184900484028501840190955284845261061694369492936024939284019190819084018382808284375094975050508335600160a060020a03169450505060209091013590506117f8565b34801561074a57600080fd5b5061029a6118da565b34801561075f57600080fd5b506102c46004356118e0565b34801561077757600080fd5b506104ca600160a060020a03600435166024356119e4565b34801561079b57600080fd5b50610616600160a060020a0360043516602435604435606435611a74565b3480156107c557600080fd5b5061029a611b74565b3480156107da57600080fd5b50610663600435611bbb565b3480156107f257600080fd5b5061029a611c59565b34801561080757600080fd5b50610616600435611c6f565b34801561081f57600080fd5b5061029a611e9c565b34801561083457600080fd5b5061029a611ec8565b34801561084957600080fd5b5061029a600435612029565b34801561086157600080fd5b5061029a61205e565b34801561087657600080fd5b50610616600160a060020a0360043516612071565b34801561089757600080fd5b5061029a600435600160a060020a0360243516604435606435612145565b3480156108c157600080fd5b50610616600435602435612208565b3480156108dc57600080fd5b506108e8600435612444565b604051808060200184815260200183600160a060020a0316600160a060020a03168152602001828103825285818151815260200191508051906020019080838360005b8381101561094357818101518382015260200161092b565b50505050905090810190601f1680156109705780820380516001836020036101000a031916815260200191505b5094505050505060405180910390f35b34801561098c57600080fd5b5061024460043560243561259c565b3480156109a757600080fd5b506108e8600160a060020a03600435166125ca565b3480156109c857600080fd5b5061029a6126c5565b3480156109dd57600080fd5b50610616600435602435604435612764565b3480156109fb57600080fd5b5061029a60043560243561286c565b610616612879565b348015610a1e57600080fd5b506104ca600435602435612c9a565b348015610a3957600080fd5b5061061660043560243560443560643560843560a43560c435612cdf565b348015610a6357600080fd5b50610616600160a060020a0360043516602435604435606435612eaf565b348015610a8d57600080fd5b5061029a6004356024356131c0565b348015610aa857600080fd5b5061061660043561336b565b348015610ac057600080fd5b5061029a6004356024356134b2565b348015610adb57600080fd5b506104ca6134f5565b600160a060020a038316600090815260066020526040812080548291829182918291829182918a908110610b1457fe5b600091825260208083208b84526006928302016005018152604080842054600160a060020a038f1685529290915290912080548b908110610b5157fe5b906000526020600020906006020160050160008a815260200190815260200160002060010154600660008d600160a060020a0316600160a060020a031681526020019081526020016000208b815481101515610ba957fe5b906000526020600020906006020160050160008b815260200190815260200160002060020154600660008e600160a060020a0316600160a060020a031681526020019081526020016000208c815481101515610c0157fe5b906000526020600020906006020160050160008c815260200190815260200160002060060154600660008f600160a060020a0316600160a060020a031681526020019081526020016000208d815481101515610c5957fe5b600091825260208083208f845260056006909302018201905260409091200154939e929d919c509a92995097509095509350505050565b600854600090811015610ca65750600854610caa565b5060005b90565b606080606060008060088054905086101515610d13576040805160e560020a62461bcd02815260206004820152600d60248201527f496e76616c696420696e64657800000000000000000000000000000000000000604482015290519081900360640190fd5b6008805487908110610d2157fe5b9060005260206000209060080201600001600887815481101515610d4157fe5b9060005260206000209060080201600101600888815481101515610d6157fe5b9060005260206000209060080201600201600889815481101515610d8157fe5b600091825260209091206003600890920201015460ff166001811115610da357fe5b600880548b908110610db157fe5b600091825260209182902060089190910201600301548554604080516002610100600185161581026000190190941604601f810186900486028201860190925281815291909204600160a060020a03169290918791830182828015610e575780601f10610e2c57610100808354040283529160200191610e57565b820191906000526020600020905b815481529060010190602001808311610e3a57829003601f168201915b5050875460408051602060026001851615610100026000190190941693909304601f8101849004840282018401909252818152959a5089945092508401905082828015610ee55780601f10610eba57610100808354040283529160200191610ee5565b820191906000526020600020905b815481529060010190602001808311610ec857829003601f168201915b5050865460408051602060026001851615610100026000190190941693909304601f810184900484028201840190925281815295995088945092508401905082828015610f735780601f10610f4857610100808354040283529160200191610f73565b820191906000526020600020905b815481529060010190602001808311610f5657829003601f168201915b505050505092509450945094509450945091939590929450565b33600090815260036020908152604080832084845260019081018352818420600281015481549190920154600160a060020a03168086526006909452918420805485948594859485948594859492939291859185908110610fea57fe5b600091825260208083208f845260069283020160050181526040808420830154600160a060020a03871685529290915290912080549192508d918690811061102e57fe5b906000526020600020906006020160050160008e8152602001908152602001600020600001546006600085600160a060020a0316600160a060020a031681526020019081526020016000208681548110151561108657fe5b906000526020600020906006020160050160008f815260200190815260200160002060020154838688879a509a509a509a509a509a509a5050505050919395979092949650565b60008082600660006004868154811015156110e457fe5b6000918252602080832090910154600160a060020a031683528201929092526040019020549092509050915091565b606061111f33836119e4565b92915050565b6000808060013360009081526007602052604090206003015460ff16600181111561114c57fe5b1461115657600080fd5b3360009081526006602052604081205411801561118157503360009081526006602052604090205489105b151561118c57600080fd5b33600090815260066020526040902080548a9081106111a757fe5b600091825260208083206006928302016003015433845291905260409091208054919350908a9081106111d657fe5b6000918252602080832060069283020160040180546001019081905533845291905260409091208054919250908a90811061120d57fe5b600091825260208083206006928302016003018054600181018255908452818420018490556040805160e0810182528c81528083018c90528082018b9052606081018790526080810186905260a081018a905260c081018990523385529290915290912080548b90811061127d57fe5b600091825260208083208584526006928302016005908101825260409384902085518155858301516001820155858501516002820155606086015160038201556080860151600482015560a08601519181019190915560c0909401519390910192909255805183815291820184905280517f2a60815e9d2622a909b3c2b731fa879a529c93b5fecdb1cfea183695707572cc9281900390910190a150979650505050505050565b3360009081526007602052604081206003015460a860020a900460ff1615611396576040805160e560020a62461bcd02815260206004820152601560248201527f5245515545535420495320494e2050524f434553530000000000000000000000604482015290519081900360640190fd5b60408051610140810182528581526020810185905290810183905260608101600081523360208201526001604082015260085460608201526080016113d9613559565b81526020016004815260006020918201819052338152600782526040902082518051919261140c92849290910190613e1c565b5060208281015180516114259260018501920190613e1c565b5060408201518051611441916002840191602090910190613e1c565b50606082015160038201805460ff19166001838181111561145e57fe5b0217905550608082015160038201805460a085015174ffffffffffffffffffffffffffffffffffffffff0019909116610100600160a060020a0390941684021760a860020a60ff02191660a860020a9115159190910217905560c0830151600483015560e0830151600580840191909155908301516006830180549192909160ff19169060019084908111156114f057fe5b0217905550610120820151816007015590505061150e84848461355f565b50604080516001815290517fd249fc9da5140e2e7baacc07add09262bad65b9822b19b86dcece6e652e015519181900360200190a15060019392505050565b600080600080600080600061158660048b81548110151561156a57fe5b600091825260209091200154600160a060020a03168a8a610ae4565b96509650965096509650965096509397509397509397909450565b600080600080600480549050861080156115f257506000600660006004898154811015156115cb57fe5b6000918252602080832090910154600160a060020a03168352820192909252604001902054115b15156115fd57600080fd5b61160786866136f1565b9299919850965090945092505050565b60008060013360009081526007602052604090206003015460ff16600181111561163d57fe5b1461164757600080fd5b3360009081526007602081905260408220015411156116ec5750336000818152600760208190526040808320909101805490839055905190929183156108fc02918491818181858888f1935050505015156116b85733600090815260076020819052604082200182905591506116f1565b6040805182815290517fdb4153325201f1faa4d39b6107ff1314df0a4854f49f82955f3686029d726b2b9181900360200190a15b600191505b5090565b600954600090811015610ca65750600954610caa565b600160a060020a0381166000908152600760205260408120600301546060918291829190819060a860020a900460ff16151561174657600080fd5b600160a060020a03861660009081526007602052604090206003810154600180830191600284019160ff9091169081111561177d57fe5b600160a060020a038a811660009081526007602090815260409182902060030154875483516002610100600184161581026000190190931604601f8101859004850282018501909552848152910490931692918791830182828015610e575780601f10610e2c57610100808354040283529160200191610e57565b60008054600160a060020a0316331461181057600080fd5b600182600581111561181e57fe5b600581111561182957fe5b148061184b5750600282600581111561183e57fe5b600581111561184957fe5b145b15156118c7576040805160e560020a62461bcd02815260206004820152602760248201527f544845205350454349464945442041444d494e20524f4c4520444f4553204e4f60448201527f5420455849535400000000000000000000000000000000000000000000000000606482015290519081900360840190fd5b6118d284848461378e565b949350505050565b60045490565b606080606060008060098054905086101515611946576040805160e560020a62461bcd02815260206004820152600d60248201527f496e76616c696420696e64657800000000000000000000000000000000000000604482015290519081900360640190fd5b600980548790811061195457fe5b906000526020600020906008020160000160098781548110151561197457fe5b906000526020600020906008020160010160098881548110151561199457fe5b90600052602060002090600802016002016009898154811015156119b457fe5b600091825260209091206003600890920201015460ff1660018111156119d657fe5b600980548b908110610db157fe5b600160a060020a038216600090815260066020526040902080546060919083908110611a0c57fe5b9060005260206000209060060201600301805480602002602001604051908101604052809291908181526020018280548015611a6757602002820191906000526020600020905b815481526020019060010190808311611a53575b5050505050905092915050565b600160a060020a0384166000908152600660205260408120805483919086908110611a9b57fe5b60009182526020808320878452600560069093020182019052604090912001541015611ac657600080fd5b600160a060020a0385166000908152600660205260408120805486908110611aea57fe5b600091825260208083208784526005600690930201919091019052604090206004015411611b1757600080fd5b336000908152600360209081526040808320868452600101825291829020849055815184815291517feff915af5abcf733d88ab55ebab7a6842612483ce2447d6de6af02196cbc54939281900390910190a1506001949350505050565b600060013360009081526007602052604090206003015460ff166001811115611b9957fe5b14611ba357600080fd5b50336000908152600760208190526040909120015490565b3360009081526006602052604081208054829182918291829187908110611bde57fe5b6000918252602080832060069283020160020154338452919052604090912080549192509087908110611c0d57fe5b60009182526020808320600692830201543384529190526040909120805488908110611c3557fe5b90600052602060002090600602016001015482889450945094509450509193509193565b3360009081526003602052604090206002015490565b600060013360009081526007602052604090206003015460ff166001811115611c9457fe5b14611c9e57600080fd5b33600090815260066020526040812054118015611cc957503360009081526006602052604090205482105b1515611cd457600080fd5b33600090815260066020526040902080546000198101908110611cf357fe5b6000918252602080832033845260069182905260409093208054919092029092019184908110611d1f57fe5b600091825260209091208254600690920201908155600180830154908201556002808301549082015560038083018054611d5c9284019190613e96565b50600491820154910155336000908152600660205260409020805490611d86906000198301613ed6565b50336000908152600660205260409020541515611e4f57600480546000198101908110611daf57fe5b6000918252602080832090910154338352600590915260409091206001015460048054600160a060020a03909316929091908110611de957fe5b6000918252602090912001805473ffffffffffffffffffffffffffffffffffffffff1916600160a060020a03929092169190911790556004805490611e32906000198301613f07565b50336000908152600560205260408120805460ff19168155600101555b3360009081526006602090815260409182902054825190815291517fb9a4bd253f65179162993c9e886b8a6a550b811e0a8c2977ee7dd3a1d061e2729281900390910190a1506001919050565b60008054600160a060020a03163314611eb457600080fd5b60025460001015610ca65750600254610caa565b600080600080611ed6613f2b565b600080600095505b3360009081526003602052604090206002015485101561201e57336000908152600360208181526040808420888552600101909152909120015460ff16151561201357336000908152600360205260409020600201805486908110611f3f57fe5b6000918252602080832090910154338352600380835260408085208386526001908101855281862082516080810184528154815291810154600160a060020a03168287018190526002820154838501908152919094015460ff16151560608301529286526006909452909320925183549197509195508110611fbd57fe5b600091825260208083208784526005600690930201919091018152604080832060020154338452600383528184208885526001019092529091205490925090506120108661200b8484613a24565b613a4d565b95505b600190940193611ede565b509395945050505050565b33600090815260066020526040812080548390811061204457fe5b600091825260209091206003600690920201015492915050565b3360009081526006602052604090205490565b60008054600160a060020a0316331461208957600080fd5b600160a060020a03821660009081526007602052604090206003015460a860020a900460ff1615156001146120bd57600080fd5b600160a060020a03821660009081526007602052604090206003808201805460ff19908116600117909155600690920180549092161790556120fe82613a5a565b5061210882613c62565b50604080516001815290517fe3e79272c9f952f960a5911aee0622f58aedfcfe35abc490183d5e96a84cbae19181900360200190a1506001919050565b6000600185600181111561215557fe5b600181111561216057fe5b14156121b757600160a060020a038416600090815260066020526040902080548490811061218a57fe5b906000526020600020906006020160050160008381526020019081526020016000206006015490506118d2565b600160a060020a03841660009081526006602052604090208054849081106121db57fe5b906000526020600020906006020160050160008381526020019081526020016000206002015490506118d2565b6000808060013360009081526007602052604090206003015460ff16600181111561222f57fe5b1461223957600080fd5b3360009081526006602052604081205411801561226457503360009081526006602052604090205485105b151561226f57600080fd5b33600090815260066020526040902080548690811061228a57fe5b60009182526020808320878452600692830201600501815260408084206003015433855292909152909120805491935090869081106122c557fe5b6000918252602080832087845260069283020160059081018252604080852085815560018101869055600281018690556003810186905560048101869055918201859055908301849055338452919052902080548690811061232357fe5b600091825260208083206006928302016003015433845291905260409091208054919250908690811061235257fe5b90600052602060002090600602016003016001820381548110151561237357fe5b60009182526020808320909101543383526006909152604090912080548790811061239a57fe5b9060005260206000209060060201600301838154811015156123b857fe5b60009182526020808320909101929092553381526006909152604090208054869081106123e157fe5b90600052602060002090600602016003018054809190600190036124059190613f07565b506040805185815290517fc341cf326465fe622f86c468249e8c0cb03ed23ba376a6a34863a1374ac7d7699181900360200190a1506001949350505050565b60008054606091908190600160a060020a0316331461246257600080fd5b600254841061247057600080fd5b600280548590811061247e57fe5b906000526020600020906002020160000160028581548110151561249e57fe5b600091825260209091206001600290920201015460ff1660058111156124c057fe5b60028054879081106124ce57fe5b906000526020600020906002020160010160019054906101000a9004600160a060020a0316828054600181600116156101000203166002900480601f0160208091040260200160405190810160405280929190818152602001828054600181600116156101000203166002900480156125885780601f1061255d57610100808354040283529160200191612588565b820191906000526020600020905b81548152906001019060200180831161256b57829003601f168201915b505050505092509250925092509193909250565b60008060008060008060006125b2338a8a610ae4565b959f949e50929c50909a509850965090945092505050565b60008054606091908190600160a060020a031633146125e857600080fd5b600160a060020a0384166000908152600160208190526040909120015460a860020a900460ff16151561261a57600080fd5b600160a060020a03841660009081526001602081905260409091209081015460ff16600581111561264757fe5b600160a060020a038681166000908152600160208181526040928390208201548654845160026101009583161586026000190190921691909104601f810184900484028201840190955284815292900490931692909185918301828280156125885780601f1061255d57610100808354040283529160200191612588565b3360009081526007602052604081206003015460a860020a900460ff16151560011415612714573360009081526007602052604090206006015460ff16600581111561270d57fe5b9050610caa565b33600090815260016020819052604090912081015460a860020a900460ff161515141561275d57336000908152600160208190526040909120015460ff16600581111561270d57fe5b600561270d565b600060013360009081526007602052604090206003015460ff16600181111561278957fe5b1461279357600080fd5b336000908152600660205260408120541180156127be57503360009081526006602052604090205484105b15156127c957600080fd5b3360009081526006602052604090208054849190869081106127e757fe5b60009182526020808320600692830201939093553382529091526040902080548391908690811061281457fe5b6000918252602091829020600160069092020101919091556040805185815291820184905280517f745f6c37c7c955a766769f82b258315021a200fd1fe89df40262fc3c38b640d39281900390910190a19392505050565b6000806118d28484613a24565b336000908152600360205260408120600201548190819081908190819081908190819081106128a757600080fd5b6128af611ec8565b3410156128bb57600080fd5b349750600096505b33600090815260036020526040902060020154871015612c3057336000908152600360205260408120600201805490919081106128fc57fe5b60009182526020808320909101543383526003808352604080852083865260010190935291909220015490965060ff161515612c255733600090815260036020908152604080832089845260019081018352818420805460028201549190920154600160a060020a031680865260069094529184208054919950919750919550908690811061298757fe5b600091825260208083208a845260056006909302019190910190526040902060040154116129b457600080fd5b600160a060020a03831660009081526006602052604090208054869190869081106129db57fe5b600091825260208083208a8452600560069093020182019052604090912001541015612a0657600080fd5b6001600160a060020a03841660009081526007602052604090206003015460ff166001811115612a3257fe5b14612a3c57600080fd5b600160a060020a0383166000908152600660205260409020805485908110612a6057fe5b90600052602060002090600602016005016000878152602001908152602001600020600201549150612a928286613a24565b905080881015612aa157600080fd5b612aab8882613e0a565b3360009081526003602081815260408084208b855260019081018352818520909301805460ff1916909317909255600160a060020a03871683526006905290208054919950612b169186908110612afe57fe5b90600052602060002090600602016002015482613a4d565b600160a060020a0384166000908152600660205260409020805486908110612b3a57fe5b906000526020600020906006020160020181905550612b816007600085600160a060020a0316600160a060020a031681526020019081526020016000206007015482613a4d565b600160a060020a0384166000908152600760208181526040808420909201939093556006909252208054612be0919086908110612bba57fe5b600091825260208083208a84526005600690930201820190526040909120015486613e0a565b600160a060020a0384166000908152600660205260409020805486908110612c0457fe5b600091825260208083208a8452600560069093020182019052604090912001555b6001909601956128c3565b604080516001815290517f0cc34d11f43af89bf3aff732f3999051c4251b5ccc351a54712ea98b003a22319181900360200190a133600090815260036020526040812090612c816002830182613f52565b6003820160009055505060019850505050505050505090565b606060066000600485815481101515612caf57fe5b6000918252602080832090910154600160a060020a031683528201929092526040019020805483908110611a0c57fe5b600060013360009081526007602052604090206003015460ff166001811115612d0457fe5b14612d0e57600080fd5b33600090815260066020526040812054118015612d3957503360009081526006602052604090205488105b1515612d4457600080fd5b33600090815260066020526040902080548791908a908110612d6257fe5b600091825260208083208b84526006928302016005018152604080842094909455338352522080548691908a908110612d9757fe5b600091825260208083208b84526006928302016005018152604080842060010194909455338352522080548591908a908110612dcf57fe5b600091825260208083208b84526006928302016005018152604080842060020194909455338352522080548491908a908110612e0757fe5b600091825260208083208b845260069283020160059081018252604080852090910194909455338352522080548391908a908110612e4157fe5b90600052602060002090600602016005016000898152602001908152602001600020600601819055507feca6714fcf568fb34cf9db4a414cb0cc48e93c5d4e1ba0582a46ea3704cf24d5876040518082815260200191505060405180910390a1506001979650505050505050565b600160a060020a038416600090815260066020526040812080548291849187908110612ed757fe5b60009182526020808320888452600560069093020182019052604090912001541015612f0257600080fd5b600160a060020a0386166000908152600660205260408120805487908110612f2657fe5b600091825260208083208884526005600690930201919091019052604090206004015411612f5357600080fd5b6001600160a060020a03871660009081526007602052604090206003015460ff166001811115612f7f57fe5b14612f8957600080fd5b6003600033600160a060020a0316600160a060020a031681526020019081526020016000206002018054905090506003600033600160a060020a0316600160a060020a031681526020019081526020016000206002018490806001815401808255809150509060018203906000526020600020016000909192909190915055506040805190810160405280600115158152602001828152506003600033600160a060020a0316600160a060020a03168152602001908152602001600020600001600086815260200190815260200160002060008201518160000160006101000a81548160ff0219169083151502179055506020820151816001015590505060806040519081016040528084815260200187600160a060020a03168152602001868152602001600015158152506003600033600160a060020a0316600160a060020a0316815260200190815260200160002060010160008681526020019081526020016000206000820151816000015560208201518160010160006101000a815481600160a060020a030219169083600160a060020a031602179055506040820151816002015560608201518160030160006101000a81548160ff0219169083151502179055509050507f2480268f1c1956aeaceecb84a6f17e474bc61bb5bb84ec8401372ed0a6133ee86003600033600160a060020a0316600160a060020a03168152602001908152602001600020600201805490506040518082815260200191505060405180910390a150600195945050505050565b60006131ca613f73565b60013360009081526007602052604090206003015460ff1660018111156131ed57fe5b146131f757600080fd5b8381526020808201848152336000908152600680845260408083208054600181810180845592865294879020885191909402909301928355935192820192909255908401516002820155606084015180519293859361325c9260038501920190613fa0565b5060809190910151600490910155503360009081526005602052604090205460ff16151561330e57604080518082018252600180825260048054602080850191825233600081815260059092529581209451855460ff1916901515178555905193830193909355805491820181559091527f8a35acfbc15ff81a39ae7d344fd709f28e8600b4aa8c65c6b64bfe7fe36bd19b01805473ffffffffffffffffffffffffffffffffffffffff191690911790555b3360009081526006602090815260409182902054825190815291517f6c6c640d5c695d50cab6e007033207e384550c46ef1e827046dd75e4f33dc4329281900390910190a150503360009081526006602052604090205492915050565b33600081815260036020818152604080842086855280835290842060010154948452919052600201805491929160001981019081106133a657fe5b6000918252602080832090910154338352600390915260409091206002018054839081106133d057fe5b6000918252602080832090910192909255338152600390915260409020600201805490613401906000198301613f07565b5033600081815260036020818152604080842088855260018082018452828620868155808201805473ffffffffffffffffffffffffffffffffffffffff191690556002808201889055908601805460ff1990811690915583865284882080549091168155909101869055959094529181529290910154815190815290517f7deaca4d9411ae1cc8abc39e3b082a716a0c9e3458e2e7ee60649689fa423ce2929181900390910190a150600192915050565b3360009081526006602052604081208054849081106134cd57fe5b6000918252602080832085845260056006909302018201905260409091200154905092915050565b3360009081526003602090815260409182902060020180548351818402810184019094528084526060939283018282801561354f57602002820191906000526020600020905b81548152602001906001019080831161353b575b5050505050905090565b60001990565b600060016008610140604051908101604052808781526020018681526020018581526020016000600181111561359157fe5b81523360208201526001604082015260085460608201526080016135b3613559565b8152602001600481526000602091820181905283546001810180865594825290829020835180516008909302909101926135f292849290910190613e1c565b50602082810151805161360b9260018501920190613e1c565b5060408201518051613627916002840191602090910190613e1c565b50606082015160038201805460ff19166001838181111561364457fe5b0217905550608082015160038201805460a085015174ffffffffffffffffffffffffffffffffffffffff0019909116610100600160a060020a0390941684021760a860020a60ff02191660a860020a9115159190910217905560c0830151600483015560e0830151600580840191909155908301516006830180549192909160ff19169060019084908111156136d657fe5b02179055506101208201518160070155505050509392505050565b600080600080600060048781548110151561370857fe5b6000918252602080832090910154600160a060020a0316808352600690915260409091208054919250908790811061373c57fe5b6000918252602080832060069283020154600160a060020a0385168452919052604090912080548890811061376d57fe5b60009182526020909120600160069092020101549098909795509350505050565b60008054600160a060020a031633146137a657600080fd5b6080604051908101604052808581526020018360058111156137c457fe5b60058111156137cf57fe5b8152600160a060020a0385166020808301829052600160409384018190526000928352815291902082518051919261380c92849290910190613e1c565b50602082015160018083018054909160ff199091169083600581111561382e57fe5b021790555060408281015160019092018054606090940151151560a860020a0260a860020a60ff0219600160a060020a039094166101000274ffffffffffffffffffffffffffffffffffffffff00199095169490941792909216929092179055805160808101909152848152600290602081018460058111156138ad57fe5b60058111156138b857fe5b8152600160a060020a038616602080830191909152600160409092018290528354918201808555600094855293819020835180516002909402909101926139029284920190613e1c565b50602082015160018083018054909160ff199091169083600581111561392457fe5b021790555060408281015160019092018054606090940151151560a860020a0260a860020a60ff0219600160a060020a039094166101000274ffffffffffffffffffffffffffffffffffffffff001990951694909417929092169290921790558051602080825287518183015287517f56b0a2dda7952cd07f438433182565929ba3aba4c3404a7d29a0840ac6284da4945088938392908301919085019080838360005b838110156139e05781810151838201526020016139c8565b50505050905090810190601f168015613a0d5780820380516001836020036101000a031916815260200191505b509250505060405180910390a15060019392505050565b6000821515613a355750600061111f565b50818102818382811515613a4557fe5b041461111f57fe5b8181018281101561111f57fe5b600160a060020a03811660009081526007602052604081206004015460001912613a8357600080fd5b600880546000198101908110613a9557fe5b60009182526020808320600160a060020a038616845260079091526040909220600401546008805492810290930192918110613acd57fe5b906000526020600020906008020160008201816000019080546001816001161561010002031660029004613b02929190613fda565b5060018201816001019080546001816001161561010002031660029004613b2a929190613fda565b5060028281018054613b4f928481019291600019610100600183161502011604613fda565b50600382810154908201805460ff9092169160ff191660018381811115613b7257fe5b021790555060038281018054918301805474ffffffffffffffffffffffffffffffffffffffff00191661010093849004600160a060020a031690930292909217808355905460a860020a60ff021990911660a860020a9182900460ff9081161515909202179091556004808401549083015560058084015481840155600680850154908401805491909316929160ff19909116906001908490811115613c1457fe5b0217905550600791820154910155613c2a613559565b600160a060020a0383166000908152600760205260409020600401556008805490613c5990600019830161404e565b50600192915050565b60098054600160a060020a03831660009081526007602052604081206005810183905560018084018086559483528154929493919260089092027f6e1540171b6c0c960b71a7020d9f60077f6af931a8bbf590da0223dacf75c7af0191613ce19183918591600261010091831615919091026000190190911604613fda565b5060018201816001019080546001816001161561010002031660029004613d09929190613fda565b5060028281018054613d2e928481019291600019610100600183161502011604613fda565b50600382810154908201805460ff9092169160ff191660018381811115613d5157fe5b021790555060038281018054918301805474ffffffffffffffffffffffffffffffffffffffff00191661010093849004600160a060020a031690930292909217808355905460a860020a60ff021990911660a860020a9182900460ff9081161515909202179091556004808401549083015560058084015481840155600680850154908401805491909316929160ff19909116906001908490811115613df357fe5b021790555060079182015491015550600192915050565b600082821115613e1657fe5b50900390565b828054600181600116156101000203166002900490600052602060002090601f016020900481019282601f10613e5d57805160ff1916838001178555613e8a565b82800160010185558215613e8a579182015b82811115613e8a578251825591602001919060010190613e6f565b506116f192915061407a565b828054828255906000526020600020908101928215613e8a5760005260206000209182015b82811115613e8a578254825591600101919060010190613ebb565b815481835581811115613f0257600602816006028360005260206000209182019101613f029190614094565b505050565b815481835581811115613f0257600083815260209020613f0291810190830161407a565b60408051608081018252600080825260208201819052918101829052606081019190915290565b5080546000825590600052602060002090810190613f70919061407a565b50565b6040805160a081018252600080825260208201819052918101829052606080820152608081019190915290565b828054828255906000526020600020908101928215613e8a5791602002820182811115613e8a578251825591602001919060010190613e6f565b828054600181600116156101000203166002900490600052602060002090601f016020900481019282601f106140135780548555613e8a565b82800160010185558215613e8a57600052602060002091601f0160209004820182811115613e8a578254825591600101919060010190613ebb565b815481835581811115613f0257600802816008028360005260206000209182019101613f0291906140d2565b610caa91905b808211156116f15760008155600101614080565b610caa91905b808211156116f157600080825560018201819055600282018190556140c26003830182613f52565b506000600482015560060161409a565b610caa91905b808211156116f15760006140ec8282614153565b6140fa600183016000614153565b614108600283016000614153565b5060038101805475ffffffffffffffffffffffffffffffffffffffffffff191690556000600482018190556005820181905560068201805460ff1916905560078201556008016140d8565b50805460018160011615610100020316600290046000825580601f106141795750613f70565b601f016020900490600052602060002090810190613f70919061407a5600a165627a7a723058206b6ec9c3e859977d96b72714425da83b13364963e958fba78a59383b3aa426d00029",
  "source": "pragma solidity ^0.4.18;\nimport \"./StoreManager.sol\";\nimport \"./ProductManager.sol\";\nimport './UserManager.sol';\nimport \"./Ownerble.sol\";\nimport \"./ShoppingCartManager.sol\";\nimport \"./Withdrawable.sol\";\nimport \"./SpinelTokenSale.sol\";\n\ncontract MarketPlace is Ownerble, StoreManager, ProductManager,\nUserManager, ShoppingCartManager, Withdrawable{\n\n    SpinelTokenSale tokenSaleContract;\n    constructor(SpinelTokenSale _tokenSaleContract) public {\n         tokenSaleContract = _tokenSaleContract;\n         tokenSaleContract_shoppingCart = _tokenSaleContract;\n        \n    }\n}\n\n",
  "sourcePath": "/Users/yusufkelo/Documents/DEVELOPER/ETHEREAUM/blockchain-market/market-place/contracts/MarketPlace.sol",
  "compiler": {
    "name": "solc",
    "version": "0.4.24+commit.e67f0147.Emscripten.clang"
  },
  "schemaVersion": "2.0.0",
  "updatedAt": "2018-08-24T16:54:40.769Z"
}