{
  "contractName": "MarketPlace",
  "abi": [
    {
      "constant": true,
      "inputs": [
        {
          "name": "vendor",
          "type": "address"
        },
        {
          "name": "storeIndex",
          "type": "uint256"
        },
        {
          "name": "productId",
          "type": "uint256"
        }
      ],
      "name": "getProduct",
      "outputs": [
        {
          "name": "",
          "type": "bytes32"
        },
        {
          "name": "",
          "type": "bytes32"
        },
        {
          "name": "",
          "type": "uint256"
        },
        {
          "name": "",
          "type": "uint256"
        },
        {
          "name": "",
          "type": "uint256"
        },
        {
          "name": "",
          "type": "address"
        },
        {
          "name": "",
          "type": "uint256"
        }
      ],
      "payable": false,
      "stateMutability": "view",
      "type": "function"
    },
    {
      "constant": true,
      "inputs": [],
      "name": "getPendingVendors",
      "outputs": [
        {
          "name": "",
          "type": "uint256"
        }
      ],
      "payable": false,
      "stateMutability": "view",
      "type": "function"
    },
    {
      "constant": true,
      "inputs": [
        {
          "name": "index",
          "type": "uint256"
        }
      ],
      "name": "getPendingVendorByIndex",
      "outputs": [
        {
          "name": "",
          "type": "string"
        },
        {
          "name": "",
          "type": "string"
        },
        {
          "name": "",
          "type": "string"
        },
        {
          "name": "",
          "type": "uint256"
        },
        {
          "name": "",
          "type": "address"
        }
      ],
      "payable": false,
      "stateMutability": "view",
      "type": "function"
    },
    {
      "constant": true,
      "inputs": [
        {
          "name": "productId",
          "type": "uint256"
        }
      ],
      "name": "getCartItem",
      "outputs": [
        {
          "name": "",
          "type": "uint256"
        },
        {
          "name": "",
          "type": "bytes32"
        },
        {
          "name": "",
          "type": "bytes32"
        },
        {
          "name": "",
          "type": "uint256"
        },
        {
          "name": "",
          "type": "uint256"
        },
        {
          "name": "",
          "type": "uint256"
        },
        {
          "name": "",
          "type": "address"
        }
      ],
      "payable": false,
      "stateMutability": "view",
      "type": "function"
    },
    {
      "constant": true,
      "inputs": [
        {
          "name": "accountIndex",
          "type": "uint256"
        }
      ],
      "name": "getVendorStoreCountPublic",
      "outputs": [
        {
          "name": "",
          "type": "uint256"
        },
        {
          "name": "",
          "type": "uint256"
        }
      ],
      "payable": false,
      "stateMutability": "view",
      "type": "function"
    },
    {
      "constant": true,
      "inputs": [
        {
          "name": "storeIndex",
          "type": "uint256"
        }
      ],
      "name": "getProductsIdsVendor",
      "outputs": [
        {
          "name": "",
          "type": "uint256[]"
        }
      ],
      "payable": false,
      "stateMutability": "view",
      "type": "function"
    },
    {
      "constant": false,
      "inputs": [
        {
          "name": "_name",
          "type": "string"
        },
        {
          "name": "_email",
          "type": "string"
        },
        {
          "name": "_phone",
          "type": "string"
        }
      ],
      "name": "requestVendorAccount",
      "outputs": [
        {
          "name": "",
          "type": "bool"
        }
      ],
      "payable": false,
      "stateMutability": "nonpayable",
      "type": "function"
    },
    {
      "constant": true,
      "inputs": [],
      "name": "getPendingVendorsCount",
      "outputs": [
        {
          "name": "",
          "type": "uint256"
        }
      ],
      "payable": false,
      "stateMutability": "view",
      "type": "function"
    },
    {
      "constant": true,
      "inputs": [
        {
          "name": "accountIndex",
          "type": "uint256"
        },
        {
          "name": "storeIndex",
          "type": "uint256"
        },
        {
          "name": "productId",
          "type": "uint256"
        }
      ],
      "name": "getProductCustomer",
      "outputs": [
        {
          "name": "",
          "type": "bytes32"
        },
        {
          "name": "",
          "type": "bytes32"
        },
        {
          "name": "",
          "type": "uint256"
        },
        {
          "name": "",
          "type": "uint256"
        },
        {
          "name": "",
          "type": "uint256"
        },
        {
          "name": "",
          "type": "address"
        },
        {
          "name": "",
          "type": "uint256"
        }
      ],
      "payable": false,
      "stateMutability": "view",
      "type": "function"
    },
    {
      "constant": true,
      "inputs": [
        {
          "name": "accountIndex",
          "type": "uint256"
        },
        {
          "name": "storeIndex",
          "type": "uint256"
        }
      ],
      "name": "getStorePublic",
      "outputs": [
        {
          "name": "",
          "type": "bytes32"
        },
        {
          "name": "",
          "type": "bytes32"
        },
        {
          "name": "",
          "type": "uint256"
        },
        {
          "name": "",
          "type": "uint256"
        }
      ],
      "payable": false,
      "stateMutability": "view",
      "type": "function"
    },
    {
      "constant": false,
      "inputs": [],
      "name": "withdraw",
      "outputs": [
        {
          "name": "",
          "type": "bool"
        }
      ],
      "payable": false,
      "stateMutability": "nonpayable",
      "type": "function"
    },
    {
      "constant": true,
      "inputs": [],
      "name": "getApprovedVendorsCount",
      "outputs": [
        {
          "name": "",
          "type": "uint256"
        }
      ],
      "payable": false,
      "stateMutability": "view",
      "type": "function"
    },
    {
      "constant": true,
      "inputs": [
        {
          "name": "account",
          "type": "address"
        }
      ],
      "name": "getVendorByAddress",
      "outputs": [
        {
          "name": "",
          "type": "string"
        },
        {
          "name": "",
          "type": "string"
        },
        {
          "name": "",
          "type": "string"
        },
        {
          "name": "",
          "type": "uint256"
        },
        {
          "name": "",
          "type": "address"
        }
      ],
      "payable": false,
      "stateMutability": "view",
      "type": "function"
    },
    {
      "constant": false,
      "inputs": [
        {
          "name": "name",
          "type": "string"
        },
        {
          "name": "account",
          "type": "address"
        },
        {
          "name": "role",
          "type": "uint256"
        }
      ],
      "name": "createAdminUser",
      "outputs": [
        {
          "name": "",
          "type": "bool"
        }
      ],
      "payable": false,
      "stateMutability": "nonpayable",
      "type": "function"
    },
    {
      "constant": true,
      "inputs": [],
      "name": "getVendorAccountsWithListedStoresCount",
      "outputs": [
        {
          "name": "",
          "type": "uint256"
        }
      ],
      "payable": false,
      "stateMutability": "view",
      "type": "function"
    },
    {
      "constant": true,
      "inputs": [
        {
          "name": "index",
          "type": "uint256"
        }
      ],
      "name": "getApprovedVendorByIndex",
      "outputs": [
        {
          "name": "",
          "type": "string"
        },
        {
          "name": "",
          "type": "string"
        },
        {
          "name": "",
          "type": "string"
        },
        {
          "name": "",
          "type": "uint256"
        },
        {
          "name": "",
          "type": "address"
        }
      ],
      "payable": false,
      "stateMutability": "view",
      "type": "function"
    },
    {
      "constant": true,
      "inputs": [
        {
          "name": "account",
          "type": "address"
        },
        {
          "name": "storeIndex",
          "type": "uint256"
        }
      ],
      "name": "getProductsIds",
      "outputs": [
        {
          "name": "",
          "type": "uint256[]"
        }
      ],
      "payable": false,
      "stateMutability": "view",
      "type": "function"
    },
    {
      "constant": false,
      "inputs": [
        {
          "name": "storeIndex",
          "type": "uint256"
        },
        {
          "name": "productId",
          "type": "uint256"
        },
        {
          "name": "productName",
          "type": "bytes32"
        },
        {
          "name": "description",
          "type": "bytes32"
        },
        {
          "name": "price",
          "type": "uint256"
        },
        {
          "name": "quantity",
          "type": "uint256"
        }
      ],
      "name": "editProduct",
      "outputs": [
        {
          "name": "",
          "type": "bool"
        }
      ],
      "payable": false,
      "stateMutability": "nonpayable",
      "type": "function"
    },
    {
      "constant": false,
      "inputs": [
        {
          "name": "vendorAccount",
          "type": "address"
        },
        {
          "name": "storeIndex",
          "type": "uint256"
        },
        {
          "name": "productId",
          "type": "uint256"
        },
        {
          "name": "productQuantity",
          "type": "uint256"
        }
      ],
      "name": "updateCartItem",
      "outputs": [
        {
          "name": "",
          "type": "bool"
        }
      ],
      "payable": false,
      "stateMutability": "nonpayable",
      "type": "function"
    },
    {
      "constant": true,
      "inputs": [
        {
          "name": "storeIndex",
          "type": "uint256"
        }
      ],
      "name": "getStorePrivate",
      "outputs": [
        {
          "name": "",
          "type": "bytes32"
        },
        {
          "name": "",
          "type": "bytes32"
        },
        {
          "name": "",
          "type": "uint256"
        },
        {
          "name": "",
          "type": "uint256"
        }
      ],
      "payable": false,
      "stateMutability": "view",
      "type": "function"
    },
    {
      "constant": true,
      "inputs": [],
      "name": "getCartItemsCount",
      "outputs": [
        {
          "name": "",
          "type": "uint256"
        }
      ],
      "payable": false,
      "stateMutability": "view",
      "type": "function"
    },
    {
      "constant": false,
      "inputs": [
        {
          "name": "storeIndex",
          "type": "uint256"
        },
        {
          "name": "productName",
          "type": "bytes32"
        },
        {
          "name": "description",
          "type": "bytes32"
        },
        {
          "name": "price",
          "type": "uint256"
        },
        {
          "name": "quantity",
          "type": "uint256"
        }
      ],
      "name": "createProduct",
      "outputs": [
        {
          "name": "",
          "type": "uint256"
        }
      ],
      "payable": false,
      "stateMutability": "nonpayable",
      "type": "function"
    },
    {
      "constant": false,
      "inputs": [
        {
          "name": "storeIndex",
          "type": "uint256"
        }
      ],
      "name": "deleteStore",
      "outputs": [
        {
          "name": "",
          "type": "bool"
        }
      ],
      "payable": false,
      "stateMutability": "nonpayable",
      "type": "function"
    },
    {
      "constant": true,
      "inputs": [],
      "name": "getAdminUsersCount",
      "outputs": [
        {
          "name": "",
          "type": "uint256"
        }
      ],
      "payable": false,
      "stateMutability": "view",
      "type": "function"
    },
    {
      "constant": true,
      "inputs": [],
      "name": "getCartPrice",
      "outputs": [
        {
          "name": "",
          "type": "uint256"
        }
      ],
      "payable": false,
      "stateMutability": "view",
      "type": "function"
    },
    {
      "constant": true,
      "inputs": [
        {
          "name": "storeIndex",
          "type": "uint256"
        }
      ],
      "name": "getProductsCount",
      "outputs": [
        {
          "name": "",
          "type": "uint256"
        }
      ],
      "payable": false,
      "stateMutability": "view",
      "type": "function"
    },
    {
      "constant": true,
      "inputs": [],
      "name": "getUserStoreCount",
      "outputs": [
        {
          "name": "",
          "type": "uint256"
        }
      ],
      "payable": false,
      "stateMutability": "view",
      "type": "function"
    },
    {
      "constant": false,
      "inputs": [
        {
          "name": "account",
          "type": "address"
        }
      ],
      "name": "approveVendorAccount",
      "outputs": [
        {
          "name": "",
          "type": "bool"
        }
      ],
      "payable": false,
      "stateMutability": "nonpayable",
      "type": "function"
    },
    {
      "constant": false,
      "inputs": [
        {
          "name": "storeIndex",
          "type": "uint256"
        },
        {
          "name": "productId",
          "type": "uint256"
        }
      ],
      "name": "deleteProduct",
      "outputs": [
        {
          "name": "",
          "type": "bool"
        }
      ],
      "payable": false,
      "stateMutability": "nonpayable",
      "type": "function"
    },
    {
      "constant": true,
      "inputs": [
        {
          "name": "index",
          "type": "uint256"
        }
      ],
      "name": "getAdminUserByIndex",
      "outputs": [
        {
          "name": "",
          "type": "string"
        },
        {
          "name": "",
          "type": "uint256"
        },
        {
          "name": "",
          "type": "address"
        }
      ],
      "payable": false,
      "stateMutability": "view",
      "type": "function"
    },
    {
      "constant": true,
      "inputs": [
        {
          "name": "storeIndex",
          "type": "uint256"
        },
        {
          "name": "productId",
          "type": "uint256"
        }
      ],
      "name": "getProductVendor",
      "outputs": [
        {
          "name": "",
          "type": "bytes32"
        },
        {
          "name": "",
          "type": "bytes32"
        },
        {
          "name": "",
          "type": "uint256"
        },
        {
          "name": "",
          "type": "uint256"
        },
        {
          "name": "",
          "type": "uint256"
        },
        {
          "name": "",
          "type": "address"
        },
        {
          "name": "",
          "type": "uint256"
        }
      ],
      "payable": false,
      "stateMutability": "view",
      "type": "function"
    },
    {
      "constant": true,
      "inputs": [
        {
          "name": "account",
          "type": "address"
        }
      ],
      "name": "getAdminUserByAddress",
      "outputs": [
        {
          "name": "",
          "type": "string"
        },
        {
          "name": "",
          "type": "uint256"
        },
        {
          "name": "",
          "type": "address"
        }
      ],
      "payable": false,
      "stateMutability": "view",
      "type": "function"
    },
    {
      "constant": true,
      "inputs": [],
      "name": "getUserRole",
      "outputs": [
        {
          "name": "",
          "type": "uint256"
        }
      ],
      "payable": false,
      "stateMutability": "view",
      "type": "function"
    },
    {
      "constant": false,
      "inputs": [
        {
          "name": "storeIndex",
          "type": "uint256"
        },
        {
          "name": "storeName",
          "type": "bytes32"
        },
        {
          "name": "description",
          "type": "bytes32"
        }
      ],
      "name": "editStore",
      "outputs": [
        {
          "name": "",
          "type": "bool"
        }
      ],
      "payable": false,
      "stateMutability": "nonpayable",
      "type": "function"
    },
    {
      "constant": false,
      "inputs": [],
      "name": "checkOut",
      "outputs": [
        {
          "name": "",
          "type": "bool"
        }
      ],
      "payable": true,
      "stateMutability": "payable",
      "type": "function"
    },
    {
      "constant": true,
      "inputs": [
        {
          "name": "accountIndex",
          "type": "uint256"
        },
        {
          "name": "storeIndex",
          "type": "uint256"
        }
      ],
      "name": "getProductsIdsCustomer",
      "outputs": [
        {
          "name": "",
          "type": "uint256[]"
        }
      ],
      "payable": false,
      "stateMutability": "view",
      "type": "function"
    },
    {
      "constant": false,
      "inputs": [
        {
          "name": "vendorAccount",
          "type": "address"
        },
        {
          "name": "storeIndex",
          "type": "uint256"
        },
        {
          "name": "productId",
          "type": "uint256"
        },
        {
          "name": "productQuantity",
          "type": "uint256"
        }
      ],
      "name": "addItemToCart",
      "outputs": [
        {
          "name": "",
          "type": "bool"
        }
      ],
      "payable": false,
      "stateMutability": "nonpayable",
      "type": "function"
    },
    {
      "constant": false,
      "inputs": [
        {
          "name": "storeName",
          "type": "bytes32"
        },
        {
          "name": "description",
          "type": "bytes32"
        }
      ],
      "name": "createStore",
      "outputs": [
        {
          "name": "",
          "type": "uint256"
        }
      ],
      "payable": false,
      "stateMutability": "nonpayable",
      "type": "function"
    },
    {
      "constant": false,
      "inputs": [
        {
          "name": "productId",
          "type": "uint256"
        }
      ],
      "name": "deleteCartItem",
      "outputs": [
        {
          "name": "",
          "type": "bool"
        }
      ],
      "payable": false,
      "stateMutability": "nonpayable",
      "type": "function"
    },
    {
      "constant": true,
      "inputs": [],
      "name": "getCartItemsIds",
      "outputs": [
        {
          "name": "",
          "type": "uint256[]"
        }
      ],
      "payable": false,
      "stateMutability": "view",
      "type": "function"
    }
  ],
  "bytecode": "0x60806040526200001764010000000062000069810204565b60408051808201909152600581527f4f776e6572000000000000000000000000000000000000000000000000000000602082015262000062903360006401000000006200007d810204565b506200041c565b60008054600160a060020a03191633179055565b60008054600160a060020a031633146200009657600080fd5b6000826005811115620000a557fe5b6005811115620000b157fe5b146200014457604080517f08c379a000000000000000000000000000000000000000000000000000000000815260206004820152602760248201527f544845205350454349464945442041444d494e20524f4c4520444f4553204e4f60448201527f5420455849535400000000000000000000000000000000000000000000000000606482015290519081900360840190fd5b6200015a84848464010000000062000162810204565b949350505050565b60008054600160a060020a031633146200017b57600080fd5b6080604051908101604052808581526020018360058111156200019a57fe5b6005811115620001a657fe5b8152600160a060020a03851660208083018290526001604093840181905260009283528152919020825180519192620001e59284929091019062000377565b50602082015160018083018054909160ff19909116908360058111156200020857fe5b021790555060408281015160019092018054606090940151151575010000000000000000000000000000000000000000000260a860020a60ff0219600160a060020a039094166101000261010060a860020a03199095169490941792909216929092179055805160808101909152848152600290602081018460058111156200028d57fe5b60058111156200029957fe5b8152600160a060020a03861660208083019190915260016040909201829052835491820180855560009485529381902083518051600290940290910192620002e5928492019062000377565b50602082015160018083018054909160ff19909116908360058111156200030857fe5b0217905550604082015160019182018054606090940151151575010000000000000000000000000000000000000000000260a860020a60ff0219600160a060020a039093166101000261010060a860020a03199095169490941791909116929092179091559150509392505050565b828054600181600116156101000203166002900490600052602060002090601f016020900481019282601f10620003ba57805160ff1916838001178555620003ea565b82800160010185558215620003ea579182015b82811115620003ea578251825591602001919060010190620003cd565b50620003f8929150620003fc565b5090565b6200041991905b80821115620003f8576000815560010162000403565b90565b613b1c806200042c6000396000f3006080604052600436106101ec5763ffffffff7c010000000000000000000000000000000000000000000000000000000060003504166279892481146101f1578063066674291461025957806306cfcb861461028057806311f83918146103fc57806317a5802314610455578063189795591461048657806328617c7c146104ee578063340cffbe1461025957806336bbb03c146105d75780633a8fa895146105f55780633ccfd60b146106365780633d0559631461064b57806343defc10146106605780635406214314610681578063543c73f5146106eb57806358e99175146107005780635ce9ae53146107185780636d3698791461073c5780636de0c1f2146107635780637105306a1461078d57806373ac9d35146107a55780637902f880146107ba5780637cc69325146107de5780637f266904146107f65780638297574b1461080b578063892c45f9146108205780638f0c0f361461083857806399dcec851461084d578063a1c48cc41461086e578063a93e999d14610889578063ab7f603f14610939578063bb3fac1414610954578063bf04a10d14610975578063c08ed9b11461098a578063cba5751c146109a8578063d1dfaa3e146109b0578063e63aefcb146109cb578063e64a282b146109f5578063f513747614610a10578063fa846e5a14610a28575b600080fd5b3480156101fd57600080fd5b50610218600160a060020a0360043516602435604435610a3d565b6040805197885260208801969096528686019490945260608601929092526080850152600160a060020a031660a084015260c0830152519081900360e00190f35b34801561026557600080fd5b5061026e610c19565b60408051918252519081900360200190f35b34801561028c57600080fd5b50610298600435610c36565b6040518080602001806020018060200186815260200185600160a060020a0316600160a060020a03168152602001848103845289818151815260200191508051906020019080838360005b838110156102fb5781810151838201526020016102e3565b50505050905090810190601f1680156103285780820380516001836020036101000a031916815260200191505b5084810383528851815288516020918201918a019080838360005b8381101561035b578181015183820152602001610343565b50505050905090810190601f1680156103885780820380516001836020036101000a031916815260200191505b50848103825287518152875160209182019189019080838360005b838110156103bb5781810151838201526020016103a3565b50505050905090810190601f1680156103e85780820380516001836020036101000a031916815260200191505b509850505050505050505060405180910390f35b34801561040857600080fd5b50610414600435610f16565b604080519788526020880196909652868601949094526060860192909252608085015260a0840152600160a060020a031660c0830152519081900360e00190f35b34801561046157600080fd5b5061046d600435611079565b6040805192835260208301919091528051918290030190f35b34801561049257600080fd5b5061049e6004356110bf565b60408051602080825283518183015283519192839290830191858101910280838360005b838110156104da5781810151838201526020016104c2565b505050509050019250505060405180910390f35b3480156104fa57600080fd5b506040805160206004803580820135601f81018490048402850184019095528484526105c394369492936024939284019190819084018382808284375050604080516020601f89358b018035918201839004830284018301909452808352979a99988101979196509182019450925082915084018382808284375050604080516020601f89358b018035918201839004830284018301909452808352979a9998810197919650918201945092508291508401838280828437509497506110d19650505050505050565b604080519115158252519081900360200190f35b3480156105e357600080fd5b506102186004356024356044356112c6565b34801561060157600080fd5b5061061060043560243561131a565b604080519485526020850193909352838301919091526060830152519081900360800190f35b34801561064257600080fd5b506105c3611390565b34801561065757600080fd5b5061026e61143a565b34801561066c57600080fd5b50610298600160a060020a0360043516611450565b34801561068d57600080fd5b506040805160206004803580820135601f81018490048402850184019095528484526105c394369492936024939284019190819084018382808284375094975050508335600160a060020a031694505050602090910135905061153d565b3480156106f757600080fd5b5061026e61161f565b34801561070c57600080fd5b50610298600435611625565b34801561072457600080fd5b5061049e600160a060020a0360043516602435611729565b34801561074857600080fd5b506105c360043560243560443560643560843560a4356117b9565b34801561076f57600080fd5b506105c3600160a060020a03600435166024356044356064356118a9565b34801561079957600080fd5b50610610600435611962565b3480156107b157600080fd5b5061026e611994565b3480156107c657600080fd5b5061026e6004356024356044356064356084356119aa565b3480156107ea57600080fd5b506105c3600435611af7565b34801561080257600080fd5b5061026e611c95565b34801561081757600080fd5b5061026e611cc1565b34801561082c57600080fd5b5061026e600435611cd8565b34801561084457600080fd5b5061026e611d0d565b34801561085957600080fd5b506105c3600160a060020a0360043516611d20565b34801561087a57600080fd5b506105c3600435602435611da8565b34801561089557600080fd5b506108a1600435611f48565b604051808060200184815260200183600160a060020a0316600160a060020a03168152602001828103825285818151815260200191508051906020019080838360005b838110156108fc5781810151838201526020016108e4565b50505050905090810190601f1680156109295780820380516001836020036101000a031916815260200191505b5094505050505060405180910390f35b34801561094557600080fd5b506102186004356024356120a0565b34801561096057600080fd5b506108a1600160a060020a03600435166120ce565b34801561098157600080fd5b5061026e6121c9565b34801561099657600080fd5b506105c3600435602435604435612268565b6105c36122fd565b3480156109bc57600080fd5b5061049e6004356024356126cf565b3480156109d757600080fd5b506105c3600160a060020a0360043516602435604435606435612714565b348015610a0157600080fd5b5061026e6004356024356129aa565b348015610a1c57600080fd5b506105c3600435612b10565b348015610a3457600080fd5b5061049e612db0565b600080600080600080600080600660008c600160a060020a0316600160a060020a031681526020019081526020016000208a815481101515610a7b57fe5b906000526020600020906006020160050160008a8152602001908152602001600020600501549050600660008c600160a060020a0316600160a060020a031681526020019081526020016000208a815481101515610ad557fe5b906000526020600020906006020160050160008a815260200190815260200160002060000154600660008d600160a060020a0316600160a060020a031681526020019081526020016000208b815481101515610b2d57fe5b906000526020600020906006020160050160008b815260200190815260200160002060010154600660008e600160a060020a0316600160a060020a031681526020019081526020016000208c815481101515610b8557fe5b906000526020600020906006020160050160008c815260200190815260200160002060020154600660008f600160a060020a0316600160a060020a031681526020019081526020016000208d815481101515610bdd57fe5b600091825260208083209e835260056006909202909e0101909c526040909b2060040154919d909c9a9b919a9199509097509095509350505050565b600854600090811015610c2f5750600854610c33565b5060005b90565b606080606060008060088054905086101515610c9c576040805160e560020a62461bcd02815260206004820152600d60248201527f496e76616c696420696e64657800000000000000000000000000000000000000604482015290519081900360640190fd5b6008805487908110610caa57fe5b9060005260206000209060080201600001600887815481101515610cca57fe5b9060005260206000209060080201600101600888815481101515610cea57fe5b9060005260206000209060080201600201600889815481101515610d0a57fe5b600091825260209091206003600890920201015460ff166001811115610d2c57fe5b600880548b908110610d3a57fe5b600091825260209182902060089190910201600301548554604080516002610100600185161581026000190190941604601f810186900486028201860190925281815291909204600160a060020a03169290918791830182828015610de05780601f10610db557610100808354040283529160200191610de0565b820191906000526020600020905b815481529060010190602001808311610dc357829003601f168201915b5050875460408051602060026001851615610100026000190190941693909304601f8101849004840282018401909252818152959a5089945092508401905082828015610e6e5780601f10610e4357610100808354040283529160200191610e6e565b820191906000526020600020905b815481529060010190602001808311610e5157829003601f168201915b5050865460408051602060026001851615610100026000190190941693909304601f810184900484028201840190925281815295995088945092508401905082828015610efc5780601f10610ed157610100808354040283529160200191610efc565b820191906000526020600020905b815481529060010190602001808311610edf57829003601f168201915b505050505092509450945094509450945091939590929450565b33600090815260036020908152604080832084845260019081018352818420600281015481549190920154600160a060020a0316808652600690945291842080548594859485948594859485949293929185918291829187908110610f7757fe5b906000526020600020906006020160050160008f81526020019081526020016000206000015492506006600085600160a060020a0316600160a060020a0316815260200190815260200160002086815481101515610fd157fe5b906000526020600020906006020160050160008f81526020019081526020016000206001015491506006600085600160a060020a0316600160a060020a031681526020019081526020016000208681548110151561102b57fe5b906000526020600020906006020160050160008f81526020019081526020016000206002015490508d838383888a899c509c509c509c509c509c509c50505050505050919395979092949650565b600080826006600060048681548110151561109057fe5b6000918252602080832090910154600160a060020a031683528201929092526040019020549092509050915091565b60606110cb3383611729565b92915050565b3360009081526007602052604081206003015460a860020a900460ff1615611143576040805160e560020a62461bcd02815260206004820152601560248201527f5245515545535420495320494e2050524f434553530000000000000000000000604482015290519081900360640190fd5b6040805161014081018252858152602081018590529081018390526060810160008152336020820152600160408201526008546060820152608001611186612e14565b8152602001600481526000602091820181905233815260078252604090208251805191926111b99284929091019061379c565b5060208281015180516111d2926001850192019061379c565b50604082015180516111ee91600284019160209091019061379c565b50606082015160038201805460ff19166001838181111561120b57fe5b0217905550608082015160038201805460a085015174ffffffffffffffffffffffffffffffffffffffff0019909116610100600160a060020a0390941684021760a860020a60ff02191660a860020a9115159190910217905560c0830151600483015560e0830151600580840191909155908301516006830180549192909160ff191690600190849081111561129d57fe5b021790555061012082015181600701559050506112bb848484612e1a565b506001949350505050565b60008060008060008060006112ff60048b8154811015156112e357fe5b600091825260209091200154600160a060020a03168a8a610a3d565b96509650965096509650965096509397509397509397909450565b6000806000806004805490508610801561136b575060006006600060048981548110151561134457fe5b6000918252602080832090910154600160a060020a03168352820192909252604001902054115b151561137657600080fd5b6113808686612fac565b9299919850965090945092505050565b60008060013360009081526007602052604090206003015460ff1660018111156113b657fe5b146113c057600080fd5b3360009081526007602081905260408220015411156114315750336000818152600760208190526040808320909101805490839055905190929183156108fc02918491818181858888f193505050501515611431573360009081526007602081905260408220018290559150611436565b600191505b5090565b600954600090811015610c2f5750600954610c33565b600160a060020a0381166000908152600760205260408120600301546060918291829190819060a860020a900460ff16151561148b57600080fd5b600160a060020a03861660009081526007602052604090206003810154600180830191600284019160ff909116908111156114c257fe5b600160a060020a038a811660009081526007602090815260409182902060030154875483516002610100600184161581026000190190931604601f8101859004850282018501909552848152910490931692918791830182828015610de05780601f10610db557610100808354040283529160200191610de0565b60008054600160a060020a0316331461155557600080fd5b600182600581111561156357fe5b600581111561156e57fe5b14806115905750600282600581111561158357fe5b600581111561158e57fe5b145b151561160c576040805160e560020a62461bcd02815260206004820152602760248201527f544845205350454349464945442041444d494e20524f4c4520444f4553204e4f60448201527f5420455849535400000000000000000000000000000000000000000000000000606482015290519081900360840190fd5b611617848484613049565b949350505050565b60045490565b60608060606000806009805490508610151561168b576040805160e560020a62461bcd02815260206004820152600d60248201527f496e76616c696420696e64657800000000000000000000000000000000000000604482015290519081900360640190fd5b600980548790811061169957fe5b90600052602060002090600802016000016009878154811015156116b957fe5b90600052602060002090600802016001016009888154811015156116d957fe5b90600052602060002090600802016002016009898154811015156116f957fe5b600091825260209091206003600890920201015460ff16600181111561171b57fe5b600980548b908110610d3a57fe5b600160a060020a03821660009081526006602052604090208054606091908390811061175157fe5b90600052602060002090600602016003018054806020026020016040519081016040528092919081815260200182805480156117ac57602002820191906000526020600020905b815481526020019060010190808311611798575b5050505050905092915050565b3360009081526006602052604081208054869190899081106117d757fe5b600091825260208083208a84526006928302016005018152604080842094909455338352522080548591908990811061180c57fe5b600091825260208083208a84526006928302016005018152604080842060010194909455338352522080548491908990811061184457fe5b600091825260208083208a84526006928302016005018152604080842060020194909455338352522080548391908990811061187c57fe5b600091825260208083208a8452600560069093020182019052604090912001555060019695505050505050565b600160a060020a03841660009081526006602052604081208054829190869081106118d057fe5b9060005260206000209060060201600501600085815260200190815260200160002060040154118015611922575033600090815260036020908152604080832086845290915290205460ff1615156001145b151561192d57600080fd5b336000908152600360209081526040808320868452600101909152902082905561195985858585613249565b95945050505050565b336000908152600560205260408120600101548190819081906119859086612fac565b93509350935093509193509193565b3360009081526003602052604090206002015490565b336000908152600660205260408120805482918291899081106119c957fe5b60009182526020808320600692830201600301543384529190526040909120805491935090899081106119f857fe5b60009182526020808320600692830201600401805460010190819055338452919052604090912080549192509089908110611a2f57fe5b600091825260208083206006928302016003018054600181018255908452818420018490556040805160c0810182528b81528083018b90528082018a9052606081018790526080810186905260a081018990523385529290915290912080548a908110611a9857fe5b6000918252602080832094835260056006929092029094018101845260409182902083518155938301516001850155908201516002840155606082015160038401556080820151600484015560a0909101519101559695505050505050565b336000908152600660205260408120548210611b1257600080fd5b33600090815260066020526040902080546000198101908110611b3157fe5b6000918252602080832033845260069182905260409093208054919092029092019184908110611b5d57fe5b600091825260209091208254600690920201908155600180830154908201556002808301549082015560038083018054611b9a9284019190613816565b50600491820154910155336000908152600660205260409020805490611bc4906000198301613856565b50336000908152600660205260409020541515611c8d57600480546000198101908110611bed57fe5b6000918252602080832090910154338352600590915260409091206001015460048054600160a060020a03909316929091908110611c2757fe5b6000918252602090912001805473ffffffffffffffffffffffffffffffffffffffff1916600160a060020a03929092169190911790556004805490611c70906000198301613887565b50336000908152600560205260408120805460ff19168155600101555b506001919050565b60008054600160a060020a03163314611cad57600080fd5b60025460001015610c2f5750600254610c33565b336000908152600360208190526040909120015490565b336000908152600660205260408120805483908110611cf357fe5b600091825260209091206003600690920201015492915050565b3360009081526006602052604090205490565b600160a060020a03811660009081526007602052604081206003015460a860020a900460ff161515600114611d5457600080fd5b600160a060020a03821660009081526007602052604090206003808201805460ff1990811660011790915560069092018054909216179055611d95826132f6565b50611d9f826134f5565b50600192915050565b33600090815260066020526040812080548291829186908110611dc757fe5b6000918252602080832087845260069283020160050181526040808420600301543385529290915290912080549193509086908110611e0257fe5b60009182526020808320878452600692830201600590810182526040808520858155600181018690556002810186905560038101869055600481018690559091018490553384529190529020805486908110611e5a57fe5b6000918252602080832060069283020160030154338452919052604090912080549192509086908110611e8957fe5b906000526020600020906006020160030160018203815481101515611eaa57fe5b600091825260208083209091015433835260069091526040909120805487908110611ed157fe5b906000526020600020906006020160030183815481101515611eef57fe5b6000918252602080832090910192909255338152600690915260409020805486908110611f1857fe5b9060005260206000209060060201600301805480919060019003611f3c9190613887565b50600195945050505050565b60008054606091908190600160a060020a03163314611f6657600080fd5b6002548410611f7457600080fd5b6002805485908110611f8257fe5b9060005260206000209060020201600001600285815481101515611fa257fe5b600091825260209091206001600290920201015460ff166005811115611fc457fe5b6002805487908110611fd257fe5b906000526020600020906002020160010160019054906101000a9004600160a060020a0316828054600181600116156101000203166002900480601f01602080910402602001604051908101604052809291908181526020018280546001816001161561010002031660029004801561208c5780601f106120615761010080835404028352916020019161208c565b820191906000526020600020905b81548152906001019060200180831161206f57829003601f168201915b505050505092509250925092509193909250565b60008060008060008060006120b6338a8a610a3d565b959f949e50929c50909a509850965090945092505050565b60008054606091908190600160a060020a031633146120ec57600080fd5b600160a060020a0384166000908152600160208190526040909120015460a860020a900460ff16151561211e57600080fd5b600160a060020a03841660009081526001602081905260409091209081015460ff16600581111561214b57fe5b600160a060020a038681166000908152600160208181526040928390208201548654845160026101009583161586026000190190921691909104601f8101849004840282018401909552848152929004909316929091859183018282801561208c5780601f106120615761010080835404028352916020019161208c565b3360009081526007602052604081206003015460a860020a900460ff16151560011415612218573360009081526007602052604090206006015460ff16600581111561221157fe5b9050610c33565b33600090815260016020819052604090912081015460a860020a900460ff161515141561226157336000908152600160208190526040909120015460ff16600581111561221157fe5b6005612211565b600060013360009081526007602052604090206003015460ff16600181111561228d57fe5b1461229757600080fd5b3360009081526006602052604090208054849190869081106122b557fe5b6000918252602080832060069283020193909355338252909152604090208054839190869081106122e257fe5b60009182526020909120600160069092020101559392505050565b3360009081526003602052604081206002015481908190819081908190819081908190811061232b57600080fd5b336000908152600360208190526040909120015434101561234b57600080fd5b349750600096505b336000908152600360205260409020600201548710156126c0573360009081526003602052604081206002018054909190811061238c57fe5b60009182526020808320909101543383526003808352604080852083865260010190935291909220015490965060ff1615156126b55733600090815260036020908152604080832089845260019081018352818420805460028201549190920154600160a060020a031680865260069094529184208054919950919750919550908690811061241757fe5b600091825260208083208a8452600560069093020191909101905260409020600401541161244457600080fd5b600160a060020a038316600090815260066020526040902080548691908690811061246b57fe5b600091825260208083208a845260056006909302018201905260409091200154101561249657600080fd5b6001600160a060020a03841660009081526007602052604090206003015460ff1660018111156124c257fe5b146124cc57600080fd5b600160a060020a03831660009081526006602052604090208054859081106124f057fe5b90600052602060002090600602016005016000878152602001908152602001600020600201549150612522828661369d565b90508088101561253157600080fd5b61253b88826136c6565b3360009081526003602081815260408084208b855260019081018352818520909301805460ff1916909317909255600160a060020a038716835260069052902080549199506125a6918690811061258e57fe5b906000526020600020906006020160020154826136d8565b600160a060020a03841660009081526006602052604090208054869081106125ca57fe5b9060005260206000209060060201600201819055506126116007600085600160a060020a0316600160a060020a0316815260200190815260200160002060070154826136d8565b600160a060020a038416600090815260076020818152604080842090920193909355600690925220805461267091908690811061264a57fe5b600091825260208083208a845260056006909302018201905260409091200154866136c6565b600160a060020a038416600090815260066020526040902080548690811061269457fe5b600091825260208083208a8452600560069093020182019052604090912001555b600190960195612353565b60019850505050505050505090565b6060600660006004858154811015156126e457fe5b6000918252602080832090910154600160a060020a03168352820192909252604001902080548390811061175157fe5b600160a060020a03841660009081526006602052604081208054829182918790811061273c57fe5b906000526020600020906006020160050160008681526020019081526020016000206004015411801561278a575033600090815260036020908152604080832087845290915290205460ff16155b151561279557600080fd5b6001600160a060020a03871660009081526007602052604090206003015460ff1660018111156127c157fe5b146127cb57600080fd5b6003600033600160a060020a0316600160a060020a031681526020019081526020016000206002018054905090506003600033600160a060020a0316600160a060020a031681526020019081526020016000206002018490806001815401808255809150509060018203906000526020600020016000909192909190915055506040805190810160405280600115158152602001828152506003600033600160a060020a0316600160a060020a03168152602001908152602001600020600001600086815260200190815260200160002060008201518160000160006101000a81548160ff0219169083151502179055506020820151816001015590505060806040519081016040528084815260200187600160a060020a03168152602001868152602001600015158152506003600033600160a060020a0316600160a060020a0316815260200190815260200160002060010160008681526020019081526020016000206000820151816000015560208201518160010160006101000a815481600160a060020a030219169083600160a060020a031602179055506040820151816002015560608201518160030160006101000a81548160ff0219169083151502179055509050506129a0868686866136e5565b9695505050505050565b60006129b46138ab565b60013360009081526007602052604090206003015460ff1660018111156129d757fe5b146129e157600080fd5b83815260208082018481523360009081526006808452604080832080546001818101808455928652948790208851919094029093019283559351928201929092559084015160028201556060840151805192938593612a4692600385019201906138d8565b5060809190910151600490910155503360009081526005602052604090205460ff161515612af857604080518082018252600180825260048054602080850191825233600081815260059092529581209451855460ff1916901515178555905193830193909355805491820181559091527f8a35acfbc15ff81a39ae7d344fd709f28e8600b4aa8c65c6b64bfe7fe36bd19b01805473ffffffffffffffffffffffffffffffffffffffff191690911790555b50503360009081526006602052604090205492915050565b33600081815260036020818152604080842086855280835290842060010154948452919052600201805491929183918291829182916000198101908110612b5357fe5b600091825260208083209091015433835260039091526040909120600201805487908110612b7d57fe5b6000918252602080832090910192909255338152600390915260409020600201805490612bae906000198301613887565b506003600033600160a060020a0316600160a060020a0316815260200190815260200160002060010160008881526020019081526020016000206002015493506003600033600160a060020a0316600160a060020a0316815260200190815260200160002060010160008881526020019081526020016000206000015492506003600033600160a060020a0316600160a060020a031681526020019081526020016000206003015491506003600033600160a060020a0316600160a060020a0316815260200190815260200160002060010160008881526020019081526020016000206000808201600090556001820160006101000a815490600160a060020a03021916905560028201600090556003820160006101000a81549060ff021916905550506003600033600160a060020a0316600160a060020a031681526020019081526020016000206000016000888152602001908152602001600020600080820160006101000a81549060ff0219169055600182016000905550506006600033600160a060020a0316600160a060020a0316815260200190815260200160002084815481101515612d5c57fe5b90600052602060002090600602016005016000888152602001908152602001600020600201549050612d8f81848461376c565b33600090815260036020819052604090912001555060019695505050505050565b33600090815260036020908152604091829020600201805483518184028101840190945280845260609392830182828015612e0a57602002820191906000526020600020905b815481526020019060010190808311612df6575b5050505050905090565b60001990565b6000600160086101406040519081016040528087815260200186815260200185815260200160006001811115612e4c57fe5b8152336020820152600160408201526008546060820152608001612e6e612e14565b815260200160048152600060209182018190528354600181018086559482529082902083518051600890930290910192612ead9284929091019061379c565b506020828101518051612ec6926001850192019061379c565b5060408201518051612ee291600284019160209091019061379c565b50606082015160038201805460ff191660018381811115612eff57fe5b0217905550608082015160038201805460a085015174ffffffffffffffffffffffffffffffffffffffff0019909116610100600160a060020a0390941684021760a860020a60ff02191660a860020a9115159190910217905560c0830151600483015560e0830151600580840191909155908301516006830180549192909160ff1916906001908490811115612f9157fe5b02179055506101208201518160070155505050509392505050565b6000806000806000600487815481101515612fc357fe5b6000918252602080832090910154600160a060020a03168083526006909152604090912080549192509087908110612ff757fe5b6000918252602080832060069283020154600160a060020a0385168452919052604090912080548890811061302857fe5b60009182526020909120600160069092020101549098909795509350505050565b60008054600160a060020a0316331461306157600080fd5b60806040519081016040528085815260200183600581111561307f57fe5b600581111561308a57fe5b8152600160a060020a038516602080830182905260016040938401819052600092835281529190208251805191926130c79284929091019061379c565b50602082015160018083018054909160ff19909116908360058111156130e957fe5b021790555060408281015160019092018054606090940151151560a860020a0260a860020a60ff0219600160a060020a039094166101000274ffffffffffffffffffffffffffffffffffffffff001990951694909417929092169290921790558051608081019091528481526002906020810184600581111561316857fe5b600581111561317357fe5b8152600160a060020a038616602080830191909152600160409092018290528354918201808555600094855293819020835180516002909402909101926131bd928492019061379c565b50602082015160018083018054909160ff19909116908360058111156131df57fe5b0217905550604082015160019182018054606090940151151560a860020a0260a860020a60ff0219600160a060020a039093166101000274ffffffffffffffffffffffffffffffffffffffff00199095169490941791909116929092179091559150509392505050565b600160a060020a03841660009081526006602052604081208054829182918790811061327157fe5b6000918252602080832088845260056006909302019190910181526040808320600201543380855260038085528386208b875260018101865293862054919095529284905292015491935091506132cb908390839061376c565b33600090815260036020819052604090912001556132eb878787876136e5565b979650505050505050565b600160a060020a0381166000908152600760205260408120600401546000191261331f57600080fd5b60088054600019810190811061333157fe5b60009182526020808320600160a060020a03861684526007909152604090922060040154600880549281029093019291811061336957fe5b90600052602060002090600802016000820181600001908054600181600116156101000203166002900461339e929190613912565b50600182018160010190805460018160011615610100020316600290046133c6929190613912565b50600282810180546133eb928481019291600019610100600183161502011604613912565b50600382810154908201805460ff9092169160ff19166001838181111561340e57fe5b021790555060038281018054918301805474ffffffffffffffffffffffffffffffffffffffff00191661010093849004600160a060020a031690930292909217808355905460a860020a60ff021990911660a860020a9182900460ff9081161515909202179091556004808401549083015560058084015481840155600680850154908401805491909316929160ff199091169060019084908111156134b057fe5b02179055506007918201549101556134c6612e14565b600160a060020a0383166000908152600760205260409020600401556008805490611d9f906000198301613986565b60098054600160a060020a03831660009081526007602052604081206005810183905560018084018086559483528154929493919260089092027f6e1540171b6c0c960b71a7020d9f60077f6af931a8bbf590da0223dacf75c7af01916135749183918591600261010091831615919091026000190190911604613912565b506001820181600101908054600181600116156101000203166002900461359c929190613912565b50600282810180546135c1928481019291600019610100600183161502011604613912565b50600382810154908201805460ff9092169160ff1916600183818111156135e457fe5b021790555060038281018054918301805474ffffffffffffffffffffffffffffffffffffffff00191661010093849004600160a060020a031690930292909217808355905460a860020a60ff021990911660a860020a9182900460ff9081161515909202179091556004808401549083015560058084015481840155600680850154908401805491909316929160ff1990911690600190849081111561368657fe5b021790555060079182015491015550600192915050565b60008215156136ae575060006110cb565b508181028183828115156136be57fe5b04146110cb57fe5b6000828211156136d257fe5b50900390565b818101828110156110cb57fe5b33600090815260036020818152604080842090920154600160a060020a03881684526006909152908220805461374d9291908790811061372157fe5b906000526020600020906006020160050160008681526020019081526020016000206002015484613781565b3360009081526003602081905260409091200155506001949350505050565b60006116178261377c868661369d565b6136c6565b6000806000613790858561369d565b91506129a086836136d8565b828054600181600116156101000203166002900490600052602060002090601f016020900481019282601f106137dd57805160ff191683800117855561380a565b8280016001018555821561380a579182015b8281111561380a5782518255916020019190600101906137ef565b506114369291506139b2565b82805482825590600052602060002090810192821561380a5760005260206000209182015b8281111561380a57825482559160010191906001019061383b565b8154818355818111156138825760060281600602836000526020600020918201910161388291906139cc565b505050565b815481835581811115613882576000838152602090206138829181019083016139b2565b6040805160a081018252600080825260208201819052918101829052606080820152608081019190915290565b82805482825590600052602060002090810192821561380a579160200282018281111561380a5782518255916020019190600101906137ef565b828054600181600116156101000203166002900490600052602060002090601f016020900481019282601f1061394b578054855561380a565b8280016001018555821561380a57600052602060002091601f016020900482018281111561380a57825482559160010191906001019061383b565b815481835581811115613882576008028160080283600052602060002091820191016138829190613a0a565b610c3391905b8082111561143657600081556001016139b8565b610c3391905b8082111561143657600080825560018201819055600282018190556139fa6003830182613a8b565b50600060048201556006016139d2565b610c3391905b80821115611436576000613a248282613aac565b613a32600183016000613aac565b613a40600283016000613aac565b5060038101805475ffffffffffffffffffffffffffffffffffffffffffff191690556000600482018190556005820181905560068201805460ff191690556007820155600801613a10565b5080546000825590600052602060002090810190613aa991906139b2565b50565b50805460018160011615610100020316600290046000825580601f10613ad25750613aa9565b601f016020900490600052602060002090810190613aa991906139b25600a165627a7a72305820f486e98ec7d06aaeb50b2fd0d2e65f469a4b311a4f7ce6fc4cad43d065d732da0029",
  "source": "pragma solidity ^0.4.18;\nimport \"./StoreManager.sol\";\nimport \"./ProductManager.sol\";\nimport './UserManager.sol';\nimport \"./Ownerble.sol\";\nimport \"./ShoppingCartManager.sol\";\nimport \"./Withdrawable.sol\";\n\ncontract MarketPlace is Ownerble, StoreManager, ProductManager,\nUserManager, ShoppingCartManager, Withdrawable {\n    \n    \n}\n\n",
  "sourcePath": "/Users/yusufkelo/Documents/DEVELOPER/ETHEREAUM/blockchain-market/market-place/contracts/MarketPlace.sol",
  "compiler": {
    "name": "solc",
    "version": "0.4.24+commit.e67f0147.Emscripten.clang"
  },
  "schemaVersion": "2.0.0",
  "updatedAt": "2018-08-11T15:48:21.117Z"
}