{
  "contractName": "OrderHistory",
  "abi": [
    {
      "constant": true,
      "inputs": [
        {
          "name": "",
          "type": "address"
        }
      ],
      "name": "customerOrdersCount",
      "outputs": [
        {
          "name": "",
          "type": "uint256"
        }
      ],
      "payable": false,
      "stateMutability": "view",
      "type": "function"
    },
    {
      "constant": true,
      "inputs": [
        {
          "name": "",
          "type": "address"
        },
        {
          "name": "",
          "type": "address"
        }
      ],
      "name": "allowance",
      "outputs": [
        {
          "name": "",
          "type": "uint256"
        }
      ],
      "payable": false,
      "stateMutability": "view",
      "type": "function"
    },
    {
      "inputs": [],
      "payable": false,
      "stateMutability": "nonpayable",
      "type": "constructor"
    },
    {
      "constant": false,
      "inputs": [
        {
          "name": "orderId",
          "type": "uint256"
        },
        {
          "name": "grandTotal",
          "type": "uint256"
        },
        {
          "name": "paymentMethod",
          "type": "uint256"
        }
      ],
      "name": "createOrderHistory",
      "outputs": [
        {
          "name": "",
          "type": "bool"
        }
      ],
      "payable": false,
      "stateMutability": "nonpayable",
      "type": "function"
    },
    {
      "constant": true,
      "inputs": [
        {
          "name": "orderId",
          "type": "uint256"
        }
      ],
      "name": "getOrderHistory",
      "outputs": [
        {
          "name": "",
          "type": "uint256"
        },
        {
          "name": "",
          "type": "uint256"
        }
      ],
      "payable": false,
      "stateMutability": "view",
      "type": "function"
    },
    {
      "constant": false,
      "inputs": [],
      "name": "incrementCustomerOrdersHistory",
      "outputs": [
        {
          "name": "",
          "type": "uint256"
        }
      ],
      "payable": false,
      "stateMutability": "nonpayable",
      "type": "function"
    },
    {
      "constant": true,
      "inputs": [],
      "name": "getCustomerOrdersHistoryCount",
      "outputs": [
        {
          "name": "",
          "type": "uint256"
        }
      ],
      "payable": false,
      "stateMutability": "view",
      "type": "function"
    },
    {
      "constant": false,
      "inputs": [
        {
          "name": "orderId",
          "type": "uint256"
        },
        {
          "name": "productId",
          "type": "uint256"
        },
        {
          "name": "price",
          "type": "uint256"
        },
        {
          "name": "quantity",
          "type": "uint256"
        },
        {
          "name": "totalItemsPrice",
          "type": "uint256"
        },
        {
          "name": "vendorAccount",
          "type": "address"
        },
        {
          "name": "storeIndex",
          "type": "uint256"
        },
        {
          "name": "paymentMethod",
          "type": "uint256"
        }
      ],
      "name": "addTransaction",
      "outputs": [
        {
          "name": "",
          "type": "bool"
        }
      ],
      "payable": false,
      "stateMutability": "nonpayable",
      "type": "function"
    },
    {
      "constant": true,
      "inputs": [
        {
          "name": "orderId",
          "type": "uint256"
        },
        {
          "name": "transactionIndex",
          "type": "uint256"
        }
      ],
      "name": "getOrderTransaction",
      "outputs": [
        {
          "name": "",
          "type": "bytes32"
        },
        {
          "name": "",
          "type": "uint256"
        },
        {
          "name": "",
          "type": "uint256"
        },
        {
          "name": "",
          "type": "address"
        },
        {
          "name": "",
          "type": "bytes32"
        },
        {
          "name": "",
          "type": "uint256"
        }
      ],
      "payable": false,
      "stateMutability": "view",
      "type": "function"
    },
    {
      "constant": true,
      "inputs": [
        {
          "name": "orderId",
          "type": "uint256"
        }
      ],
      "name": "getOrderTransactionsCount",
      "outputs": [
        {
          "name": "",
          "type": "uint256"
        }
      ],
      "payable": false,
      "stateMutability": "view",
      "type": "function"
    }
  ],
  "bytecode": "0x608060405234801561001057600080fd5b50610621806100206000396000f3006080604052600436106100985763ffffffff7c010000000000000000000000000000000000000000000000000000000060003504166320561e78811461009d57806331becb99146100e75780635fb973761461010e5780638a3046ba1461013f578063b75ed54514610160578063bfd951931461017e578063dd62ed3e14610193578063e16002b1146101ba578063eba1160914610210575b600080fd5b3480156100a957600080fd5b506100d3600435602435604435606435608435600160a060020a0360a4351660c43560e435610228565b604080519115158252519081900360200190f35b3480156100f357600080fd5b506100fc610387565b60408051918252519081900360200190f35b34801561011a57600080fd5b5061012660043561039a565b6040805192835260208301919091528051918290030190f35b34801561014b57600080fd5b506100fc600160a060020a03600435166103c2565b34801561016c57600080fd5b506100d36004356024356044356103d4565b34801561018a57600080fd5b506100fc610407565b34801561019f57600080fd5b506100fc600160a060020a0360043581169060243516610422565b3480156101c657600080fd5b506101d560043560243561043f565b60408051968752602087019590955285850193909352600160a060020a039091166060850152608084015260a0830152519081900360c00190f35b34801561021c57600080fd5b506100fc6004356105d8565b3360009081526006602090815260408083208b845282528083208151610100810183528b8152600160a060020a038816855260038452918420805491938301918790811061027257fe5b600091825260208083208e8452600560069093020191909101815260408083205484528382018c90528381018d9052606084018b9052600160a060020a038a1660808501819052835260039091529020805460a090920191879081106102d457fe5b6000918252602080832060069283020154845292830196909652835460018082018655948252908290208351600890920201908155908201518184015560408201516002820155606082015160038201556080820151600482015560a082015160058201805473ffffffffffffffffffffffffffffffffffffffff1916600160a060020a0390921691909117905560c08201519481019490945560e0015160079093019290925550979650505050505050565b3360009081526005602052604090205490565b3360009081526006602090815260408083209383529290522060018101546002909101549091565b60056020526000908152604090205481565b33600090815260066020908152604080832095835294905292909220426001808301919091556002909101929092555090565b33600090815260056020526040902080546001019081905590565b600460209081526000928352604080842090915290825290205481565b3360009081526006602090815260408083208584529091528120805482918291829182918291908890811061047057fe5b60009182526020808320600160089093020191909101543383526006825260408084208c855290925291208054899081106104a757fe5b60009182526020808320600260089093020191909101543383526006825260408084208d8552909252912080548a9081106104de57fe5b60009182526020808320600360089093020191909101543383526006825260408084208e8552909252912080548b90811061051557fe5b60009182526020808320600560089093020191909101543383526006825260408084208f855290925291208054600160a060020a03909216918c90811061055857fe5b9060005260206000209060080201600601546006600033600160a060020a0316600160a060020a0316815260200190815260200160002060008e81526020019081526020016000206000018c8154811015156105b057fe5b9060005260206000209060080201600701549550955095509550955095509295509295509295565b3360009081526006602090815260408083209383529290522054905600a165627a7a723058205c9444c5e9b4a092cdf369a7f033d7b651e3917a8e10d119df453ffb9d7e988e0029",
  "source": "pragma solidity 0.4.24;\nimport \"./StoreBase.sol\";\n\ncontract OrderHistory is StoreBase{\n    \n \n    constructor() public {\n         \n    }\n    \n      /**\n      * @dev CREATES ORDER HISTORY\n      * @param orderId Id of order\n      * @param grandTotal total order price\n      * @param paymentMethod payment method used by customer\n      * @return bool \n      */\n    function createOrderHistory(uint256 orderId, uint grandTotal, \n        uint256 paymentMethod) public returns(bool) {\n         orderHistory[msg.sender][orderId].timeStamp = now;\n         orderHistory[msg.sender][orderId].grandTotal = grandTotal;\n         orderHistory[msg.sender][orderId].grandTotal = paymentMethod;\n         return true;\n    }\n    \n       /**\n      * @dev RETURNS THE ORDER HISTORY BY ORDER ID\n      * @param orderId Id of order\n      * @return timeStamp order timestamp\n      * @return grandTotal order grand total price\n      */\n    function getOrderHistory(uint orderId) public view returns(uint256, uint256){\n         return (\n               orderHistory[msg.sender][orderId].timeStamp,\n               orderHistory[msg.sender][orderId].grandTotal\n             );   \n    }\n    \n      /**\n      * @dev GENERATES ORDER HISTORY ID\n      * @return uint256 next item id\n      */\n    function incrementCustomerOrdersHistory() public  returns(uint256){\n         \n        customerOrdersCount[msg.sender]= ++customerOrdersCount[msg.sender];\n         return  customerOrdersCount[msg.sender];\n    }\n\n    /**\n      * @dev RETURNS ORDER HISTORY COUNT FOR A PARTICULAR ADDRESS\n      * @return uint256 count of order history\n      */\n     function getCustomerOrdersHistoryCount() public view returns(uint256){\n         \n         return  customerOrdersCount[msg.sender];\n    }\n\n       /**\n      * @dev ADDS A TRANSACTION TO AN ORDER HISTORY\n      * @param orderId Id of order\n      * @param productId Id of product\n      * @param price price of product\n      * @param quantity quantity of product\n      * @param totalItemsPrice total Price of product\n      * @param vendorAccount vendor acoount\n      * @param storeIndex index of store in array\n      * @param paymentMethod payment method\n      * @return bool \n      */\n    function addTransaction(\n      uint orderId,\n      uint256 productId,\n      uint price,\n      uint quantity,\n      uint256 totalItemsPrice,\n      address vendorAccount, \n      uint256 storeIndex,\n      uint256 paymentMethod\n      ) public returns(bool) {\n       \n     \n        orderHistory[msg.sender][orderId].transactions.push(TransactionHistory(\n            productId,\n            stores[vendorAccount][storeIndex].products[productId].name,\n            quantity,\n            price,\n            totalItemsPrice,\n            vendorAccount,\n            stores[vendorAccount][storeIndex].name,\n            paymentMethod\n            ));\n        \n \n        return true;\n    }\n    \n     /**\n      * @dev  RETURNS A ORDER TRANSACTION\n      * @param orderId Id of order\n      * @param transactionIndex index of the transaction\n      * @return productName name of product\n      * @return quantity of product\n      * @return price of product\n      * @return vendor owner of store\n      * @return storeName name of store\n      * @return paymentMethod payment method \n      */\n    function getOrderTransaction(uint256 orderId, uint transactionIndex) public view returns( bytes32, uint256, uint256, address, bytes32, uint256) {\n        \n        return(\n             orderHistory[msg.sender][orderId].transactions[transactionIndex].productName,\n             orderHistory[msg.sender][orderId].transactions[transactionIndex].quantity,\n             orderHistory[msg.sender][orderId].transactions[transactionIndex].price,\n             orderHistory[msg.sender][orderId].transactions[transactionIndex].vendor,\n             orderHistory[msg.sender][orderId].transactions[transactionIndex].storeName,\n             orderHistory[msg.sender][orderId].transactions[transactionIndex].paymentMethod\n        );\n    }\n      /**\n      * @dev  RETURNS THE NUMBER OF TRANSACTIONS / PRODUCTS IN AN ORDER\n      * @return uint256 count of order history   \n      */\n     function getOrderTransactionsCount(uint256 orderId) public view returns(uint256) {\n        return orderHistory[msg.sender][orderId].transactions.length;\n    }\n  \n  \n    \n}",
  "sourcePath": "/home/yusuf/Documents/DEVELOPER/PROJECTS/truffle/marketplace/Blockchain-Market-Place/contracts/OrderHistory.sol",
  "compiler": {
    "name": "solc",
    "version": "0.4.24+commit.e67f0147.Emscripten.clang"
  },
  "schemaVersion": "2.0.1",
  "updatedAt": "2018-08-27T04:26:05.923Z"
}