{
  "contractName": "ProductManager",
  "abi": [
    {
      "constant": true,
      "inputs": [
        {
          "name": "storeIndex",
          "type": "uint256"
        }
      ],
      "name": "getProductsIds",
      "outputs": [
        {
          "name": "",
          "type": "uint256[]"
        }
      ],
      "payable": false,
      "stateMutability": "view",
      "type": "function"
    },
    {
      "constant": true,
      "inputs": [
        {
          "name": "storeIndex",
          "type": "uint256"
        }
      ],
      "name": "getProductsCount",
      "outputs": [
        {
          "name": "",
          "type": "uint256"
        }
      ],
      "payable": false,
      "stateMutability": "view",
      "type": "function"
    },
    {
      "constant": true,
      "inputs": [
        {
          "name": "storeIndex",
          "type": "uint256"
        },
        {
          "name": "productId",
          "type": "uint256"
        }
      ],
      "name": "getProduct",
      "outputs": [
        {
          "name": "",
          "type": "bytes32"
        },
        {
          "name": "",
          "type": "bytes32"
        },
        {
          "name": "",
          "type": "uint256"
        },
        {
          "name": "",
          "type": "uint256"
        },
        {
          "name": "",
          "type": "uint256"
        }
      ],
      "payable": false,
      "stateMutability": "view",
      "type": "function"
    },
    {
      "constant": false,
      "inputs": [
        {
          "name": "storeIndex",
          "type": "uint256"
        },
        {
          "name": "productName",
          "type": "bytes32"
        },
        {
          "name": "description",
          "type": "bytes32"
        },
        {
          "name": "price",
          "type": "uint256"
        }
      ],
      "name": "createProduct",
      "outputs": [
        {
          "name": "",
          "type": "uint256"
        }
      ],
      "payable": false,
      "stateMutability": "nonpayable",
      "type": "function"
    },
    {
      "constant": false,
      "inputs": [
        {
          "name": "storeIndex",
          "type": "uint256"
        },
        {
          "name": "productId",
          "type": "uint256"
        },
        {
          "name": "productName",
          "type": "bytes32"
        },
        {
          "name": "description",
          "type": "bytes32"
        },
        {
          "name": "price",
          "type": "uint256"
        }
      ],
      "name": "editProduct",
      "outputs": [
        {
          "name": "",
          "type": "bool"
        }
      ],
      "payable": false,
      "stateMutability": "nonpayable",
      "type": "function"
    },
    {
      "constant": false,
      "inputs": [
        {
          "name": "storeIndex",
          "type": "uint256"
        },
        {
          "name": "productId",
          "type": "uint256"
        }
      ],
      "name": "deleteProduct",
      "outputs": [
        {
          "name": "",
          "type": "bool"
        }
      ],
      "payable": false,
      "stateMutability": "nonpayable",
      "type": "function"
    }
  ],
  "bytecode": "0x608060405234801561001057600080fd5b50610752806100206000396000f3006080604052600436106100775763ffffffff7c010000000000000000000000000000000000000000000000000000000060003504166324f346ab811461007c57806326614a7e146100c25780634406788e146100f557806360b6fcd71461012d578063892c45f914610195578063a1c48cc4146101ad575b600080fd5b34801561008857600080fd5b506100976004356024356101c8565b6040805195865260208601949094528484019290925260608401526080830152519081900360a00190f35b3480156100ce57600080fd5b506100e3600435602435604435606435610290565b60408051918252519081900360200190f35b34801561010157600080fd5b506101196004356024356044356064356084356103c4565b604080519115158252519081900360200190f35b34801561013957600080fd5b50610145600435610488565b60408051602080825283518183015283519192839290830191858101910280838360005b83811015610181578181015183820152602001610169565b505050509050019250505060405180910390f35b3480156101a157600080fd5b506100e360043561050e565b3480156101b957600080fd5b50610119600435602435610543565b33600090815260208190526040812080548291829182918291889081106101eb57fe5b6000918252602080832089845260056006909302019190910181526040808320543384529183905290912080548990811061022257fe5b600091825260208083208a845260056006909302019190910181526040808320600101543384529183905290912080548a90811061025c57fe5b600091825260208083208b845260056006909302019190910190526040902060020154919990989197965090945092505050565b336000908152602081905260408120805482918291889081106102af57fe5b6000918252602080832060036006909302019190910154338352908290526040909120805491935090889081106102e257fe5b600091825260208083206004600690930201919091018054600101908190553383529082905260409091208054919250908890811061031d57fe5b6000918252602080832060036006909302019190910180546001810182559083528183200183905560408051608081018252898152808301899052808201889052606081018690523384529183905290912080548990811061037b57fe5b6000918252602080832094835260069190910290930160050183526040908190208251815592820151600184015581015160028301556060015160039091015595945050505050565b3360009081526020819052604081208054859190889081106103e257fe5b6000918252602080832089845260056006909302019190910181526040808320939093553382528190522080548491908890811061041c57fe5b6000918252602080832089845260056006909302019190910181526040808320600101939093553382528190522080548391908890811061045957fe5b600091825260208083208984526005600690930201919091019052604090206002015550600195945050505050565b336000908152602081905260409020805460609190839081106104a757fe5b906000526020600020906006020160030180548060200260200160405190810160405280929190818152602001828054801561050257602002820191906000526020600020905b8154815260200190600101908083116104ee575b50505050509050919050565b33600090815260208190526040812080548390811061052957fe5b600091825260209091206003600690920201015492915050565b3360009081526020819052604081208054829182918690811061056257fe5b60009182526020808320878452600560069093020191909101815260408083206003015433845291839052909120805491935090869081106105a057fe5b600091825260208083208784526005600690930201919091018152604080832083815560018101849055600281018490556003018390553383529082905290208054869081106105ec57fe5b60009182526020808320600360069093020191909101543383529082905260409091208054919250908690811061061f57fe5b90600052602060002090600602016003016001820381548110151561064057fe5b600091825260208083209091015433835290829052604090912080548790811061066657fe5b90600052602060002090600602016003018381548110151561068457fe5b600091825260208083209091019290925533815290819052604090208054869081106106ac57fe5b90600052602060002090600602016003018054809190600190036106d091906106dc565b50600195945050505050565b81548183558181111561070057600083815260209020610700918101908301610705565b505050565b61072391905b8082111561071f576000815560010161070b565b5090565b905600a165627a7a72305820cc720d7b5a7d7d1d7b466dd3beb92e46b3963b7a77da618c62cd3ba02f9f03ee0029",
  "source": "pragma solidity ^0.4.18;\nimport \"./StoreBase.sol\";\n\ncontract ProductManager is StoreBase {\n   \n    \n    function getProductsIds(uint storeIndex) public view returns(uint[]) {\n        return (\n          stores[msg.sender][storeIndex].productIds    \n        );\n    }\n    \n    function getProductsCount(uint storeIndex) public view returns(uint) {\n        return (\n          stores[msg.sender][storeIndex].productIds.length    \n        );\n    }\n    function getProduct(uint storeIndex, uint productId) public constant returns(bytes32, bytes32, uint, uint, uint) {\n          \n         // require(storeIndex < stores[msg.sender].length && productIndex < stores[msg.sender][storeIndex].products.length, \"PRODUCT INDEX DOES NOT EXIST\");\n            \n          return (\n                 stores[msg.sender][storeIndex].products[productId].name,\n                 stores[msg.sender][storeIndex].products[productId].description,\n                 stores[msg.sender][storeIndex].products[productId].price,\n                 productId,\n                 storeIndex\n                 \n              );\n        }\n        \n    \n    function createProduct(uint storeIndex,bytes32 productName, bytes32 description, uint price) public returns(uint) {\n         \n          //INCREMENT PRODUCT ID\n          uint productIdSlot = stores[msg.sender][storeIndex].productIds.length;\n        \n          uint productId =  ++stores[msg.sender][storeIndex].productIdIncrement;\n        \n        \n          //SAVE PRODUCT ID TO STORE\n         stores[msg.sender][storeIndex].productIds.push(productId);\n            //CREATE PRODUCT\n          stores[msg.sender][storeIndex].products[productId] = Product(productName, description, price, productIdSlot);\n          \n          return productIdSlot;\n    }\n    \n      function editProduct(uint storeIndex, uint productId, bytes32 productName, bytes32 description, uint price) public  returns(bool) {\n        \n         stores[msg.sender][storeIndex].products[productId].name = productName;\n         stores[msg.sender][storeIndex].products[productId].description = description;\n         stores[msg.sender][storeIndex].products[productId].price = price;\n         \n         return true;\n    }\n    \n    \n     function deleteProduct(uint storeIndex, uint productId) public returns(bool) {\n          //require(storeIndex < stores[msg.sender].length && productIndex_to_delete < stores[msg.sender][storeIndex].products.length);\n\n          //DELETE PRODUCT\n          uint productIdIndex = stores[msg.sender][storeIndex].products[productId].productIdSlot;\n          \n          delete stores[msg.sender][storeIndex].products[productId];\n          \n          //GET PRODUCT IDS LIST  LENGTH \n           uint productsLength = stores[msg.sender][storeIndex].productIds.length;\n          //copy the last product to the index of the product to remove\n          stores[msg.sender][storeIndex].productIds[productIdIndex] = stores[msg.sender][storeIndex].productIds[productsLength - 1];\n          stores[msg.sender][storeIndex].productIds.length --;\n          \n          return true;\n    } \n}\n\n",
  "sourcePath": "/Users/yusufkelo/Documents/DEVELOPER/ETHEREAUM/blockchain-market/market-place/contracts/ProductManager.sol",
  "compiler": {
    "name": "solc",
    "version": "0.4.24+commit.e67f0147.Emscripten.clang"
  },
  "schemaVersion": "2.0.0",
  "updatedAt": "2018-08-03T21:31:12.616Z"
}