{
  "contractName": "ProductManager",
  "abi": [
    {
      "constant": true,
      "inputs": [],
      "name": "getVendorBalance",
      "outputs": [
        {
          "name": "",
          "type": "uint256"
        }
      ],
      "payable": false,
      "stateMutability": "view",
      "type": "function"
    },
    {
      "constant": true,
      "inputs": [
        {
          "name": "",
          "type": "address"
        }
      ],
      "name": "customerOrdersCount",
      "outputs": [
        {
          "name": "",
          "type": "uint256"
        }
      ],
      "payable": false,
      "stateMutability": "view",
      "type": "function"
    },
    {
      "constant": true,
      "inputs": [
        {
          "name": "",
          "type": "address"
        },
        {
          "name": "",
          "type": "address"
        }
      ],
      "name": "allowance",
      "outputs": [
        {
          "name": "",
          "type": "uint256"
        }
      ],
      "payable": false,
      "stateMutability": "view",
      "type": "function"
    },
    {
      "anonymous": false,
      "inputs": [
        {
          "indexed": false,
          "name": "productId",
          "type": "uint256"
        },
        {
          "indexed": false,
          "name": "productIdSlot",
          "type": "uint256"
        }
      ],
      "name": "ProductCreated",
      "type": "event"
    },
    {
      "anonymous": false,
      "inputs": [
        {
          "indexed": false,
          "name": "productId",
          "type": "uint256"
        }
      ],
      "name": "ProductUpdated",
      "type": "event"
    },
    {
      "anonymous": false,
      "inputs": [
        {
          "indexed": false,
          "name": "productId",
          "type": "uint256"
        }
      ],
      "name": "ProductDeleted",
      "type": "event"
    },
    {
      "anonymous": false,
      "inputs": [
        {
          "indexed": false,
          "name": "imageHash",
          "type": "string"
        },
        {
          "indexed": false,
          "name": "storeIndex",
          "type": "uint256"
        },
        {
          "indexed": false,
          "name": "productId",
          "type": "uint256"
        }
      ],
      "name": "ImageUpdated",
      "type": "event"
    },
    {
      "constant": true,
      "inputs": [
        {
          "name": "storeIndex",
          "type": "uint256"
        }
      ],
      "name": "getProductsIdsVendor",
      "outputs": [
        {
          "name": "",
          "type": "uint256[]"
        }
      ],
      "payable": false,
      "stateMutability": "view",
      "type": "function"
    },
    {
      "constant": true,
      "inputs": [
        {
          "name": "accountIndex",
          "type": "uint256"
        },
        {
          "name": "storeIndex",
          "type": "uint256"
        }
      ],
      "name": "getProductsIdsCustomer",
      "outputs": [
        {
          "name": "",
          "type": "uint256[]"
        }
      ],
      "payable": false,
      "stateMutability": "view",
      "type": "function"
    },
    {
      "constant": true,
      "inputs": [
        {
          "name": "account",
          "type": "address"
        },
        {
          "name": "storeIndex",
          "type": "uint256"
        }
      ],
      "name": "getProductsIds",
      "outputs": [
        {
          "name": "",
          "type": "uint256[]"
        }
      ],
      "payable": false,
      "stateMutability": "view",
      "type": "function"
    },
    {
      "constant": true,
      "inputs": [
        {
          "name": "storeIndex",
          "type": "uint256"
        }
      ],
      "name": "getProductsCount",
      "outputs": [
        {
          "name": "",
          "type": "uint256"
        }
      ],
      "payable": false,
      "stateMutability": "view",
      "type": "function"
    },
    {
      "constant": true,
      "inputs": [
        {
          "name": "storeIndex",
          "type": "uint256"
        },
        {
          "name": "productId",
          "type": "uint256"
        }
      ],
      "name": "getProductVendor",
      "outputs": [
        {
          "name": "",
          "type": "bytes32"
        },
        {
          "name": "",
          "type": "bytes32"
        },
        {
          "name": "",
          "type": "uint256"
        },
        {
          "name": "",
          "type": "uint256"
        },
        {
          "name": "",
          "type": "uint256"
        },
        {
          "name": "",
          "type": "string"
        },
        {
          "name": "",
          "type": "address"
        },
        {
          "name": "",
          "type": "uint256"
        }
      ],
      "payable": false,
      "stateMutability": "view",
      "type": "function"
    },
    {
      "constant": true,
      "inputs": [
        {
          "name": "accountIndex",
          "type": "uint256"
        },
        {
          "name": "storeIndex",
          "type": "uint256"
        },
        {
          "name": "productId",
          "type": "uint256"
        }
      ],
      "name": "getProductCustomer",
      "outputs": [
        {
          "name": "",
          "type": "bytes32"
        },
        {
          "name": "",
          "type": "bytes32"
        },
        {
          "name": "",
          "type": "uint256"
        },
        {
          "name": "",
          "type": "uint256"
        },
        {
          "name": "",
          "type": "string"
        },
        {
          "name": "",
          "type": "address"
        },
        {
          "name": "",
          "type": "uint256"
        }
      ],
      "payable": false,
      "stateMutability": "view",
      "type": "function"
    },
    {
      "constant": true,
      "inputs": [
        {
          "name": "storeIndex",
          "type": "uint256"
        },
        {
          "name": "productId",
          "type": "uint256"
        }
      ],
      "name": "getProductQuantity",
      "outputs": [
        {
          "name": "",
          "type": "uint256"
        }
      ],
      "payable": false,
      "stateMutability": "view",
      "type": "function"
    },
    {
      "constant": false,
      "inputs": [
        {
          "name": "imageHash",
          "type": "string"
        },
        {
          "name": "storeIndex",
          "type": "uint256"
        },
        {
          "name": "productId",
          "type": "uint256"
        }
      ],
      "name": "updateProductImage",
      "outputs": [
        {
          "name": "",
          "type": "bool"
        }
      ],
      "payable": false,
      "stateMutability": "nonpayable",
      "type": "function"
    },
    {
      "constant": false,
      "inputs": [
        {
          "name": "storeIndex",
          "type": "uint256"
        },
        {
          "name": "productName",
          "type": "bytes32"
        },
        {
          "name": "description",
          "type": "bytes32"
        },
        {
          "name": "price",
          "type": "uint256"
        },
        {
          "name": "quantity",
          "type": "uint256"
        },
        {
          "name": "priceInSpinelToken",
          "type": "uint256"
        }
      ],
      "name": "createProduct",
      "outputs": [
        {
          "name": "",
          "type": "uint256"
        }
      ],
      "payable": false,
      "stateMutability": "nonpayable",
      "type": "function"
    },
    {
      "constant": false,
      "inputs": [
        {
          "name": "storeIndex",
          "type": "uint256"
        },
        {
          "name": "productId",
          "type": "uint256"
        },
        {
          "name": "productName",
          "type": "bytes32"
        },
        {
          "name": "description",
          "type": "bytes32"
        },
        {
          "name": "price",
          "type": "uint256"
        },
        {
          "name": "quantity",
          "type": "uint256"
        },
        {
          "name": "priceInSpinelToken",
          "type": "uint256"
        }
      ],
      "name": "editProduct",
      "outputs": [
        {
          "name": "",
          "type": "bool"
        }
      ],
      "payable": false,
      "stateMutability": "nonpayable",
      "type": "function"
    },
    {
      "constant": false,
      "inputs": [
        {
          "name": "storeIndex",
          "type": "uint256"
        },
        {
          "name": "productId",
          "type": "uint256"
        }
      ],
      "name": "deleteProduct",
      "outputs": [
        {
          "name": "",
          "type": "bool"
        }
      ],
      "payable": false,
      "stateMutability": "nonpayable",
      "type": "function"
    }
  ],
  "bytecode": "0x608060405261001564010000000061001a810204565b61002e565b60008054600160a060020a03191633179055565b6113d78061003d6000396000f3006080604052600436106100cf5763ffffffff7c01000000000000000000000000000000000000000000000000000000006000350416631897955981146100d45780631f0883651461013c57806336bbb03c146101755780635ce9ae53146102455780636e91c6b814610269578063892c45f91461027e5780638a3046ba146102965780639042c70e146102b7578063a1c48cc41461032d578063ab7f603f14610348578063d1dfaa3e1461041e578063d604362d14610439578063dd62ed3e14610463578063f8127a881461048a575b600080fd5b3480156100e057600080fd5b506100ec6004356104a5565b60408051602080825283518183015283519192839290830191858101910280838360005b83811015610128578181015183820152602001610110565b505050509050019250505060405180910390f35b34801561014857600080fd5b5061016360043560243560443560643560843560a4356104b7565b60408051918252519081900360200190f35b34801561018157600080fd5b506101936004356024356044356106e9565b60408051888152602080820189905291810187905260608101869052600160a060020a03841660a082015260c0810183905260e06080820181815286519183019190915285519192909161010084019187019080838360005b838110156102045781810151838201526020016101ec565b50505050905090810190601f1680156102315780820380516001836020036101000a031916815260200191505b509850505050505050505060405180910390f35b34801561025157600080fd5b506100ec600160a060020a0360043516602435610921565b34801561027557600080fd5b506101636109b1565b34801561028a57600080fd5b506101636004356109f8565b3480156102a257600080fd5b50610163600160a060020a0360043516610a2d565b3480156102c357600080fd5b506040805160206004803580820135601f8101849004840285018401909552848452610319943694929360249392840191908190840183828082843750949750508435955050506020909201359150610a3f9050565b604080519115158252519081900360200190f35b34801561033957600080fd5b50610319600435602435610b75565b34801561035457600080fd5b50610363600435602435610dd1565b6040805189815260208082018a90529181018890526060810187905260808101869052600160a060020a03841660c082015260e0810183905261010060a0820181815286519183019190915285519192909161012084019187019080838360005b838110156103dc5781810151838201526020016103c4565b50505050905090810190601f1680156104095780820380516001836020036101000a031916815260200191505b50995050505050505050505060405180910390f35b34801561042a57600080fd5b506100ec600435602435611019565b34801561044557600080fd5b5061031960043560243560443560643560843560a43560c43561105e565b34801561046f57600080fd5b50610163600160a060020a0360043581169060243516611243565b34801561049657600080fd5b50610163600435602435611260565b60606104b13383610921565b92915050565b6000808060013360009081526008602052604090206003015460ff1660018111156104de57fe5b146104e857600080fd5b3360009081526004602052604081205411801561051357503360009081526004602052604090205489105b151561051e57600080fd5b33600090815260046020526040902080548a90811061053957fe5b6000918252602080832060036006909302019190910154338352600490915260409091208054919350908a90811061056d57fe5b600091825260208083206004600690930201820180546001019081905533845291905260409091208054919250908a9081106105a557fe5b6000918252602080832060036006909302019190910180546001810182559083528183200183905560408051610100810182528b81528083018b90528082018a9052606081018690526080810185905260a0810189905260c081018890528151808401835284815260e0820152338452600490925290912080548b90811061062957fe5b600091825260208083208584526006928302016005908101825260409384902085518155858301516001820155938501516002850155606085015160038501556080850151600485015560a08501519084015560c08401519183019190915560e0830151805161069f92600785019201906112a3565b5050604080518381526020810185905281517f2a60815e9d2622a909b3c2b731fa879a529c93b5fecdb1cfea183695707572cc93509081900390910190a150979650505050505050565b6000806000806060600080600060028b81548110151561070557fe5b6000918252602080832090910154600160a060020a0316808352600490915260409091208054919250908b90811061073957fe5b600091825260208083208c84526005600690930201919091018152604080832054600160a060020a0385168452600490925290912080548c90811061077a57fe5b600091825260208083208d84526005600690930201919091018152604080832060010154600160a060020a0386168452600490925290912080548d9081106107be57fe5b600091825260208083208e84526005600690930201919091018152604080832060020154600160a060020a0387168452600490925290912080548e90811061080257fe5b600091825260208083208f84526006928302016005018152604080842090920154600160a060020a03881684526004909152912080548f90811061084257fe5b906000526020600020906006020160050160008e8152602001908152602001600020600701858e828054600181600116156101000203166002900480601f0160208091040260200160405190810160405280929190818152602001828054600181600116156101000203166002900480156108fe5780601f106108d3576101008083540402835291602001916108fe565b820191906000526020600020905b8154815290600101906020018083116108e157829003601f168201915b505050505092509750975097509750975097509750509397509397509397909450565b600160a060020a03821660009081526004602052604090208054606091908390811061094957fe5b90600052602060002090600602016003018054806020026020016040519081016040528092919081815260200182805480156109a457602002820191906000526020600020905b815481526020019060010190808311610990575b5050505050905092915050565b600060013360009081526008602052604090206003015460ff1660018111156109d657fe5b146109e057600080fd5b50336000908152600860205260409020600701545b90565b336000908152600460205260408120805483908110610a1357fe5b600091825260209091206003600690920201015492915050565b60066020526000908152604090205481565b600060013360009081526008602052604090206003015460ff166001811115610a6457fe5b14610a6e57600080fd5b336000908152600460205260409020805485919085908110610a8c57fe5b906000526020600020906006020160050160008481526020019081526020016000206007019080519060200190610ac49291906112a3565b507f79b0340e74038ce50ce1234a2a1c2b9ac27086a941eeeeaa70a17693eebe94748484846040518080602001848152602001838152602001828103825285818151815260200191508051906020019080838360005b83811015610b32578181015183820152602001610b1a565b50505050905090810190601f168015610b5f5780820380516001836020036101000a031916815260200191505b5094505050505060405180910390a19392505050565b6000808060013360009081526008602052604090206003015460ff166001811115610b9c57fe5b14610ba657600080fd5b33600090815260046020526040812054118015610bd157503360009081526004602052604090205485105b1515610bdc57600080fd5b336000908152600460205260409020805486908110610bf757fe5b600091825260208083208784526005600690930201919091018152604080832060030154338452600490925290912080549193509086908110610c3657fe5b600091825260208083208784526006928302016005908101909152604083208381556001810184905560028101849055600381018490556004810184905590810183905590810182905590610c8e6007830182611321565b5050336000908152600460205260409020805486908110610cab57fe5b60009182526020808320600360069093020191909101543383526004909152604090912080549192509086908110610cdf57fe5b906000526020600020906006020160030160018203815481101515610d0057fe5b600091825260208083209091015433835260049091526040909120805487908110610d2757fe5b906000526020600020906006020160030183815481101515610d4557fe5b6000918252602080832090910192909255338152600490915260409020805486908110610d6e57fe5b9060005260206000209060060201600301805480919060019003610d929190611368565b506040805185815290517fc341cf326465fe622f86c468249e8c0cb03ed23ba376a6a34863a1374ac7d7699181900360200190a1506001949350505050565b3360009081526004602052604081208054829182918291829160609183918291908b908110610dfc57fe5b600091825260208083208c84526005600690930201919091018152604080832054338452600490925290912080548c908110610e3457fe5b600091825260208083208d84526005600690930201919091018152604080832060010154338452600490925290912080548d908110610e6f57fe5b600091825260208083208e84526005600690930201919091018152604080832060020154338452600490925290912080548e908110610eaa57fe5b600091825260208083208f845260069283020160050181526040808420909201543384526004909152912080548f908110610ee157fe5b906000526020600020906006020160050160008e8152602001908152602001600020600501546004600033600160a060020a0316600160a060020a031681526020019081526020016000208f815481101515610f3957fe5b906000526020600020906006020160050160008f8152602001908152602001600020600701338f828054600181600116156101000203166002900480601f016020809104026020016040519081016040528092919081815260200182805460018160011615610100020316600290048015610ff55780601f10610fca57610100808354040283529160200191610ff5565b820191906000526020600020905b815481529060010190602001808311610fd857829003601f168201915b50505050509250975097509750975097509750975097509295985092959890939650565b60606004600060028581548110151561102e57fe5b6000918252602080832090910154600160a060020a03168352820192909252604001902080548390811061094957fe5b600060013360009081526008602052604090206003015460ff16600181111561108357fe5b1461108d57600080fd5b336000908152600460205260408120541180156110b857503360009081526004602052604090205488105b15156110c357600080fd5b33600090815260046020526040902080548791908a9081106110e157fe5b600091825260208083208b84526005600690930201919091018152604080832093909355338252600490522080548691908a90811061111c57fe5b600091825260208083208b84526005600690930201919091018152604080832060010193909355338252600490522080548591908a90811061115a57fe5b600091825260208083208b84526005600690930201919091018152604080832060020193909355338252600490522080548491908a90811061119857fe5b600091825260208083208b845260056006909302018201815260408084209092019390935533825260049092522080548391908a9081106111d557fe5b90600052602060002090600602016005016000898152602001908152602001600020600601819055507feca6714fcf568fb34cf9db4a414cb0cc48e93c5d4e1ba0582a46ea3704cf24d5876040518082815260200191505060405180910390a1506001979650505050505050565b600560209081526000928352604080842090915290825290205481565b33600090815260046020526040812080548490811061127b57fe5b6000918252602080832085845260056006909302018201905260409091200154905092915050565b828054600181600116156101000203166002900490600052602060002090601f016020900481019282601f106112e457805160ff1916838001178555611311565b82800160010185558215611311579182015b828111156113115782518255916020019190600101906112f6565b5061131d929150611391565b5090565b50805460018160011615610100020316600290046000825580601f106113475750611365565b601f0160209004906000526020600020908101906113659190611391565b50565b81548183558181111561138c5760008381526020902061138c918101908301611391565b505050565b6109f591905b8082111561131d57600081556001016113975600a165627a7a72305820e5ac20d07d3541269c62d7c2f911e754b38bc52d8fc8c97c7634f99f6026a94e0029",
  "source": "pragma solidity 0.4.24;\nimport \"./StoreBase.sol\";\nimport \"./VendorBase.sol\";\n\n/**\n  THIS CONTRACT IS USED BY STORE OWNERS TO MANAGE  STORE PRODUCTS\n */\ncontract ProductManager is Ownerble, StoreBase , VendorBase{\n   \n   /**\n     EVENT TRIGGERED WHEN A PRODUCT GETS CREATED\n    */\n    event ProductCreated(uint productId, uint productIdSlot);\n    /**\n     EVENT TRIGGERED WHEN A PRODUCT GETS UPDATED\n    */\n    event ProductUpdated(uint productId);\n    /**\n     EVENT TRIGGERED WHEN A PRODUCT GETS DELETED\n    */\n    event ProductDeleted(uint productId);\n    /**\n     EVENT TRIGGERED WHEN A PRODUCT IMAGE HASH IS  UPDATED\n    */\n    event ImageUpdated(string imageHash, uint256 storeIndex, uint256 productId);\n\n    /**\n     EVENT TRIGGERED WHEN A PRODUCT GETS CREATED\n    */\n    function getProductsIdsVendor(uint storeIndex) public view returns(uint[]) {\n        return getProductsIds(msg.sender, storeIndex);\n    }\n    \n    /**\n      RETURNS THE IDS OF PRODUCTS IN A SPECIFIED VENDORS STORE\n     */\n     function getProductsIdsCustomer(uint accountIndex, uint storeIndex) public view returns(uint[]) {\n        return (\n          stores[vendorAccountsWithListedStores[accountIndex]][storeIndex].productIds    \n        );\n    }\n    \n    /**\n      RETURNS THE IDS OF PRODUCTS IN A SPECIFIED VENDORS STORE\n     */\n     function getProductsIds(address account, uint storeIndex) public view returns(uint[]) {\n        return (\n          stores[account][storeIndex].productIds    \n        );\n    }\n    \n    /**\n      RETURNS NUMBER OF PRODUCTS  FOR A VENDOR STORE\n     */\n    function getProductsCount(uint storeIndex) public view returns(uint) {\n        return (\n          stores[msg.sender][storeIndex].productIds.length    \n        );\n    }\n\n    /**\n      RETURNS THE VENDORS PRODUCTS FOR A SPECIFIED STORE\n     */\n    function getProductVendor(uint storeIndex, uint productId) public constant \n       returns(bytes32,bytes32, uint, uint, uint , string, address, uint) {\n               return (\n                 stores[msg.sender][storeIndex].products[productId].name,\n                 stores[msg.sender][storeIndex].products[productId].description,\n                 stores[msg.sender][storeIndex].products[productId].price,\n                 stores[msg.sender][storeIndex].products[productId].priceInSpinelToken,\n                 stores[msg.sender][storeIndex].products[productId].quantity,\n                 stores[msg.sender][storeIndex].products[productId].imageHash,\n                 msg.sender,\n                 productId\n              );\n     }\n     \n     /**\n      RETURNS THE VENDORS PRODUCTS FOR A SPECIFIED STORE\n     */\n      function getProductCustomer(uint accountIndex, uint storeIndex, uint productId) public constant returns(bytes32,\n       bytes32, uint, uint,  string, address, uint) {\n          address vendor = vendorAccountsWithListedStores[accountIndex];\n        \n          return (\n                 stores[vendor][storeIndex].products[productId].name,\n                 stores[vendor][storeIndex].products[productId].description,\n                 stores[vendor][storeIndex].products[productId].price,\n                 stores[vendor][storeIndex].products[productId].priceInSpinelToken,\n                 stores[vendor][storeIndex].products[productId].imageHash,\n                 vendor,\n                 productId\n              );\n     }\n     \n  \n\n   /**\n      RETURNS THE QUANTITY OF PRODUCTS IN SPECIFIED STORE\n     */\n    function getProductQuantity(uint storeIndex, uint productId) public view returns(uint) {\n          return stores[msg.sender][storeIndex].products[productId].quantity;\n    } \n\n\n      /**\n       UPDATES PRODUCT IMAGE\n     */\n     function updateProductImage(string imageHash, uint256 storeIndex, uint256 productId ) public returns(bool) {\n        require(vendors[msg.sender].state == AccountState.Approved);\n          stores[msg.sender][storeIndex].products[productId].imageHash = imageHash;\n          emit ImageUpdated(imageHash, storeIndex, productId);\n     }\n    \n    /**\n      CREATE A NEW PRODUCT\n     */\n    function createProduct(uint storeIndex,bytes32 productName, bytes32 description, \n       uint price, uint quantity, uint priceInSpinelToken) public returns(uint) {\n         require(vendors[msg.sender].state == AccountState.Approved);\n         require(stores[msg.sender].length > 0 && (storeIndex < stores[msg.sender].length));\n          //GET THE LOCATION / INDEX OF THE PRODUCT IN THE PRODUCTS IDS ARRAY\n          uint productIdSlot = stores[msg.sender][storeIndex].productIds.length;\n        \n          //GENERATE THE PRODUCT ID BY INCREMENTING THE PRODUCT COUNT\n          uint productId =  ++stores[msg.sender][storeIndex].productIdIncrement;\n        \n        \n          //SAVE PRODUCT ID TO STORE\n         stores[msg.sender][storeIndex].productIds.push(productId);\n            //CREATE PRODUCT\n          stores[msg.sender][storeIndex].products[productId] = Product(productName,\n           description, price, productIdSlot, productId, quantity,\n            priceInSpinelToken, \"\");\n          \n           emit ProductCreated(productId, productIdSlot);\n          return productIdSlot;\n    }\n\n     /**\n       UPDATES THE SPEFICIED PRODUCT\n     */\n      function editProduct(uint storeIndex, uint productId, bytes32 productName, bytes32 description, uint price, uint quantity, uint priceInSpinelToken) public  returns(bool) {\n         require(vendors[msg.sender].state == AccountState.Approved);\n         require(stores[msg.sender].length > 0 && (storeIndex < stores[msg.sender].length));\n         stores[msg.sender][storeIndex].products[productId].name = productName;\n         stores[msg.sender][storeIndex].products[productId].description = description;\n         stores[msg.sender][storeIndex].products[productId].price = price;\n         stores[msg.sender][storeIndex].products[productId].quantity = quantity;\n         stores[msg.sender][storeIndex].products[productId].priceInSpinelToken = priceInSpinelToken;\n         emit ProductUpdated(productId);\n         return true;\n    }\n    \n     /**\n       DELETES THE SPEFICIED PRODUCT\n     */\n     function deleteProduct(uint storeIndex, uint productId) public returns(bool) {\n          require(vendors[msg.sender].state == AccountState.Approved);\n          require(stores[msg.sender].length > 0 && (storeIndex < stores[msg.sender].length));\n\n          //DELETE PRODUCT\n          uint productIdIndex = stores[msg.sender][storeIndex].products[productId].productIdSlot;\n          \n          delete stores[msg.sender][storeIndex].products[productId];\n          \n          //GET PRODUCT IDS LIST  LENGTH \n           uint productsLength = stores[msg.sender][storeIndex].productIds.length;\n          //copy the last product to the index of the product to remove\n          stores[msg.sender][storeIndex].productIds[productIdIndex] = stores[msg.sender][storeIndex].productIds[productsLength - 1];\n          stores[msg.sender][storeIndex].productIds.length --;\n\n          emit ProductDeleted(productId);\n          \n          return true;\n    } \n}\n\n",
  "sourcePath": "/home/yusuf/Documents/DEVELOPER/PROJECTS/truffle/marketplace/Blockchain-Market-Place/contracts/ProductManager.sol",
  "compiler": {
    "name": "solc",
    "version": "0.4.24+commit.e67f0147.Emscripten.clang"
  },
  "schemaVersion": "2.0.1",
  "updatedAt": "2018-08-27T04:26:05.997Z"
}