{
  "contractName": "ProductManager",
  "abi": [
    {
      "constant": true,
      "inputs": [],
      "name": "getVendorBalance",
      "outputs": [
        {
          "name": "",
          "type": "uint256"
        }
      ],
      "payable": false,
      "stateMutability": "view",
      "type": "function"
    },
    {
      "constant": true,
      "inputs": [
        {
          "name": "",
          "type": "address"
        }
      ],
      "name": "customerOrdersCount",
      "outputs": [
        {
          "name": "",
          "type": "uint256"
        }
      ],
      "payable": false,
      "stateMutability": "view",
      "type": "function"
    },
    {
      "constant": true,
      "inputs": [
        {
          "name": "",
          "type": "address"
        },
        {
          "name": "",
          "type": "address"
        }
      ],
      "name": "allowance",
      "outputs": [
        {
          "name": "",
          "type": "uint256"
        }
      ],
      "payable": false,
      "stateMutability": "view",
      "type": "function"
    },
    {
      "anonymous": false,
      "inputs": [
        {
          "indexed": false,
          "name": "productId",
          "type": "uint256"
        },
        {
          "indexed": false,
          "name": "productIdSlot",
          "type": "uint256"
        }
      ],
      "name": "ProductCreated",
      "type": "event"
    },
    {
      "anonymous": false,
      "inputs": [
        {
          "indexed": false,
          "name": "productId",
          "type": "uint256"
        }
      ],
      "name": "ProductUpdated",
      "type": "event"
    },
    {
      "anonymous": false,
      "inputs": [
        {
          "indexed": false,
          "name": "productId",
          "type": "uint256"
        }
      ],
      "name": "ProductDeleted",
      "type": "event"
    },
    {
      "constant": true,
      "inputs": [
        {
          "name": "storeIndex",
          "type": "uint256"
        }
      ],
      "name": "getProductsIdsVendor",
      "outputs": [
        {
          "name": "",
          "type": "uint256[]"
        }
      ],
      "payable": false,
      "stateMutability": "view",
      "type": "function"
    },
    {
      "constant": true,
      "inputs": [
        {
          "name": "accountIndex",
          "type": "uint256"
        },
        {
          "name": "storeIndex",
          "type": "uint256"
        }
      ],
      "name": "getProductsIdsCustomer",
      "outputs": [
        {
          "name": "",
          "type": "uint256[]"
        }
      ],
      "payable": false,
      "stateMutability": "view",
      "type": "function"
    },
    {
      "constant": true,
      "inputs": [
        {
          "name": "account",
          "type": "address"
        },
        {
          "name": "storeIndex",
          "type": "uint256"
        }
      ],
      "name": "getProductsIds",
      "outputs": [
        {
          "name": "",
          "type": "uint256[]"
        }
      ],
      "payable": false,
      "stateMutability": "view",
      "type": "function"
    },
    {
      "constant": true,
      "inputs": [
        {
          "name": "storeIndex",
          "type": "uint256"
        }
      ],
      "name": "getProductsCount",
      "outputs": [
        {
          "name": "",
          "type": "uint256"
        }
      ],
      "payable": false,
      "stateMutability": "view",
      "type": "function"
    },
    {
      "constant": true,
      "inputs": [
        {
          "name": "storeIndex",
          "type": "uint256"
        },
        {
          "name": "productId",
          "type": "uint256"
        }
      ],
      "name": "getProductVendor",
      "outputs": [
        {
          "name": "",
          "type": "bytes32"
        },
        {
          "name": "",
          "type": "bytes32"
        },
        {
          "name": "",
          "type": "uint256"
        },
        {
          "name": "",
          "type": "uint256"
        },
        {
          "name": "",
          "type": "uint256"
        },
        {
          "name": "",
          "type": "address"
        },
        {
          "name": "",
          "type": "uint256"
        }
      ],
      "payable": false,
      "stateMutability": "view",
      "type": "function"
    },
    {
      "constant": true,
      "inputs": [
        {
          "name": "accountIndex",
          "type": "uint256"
        },
        {
          "name": "storeIndex",
          "type": "uint256"
        },
        {
          "name": "productId",
          "type": "uint256"
        }
      ],
      "name": "getProductCustomer",
      "outputs": [
        {
          "name": "",
          "type": "bytes32"
        },
        {
          "name": "",
          "type": "bytes32"
        },
        {
          "name": "",
          "type": "uint256"
        },
        {
          "name": "",
          "type": "uint256"
        },
        {
          "name": "",
          "type": "uint256"
        },
        {
          "name": "",
          "type": "address"
        },
        {
          "name": "",
          "type": "uint256"
        }
      ],
      "payable": false,
      "stateMutability": "view",
      "type": "function"
    },
    {
      "constant": true,
      "inputs": [
        {
          "name": "vendor",
          "type": "address"
        },
        {
          "name": "storeIndex",
          "type": "uint256"
        },
        {
          "name": "productId",
          "type": "uint256"
        }
      ],
      "name": "getProduct",
      "outputs": [
        {
          "name": "",
          "type": "bytes32"
        },
        {
          "name": "",
          "type": "bytes32"
        },
        {
          "name": "",
          "type": "uint256"
        },
        {
          "name": "",
          "type": "uint256"
        },
        {
          "name": "",
          "type": "uint256"
        },
        {
          "name": "",
          "type": "address"
        },
        {
          "name": "",
          "type": "uint256"
        }
      ],
      "payable": false,
      "stateMutability": "view",
      "type": "function"
    },
    {
      "constant": true,
      "inputs": [
        {
          "name": "storeIndex",
          "type": "uint256"
        },
        {
          "name": "productId",
          "type": "uint256"
        }
      ],
      "name": "getProductQuantity",
      "outputs": [
        {
          "name": "",
          "type": "uint256"
        }
      ],
      "payable": false,
      "stateMutability": "view",
      "type": "function"
    },
    {
      "constant": false,
      "inputs": [
        {
          "name": "storeIndex",
          "type": "uint256"
        },
        {
          "name": "productName",
          "type": "bytes32"
        },
        {
          "name": "description",
          "type": "bytes32"
        },
        {
          "name": "price",
          "type": "uint256"
        },
        {
          "name": "quantity",
          "type": "uint256"
        },
        {
          "name": "priceInSpinelToken",
          "type": "uint256"
        }
      ],
      "name": "createProduct",
      "outputs": [
        {
          "name": "",
          "type": "uint256"
        }
      ],
      "payable": false,
      "stateMutability": "nonpayable",
      "type": "function"
    },
    {
      "constant": false,
      "inputs": [
        {
          "name": "storeIndex",
          "type": "uint256"
        },
        {
          "name": "productId",
          "type": "uint256"
        },
        {
          "name": "productName",
          "type": "bytes32"
        },
        {
          "name": "description",
          "type": "bytes32"
        },
        {
          "name": "price",
          "type": "uint256"
        },
        {
          "name": "quantity",
          "type": "uint256"
        },
        {
          "name": "priceInSpinelToken",
          "type": "uint256"
        }
      ],
      "name": "editProduct",
      "outputs": [
        {
          "name": "",
          "type": "bool"
        }
      ],
      "payable": false,
      "stateMutability": "nonpayable",
      "type": "function"
    },
    {
      "constant": false,
      "inputs": [
        {
          "name": "storeIndex",
          "type": "uint256"
        },
        {
          "name": "productId",
          "type": "uint256"
        }
      ],
      "name": "deleteProduct",
      "outputs": [
        {
          "name": "",
          "type": "bool"
        }
      ],
      "payable": false,
      "stateMutability": "nonpayable",
      "type": "function"
    }
  ],
  "bytecode": "0x608060405261001564010000000061001a810204565b61002e565b60008054600160a060020a03191633179055565b610dd68061003d6000396000f3006080604052600436106100ce5763ffffffff7c010000000000000000000000000000000000000000000000000000000060003504166279892481146100d3578063189795591461013b5780631f088365146101a357806336bbb03c146101dc5780635ce9ae53146101fa5780636e91c6b81461021e578063892c45f9146102335780638a3046ba1461024b578063a1c48cc41461026c578063ab7f603f1461029b578063d1dfaa3e146102b6578063d604362d146102d1578063dd62ed3e146102fb578063f8127a8814610322575b600080fd5b3480156100df57600080fd5b506100fa600160a060020a036004351660243560443561033d565b6040805197885260208801969096528686019490945260608601929092526080850152600160a060020a031660a084015260c0830152519081900360e00190f35b34801561014757600080fd5b506101536004356104d9565b60408051602080825283518183015283519192839290830191858101910280838360005b8381101561018f578181015183820152602001610177565b505050509050019250505060405180910390f35b3480156101af57600080fd5b506101ca60043560243560443560643560843560a4356104eb565b60408051918252519081900360200190f35b3480156101e857600080fd5b506100fa6004356024356044356106f4565b34801561020657600080fd5b50610153600160a060020a0360043516602435610748565b34801561022a57600080fd5b506101ca6107d8565b34801561023f57600080fd5b506101ca60043561081f565b34801561025757600080fd5b506101ca600160a060020a0360043516610854565b34801561027857600080fd5b50610287600435602435610866565b604080519115158252519081900360200190f35b3480156102a757600080fd5b506100fa600435602435610aab565b3480156102c257600080fd5b50610153600435602435610ad9565b3480156102dd57600080fd5b5061028760043560243560443560643560843560a43560c435610b1e565b34801561030757600080fd5b506101ca600160a060020a0360043581169060243516610d03565b34801561032e57600080fd5b506101ca600435602435610d20565b600160a060020a038316600090815260046020526040812080548291829182918291829182918a90811061036d57fe5b600091825260208083208b84526005600690930201919091018152604080832054600160a060020a038e168452600490925290912080548b9081106103ae57fe5b600091825260208083208c84526005600690930201919091018152604080832060010154600160a060020a038f168452600490925290912080548c9081106103f257fe5b906000526020600020906006020160050160008b815260200190815260200160002060020154600460008e600160a060020a0316600160a060020a031681526020019081526020016000208c81548110151561044a57fe5b906000526020600020906006020160050160008c815260200190815260200160002060060154600460008f600160a060020a0316600160a060020a031681526020019081526020016000208d8154811015156104a257fe5b600091825260208083208f845260056006909302018201905260409091200154939e929d919c509a92995097509095509350505050565b60606104e53383610748565b92915050565b6000808060013360009081526008602052604090206003015460ff16600181111561051257fe5b1461051c57600080fd5b3360009081526004602052604081205411801561054757503360009081526004602052604090205489105b151561055257600080fd5b33600090815260046020526040902080548a90811061056d57fe5b6000918252602080832060036006909302019190910154338352600490915260409091208054919350908a9081106105a157fe5b600091825260208083206004600690930201820180546001019081905533845291905260409091208054919250908a9081106105d957fe5b600091825260208083206003600690930201919091018054600181018255908352818320018390556040805160e0810182528b81528083018b90528082018a9052606081018690526080810185905260a0810189905260c08101889052338452600490925290912080548b90811061064d57fe5b600091825260208083208584526006928302016005908101825260409384902085518155858301516001820155858501516002820155606086015160038201556080860151600482015560a08601519181019190915560c0909401519390910192909255805183815291820184905280517f2a60815e9d2622a909b3c2b731fa879a529c93b5fecdb1cfea183695707572cc9281900390910190a150979650505050505050565b600080600080600080600061072d60028b81548110151561071157fe5b600091825260209091200154600160a060020a03168a8a61033d565b96509650965096509650965096509397509397509397909450565b600160a060020a03821660009081526004602052604090208054606091908390811061077057fe5b90600052602060002090600602016003018054806020026020016040519081016040528092919081815260200182805480156107cb57602002820191906000526020600020905b8154815260200190600101908083116107b7575b5050505050905092915050565b600060013360009081526008602052604090206003015460ff1660018111156107fd57fe5b1461080757600080fd5b50336000908152600860205260409020600701545b90565b33600090815260046020526040812080548390811061083a57fe5b600091825260209091206003600690920201015492915050565b60066020526000908152604090205481565b6000808060013360009081526008602052604090206003015460ff16600181111561088d57fe5b1461089757600080fd5b336000908152600460205260408120541180156108c257503360009081526004602052604090205485105b15156108cd57600080fd5b3360009081526004602052604090208054869081106108e857fe5b60009182526020808320878452600560069093020191909101815260408083206003015433845260049092529091208054919350908690811061092757fe5b6000918252602080832087845260069283020160059081018252604080852085815560018101869055600281018690556003810186905560048082018790559281018690559093018490553384529052902080548690811061098557fe5b600091825260208083206003600690930201919091015433835260049091526040909120805491925090869081106109b957fe5b9060005260206000209060060201600301600182038154811015156109da57fe5b600091825260208083209091015433835260049091526040909120805487908110610a0157fe5b906000526020600020906006020160030183815481101515610a1f57fe5b6000918252602080832090910192909255338152600490915260409020805486908110610a4857fe5b9060005260206000209060060201600301805480919060019003610a6c9190610d63565b506040805185815290517fc341cf326465fe622f86c468249e8c0cb03ed23ba376a6a34863a1374ac7d7699181900360200190a1506001949350505050565b6000806000806000806000610ac1338a8a61033d565b959f949e50929c50909a509850965090945092505050565b606060046000600285815481101515610aee57fe5b6000918252602080832090910154600160a060020a03168352820192909252604001902080548390811061077057fe5b600060013360009081526008602052604090206003015460ff166001811115610b4357fe5b14610b4d57600080fd5b33600090815260046020526040812054118015610b7857503360009081526004602052604090205488105b1515610b8357600080fd5b33600090815260046020526040902080548791908a908110610ba157fe5b600091825260208083208b84526005600690930201919091018152604080832093909355338252600490522080548691908a908110610bdc57fe5b600091825260208083208b84526005600690930201919091018152604080832060010193909355338252600490522080548591908a908110610c1a57fe5b600091825260208083208b84526005600690930201919091018152604080832060020193909355338252600490522080548491908a908110610c5857fe5b600091825260208083208b845260056006909302018201815260408084209092019390935533825260049092522080548391908a908110610c9557fe5b90600052602060002090600602016005016000898152602001908152602001600020600601819055507feca6714fcf568fb34cf9db4a414cb0cc48e93c5d4e1ba0582a46ea3704cf24d5876040518082815260200191505060405180910390a1506001979650505050505050565b600560209081526000928352604080842090915290825290205481565b336000908152600460205260408120805484908110610d3b57fe5b6000918252602080832085845260056006909302018201905260409091200154905092915050565b815481835581811115610d8757600083815260209020610d87918101908301610d8c565b505050565b61081c91905b80821115610da65760008155600101610d92565b50905600a165627a7a72305820493e92d3ebecc59a91633342d8df7f9d5d876a20ff130d5c50b5db6154d682880029",
  "source": "pragma solidity ^0.4.18;\nimport \"./StoreBase.sol\";\nimport \"./VendorBase.sol\";\n\ncontract ProductManager is Ownerble, StoreBase , VendorBase{\n   \n    event ProductCreated(uint productId, uint productIdSlot);\n    event ProductUpdated(uint productId);\n    event ProductDeleted(uint productId);\n\n    function getProductsIdsVendor(uint storeIndex) public view returns(uint[]) {\n        return getProductsIds(msg.sender, storeIndex);\n    }\n    \n     function getProductsIdsCustomer(uint accountIndex, uint storeIndex) public view returns(uint[]) {\n        return (\n          stores[vendorAccountsWithListedStores[accountIndex]][storeIndex].productIds    \n        );\n    }\n    \n     function getProductsIds(address account, uint storeIndex) public view returns(uint[]) {\n        return (\n          stores[account][storeIndex].productIds    \n        );\n    }\n    \n    function getProductsCount(uint storeIndex) public view returns(uint) {\n        return (\n          stores[msg.sender][storeIndex].productIds.length    \n        );\n    }\n\n      function getProductVendor(uint storeIndex, uint productId) public constant returns(bytes32, bytes32, uint, uint, uint, address, uint) {\n          \n         // require(storeIndex < stores[msg.sender].length && productIndex < stores[msg.sender][storeIndex].products.length, \"PRODUCT INDEX DOES NOT EXIST\");\n          return getProduct(msg.sender, storeIndex, productId);\n     }\n     \n      function getProductCustomer(uint accountIndex, uint storeIndex, uint productId) public constant returns(bytes32, bytes32, uint, uint, uint, address, uint) {\n          \n         // require(storeIndex < stores[msg.sender].length && productIndex < stores[msg.sender][storeIndex].products.length, \"PRODUCT INDEX DOES NOT EXIST\");\n            \n          return getProduct(vendorAccountsWithListedStores[accountIndex] ,storeIndex, productId);\n     }\n     \n    function getProduct(address vendor, uint storeIndex, uint productId) public constant returns(bytes32, bytes32, uint, uint, uint, address, uint) {\n          \n         \n          return (\n                 stores[vendor][storeIndex].products[productId].name,\n                 stores[vendor][storeIndex].products[productId].description,\n                 stores[vendor][storeIndex].products[productId].price,\n                 stores[vendor][storeIndex].products[productId].priceInSpinelToken,\n                 stores[vendor][storeIndex].products[productId].quantity,\n                 vendor,\n                 productId\n              );\n     }\n    \n    //  function getProductVendor(uint storeIndex, uint productId) public constant returns(bytes32, bytes32, uint, uint, uint, address, uint) {\n          \n    //      // require(storeIndex < stores[msg.sender].length && productIndex < stores[msg.sender][storeIndex].products.length, \"PRODUCT INDEX DOES NOT EXIST\");\n    //        return getProduct(msg.sender, storeIndex, productId);\n    //  }\n     \n    //   function getProductCustomer(uint accountIndex, uint storeIndex, uint productId) public constant returns(bytes32, bytes32, uint, uint, uint, address, uint) {\n          \n    //      // require(storeIndex < stores[msg.sender].length && productIndex < stores[msg.sender][storeIndex].products.length, \"PRODUCT INDEX DOES NOT EXIST\");\n            \n    //       return getProduct(vendorAccountsWithListedStores[accountIndex] ,storeIndex, productId);\n    //  }\n     \n    // function getProduct(address vendor, uint storeIndex, uint productId) public constant returns(bytes32, bytes32, uint, uint, uint, address, uint) {\n          \n    //      // require(storeIndex < stores[msg.sender].length && productIndex < stores[msg.sender][storeIndex].products.length, \"PRODUCT INDEX DOES NOT EXIST\");\n    //       uint quantity =  stores[vendor][storeIndex].products[productId].quantity;\n    //       return (\n    //              stores[vendor][storeIndex].products[productId].name,\n    //              stores[vendor][storeIndex].products[productId].description,\n    //              stores[vendor][storeIndex].products[productId].price,\n    //              stores[vendor][storeIndex].products[productId].productId,\n    //              storeIndex,\n    //              vendor,\n    //              quantity\n    //           );\n    //  }\n\n    function getProductQuantity(uint storeIndex, uint productId) public view returns(uint) {\n          return stores[msg.sender][storeIndex].products[productId].quantity;\n    } \n\n      function createProduct(uint storeIndex,bytes32 productName, bytes32 description, uint price, uint quantity, uint priceInSpinelToken) public returns(uint) {\n         require(vendors[msg.sender].state == AccountState.Approved);\n         require(stores[msg.sender].length > 0 && (storeIndex < stores[msg.sender].length));\n          //INCREMENT PRODUCT ID\n          uint productIdSlot = stores[msg.sender][storeIndex].productIds.length;\n        \n          uint productId =  ++stores[msg.sender][storeIndex].productIdIncrement;\n        \n        \n          //SAVE PRODUCT ID TO STORE\n         stores[msg.sender][storeIndex].productIds.push(productId);\n            //CREATE PRODUCT\n          stores[msg.sender][storeIndex].products[productId] = Product(productName, description, price, productIdSlot, productId, quantity, priceInSpinelToken);\n           emit ProductCreated(productId, productIdSlot);\n          return productIdSlot;\n    }\n    //storeIndex, productId, name, description, price, quantity\n      function editProduct(uint storeIndex, uint productId, bytes32 productName, bytes32 description, uint price, uint quantity, uint priceInSpinelToken) public  returns(bool) {\n         require(vendors[msg.sender].state == AccountState.Approved);\n         require(stores[msg.sender].length > 0 && (storeIndex < stores[msg.sender].length));\n         stores[msg.sender][storeIndex].products[productId].name = productName;\n         stores[msg.sender][storeIndex].products[productId].description = description;\n         stores[msg.sender][storeIndex].products[productId].price = price;\n         stores[msg.sender][storeIndex].products[productId].quantity = quantity;\n         stores[msg.sender][storeIndex].products[productId].priceInSpinelToken = priceInSpinelToken;\n         emit ProductUpdated(productId);\n         return true;\n    }\n    \n    // function createProduct(uint storeIndex,bytes32 productName, bytes32 description, uint price, uint quantity) public returns(uint) {\n    //       require(vendors[msg.sender].state == AccountState.Approved);\n    //       require(stores[msg.sender].length > 0 && (storeIndex < stores[msg.sender].length));\n\n    //       //INCREMENT PRODUCT ID\n    //       uint productIdSlot = stores[msg.sender][storeIndex].productIds.length;\n        \n    //       uint productId =  ++stores[msg.sender][storeIndex].productIdIncrement;\n        \n        \n    //       //SAVE PRODUCT ID TO STORE\n    //      stores[msg.sender][storeIndex].productIds.push(productId);\n    //         //CREATE PRODUCT\n    //       stores[msg.sender][storeIndex].products[productId] = Product(productName, description, price, productIdSlot, productId, quantity);\n          \n    //       emit ProductCreated(productId, productIdSlot);\n\n    //       return productIdSlot;\n    // }\n    \n    //   function editProduct(uint storeIndex, uint productId, bytes32 productName, bytes32 description, uint price, uint quantity) public  returns(bool) {\n    //     require(vendors[msg.sender].state == AccountState.Approved);\n    //     require(stores[msg.sender].length > 0 && (storeIndex < stores[msg.sender].length));\n\n    //      stores[msg.sender][storeIndex].products[productId].name = productName;\n    //      stores[msg.sender][storeIndex].products[productId].description = description;\n    //      stores[msg.sender][storeIndex].products[productId].price = price;\n    //      stores[msg.sender][storeIndex].products[productId].quantity = quantity;\n\n    //      emit ProductUpdated(productId);\n\n    //      return true;\n    // }\n    \n    \n     function deleteProduct(uint storeIndex, uint productId) public returns(bool) {\n          require(vendors[msg.sender].state == AccountState.Approved);\n          require(stores[msg.sender].length > 0 && (storeIndex < stores[msg.sender].length));\n\n          //DELETE PRODUCT\n          uint productIdIndex = stores[msg.sender][storeIndex].products[productId].productIdSlot;\n          \n          delete stores[msg.sender][storeIndex].products[productId];\n          \n          //GET PRODUCT IDS LIST  LENGTH \n           uint productsLength = stores[msg.sender][storeIndex].productIds.length;\n          //copy the last product to the index of the product to remove\n          stores[msg.sender][storeIndex].productIds[productIdIndex] = stores[msg.sender][storeIndex].productIds[productsLength - 1];\n          stores[msg.sender][storeIndex].productIds.length --;\n\n          emit ProductDeleted(productId);\n          \n          return true;\n    } \n}\n\n",
  "sourcePath": "/Users/yusufkelo/Documents/DEVELOPER/ETHEREAUM/blockchain-market/market-place/contracts/ProductManager.sol",
  "compiler": {
    "name": "solc",
    "version": "0.4.24+commit.e67f0147.Emscripten.clang"
  },
  "schemaVersion": "2.0.0",
  "updatedAt": "2018-08-25T14:02:23.924Z"
}