{
  "contractName": "ProductManager",
  "abi": [
    {
      "constant": true,
      "inputs": [
        {
          "name": "storeIndex",
          "type": "uint256"
        }
      ],
      "name": "getProductsIdsVendor",
      "outputs": [
        {
          "name": "",
          "type": "uint256[]"
        }
      ],
      "payable": false,
      "stateMutability": "view",
      "type": "function"
    },
    {
      "constant": true,
      "inputs": [
        {
          "name": "accountIndex",
          "type": "uint256"
        },
        {
          "name": "storeIndex",
          "type": "uint256"
        }
      ],
      "name": "getProductsIdsCustomer",
      "outputs": [
        {
          "name": "",
          "type": "uint256[]"
        }
      ],
      "payable": false,
      "stateMutability": "view",
      "type": "function"
    },
    {
      "constant": true,
      "inputs": [
        {
          "name": "account",
          "type": "address"
        },
        {
          "name": "storeIndex",
          "type": "uint256"
        }
      ],
      "name": "getProductsIds",
      "outputs": [
        {
          "name": "",
          "type": "uint256[]"
        }
      ],
      "payable": false,
      "stateMutability": "view",
      "type": "function"
    },
    {
      "constant": true,
      "inputs": [
        {
          "name": "storeIndex",
          "type": "uint256"
        }
      ],
      "name": "getProductsCount",
      "outputs": [
        {
          "name": "",
          "type": "uint256"
        }
      ],
      "payable": false,
      "stateMutability": "view",
      "type": "function"
    },
    {
      "constant": true,
      "inputs": [
        {
          "name": "storeIndex",
          "type": "uint256"
        },
        {
          "name": "productId",
          "type": "uint256"
        }
      ],
      "name": "getProductVendor",
      "outputs": [
        {
          "name": "",
          "type": "bytes32"
        },
        {
          "name": "",
          "type": "bytes32"
        },
        {
          "name": "",
          "type": "uint256"
        },
        {
          "name": "",
          "type": "uint256"
        },
        {
          "name": "",
          "type": "uint256"
        },
        {
          "name": "",
          "type": "address"
        },
        {
          "name": "",
          "type": "uint256"
        }
      ],
      "payable": false,
      "stateMutability": "view",
      "type": "function"
    },
    {
      "constant": true,
      "inputs": [
        {
          "name": "accountIndex",
          "type": "uint256"
        },
        {
          "name": "storeIndex",
          "type": "uint256"
        },
        {
          "name": "productId",
          "type": "uint256"
        }
      ],
      "name": "getProductCustomer",
      "outputs": [
        {
          "name": "",
          "type": "bytes32"
        },
        {
          "name": "",
          "type": "bytes32"
        },
        {
          "name": "",
          "type": "uint256"
        },
        {
          "name": "",
          "type": "uint256"
        },
        {
          "name": "",
          "type": "uint256"
        },
        {
          "name": "",
          "type": "address"
        },
        {
          "name": "",
          "type": "uint256"
        }
      ],
      "payable": false,
      "stateMutability": "view",
      "type": "function"
    },
    {
      "constant": true,
      "inputs": [
        {
          "name": "vendor",
          "type": "address"
        },
        {
          "name": "storeIndex",
          "type": "uint256"
        },
        {
          "name": "productId",
          "type": "uint256"
        }
      ],
      "name": "getProduct",
      "outputs": [
        {
          "name": "",
          "type": "bytes32"
        },
        {
          "name": "",
          "type": "bytes32"
        },
        {
          "name": "",
          "type": "uint256"
        },
        {
          "name": "",
          "type": "uint256"
        },
        {
          "name": "",
          "type": "uint256"
        },
        {
          "name": "",
          "type": "address"
        },
        {
          "name": "",
          "type": "uint256"
        }
      ],
      "payable": false,
      "stateMutability": "view",
      "type": "function"
    },
    {
      "constant": false,
      "inputs": [
        {
          "name": "storeIndex",
          "type": "uint256"
        },
        {
          "name": "productName",
          "type": "bytes32"
        },
        {
          "name": "description",
          "type": "bytes32"
        },
        {
          "name": "price",
          "type": "uint256"
        },
        {
          "name": "quantity",
          "type": "uint256"
        }
      ],
      "name": "createProduct",
      "outputs": [
        {
          "name": "",
          "type": "uint256"
        }
      ],
      "payable": false,
      "stateMutability": "nonpayable",
      "type": "function"
    },
    {
      "constant": false,
      "inputs": [
        {
          "name": "storeIndex",
          "type": "uint256"
        },
        {
          "name": "productId",
          "type": "uint256"
        },
        {
          "name": "productName",
          "type": "bytes32"
        },
        {
          "name": "description",
          "type": "bytes32"
        },
        {
          "name": "price",
          "type": "uint256"
        },
        {
          "name": "quantity",
          "type": "uint256"
        }
      ],
      "name": "editProduct",
      "outputs": [
        {
          "name": "",
          "type": "bool"
        }
      ],
      "payable": false,
      "stateMutability": "nonpayable",
      "type": "function"
    },
    {
      "constant": false,
      "inputs": [
        {
          "name": "storeIndex",
          "type": "uint256"
        },
        {
          "name": "productId",
          "type": "uint256"
        }
      ],
      "name": "deleteProduct",
      "outputs": [
        {
          "name": "",
          "type": "bool"
        }
      ],
      "payable": false,
      "stateMutability": "nonpayable",
      "type": "function"
    }
  ],
  "bytecode": "0x608060405234801561001057600080fd5b50610a50806100206000396000f3006080604052600436106100a25763ffffffff7c010000000000000000000000000000000000000000000000000000000060003504166279892481146100a7578063189795591461010f57806336bbb03c146101775780635ce9ae53146101955780636d369879146101b95780637902f880146101f4578063892c45f91461022a578063a1c48cc414610242578063ab7f603f1461025d578063d1dfaa3e14610278575b600080fd5b3480156100b357600080fd5b506100ce600160a060020a0360043516602435604435610293565b6040805197885260208801969096528686019490945260608601929092526080850152600160a060020a031660a084015260c0830152519081900360e00190f35b34801561011b57600080fd5b50610127600435610443565b60408051602080825283518183015283519192839290830191858101910280838360005b8381101561016357818101518382015260200161014b565b505050509050019250505060405180910390f35b34801561018357600080fd5b506100ce600435602435604435610455565b3480156101a157600080fd5b50610127600160a060020a03600435166024356104a9565b3480156101c557600080fd5b506101e060043560243560443560643560843560a435610539565b604080519115158252519081900360200190f35b34801561020057600080fd5b5061021860043560243560443560643560843561063b565b60408051918252519081900360200190f35b34801561023657600080fd5b5061021860043561078f565b34801561024e57600080fd5b506101e06004356024356107c4565b34801561026957600080fd5b506100ce600435602435610967565b34801561028457600080fd5b50610127600435602435610995565b600080600080600080600080600360008c600160a060020a0316600160a060020a031681526020019081526020016000208a8154811015156102d157fe5b600091825260208083208c8452600560069093020182018152604080842090920154600160a060020a038f168452600390915291208054919250908b90811061031657fe5b600091825260208083208c84526005600690930201919091018152604080832054600160a060020a038f168452600390925290912080548c90811061035757fe5b906000526020600020906006020160050160008b815260200190815260200160002060010154600360008e600160a060020a0316600160a060020a031681526020019081526020016000208c8154811015156103af57fe5b906000526020600020906006020160050160008c815260200190815260200160002060020154600360008f600160a060020a0316600160a060020a031681526020019081526020016000208d81548110151561040757fe5b600091825260208083209e835260056006909202909e0101909c526040909b2060040154919d909c9a9b919a9199509097509095509350505050565b606061044f33836104a9565b92915050565b600080600080600080600061048e60018b81548110151561047257fe5b600091825260209091200154600160a060020a03168a8a610293565b96509650965096509650965096509397509397509397909450565b600160a060020a0382166000908152600360205260409020805460609190839081106104d157fe5b906000526020600020906006020160030180548060200260200160405190810160405280929190818152602001828054801561052c57602002820191906000526020600020905b815481526020019060010190808311610518575b5050505050905092915050565b33600090815260036020526040812080548691908990811061055757fe5b600091825260208083208a84526005600690930201919091018152604080832093909355338252600390522080548591908990811061059257fe5b600091825260208083208a8452600560069093020191909101815260408083206001019390935533825260039052208054849190899081106105d057fe5b600091825260208083208a84526005600690930201919091018152604080832060020193909355338252600390522080548391908990811061060e57fe5b600091825260208083208a8452600560069093020182019052604090912001555060019695505050505050565b3360009081526003602052604081208054829182918990811061065a57fe5b60009182526020808320600360069093020182015433845291905260409091208054919350908990811061068a57fe5b6000918252602080832060046006909302019190910180546001019081905533835260039091526040909120805491925090899081106106c657fe5b60009182526020808320600360069093020182018054600181018255908452818420018490556040805160c0810182528b81528083018b90528082018a9052606081018790526080810186905260a081018990523385529290915290912080548a90811061073057fe5b6000918252602080832094835260056006929092029094018101845260409182902083518155938301516001850155908201516002840155606082015160038401556080820151600484015560a0909101519101559695505050505050565b3360009081526003602052604081208054839081106107aa57fe5b600091825260209091206003600690920201015492915050565b336000908152600360205260408120805482918291869081106107e357fe5b600091825260208083208784526005600690930201919091018152604080832060039081015433855292529091208054919350908690811061082157fe5b60009182526020808320878452600560069093020182018152604080842084815560018101859055600281018590556003808201869055600482018690559301849055338452919052902080548690811061087857fe5b6000918252602080832060036006909302018201543384529190526040909120805491925090869081106108a857fe5b9060005260206000209060060201600301600182038154811015156108c957fe5b6000918252602080832090910154338352600390915260409091208054879081106108f057fe5b90600052602060002090600602016003018381548110151561090e57fe5b600091825260208083209091019290925533815260039091526040902080548690811061093757fe5b906000526020600020906006020160030180548091906001900361095b91906109da565b50600195945050505050565b600080600080600080600061097d338a8a610293565b959f949e50929c50909a509850965090945092505050565b6060600360006001858154811015156109aa57fe5b6000918252602080832090910154600160a060020a0316835282019290925260400190208054839081106104d157fe5b8154818355818111156109fe576000838152602090206109fe918101908301610a03565b505050565b610a2191905b80821115610a1d5760008155600101610a09565b5090565b905600a165627a7a72305820adbb960f4386298a9ffc0ea136b21a1fb210ef273e5b3981d26156833cfa76350029",
  "source": "pragma solidity ^0.4.18;\nimport \"./StoreBase.sol\";\n\ncontract ProductManager is StoreBase {\n   \n    \n    function getProductsIdsVendor(uint storeIndex) public view returns(uint[]) {\n        return getProductsIds(msg.sender, storeIndex);\n    }\n    \n     function getProductsIdsCustomer(uint accountIndex, uint storeIndex) public view returns(uint[]) {\n        return (\n          stores[vendorAccountsWithListedStores[accountIndex]][storeIndex].productIds    \n        );\n    }\n    \n     function getProductsIds(address account, uint storeIndex) public view returns(uint[]) {\n        return (\n          stores[account][storeIndex].productIds    \n        );\n    }\n    \n    function getProductsCount(uint storeIndex) public view returns(uint) {\n        return (\n          stores[msg.sender][storeIndex].productIds.length    \n        );\n    }\n    \n     function getProductVendor(uint storeIndex, uint productId) public constant returns(bytes32, bytes32, uint, uint, uint, address, uint) {\n          \n         // require(storeIndex < stores[msg.sender].length && productIndex < stores[msg.sender][storeIndex].products.length, \"PRODUCT INDEX DOES NOT EXIST\");\n           return getProduct(msg.sender, storeIndex, productId);\n     }\n     \n      function getProductCustomer(uint accountIndex, uint storeIndex, uint productId) public constant returns(bytes32, bytes32, uint, uint, uint, address, uint) {\n          \n         // require(storeIndex < stores[msg.sender].length && productIndex < stores[msg.sender][storeIndex].products.length, \"PRODUCT INDEX DOES NOT EXIST\");\n            \n          return getProduct(vendorAccountsWithListedStores[accountIndex] ,storeIndex, productId);\n     }\n     \n    function getProduct(address vendor, uint storeIndex, uint productId) public constant returns(bytes32, bytes32, uint, uint, uint, address, uint) {\n          \n         // require(storeIndex < stores[msg.sender].length && productIndex < stores[msg.sender][storeIndex].products.length, \"PRODUCT INDEX DOES NOT EXIST\");\n          uint quantity =  stores[vendor][storeIndex].products[productId].quantity;\n          return (\n                 stores[vendor][storeIndex].products[productId].name,\n                 stores[vendor][storeIndex].products[productId].description,\n                 stores[vendor][storeIndex].products[productId].price,\n                 stores[vendor][storeIndex].products[productId].productId,\n                 storeIndex,\n                 vendor,\n                 quantity\n              );\n     }\n        \n    \n    function createProduct(uint storeIndex,bytes32 productName, bytes32 description, uint price, uint quantity) public returns(uint) {\n         \n          //INCREMENT PRODUCT ID\n          uint productIdSlot = stores[msg.sender][storeIndex].productIds.length;\n        \n          uint productId =  ++stores[msg.sender][storeIndex].productIdIncrement;\n        \n        \n          //SAVE PRODUCT ID TO STORE\n         stores[msg.sender][storeIndex].productIds.push(productId);\n            //CREATE PRODUCT\n          stores[msg.sender][storeIndex].products[productId] = Product(productName, description, price, productIdSlot, productId, quantity);\n          \n          return productIdSlot;\n    }\n    \n      function editProduct(uint storeIndex, uint productId, bytes32 productName, bytes32 description, uint price, uint quantity) public  returns(bool) {\n        \n         stores[msg.sender][storeIndex].products[productId].name = productName;\n         stores[msg.sender][storeIndex].products[productId].description = description;\n         stores[msg.sender][storeIndex].products[productId].price = price;\n         stores[msg.sender][storeIndex].products[productId].quantity = quantity;\n         return true;\n    }\n    \n    \n     function deleteProduct(uint storeIndex, uint productId) public returns(bool) {\n          //require(storeIndex < stores[msg.sender].length && productIndex_to_delete < stores[msg.sender][storeIndex].products.length);\n\n          //DELETE PRODUCT\n          uint productIdIndex = stores[msg.sender][storeIndex].products[productId].productIdSlot;\n          \n          delete stores[msg.sender][storeIndex].products[productId];\n          \n          //GET PRODUCT IDS LIST  LENGTH \n           uint productsLength = stores[msg.sender][storeIndex].productIds.length;\n          //copy the last product to the index of the product to remove\n          stores[msg.sender][storeIndex].productIds[productIdIndex] = stores[msg.sender][storeIndex].productIds[productsLength - 1];\n          stores[msg.sender][storeIndex].productIds.length --;\n          \n          return true;\n    } \n}\n\n",
  "sourcePath": "/Users/yusufkelo/Documents/DEVELOPER/ETHEREAUM/blockchain-market/market-place/contracts/ProductManager.sol",
  "compiler": {
    "name": "solc",
    "version": "0.4.24+commit.e67f0147.Emscripten.clang"
  },
  "schemaVersion": "2.0.0",
  "updatedAt": "2018-08-07T19:41:28.693Z"
}