{
  "contractName": "ShoppingCartManager",
  "abi": [
    {
      "constant": true,
      "inputs": [],
      "name": "getVendorBalance",
      "outputs": [
        {
          "name": "",
          "type": "uint256"
        }
      ],
      "payable": false,
      "stateMutability": "view",
      "type": "function"
    },
    {
      "anonymous": false,
      "inputs": [
        {
          "indexed": false,
          "name": "cartSize",
          "type": "uint256"
        }
      ],
      "name": "ItemInsertedToCart",
      "type": "event"
    },
    {
      "anonymous": false,
      "inputs": [
        {
          "indexed": false,
          "name": "productQuantity",
          "type": "uint256"
        }
      ],
      "name": "CartItemUpdated",
      "type": "event"
    },
    {
      "anonymous": false,
      "inputs": [
        {
          "indexed": false,
          "name": "cartSize",
          "type": "uint256"
        }
      ],
      "name": "CartItemDeleted",
      "type": "event"
    },
    {
      "anonymous": false,
      "inputs": [
        {
          "indexed": false,
          "name": "status",
          "type": "bool"
        }
      ],
      "name": "PaymentCompleted",
      "type": "event"
    },
    {
      "anonymous": false,
      "inputs": [
        {
          "indexed": false,
          "name": "amount",
          "type": "uint256"
        }
      ],
      "name": "PaymentByTokenCompleted",
      "type": "event"
    },
    {
      "anonymous": false,
      "inputs": [
        {
          "indexed": false,
          "name": "amount",
          "type": "uint256"
        }
      ],
      "name": "PaymentByEtherCompleted",
      "type": "event"
    },
    {
      "constant": true,
      "inputs": [
        {
          "name": "productId",
          "type": "uint256"
        }
      ],
      "name": "getCartItem",
      "outputs": [
        {
          "name": "",
          "type": "uint256"
        },
        {
          "name": "",
          "type": "bytes32"
        },
        {
          "name": "",
          "type": "uint256"
        },
        {
          "name": "",
          "type": "uint256"
        },
        {
          "name": "",
          "type": "uint256"
        },
        {
          "name": "",
          "type": "uint256"
        },
        {
          "name": "",
          "type": "address"
        }
      ],
      "payable": false,
      "stateMutability": "view",
      "type": "function"
    },
    {
      "constant": true,
      "inputs": [],
      "name": "getCartPrice",
      "outputs": [
        {
          "name": "",
          "type": "uint256"
        }
      ],
      "payable": false,
      "stateMutability": "view",
      "type": "function"
    },
    {
      "constant": true,
      "inputs": [],
      "name": "getCartItemsCount",
      "outputs": [
        {
          "name": "",
          "type": "uint256"
        }
      ],
      "payable": false,
      "stateMutability": "view",
      "type": "function"
    },
    {
      "constant": true,
      "inputs": [],
      "name": "getCartItemsIds",
      "outputs": [
        {
          "name": "",
          "type": "uint256[]"
        }
      ],
      "payable": false,
      "stateMutability": "view",
      "type": "function"
    },
    {
      "constant": false,
      "inputs": [
        {
          "name": "vendorAccount",
          "type": "address"
        },
        {
          "name": "storeIndex",
          "type": "uint256"
        },
        {
          "name": "productId",
          "type": "uint256"
        },
        {
          "name": "productQuantity",
          "type": "uint256"
        }
      ],
      "name": "addItemToCart",
      "outputs": [
        {
          "name": "",
          "type": "bool"
        }
      ],
      "payable": false,
      "stateMutability": "nonpayable",
      "type": "function"
    },
    {
      "constant": false,
      "inputs": [
        {
          "name": "vendorAccount",
          "type": "address"
        },
        {
          "name": "storeIndex",
          "type": "uint256"
        },
        {
          "name": "productId",
          "type": "uint256"
        },
        {
          "name": "productQuantity",
          "type": "uint256"
        }
      ],
      "name": "updateCartItem",
      "outputs": [
        {
          "name": "",
          "type": "bool"
        }
      ],
      "payable": false,
      "stateMutability": "nonpayable",
      "type": "function"
    },
    {
      "constant": false,
      "inputs": [
        {
          "name": "productId",
          "type": "uint256"
        }
      ],
      "name": "deleteCartItem",
      "outputs": [
        {
          "name": "",
          "type": "bool"
        }
      ],
      "payable": false,
      "stateMutability": "nonpayable",
      "type": "function"
    },
    {
      "constant": true,
      "inputs": [
        {
          "name": "paymentMethod",
          "type": "uint256"
        },
        {
          "name": "vendorAccount",
          "type": "address"
        },
        {
          "name": "storeIndex",
          "type": "uint256"
        },
        {
          "name": "productId",
          "type": "uint256"
        }
      ],
      "name": "getItemsPrice",
      "outputs": [
        {
          "name": "",
          "type": "uint256"
        }
      ],
      "payable": false,
      "stateMutability": "view",
      "type": "function"
    },
    {
      "constant": true,
      "inputs": [
        {
          "name": "productPrice",
          "type": "uint256"
        },
        {
          "name": "purchasedQuantity",
          "type": "uint256"
        }
      ],
      "name": "getTotalItemsPrice",
      "outputs": [
        {
          "name": "",
          "type": "uint256"
        }
      ],
      "payable": false,
      "stateMutability": "pure",
      "type": "function"
    },
    {
      "constant": true,
      "inputs": [
        {
          "name": "paymentMethod",
          "type": "uint256"
        },
        {
          "name": "customerBalance",
          "type": "uint256"
        }
      ],
      "name": "getcustomerBalance",
      "outputs": [
        {
          "name": "",
          "type": "uint256"
        }
      ],
      "payable": false,
      "stateMutability": "view",
      "type": "function"
    },
    {
      "constant": false,
      "inputs": [
        {
          "name": "paymentMethod",
          "type": "uint256"
        },
        {
          "name": "customerAccount",
          "type": "address"
        },
        {
          "name": "vendorAccount",
          "type": "address"
        },
        {
          "name": "storeIndex",
          "type": "uint256"
        },
        {
          "name": "totalItemsPrice",
          "type": "uint256"
        }
      ],
      "name": "payVendor",
      "outputs": [
        {
          "name": "",
          "type": "bool"
        }
      ],
      "payable": false,
      "stateMutability": "nonpayable",
      "type": "function"
    },
    {
      "constant": false,
      "inputs": [],
      "name": "checkOut",
      "outputs": [
        {
          "name": "",
          "type": "bool"
        }
      ],
      "payable": true,
      "stateMutability": "payable",
      "type": "function"
    }
  ],
  "bytecode": "0x608060405261001564010000000061001a810204565b61002e565b60008054600160a060020a03191633179055565b61145c8061003d6000396000f3006080604052600436106100c45763ffffffff7c010000000000000000000000000000000000000000000000000000000060003504166311f8391881146100c957806360de181a146101225780636de0c1f2146101665780636e91c6b81461019057806373ac9d35146101b75780638297574b146101cc57806397cd16f7146101e15780639b8a373f146101fc578063c83a0ac314610226578063cba5751c14610241578063e63aefcb14610249578063f513747614610273578063fa846e5a1461028b575b600080fd5b3480156100d557600080fd5b506100e16004356102f0565b604080519788526020880196909652868601949094526060860192909252608085015260a0840152600160a060020a031660c0830152519081900360e00190f35b34801561012e57600080fd5b50610152600435600160a060020a036024358116906044351660643560843561042c565b604080519115158252519081900360200190f35b34801561017257600080fd5b50610152600160a060020a0360043516602435604435606435610633565b34801561019c57600080fd5b506101a5610735565b60408051918252519081900360200190f35b3480156101c357600080fd5b506101a561077c565b3480156101d857600080fd5b506101a5610792565b3480156101ed57600080fd5b506101a56004356024356108f2565b34801561020857600080fd5b506101a5600435600160a060020a03602435166044356064356109b5565b34801561023257600080fd5b506101a5600435602435610a78565b610152610a85565b34801561025557600080fd5b50610152600160a060020a0360043516602435604435606435610e9f565b34801561027f57600080fd5b506101526004356111b0565b34801561029757600080fd5b506102a06112f5565b60408051602080825283518183015283519192839290830191858101910280838360005b838110156102dc5781810151838201526020016102c4565b505050509050019250505060405180910390f35b33600090815260016020818152604080842085855283018252808420600281015481549190940154600160a060020a031680865260049093529084208054859485948594859485948594939185918590811061034857fe5b600091825260208083208f84526006928302016005018152604080842090920154600160a060020a03861684526004909152912080549192508d918690811061038d57fe5b906000526020600020906006020160050160008e8152602001908152602001600020600001546004600085600160a060020a0316600160a060020a03168152602001908152602001600020868154811015156103e557fe5b906000526020600020906006020160050160008f815260200190815260200160002060020154838688879a509a509a509a509a509a509a5050505050919395979092949650565b6000600186600181111561043c57fe5b600181111561044757fe5b141561052857600654604080517f23b872dd000000000000000000000000000000000000000000000000000000008152600160a060020a038881166004830152878116602483015260448201869052915191909216916323b872dd9160648083019260209291908290030181600087803b1580156104c457600080fd5b505af11580156104d8573d6000803e3d6000fd5b505050506040513d60208110156104ee57600080fd5b50506040805183815290517f7ef3d18d8958a97c57e6d519abf1c9c919d0a78e1d037bf25900a82effaa10809181900360200190a161062a565b600160a060020a0384166000908152600460205260409020805461056991908590811061055157fe5b90600052602060002090600602016002015483611359565b600160a060020a038516600090815260046020526040902080548590811061058d57fe5b9060005260206000209060060201600201819055506105d46005600086600160a060020a0316600160a060020a031681526020019081526020016000206007015483611359565b600160a060020a03851660009081526005602090815260409182902060070192909255805184815290517ff1a2788fec7acfb18c707f70d5f3aba63891818f4c3263cfd26868a5f1849b94929181900390910190a15b95945050505050565b600160a060020a038416600090815260046020526040812080548391908690811061065a57fe5b6000918252602080832087845260056006909302018201905260409091200154101561068557600080fd5b600160a060020a03851660009081526004602052604081208054869081106106a957fe5b6000918252602080832087845260056006909302019190910190526040902060040154116106d657600080fd5b336000908152600160208181526040808420878552909201815291819020849055805184815290517feff915af5abcf733d88ab55ebab7a6842612483ce2447d6de6af02196cbc5493929181900390910190a15060015b949350505050565b600060013360009081526005602052604090206003015460ff16600181111561075a57fe5b1461076457600080fd5b50336000908152600560205260409020600701545b90565b3360009081526001602052604090206002015490565b6000806000806107a06113a1565b600080600095505b336000908152600160205260409020600201548510156108e757336000908152600160208181526040808420888552909201905290206003015460ff1615156108dc5733600090815260016020526040902060020180548690811061080957fe5b6000918252602080832090910154338352600180835260408085208386528201845280852081516080810183528154815292810154600160a060020a0316838601819052600282015484840190815260039092015460ff16151560608501528652600490945290932091518254919750929550909190811061088757fe5b6000918252602080832087845260056006909302019190910181526040808320600201543384526001808452828520898652019092529091205490925090506108d9866108d48484611366565b611359565b95505b6001909401936107a8565b509395945050505050565b6000600183600181111561090257fe5b600181111561090d57fe5b14156109ac57600654604080517f9b96eece0000000000000000000000000000000000000000000000000000000081523360048201529051600160a060020a0390921691639b96eece916024808201926020929091908290030181600087803b15801561097957600080fd5b505af115801561098d573d6000803e3d6000fd5b505050506040513d60208110156109a357600080fd5b505190506109af565b50805b92915050565b600060018560018111156109c557fe5b60018111156109d057fe5b1415610a2757600160a060020a03841660009081526004602052604090208054849081106109fa57fe5b9060005260206000209060060201600501600083815260200190815260200160002060060154905061072d565b600160a060020a0384166000908152600460205260409020805484908110610a4b57fe5b9060005260206000209060060201600501600083815260200190815260200160002060020154905061072d565b60008061072d8484611366565b33600090815260016020526040812060020154819081908190819081908190819081908110610ab357600080fd5b610abb610792565b341015610ac757600080fd5b349750600096505b33600090815260016020526040902060020154871015610e355733600090815260016020526040812060020180549091908110610b0857fe5b60009182526020808320909101543383526001808352604080852083865290910190925291206003015490965060ff161515610e2a573360009081526001602081815260408084208a855283018252808420805460028201549190940154600160a060020a0316808652600490935290842080549399509097509095509086908110610b9057fe5b600091825260208083208a84526005600690930201919091019052604090206004015411610bbd57600080fd5b600160a060020a0383166000908152600460205260409020805486919086908110610be457fe5b600091825260208083208a8452600560069093020182019052604090912001541015610c0f57600080fd5b6001600160a060020a03841660009081526005602052604090206003015460ff166001811115610c3b57fe5b14610c4557600080fd5b600160a060020a0383166000908152600460205260409020805485908110610c6957fe5b90600052602060002090600602016005016000878152602001908152602001600020600201549150610c9b8286611366565b905080881015610caa57600080fd5b610cb4888261138f565b3360009081526001602081815260408084208b855283018252808420600301805460ff1916909317909255600160a060020a03871683526004905290208054919950610d1c9186908110610d0457fe5b90600052602060002090600602016002015482611359565b600160a060020a0384166000908152600460205260409020805486908110610d4057fe5b906000526020600020906006020160020181905550610d876005600085600160a060020a0316600160a060020a031681526020019081526020016000206007015482611359565b600160a060020a03841660009081526005602090815260408083206007019390935560049052208054610de5919086908110610dbf57fe5b600091825260208083208a8452600560069093020182019052604090912001548661138f565b600160a060020a0384166000908152600460205260409020805486908110610e0957fe5b600091825260208083208a8452600560069093020182019052604090912001555b600190960195610acf565b604080516001815290517f0cc34d11f43af89bf3aff732f3999051c4251b5ccc351a54712ea98b003a22319181900360200190a133600090815260016020526040812090610e8660028301826113c8565b6003820160009055505060019850505050505050505090565b600160a060020a038416600090815260046020526040812080548291849187908110610ec757fe5b60009182526020808320888452600560069093020182019052604090912001541015610ef257600080fd5b600160a060020a0386166000908152600460205260408120805487908110610f1657fe5b600091825260208083208884526005600690930201919091019052604090206004015411610f4357600080fd5b6001600160a060020a03871660009081526005602052604090206003015460ff166001811115610f6f57fe5b14610f7957600080fd5b6001600033600160a060020a0316600160a060020a031681526020019081526020016000206002018054905090506001600033600160a060020a0316600160a060020a031681526020019081526020016000206002018490806001815401808255809150509060018203906000526020600020016000909192909190915055506040805190810160405280600115158152602001828152506001600033600160a060020a0316600160a060020a03168152602001908152602001600020600001600086815260200190815260200160002060008201518160000160006101000a81548160ff0219169083151502179055506020820151816001015590505060806040519081016040528084815260200187600160a060020a03168152602001868152602001600015158152506001600033600160a060020a0316600160a060020a0316815260200190815260200160002060010160008681526020019081526020016000206000820151816000015560208201518160010160006101000a815481600160a060020a030219169083600160a060020a031602179055506040820151816002015560608201518160030160006101000a81548160ff0219169083151502179055509050507f2480268f1c1956aeaceecb84a6f17e474bc61bb5bb84ec8401372ed0a6133ee86001600033600160a060020a0316600160a060020a03168152602001908152602001600020600201805490506040518082815260200191505060405180910390a150600195945050505050565b336000818152600160208181526040808420868552808352908420830154948452919052600201805491929160001981019081106111ea57fe5b60009182526020808320909101543383526001909152604090912060020180548390811061121457fe5b60009182526020808320909101929092553381526001909152604090206002018054906112459060001983016113e9565b503360008181526001602081815260408084208885528084018352818520858155808501805473ffffffffffffffffffffffffffffffffffffffff1916905560028082018790556003909101805460ff19908116909155828552838720805490911681558501869055959094529181529290910154815190815290517f7deaca4d9411ae1cc8abc39e3b082a716a0c9e3458e2e7ee60649689fa423ce2929181900390910190a150600192915050565b3360009081526001602090815260409182902060020180548351818402810184019094528084526060939283018282801561134f57602002820191906000526020600020905b81548152602001906001019080831161133b575b5050505050905090565b818101828110156109af57fe5b6000821515611377575060006109af565b5081810281838281151561138757fe5b04146109af57fe5b60008282111561139b57fe5b50900390565b60408051608081018252600080825260208201819052918101829052606081019190915290565b50805460008255906000526020600020908101906113e69190611412565b50565b81548183558181111561140d5760008381526020902061140d918101908301611412565b505050565b61077991905b8082111561142c5760008155600101611418565b50905600a165627a7a723058204de516326003de7888b3bf7cdaa29a0676a16da11dd39141a7e44482f85371d50029",
  "source": "pragma solidity ^0.4.0;\nimport './UserManager.sol';\nimport \"./Ownerble.sol\";\nimport \"./StoreBase.sol\";\nimport './SafeMath.sol';\nimport \"./VendorBase.sol\";\nimport \"./SpinelTokenSale.sol\";\n\ncontract ShoppingCartManager is Ownerble, StoreBase, VendorBase {\n    \n    SpinelTokenSale internal tokenSaleContract_shoppingCart;\n\n\n    event ItemInsertedToCart(uint cartSize);\n    event CartItemUpdated(uint productQuantity);\n    event CartItemDeleted(uint cartSize);\n    event PaymentCompleted(bool status);\n    event PaymentByTokenCompleted(uint256 amount);\n    event PaymentByEtherCompleted(uint256 amount);\n\n    function getCartItem(uint productId) public view returns(uint, bytes32, uint, uint, uint, uint, address){\n        //get store index\n        uint storeIndex = shoppingCarts[msg.sender].products[productId].storeIndex;\n        uint productQuantityToPurchase = shoppingCarts[msg.sender].products[productId].productQuantity;\n        address vendorAccount = shoppingCarts[msg.sender].products[productId].vendorAccount;\n        uint priceInSpinelToken = stores[vendorAccount][storeIndex].products[productId].priceInSpinelToken;\n        //get product details\n       // bytes32 memory productName = stores[vendorAccount][storeIndex].products[productId].name;\n       // bytes32 memory productDescription = stores[vendorAccount][storeIndex].products[productId].description;\n        //uint productPrice = stores[vendorAccount][storeIndex].products[productId].price;\n      \n        return (\n            productId,\n            stores[vendorAccount][storeIndex].products[productId].name,//productName\n            stores[vendorAccount][storeIndex].products[productId].price,//productPrice,\n            priceInSpinelToken,\n            productQuantityToPurchase,\n            storeIndex,\n            vendorAccount\n        );\n      // return shoppingCarts[msg.sender].cartPrice;\n    }\n    \n \n    function getCartPrice() public view returns(uint){\n       // return shoppingCarts[msg.sender].cartPrice;\n        uint cartPrice = 0;\n       // uint productPrice ;\n        for(uint i; i < shoppingCarts[msg.sender].productIds.length; i++) {\n           if(shoppingCarts[msg.sender].products[productId].purchaseComplete == false) {\n             uint productId = shoppingCarts[msg.sender].productIds[i];\n             ShoppingCartItem memory item = shoppingCarts[msg.sender].products[productId];\n             \n            //  if(PaymentMethod(paymentMethod) == PaymentMethod.Token) {\n            //        productPrice = stores[item.vendorAccount][item.storeIndex].products[productId].priceInSpinelToken;\n            //  } else {\n            //      productPrice = stores[item.vendorAccount][item.storeIndex].products[productId].price;\n            //  }\n             uint productPrice = stores[item.vendorAccount][item.storeIndex].products[productId].price;\n             uint productQuantity = shoppingCarts[msg.sender].products[productId].productQuantity;\n             \n             cartPrice = SafeMath.add(cartPrice, SafeMath.mul(productPrice, productQuantity));\n           }\n        }\n        \n        return cartPrice;\n    }\n\n    // function getCartPriceInTokenValue() public view returns(uint256) {\n    //       return tokenSaleContract_shoppingCart.toSpinel(getCartPrice());\n    // }\n    \n    function getCartItemsCount() public view returns(uint){\n        return shoppingCarts[msg.sender].productIds.length;\n    }\n    \n    function getCartItemsIds() public view returns(uint[]){\n        return shoppingCarts[msg.sender].productIds;\n    }\n    function addItemToCart(address vendorAccount, uint storeIndex, uint productId, uint productQuantity) public returns(bool){\n        \n       // delete shoppingCarts[msg.sender].cartItemSlot[productId];\n        //check if quantity in the store is equql or greater than purchased quantity\n        require(stores[vendorAccount][storeIndex].products[productId].quantity >= productQuantity);\n        require(stores[vendorAccount][storeIndex].products[productId].productId >0);\n        // require(stores[vendorAccount][storeIndex].products[productId].productId > 0 && \n        // shoppingCarts[msg.sender].cartItemSlot[productId].initialized == false);\n        //require that the vendor account is approved\n        require(vendors[vendorAccount].state == AccountState.Approved);\n        //GET PRODUCT SLOT / INDEX IN THE CART PRODUCT IDS LIST\n        uint productSlot = shoppingCarts[msg.sender].productIds.length;\n        //ADD PRODUCT ID TO LIST OF CART PRODUCT IDS, USED TO RETRIEVE PRODUCTS FOR DISPLAY\n        shoppingCarts[msg.sender].productIds.push(productId);\n        //INITIALZE SLOT WHICH CONTAINS THE ID INDEX/ SLOT\n        shoppingCarts[msg.sender].cartItemSlot[productId] = CartItemSlot(true, productSlot);\n   \n                 \n        //add product details\n         shoppingCarts[msg.sender].products[productId] = ShoppingCartItem({\n            productQuantity: productQuantity,\n            vendorAccount: vendorAccount,\n            storeIndex: storeIndex,\n            purchaseComplete: false\n          });\n\n          emit ItemInsertedToCart( shoppingCarts[msg.sender].productIds.length);\n          //update cart price \n        return  true;\n\n    }\n    \n    function updateCartItem(address vendorAccount, uint storeIndex, uint productId, uint productQuantity) public returns(bool){\n        //check if quantity in the store is equql or greater than purchased quantity\n        require(stores[vendorAccount][storeIndex].products[productId].quantity >= productQuantity);\n        \n        // require(stores[vendorAccount][storeIndex].products[productId].productId > 0 && \n        // shoppingCarts[msg.sender].cartItemSlot[productId].initialized == true);\n\n           require(stores[vendorAccount][storeIndex].products[productId].productId > 0 );\n\n           \n\n         shoppingCarts[msg.sender].products[productId].productQuantity = productQuantity;\n\n        emit CartItemUpdated(shoppingCarts[msg.sender].products[productId].productQuantity);\n\n         return true;\n         \n    }\n    \n   \n    \n    function deleteCartItem(uint productId ) public returns(bool) {\n        //get product id index\n        uint productCartIndex = shoppingCarts[msg.sender].cartItemSlot[productId].slot;\n        //remove the deleted product id by exchanging position with last item\n        shoppingCarts[msg.sender].productIds[productCartIndex] = shoppingCarts[msg.sender].productIds[shoppingCarts[msg.sender].productIds.length - 1];\n         shoppingCarts[msg.sender].productIds.length --;\n     \n        delete shoppingCarts[msg.sender].products[productId];\n        delete shoppingCarts[msg.sender].cartItemSlot[productId];\n\n        emit CartItemDeleted(shoppingCarts[msg.sender].productIds.length);\n        \n        return true;\n    }\n    \n    function deductDeletedCartItemPriceFromCartPrice(uint productPrice, uint purchasedQuantity, \n    uint currentCartPrice) private pure returns(uint){\n            \n            return SafeMath.sub(currentCartPrice, (SafeMath.mul(productPrice, purchasedQuantity )));\n    }\n\n    // function getCartPriceByPaymentMethod(uint256 paymentMethod)  public view returns(uint256) {\n\n    //     if(PaymentMethod(paymentMethod) == PaymentMethod.Token){\n    //         return getCartPriceInTokenValue();\n    //     } else {\n    //         return getCartPrice();\n    //     }\n    // }\n\n   \n\n    // function isCustomerBalanceSufficient(uint256 paymentMethod, uint customerBalanceInWei) public view returns(bool) {\n    //     if(PaymentMethod(paymentMethod) == PaymentMethod.Token) {\n    //         return tokenSaleContract_shoppingCart.getBalanceOf(msg.sender) >= getCartPrice(paymentMethod);//getCartPriceInTokenValue();\n    //     } else {\n    //         return customerBalanceInWei >= getCartPrice(paymentMethod);\n    //     }\n    // }\n\n    function getItemsPrice(uint256 paymentMethod,  address vendorAccount, uint256 storeIndex, uint productId) public view returns(uint256) {\n\n\n        if(PaymentMethod(paymentMethod) == PaymentMethod.Token) {\n               return stores[vendorAccount][storeIndex].products[productId].priceInSpinelToken;\n        } else {\n            return stores[vendorAccount][storeIndex].products[productId].price;\n        }\n    }\n\n  \n\n    function getTotalItemsPrice(uint256 productPrice, uint256 purchasedQuantity) public pure returns(uint256) {\n\n        uint256 totalItemsPrice = SafeMath.mul(productPrice, purchasedQuantity);\n\n        return totalItemsPrice;\n\n        // if(PaymentMethod(paymentMethod) == PaymentMethod.Token) {\n        //        return tokenSaleContract_shoppingCart.toSpinel(totalItemsPrice);\n        // } else {\n        //     return totalItemsPrice;\n        // }\n    }\n\n    function getcustomerBalance(uint256 paymentMethod, uint256 customerBalance) public view returns(uint256){\n         if(PaymentMethod(paymentMethod) == PaymentMethod.Token) {\n               return tokenSaleContract_shoppingCart.getBalanceOf(msg.sender);\n        } else {\n            return customerBalance;\n        }\n    }\n\n    function payVendor(uint256 paymentMethod, address customerAccount, address vendorAccount, uint256 storeIndex,\n     uint256 totalItemsPrice )\n      public  returns(bool) {\n        if(PaymentMethod(paymentMethod) == PaymentMethod.Token) {\n             tokenSaleContract_shoppingCart.transferFrom(customerAccount, vendorAccount, totalItemsPrice);\n             emit PaymentByTokenCompleted(totalItemsPrice);\n        } else {\n         \n          stores[vendorAccount][storeIndex].revenue = SafeMath.add(stores[vendorAccount][storeIndex].revenue, totalItemsPrice);\n                    //UPDATE RETRIEVABLE BALANCE\n          vendors[vendorAccount].balance = SafeMath.add(vendors[vendorAccount].balance, totalItemsPrice);\n          emit PaymentByEtherCompleted(totalItemsPrice);\n        }\n\n         \n                   \n    }\n\n//  function checkOutTokenPayment(uint256 paymentMethod) public payable returns(bool){\n//         require(shoppingCarts[msg.sender].productIds.length > 0);\n//         require(isCustomerBalanceSufficient(paymentMethod, msg.value));\n//         uint customerBalance = getcustomerBalance(paymentMethod, msg.value);\n//         for(uint i = 0; i< shoppingCarts[msg.sender].productIds.length; i++) {\n//             //\n//            uint productId = shoppingCarts[msg.sender].productIds[0];\n//             if(shoppingCarts[msg.sender].products[productId].purchaseComplete ==false) {\n            \n//                     uint purchasedQuantity = shoppingCarts[msg.sender].products[productId].productQuantity;\n//                     uint storeIndex = shoppingCarts[msg.sender].products[productId].storeIndex;\n//                     address vendorAccount = shoppingCarts[msg.sender].products[productId].vendorAccount;\n//                     //check if product exists\n//                     require(stores[vendorAccount][storeIndex].products[productId].productId > 0);\n//                     //check the quantity available equal to or greater than purchased quantity\n//                     require(stores[vendorAccount][storeIndex].products[productId].quantity >= purchasedQuantity);\n//                     //require the vendorAccount is a vendor\n//                     require(vendors[vendorAccount].state == AccountState.Approved);\n//                     // //GET PRODUCT PRIVPRODUCT\n//                     //\n//                     uint productPrice = getItemsPrice(paymentMethod, vendorAccount, storeIndex, productId);//stores[vendorAccount][storeIndex].products[productId].price;\n                    \n//                     uint totalItemsPrice = getTotalItemsPrice(productPrice, purchasedQuantity);\n                \n                     \n//                     require(customerBalance >= totalItemsPrice);\n                    \n//                      customerBalance = SafeMath.sub(customerBalance, totalItemsPrice);\n\n//                      shoppingCarts[msg.sender].products[productId].purchaseComplete = true;\n//                      //uint256 paymentMethod, address customerAccount, address vendorAccount, uint256 storeIndexuint256 totalItemsPrice\n//                      payVendor(paymentMethod, msg.sender,vendorAccount, storeIndex, totalItemsPrice);\n                   \n//                     // //\n                    \n//                     // //REDUCE PRODUCT quantity\n//                     // stores[vendorAccount][storeIndex].products[productId].quantity = SafeMath\n//                     // .sub(stores[vendorAccount][storeIndex].products[productId].quantity,\n//                     //     purchasedQuantity\n//                     // );\n                    \n//               }\n//         }\n\n//         emit PaymentCompleted(true);\n//          return true;\n//     }\n\n    \n   \n    function checkOut() public payable returns(bool) {\n        require(shoppingCarts[msg.sender].productIds.length > 0);\n        require(msg.value >= getCartPrice());\n        uint customerBalance = msg.value;\n        for(uint i = 0; i< shoppingCarts[msg.sender].productIds.length; i++) {\n            //\n            uint productId = shoppingCarts[msg.sender].productIds[0];\n            if(shoppingCarts[msg.sender].products[productId].purchaseComplete ==false) {\n            \n                    uint purchasedQuantity = shoppingCarts[msg.sender].products[productId].productQuantity;\n                    uint storeIndex = shoppingCarts[msg.sender].products[productId].storeIndex;\n                    address vendorAccount = shoppingCarts[msg.sender].products[productId].vendorAccount;\n                    //check if product exists\n                    require(stores[vendorAccount][storeIndex].products[productId].productId > 0);\n                    //check the quantity available equal to or greater than purchased quantity\n                    require(stores[vendorAccount][storeIndex].products[productId].quantity >= purchasedQuantity);\n                    //require the vendorAccount is a vendor\n                    require(vendors[vendorAccount].state == AccountState.Approved);\n                    //GET PRODUCT PRIVPRODUCT\n                    uint productPrice = stores[vendorAccount][storeIndex].products[productId].price;\n                    \n                    uint totalItemsPrice = SafeMath.mul(productPrice, purchasedQuantity);\n                     \n                    require(customerBalance >= totalItemsPrice);\n                    \n                    customerBalance = SafeMath.sub(customerBalance, totalItemsPrice);\n                     shoppingCarts[msg.sender].products[productId].purchaseComplete = true;\n                    //UPDATE STORE revenue // READ ONLY\n                    stores[vendorAccount][storeIndex].revenue = SafeMath.add(stores[vendorAccount][storeIndex].revenue, totalItemsPrice);\n                    //UPDATE RETRIEVABLE BALANCE\n                    vendors[vendorAccount].balance = SafeMath.add(vendors[vendorAccount].balance, totalItemsPrice);\n                    //\n                    \n                    //REDUCE PRODUCT quantity\n                    stores[vendorAccount][storeIndex].products[productId].quantity = SafeMath\n                    .sub(stores[vendorAccount][storeIndex].products[productId].quantity,\n                        purchasedQuantity\n                    );\n                    \n                     //remove item from slot\n            \n\n                   \n            \n              }\n              \n             \n            \n        }\n        \n        emit PaymentCompleted(true);\n        delete shoppingCarts[msg.sender];\n         return true;\n       //stores\n        \n    }\n    \n}",
  "sourcePath": "/Users/yusufkelo/Documents/DEVELOPER/ETHEREAUM/blockchain-market/market-place/contracts/ShoppingCartManager.sol",
  "compiler": {
    "name": "solc",
    "version": "0.4.24+commit.e67f0147.Emscripten.clang"
  },
  "schemaVersion": "2.0.0",
  "updatedAt": "2018-08-23T12:05:25.152Z"
}