{
  "contractName": "ShoppingCartManager",
  "abi": [
    {
      "constant": false,
      "inputs": [
        {
          "name": "orderId",
          "type": "uint256"
        },
        {
          "name": "grandTotal",
          "type": "uint256"
        },
        {
          "name": "paymentMethod",
          "type": "uint256"
        },
        {
          "name": "paymentDateTimeStamp",
          "type": "uint256"
        }
      ],
      "name": "createOrderHistory",
      "outputs": [
        {
          "name": "",
          "type": "bool"
        }
      ],
      "payable": false,
      "stateMutability": "nonpayable",
      "type": "function"
    },
    {
      "constant": false,
      "inputs": [
        {
          "name": "orderId",
          "type": "uint256"
        },
        {
          "name": "productId",
          "type": "uint256"
        },
        {
          "name": "price",
          "type": "uint256"
        },
        {
          "name": "quantity",
          "type": "uint256"
        },
        {
          "name": "totalItemsPrice",
          "type": "uint256"
        },
        {
          "name": "vendorAccount",
          "type": "address"
        },
        {
          "name": "storeIndex",
          "type": "uint256"
        },
        {
          "name": "paymentMethod",
          "type": "uint256"
        }
      ],
      "name": "addTransaction",
      "outputs": [
        {
          "name": "",
          "type": "bool"
        }
      ],
      "payable": false,
      "stateMutability": "nonpayable",
      "type": "function"
    },
    {
      "constant": true,
      "inputs": [],
      "name": "getCustomerOrdersHistoryCount",
      "outputs": [
        {
          "name": "",
          "type": "uint256"
        }
      ],
      "payable": false,
      "stateMutability": "view",
      "type": "function"
    },
    {
      "constant": true,
      "inputs": [
        {
          "name": "orderId",
          "type": "uint256"
        }
      ],
      "name": "getOrderHistory",
      "outputs": [
        {
          "name": "",
          "type": "uint256"
        },
        {
          "name": "",
          "type": "uint256"
        }
      ],
      "payable": false,
      "stateMutability": "view",
      "type": "function"
    },
    {
      "constant": true,
      "inputs": [],
      "name": "getVendorBalance",
      "outputs": [
        {
          "name": "",
          "type": "uint256"
        }
      ],
      "payable": false,
      "stateMutability": "view",
      "type": "function"
    },
    {
      "constant": true,
      "inputs": [
        {
          "name": "",
          "type": "address"
        }
      ],
      "name": "customerOrdersCount",
      "outputs": [
        {
          "name": "",
          "type": "uint256"
        }
      ],
      "payable": false,
      "stateMutability": "view",
      "type": "function"
    },
    {
      "constant": true,
      "inputs": [
        {
          "name": "",
          "type": "address"
        },
        {
          "name": "",
          "type": "address"
        }
      ],
      "name": "allowance",
      "outputs": [
        {
          "name": "",
          "type": "uint256"
        }
      ],
      "payable": false,
      "stateMutability": "view",
      "type": "function"
    },
    {
      "constant": true,
      "inputs": [
        {
          "name": "orderId",
          "type": "uint256"
        },
        {
          "name": "transactionIndex",
          "type": "uint256"
        }
      ],
      "name": "getOrderTransaction",
      "outputs": [
        {
          "name": "",
          "type": "bytes32"
        },
        {
          "name": "",
          "type": "uint256"
        },
        {
          "name": "",
          "type": "uint256"
        },
        {
          "name": "",
          "type": "address"
        },
        {
          "name": "",
          "type": "bytes32"
        },
        {
          "name": "",
          "type": "uint256"
        }
      ],
      "payable": false,
      "stateMutability": "view",
      "type": "function"
    },
    {
      "constant": true,
      "inputs": [
        {
          "name": "orderId",
          "type": "uint256"
        }
      ],
      "name": "getOrderTransactionsCount",
      "outputs": [
        {
          "name": "",
          "type": "uint256"
        }
      ],
      "payable": false,
      "stateMutability": "view",
      "type": "function"
    },
    {
      "anonymous": false,
      "inputs": [
        {
          "indexed": false,
          "name": "cartSize",
          "type": "uint256"
        }
      ],
      "name": "ItemInsertedToCart",
      "type": "event"
    },
    {
      "anonymous": false,
      "inputs": [
        {
          "indexed": false,
          "name": "productQuantity",
          "type": "uint256"
        }
      ],
      "name": "CartItemUpdated",
      "type": "event"
    },
    {
      "anonymous": false,
      "inputs": [
        {
          "indexed": false,
          "name": "cartSize",
          "type": "uint256"
        }
      ],
      "name": "CartItemDeleted",
      "type": "event"
    },
    {
      "anonymous": false,
      "inputs": [
        {
          "indexed": false,
          "name": "status",
          "type": "bool"
        }
      ],
      "name": "PaymentCompleted",
      "type": "event"
    },
    {
      "anonymous": false,
      "inputs": [
        {
          "indexed": false,
          "name": "amount",
          "type": "uint256"
        }
      ],
      "name": "PaymentByTokenCompleted",
      "type": "event"
    },
    {
      "anonymous": false,
      "inputs": [
        {
          "indexed": false,
          "name": "amount",
          "type": "uint256"
        }
      ],
      "name": "PaymentByEtherCompleted",
      "type": "event"
    },
    {
      "constant": true,
      "inputs": [
        {
          "name": "productId",
          "type": "uint256"
        }
      ],
      "name": "getCartItem",
      "outputs": [
        {
          "name": "",
          "type": "uint256"
        },
        {
          "name": "",
          "type": "bytes32"
        },
        {
          "name": "",
          "type": "uint256"
        },
        {
          "name": "",
          "type": "uint256"
        },
        {
          "name": "",
          "type": "uint256"
        },
        {
          "name": "",
          "type": "uint256"
        },
        {
          "name": "",
          "type": "address"
        }
      ],
      "payable": false,
      "stateMutability": "view",
      "type": "function"
    },
    {
      "constant": true,
      "inputs": [
        {
          "name": "paymentMethod",
          "type": "uint256"
        }
      ],
      "name": "getCartPrice",
      "outputs": [
        {
          "name": "",
          "type": "uint256"
        }
      ],
      "payable": false,
      "stateMutability": "view",
      "type": "function"
    },
    {
      "constant": true,
      "inputs": [],
      "name": "getCartItemsCount",
      "outputs": [
        {
          "name": "",
          "type": "uint256"
        }
      ],
      "payable": false,
      "stateMutability": "view",
      "type": "function"
    },
    {
      "constant": true,
      "inputs": [],
      "name": "getCartItemsIds",
      "outputs": [
        {
          "name": "",
          "type": "uint256[]"
        }
      ],
      "payable": false,
      "stateMutability": "view",
      "type": "function"
    },
    {
      "constant": false,
      "inputs": [
        {
          "name": "vendorAccount",
          "type": "address"
        },
        {
          "name": "storeIndex",
          "type": "uint256"
        },
        {
          "name": "productId",
          "type": "uint256"
        },
        {
          "name": "productQuantity",
          "type": "uint256"
        }
      ],
      "name": "addItemToCart",
      "outputs": [
        {
          "name": "",
          "type": "bool"
        }
      ],
      "payable": false,
      "stateMutability": "nonpayable",
      "type": "function"
    },
    {
      "constant": false,
      "inputs": [
        {
          "name": "vendorAccount",
          "type": "address"
        },
        {
          "name": "storeIndex",
          "type": "uint256"
        },
        {
          "name": "productId",
          "type": "uint256"
        },
        {
          "name": "productQuantity",
          "type": "uint256"
        }
      ],
      "name": "updateCartItem",
      "outputs": [
        {
          "name": "",
          "type": "bool"
        }
      ],
      "payable": false,
      "stateMutability": "nonpayable",
      "type": "function"
    },
    {
      "constant": false,
      "inputs": [
        {
          "name": "productId",
          "type": "uint256"
        }
      ],
      "name": "deleteCartItem",
      "outputs": [
        {
          "name": "",
          "type": "bool"
        }
      ],
      "payable": false,
      "stateMutability": "nonpayable",
      "type": "function"
    },
    {
      "constant": true,
      "inputs": [
        {
          "name": "paymentMethod",
          "type": "uint256"
        },
        {
          "name": "customerBalanceInWei",
          "type": "uint256"
        }
      ],
      "name": "isCustomerBalanceSufficient",
      "outputs": [
        {
          "name": "",
          "type": "bool"
        }
      ],
      "payable": false,
      "stateMutability": "view",
      "type": "function"
    },
    {
      "constant": true,
      "inputs": [
        {
          "name": "paymentMethod",
          "type": "uint256"
        },
        {
          "name": "vendorAccount",
          "type": "address"
        },
        {
          "name": "storeIndex",
          "type": "uint256"
        },
        {
          "name": "productId",
          "type": "uint256"
        }
      ],
      "name": "getItemsPrice",
      "outputs": [
        {
          "name": "",
          "type": "uint256"
        }
      ],
      "payable": false,
      "stateMutability": "view",
      "type": "function"
    },
    {
      "constant": true,
      "inputs": [
        {
          "name": "productPrice",
          "type": "uint256"
        },
        {
          "name": "purchasedQuantity",
          "type": "uint256"
        }
      ],
      "name": "getTotalItemsPrice",
      "outputs": [
        {
          "name": "",
          "type": "uint256"
        }
      ],
      "payable": false,
      "stateMutability": "pure",
      "type": "function"
    },
    {
      "constant": true,
      "inputs": [
        {
          "name": "paymentMethod",
          "type": "uint256"
        },
        {
          "name": "customerBalance",
          "type": "uint256"
        }
      ],
      "name": "getcustomerBalance",
      "outputs": [
        {
          "name": "",
          "type": "uint256"
        }
      ],
      "payable": false,
      "stateMutability": "view",
      "type": "function"
    },
    {
      "constant": false,
      "inputs": [
        {
          "name": "paymentMethod",
          "type": "uint256"
        },
        {
          "name": "customerAccount",
          "type": "address"
        },
        {
          "name": "vendorAccount",
          "type": "address"
        },
        {
          "name": "storeIndex",
          "type": "uint256"
        },
        {
          "name": "totalItemsPrice",
          "type": "uint256"
        }
      ],
      "name": "payVendor",
      "outputs": [
        {
          "name": "",
          "type": "bool"
        }
      ],
      "payable": false,
      "stateMutability": "nonpayable",
      "type": "function"
    },
    {
      "constant": false,
      "inputs": [
        {
          "name": "paymentMethod",
          "type": "uint256"
        },
        {
          "name": "paymentDateTimeStamp",
          "type": "uint256"
        }
      ],
      "name": "checkOutTokenPayment",
      "outputs": [
        {
          "name": "",
          "type": "bool"
        }
      ],
      "payable": true,
      "stateMutability": "payable",
      "type": "function"
    }
  ],
  "bytecode": "0x608060405261001564010000000061001a810204565b61002e565b60008054600160a060020a03191633179055565b611c298061003d6000396000f3006080604052600436106101275763ffffffff7c010000000000000000000000000000000000000000000000000000000060003504166311f83918811461012c5780631d8e75c31461018557806320561e78146101ba57806331becb99146101f057806341f6d87514610217578063571350af146102325780635fb973761461024a57806360de181a1461027b5780636de0c1f2146102ab5780636e91c6b8146102d557806373ac9d35146102ea5780638a3046ba146102ff57806397cd16f7146103205780639b8a373f1461033b578063c83a0ac314610365578063dd62ed3e14610380578063e16002b1146103a7578063e63aefcb146103fd578063e82ca79414610427578063eba1160914610435578063f51374761461044d578063fa846e5a14610465575b600080fd5b34801561013857600080fd5b506101446004356104ca565b604080519788526020880196909652868601949094526060860192909252608085015260a0840152600160a060020a031660c0830152519081900360e00190f35b34801561019157600080fd5b506101a6600435602435604435606435610606565b604080519115158252519081900360200190f35b3480156101c657600080fd5b506101a6600435602435604435606435608435600160a060020a0360a4351660c43560e435610682565b3480156101fc57600080fd5b506102056107e1565b60408051918252519081900360200190f35b34801561022357600080fd5b506101a66004356024356107f5565b34801561023e57600080fd5b506102056004356108cf565b34801561025657600080fd5b50610262600435610b0a565b6040805192835260208301919091528051918290030190f35b34801561028757600080fd5b506101a6600435600160a060020a0360243581169060443516606435608435610b32565b3480156102b757600080fd5b506101a6600160a060020a0360043516602435604435606435610d39565b3480156102e157600080fd5b50610205610e3a565b3480156102f657600080fd5b50610205610e80565b34801561030b57600080fd5b50610205600160a060020a0360043516610e96565b34801561032c57600080fd5b50610205600435602435610ea8565b34801561034757600080fd5b50610205600435600160a060020a0360243516604435606435610f69565b34801561037157600080fd5b5061020560043560243561102c565b34801561038c57600080fd5b50610205600160a060020a0360043581169060243516611039565b3480156103b357600080fd5b506103c2600435602435611056565b60408051968752602087019590955285850193909352600160a060020a039091166060850152608084015260a0830152519081900360c00190f35b34801561040957600080fd5b506101a6600160a060020a03600435166024356044356064356111ef565b6101a6600435602435611500565b34801561044157600080fd5b50610205600435611905565b34801561045957600080fd5b506101a6600435611922565b34801561047157600080fd5b5061047a611a67565b60408051602080825283518183015283519192839290830191858101910280838360005b838110156104b657818101518382015260200161049e565b505050509050019250505060405180910390f35b33600090815260016020818152604080842085855283018252808420600281015481549190940154600160a060020a031680865260049093529084208054859485948594859485948594939185918590811061052257fe5b600091825260208083208f84526006928302016005018152604080842090920154600160a060020a03861684526004909152912080549192508d918690811061056757fe5b906000526020600020906006020160050160008e8152602001908152602001600020600001546004600085600160a060020a0316600160a060020a03168152602001908152602001600020868154811015156105bf57fe5b906000526020600020906006020160050160008f815260200190815260200160002060020154838688879a509a509a509a509a509a509a5050505050919395979092949650565b6000600183600181111561061657fe5b600181111561062157fe5b14806106435750600083600181111561063657fe5b600181111561064157fe5b145b151561064e57600080fd5b503360009081526007602090815260408083208784529091529020600180820183905560029091018390555b949350505050565b3360009081526007602090815260408083208b845282528083208151610100810183528b8152600160a060020a03881685526004845291842080549193830191879081106106cc57fe5b600091825260208083208e8452600560069093020191909101815260408083205484528382018c90528381018d9052606084018b9052600160a060020a038a1660808501819052835260049091529020805460a0909201918790811061072e57fe5b6000918252602080832060069283020154845292830196909652835460018082018655948252908290208351600890920201908155908201518184015560408201516002820155606082015160038201556080820151600482015560a082015160058201805473ffffffffffffffffffffffffffffffffffffffff1916600160a060020a0390921691909117905560c08201519481019490945560e0015160079093019290925550979650505050505050565b336000908152600660205260409020545b90565b6000600183600181111561080557fe5b600181111561081057fe5b14156108ba5761081f836108cf565b600954604080517f70a082310000000000000000000000000000000000000000000000000000000081523360048201529051600160a060020a03909216916370a08231916024808201926020929091908290030181600087803b15801561088557600080fd5b505af1158015610899573d6000803e3d6000fd5b505050506040513d60208110156108af57600080fd5b5051101590506108c9565b6108c3836108cf565b82101590505b92915050565b6000806000806108dd611b6e565b60008060018860018111156108ee57fe5b60018111156108f957fe5b148061091b5750600088600181111561090e57fe5b600181111561091957fe5b145b151561092657600080fd5b600095505b33600090815260016020526040902060020154851015610afe57336000908152600160208181526040808420888552909201905290206003015460ff161515610af35733600090815260016020526040902060020180548690811061098c57fe5b600091825260208083209091015433835260018083526040808520838652820184529384902084516080810186528154815281830154600160a060020a03169481019490945260028101549484019490945260039093015460ff1615156060830152955093508860018111156109fe57fe5b6001811115610a0957fe5b1415610a6957602080840151600160a060020a0316600090815260049091526040908190209084015181548110610a3c57fe5b90600052602060002090600602016005016000858152602001908152602001600020600601549150610abf565b602080840151600160a060020a0316600090815260049091526040908190209084015181548110610a9657fe5b906000526020600020906006020160050160008581526020019081526020016000206002015491505b503360009081526001602081815260408084208785529092019052902054610af086610aeb8484611acb565b611af4565b95505b60019094019361092b565b50939695505050505050565b3360009081526007602090815260408083209383529290522060018101546002909101549091565b60006001866001811115610b4257fe5b6001811115610b4d57fe5b1415610c2e57600954604080517f23b872dd000000000000000000000000000000000000000000000000000000008152600160a060020a038881166004830152878116602483015260448201869052915191909216916323b872dd9160648083019260209291908290030181600087803b158015610bca57600080fd5b505af1158015610bde573d6000803e3d6000fd5b505050506040513d6020811015610bf457600080fd5b50506040805183815290517f7ef3d18d8958a97c57e6d519abf1c9c919d0a78e1d037bf25900a82effaa10809181900360200190a1610d30565b600160a060020a03841660009081526004602052604090208054610c6f919085908110610c5757fe5b90600052602060002090600602016002015483611af4565b600160a060020a0385166000908152600460205260409020805485908110610c9357fe5b906000526020600020906006020160020181905550610cda6008600086600160a060020a0316600160a060020a031681526020019081526020016000206007015483611af4565b600160a060020a03851660009081526008602090815260409182902060070192909255805184815290517ff1a2788fec7acfb18c707f70d5f3aba63891818f4c3263cfd26868a5f1849b94929181900390910190a15b95945050505050565b600160a060020a0384166000908152600460205260408120805483919086908110610d6057fe5b60009182526020808320878452600560069093020182019052604090912001541015610d8b57600080fd5b600160a060020a0385166000908152600460205260408120805486908110610daf57fe5b600091825260208083208784526005600690930201919091019052604090206004015411610ddc57600080fd5b336000908152600160208181526040808420878552909201815291819020849055805184815290517feff915af5abcf733d88ab55ebab7a6842612483ce2447d6de6af02196cbc5493929181900390910190a1506001949350505050565b600060013360009081526008602052604090206003015460ff166001811115610e5f57fe5b14610e6957600080fd5b503360009081526008602052604090206007015490565b3360009081526001602052604090206002015490565b60066020526000908152604090205481565b60006001836001811115610eb857fe5b6001811115610ec357fe5b1415610f6257600954604080517f70a082310000000000000000000000000000000000000000000000000000000081523360048201529051600160a060020a03909216916370a08231916024808201926020929091908290030181600087803b158015610f2f57600080fd5b505af1158015610f43573d6000803e3d6000fd5b505050506040513d6020811015610f5957600080fd5b505190506108c9565b50806108c9565b60006001856001811115610f7957fe5b6001811115610f8457fe5b1415610fdb57600160a060020a0384166000908152600460205260409020805484908110610fae57fe5b9060005260206000209060060201600501600083815260200190815260200160002060060154905061067a565b600160a060020a0384166000908152600460205260409020805484908110610fff57fe5b9060005260206000209060060201600501600083815260200190815260200160002060020154905061067a565b60008061067a8484611acb565b600560209081526000928352604080842090915290825290205481565b3360009081526007602090815260408083208584529091528120805482918291829182918291908890811061108757fe5b60009182526020808320600160089093020191909101543383526007825260408084208c855290925291208054899081106110be57fe5b60009182526020808320600260089093020191909101543383526007825260408084208d8552909252912080548a9081106110f557fe5b60009182526020808320600360089093020191909101543383526007825260408084208e8552909252912080548b90811061112c57fe5b60009182526020808320600560089093020191909101543383526007825260408084208f855290925291208054600160a060020a03909216918c90811061116f57fe5b9060005260206000209060080201600601546007600033600160a060020a0316600160a060020a0316815260200190815260200160002060008e81526020019081526020016000206000018c8154811015156111c757fe5b9060005260206000209060080201600701549550955095509550955095509295509295509295565b600160a060020a03841660009081526004602052604081208054829184918790811061121757fe5b6000918252602080832088845260056006909302018201905260409091200154101561124257600080fd5b600160a060020a038616600090815260046020526040812080548790811061126657fe5b60009182526020808320888452600560069093020191909101905260409020600401541161129357600080fd5b6001600160a060020a03871660009081526008602052604090206003015460ff1660018111156112bf57fe5b146112c957600080fd5b6001600033600160a060020a0316600160a060020a031681526020019081526020016000206002018054905090506001600033600160a060020a0316600160a060020a031681526020019081526020016000206002018490806001815401808255809150509060018203906000526020600020016000909192909190915055506040805190810160405280600115158152602001828152506001600033600160a060020a0316600160a060020a03168152602001908152602001600020600001600086815260200190815260200160002060008201518160000160006101000a81548160ff0219169083151502179055506020820151816001015590505060806040519081016040528084815260200187600160a060020a03168152602001868152602001600015158152506001600033600160a060020a0316600160a060020a0316815260200190815260200160002060010160008681526020019081526020016000206000820151816000015560208201518160010160006101000a815481600160a060020a030219169083600160a060020a031602179055506040820151816002015560608201518160030160006101000a81548160ff0219169083151502179055509050507f2480268f1c1956aeaceecb84a6f17e474bc61bb5bb84ec8401372ed0a6133ee86001600033600160a060020a0316600160a060020a03168152602001908152602001600020600201805490506040518082815260200191505060405180910390a150600195945050505050565b60008080808080808060018a600181111561151757fe5b600181111561152257fe5b1480611544575060008a600181111561153757fe5b600181111561154257fe5b145b151561154f57600080fd5b336000908152600160205260408120600201541161156c57600080fd5b6115768a346107f5565b151561158157600080fd5b61158b8a34610ea8565b9650600095505b3360009081526001602052604090206002015486101561182c57336000908152600160205260408120600201805490919081106115cb57fe5b60009182526020808320909101543383526001808352604080852083865290910190925291206003015490955060ff1615156118215733600090815260016020818152604080842089855283018252808420805460028201549190940154600160a060020a031680865260049093529084208054939850909650909450908590811061165357fe5b60009182526020808320898452600560069093020191909101905260409020600401541161168057600080fd5b600160a060020a03821660009081526004602052604090208054859190859081106116a757fe5b600091825260208083208984526005600690930201820190526040909120015410156116d257600080fd5b6001600160a060020a03831660009081526008602052604090206003015460ff1660018111156116fe57fe5b1461170857600080fd5b61171d6117178b848689610f69565b8561102c565b90508087101561172c57600080fd5b6117368782611b01565b3360008181526001602081815260408084208b85528301909152909120600301805460ff19169091179055909750611772908b90848685610b32565b50600160a060020a038216600090815260046020526040902080546117c291908590811061179c57fe5b600091825260208083208984526005600690930201820190526040909120015485611b01565b600160a060020a03831660009081526004602052604090208054859081106117e657fe5b600091825260208083208984526005600690930201820190526040909120015561181f82866118178d838884610f69565b86888f611b13565b505b600190950194611592565b611834611b53565b506118506118406107e1565b6118498c6108cf565b8c8c610606565b50604080516001815290517f0cc34d11f43af89bf3aff732f3999051c4251b5ccc351a54712ea98b003a22319181900360200190a13360008181526001602081815260408084208a85528084018352908420848155808401805473ffffffffffffffffffffffffffffffffffffffff1916905560028082018690556003909101805460ff19169055948452919052916118eb90830182611b95565b506000600391909101555060019998505050505050505050565b336000908152600760209081526040808320938352929052205490565b3360008181526001602081815260408084208685528083529084208301549484529190526002018054919291600019810190811061195c57fe5b60009182526020808320909101543383526001909152604090912060020180548390811061198657fe5b60009182526020808320909101929092553381526001909152604090206002018054906119b7906000198301611bb6565b503360008181526001602081815260408084208885528084018352818520858155808501805473ffffffffffffffffffffffffffffffffffffffff1916905560028082018790556003909101805460ff19908116909155828552838720805490911681558501869055959094529181529290910154815190815290517f7deaca4d9411ae1cc8abc39e3b082a716a0c9e3458e2e7ee60649689fa423ce2929181900390910190a150600192915050565b33600090815260016020908152604091829020600201805483518184028101840190945280845260609392830182828015611ac157602002820191906000526020600020905b815481526020019060010190808311611aad575b5050505050905090565b6000821515611adc575060006108c9565b50818102818382811515611aec57fe5b04146108c957fe5b818101828110156108c957fe5b600082821115611b0d57fe5b50900390565b600080600080611b216107e1565b6001019250829150611b33888761102c565b9050611b45828a8a89858f8d8c610682565b505050509695505050505050565b33600090815260066020526040902080546001019081905590565b60408051608081018252600080825260208201819052918101829052606081019190915290565b5080546000825590600052602060002090810190611bb39190611bdf565b50565b815481835581811115611bda57600083815260209020611bda918101908301611bdf565b505050565b6107f291905b80821115611bf95760008155600101611be5565b50905600a165627a7a72305820f70f74ed6c4b9328e308f051663957cba9a7b5232514e7e438d1ada42e429d320029",
  "source": "pragma solidity 0.4.24;\nimport './UserManager.sol';\nimport \"./Ownerble.sol\";\nimport \"./StoreBase.sol\";\nimport './SafeMath.sol';\nimport \"./VendorBase.sol\";\nimport \"./SpinelTokenSale.sol\";\nimport \"./SpinelToken.sol\";\nimport \"./OrderHistory.sol\";\n\n /** @title shopping cart manager */\ncontract ShoppingCartManager is Ownerble, StoreBase,\n VendorBase, OrderHistory{\n    \n    SpinelToken internal tokenContract_shoppingCart;\n   \n    /**\n      * @dev EMITS CART ITEM INSERTED EVENT\n      * @param cartSize shopping cart size\n      */\n    event ItemInsertedToCart(uint cartSize);\n    /**\n      * @dev EMITS CART ITEM UPDATED EVENT\n      * @param productQuantity shopping cart product quanity\n      */\n    event CartItemUpdated(uint productQuantity);\n    /**\n      * @dev EMITS CART ITEM DELETED EVENT\n      * @param cartSize size of shopping cart\n      */\n    event CartItemDeleted(uint cartSize);\n    /**\n      * @dev EMITS CART PAYMENT COMPLETED EVENT\n      * @param status true if success\n      */\n    event PaymentCompleted(bool status);\n    /**\n      * @dev EMITS CART PRICE IN TOKEN EVENT\n      * @param amount total cart price\n      */\n    event PaymentByTokenCompleted(uint256 amount);\n    /**\n      * @dev EMITS CART IN ETHER EVENT\n      * @param amount total cart price\n      */\n    event PaymentByEtherCompleted(uint256 amount);\n\n       /**\n      * @dev RETURNS THE DETAILS OF SHOPPING CART ITEM\n      * @param productId array index of product\n      * @return name name of product  \n      * @return description description of product  \n      * @return price price of product in ether \n      * @return princeInSpinelToken product price in tokens\n      * @return productQuantityToPurchase quantity of product \n      * @return storeIndex array index of store \n      * @return vendorAccount vendors address \n      */\n    function getCartItem(uint productId) public view returns(uint, bytes32, uint, uint, uint, uint, address){\n        //get store index\n        uint storeIndex = shoppingCarts[msg.sender].products[productId].storeIndex;\n        //GET PURCHASED QUANTITY\n        uint productQuantityToPurchase = shoppingCarts[msg.sender].products[productId].productQuantity;\n        //GET THE VENDORS ACCOUNT ADDRESS\n        address vendorAccount = shoppingCarts[msg.sender].products[productId].vendorAccount;\n        // GET THE PRICE OF THE PRODUCT IN TOKENS\n        uint priceInSpinelToken = stores[vendorAccount][storeIndex].products[productId].priceInSpinelToken;\n      \n        return (\n            productId,\n            stores[vendorAccount][storeIndex].products[productId].name,\n            stores[vendorAccount][storeIndex].products[productId].price,\n            priceInSpinelToken,\n            productQuantityToPurchase,\n            storeIndex,\n            vendorAccount\n        );\n    }\n    \n       /**\n      * @dev CALCULATES THE TOTAL PRICE OF SHOPPING CART \n      * @param paymentMethod payment method - ETher or Token\n      * @return cartPrice total cart price \n      */\n    function getCartPrice(uint256 paymentMethod) public view returns(uint256){\n        require(PaymentMethod(paymentMethod) == PaymentMethod.Token ||\n         PaymentMethod(paymentMethod) == PaymentMethod.Ether);\n        uint256 cartPrice = 0;\n      \n        /**\n            LOOPS THROUGH EACH ITEM IN THE SHOPPPING CART \n         */\n        for(uint i; i < shoppingCarts[msg.sender].productIds.length; i++) {\n           /**\n             CHECK IF THE PRODUCT PURCHASE WAS COMPLETED\n            */\n           if(shoppingCarts[msg.sender].products[productId].purchaseComplete == false) {\n\n            //GET THE PRODUCT ID\n             uint productId = shoppingCarts[msg.sender].productIds[i];\n             ShoppingCartItem memory item = shoppingCarts[msg.sender].products[productId];\n             uint productPrice;\n             //CHECK THE PAYMENT METHOD - ETHER OR TOKEN\n             if(PaymentMethod(paymentMethod) == PaymentMethod.Token) {\n                   // IF TOKEN , GET THE TOKEN PRICE OF THE ITEM\n                   productPrice = stores[item.vendorAccount][item.storeIndex].products[productId].priceInSpinelToken;\n             } else {\n                   // IF ETHER , GET THE ETHER PRICE OF THE ITEM\n                 productPrice = stores[item.vendorAccount][item.storeIndex].products[productId].price;\n             }\n\n            // GET THE PURCHASED QUANTITY\n             uint productQuantity = shoppingCarts[msg.sender].products[productId].productQuantity;\n              //CALCULATE THE PRICE AND ADD TO THE CART PRICE\n             cartPrice = SafeMath.add(cartPrice, SafeMath.mul(productPrice, productQuantity));\n           }\n        }\n        \n        //RETURN TOTAL CART PRICE\n        return cartPrice;\n    }\n\n     /**\n      * @dev RETURNS THE COUNT OF ITEMS IN THE SHOPPING CART\n      * @return uint number of items  in the shopping cart\n      */\n    function getCartItemsCount() public view returns(uint){\n        return shoppingCarts[msg.sender].productIds.length;\n    }\n    \n    \n    /**\n      * @dev RETURNS THE IDS OF ITEMS IN THE SHOPPING CART\n      * @return uint[] array of ids in the shopping cart\n      */\n    function getCartItemsIds() public view returns(uint[]){\n        return shoppingCarts[msg.sender].productIds;\n    }\n\n       /**\n      * @dev ADDS ITEM TO SHOPPING CART\n      * @param vendorAccount vendor address \n      * @param storeIndex array index of store\n      * @param productId product id\n      * @param productQuantity product quantity\n      * @return bool true if success \n      */\n    function addItemToCart(address vendorAccount, uint storeIndex, uint productId, uint productQuantity) public returns(bool){\n        \n   \n        //check if quantity in the store is equql or greater than purchased quantity\n        require(stores[vendorAccount][storeIndex].products[productId].quantity >= productQuantity);\n        require(stores[vendorAccount][storeIndex].products[productId].productId >0);\n\n        //require that the vendor account is approved\n        require(vendors[vendorAccount].state == AccountState.Approved);\n        //GET PRODUCT SLOT / INDEX IN THE CART PRODUCT IDS LIST\n        uint productSlot = shoppingCarts[msg.sender].productIds.length;\n        //ADD PRODUCT ID TO LIST OF CART PRODUCT IDS, USED TO RETRIEVE PRODUCTS FOR DISPLAY\n        shoppingCarts[msg.sender].productIds.push(productId);\n        //INITIALZE SLOT WHICH CONTAINS THE ID INDEX/ SLOT\n        shoppingCarts[msg.sender].cartItemSlot[productId] = CartItemSlot(true, productSlot);\n   \n                 \n        //add product details\n         shoppingCarts[msg.sender].products[productId] = ShoppingCartItem({\n            productQuantity: productQuantity,\n            vendorAccount: vendorAccount,\n            storeIndex: storeIndex,\n            purchaseComplete: false\n          });\n\n          //EMITS ITEM INSERTED EVENT\n          emit ItemInsertedToCart( shoppingCarts[msg.sender].productIds.length);\n\n        return  true;\n\n    }\n    \n       /**\n      * @dev UPDATES CART ITEM QUANTITY\n      * @param vendorAccount vendor address \n      * @param storeIndex array index of store\n      * @param productId product id\n      * @param productQuantity product quantity\n      * @return bool true if success \n      */\n    function updateCartItem(address vendorAccount, uint storeIndex, uint productId, uint productQuantity) public returns(bool){\n        //check if quantity in the store is equql or greater than purchased quantity\n        require(stores[vendorAccount][storeIndex].products[productId].quantity >= productQuantity);\n\n        require(stores[vendorAccount][storeIndex].products[productId].productId > 0 );\n\n         //UPDATE QUANTITY\n         shoppingCarts[msg.sender].products[productId].productQuantity = productQuantity;\n         //emit cart updated event\n        emit CartItemUpdated(shoppingCarts[msg.sender].products[productId].productQuantity);\n\n         return true;\n         \n    }\n    \n   \n         /**\n      * @dev  DELETES CART ITEM\n      * @param productId product id\n      * @return bool true if success \n      */\n    function deleteCartItem(uint productId ) public returns(bool) {\n        //get product id index\n        uint productCartIndex = shoppingCarts[msg.sender].cartItemSlot[productId].slot;\n          //remove the deleted product id by exchanging position with last item\n          shoppingCarts[msg.sender].productIds[productCartIndex] = shoppingCarts[msg.sender].productIds[shoppingCarts[msg.sender].productIds.length - 1];\n          //DECREASE THE INDEX OF SHOPPING CART PRODUCTS IDS LIST\n          shoppingCarts[msg.sender].productIds.length --;\n     \n        //DELETE THE ID OF THE REMOVED ITEM FROM THE SHOPPING PRODUCT IDS ARRAY\n        delete shoppingCarts[msg.sender].products[productId];\n        //DELETE THE PRODUCT FROM SHOPPING CART\n        delete shoppingCarts[msg.sender].cartItemSlot[productId];\n\n        //EMIT PRODUCT DELETED EVENT\n        emit CartItemDeleted(shoppingCarts[msg.sender].productIds.length);\n        \n        return true;\n    }\n    \n    /**\n      SUBTRACTS THE PRICE OF AN ITEM THAT IS REMOVED FROM THE SHOPPING CART \n      FROM TOTAL SHOPPING CART PRICE \n     */\n    function deductDeletedCartItemPriceFromCartPrice(uint productPrice, uint purchasedQuantity, uint256 currentCartPrice) private pure returns(uint){\n            \n            return SafeMath.sub(currentCartPrice, (SafeMath.mul(productPrice, purchasedQuantity )));\n    }\n\n       /**\n      * @dev CHECKS IF THE CUSTOMERS BALANCE (ETHER OR TOKEN ) IS SUFFICIENT TO PAY FOR THE TOTAL CART PRICE\n      * @param paymentMethod patment method ether or token\n      * @param customerBalanceInWei customers ether balance\n      * @return bool true if success \n      */\n    function isCustomerBalanceSufficient(uint256 paymentMethod, uint customerBalanceInWei) public view returns(bool) {\n        \n        if(PaymentMethod(paymentMethod) == PaymentMethod.Token) {\n            //RETURNS TRUE IF THE CUSTOMER IS PAYING BY TOKEN AND CUSTOMER \n            //HAS SUFFICIENT TOKEN BALANCE TO PAY FOR SHOPPING CART PRICE\n            return tokenContract_shoppingCart.balanceOf(msg.sender) >= \n            getCartPrice(paymentMethod);\n        } else {\n            //RETURNS TRUE IF THE CUSTOMER IS PAYING BY ETHER AND CUSTOMER \n            //HAS SUFFICIENT ETHER BALANCE TO PAY FOR SHOPPING CART PRICE\n            return customerBalanceInWei >= getCartPrice(paymentMethod);\n        }\n    }\n\n      /**\n      * @dev RETURNS THE PRICE (IN ETHER OR TOKEN OF AN ITEM IN THE SHOPPING CART ACCORDING TO THE PAYMENT METHOD\n      * @param paymentMethod payment method ether or token\n      * @param vendorAccount vendors address\n      * @param storeIndex array index of store\n      * @param productId product id\n      * @return uint productprice\n      */\n    function getItemsPrice(uint256 paymentMethod, address vendorAccount, uint256 storeIndex, uint productId) public view returns(uint256) {\n         \n        if(PaymentMethod(paymentMethod) == PaymentMethod.Token) {\n            //IF CUSTOMERS PAYMENT METHOD IS TOKEN\n            //RETURN THE PRICE OF THE ITEM IN TOKENS\n               return stores[vendorAccount][storeIndex].products[productId].priceInSpinelToken;\n        } else {\n            //IF CUSTOMERS PAYMENT METHOD IS ETHER\n            //RETURN THE PRICE OF THE ITEM IN ETHER\n            return stores[vendorAccount][storeIndex].products[productId].price;\n        }\n    }\n\n\n     /**\n      * @dev  CALCULATES THE TOTAL PRICE OF A SHOPPING CART ITEM\n      * @param productPrice product price\n      * @param purchasedQuantity product quantity\n      * @return totalItemsPricetotal item price\n      */\n    function getTotalItemsPrice(uint256 productPrice, uint256 purchasedQuantity) public pure returns(uint256) {\n\n        uint256 totalItemsPrice = SafeMath.mul(productPrice, purchasedQuantity);\n\n        return totalItemsPrice;\n    }\n\n       /**\n      * @dev  RETURNS THE BALANCE OF THE CUSTOMER (ETHER OR TOKEN) ACCORDING TO THE CUSTOMERS CHOSEN PAYMENT METHOD\n      * @param paymentMethod payment method - ether or token\n      * @param customerBalance customers ether balance\n      * @return uint256 customers balance ether / token\n      */\n    function getcustomerBalance(uint256 paymentMethod, uint256 customerBalance) public view returns(uint256){\n         if(PaymentMethod(paymentMethod) == PaymentMethod.Token) {\n               //RETURN CUSTOMERS TOKEN BALANCE IF CUSTOMER IS PAYING IN TOKENS\n               return tokenContract_shoppingCart.balanceOf(msg.sender);\n        } else {\n               //RETURN CUSTOMERS ETHER  BALANCE IF CUSTOMER IS PAYING IN ETHER\n            return customerBalance;\n        }\n    }\n\n\n       /**\n      * @dev   COMPLETES PURCHASE BY MAKING PAYMENT TO VENDOR OF ITEM PURCHASED BY CUSTOMER\n      * @param paymentMethod payment method - ether or token\n      * @param customerAccount customer address\n      * @param vendorAccount vendor address\n      * @param storeIndex arrray index of store\n      * @return bool true if success\n      */\n    function payVendor(uint256 paymentMethod, address customerAccount, address vendorAccount, uint256 storeIndex,\n     uint256 totalItemsPrice )\n      public  returns(bool) {\n        //IF CUSTOMER IS MAKING PAYMENT BY TOKEN\n        //TRANSFER THE TOKEN FROM THE CUSTOMERS BALANCE TO THE VENDOR\n        if(PaymentMethod(paymentMethod) == PaymentMethod.Token) {\n             tokenContract_shoppingCart.transferFrom(customerAccount, vendorAccount, totalItemsPrice);\n             emit PaymentByTokenCompleted(totalItemsPrice);\n        } else {\n         //IF CUSTOMER IS MAKING PAYMENT BY ETHER\n         //TRANSFER THE ETHER TO THE CUSTMERS BALANCE\n         //THE VENDOR WILL WITHDRAW THE ETHER TO HIS / HER WALLET BY USING THE WIDTHRAWAL CONTRACT\n         //FROM HIS / HER DASHBOARD USER INTERFACE\n\n          //SAVE THE REVENUE TO INFORM VENDOR HOW MUCH THE STORE HAS SOLD\n          stores[vendorAccount][storeIndex].revenue = SafeMath.add(stores[vendorAccount][storeIndex].revenue, totalItemsPrice);\n          //UPDATE RETRIEVABLE BALANCE\n          vendors[vendorAccount].balance = SafeMath.add(vendors[vendorAccount].balance, totalItemsPrice);\n          emit PaymentByEtherCompleted(totalItemsPrice);\n        }                \n    }\n\n         \n            /**\n            * @dev  ADDS THE ORDER ITEM TO THE ORDER HISTORY VIEWABLE BY THE CUSTOMER FROM HIS / HER DASHBOARD INTERFACE\n            * @param vendorAccount vendor address\n            * @param productId product Id\n            * @param price product price \n            * @param storeIndex arrray index of store\n            * @param quantity product quantity \n            * @param paymentMethod payment method - ether or token\n            * @return bool true if success\n            */\n            function _createOrderHistory(address vendorAccount,uint256 productId,uint price,uint256 storeIndex, uint256 quantity, uint256 paymentMethod) private returns(bool) {\n                //GET THE COUNT OF THE ITEMS IN THE CUSTOMERS ORDER HISTORY\n                uint256 currentOrderHistoryCount = getCustomerOrdersHistoryCount();\n                //DETERMINE THE ID OF CURRENT ORDER ITEM\n                uint256 orderId = ++currentOrderHistoryCount;\n                //TOTAL  PRICE OF ITEM\n                uint totalItemsPrice = getTotalItemsPrice(price, quantity);\n                            \n\n                addTransaction(\n                    orderId, \n                    productId,\n                    price,\n                    quantity,\n                    totalItemsPrice,\n                    vendorAccount,\n                    storeIndex,\n                    paymentMethod\n                );\n            }\n\n \n   /**\n            * @dev  WHEN TRIGGERED, MAKES PAYMENT FOR ALL ITEMS IN THE CUSTOMERS SHOPPING CART\n            * @param paymentMethod payment method - ether or token\n            * @return bool true if success\n            */\n  function checkOutTokenPayment(uint256 paymentMethod, uint256 paymentDateTimeStamp) public payable returns(bool){\n       \n        require(PaymentMethod(paymentMethod) == PaymentMethod.Token || PaymentMethod(paymentMethod) == PaymentMethod.Ether);\n        require(shoppingCarts[msg.sender].productIds.length > 0);\n        //REVERT IF THE CUSTOMER DOES NOT HAVE SUFFICIEN BALANCE TO COVER THE CART PRICE\n        require(isCustomerBalanceSufficient(paymentMethod, msg.value));\n\n        //GET CUSTOMER PAYMENT BY HIS PAYMENT METHOD\n        // IF CUSTOMER IS MAKING PAYMENT BY TOKEN, RETURNS HIS TOKEN BALANCE\n        // IF CUSTOMER IS MAKING PAYMENT BY ETHER, THE VALUE SENT WITH THE TRANSACTION \n        // IS RETURNED\n        uint customerBalance = getcustomerBalance(paymentMethod, msg.value);\n        // LOOP THROUGH EACH ITEM IN THE SHOPPING CART\n        for(uint i = 0; i< shoppingCarts[msg.sender].productIds.length; i++) {\n            // GET THE ITEM ID\n           uint productId = shoppingCarts[msg.sender].productIds[0];\n            if(shoppingCarts[msg.sender].products[productId].purchaseComplete ==false) {\n                   // GET THE PURCHASED QUANTITY\n                    uint purchasedQuantity = shoppingCarts[msg.sender].products[productId].productQuantity;\n                    // GET THE STORE IN WHICH THE ITEM BELONGS\n                    uint storeIndex = shoppingCarts[msg.sender].products[productId].storeIndex;\n                    // GET THE VENDOR ADDRESS OF THE STORE\n                    address vendorAccount = shoppingCarts[msg.sender].products[productId].vendorAccount;\n                    //check if product exists\n                    require(stores[vendorAccount][storeIndex].products[productId].productId > 0);\n                    //check the quantity available equal to or greater than purchased quantity\n                    require(stores[vendorAccount][storeIndex].products[productId].quantity >= purchasedQuantity);\n                    //require the vendorAccount is a vendor\n                    require(vendors[vendorAccount].state == AccountState.Approved);\n                     // GET THE PRODUCT PRICE\n                   // uint productPrice = getItemsPrice(paymentMethod, vendorAccount, storeIndex, productId);\n                    // CALCULATE THE TOTAL PRICE\n                    uint totalItemsPrice = getTotalItemsPrice(getItemsPrice(paymentMethod, vendorAccount, storeIndex, productId), purchasedQuantity);\n                \n                    // REVERT IF THE PRICE OF THE ITEM IS GREATER THE THE CUSTOMERS \n                    // REMANING BALANCE\n                    require(customerBalance >= totalItemsPrice);\n                    \n                    // CALCULATE THE CUSTOMERS REMAINING BALNEC\n                     customerBalance = SafeMath.sub(customerBalance, totalItemsPrice);\n                     // UPDATE PURCAHSE COMPLETE\n                     shoppingCarts[msg.sender].products[productId].purchaseComplete = true;\n                     // PAY VENDOR\n                     payVendor(paymentMethod, msg.sender,vendorAccount, storeIndex, totalItemsPrice);\n                     //subtract purchaed quantity\n                      stores[vendorAccount][storeIndex].products[productId].quantity = SafeMath.sub(stores[vendorAccount][storeIndex].products[productId].quantity,\n                      purchasedQuantity );\n\n                       // ADD ITEM TO ORDER HISTORY\n                     _createOrderHistory(vendorAccount,productId, getItemsPrice(paymentMethod, vendorAccount, storeIndex, productId),storeIndex, purchasedQuantity, paymentMethod);\n\n\n                    \n              }\n        }\n        // INCREMENT THE ORDER HISTORY\n        incrementCustomerOrdersHistory();\n        // CREATE THE ORDRE HISTORY\n        createOrderHistory(getCustomerOrdersHistoryCount(),getCartPrice(paymentMethod), paymentMethod, paymentDateTimeStamp);\n        emit PaymentCompleted(true);\n        //DELETE SHOPPING CART\n        delete shoppingCarts[msg.sender].products[productId];\n        delete shoppingCarts[msg.sender];\n         return true;\n    }\n\n    \n}",
  "sourcePath": "/Users/yusufkelo/Documents/DEVELOPER/ETHEREAUM/blockchain-market/market-place/contracts/ShoppingCartManager.sol",
  "compiler": {
    "name": "solc",
    "version": "0.4.24+commit.e67f0147.Emscripten.clang"
  },
  "schemaVersion": "2.0.0",
  "updatedAt": "2018-08-27T18:06:05.747Z"
}