{
  "contractName": "ShoppingCartManager",
  "abi": [
    {
      "constant": true,
      "inputs": [],
      "name": "getVendorBalance",
      "outputs": [
        {
          "name": "",
          "type": "uint256"
        }
      ],
      "payable": false,
      "stateMutability": "view",
      "type": "function"
    },
    {
      "anonymous": false,
      "inputs": [
        {
          "indexed": false,
          "name": "cartSize",
          "type": "uint256"
        }
      ],
      "name": "ItemInsertedToCart",
      "type": "event"
    },
    {
      "anonymous": false,
      "inputs": [
        {
          "indexed": false,
          "name": "productQuantity",
          "type": "uint256"
        }
      ],
      "name": "CartItemUpdated",
      "type": "event"
    },
    {
      "anonymous": false,
      "inputs": [
        {
          "indexed": false,
          "name": "cartSize",
          "type": "uint256"
        }
      ],
      "name": "CartItemDeleted",
      "type": "event"
    },
    {
      "anonymous": false,
      "inputs": [
        {
          "indexed": false,
          "name": "status",
          "type": "bool"
        }
      ],
      "name": "PaymentCompleted",
      "type": "event"
    },
    {
      "anonymous": false,
      "inputs": [
        {
          "indexed": false,
          "name": "amount",
          "type": "uint256"
        }
      ],
      "name": "PaymentByTokenCompleted",
      "type": "event"
    },
    {
      "anonymous": false,
      "inputs": [
        {
          "indexed": false,
          "name": "amount",
          "type": "uint256"
        }
      ],
      "name": "PaymentByEtherCompleted",
      "type": "event"
    },
    {
      "constant": true,
      "inputs": [
        {
          "name": "productId",
          "type": "uint256"
        }
      ],
      "name": "getCartItem",
      "outputs": [
        {
          "name": "",
          "type": "uint256"
        },
        {
          "name": "",
          "type": "bytes32"
        },
        {
          "name": "",
          "type": "uint256"
        },
        {
          "name": "",
          "type": "uint256"
        },
        {
          "name": "",
          "type": "uint256"
        },
        {
          "name": "",
          "type": "uint256"
        },
        {
          "name": "",
          "type": "address"
        }
      ],
      "payable": false,
      "stateMutability": "view",
      "type": "function"
    },
    {
      "constant": true,
      "inputs": [],
      "name": "getCartPrice",
      "outputs": [
        {
          "name": "",
          "type": "uint256"
        }
      ],
      "payable": false,
      "stateMutability": "view",
      "type": "function"
    },
    {
      "constant": true,
      "inputs": [],
      "name": "getCartItemsCount",
      "outputs": [
        {
          "name": "",
          "type": "uint256"
        }
      ],
      "payable": false,
      "stateMutability": "view",
      "type": "function"
    },
    {
      "constant": true,
      "inputs": [],
      "name": "getCartItemsIds",
      "outputs": [
        {
          "name": "",
          "type": "uint256[]"
        }
      ],
      "payable": false,
      "stateMutability": "view",
      "type": "function"
    },
    {
      "constant": false,
      "inputs": [
        {
          "name": "vendorAccount",
          "type": "address"
        },
        {
          "name": "storeIndex",
          "type": "uint256"
        },
        {
          "name": "productId",
          "type": "uint256"
        },
        {
          "name": "productQuantity",
          "type": "uint256"
        }
      ],
      "name": "addItemToCart",
      "outputs": [
        {
          "name": "",
          "type": "bool"
        }
      ],
      "payable": false,
      "stateMutability": "nonpayable",
      "type": "function"
    },
    {
      "constant": false,
      "inputs": [
        {
          "name": "vendorAccount",
          "type": "address"
        },
        {
          "name": "storeIndex",
          "type": "uint256"
        },
        {
          "name": "productId",
          "type": "uint256"
        },
        {
          "name": "productQuantity",
          "type": "uint256"
        }
      ],
      "name": "updateCartItem",
      "outputs": [
        {
          "name": "",
          "type": "bool"
        }
      ],
      "payable": false,
      "stateMutability": "nonpayable",
      "type": "function"
    },
    {
      "constant": false,
      "inputs": [
        {
          "name": "productId",
          "type": "uint256"
        }
      ],
      "name": "deleteCartItem",
      "outputs": [
        {
          "name": "",
          "type": "bool"
        }
      ],
      "payable": false,
      "stateMutability": "nonpayable",
      "type": "function"
    },
    {
      "constant": true,
      "inputs": [
        {
          "name": "paymentMethod",
          "type": "uint256"
        },
        {
          "name": "vendorAccount",
          "type": "address"
        },
        {
          "name": "storeIndex",
          "type": "uint256"
        },
        {
          "name": "productId",
          "type": "uint256"
        }
      ],
      "name": "getItemsPrice",
      "outputs": [
        {
          "name": "",
          "type": "uint256"
        }
      ],
      "payable": false,
      "stateMutability": "view",
      "type": "function"
    },
    {
      "constant": true,
      "inputs": [
        {
          "name": "productPrice",
          "type": "uint256"
        },
        {
          "name": "purchasedQuantity",
          "type": "uint256"
        }
      ],
      "name": "getTotalItemsPrice",
      "outputs": [
        {
          "name": "",
          "type": "uint256"
        }
      ],
      "payable": false,
      "stateMutability": "pure",
      "type": "function"
    },
    {
      "constant": false,
      "inputs": [],
      "name": "checkOut",
      "outputs": [
        {
          "name": "",
          "type": "bool"
        }
      ],
      "payable": true,
      "stateMutability": "payable",
      "type": "function"
    }
  ],
  "bytecode": "0x608060405261001564010000000061001a810204565b61002e565b60008054600160a060020a03191633179055565b6111378061003d6000396000f3006080604052600436106100ae5763ffffffff7c010000000000000000000000000000000000000000000000000000000060003504166311f8391881146100b35780636de0c1f21461010c5780636e91c6b81461014a57806373ac9d35146101715780638297574b146101865780639b8a373f1461019b578063c83a0ac3146101c5578063cba5751c146101e0578063e63aefcb146101e8578063f513747614610212578063fa846e5a1461022a575b600080fd5b3480156100bf57600080fd5b506100cb60043561028f565b604080519788526020880196909652868601949094526060860192909252608085015260a0840152600160a060020a031660c0830152519081900360e00190f35b34801561011857600080fd5b50610136600160a060020a03600435166024356044356064356103cb565b604080519115158252519081900360200190f35b34801561015657600080fd5b5061015f6104cd565b60408051918252519081900360200190f35b34801561017d57600080fd5b5061015f610514565b34801561019257600080fd5b5061015f61052a565b3480156101a757600080fd5b5061015f600435600160a060020a036024351660443560643561068a565b3480156101d157600080fd5b5061015f60043560243561074d565b61013661075a565b3480156101f457600080fd5b50610136600160a060020a0360043516602435604435606435610b74565b34801561021e57600080fd5b50610136600435610e85565b34801561023657600080fd5b5061023f610fca565b60408051602080825283518183015283519192839290830191858101910280838360005b8381101561027b578181015183820152602001610263565b505050509050019250505060405180910390f35b33600090815260016020818152604080842085855283018252808420600281015481549190940154600160a060020a03168086526004909352908420805485948594859485948594859493918591859081106102e757fe5b600091825260208083208f84526006928302016005018152604080842090920154600160a060020a03861684526004909152912080549192508d918690811061032c57fe5b906000526020600020906006020160050160008e8152602001908152602001600020600001546004600085600160a060020a0316600160a060020a031681526020019081526020016000208681548110151561038457fe5b906000526020600020906006020160050160008f815260200190815260200160002060020154838688879a509a509a509a509a509a509a5050505050919395979092949650565b600160a060020a03841660009081526004602052604081208054839190869081106103f257fe5b6000918252602080832087845260056006909302018201905260409091200154101561041d57600080fd5b600160a060020a038516600090815260046020526040812080548690811061044157fe5b60009182526020808320878452600560069093020191909101905260409020600401541161046e57600080fd5b336000908152600160208181526040808420878552909201815291819020849055805184815290517feff915af5abcf733d88ab55ebab7a6842612483ce2447d6de6af02196cbc5493929181900390910190a15060015b949350505050565b600060013360009081526005602052604090206003015460ff1660018111156104f257fe5b146104fc57600080fd5b50336000908152600560205260409020600701545b90565b3360009081526001602052604090206002015490565b60008060008061053861107c565b600080600095505b3360009081526001602052604090206002015485101561067f57336000908152600160208181526040808420888552909201905290206003015460ff161515610674573360009081526001602052604090206002018054869081106105a157fe5b6000918252602080832090910154338352600180835260408085208386528201845280852081516080810183528154815292810154600160a060020a0316838601819052600282015484840190815260039092015460ff16151560608501528652600490945290932091518254919750929550909190811061061f57fe5b6000918252602080832087845260056006909302019190910181526040808320600201543384526001808452828520898652019092529091205490925090506106718661066c848461102e565b61105d565b95505b600190940193610540565b509395945050505050565b6000600185600181111561069a57fe5b60018111156106a557fe5b14156106fc57600160a060020a03841660009081526004602052604090208054849081106106cf57fe5b906000526020600020906006020160050160008381526020019081526020016000206006015490506104c5565b600160a060020a038416600090815260046020526040902080548490811061072057fe5b906000526020600020906006020160050160008381526020019081526020016000206002015490506104c5565b6000806104c5848461102e565b3360009081526001602052604081206002015481908190819081908190819081908190811061078857600080fd5b61079061052a565b34101561079c57600080fd5b349750600096505b33600090815260016020526040902060020154871015610b0a57336000908152600160205260408120600201805490919081106107dd57fe5b60009182526020808320909101543383526001808352604080852083865290910190925291206003015490965060ff161515610aff573360009081526001602081815260408084208a855283018252808420805460028201549190940154600160a060020a031680865260049093529084208054939950909750909550908690811061086557fe5b600091825260208083208a8452600560069093020191909101905260409020600401541161089257600080fd5b600160a060020a03831660009081526004602052604090208054869190869081106108b957fe5b600091825260208083208a84526005600690930201820190526040909120015410156108e457600080fd5b6001600160a060020a03841660009081526005602052604090206003015460ff16600181111561091057fe5b1461091a57600080fd5b600160a060020a038316600090815260046020526040902080548590811061093e57fe5b90600052602060002090600602016005016000878152602001908152602001600020600201549150610970828661102e565b90508088101561097f57600080fd5b610989888261106a565b3360009081526001602081815260408084208b855283018252808420600301805460ff1916909317909255600160a060020a038716835260049052902080549199506109f191869081106109d957fe5b9060005260206000209060060201600201548261105d565b600160a060020a0384166000908152600460205260409020805486908110610a1557fe5b906000526020600020906006020160020181905550610a5c6005600085600160a060020a0316600160a060020a03168152602001908152602001600020600701548261105d565b600160a060020a03841660009081526005602090815260408083206007019390935560049052208054610aba919086908110610a9457fe5b600091825260208083208a8452600560069093020182019052604090912001548661106a565b600160a060020a0384166000908152600460205260409020805486908110610ade57fe5b600091825260208083208a8452600560069093020182019052604090912001555b6001909601956107a4565b604080516001815290517f0cc34d11f43af89bf3aff732f3999051c4251b5ccc351a54712ea98b003a22319181900360200190a133600090815260016020526040812090610b5b60028301826110a3565b6003820160009055505060019850505050505050505090565b600160a060020a038416600090815260046020526040812080548291849187908110610b9c57fe5b60009182526020808320888452600560069093020182019052604090912001541015610bc757600080fd5b600160a060020a0386166000908152600460205260408120805487908110610beb57fe5b600091825260208083208884526005600690930201919091019052604090206004015411610c1857600080fd5b6001600160a060020a03871660009081526005602052604090206003015460ff166001811115610c4457fe5b14610c4e57600080fd5b6001600033600160a060020a0316600160a060020a031681526020019081526020016000206002018054905090506001600033600160a060020a0316600160a060020a031681526020019081526020016000206002018490806001815401808255809150509060018203906000526020600020016000909192909190915055506040805190810160405280600115158152602001828152506001600033600160a060020a0316600160a060020a03168152602001908152602001600020600001600086815260200190815260200160002060008201518160000160006101000a81548160ff0219169083151502179055506020820151816001015590505060806040519081016040528084815260200187600160a060020a03168152602001868152602001600015158152506001600033600160a060020a0316600160a060020a0316815260200190815260200160002060010160008681526020019081526020016000206000820151816000015560208201518160010160006101000a815481600160a060020a030219169083600160a060020a031602179055506040820151816002015560608201518160030160006101000a81548160ff0219169083151502179055509050507f2480268f1c1956aeaceecb84a6f17e474bc61bb5bb84ec8401372ed0a6133ee86001600033600160a060020a0316600160a060020a03168152602001908152602001600020600201805490506040518082815260200191505060405180910390a150600195945050505050565b33600081815260016020818152604080842086855280835290842083015494845291905260020180549192916000198101908110610ebf57fe5b600091825260208083209091015433835260019091526040909120600201805483908110610ee957fe5b6000918252602080832090910192909255338152600190915260409020600201805490610f1a9060001983016110c4565b503360008181526001602081815260408084208885528084018352818520858155808501805473ffffffffffffffffffffffffffffffffffffffff1916905560028082018790556003909101805460ff19908116909155828552838720805490911681558501869055959094529181529290910154815190815290517f7deaca4d9411ae1cc8abc39e3b082a716a0c9e3458e2e7ee60649689fa423ce2929181900390910190a150600192915050565b3360009081526001602090815260409182902060020180548351818402810184019094528084526060939283018282801561102457602002820191906000526020600020905b815481526020019060010190808311611010575b5050505050905090565b600082151561103f57506000611057565b5081810281838281151561104f57fe5b041461105757fe5b92915050565b8181018281101561105757fe5b60008282111561107657fe5b50900390565b60408051608081018252600080825260208201819052918101829052606081019190915290565b50805460008255906000526020600020908101906110c191906110ed565b50565b8154818355818111156110e8576000838152602090206110e89181019083016110ed565b505050565b61051191905b8082111561110757600081556001016110f3565b50905600a165627a7a723058207a82a4a3e1eaae8775d1e93b34211649ba27290f5aebaba6d342ff76776e7c460029",
  "source": "pragma solidity ^0.4.0;\nimport './UserManager.sol';\nimport \"./Ownerble.sol\";\nimport \"./StoreBase.sol\";\nimport './SafeMath.sol';\nimport \"./VendorBase.sol\";\nimport \"./SpinelTokenSale.sol\";\n\ncontract ShoppingCartManager is Ownerble, StoreBase, VendorBase {\n    \n    SpinelTokenSale internal tokenSaleContract_shoppingCart;\n\n\n    event ItemInsertedToCart(uint cartSize);\n    event CartItemUpdated(uint productQuantity);\n    event CartItemDeleted(uint cartSize);\n    event PaymentCompleted(bool status);\n    event PaymentByTokenCompleted(uint256 amount);\n    event PaymentByEtherCompleted(uint256 amount);\n\n    function getCartItem(uint productId) public view returns(uint, bytes32, uint, uint, uint, uint, address){\n        //get store index\n        uint storeIndex = shoppingCarts[msg.sender].products[productId].storeIndex;\n        uint productQuantityToPurchase = shoppingCarts[msg.sender].products[productId].productQuantity;\n        address vendorAccount = shoppingCarts[msg.sender].products[productId].vendorAccount;\n        uint priceInSpinelToken = stores[vendorAccount][storeIndex].products[productId].priceInSpinelToken;\n        //get product details\n       // bytes32 memory productName = stores[vendorAccount][storeIndex].products[productId].name;\n       // bytes32 memory productDescription = stores[vendorAccount][storeIndex].products[productId].description;\n        //uint productPrice = stores[vendorAccount][storeIndex].products[productId].price;\n      \n        return (\n            productId,\n            stores[vendorAccount][storeIndex].products[productId].name,//productName\n            stores[vendorAccount][storeIndex].products[productId].price,//productPrice,\n            priceInSpinelToken,\n            productQuantityToPurchase,\n            storeIndex,\n            vendorAccount\n        );\n      // return shoppingCarts[msg.sender].cartPrice;\n    }\n    \n \n    function getCartPrice() public view returns(uint){\n       // return shoppingCarts[msg.sender].cartPrice;\n        uint cartPrice = 0;\n       // uint productPrice ;\n        for(uint i; i < shoppingCarts[msg.sender].productIds.length; i++) {\n           if(shoppingCarts[msg.sender].products[productId].purchaseComplete == false) {\n             uint productId = shoppingCarts[msg.sender].productIds[i];\n             ShoppingCartItem memory item = shoppingCarts[msg.sender].products[productId];\n             \n            //  if(PaymentMethod(paymentMethod) == PaymentMethod.Token) {\n            //        productPrice = stores[item.vendorAccount][item.storeIndex].products[productId].priceInSpinelToken;\n            //  } else {\n            //      productPrice = stores[item.vendorAccount][item.storeIndex].products[productId].price;\n            //  }\n             uint productPrice = stores[item.vendorAccount][item.storeIndex].products[productId].price;\n             uint productQuantity = shoppingCarts[msg.sender].products[productId].productQuantity;\n             \n             cartPrice = SafeMath.add(cartPrice, SafeMath.mul(productPrice, productQuantity));\n           }\n        }\n        \n        return cartPrice;\n    }\n\n    // function getCartPriceInTokenValue() public view returns(uint256) {\n    //       return tokenSaleContract_shoppingCart.toSpinel(getCartPrice());\n    // }\n    \n    function getCartItemsCount() public view returns(uint){\n        return shoppingCarts[msg.sender].productIds.length;\n    }\n    \n    function getCartItemsIds() public view returns(uint[]){\n        return shoppingCarts[msg.sender].productIds;\n    }\n    function addItemToCart(address vendorAccount, uint storeIndex, uint productId, uint productQuantity) public returns(bool){\n        \n       // delete shoppingCarts[msg.sender].cartItemSlot[productId];\n        //check if quantity in the store is equql or greater than purchased quantity\n        require(stores[vendorAccount][storeIndex].products[productId].quantity >= productQuantity);\n        require(stores[vendorAccount][storeIndex].products[productId].productId >0);\n        // require(stores[vendorAccount][storeIndex].products[productId].productId > 0 && \n        // shoppingCarts[msg.sender].cartItemSlot[productId].initialized == false);\n        //require that the vendor account is approved\n        require(vendors[vendorAccount].state == AccountState.Approved);\n        //GET PRODUCT SLOT / INDEX IN THE CART PRODUCT IDS LIST\n        uint productSlot = shoppingCarts[msg.sender].productIds.length;\n        //ADD PRODUCT ID TO LIST OF CART PRODUCT IDS, USED TO RETRIEVE PRODUCTS FOR DISPLAY\n        shoppingCarts[msg.sender].productIds.push(productId);\n        //INITIALZE SLOT WHICH CONTAINS THE ID INDEX/ SLOT\n        shoppingCarts[msg.sender].cartItemSlot[productId] = CartItemSlot(true, productSlot);\n   \n                 \n        //add product details\n         shoppingCarts[msg.sender].products[productId] = ShoppingCartItem({\n            productQuantity: productQuantity,\n            vendorAccount: vendorAccount,\n            storeIndex: storeIndex,\n            purchaseComplete: false\n          });\n\n          emit ItemInsertedToCart( shoppingCarts[msg.sender].productIds.length);\n          //update cart price \n        return  true;\n\n    }\n    \n    function updateCartItem(address vendorAccount, uint storeIndex, uint productId, uint productQuantity) public returns(bool){\n        //check if quantity in the store is equql or greater than purchased quantity\n        require(stores[vendorAccount][storeIndex].products[productId].quantity >= productQuantity);\n        \n        // require(stores[vendorAccount][storeIndex].products[productId].productId > 0 && \n        // shoppingCarts[msg.sender].cartItemSlot[productId].initialized == true);\n\n           require(stores[vendorAccount][storeIndex].products[productId].productId > 0 );\n\n           \n\n         shoppingCarts[msg.sender].products[productId].productQuantity = productQuantity;\n\n        emit CartItemUpdated(shoppingCarts[msg.sender].products[productId].productQuantity);\n\n         return true;\n         \n    }\n    \n   \n    \n    function deleteCartItem(uint productId ) public returns(bool) {\n        //get product id index\n        uint productCartIndex = shoppingCarts[msg.sender].cartItemSlot[productId].slot;\n        //remove the deleted product id by exchanging position with last item\n        shoppingCarts[msg.sender].productIds[productCartIndex] = shoppingCarts[msg.sender].productIds[shoppingCarts[msg.sender].productIds.length - 1];\n         shoppingCarts[msg.sender].productIds.length --;\n     \n        delete shoppingCarts[msg.sender].products[productId];\n        delete shoppingCarts[msg.sender].cartItemSlot[productId];\n\n        emit CartItemDeleted(shoppingCarts[msg.sender].productIds.length);\n        \n        return true;\n    }\n    \n    function deductDeletedCartItemPriceFromCartPrice(uint productPrice, uint purchasedQuantity, \n    uint currentCartPrice) private pure returns(uint){\n            \n            return SafeMath.sub(currentCartPrice, (SafeMath.mul(productPrice, purchasedQuantity )));\n    }\n\n    // function getCartPriceByPaymentMethod(uint256 paymentMethod)  public view returns(uint256) {\n\n    //     if(PaymentMethod(paymentMethod) == PaymentMethod.Token){\n    //         return getCartPriceInTokenValue();\n    //     } else {\n    //         return getCartPrice();\n    //     }\n    // }\n\n   \n\n    // function isCustomerBalanceSufficient(uint256 paymentMethod, uint customerBalanceInWei) public view returns(bool) {\n    //     if(PaymentMethod(paymentMethod) == PaymentMethod.Token) {\n    //         return tokenSaleContract_shoppingCart.getBalanceOf(msg.sender) >= getCartPrice(paymentMethod);//getCartPriceInTokenValue();\n    //     } else {\n    //         return customerBalanceInWei >= getCartPrice(paymentMethod);\n    //     }\n    // }\n\n    function getItemsPrice(uint256 paymentMethod,  address vendorAccount, uint256 storeIndex, uint productId) public view returns(uint256) {\n\n\n        if(PaymentMethod(paymentMethod) == PaymentMethod.Token) {\n               return stores[vendorAccount][storeIndex].products[productId].priceInSpinelToken;\n        } else {\n            return stores[vendorAccount][storeIndex].products[productId].price;\n        }\n    }\n\n  \n\n    function getTotalItemsPrice(uint256 productPrice, uint256 purchasedQuantity) public pure returns(uint256) {\n\n        uint256 totalItemsPrice = SafeMath.mul(productPrice, purchasedQuantity);\n\n        return totalItemsPrice;\n\n        // if(PaymentMethod(paymentMethod) == PaymentMethod.Token) {\n        //        return tokenSaleContract_shoppingCart.toSpinel(totalItemsPrice);\n        // } else {\n        //     return totalItemsPrice;\n        // }\n    }\n\n    // function getcustomerBalance(uint256 paymentMethod, uint256 customerBalance) public view returns(uint256){\n    //      if(PaymentMethod(paymentMethod) == PaymentMethod.Token) {\n    //            return tokenSaleContract_shoppingCart.getBalanceOf(msg.sender);\n    //     } else {\n    //         return customerBalance;\n    //     }\n    // }\n\n    // function payVendor(uint256 paymentMethod, address customerAccount, address vendorAccount, uint256 storeIndex,\n    //  uint256 totalItemsPrice )\n    //   public  returns(bool) {\n    //     if(PaymentMethod(paymentMethod) == PaymentMethod.Token) {\n    //          tokenSaleContract_shoppingCart.transferFrom(customerAccount, vendorAccount, totalItemsPrice);\n    //          emit PaymentByTokenCompleted(totalItemsPrice);\n    //     } else {\n         \n    //       stores[vendorAccount][storeIndex].revenue = SafeMath.add(stores[vendorAccount][storeIndex].revenue, totalItemsPrice);\n    //                 //UPDATE RETRIEVABLE BALANCE\n    //       vendors[vendorAccount].balance = SafeMath.add(vendors[vendorAccount].balance, totalItemsPrice);\n    //       emit PaymentByEtherCompleted(totalItemsPrice);\n    //     }\n\n         \n                   \n    // }\n\n//  function checkOutTokenPayment(uint256 paymentMethod) public payable returns(bool){\n//         require(shoppingCarts[msg.sender].productIds.length > 0);\n//         require(isCustomerBalanceSufficient(paymentMethod, msg.value));\n//         uint customerBalance = getcustomerBalance(paymentMethod, msg.value);\n//         for(uint i = 0; i< shoppingCarts[msg.sender].productIds.length; i++) {\n//             //\n//            uint productId = shoppingCarts[msg.sender].productIds[0];\n//             if(shoppingCarts[msg.sender].products[productId].purchaseComplete ==false) {\n            \n//                     uint purchasedQuantity = shoppingCarts[msg.sender].products[productId].productQuantity;\n//                     uint storeIndex = shoppingCarts[msg.sender].products[productId].storeIndex;\n//                     address vendorAccount = shoppingCarts[msg.sender].products[productId].vendorAccount;\n//                     //check if product exists\n//                     require(stores[vendorAccount][storeIndex].products[productId].productId > 0);\n//                     //check the quantity available equal to or greater than purchased quantity\n//                     require(stores[vendorAccount][storeIndex].products[productId].quantity >= purchasedQuantity);\n//                     //require the vendorAccount is a vendor\n//                     require(vendors[vendorAccount].state == AccountState.Approved);\n//                     // //GET PRODUCT PRIVPRODUCT\n//                     //\n//                     uint productPrice = getItemsPrice(paymentMethod, vendorAccount, storeIndex, productId);//stores[vendorAccount][storeIndex].products[productId].price;\n                    \n//                     uint totalItemsPrice = getTotalItemsPrice(productPrice, purchasedQuantity);\n                \n                     \n//                     require(customerBalance >= totalItemsPrice);\n                    \n//                      customerBalance = SafeMath.sub(customerBalance, totalItemsPrice);\n\n//                      shoppingCarts[msg.sender].products[productId].purchaseComplete = true;\n//                      //uint256 paymentMethod, address customerAccount, address vendorAccount, uint256 storeIndexuint256 totalItemsPrice\n//                      payVendor(paymentMethod, msg.sender,vendorAccount, storeIndex, totalItemsPrice);\n                   \n//                     // //\n                    \n//                     // //REDUCE PRODUCT quantity\n//                     // stores[vendorAccount][storeIndex].products[productId].quantity = SafeMath\n//                     // .sub(stores[vendorAccount][storeIndex].products[productId].quantity,\n//                     //     purchasedQuantity\n//                     // );\n                    \n//               }\n//         }\n\n//         emit PaymentCompleted(true);\n//          return true;\n//     }\n\n    \n   \n    function checkOut() public payable returns(bool) {\n        require(shoppingCarts[msg.sender].productIds.length > 0);\n        require(msg.value >= getCartPrice());\n        uint customerBalance = msg.value;\n        for(uint i = 0; i< shoppingCarts[msg.sender].productIds.length; i++) {\n            //\n            uint productId = shoppingCarts[msg.sender].productIds[0];\n            if(shoppingCarts[msg.sender].products[productId].purchaseComplete ==false) {\n            \n                    uint purchasedQuantity = shoppingCarts[msg.sender].products[productId].productQuantity;\n                    uint storeIndex = shoppingCarts[msg.sender].products[productId].storeIndex;\n                    address vendorAccount = shoppingCarts[msg.sender].products[productId].vendorAccount;\n                    //check if product exists\n                    require(stores[vendorAccount][storeIndex].products[productId].productId > 0);\n                    //check the quantity available equal to or greater than purchased quantity\n                    require(stores[vendorAccount][storeIndex].products[productId].quantity >= purchasedQuantity);\n                    //require the vendorAccount is a vendor\n                    require(vendors[vendorAccount].state == AccountState.Approved);\n                    //GET PRODUCT PRIVPRODUCT\n                    uint productPrice = stores[vendorAccount][storeIndex].products[productId].price;\n                    \n                    uint totalItemsPrice = SafeMath.mul(productPrice, purchasedQuantity);\n                     \n                    require(customerBalance >= totalItemsPrice);\n                    \n                    customerBalance = SafeMath.sub(customerBalance, totalItemsPrice);\n                     shoppingCarts[msg.sender].products[productId].purchaseComplete = true;\n                    //UPDATE STORE revenue // READ ONLY\n                    stores[vendorAccount][storeIndex].revenue = SafeMath.add(stores[vendorAccount][storeIndex].revenue, totalItemsPrice);\n                    //UPDATE RETRIEVABLE BALANCE\n                    vendors[vendorAccount].balance = SafeMath.add(vendors[vendorAccount].balance, totalItemsPrice);\n                    //\n                    \n                    //REDUCE PRODUCT quantity\n                    stores[vendorAccount][storeIndex].products[productId].quantity = SafeMath\n                    .sub(stores[vendorAccount][storeIndex].products[productId].quantity,\n                        purchasedQuantity\n                    );\n                    \n                     //remove item from slot\n            \n\n                   \n            \n              }\n              \n             \n            \n        }\n        \n        emit PaymentCompleted(true);\n        delete shoppingCarts[msg.sender];\n         return true;\n       //stores\n        \n    }\n    \n}",
  "sourcePath": "/Users/yusufkelo/Documents/DEVELOPER/ETHEREAUM/blockchain-market/market-place/contracts/ShoppingCartManager.sol",
  "compiler": {
    "name": "solc",
    "version": "0.4.24+commit.e67f0147.Emscripten.clang"
  },
  "schemaVersion": "2.0.0",
  "updatedAt": "2018-08-24T16:54:26.858Z"
}