{
  "contractName": "ShoppingCartManager",
  "abi": [
    {
      "constant": true,
      "inputs": [
        {
          "name": "productId",
          "type": "uint256"
        }
      ],
      "name": "getCartItem",
      "outputs": [
        {
          "name": "",
          "type": "uint256"
        },
        {
          "name": "",
          "type": "bytes32"
        },
        {
          "name": "",
          "type": "bytes32"
        },
        {
          "name": "",
          "type": "uint256"
        },
        {
          "name": "",
          "type": "uint256"
        },
        {
          "name": "",
          "type": "uint256"
        },
        {
          "name": "",
          "type": "address"
        }
      ],
      "payable": false,
      "stateMutability": "view",
      "type": "function"
    },
    {
      "constant": true,
      "inputs": [],
      "name": "getCartPrice",
      "outputs": [
        {
          "name": "",
          "type": "uint256"
        }
      ],
      "payable": false,
      "stateMutability": "view",
      "type": "function"
    },
    {
      "constant": true,
      "inputs": [],
      "name": "getCartItemsCount",
      "outputs": [
        {
          "name": "",
          "type": "uint256"
        }
      ],
      "payable": false,
      "stateMutability": "view",
      "type": "function"
    },
    {
      "constant": true,
      "inputs": [],
      "name": "getCartItemsIds",
      "outputs": [
        {
          "name": "",
          "type": "uint256[]"
        }
      ],
      "payable": false,
      "stateMutability": "view",
      "type": "function"
    },
    {
      "constant": false,
      "inputs": [
        {
          "name": "vendorAccount",
          "type": "address"
        },
        {
          "name": "storeIndex",
          "type": "uint256"
        },
        {
          "name": "productId",
          "type": "uint256"
        },
        {
          "name": "productQuantity",
          "type": "uint256"
        }
      ],
      "name": "addItemToCart",
      "outputs": [
        {
          "name": "",
          "type": "bool"
        }
      ],
      "payable": false,
      "stateMutability": "nonpayable",
      "type": "function"
    },
    {
      "constant": false,
      "inputs": [
        {
          "name": "vendorAccount",
          "type": "address"
        },
        {
          "name": "storeIndex",
          "type": "uint256"
        },
        {
          "name": "productId",
          "type": "uint256"
        },
        {
          "name": "productQuantity",
          "type": "uint256"
        }
      ],
      "name": "updateCartItem",
      "outputs": [
        {
          "name": "",
          "type": "bool"
        }
      ],
      "payable": false,
      "stateMutability": "nonpayable",
      "type": "function"
    },
    {
      "constant": false,
      "inputs": [
        {
          "name": "productId",
          "type": "uint256"
        }
      ],
      "name": "deleteCartItem",
      "outputs": [
        {
          "name": "",
          "type": "bool"
        }
      ],
      "payable": false,
      "stateMutability": "nonpayable",
      "type": "function"
    },
    {
      "constant": false,
      "inputs": [],
      "name": "checkOut",
      "outputs": [
        {
          "name": "",
          "type": "bool"
        }
      ],
      "payable": true,
      "stateMutability": "payable",
      "type": "function"
    }
  ],
  "bytecode": "0x608060405261001564010000000061001a810204565b61002e565b60008054600160a060020a03191633179055565b610eff8061003d6000396000f30060806040526004361061008d5763ffffffff7c010000000000000000000000000000000000000000000000000000000060003504166311f8391881146100925780636de0c1f2146100eb57806373ac9d35146101295780638297574b14610150578063cba5751c14610165578063e63aefcb1461016d578063f513747614610197578063fa846e5a146101af575b600080fd5b34801561009e57600080fd5b506100aa600435610214565b604080519788526020880196909652868601949094526060860192909252608085015260a0840152600160a060020a031660c0830152519081900360e00190f35b3480156100f757600080fd5b50610115600160a060020a0360043516602435604435606435610372565b604080519115158252519081900360200190f35b34801561013557600080fd5b5061013e610429565b60408051918252519081900360200190f35b34801561015c57600080fd5b5061013e610440565b610115610456565b34801561017957600080fd5b50610115600160a060020a0360043516602435604435606435610820565b3480156101a357600080fd5b506101156004356109ca565b3480156101bb57600080fd5b506101c4610c6c565b60408051602080825283518183015283519192839290830191858101910280838360005b838110156102005781810151838201526020016101e8565b505050509050019250505060405180910390f35b33600090815260016020818152604080842085855283018252808420600281015481549190940154600160a060020a03168086526004909352908420805485948594859485948594859493918591829182918790811061027057fe5b906000526020600020906006020160050160008f81526020019081526020016000206000015492506004600085600160a060020a0316600160a060020a03168152602001908152602001600020868154811015156102ca57fe5b906000526020600020906006020160050160008f81526020019081526020016000206001015491506004600085600160a060020a0316600160a060020a031681526020019081526020016000208681548110151561032457fe5b906000526020600020906006020160050160008f81526020019081526020016000206002015490508d838383888a899c509c509c509c509c509c509c50505050505050919395979092949650565b600160a060020a038416600090815260046020526040812080548291908690811061039957fe5b90600052602060002090600602016005016000858152602001908152602001600020600401541180156103ea57503360009081526001602081815260408084208785529091529091205460ff161515145b15156103f557600080fd5b3360009081526001602081815260408084208785529092019052902082905561042085858585610cd0565b95945050505050565b336000908152600160205260409020600201545b90565b3360009081526001602052604090206003015490565b3360009081526001602052604081206002015481908190819081908190819081908190811061048457600080fd5b336000908152600160205260409020600301543410156104a357600080fd5b349750600096505b3360009081526001602052604090206002015487101561081157336000908152600160205260408120600201805490919081106104e457fe5b60009182526020808320909101543383526001808352604080852083865290910190925291206003015490965060ff161515610806573360009081526001602081815260408084208a855283018252808420805460028201549190940154600160a060020a031680865260049093529084208054939950909750909550908690811061056c57fe5b600091825260208083208a8452600560069093020191909101905260409020600401541161059957600080fd5b600160a060020a03831660009081526004602052604090208054869190869081106105c057fe5b600091825260208083208a84526005600690930201820190526040909120015410156105eb57600080fd5b6001600160a060020a03841660009081526005602052604090206003015460ff16600181111561061757fe5b1461062157600080fd5b600160a060020a038316600090815260046020526040902080548590811061064557fe5b906000526020600020906006020160050160008781526020019081526020016000206002015491506106778286610d7d565b90508088101561068657600080fd5b6106908882610dac565b3360009081526001602081815260408084208b855283018252808420600301805460ff1916909317909255600160a060020a038716835260049052902080549199506106f891869081106106e057fe5b90600052602060002090600602016002015482610dbe565b600160a060020a038416600090815260046020526040902080548690811061071c57fe5b9060005260206000209060060201600201819055506107636005600085600160a060020a0316600160a060020a031681526020019081526020016000206007015482610dbe565b600160a060020a038416600090815260056020908152604080832060070193909355600490522080546107c191908690811061079b57fe5b600091825260208083208a84526005600690930201820190526040909120015486610dac565b600160a060020a03841660009081526004602052604090208054869081106107e557fe5b600091825260208083208a8452600560069093020182019052604090912001555b6001909601956104ab565b60019850505050505050505090565b600160a060020a03841660009081526004602052604081208054829182918790811061084857fe5b9060005260206000209060060201600501600086815260200190815260200160002060040154118015610896575033600090815260016020908152604080832087845290915290205460ff16155b15156108a157600080fd5b6001600160a060020a03871660009081526005602052604090206003015460ff1660018111156108cd57fe5b146108d757600080fd5b5033600090815260016020818152604080842060028082018054808701825590875284872081018a9055835180850185528681528086018281528b89528487528589209151825490151560ff1991821617835590519188019190915584516080810186528a8152600160a060020a038e81168289019081528288018f8152606084018c81528f8d52978b019099529690992090518155945196850180549790981673ffffffffffffffffffffffffffffffffffffffff1990971696909617909655925192820192909255905160039091018054911515919092161790556109c086868686610dcb565b9695505050505050565b336000818152600160208181526040808420868552808352908420830154948452919052600201805491929183918291829182916000198101908110610a0c57fe5b600091825260208083209091015433835260019091526040909120600201805487908110610a3657fe5b6000918252602080832090910192909255338152600190915260409020600201805490610a67906000198301610e8c565b506001600033600160a060020a0316600160a060020a0316815260200190815260200160002060010160008881526020019081526020016000206002015493506001600033600160a060020a0316600160a060020a0316815260200190815260200160002060010160008881526020019081526020016000206000015492506001600033600160a060020a0316600160a060020a031681526020019081526020016000206003015491506001600033600160a060020a0316600160a060020a0316815260200190815260200160002060010160008881526020019081526020016000206000808201600090556001820160006101000a815490600160a060020a03021916905560028201600090556003820160006101000a81549060ff021916905550506001600033600160a060020a0316600160a060020a031681526020019081526020016000206000016000888152602001908152602001600020600080820160006101000a81549060ff0219169055600182016000905550506004600033600160a060020a0316600160a060020a0316815260200190815260200160002084815481101515610c1557fe5b90600052602060002090600602016005016000888152602001908152602001600020600201549050610c48818484610e54565b33600090815260016020819052604090912060030191909155979650505050505050565b33600090815260016020908152604091829020600201805483518184028101840190945280845260609392830182828015610cc657602002820191906000526020600020905b815481526020019060010190808311610cb2575b5050505050905090565b600160a060020a038416600090815260046020526040812080548291829187908110610cf857fe5b6000918252602080832088845260056006909302019190910181526040808320600201543380855260018085528386208b8752808201865293862054919095529390925260030154909350909150610d539083908390610e54565b33600090815260016020526040902060030155610d7287878787610dcb565b979650505050505050565b6000821515610d8e57506000610da6565b50818102818382811515610d9e57fe5b0414610da657fe5b92915050565b600082821115610db857fe5b50900390565b81810182811015610da657fe5b33600090815260016020908152604080832060030154600160a060020a0388168452600490925282208054610e3292919087908110610e0657fe5b906000526020600020906006020160050160008681526020019081526020016000206002015484610e71565b3360009081526001602081905260409091206003019190915595945050505050565b6000610e6982610e648686610d7d565b610dac565b949350505050565b6000806000610e808585610d7d565b91506109c08683610dbe565b815481835581811115610eb057600083815260209020610eb0918101908301610eb5565b505050565b61043d91905b80821115610ecf5760008155600101610ebb565b50905600a165627a7a723058205873c9a45f0d491046239dbaf36d05211eacc3f6dd05600bbcf3c4620056973d0029",
  "source": "pragma solidity ^0.4.0;\nimport './UserManager.sol';\nimport \"./Ownerble.sol\";\nimport \"./StoreBase.sol\";\nimport './SafeMath.sol';\nimport \"./VendorBase.sol\";\n\ncontract ShoppingCartManager is Ownerble, StoreBase, VendorBase {\n    \n\n    \n    function getCartItem(uint productId) public view returns(uint, bytes32, bytes32, uint, uint, uint, address){\n        //get store index\n        uint storeIndex = shoppingCarts[msg.sender].products[productId].storeIndex;\n        uint productQuantityToPurchase = shoppingCarts[msg.sender].products[productId].productQuantity;\n        address vendorAccount = shoppingCarts[msg.sender].products[productId].vendorAccount;\n        //get product details\n        bytes32 productName = stores[vendorAccount][storeIndex].products[productId].name;\n        bytes32 productDescription = stores[vendorAccount][storeIndex].products[productId].description;\n        uint productPrice = stores[vendorAccount][storeIndex].products[productId].price;\n      \n        return (\n            productId,\n            productName,\n            productDescription,\n            productPrice,\n            productQuantityToPurchase,\n            storeIndex,\n            vendorAccount\n        );\n      // return shoppingCarts[msg.sender].cartPrice;\n    }\n    \n    function getCartPrice() public view returns(uint){\n        return shoppingCarts[msg.sender].cartPrice;\n    }\n    function getCartItemsCount() public view returns(uint){\n        return shoppingCarts[msg.sender].productIds.length;\n    }\n    \n    function getCartItemsIds() public view returns(uint[]){\n        return shoppingCarts[msg.sender].productIds;\n    }\n    function addItemToCart(address vendorAccount, uint storeIndex, uint productId, uint productQuantity) public returns(bool){\n        require(stores[vendorAccount][storeIndex].products[productId].productId > 0 && \n        shoppingCarts[msg.sender].cartItemSlot[productId].initialized == false);\n        //require that the vendor account is approved\n        require(vendors[vendorAccount].state == AccountState.Approved);\n        //GET PRODUCT SLOT / INDEX IN THE CART PRODUCT IDS LIST\n        uint productSlot = shoppingCarts[msg.sender].productIds.length;\n        //ADD PRODUCT ID TO LIST OF CART PRODUCT IDS, USED TO RETRIEVE PRODUCTS FOR DISPLAY\n        shoppingCarts[msg.sender].productIds.push(productId);\n        //INITIALZE SLOT WHICH CONTAINS THE ID INDEX/ SLOT\n        shoppingCarts[msg.sender].cartItemSlot[productId] = CartItemSlot(true, productSlot);\n                 \n        //add product details\n         shoppingCarts[msg.sender].products[productId] = ShoppingCartItem({\n            productQuantity: productQuantity,\n            vendorAccount: vendorAccount,\n            storeIndex: storeIndex,\n            purchaseComplete: false\n          });\n          //update cart price \n        return addToCartPrice(vendorAccount, storeIndex, productId, productQuantity);\n\n    }\n    \n    function updateCartItem(address vendorAccount, uint storeIndex, uint productId, uint productQuantity) public returns(bool){\n        require(stores[vendorAccount][storeIndex].products[productId].productId > 0 && \n        shoppingCarts[msg.sender].cartItemSlot[productId].initialized == true);\n        \n         shoppingCarts[msg.sender].products[productId].productQuantity = productQuantity;\n         \n        return updateCartPrice(vendorAccount, storeIndex, productId, productQuantity);\n         \n    }\n    \n      \n    function addToCartPrice(address vendorAccount, uint storeIndex, uint productId, uint productQuantity) private returns(bool) {\n      \n         \n          \n         shoppingCarts[msg.sender].cartPrice = calculateCartPrice(\n           shoppingCarts[msg.sender].cartPrice,\n           stores[vendorAccount][storeIndex].products[productId].price,\n           productQuantity\n          );\n          \n          return true;\n    }\n    \n    function updateCartPrice(address vendorAccount, uint storeIndex, uint productId, uint productQuantity) private returns(bool) {\n      \n         uint price = stores[vendorAccount][storeIndex].products[productId].price;\n         uint currentProductQuantity = shoppingCarts[msg.sender].products[productId].productQuantity;\n         \n         //DEDUCT THE PRODUCTS OLD TOTAL BEFORE ADDING THE NEW\n         shoppingCarts[msg.sender].cartPrice =  deductDeletedCartItemPriceFromCartPrice(price,currentProductQuantity,\n         shoppingCarts[msg.sender].cartPrice);\n         \n          \n          \n          return addToCartPrice(vendorAccount, storeIndex, productId, productQuantity);\n    }\n    \n    \n    \n    function deleteCartItem(uint productId ) public returns(bool) {\n        //get product id index\n        uint productCartIndex = shoppingCarts[msg.sender].cartItemSlot[productId].slot;\n        //remove the deleted product id by exchanging position with last item\n        shoppingCarts[msg.sender].productIds[productCartIndex] = shoppingCarts[msg.sender].productIds[shoppingCarts[msg.sender].productIds.length - 1];\n         shoppingCarts[msg.sender].productIds.length --;\n        //\n        uint storeIndex = shoppingCarts[msg.sender].products[productId].storeIndex;\n        uint productQuantity = shoppingCarts[msg.sender].products[productId].productQuantity;\n        uint currentCartPrice = shoppingCarts[msg.sender].cartPrice;\n        //\n        delete shoppingCarts[msg.sender].products[productId];\n        delete shoppingCarts[msg.sender].cartItemSlot[productId];\n        //\n        uint productPrice = stores[msg.sender][storeIndex].products[productId].price;\n        //UPDATE CART PRICE\n        shoppingCarts[msg.sender].cartPrice = deductDeletedCartItemPriceFromCartPrice(productPrice,\n        productQuantity, currentCartPrice);\n        \n        return true;\n    }\n    \n    function deductDeletedCartItemPriceFromCartPrice(uint productPrice, uint purchasedQuantity, \n    uint currentCartPrice) private pure returns(uint){\n            \n            return SafeMath.sub(currentCartPrice, (SafeMath.mul(productPrice, purchasedQuantity )));\n    }\n    \n    function calculateCartPrice(uint currentCartPrice, uint productPrice, uint quantity ) private pure returns(uint) {\n         \n         uint totalPrice = SafeMath.mul(productPrice, quantity);\n         uint newCartPrice = SafeMath.add(currentCartPrice, totalPrice);\n         return newCartPrice;\n    }\n    \n    function checkOut() public payable returns(bool) {\n        require(shoppingCarts[msg.sender].productIds.length > 0);\n        require(msg.value >= shoppingCarts[msg.sender].cartPrice);\n        uint customerBalance = msg.value;\n        for(uint i = 0; i< shoppingCarts[msg.sender].productIds.length; i++) {\n            //\n            uint productId = shoppingCarts[msg.sender].productIds[0];\n            if(shoppingCarts[msg.sender].products[productId].purchaseComplete ==false) {\n            \n                    uint purchasedQuantity = shoppingCarts[msg.sender].products[productId].productQuantity;\n                    uint storeIndex = shoppingCarts[msg.sender].products[productId].storeIndex;\n                    address vendorAccount = shoppingCarts[msg.sender].products[productId].vendorAccount;\n                    require(stores[vendorAccount][storeIndex].products[productId].productId > 0);\n                    //check the quantity available equal to or greater than purchased quantity\n                    require(stores[vendorAccount][storeIndex].products[productId].quantity >= purchasedQuantity);\n                    //require the vendorAccount is a vendor\n                    require(vendors[vendorAccount].state == AccountState.Approved);\n                    //GET PRODUCT PRIVPRODUCT\n                    uint productPrice = stores[vendorAccount][storeIndex].products[productId].price;\n                    \n                    uint totalItemsPrice = SafeMath.mul(productPrice, purchasedQuantity);\n                     \n                    require(customerBalance >= totalItemsPrice);\n                    \n                    customerBalance = SafeMath.sub(customerBalance, totalItemsPrice);\n                     shoppingCarts[msg.sender].products[productId].purchaseComplete = true;\n                    //UPDATE STORE revenue // READ ONLY\n                    stores[vendorAccount][storeIndex].revenue = SafeMath.add(stores[vendorAccount][storeIndex].revenue, totalItemsPrice);\n                    //UPDATE RETRIEVABLE BALANCE\n                    vendors[vendorAccount].balance = SafeMath.add(vendors[vendorAccount].balance, totalItemsPrice);\n                    //\n                    \n                    //REDUCE PRODUCT quantity\n                    stores[vendorAccount][storeIndex].products[productId].quantity = SafeMath\n                    .sub(stores[vendorAccount][storeIndex].products[productId].quantity,\n                        purchasedQuantity\n                    );\n                   \n            \n              }\n              \n             \n            \n        }\n        \n         return true;\n       //stores\n        \n    }\n    \n}",
  "sourcePath": "/Users/yusufkelo/Documents/DEVELOPER/ETHEREAUM/blockchain-market/market-place/contracts/ShoppingCartManager.sol",
  "compiler": {
    "name": "solc",
    "version": "0.4.24+commit.e67f0147.Emscripten.clang"
  },
  "schemaVersion": "2.0.0",
  "updatedAt": "2018-08-11T15:48:12.861Z"
}