{
  "contractName": "SimpleStorage",
  "abi": [
    {
      "constant": true,
      "inputs": [
        {
          "name": "_ipfsHash",
          "type": "string"
        }
      ],
      "name": "set",
      "outputs": [
        {
          "name": "",
          "type": "string"
        }
      ],
      "payable": false,
      "stateMutability": "view",
      "type": "function"
    }
  ],
  "bytecode": "0x608060405234801561001057600080fd5b506101f6806100206000396000f3006080604052600436106100405763ffffffff7c01000000000000000000000000000000000000000000000000000000006000350416634ed3885e8114610045575b600080fd5b34801561005157600080fd5b506040805160206004803580820135601f810184900484028501840190955284845261009e9436949293602493928401919081908401838280828437509497506101139650505050505050565b6040805160208082528351818301528351919283929083019185019080838360005b838110156100d85781810151838201526020016100c0565b50505050905090810190601f1680156101055780820380516001836020036101000a031916815260200191505b509250505060405180910390f35b805160609061012990600090602085019061012f565b50919050565b828054600181600116156101000203166002900490600052602060002090601f016020900481019282601f1061017057805160ff191683800117855561019d565b8280016001018555821561019d579182015b8281111561019d578251825591602001919060010190610182565b506101a99291506101ad565b5090565b6101c791905b808211156101a957600081556001016101b3565b905600a165627a7a72305820a3cddafb61e87c052d3852efb1bdbedc1cdd80acfe825e542ee0f970f7ced7650029",
  "source": "\npragma solidity 0.4.24;\n\ncontract SimpleStorage{\n   string ipfsHash;\n\n   function set(string _ipfsHash) public  view returns (string) {\n         ipfsHash = _ipfsHash;\n    }\n}\n\n  ",
  "sourcePath": "/Users/yusufkelo/Documents/DEVELOPER/ETHEREAUM/blockchain-market/market-place/contracts/SimpleStorage.sol",
  "compiler": {
    "name": "solc",
    "version": "0.4.24+commit.e67f0147.Emscripten.clang"
  },
  "schemaVersion": "2.0.0",
  "updatedAt": "2018-08-25T17:38:33.904Z"
}