{
  "contractName": "SpinelToken",
  "abi": [
    {
      "constant": true,
      "inputs": [],
      "name": "name",
      "outputs": [
        {
          "name": "",
          "type": "string"
        }
      ],
      "payable": false,
      "stateMutability": "view",
      "type": "function"
    },
    {
      "constant": true,
      "inputs": [],
      "name": "totalSupply",
      "outputs": [
        {
          "name": "",
          "type": "uint256"
        }
      ],
      "payable": false,
      "stateMutability": "view",
      "type": "function"
    },
    {
      "constant": true,
      "inputs": [],
      "name": "standard",
      "outputs": [
        {
          "name": "",
          "type": "string"
        }
      ],
      "payable": false,
      "stateMutability": "view",
      "type": "function"
    },
    {
      "constant": true,
      "inputs": [
        {
          "name": "",
          "type": "address"
        }
      ],
      "name": "balanceOf",
      "outputs": [
        {
          "name": "",
          "type": "uint256"
        }
      ],
      "payable": false,
      "stateMutability": "view",
      "type": "function"
    },
    {
      "constant": true,
      "inputs": [],
      "name": "symbol",
      "outputs": [
        {
          "name": "",
          "type": "string"
        }
      ],
      "payable": false,
      "stateMutability": "view",
      "type": "function"
    },
    {
      "constant": true,
      "inputs": [
        {
          "name": "",
          "type": "address"
        },
        {
          "name": "",
          "type": "address"
        }
      ],
      "name": "allowance",
      "outputs": [
        {
          "name": "",
          "type": "uint256"
        }
      ],
      "payable": false,
      "stateMutability": "view",
      "type": "function"
    },
    {
      "inputs": [
        {
          "name": "_initialSupply",
          "type": "uint256"
        }
      ],
      "payable": false,
      "stateMutability": "nonpayable",
      "type": "constructor"
    },
    {
      "anonymous": false,
      "inputs": [
        {
          "indexed": true,
          "name": "_from",
          "type": "address"
        },
        {
          "indexed": true,
          "name": "_to",
          "type": "address"
        },
        {
          "indexed": false,
          "name": "_value",
          "type": "uint256"
        }
      ],
      "name": "Transfer",
      "type": "event"
    },
    {
      "anonymous": false,
      "inputs": [
        {
          "indexed": true,
          "name": "_owner",
          "type": "address"
        },
        {
          "indexed": true,
          "name": "_spender",
          "type": "address"
        },
        {
          "indexed": false,
          "name": "_value",
          "type": "uint256"
        }
      ],
      "name": "Approval",
      "type": "event"
    },
    {
      "constant": false,
      "inputs": [
        {
          "name": "_to",
          "type": "address"
        },
        {
          "name": "_value",
          "type": "uint256"
        }
      ],
      "name": "transfer",
      "outputs": [
        {
          "name": "success",
          "type": "bool"
        }
      ],
      "payable": false,
      "stateMutability": "nonpayable",
      "type": "function"
    },
    {
      "constant": false,
      "inputs": [
        {
          "name": "_spender",
          "type": "address"
        },
        {
          "name": "_value",
          "type": "uint256"
        }
      ],
      "name": "approve",
      "outputs": [
        {
          "name": "success",
          "type": "bool"
        }
      ],
      "payable": false,
      "stateMutability": "nonpayable",
      "type": "function"
    },
    {
      "constant": false,
      "inputs": [
        {
          "name": "_spender",
          "type": "address"
        },
        {
          "name": "_value",
          "type": "uint256"
        }
      ],
      "name": "approveAdmin",
      "outputs": [
        {
          "name": "",
          "type": "bool"
        }
      ],
      "payable": false,
      "stateMutability": "nonpayable",
      "type": "function"
    },
    {
      "constant": false,
      "inputs": [
        {
          "name": "_from",
          "type": "address"
        },
        {
          "name": "_to",
          "type": "address"
        },
        {
          "name": "_value",
          "type": "uint256"
        }
      ],
      "name": "transferFrom",
      "outputs": [
        {
          "name": "success",
          "type": "bool"
        }
      ],
      "payable": false,
      "stateMutability": "nonpayable",
      "type": "function"
    }
  ],
  "bytecode": "0x60c0604052600c60808190527f5350494e454c20546f6b656e000000000000000000000000000000000000000060a090815261003e9160009190610118565b506040805180820190915260028082527f534c000000000000000000000000000000000000000000000000000000000000602090920191825261008391600191610118565b506040805180820190915260118082527f5350494e454c20546f6b656e2076312e3000000000000000000000000000000060209092019182526100c891600391610118565b503480156100d557600080fd5b506040516020806107bd833981016040908152905160048054600160a060020a0319163390811790915560009081526005602052919091208190556002556101b3565b828054600181600116156101000203166002900490600052602060002090601f016020900481019282601f1061015957805160ff1916838001178555610186565b82800160010185558215610186579182015b8281111561018657825182559160200191906001019061016b565b50610192929150610196565b5090565b6101b091905b80821115610192576000815560010161019c565b90565b6105fb806101c26000396000f3006080604052600436106100a35763ffffffff7c010000000000000000000000000000000000000000000000000000000060003504166306fdde0381146100a8578063095ea7b31461013257806318160ddd1461016a57806323b872dd146101915780635a3b7e42146101bb57806370a08231146101d0578063888de284146101f157806395d89b4114610215578063a9059cbb1461022a578063dd62ed3e1461024e575b600080fd5b3480156100b457600080fd5b506100bd610275565b6040805160208082528351818301528351919283929083019185019080838360005b838110156100f75781810151838201526020016100df565b50505050905090810190601f1680156101245780820380516001836020036101000a031916815260200191505b509250505060405180910390f35b34801561013e57600080fd5b50610156600160a060020a0360043516602435610303565b604080519115158252519081900360200190f35b34801561017657600080fd5b5061017f610369565b60408051918252519081900360200190f35b34801561019d57600080fd5b50610156600160a060020a036004358116906024351660443561036f565b3480156101c757600080fd5b506100bd61044e565b3480156101dc57600080fd5b5061017f600160a060020a03600435166104a9565b3480156101fd57600080fd5b50610156600160a060020a03600435166024356104bb565b34801561022157600080fd5b506100bd6104ce565b34801561023657600080fd5b50610156600160a060020a0360043516602435610528565b34801561025a57600080fd5b5061017f600160a060020a03600435811690602435166105b2565b6000805460408051602060026001851615610100026000190190941693909304601f810184900484028201840190925281815292918301828280156102fb5780601f106102d0576101008083540402835291602001916102fb565b820191906000526020600020905b8154815290600101906020018083116102de57829003601f168201915b505050505081565b336000818152600660209081526040808320600160a060020a038716808552908352818420869055815186815291519394909390927f8c5be1e5ebec7d5bd14f71427d1e84f3dd0314c0f7b2291e5b200ac8c7c3b925928290030190a350600192915050565b60025481565b600160a060020a03831660009081526005602052604081205482111561039457600080fd5b600160a060020a03841660009081526006602090815260408083203384529091529020548211156103c457600080fd5b600160a060020a0380851660008181526005602090815260408083208054889003905593871680835284832080548801905583835260068252848320338452825291849020805487900390558351868152935191937fddf252ad1be2c89b69c2b068fc378daa952ba7f163c4a11628f55a4df523b3ef929081900390910190a35060019392505050565b6003805460408051602060026001851615610100026000190190941693909304601f810184900484028201840190925281815292918301828280156102fb5780601f106102d0576101008083540402835291602001916102fb565b60056020526000908152604090205481565b60006104c78383610303565b9392505050565b60018054604080516020600284861615610100026000190190941693909304601f810184900484028201840190925281815292918301828280156102fb5780601f106102d0576101008083540402835291602001916102fb565b3360009081526005602052604081205482111561054457600080fd5b33600081815260056020908152604080832080548790039055600160a060020a03871680845292819020805487019055805186815290519293927fddf252ad1be2c89b69c2b068fc378daa952ba7f163c4a11628f55a4df523b3ef929181900390910190a350600192915050565b6006602090815260009283526040808420909152908252902054815600a165627a7a723058202fdeec8ca72dac43dce8673005bf6a7afaf9407afd088bec14fc8a8779a7f5b60029",
  "source": "pragma solidity ^0.4.2;\n\ncontract SpinelToken {\n    //NAME\n    string public name = \"SPINEL Token\";\n    //SYMBOL\n    string public symbol = 'SL';\n    //total supply is from ERC20 \n    uint256 public totalSupply ;\n       //standard - not part of ERC20 standard\n    string public standard = 'SPINEL Token v1.0';\n\n    address owner;\n\n    event  Transfer(\n        address indexed _from,\n        address indexed _to,\n        uint256 _value\n    );\n\n    event Approval(\n        address indexed _owner,\n        address indexed _spender,\n        uint256 _value\n    );\n\n    mapping(address => uint256) public balanceOf;\n    //account A , approves account C, to spend x tokens\n    mapping(address => mapping(address => uint256)) public allowance;\n\n    constructor(uint256 _initialSupply) public {\n         owner = msg.sender;\n         balanceOf[msg.sender] = _initialSupply;\n                  //allocate the initial supply\n         totalSupply = _initialSupply;\n    }\n\n    function transfer(address _to, uint256 _value) public returns (bool success) {\n       //TRANSFER\n       require(balanceOf[msg.sender] >= _value);\n       balanceOf[msg.sender] -= _value;\n       balanceOf[_to] += _value; \n       emit Transfer(msg.sender, _to, _value);\n\n        success = true;\n       //EXCEPTION IF ACCOUNT DOES NOT HAVE ENOUGH\n       //TRANSFER EVENT\n    } \n\n    //Delegated Transfer\n    \n    function approve(address _spender, uint256 _value) public returns(bool success) {\n         allowance[msg.sender][_spender] = _value;\n         emit Approval(msg.sender, _spender, _value);\n         success = true;\n    }\n\n    function approveAdmin(address _spender, uint256 _value) public returns(bool) {\n          return approve(_spender, _value);\n    }\n\n    function transferFrom(address _from, address _to, uint256 _value) public returns(bool success) {\n         require(_value <= balanceOf[_from]);\n         require(_value <= allowance[_from][msg.sender]);\n        \n        balanceOf[_from] -= _value;\n        balanceOf[_to] += _value;\n         allowance[_from] [msg.sender]-= _value; \n         emit Transfer(_from, _to, _value);\n         success = true;\n    }\n}",
  "sourcePath": "/Users/yusufkelo/Documents/DEVELOPER/ETHEREAUM/blockchain-market/market-place/contracts/SpinelToken.sol",
  "compiler": {
    "name": "solc",
    "version": "0.4.24+commit.e67f0147.Emscripten.clang"
  },
  "schemaVersion": "2.0.0",
  "updatedAt": "2018-08-23T12:05:40.298Z"
}