{
  "contractName": "SpinelToken",
  "abi": [
    {
      "constant": true,
      "inputs": [],
      "name": "name",
      "outputs": [
        {
          "name": "",
          "type": "string"
        }
      ],
      "payable": false,
      "stateMutability": "view",
      "type": "function"
    },
    {
      "constant": true,
      "inputs": [],
      "name": "totalSupply",
      "outputs": [
        {
          "name": "",
          "type": "uint256"
        }
      ],
      "payable": false,
      "stateMutability": "view",
      "type": "function"
    },
    {
      "constant": true,
      "inputs": [],
      "name": "standard",
      "outputs": [
        {
          "name": "",
          "type": "string"
        }
      ],
      "payable": false,
      "stateMutability": "view",
      "type": "function"
    },
    {
      "constant": true,
      "inputs": [
        {
          "name": "",
          "type": "address"
        }
      ],
      "name": "balanceOf",
      "outputs": [
        {
          "name": "",
          "type": "uint256"
        }
      ],
      "payable": false,
      "stateMutability": "view",
      "type": "function"
    },
    {
      "constant": true,
      "inputs": [],
      "name": "symbol",
      "outputs": [
        {
          "name": "",
          "type": "string"
        }
      ],
      "payable": false,
      "stateMutability": "view",
      "type": "function"
    },
    {
      "constant": true,
      "inputs": [
        {
          "name": "",
          "type": "address"
        },
        {
          "name": "",
          "type": "address"
        }
      ],
      "name": "allowance",
      "outputs": [
        {
          "name": "",
          "type": "uint256"
        }
      ],
      "payable": false,
      "stateMutability": "view",
      "type": "function"
    },
    {
      "inputs": [
        {
          "name": "_initialSupply",
          "type": "uint256"
        }
      ],
      "payable": false,
      "stateMutability": "nonpayable",
      "type": "constructor"
    },
    {
      "anonymous": false,
      "inputs": [
        {
          "indexed": true,
          "name": "_from",
          "type": "address"
        },
        {
          "indexed": true,
          "name": "_to",
          "type": "address"
        },
        {
          "indexed": false,
          "name": "_value",
          "type": "uint256"
        }
      ],
      "name": "Transfer",
      "type": "event"
    },
    {
      "anonymous": false,
      "inputs": [
        {
          "indexed": true,
          "name": "_owner",
          "type": "address"
        },
        {
          "indexed": true,
          "name": "_spender",
          "type": "address"
        },
        {
          "indexed": false,
          "name": "_value",
          "type": "uint256"
        }
      ],
      "name": "Approval",
      "type": "event"
    },
    {
      "anonymous": false,
      "inputs": [
        {
          "indexed": true,
          "name": "_balance",
          "type": "uint256"
        }
      ],
      "name": "TokenBalance",
      "type": "event"
    },
    {
      "constant": false,
      "inputs": [
        {
          "name": "_to",
          "type": "address"
        },
        {
          "name": "_value",
          "type": "uint256"
        }
      ],
      "name": "transfer",
      "outputs": [
        {
          "name": "success",
          "type": "bool"
        }
      ],
      "payable": false,
      "stateMutability": "nonpayable",
      "type": "function"
    },
    {
      "constant": false,
      "inputs": [
        {
          "name": "_spender",
          "type": "address"
        },
        {
          "name": "_value",
          "type": "uint256"
        }
      ],
      "name": "approve",
      "outputs": [
        {
          "name": "success",
          "type": "bool"
        }
      ],
      "payable": false,
      "stateMutability": "nonpayable",
      "type": "function"
    },
    {
      "constant": false,
      "inputs": [
        {
          "name": "_spender",
          "type": "address"
        }
      ],
      "name": "clearApproval",
      "outputs": [
        {
          "name": "success",
          "type": "bool"
        }
      ],
      "payable": false,
      "stateMutability": "nonpayable",
      "type": "function"
    },
    {
      "constant": false,
      "inputs": [
        {
          "name": "_spender",
          "type": "address"
        },
        {
          "name": "_value",
          "type": "uint256"
        }
      ],
      "name": "approveAdmin",
      "outputs": [
        {
          "name": "",
          "type": "bool"
        }
      ],
      "payable": false,
      "stateMutability": "nonpayable",
      "type": "function"
    },
    {
      "constant": false,
      "inputs": [
        {
          "name": "_from",
          "type": "address"
        },
        {
          "name": "_to",
          "type": "address"
        },
        {
          "name": "_value",
          "type": "uint256"
        }
      ],
      "name": "transferFrom",
      "outputs": [
        {
          "name": "success",
          "type": "bool"
        }
      ],
      "payable": false,
      "stateMutability": "nonpayable",
      "type": "function"
    },
    {
      "constant": true,
      "inputs": [],
      "name": "getOwner",
      "outputs": [
        {
          "name": "",
          "type": "address"
        }
      ],
      "payable": false,
      "stateMutability": "view",
      "type": "function"
    }
  ],
  "bytecode": "0x60c0604052600c60808190527f5350494e454c20546f6b656e000000000000000000000000000000000000000060a090815261003e9160009190610118565b506040805180820190915260028082527f534c000000000000000000000000000000000000000000000000000000000000602090920191825261008391600191610118565b506040805180820190915260118082527f5350494e454c20546f6b656e2076312e3000000000000000000000000000000060209092019182526100c891600391610118565b503480156100d557600080fd5b506040516020806108a1833981016040908152905160048054600160a060020a0319163390811790915560009081526005602052919091208190556002556101b3565b828054600181600116156101000203166002900490600052602060002090601f016020900481019282601f1061015957805160ff1916838001178555610186565b82800160010185558215610186579182015b8281111561018657825182559160200191906001019061016b565b50610192929150610196565b5090565b6101b091905b80821115610192576000815560010161019c565b90565b6106df806101c26000396000f3006080604052600436106100b95763ffffffff7c010000000000000000000000000000000000000000000000000000000060003504166306fdde0381146100be578063095ea7b31461014857806318160ddd1461018057806323b872dd146101a75780635a3b7e42146101d157806370a08231146101e6578063888de28414610207578063893d20e81461022b57806395d89b411461025c578063a80eca7d14610271578063a9059cbb14610292578063dd62ed3e146102b6575b600080fd5b3480156100ca57600080fd5b506100d36102dd565b6040805160208082528351818301528351919283929083019185019080838360005b8381101561010d5781810151838201526020016100f5565b50505050905090810190601f16801561013a5780820380516001836020036101000a031916815260200191505b509250505060405180910390f35b34801561015457600080fd5b5061016c600160a060020a036004351660243561036b565b604080519115158252519081900360200190f35b34801561018c57600080fd5b506101956103d1565b60408051918252519081900360200190f35b3480156101b357600080fd5b5061016c600160a060020a03600435811690602435166044356103d7565b3480156101dd57600080fd5b506100d36104f7565b3480156101f257600080fd5b50610195600160a060020a0360043516610552565b34801561021357600080fd5b5061016c600160a060020a0360043516602435610564565b34801561023757600080fd5b50610240610577565b60408051600160a060020a039092168252519081900360200190f35b34801561026857600080fd5b506100d3610586565b34801561027d57600080fd5b5061016c600160a060020a03600435166105e0565b34801561029e57600080fd5b5061016c600160a060020a036004351660243561060c565b3480156102c257600080fd5b50610195600160a060020a0360043581169060243516610696565b6000805460408051602060026001851615610100026000190190941693909304601f810184900484028201840190925281815292918301828280156103635780601f1061033857610100808354040283529160200191610363565b820191906000526020600020905b81548152906001019060200180831161034657829003601f168201915b505050505081565b336000818152600660209081526040808320600160a060020a038716808552908352818420869055815186815291519394909390927f8c5be1e5ebec7d5bd14f71427d1e84f3dd0314c0f7b2291e5b200ac8c7c3b925928290030190a350600192915050565b60025481565b600160a060020a0383166000908152600560205260408120548211156103fc57600080fd5b600160a060020a038416600090815260066020908152604080832033845290915290205482111561042c57600080fd5b600160a060020a0380851660008181526005602090815260408083208054889003905593871680835284832080548801905583835260068252848320338452825291849020805487900390558351868152935191937fddf252ad1be2c89b69c2b068fc378daa952ba7f163c4a11628f55a4df523b3ef929081900390910190a3600160a060020a03841660009081526005602052604080822054905190917f1bfc1e7f8038e9d083421b645dc7cf0c1e5c9f75afdb64c84b5e9caf7ac1e71691a25060019392505050565b6003805460408051602060026001851615610100026000190190941693909304601f810184900484028201840190925281815292918301828280156103635780601f1061033857610100808354040283529160200191610363565b60056020526000908152604090205481565b6000610570838361036b565b9392505050565b600454600160a060020a031690565b60018054604080516020600284861615610100026000190190941693909304601f810184900484028201840190925281815292918301828280156103635780601f1061033857610100808354040283529160200191610363565b336000908152600660209081526040808320600160a060020a0394909416835292905290812055600190565b3360009081526005602052604081205482111561062857600080fd5b33600081815260056020908152604080832080548790039055600160a060020a03871680845292819020805487019055805186815290519293927fddf252ad1be2c89b69c2b068fc378daa952ba7f163c4a11628f55a4df523b3ef929181900390910190a350600192915050565b6006602090815260009283526040808420909152908252902054815600a165627a7a723058208c6abc514be1bca4b947c8f706f32f3044707178f7e36718b7408e2dee889cae0029",
  "source": "pragma solidity 0.4.24;\n\n/**@title SpinelToken - ERC20 TOKEN  */\ncontract SpinelToken {\n    //NAME\n    string public name = \"SPINEL Token\";\n    //SYMBOL\n    string public symbol = 'SL';\n    //total supply is from ERC20 \n    uint256 public totalSupply ;\n       //standard - not part of ERC20 standard\n    string public standard = 'SPINEL Token v1.0';\n\n    address owner;\n    \n    /**\n      * @dev emits transfer event\n      * @param _from address to transfer from\n      * @param _to address to transfer to\n      * @param _value value to be transfered\n      * @return bool \n      */\n    event  Transfer(\n        address indexed _from,\n        address indexed _to,\n        uint256 _value\n    );\n\n     /**\n      * @dev emits Approval event\n      * @param _owner contract owners address\n      * @param _spender account to be approved as spender \n      * @param _value that spender is allowed to spend \n      */\n    event Approval(\n        address indexed _owner,\n        address indexed _spender,\n        uint256 _value\n    );\n\n     /**\n      * @dev emits TokenBalance event\n      * @param _balance emits token balance\n      */\n    event TokenBalance(\n        uint256 indexed _balance\n    );\n\n    mapping(address => uint256) public balanceOf;\n    //account A , approves account C, to spend x tokens\n    mapping(address => mapping(address => uint256)) public allowance;\n\n    constructor(uint256 _initialSupply) public {\n         owner = msg.sender;\n         balanceOf[msg.sender] = _initialSupply;\n                  //allocate the initial supply\n         totalSupply = _initialSupply;\n    }\n\n    /**\n      * @dev transfers tokens to specified address\n      * @param _to address to transfer to\n      * @param _value to be transfered \n      * @return success true if succeeds\n      */\n    function transfer(address _to, uint256 _value) public returns (bool success) {\n       //TRANSFER\n       require(balanceOf[msg.sender] >= _value);\n       balanceOf[msg.sender] -= _value;\n       balanceOf[_to] += _value; \n       emit Transfer(msg.sender, _to, _value);\n\n        success = true;\n       //EXCEPTION IF ACCOUNT DOES NOT HAVE ENOUGH\n       //TRANSFER EVENT\n    } \n\n    /**\n      * @dev approves an account to spend tokens on behalf of another account\n      * @param _spender address to approve \n      * @param _value total value to allow spender to spend\n      * @return success true if succeeds\n      */\n    function approve(address _spender, uint256 _value) public returns(bool success) {\n         allowance[msg.sender][_spender] = _value;\n         emit Approval(msg.sender, _spender, _value);\n         success = true;\n    }\n\n     /**\n      * @dev clears revokes the previledge a spender has to spend behalf of another account\n      * @param _spender address to revoke priviledge from \n      * @return success true if succeeds\n      */\n     function clearApproval(address _spender) public returns(bool success) {\n         delete allowance[msg.sender][_spender];\n         success = true;\n    }\n\n    \n\n     /**\n      * @dev approves an account to spend tokens on behalf of another account\n      * @param _spender address to approve \n      * @param _value total value to allow spender to spend\n      * @return success true if succeeds\n      */\n    function approveAdmin(address _spender, uint256 _value) public returns(bool) {\n          return approve(_spender, _value);\n    }\n\n     /**\n      * @dev used by an approved account to transfer tokens from one account to another\n      * @param _from address to transfer from\n      * @param _to address to transfer to\n      * @param _value total value to allow spender to spend\n      * @return success true if succeeds\n      */\n    function transferFrom(address _from, address _to, uint256 _value) public returns(bool success) {\n         require(_value <= balanceOf[_from]);\n         require(_value <= allowance[_from][msg.sender]);\n        \n        balanceOf[_from] -= _value;\n        balanceOf[_to] += _value;\n         allowance[_from] [msg.sender]-= _value; \n         emit Transfer(_from, _to, _value);\n         emit TokenBalance(balanceOf[_from]);\n         success = true;\n    }\n\n     /**\n      * @dev returns contract owner\n      * @return owner contract owner address\n      */\n    function getOwner() public view returns(address) {\n         return owner;\n    }\n}",
  "sourcePath": "/home/yusuf/Documents/DEVELOPER/PROJECTS/truffle/marketplace/Blockchain-Market-Place/contracts/SpinelToken.sol",
  "compiler": {
    "name": "solc",
    "version": "0.4.24+commit.e67f0147.Emscripten.clang"
  },
  "schemaVersion": "2.0.1",
  "updatedAt": "2018-08-28T07:32:08.380Z"
}