{
  "contractName": "SpinelToken",
  "abi": [
    {
      "constant": true,
      "inputs": [],
      "name": "name",
      "outputs": [
        {
          "name": "",
          "type": "string"
        }
      ],
      "payable": false,
      "stateMutability": "view",
      "type": "function"
    },
    {
      "constant": true,
      "inputs": [],
      "name": "totalSupply",
      "outputs": [
        {
          "name": "",
          "type": "uint256"
        }
      ],
      "payable": false,
      "stateMutability": "view",
      "type": "function"
    },
    {
      "constant": true,
      "inputs": [],
      "name": "standard",
      "outputs": [
        {
          "name": "",
          "type": "string"
        }
      ],
      "payable": false,
      "stateMutability": "view",
      "type": "function"
    },
    {
      "constant": true,
      "inputs": [
        {
          "name": "",
          "type": "address"
        }
      ],
      "name": "balanceOf",
      "outputs": [
        {
          "name": "",
          "type": "uint256"
        }
      ],
      "payable": false,
      "stateMutability": "view",
      "type": "function"
    },
    {
      "constant": true,
      "inputs": [],
      "name": "symbol",
      "outputs": [
        {
          "name": "",
          "type": "string"
        }
      ],
      "payable": false,
      "stateMutability": "view",
      "type": "function"
    },
    {
      "constant": true,
      "inputs": [
        {
          "name": "",
          "type": "address"
        },
        {
          "name": "",
          "type": "address"
        }
      ],
      "name": "allowance",
      "outputs": [
        {
          "name": "",
          "type": "uint256"
        }
      ],
      "payable": false,
      "stateMutability": "view",
      "type": "function"
    },
    {
      "inputs": [
        {
          "name": "_initialSupply",
          "type": "uint256"
        }
      ],
      "payable": false,
      "stateMutability": "nonpayable",
      "type": "constructor"
    },
    {
      "anonymous": false,
      "inputs": [
        {
          "indexed": true,
          "name": "_from",
          "type": "address"
        },
        {
          "indexed": true,
          "name": "_to",
          "type": "address"
        },
        {
          "indexed": false,
          "name": "_value",
          "type": "uint256"
        }
      ],
      "name": "Transfer",
      "type": "event"
    },
    {
      "anonymous": false,
      "inputs": [
        {
          "indexed": true,
          "name": "_owner",
          "type": "address"
        },
        {
          "indexed": true,
          "name": "_spender",
          "type": "address"
        },
        {
          "indexed": false,
          "name": "_value",
          "type": "uint256"
        }
      ],
      "name": "Approval",
      "type": "event"
    },
    {
      "constant": false,
      "inputs": [
        {
          "name": "_to",
          "type": "address"
        },
        {
          "name": "_value",
          "type": "uint256"
        }
      ],
      "name": "transfer",
      "outputs": [
        {
          "name": "success",
          "type": "bool"
        }
      ],
      "payable": false,
      "stateMutability": "nonpayable",
      "type": "function"
    },
    {
      "constant": false,
      "inputs": [
        {
          "name": "_spender",
          "type": "address"
        },
        {
          "name": "_value",
          "type": "uint256"
        }
      ],
      "name": "approve",
      "outputs": [
        {
          "name": "success",
          "type": "bool"
        }
      ],
      "payable": false,
      "stateMutability": "nonpayable",
      "type": "function"
    },
    {
      "constant": false,
      "inputs": [
        {
          "name": "_spender",
          "type": "address"
        },
        {
          "name": "_value",
          "type": "uint256"
        }
      ],
      "name": "approveAdmin",
      "outputs": [
        {
          "name": "",
          "type": "bool"
        }
      ],
      "payable": false,
      "stateMutability": "nonpayable",
      "type": "function"
    },
    {
      "constant": false,
      "inputs": [
        {
          "name": "_from",
          "type": "address"
        },
        {
          "name": "_to",
          "type": "address"
        },
        {
          "name": "_value",
          "type": "uint256"
        }
      ],
      "name": "transferFrom",
      "outputs": [
        {
          "name": "success",
          "type": "bool"
        }
      ],
      "payable": false,
      "stateMutability": "nonpayable",
      "type": "function"
    },
    {
      "constant": true,
      "inputs": [],
      "name": "getOwner",
      "outputs": [
        {
          "name": "",
          "type": "address"
        }
      ],
      "payable": false,
      "stateMutability": "view",
      "type": "function"
    }
  ],
  "bytecode": "0x60c0604052600c60808190527f5350494e454c20546f6b656e000000000000000000000000000000000000000060a090815261003e9160009190610118565b506040805180820190915260028082527f534c000000000000000000000000000000000000000000000000000000000000602090920191825261008391600191610118565b506040805180820190915260118082527f5350494e454c20546f6b656e2076312e3000000000000000000000000000000060209092019182526100c891600391610118565b503480156100d557600080fd5b50604051602080610808833981016040908152905160048054600160a060020a0319163390811790915560009081526005602052919091208190556002556101b3565b828054600181600116156101000203166002900490600052602060002090601f016020900481019282601f1061015957805160ff1916838001178555610186565b82800160010185558215610186579182015b8281111561018657825182559160200191906001019061016b565b50610192929150610196565b5090565b6101b091905b80821115610192576000815560010161019c565b90565b610646806101c26000396000f3006080604052600436106100ae5763ffffffff7c010000000000000000000000000000000000000000000000000000000060003504166306fdde0381146100b3578063095ea7b31461013d57806318160ddd1461017557806323b872dd1461019c5780635a3b7e42146101c657806370a08231146101db578063888de284146101fc578063893d20e81461022057806395d89b4114610251578063a9059cbb14610266578063dd62ed3e1461028a575b600080fd5b3480156100bf57600080fd5b506100c86102b1565b6040805160208082528351818301528351919283929083019185019080838360005b838110156101025781810151838201526020016100ea565b50505050905090810190601f16801561012f5780820380516001836020036101000a031916815260200191505b509250505060405180910390f35b34801561014957600080fd5b50610161600160a060020a036004351660243561033f565b604080519115158252519081900360200190f35b34801561018157600080fd5b5061018a6103a5565b60408051918252519081900360200190f35b3480156101a857600080fd5b50610161600160a060020a03600435811690602435166044356103ab565b3480156101d257600080fd5b506100c861048a565b3480156101e757600080fd5b5061018a600160a060020a03600435166104e5565b34801561020857600080fd5b50610161600160a060020a03600435166024356104f7565b34801561022c57600080fd5b5061023561050a565b60408051600160a060020a039092168252519081900360200190f35b34801561025d57600080fd5b506100c8610519565b34801561027257600080fd5b50610161600160a060020a0360043516602435610573565b34801561029657600080fd5b5061018a600160a060020a03600435811690602435166105fd565b6000805460408051602060026001851615610100026000190190941693909304601f810184900484028201840190925281815292918301828280156103375780601f1061030c57610100808354040283529160200191610337565b820191906000526020600020905b81548152906001019060200180831161031a57829003601f168201915b505050505081565b336000818152600660209081526040808320600160a060020a038716808552908352818420869055815186815291519394909390927f8c5be1e5ebec7d5bd14f71427d1e84f3dd0314c0f7b2291e5b200ac8c7c3b925928290030190a350600192915050565b60025481565b600160a060020a0383166000908152600560205260408120548211156103d057600080fd5b600160a060020a038416600090815260066020908152604080832033845290915290205482111561040057600080fd5b600160a060020a0380851660008181526005602090815260408083208054889003905593871680835284832080548801905583835260068252848320338452825291849020805487900390558351868152935191937fddf252ad1be2c89b69c2b068fc378daa952ba7f163c4a11628f55a4df523b3ef929081900390910190a35060019392505050565b6003805460408051602060026001851615610100026000190190941693909304601f810184900484028201840190925281815292918301828280156103375780601f1061030c57610100808354040283529160200191610337565b60056020526000908152604090205481565b6000610503838361033f565b9392505050565b600454600160a060020a031690565b60018054604080516020600284861615610100026000190190941693909304601f810184900484028201840190925281815292918301828280156103375780601f1061030c57610100808354040283529160200191610337565b3360009081526005602052604081205482111561058f57600080fd5b33600081815260056020908152604080832080548790039055600160a060020a03871680845292819020805487019055805186815290519293927fddf252ad1be2c89b69c2b068fc378daa952ba7f163c4a11628f55a4df523b3ef929181900390910190a350600192915050565b6006602090815260009283526040808420909152908252902054815600a165627a7a723058202ecad62c1ca8067d875628683bc642af7b832d62f595bf7a9ac2eb45b8f7806e0029",
  "source": "pragma solidity ^0.4.2;\n\ncontract SpinelToken {\n    //NAME\n    string public name = \"SPINEL Token\";\n    //SYMBOL\n    string public symbol = 'SL';\n    //total supply is from ERC20 \n    uint256 public totalSupply ;\n       //standard - not part of ERC20 standard\n    string public standard = 'SPINEL Token v1.0';\n\n    address owner;\n\n    event  Transfer(\n        address indexed _from,\n        address indexed _to,\n        uint256 _value\n    );\n\n    event Approval(\n        address indexed _owner,\n        address indexed _spender,\n        uint256 _value\n    );\n\n    mapping(address => uint256) public balanceOf;\n    //account A , approves account C, to spend x tokens\n    mapping(address => mapping(address => uint256)) public allowance;\n\n    constructor(uint256 _initialSupply) public {\n         owner = msg.sender;\n         balanceOf[msg.sender] = _initialSupply;\n                  //allocate the initial supply\n         totalSupply = _initialSupply;\n    }\n\n    function transfer(address _to, uint256 _value) public returns (bool success) {\n       //TRANSFER\n       require(balanceOf[msg.sender] >= _value);\n       balanceOf[msg.sender] -= _value;\n       balanceOf[_to] += _value; \n       emit Transfer(msg.sender, _to, _value);\n\n        success = true;\n       //EXCEPTION IF ACCOUNT DOES NOT HAVE ENOUGH\n       //TRANSFER EVENT\n    } \n\n    //Delegated Transfer\n    \n    function approve(address _spender, uint256 _value) public returns(bool success) {\n         allowance[msg.sender][_spender] = _value;\n         emit Approval(msg.sender, _spender, _value);\n         success = true;\n    }\n\n    function approveAdmin(address _spender, uint256 _value) public returns(bool) {\n          return approve(_spender, _value);\n    }\n\n    function transferFrom(address _from, address _to, uint256 _value) public returns(bool success) {\n         require(_value <= balanceOf[_from]);\n         require(_value <= allowance[_from][msg.sender]);\n        \n        balanceOf[_from] -= _value;\n        balanceOf[_to] += _value;\n         allowance[_from] [msg.sender]-= _value; \n         emit Transfer(_from, _to, _value);\n         success = true;\n    }\n\n    function getOwner() public view returns(address) {\n         return owner;\n    }\n}",
  "sourcePath": "/Users/yusufkelo/Documents/DEVELOPER/ETHEREAUM/blockchain-market/market-place/contracts/SpinelToken.sol",
  "compiler": {
    "name": "solc",
    "version": "0.4.24+commit.e67f0147.Emscripten.clang"
  },
  "schemaVersion": "2.0.0",
  "updatedAt": "2018-08-25T14:02:49.290Z"
}