{
  "contractName": "SpinelTokenSale",
  "abi": [
    {
      "constant": true,
      "inputs": [],
      "name": "tokensSold",
      "outputs": [
        {
          "name": "",
          "type": "uint256"
        }
      ],
      "payable": false,
      "stateMutability": "view",
      "type": "function"
    },
    {
      "constant": true,
      "inputs": [],
      "name": "tokenContract",
      "outputs": [
        {
          "name": "",
          "type": "address"
        }
      ],
      "payable": false,
      "stateMutability": "view",
      "type": "function"
    },
    {
      "constant": true,
      "inputs": [],
      "name": "tokenPrice",
      "outputs": [
        {
          "name": "",
          "type": "uint256"
        }
      ],
      "payable": false,
      "stateMutability": "view",
      "type": "function"
    },
    {
      "inputs": [
        {
          "name": "_tokenContract",
          "type": "address"
        },
        {
          "name": "_tokenPrice",
          "type": "uint256"
        }
      ],
      "payable": false,
      "stateMutability": "nonpayable",
      "type": "constructor"
    },
    {
      "anonymous": false,
      "inputs": [
        {
          "indexed": false,
          "name": "_buyer",
          "type": "address"
        },
        {
          "indexed": false,
          "name": "_numberOfTokens",
          "type": "uint256"
        }
      ],
      "name": "Sell",
      "type": "event"
    },
    {
      "constant": false,
      "inputs": [
        {
          "name": "_numberOfTokens",
          "type": "uint256"
        }
      ],
      "name": "buyTokens",
      "outputs": [],
      "payable": true,
      "stateMutability": "payable",
      "type": "function"
    },
    {
      "constant": false,
      "inputs": [],
      "name": "endSale",
      "outputs": [],
      "payable": false,
      "stateMutability": "nonpayable",
      "type": "function"
    },
    {
      "constant": true,
      "inputs": [
        {
          "name": "account",
          "type": "address"
        }
      ],
      "name": "getBalanceOf",
      "outputs": [
        {
          "name": "",
          "type": "uint256"
        }
      ],
      "payable": false,
      "stateMutability": "view",
      "type": "function"
    },
    {
      "constant": true,
      "inputs": [],
      "name": "getContractAddress",
      "outputs": [
        {
          "name": "",
          "type": "address"
        }
      ],
      "payable": false,
      "stateMutability": "view",
      "type": "function"
    }
  ],
  "bytecode": "0x608060405234801561001057600080fd5b5060405160408061061583398101604052805160209091015160008054600160a060020a0319908116331790915560018054600160a060020a0390941693909116929092179091556002556105ab8061006a6000396000f3006080604052600436106100825763ffffffff7c010000000000000000000000000000000000000000000000000000000060003504166332a2c5d081146100875780633610724e146100b8578063380d831b146100c5578063518ab2a8146100da57806355a373d6146101015780637ff9b596146101165780639b96eece1461012b575b600080fd5b34801561009357600080fd5b5061009c61014c565b60408051600160a060020a039092168252519081900360200190f35b6100c3600435610169565b005b3480156100d157600080fd5b506100c3610306565b3480156100e657600080fd5b506100ef610498565b60408051918252519081900360200190f35b34801561010d57600080fd5b5061009c61049e565b34801561012257600080fd5b506100ef6104ad565b34801561013757600080fd5b506100ef600160a060020a03600435166104b3565b60008054600160a060020a0316331461016457600080fd5b503090565b61017581600254610550565b341461018057600080fd5b600154604080517f70a0823100000000000000000000000000000000000000000000000000000000815230600482015290518392600160a060020a0316916370a082319160248083019260209291908290030181600087803b1580156101e557600080fd5b505af11580156101f9573d6000803e3d6000fd5b505050506040513d602081101561020f57600080fd5b5051101561021c57600080fd5b600154604080517fa9059cbb000000000000000000000000000000000000000000000000000000008152336004820152602481018490529051600160a060020a039092169163a9059cbb916044808201926020929091908290030181600087803b15801561028957600080fd5b505af115801561029d573d6000803e3d6000fd5b505050506040513d60208110156102b357600080fd5b505115156102c057600080fd5b6003805482019055604080513381526020810183905281517f5e5e995ce3133561afceaa51a9a154d5db228cd7525d34df5185582c18d3df09929181900390910190a150565b600054600160a060020a0316331461031d57600080fd5b60015460008054604080517f70a082310000000000000000000000000000000000000000000000000000000081523060048201529051600160a060020a039485169463a9059cbb9493169285926370a082319260248083019360209383900390910190829087803b15801561039157600080fd5b505af11580156103a5573d6000803e3d6000fd5b505050506040513d60208110156103bb57600080fd5b5051604080517c010000000000000000000000000000000000000000000000000000000063ffffffff8616028152600160a060020a03909316600484015260248301919091525160448083019260209291908290030181600087803b15801561042357600080fd5b505af1158015610437573d6000803e3d6000fd5b505050506040513d602081101561044d57600080fd5b5051151561045a57600080fd5b60008054604051600160a060020a0390911691303180156108fc02929091818181858888f19350505050158015610495573d6000803e3d6000fd5b50565b60035481565b600154600160a060020a031681565b60025481565b600154604080517f70a08231000000000000000000000000000000000000000000000000000000008152600160a060020a038481166004830152915160009392909216916370a082319160248082019260209290919082900301818787803b15801561051e57600080fd5b505af1158015610532573d6000803e3d6000fd5b505050506040513d602081101561054857600080fd5b505192915050565b600082151561056157506000610579565b5081810281838281151561057157fe5b041461057957fe5b929150505600a165627a7a72305820d75d12120c12ca27b04e54cc7378b87d2bcbe6a10f583ad863321e7c90debc840029",
  "source": "pragma solidity ^0.4.2;\nimport './SpinelToken.sol';\nimport \"./SafeMath.sol\";\n\ncontract SpinelTokenSale {\n    address admin;\n    SpinelToken public tokenContract;\n    uint256 public tokenPrice;\n    uint256 public tokensSold;\n\n    event Sell(address _buyer, uint256 _numberOfTokens);\n\n\n    constructor(SpinelToken _tokenContract, \n    uint256 _tokenPrice) public {\n\n       admin = msg.sender;\n       tokenContract = _tokenContract;\n       tokenPrice = _tokenPrice;\n    }\n\n    function buyTokens(uint _numberOfTokens) public payable {\n        /** msg.value (in wei), must be sufficient to pay for the amunt of tokens being requested */\n        require(msg.value == SafeMath.mul(_numberOfTokens,tokenPrice));\n          /** tokens available for purchase must be greater or equal to the number of tokens to be purchased */\n       // require(tokenContract.balanceOf(this) >= _numberOfTokens);\n        require(tokenContract.balanceOf(this) >= _numberOfTokens);\n        /** transfer inside of a require so that a revert happens if not successful */\n        require(tokenContract.transfer(msg.sender, _numberOfTokens));\n         tokensSold += _numberOfTokens;\n         emit Sell(msg.sender, _numberOfTokens);\n    }\n\n    function endSale() public {\n       //require admin\n        require(msg.sender == admin);\n        require(tokenContract.transfer(admin, tokenContract.balanceOf(this)));\n  \n        admin.transfer(address(this).balance);\n    }\n   \n    // tokenSaleContract_shoppingCart.transferFrom(customerAccount, vendorAccount, totalItemsPrice);\n    \n    //new\n    function getBalanceOf(address account) public view returns(uint256){\n        return tokenContract.balanceOf(account);\n    }\n    \n    function getContractAddress() public view returns(address) {\n       require(msg.sender == admin);\n          return address(this);\n        \n    }\n\n  \n\n  \n}",
  "sourcePath": "/Users/yusufkelo/Documents/DEVELOPER/ETHEREAUM/blockchain-market/market-place/contracts/SpinelTokenSale.sol",
  "compiler": {
    "name": "solc",
    "version": "0.4.24+commit.e67f0147.Emscripten.clang"
  },
  "schemaVersion": "2.0.0",
  "updatedAt": "2018-08-25T14:02:49.292Z"
}