{
  "contractName": "SpinelTokenSale",
  "abi": [
    {
      "constant": true,
      "inputs": [],
      "name": "tokensSold",
      "outputs": [
        {
          "name": "",
          "type": "uint256"
        }
      ],
      "payable": false,
      "stateMutability": "view",
      "type": "function"
    },
    {
      "constant": true,
      "inputs": [],
      "name": "tokenContract",
      "outputs": [
        {
          "name": "",
          "type": "address"
        }
      ],
      "payable": false,
      "stateMutability": "view",
      "type": "function"
    },
    {
      "constant": true,
      "inputs": [],
      "name": "tokenPrice",
      "outputs": [
        {
          "name": "",
          "type": "uint256"
        }
      ],
      "payable": false,
      "stateMutability": "view",
      "type": "function"
    },
    {
      "inputs": [
        {
          "name": "_tokenContract",
          "type": "address"
        },
        {
          "name": "_tokenPrice",
          "type": "uint256"
        }
      ],
      "payable": false,
      "stateMutability": "nonpayable",
      "type": "constructor"
    },
    {
      "anonymous": false,
      "inputs": [
        {
          "indexed": false,
          "name": "_buyer",
          "type": "address"
        },
        {
          "indexed": false,
          "name": "_numberOfTokens",
          "type": "uint256"
        }
      ],
      "name": "Sell",
      "type": "event"
    },
    {
      "constant": false,
      "inputs": [
        {
          "name": "_numberOfTokens",
          "type": "uint256"
        }
      ],
      "name": "buyTokens",
      "outputs": [],
      "payable": true,
      "stateMutability": "payable",
      "type": "function"
    },
    {
      "constant": false,
      "inputs": [],
      "name": "endSale",
      "outputs": [],
      "payable": false,
      "stateMutability": "nonpayable",
      "type": "function"
    },
    {
      "constant": true,
      "inputs": [
        {
          "name": "account",
          "type": "address"
        }
      ],
      "name": "getBalanceOf",
      "outputs": [
        {
          "name": "",
          "type": "uint256"
        }
      ],
      "payable": false,
      "stateMutability": "view",
      "type": "function"
    },
    {
      "constant": true,
      "inputs": [
        {
          "name": "amountInWei",
          "type": "uint256"
        }
      ],
      "name": "toSpinel",
      "outputs": [
        {
          "name": "",
          "type": "uint256"
        }
      ],
      "payable": false,
      "stateMutability": "view",
      "type": "function"
    },
    {
      "constant": false,
      "inputs": [
        {
          "name": "_from",
          "type": "address"
        },
        {
          "name": "_to",
          "type": "address"
        },
        {
          "name": "_value",
          "type": "uint256"
        }
      ],
      "name": "transferFrom",
      "outputs": [
        {
          "name": "success",
          "type": "bool"
        }
      ],
      "payable": false,
      "stateMutability": "nonpayable",
      "type": "function"
    }
  ],
  "bytecode": "0x608060405234801561001057600080fd5b506040516040806106e683398101604052805160209091015160008054600160a060020a0319908116331790915560018054600160a060020a03909416939091169290921790915560025561067c8061006a6000396000f30060806040526004361061008d5763ffffffff7c010000000000000000000000000000000000000000000000000000000060003504166323b872dd81146100925780633610724e146100d0578063380d831b146100dd578063518ab2a8146100f257806355a373d6146101195780637ff9b5961461014a5780639b96eece1461015f578063af01516314610180575b600080fd5b34801561009e57600080fd5b506100bc600160a060020a0360043581169060243516604435610198565b604080519115158252519081900360200190f35b6100db600435610253565b005b3480156100e957600080fd5b506100db6103f0565b3480156100fe57600080fd5b50610107610546565b60408051918252519081900360200190f35b34801561012557600080fd5b5061012e61054c565b60408051600160a060020a039092168252519081900360200190f35b34801561015657600080fd5b5061010761055b565b34801561016b57600080fd5b50610107600160a060020a0360043516610561565b34801561018c57600080fd5b506101076004356105fe565b600154604080517f23b872dd000000000000000000000000000000000000000000000000000000008152600160a060020a038681166004830152858116602483015260448201859052915160009392909216916323b872dd9160648082019260209290919082900301818787803b15801561021257600080fd5b505af1158015610226573d6000803e3d6000fd5b505050506040513d602081101561023c57600080fd5b5051151561024957600080fd5b5060019392505050565b61025f81600254610612565b341461026a57600080fd5b600154604080517f70a0823100000000000000000000000000000000000000000000000000000000815230600482015290518392600160a060020a0316916370a082319160248083019260209291908290030181600087803b1580156102cf57600080fd5b505af11580156102e3573d6000803e3d6000fd5b505050506040513d60208110156102f957600080fd5b5051101561030657600080fd5b600154604080517fa9059cbb000000000000000000000000000000000000000000000000000000008152336004820152602481018490529051600160a060020a039092169163a9059cbb916044808201926020929091908290030181600087803b15801561037357600080fd5b505af1158015610387573d6000803e3d6000fd5b505050506040513d602081101561039d57600080fd5b505115156103aa57600080fd5b6003805482019055604080513381526020810183905281517f5e5e995ce3133561afceaa51a9a154d5db228cd7525d34df5185582c18d3df09929181900390910190a150565b600054600160a060020a0316331461040757600080fd5b60015460008054604080517f70a082310000000000000000000000000000000000000000000000000000000081523060048201529051600160a060020a039485169463a9059cbb9493169285926370a082319260248083019360209383900390910190829087803b15801561047b57600080fd5b505af115801561048f573d6000803e3d6000fd5b505050506040513d60208110156104a557600080fd5b5051604080517c010000000000000000000000000000000000000000000000000000000063ffffffff8616028152600160a060020a03909316600484015260248301919091525160448083019260209291908290030181600087803b15801561050d57600080fd5b505af1158015610521573d6000803e3d6000fd5b505050506040513d602081101561053757600080fd5b5051151561054457600080fd5b565b60035481565b600154600160a060020a031681565b60025481565b600154604080517f70a08231000000000000000000000000000000000000000000000000000000008152600160a060020a038481166004830152915160009392909216916370a082319160248082019260209290919082900301818787803b1580156105cc57600080fd5b505af11580156105e0573d6000803e3d6000fd5b505050506040513d60208110156105f657600080fd5b505192915050565b600061060c8260025461063b565b92915050565b60008215156106235750600061060c565b5081810281838281151561063357fe5b041461060c57fe5b6000818381151561064857fe5b0493925050505600a165627a7a72305820eca567272c480dccdb3996e2ddb5b620837476640dedee2b81d706c3607c46ee0029",
  "source": "pragma solidity ^0.4.2;\nimport './SpinelToken.sol';\nimport \"./SafeMath.sol\";\n\ncontract SpinelTokenSale {\n    address admin;\n    SpinelToken public tokenContract;\n    uint256 public tokenPrice;\n    uint256 public tokensSold;\n\n    event Sell(address _buyer, uint256 _numberOfTokens);\n\n\n    constructor(SpinelToken _tokenContract, \n    uint256 _tokenPrice) public {\n\n       admin = msg.sender;\n       tokenContract = _tokenContract;\n       tokenPrice = _tokenPrice;\n    }\n\n    function buyTokens(uint _numberOfTokens) public payable {\n        /** msg.value (in wei), must be sufficient to pay for the amunt of tokens being requested */\n        require(msg.value == SafeMath.mul(_numberOfTokens,tokenPrice));\n          /** tokens available for purchase must be greater or equal to the number of tokens to be purchased */\n        require(tokenContract.balanceOf(this) >= _numberOfTokens);\n        /** transfer inside of a require so that a revert happens if not successful */\n        require(tokenContract.transfer(msg.sender, _numberOfTokens));\n         tokensSold += _numberOfTokens;\n         emit Sell(msg.sender, _numberOfTokens);\n    }\n\n    function endSale() public {\n       //require admin\n        require(msg.sender == admin);\n        require(tokenContract.transfer(admin, tokenContract.balanceOf(this)));\n        //  selfdestruct(admin);\n    }\n\n    //new\n    function getBalanceOf(address account) public view returns(uint256){\n        return tokenContract.balanceOf(account);\n    }\n    \n    function toSpinel(uint256 amountInWei) public view returns(uint256) {\n          return SafeMath.div(amountInWei,tokenPrice);\n    }\n\n    function transferFrom(address _from, address _to, uint256 _value) public returns(bool success) {\n         require(tokenContract.transferFrom(_from, _to, _value));\n         success = true;\n    }\n\n  \n}",
  "sourcePath": "/Users/yusufkelo/Documents/DEVELOPER/ETHEREAUM/blockchain-market/market-place/contracts/SpinelTokenSale.sol",
  "compiler": {
    "name": "solc",
    "version": "0.4.24+commit.e67f0147.Emscripten.clang"
  },
  "schemaVersion": "2.0.0",
  "updatedAt": "2018-08-23T12:05:40.296Z"
}