{
  "contractName": "StoreBase",
  "abi": [
    {
      "constant": true,
      "inputs": [
        {
          "name": "",
          "type": "address"
        }
      ],
      "name": "customerOrdersCount",
      "outputs": [
        {
          "name": "",
          "type": "uint256"
        }
      ],
      "payable": false,
      "stateMutability": "view",
      "type": "function"
    },
    {
      "constant": true,
      "inputs": [
        {
          "name": "",
          "type": "address"
        },
        {
          "name": "",
          "type": "address"
        }
      ],
      "name": "allowance",
      "outputs": [
        {
          "name": "",
          "type": "uint256"
        }
      ],
      "payable": false,
      "stateMutability": "view",
      "type": "function"
    }
  ],
  "bytecode": "0x608060405234801561001057600080fd5b50610116806100206000396000f30060806040526004361060485763ffffffff7c01000000000000000000000000000000000000000000000000000000006000350416638a3046ba8114604d578063dd62ed3e14608a575b600080fd5b348015605857600080fd5b50607873ffffffffffffffffffffffffffffffffffffffff6004351660bb565b60408051918252519081900360200190f35b348015609557600080fd5b50607873ffffffffffffffffffffffffffffffffffffffff6004358116906024351660cd565b60056020526000908152604090205481565b6004602090815260009283526040808420909152908252902054815600a165627a7a723058205dce9b555d8ed4a454d37a0551a303f3411bde69bfe249f12dde79fd157dde360029",
  "source": "pragma solidity 0.4.24;\n\n/**@title Storebase contains members shared across contracts */\ncontract StoreBase {\n    \n    enum Role {\n        Admin, SuperAdmin\n    }\n\n    enum PaymentMethod {\n        Ether,\n        Token\n    }\n    \n  struct CartItemSlot{\n        bool initialized;\n        uint slot;\n    }\n\n    \n    struct ShoppingCartItem {\n       // uint productId;\n        uint productQuantity;\n        address vendorAccount;\n        uint storeIndex;\n        bool purchaseComplete;\n    }\n    \n    struct ShoppingCart {\n     mapping(uint => CartItemSlot) cartItemSlot;\n     mapping(uint=> ShoppingCartItem) products;\n     uint[] productIds;\n     uint cartPrice;\n    }\n    \n    mapping(address => ShoppingCart) shoppingCarts;\n\n    struct StoreUser {\n        Role role;\n    }\n    \n    struct VendorSlot{\n        bool initialized;\n        uint slot;\n    }\n    \n     struct Product {\n        bytes32 name;\n        bytes32 description;\n        uint price;\n        uint productIdSlot;\n        uint productId;\n        uint quantity;\n        uint priceInSpinelToken;\n        string imageHash;\n    }\n    \n    struct Store {\n        bytes32 name;\n        bytes32 description;\n        uint revenue;\n        uint[] productIds;\n        uint productIdIncrement;\n        mapping(uint => Product) products;\n    }\n\n    struct TransactionHistory {\n        uint256 productId;\n        bytes32 productName;\n        uint quantity;\n        uint price;\n        uint totalPrice;\n        address vendor;\n        bytes32 storeName;\n        uint256 paymentMethod;\n    }\n\n    struct Order {\n        TransactionHistory[] transactions;\n        uint timeStamp;\n        uint grandTotal;\n        uint paymentMethod;\n    }\n    \n    \n    address[] internal vendorAccountsWithListedStores;\n    mapping(address => VendorSlot) internal vendorSlot;\n    mapping(address => Store[]) internal stores;  \n   \n    mapping(address => mapping(address => uint256)) public allowance;\n      \n    mapping(address => uint) public customerOrdersCount;\n     \n    mapping(address => mapping(uint => Order)) orderHistory; \n\n    \n}\n",
  "sourcePath": "/Users/yusufkelo/Documents/DEVELOPER/ETHEREAUM/blockchain-market/market-place/contracts/StoreBase.sol",
  "compiler": {
    "name": "solc",
    "version": "0.4.24+commit.e67f0147.Emscripten.clang"
  },
  "schemaVersion": "2.0.0",
  "updatedAt": "2018-08-27T19:07:48.772Z"
}