{
  "contractName": "StoreManager",
  "abi": [
    {
      "constant": true,
      "inputs": [],
      "name": "getVendorBalance",
      "outputs": [
        {
          "name": "",
          "type": "uint256"
        }
      ],
      "payable": false,
      "stateMutability": "view",
      "type": "function"
    },
    {
      "constant": true,
      "inputs": [
        {
          "name": "",
          "type": "address"
        }
      ],
      "name": "customerOrdersCount",
      "outputs": [
        {
          "name": "",
          "type": "uint256"
        }
      ],
      "payable": false,
      "stateMutability": "view",
      "type": "function"
    },
    {
      "constant": true,
      "inputs": [
        {
          "name": "",
          "type": "address"
        },
        {
          "name": "",
          "type": "address"
        }
      ],
      "name": "allowance",
      "outputs": [
        {
          "name": "",
          "type": "uint256"
        }
      ],
      "payable": false,
      "stateMutability": "view",
      "type": "function"
    },
    {
      "inputs": [],
      "payable": false,
      "stateMutability": "nonpayable",
      "type": "constructor"
    },
    {
      "anonymous": false,
      "inputs": [
        {
          "indexed": false,
          "name": "storesSize",
          "type": "uint256"
        }
      ],
      "name": "StoreCreated",
      "type": "event"
    },
    {
      "anonymous": false,
      "inputs": [
        {
          "indexed": false,
          "name": "storeName",
          "type": "bytes32"
        },
        {
          "indexed": false,
          "name": "description",
          "type": "bytes32"
        }
      ],
      "name": "StoreUpdated",
      "type": "event"
    },
    {
      "anonymous": false,
      "inputs": [
        {
          "indexed": false,
          "name": "storesSize",
          "type": "uint256"
        }
      ],
      "name": "StoreDeleteted",
      "type": "event"
    },
    {
      "constant": false,
      "inputs": [
        {
          "name": "storeName",
          "type": "bytes32"
        },
        {
          "name": "description",
          "type": "bytes32"
        }
      ],
      "name": "createStore",
      "outputs": [
        {
          "name": "",
          "type": "uint256"
        }
      ],
      "payable": false,
      "stateMutability": "nonpayable",
      "type": "function"
    },
    {
      "constant": false,
      "inputs": [
        {
          "name": "storeIndex",
          "type": "uint256"
        },
        {
          "name": "storeName",
          "type": "bytes32"
        },
        {
          "name": "description",
          "type": "bytes32"
        }
      ],
      "name": "editStore",
      "outputs": [
        {
          "name": "",
          "type": "bool"
        }
      ],
      "payable": false,
      "stateMutability": "nonpayable",
      "type": "function"
    },
    {
      "constant": false,
      "inputs": [
        {
          "name": "storeIndex",
          "type": "uint256"
        }
      ],
      "name": "deleteStore",
      "outputs": [
        {
          "name": "",
          "type": "bool"
        }
      ],
      "payable": false,
      "stateMutability": "nonpayable",
      "type": "function"
    },
    {
      "constant": true,
      "inputs": [
        {
          "name": "storeIndex",
          "type": "uint256"
        }
      ],
      "name": "getStorePrivate",
      "outputs": [
        {
          "name": "",
          "type": "bytes32"
        },
        {
          "name": "",
          "type": "bytes32"
        },
        {
          "name": "",
          "type": "uint256"
        },
        {
          "name": "",
          "type": "uint256"
        }
      ],
      "payable": false,
      "stateMutability": "view",
      "type": "function"
    },
    {
      "constant": true,
      "inputs": [
        {
          "name": "accountIndex",
          "type": "uint256"
        },
        {
          "name": "storeIndex",
          "type": "uint256"
        }
      ],
      "name": "getStorePublic",
      "outputs": [
        {
          "name": "",
          "type": "bytes32"
        },
        {
          "name": "",
          "type": "bytes32"
        },
        {
          "name": "",
          "type": "uint256"
        },
        {
          "name": "",
          "type": "uint256"
        }
      ],
      "payable": false,
      "stateMutability": "view",
      "type": "function"
    },
    {
      "constant": true,
      "inputs": [],
      "name": "getVendorAccountsWithListedStoresCount",
      "outputs": [
        {
          "name": "",
          "type": "uint256"
        }
      ],
      "payable": false,
      "stateMutability": "view",
      "type": "function"
    },
    {
      "constant": true,
      "inputs": [],
      "name": "getUserStoreCount",
      "outputs": [
        {
          "name": "",
          "type": "uint256"
        }
      ],
      "payable": false,
      "stateMutability": "view",
      "type": "function"
    },
    {
      "constant": true,
      "inputs": [
        {
          "name": "accountIndex",
          "type": "uint256"
        }
      ],
      "name": "getVendorStoreCountPublic",
      "outputs": [
        {
          "name": "",
          "type": "uint256"
        },
        {
          "name": "",
          "type": "uint256"
        }
      ],
      "payable": false,
      "stateMutability": "view",
      "type": "function"
    }
  ],
  "bytecode": "0x608060405234801561001057600080fd5b50610022640100000000610027810204565b61003b565b60008054600160a060020a03191633179055565b610b778061004a6000396000f3006080604052600436106100ae5763ffffffff7c010000000000000000000000000000000000000000000000000000000060003504166317a5802381146100b35780633a8fa895146100e4578063543c73f5146101255780636e91c6b81461014c5780637105306a146101615780637cc69325146101795780638a3046ba146101a55780638f0c0f36146101c6578063c08ed9b1146101db578063dd62ed3e146101f9578063e64a282b14610220575b600080fd5b3480156100bf57600080fd5b506100cb60043561023b565b6040805192835260208301919091528051918290030190f35b3480156100f057600080fd5b506100ff600435602435610281565b604080519485526020850193909352838301919091526060830152519081900360800190f35b34801561013157600080fd5b5061013a6102f7565b60408051918252519081900360200190f35b34801561015857600080fd5b5061013a6102fe565b34801561016d57600080fd5b506100ff600435610344565b34801561018557600080fd5b506101916004356103fd565b604080519115158252519081900360200190f35b3480156101b157600080fd5b5061013a600160a060020a036004351661062d565b3480156101d257600080fd5b5061013a61063f565b3480156101e757600080fd5b50610191600435602435604435610652565b34801561020557600080fd5b5061013a600160a060020a036004358116906024351661075e565b34801561022c57600080fd5b5061013a60043560243561077b565b600080826004600060028681548110151561025257fe5b6000918252602080832090910154600160a060020a031683528201929092526040019020549092509050915091565b600080600080600280549050861080156102d257506000600460006002898154811015156102ab57fe5b6000918252602080832090910154600160a060020a03168352820192909252604001902054115b15156102dd57600080fd5b6102e78686610924565b9299919850965090945092505050565b6002545b90565b600060013360009081526008602052604090206003015460ff16600181111561032357fe5b1461032d57600080fd5b503360009081526008602052604090206007015490565b336000908152600460205260408120805482918291829182918790811061036757fe5b90600052602060002090600602016002015490506004600033600160a060020a0316600160a060020a03168152602001908152602001600020868154811015156103ad57fe5b60009182526020808320600690920290910154338352600490915260409091208054889081106103d957fe5b90600052602060002090600602016001015482889450945094509450509193509193565b600060013360009081526008602052604090206003015460ff16600181111561042257fe5b1461042c57600080fd5b3360009081526004602052604081205411801561045757503360009081526004602052604090205482105b151561046257600080fd5b3360009081526004602052604090208054600019810190811061048157fe5b6000918252602080832033845260049091526040909220805460069092029092019190849081106104ae57fe5b6000918252602090912082546006909202019081556001808301549082015560028083015490820155600380830180546104eb92840191906109c5565b506004918201549082015533600090815260209190915260409020805490610517906000198301610a15565b503360009081526004602052604090205415156105e05760028054600019810190811061054057fe5b6000918252602080832090910154338352600390915260409091206001015460028054600160a060020a0390931692909190811061057a57fe5b6000918252602090912001805473ffffffffffffffffffffffffffffffffffffffff1916600160a060020a039290921691909117905560028054906105c3906000198301610a46565b50336000908152600360205260408120805460ff19168155600101555b3360009081526004602090815260409182902054825190815291517fb9a4bd253f65179162993c9e886b8a6a550b811e0a8c2977ee7dd3a1d061e2729281900390910190a1506001919050565b60066020526000908152604090205481565b3360009081526004602052604090205490565b600060013360009081526008602052604090206003015460ff16600181111561067757fe5b1461068157600080fd5b336000908152600460205260408120541180156106ac57503360009081526004602052604090205484105b15156106b757600080fd5b3360009081526004602052604090208054849190869081106106d557fe5b6000918252602080832060069092029091019290925533815260049091526040902080548391908690811061070657fe5b6000918252602091829020600160069092020101919091556040805185815291820184905280517f745f6c37c7c955a766769f82b258315021a200fd1fe89df40262fc3c38b640d39281900390910190a19392505050565b600560209081526000928352604080842090915290825290205481565b6000610785610a6a565b60013360009081526008602052604090206003015460ff1660018111156107a857fe5b146107b257600080fd5b83815260208082018481523360009081526004835260408082208054600181810180845592855293869020875160069092020190815593519284019290925584015160028301556060840151805191938593926108159260038501920190610a97565b5060809190910151600490910155503360009081526003602052604090205460ff1615156108c757604080518082018252600180825260028054602080850191825233600081815260039092529581209451855460ff1916901515178555905193830193909355805491820181559091527f405787fa12a823e0f2b7631cc41b3ba8828b3321ca811111fa75cd3aa3bb5ace01805473ffffffffffffffffffffffffffffffffffffffff191690911790555b3360009081526004602090815260409182902054825190815291517f6c6c640d5c695d50cab6e007033207e384550c46ef1e827046dd75e4f33dc4329281900390910190a150503360009081526004602052604090205492915050565b600080600080600060028781548110151561093b57fe5b6000918252602080832090910154600160a060020a0316808352600490915260409091208054919250908790811061096f57fe5b60009182526020808320600690920290910154600160a060020a0384168352600490915260409091208054889081106109a457fe5b60009182526020909120600160069092020101549098909795509350505050565b828054828255906000526020600020908101928215610a055760005260206000209182015b82811115610a055782548255916001019190600101906109ea565b50610a11929150610ad2565b5090565b815481835581811115610a4157600602816006028360005260206000209182019101610a419190610aec565b505050565b815481835581811115610a4157600083815260209020610a41918101908301610ad2565b6040805160a081018252600080825260208201819052918101829052606080820152608081019190915290565b828054828255906000526020600020908101928215610a05579160200282015b82811115610a05578251825591602001919060010190610ab7565b6102fb91905b80821115610a115760008155600101610ad8565b6102fb91905b80821115610a115760008082556001820181905560028201819055610b1a6003830182610b2a565b5060006004820155600601610af2565b5080546000825590600052602060002090810190610b489190610ad2565b505600a165627a7a72305820e299f8a10c2d1fbe035f4b37b7e5e0e3062adb52d99c2ff857865b847834da2f0029",
  "source": "pragma solidity 0.4.24;\nimport './UserManager.sol';\nimport \"./Ownerble.sol\";\nimport \"./StoreBase.sol\";\nimport \"./VendorBase.sol\";\n\ncontract StoreManager is Ownerble, StoreBase, VendorBase {//is Ownerble, UserManager {\n    \n    event StoreCreated(uint256 storesSize);\n    event StoreUpdated(bytes32 storeName, bytes32 description);\n    event StoreDeleteted(uint256 storesSize);\n\n    constructor() public {\n    \n    }\n        \n     function createStore(bytes32 storeName, bytes32 description) public  returns(uint){\n         //      vendors[account].state = AccountState.Approved;\n         require(vendors[msg.sender].state == AccountState.Approved);\n          Store memory store;\n          store.name = storeName;\n          store.description = description;\n          \n          stores[msg.sender].push(store);\n          \n          if(vendorSlot[msg.sender].initialized==false) {\n              vendorSlot[msg.sender] = VendorSlot(true,\n              vendorAccountsWithListedStores.length);\n              vendorAccountsWithListedStores.push(msg.sender);\n          }\n\n          emit StoreCreated(stores[msg.sender].length);\n \n          return  stores[msg.sender].length;\n    }\n    \n    function editStore(uint storeIndex, bytes32 storeName, bytes32 description) public returns(bool) {\n      require(vendors[msg.sender].state == AccountState.Approved);\n        require(stores[msg.sender].length > 0 && (storeIndex < stores[msg.sender].length));\n\n          stores[msg.sender][storeIndex].name = storeName;\n          stores[msg.sender][storeIndex].description = description;\n\n          emit StoreUpdated(storeName, description);\n    }\n    \n       function deleteStore(uint storeIndex) public returns(bool) {\n          require(vendors[msg.sender].state == AccountState.Approved);\n          require(stores[msg.sender].length> 0 && (storeIndex < stores[msg.sender].length));\n          \n          //COPY THE STORE IN THE LAST INDEX INTO THE DELETE INDEX (REPLACE)\n          stores[msg.sender][storeIndex] = stores[msg.sender][stores[msg.sender].length - 1];\n          //REDUCE STORE LENGTH BY 1\n          stores[msg.sender].length --;\n          \n          if(stores[msg.sender].length==0) {\n               vendorAccountsWithListedStores[vendorSlot[msg.sender].slot] = vendorAccountsWithListedStores[vendorAccountsWithListedStores.length - 1];\n               vendorAccountsWithListedStores.length--;\n               delete vendorSlot[msg.sender];\n          }\n\n          emit StoreDeleteted(stores[msg.sender].length);\n          \n          return true;\n    }\n    \n    //    mapping(address => Store[]) internal stores;\n    function getStorePrivate(uint storeIndex) public view returns(bytes32, bytes32, uint, uint){\n          uint revenue =  stores[msg.sender][storeIndex].revenue;\n          return (\n            stores[msg.sender][storeIndex].name,\n            stores[msg.sender][storeIndex].description,\n            revenue,\n             storeIndex\n         );\n        //return getStore(vendorSlot[msg.sender].slot, storeIndex);\n\n    }\n    \n    function getStorePublic(uint accountIndex, uint storeIndex) public view returns(bytes32, bytes32, uint, uint){\n        //check if the account is in accounts with listed store and the account has a store \n        require(accountIndex < vendorAccountsWithListedStores.length && stores[vendorAccountsWithListedStores[accountIndex]].length > 0);\n\n          return getStore(accountIndex, storeIndex);\n    }\n    \n    function getStore(uint accountIndex, uint storeIndex) private view returns (bytes32, bytes32, uint, uint) {\n          address user = vendorAccountsWithListedStores[accountIndex];\n          \n          return (\n            stores[user][storeIndex].name,\n            stores[user][storeIndex].description,\n            storeIndex,\n            accountIndex\n         );\n    }\n    \n    function getVendorAccountsWithListedStoresCount() public view returns(uint) {\n          return vendorAccountsWithListedStores.length;\n    }\n    \n    function getUserStoreCount() public view returns(uint) {\n           return stores[msg.sender].length;\n    }\n    \n    function getVendorStoreCountPublic(uint accountIndex) public view returns(uint, uint) {\n          \n          \n           return (\n                   accountIndex,\n                   stores[vendorAccountsWithListedStores[accountIndex]].length\n               );\n    }\n    \n\n}\n",
  "sourcePath": "/Users/yusufkelo/Documents/DEVELOPER/ETHEREAUM/blockchain-market/market-place/contracts/StoreManager.sol",
  "compiler": {
    "name": "solc",
    "version": "0.4.24+commit.e67f0147.Emscripten.clang"
  },
  "schemaVersion": "2.0.0",
  "updatedAt": "2018-08-26T05:54:48.037Z"
}