{
  "contractName": "StoreManager",
  "abi": [
    {
      "inputs": [],
      "payable": false,
      "stateMutability": "nonpayable",
      "type": "constructor"
    },
    {
      "anonymous": false,
      "inputs": [
        {
          "indexed": false,
          "name": "storeName",
          "type": "bytes32"
        },
        {
          "indexed": false,
          "name": "description",
          "type": "bytes32"
        }
      ],
      "name": "StoreCreated",
      "type": "event"
    },
    {
      "anonymous": false,
      "inputs": [
        {
          "indexed": false,
          "name": "storeName",
          "type": "bytes32"
        },
        {
          "indexed": false,
          "name": "description",
          "type": "bytes32"
        }
      ],
      "name": "StoreUpdated",
      "type": "event"
    },
    {
      "anonymous": false,
      "inputs": [
        {
          "indexed": false,
          "name": "status",
          "type": "bool"
        }
      ],
      "name": "StoreDeleteted",
      "type": "event"
    },
    {
      "constant": false,
      "inputs": [
        {
          "name": "storeName",
          "type": "bytes32"
        },
        {
          "name": "description",
          "type": "bytes32"
        }
      ],
      "name": "createStore",
      "outputs": [
        {
          "name": "",
          "type": "uint256"
        }
      ],
      "payable": false,
      "stateMutability": "nonpayable",
      "type": "function"
    },
    {
      "constant": false,
      "inputs": [
        {
          "name": "storeIndex",
          "type": "uint256"
        },
        {
          "name": "storeName",
          "type": "bytes32"
        },
        {
          "name": "description",
          "type": "bytes32"
        }
      ],
      "name": "editStore",
      "outputs": [
        {
          "name": "",
          "type": "bool"
        }
      ],
      "payable": false,
      "stateMutability": "nonpayable",
      "type": "function"
    },
    {
      "constant": false,
      "inputs": [
        {
          "name": "storeIndex",
          "type": "uint256"
        }
      ],
      "name": "deleteStore",
      "outputs": [
        {
          "name": "",
          "type": "bool"
        }
      ],
      "payable": false,
      "stateMutability": "nonpayable",
      "type": "function"
    },
    {
      "constant": true,
      "inputs": [
        {
          "name": "storeIndex",
          "type": "uint256"
        }
      ],
      "name": "getStorePrivate",
      "outputs": [
        {
          "name": "",
          "type": "bytes32"
        },
        {
          "name": "",
          "type": "bytes32"
        },
        {
          "name": "",
          "type": "uint256"
        },
        {
          "name": "",
          "type": "uint256"
        }
      ],
      "payable": false,
      "stateMutability": "view",
      "type": "function"
    },
    {
      "constant": true,
      "inputs": [
        {
          "name": "accountIndex",
          "type": "uint256"
        },
        {
          "name": "storeIndex",
          "type": "uint256"
        }
      ],
      "name": "getStorePublic",
      "outputs": [
        {
          "name": "",
          "type": "bytes32"
        },
        {
          "name": "",
          "type": "bytes32"
        },
        {
          "name": "",
          "type": "uint256"
        },
        {
          "name": "",
          "type": "uint256"
        }
      ],
      "payable": false,
      "stateMutability": "view",
      "type": "function"
    },
    {
      "constant": true,
      "inputs": [],
      "name": "getVendorAccountsWithListedStoresCount",
      "outputs": [
        {
          "name": "",
          "type": "uint256"
        }
      ],
      "payable": false,
      "stateMutability": "view",
      "type": "function"
    },
    {
      "constant": true,
      "inputs": [],
      "name": "getUserStoreCount",
      "outputs": [
        {
          "name": "",
          "type": "uint256"
        }
      ],
      "payable": false,
      "stateMutability": "view",
      "type": "function"
    },
    {
      "constant": true,
      "inputs": [
        {
          "name": "accountIndex",
          "type": "uint256"
        }
      ],
      "name": "getVendorStoreCountPublic",
      "outputs": [
        {
          "name": "",
          "type": "uint256"
        },
        {
          "name": "",
          "type": "uint256"
        }
      ],
      "payable": false,
      "stateMutability": "view",
      "type": "function"
    }
  ],
  "bytecode": "0x608060405234801561001057600080fd5b50610022640100000000610027810204565b61003b565b60008054600160a060020a03191633179055565b6109b08061004a6000396000f30060806040526004361061008d5763ffffffff7c010000000000000000000000000000000000000000000000000000000060003504166317a5802381146100925780633a8fa895146100c3578063543c73f5146101045780637105306a1461012b5780637cc69325146101435780638f0c0f361461016f578063c08ed9b114610184578063e64a282b146101a2575b600080fd5b34801561009e57600080fd5b506100aa6004356101bd565b6040805192835260208301919091528051918290030190f35b3480156100cf57600080fd5b506100de600435602435610210565b604080519485526020850193909352838301919091526060830152519081900360800190f35b34801561011057600080fd5b50610119610293565b60408051918252519081900360200190f35b34801561013757600080fd5b506100de60043561029a565b34801561014f57600080fd5b5061015b6004356102cc565b604080519115158252519081900360200190f35b34801561017b57600080fd5b506101196104bb565b34801561019057600080fd5b5061015b6004356024356044356104ce565b3480156101ae57600080fd5b506101196004356024356105a4565b60008082600460006002868154811015156101d457fe5b600091825260208083209091015473ffffffffffffffffffffffffffffffffffffffff1683528201929092526040019020549092509050915091565b6000806000806002805490508610801561026e575060006004600060028981548110151561023a57fe5b600091825260208083209091015473ffffffffffffffffffffffffffffffffffffffff168352820192909252604001902054115b151561027957600080fd5b6102838686610743565b9299919850965090945092505050565b6002545b90565b336000908152600360205260408120600101548190819081906102bd9086610743565b93509350935093509193509193565b3360009081526004602052604081205482106102e757600080fd5b3360009081526004602052604090208054600019810190811061030657fe5b60009182526020808320338452600490915260409092208054600690920290920191908490811061033357fe5b60009182526020909120825460069092020190815560018083015490820155600280830154908201556003808301805461037092840191906107fe565b50600491820154908201553360009081526020919091526040902080549061039c90600019830161084e565b5033600090815260046020526040902054151561047f576002805460001981019081106103c557fe5b600091825260208083209091015433835260039091526040909120600101546002805473ffffffffffffffffffffffffffffffffffffffff90931692909190811061040c57fe5b6000918252602090912001805473ffffffffffffffffffffffffffffffffffffffff191673ffffffffffffffffffffffffffffffffffffffff92909216919091179055600280549061046290600019830161087f565b50336000908152600360205260408120805460ff19168155600101555b604080516001815290517f23c5d741b989d258f3dfd0acb51fe94b269a004cc375577fe837f9e8e084f0299181900360200190a1506001919050565b3360009081526004602052604090205490565b600060013360009081526005602052604090206003015460ff1660018111156104f357fe5b146104fd57600080fd5b33600090815260046020526040902080548491908690811061051b57fe5b6000918252602080832060069092029091019290925533815260049091526040902080548391908690811061054c57fe5b6000918252602091829020600160069092020101919091556040805185815291820184905280517f1f06b4504ab663437e6acda30ec31427a9daa3167c298775fbdb45dde4a0e6049281900390910190a19392505050565b60006105ae6108a3565b60013360009081526005602052604090206003015460ff1660018111156105d157fe5b146105db57600080fd5b838152602080820184815233600090815260048352604080822080546001818101808455928552938690208751600690920201908155935192840192909255840151600283015560608401518051919385939261063e92600385019201906108d0565b5060809190910151600490910155503360009081526003602052604090205460ff1615156106f057604080518082018252600180825260028054602080850191825233600081815260039092529581209451855460ff1916901515178555905193830193909355805491820181559091527f405787fa12a823e0f2b7631cc41b3ba8828b3321ca811111fa75cd3aa3bb5ace01805473ffffffffffffffffffffffffffffffffffffffff191690911790555b604080518581526020810185905281517f1f06b4504ab663437e6acda30ec31427a9daa3167c298775fbdb45dde4a0e604929181900390910190a150503360009081526004602052604090205492915050565b600080600080600060028781548110151561075a57fe5b600091825260208083209091015473ffffffffffffffffffffffffffffffffffffffff16808352600490915260409091208054919250908790811061079b57fe5b6000918252602080832060069092029091015473ffffffffffffffffffffffffffffffffffffffff84168352600490915260409091208054889081106107dd57fe5b60009182526020909120600160069092020101549098909795509350505050565b82805482825590600052602060002090810192821561083e5760005260206000209182015b8281111561083e578254825591600101919060010190610823565b5061084a92915061090b565b5090565b81548183558181111561087a5760060281600602836000526020600020918201910161087a9190610925565b505050565b81548183558181111561087a5760008381526020902061087a91810190830161090b565b6040805160a081018252600080825260208201819052918101829052606080820152608081019190915290565b82805482825590600052602060002090810192821561083e579160200282015b8281111561083e5782518255916020019190600101906108f0565b61029791905b8082111561084a5760008155600101610911565b61029791905b8082111561084a57600080825560018201819055600282018190556109536003830182610963565b506000600482015560060161092b565b5080546000825590600052602060002090810190610981919061090b565b505600a165627a7a72305820f019c6d798b4b30375875b6f43e38c888b8585565abe626c5262c6e8c854819c0029",
  "source": "pragma solidity ^0.4.18;\nimport './UserManager.sol';\nimport \"./Ownerble.sol\";\nimport \"./StoreBase.sol\";\nimport \"./VendorBase.sol\";\n\ncontract StoreManager is Ownerble, StoreBase, VendorBase {//is Ownerble, UserManager {\n    \n    event StoreCreated(bytes32 storeName, bytes32 description);\n    event StoreUpdated(bytes32 storeName, bytes32 description);\n    event StoreDeleteted(bool status);\n\n    constructor() public {\n    \n    }\n        \n     function createStore(bytes32 storeName, bytes32 description) public  returns(uint){\n         //      vendors[account].state = AccountState.Approved;\n         require(vendors[msg.sender].state == AccountState.Approved);\n          Store memory store;\n          store.name = storeName;\n          store.description = description;\n          \n          stores[msg.sender].push(store);\n          \n          if(vendorSlot[msg.sender].initialized==false) {\n              vendorSlot[msg.sender] = VendorSlot(true,\n              vendorAccountsWithListedStores.length);\n              vendorAccountsWithListedStores.push(msg.sender);\n          }\n\n          emit StoreCreated(storeName, description);\n \n          return  stores[msg.sender].length;\n    }\n    \n    function editStore(uint storeIndex, bytes32 storeName, bytes32 description) public returns(bool) {\n      require(vendors[msg.sender].state == AccountState.Approved);\n      \n          stores[msg.sender][storeIndex].name = storeName;\n          stores[msg.sender][storeIndex].description = description;\n\n          emit StoreCreated(storeName, description);\n    }\n    \n       function deleteStore(uint storeIndex) public returns(bool) {\n          require(storeIndex < stores[msg.sender].length);\n          \n          //COPY THE STORE IN THE LAST INDEX INTO THE DELETE INDEX (REPLACE)\n          stores[msg.sender][storeIndex] = stores[msg.sender][stores[msg.sender].length - 1];\n          //REDUCE STORE LENGTH BY 1\n          stores[msg.sender].length --;\n          \n          if(stores[msg.sender].length==0) {\n               vendorAccountsWithListedStores[vendorSlot[msg.sender].slot] = vendorAccountsWithListedStores[vendorAccountsWithListedStores.length - 1];\n               vendorAccountsWithListedStores.length--;\n               delete vendorSlot[msg.sender];\n          }\n\n          emit StoreDeleteted(true);\n          \n          return true;\n    }\n    \n    //    mapping(address => Store[]) internal stores;\n    function getStorePrivate(uint storeIndex) public view returns(bytes32, bytes32, uint, uint){\n        return getStore(vendorSlot[msg.sender].slot, storeIndex);\n    }\n    \n    function getStorePublic(uint accountIndex, uint storeIndex) public view returns(bytes32, bytes32, uint, uint){\n        //check if the account is in accounts with listed store and the account has a store \n        require(accountIndex < vendorAccountsWithListedStores.length && stores[vendorAccountsWithListedStores[accountIndex]].length > 0);\n        \n        // return getStore(vendorAccountsWithListedStores[accountIndex], storeIndex);\n          return getStore(accountIndex, storeIndex);\n    }\n    \n    function getStore(uint accountIndex, uint storeIndex) private view returns (bytes32, bytes32, uint, uint) {\n          address user = vendorAccountsWithListedStores[accountIndex];\n          \n          return (\n            stores[user][storeIndex].name,\n            stores[user][storeIndex].description,\n            storeIndex,\n            accountIndex\n         );\n    }\n    \n    function getVendorAccountsWithListedStoresCount() public view returns(uint) {\n          return vendorAccountsWithListedStores.length;\n    }\n    \n    function getUserStoreCount() public view returns(uint) {\n           return stores[msg.sender].length;\n    }\n    \n    function getVendorStoreCountPublic(uint accountIndex) public view returns(uint, uint) {\n           return (\n                   accountIndex,\n                   stores[vendorAccountsWithListedStores[accountIndex]].length\n               );\n    }\n    \n\n}\n",
  "sourcePath": "/Users/yusufkelo/Documents/DEVELOPER/ETHEREAUM/blockchain-market/market-place/contracts/StoreManager.sol",
  "compiler": {
    "name": "solc",
    "version": "0.4.24+commit.e67f0147.Emscripten.clang"
  },
  "schemaVersion": "2.0.0",
  "updatedAt": "2018-08-21T13:51:22.247Z"
}