{
  "contractName": "StoreManager",
  "abi": [
    {
      "constant": true,
      "inputs": [],
      "name": "getVendorBalance",
      "outputs": [
        {
          "name": "",
          "type": "uint256"
        }
      ],
      "payable": false,
      "stateMutability": "view",
      "type": "function"
    },
    {
      "inputs": [],
      "payable": false,
      "stateMutability": "nonpayable",
      "type": "constructor"
    },
    {
      "anonymous": false,
      "inputs": [
        {
          "indexed": false,
          "name": "storesSize",
          "type": "uint256"
        }
      ],
      "name": "StoreCreated",
      "type": "event"
    },
    {
      "anonymous": false,
      "inputs": [
        {
          "indexed": false,
          "name": "storeName",
          "type": "bytes32"
        },
        {
          "indexed": false,
          "name": "description",
          "type": "bytes32"
        }
      ],
      "name": "StoreUpdated",
      "type": "event"
    },
    {
      "anonymous": false,
      "inputs": [
        {
          "indexed": false,
          "name": "storesSize",
          "type": "uint256"
        }
      ],
      "name": "StoreDeleteted",
      "type": "event"
    },
    {
      "constant": false,
      "inputs": [
        {
          "name": "storeName",
          "type": "bytes32"
        },
        {
          "name": "description",
          "type": "bytes32"
        }
      ],
      "name": "createStore",
      "outputs": [
        {
          "name": "",
          "type": "uint256"
        }
      ],
      "payable": false,
      "stateMutability": "nonpayable",
      "type": "function"
    },
    {
      "constant": false,
      "inputs": [
        {
          "name": "storeIndex",
          "type": "uint256"
        },
        {
          "name": "storeName",
          "type": "bytes32"
        },
        {
          "name": "description",
          "type": "bytes32"
        }
      ],
      "name": "editStore",
      "outputs": [
        {
          "name": "",
          "type": "bool"
        }
      ],
      "payable": false,
      "stateMutability": "nonpayable",
      "type": "function"
    },
    {
      "constant": false,
      "inputs": [
        {
          "name": "storeIndex",
          "type": "uint256"
        }
      ],
      "name": "deleteStore",
      "outputs": [
        {
          "name": "",
          "type": "bool"
        }
      ],
      "payable": false,
      "stateMutability": "nonpayable",
      "type": "function"
    },
    {
      "constant": true,
      "inputs": [
        {
          "name": "storeIndex",
          "type": "uint256"
        }
      ],
      "name": "getStorePrivate",
      "outputs": [
        {
          "name": "",
          "type": "bytes32"
        },
        {
          "name": "",
          "type": "bytes32"
        },
        {
          "name": "",
          "type": "uint256"
        },
        {
          "name": "",
          "type": "uint256"
        }
      ],
      "payable": false,
      "stateMutability": "view",
      "type": "function"
    },
    {
      "constant": true,
      "inputs": [
        {
          "name": "accountIndex",
          "type": "uint256"
        },
        {
          "name": "storeIndex",
          "type": "uint256"
        }
      ],
      "name": "getStorePublic",
      "outputs": [
        {
          "name": "",
          "type": "bytes32"
        },
        {
          "name": "",
          "type": "bytes32"
        },
        {
          "name": "",
          "type": "uint256"
        },
        {
          "name": "",
          "type": "uint256"
        }
      ],
      "payable": false,
      "stateMutability": "view",
      "type": "function"
    },
    {
      "constant": true,
      "inputs": [],
      "name": "getVendorAccountsWithListedStoresCount",
      "outputs": [
        {
          "name": "",
          "type": "uint256"
        }
      ],
      "payable": false,
      "stateMutability": "view",
      "type": "function"
    },
    {
      "constant": true,
      "inputs": [],
      "name": "getUserStoreCount",
      "outputs": [
        {
          "name": "",
          "type": "uint256"
        }
      ],
      "payable": false,
      "stateMutability": "view",
      "type": "function"
    },
    {
      "constant": true,
      "inputs": [
        {
          "name": "accountIndex",
          "type": "uint256"
        }
      ],
      "name": "getVendorStoreCountPublic",
      "outputs": [
        {
          "name": "",
          "type": "uint256"
        },
        {
          "name": "",
          "type": "uint256"
        }
      ],
      "payable": false,
      "stateMutability": "view",
      "type": "function"
    }
  ],
  "bytecode": "0x608060405234801561001057600080fd5b50610022640100000000610027810204565b61003b565b60008054600160a060020a03191633179055565b610aea8061004a6000396000f3006080604052600436106100985763ffffffff7c010000000000000000000000000000000000000000000000000000000060003504166317a58023811461009d5780633a8fa895146100ce578063543c73f51461010f5780636e91c6b8146101365780637105306a1461014b5780637cc69325146101635780638f0c0f361461018f578063c08ed9b1146101a4578063e64a282b146101c2575b600080fd5b3480156100a957600080fd5b506100b56004356101dd565b6040805192835260208301919091528051918290030190f35b3480156100da57600080fd5b506100e9600435602435610223565b604080519485526020850193909352838301919091526060830152519081900360800190f35b34801561011b57600080fd5b50610124610299565b60408051918252519081900360200190f35b34801561014257600080fd5b506101246102a0565b34801561015757600080fd5b506100e96004356102e6565b34801561016f57600080fd5b5061017b60043561039f565b604080519115158252519081900360200190f35b34801561019b57600080fd5b506101246105cf565b3480156101b057600080fd5b5061017b6004356024356044356105e2565b3480156101ce57600080fd5b506101246004356024356106ee565b60008082600460006002868154811015156101f457fe5b6000918252602080832090910154600160a060020a031683528201929092526040019020549092509050915091565b60008060008060028054905086108015610274575060006004600060028981548110151561024d57fe5b6000918252602080832090910154600160a060020a03168352820192909252604001902054115b151561027f57600080fd5b6102898686610897565b9299919850965090945092505050565b6002545b90565b600060013360009081526005602052604090206003015460ff1660018111156102c557fe5b146102cf57600080fd5b503360009081526005602052604090206007015490565b336000908152600460205260408120805482918291829182918790811061030957fe5b90600052602060002090600602016002015490506004600033600160a060020a0316600160a060020a031681526020019081526020016000208681548110151561034f57fe5b600091825260208083206006909202909101543383526004909152604090912080548890811061037b57fe5b90600052602060002090600602016001015482889450945094509450509193509193565b600060013360009081526005602052604090206003015460ff1660018111156103c457fe5b146103ce57600080fd5b336000908152600460205260408120541180156103f957503360009081526004602052604090205482105b151561040457600080fd5b3360009081526004602052604090208054600019810190811061042357fe5b60009182526020808320338452600490915260409092208054600690920290920191908490811061045057fe5b60009182526020909120825460069092020190815560018083015490820155600280830154908201556003808301805461048d9284019190610938565b5060049182015490820155336000908152602091909152604090208054906104b9906000198301610988565b50336000908152600460205260409020541515610582576002805460001981019081106104e257fe5b6000918252602080832090910154338352600390915260409091206001015460028054600160a060020a0390931692909190811061051c57fe5b6000918252602090912001805473ffffffffffffffffffffffffffffffffffffffff1916600160a060020a039290921691909117905560028054906105659060001983016109b9565b50336000908152600360205260408120805460ff19168155600101555b3360009081526004602090815260409182902054825190815291517fb9a4bd253f65179162993c9e886b8a6a550b811e0a8c2977ee7dd3a1d061e2729281900390910190a1506001919050565b3360009081526004602052604090205490565b600060013360009081526005602052604090206003015460ff16600181111561060757fe5b1461061157600080fd5b3360009081526004602052604081205411801561063c57503360009081526004602052604090205484105b151561064757600080fd5b33600090815260046020526040902080548491908690811061066557fe5b6000918252602080832060069092029091019290925533815260049091526040902080548391908690811061069657fe5b6000918252602091829020600160069092020101919091556040805185815291820184905280517f745f6c37c7c955a766769f82b258315021a200fd1fe89df40262fc3c38b640d39281900390910190a19392505050565b60006106f86109dd565b60013360009081526005602052604090206003015460ff16600181111561071b57fe5b1461072557600080fd5b83815260208082018481523360009081526004835260408082208054600181810180845592855293869020875160069092020190815593519284019290925584015160028301556060840151805191938593926107889260038501920190610a0a565b5060809190910151600490910155503360009081526003602052604090205460ff16151561083a57604080518082018252600180825260028054602080850191825233600081815260039092529581209451855460ff1916901515178555905193830193909355805491820181559091527f405787fa12a823e0f2b7631cc41b3ba8828b3321ca811111fa75cd3aa3bb5ace01805473ffffffffffffffffffffffffffffffffffffffff191690911790555b3360009081526004602090815260409182902054825190815291517f6c6c640d5c695d50cab6e007033207e384550c46ef1e827046dd75e4f33dc4329281900390910190a150503360009081526004602052604090205492915050565b60008060008060006002878154811015156108ae57fe5b6000918252602080832090910154600160a060020a031680835260049091526040909120805491925090879081106108e257fe5b60009182526020808320600690920290910154600160a060020a03841683526004909152604090912080548890811061091757fe5b60009182526020909120600160069092020101549098909795509350505050565b8280548282559060005260206000209081019282156109785760005260206000209182015b8281111561097857825482559160010191906001019061095d565b50610984929150610a45565b5090565b8154818355818111156109b4576006028160060283600052602060002091820191016109b49190610a5f565b505050565b8154818355818111156109b4576000838152602090206109b4918101908301610a45565b6040805160a081018252600080825260208201819052918101829052606080820152608081019190915290565b828054828255906000526020600020908101928215610978579160200282015b82811115610978578251825591602001919060010190610a2a565b61029d91905b808211156109845760008155600101610a4b565b61029d91905b808211156109845760008082556001820181905560028201819055610a8d6003830182610a9d565b5060006004820155600601610a65565b5080546000825590600052602060002090810190610abb9190610a45565b505600a165627a7a72305820a1c224a54111945d0ab30da50391cb738017077c6ce0504a85ddd89a58a282710029",
  "source": "pragma solidity ^0.4.18;\nimport './UserManager.sol';\nimport \"./Ownerble.sol\";\nimport \"./StoreBase.sol\";\nimport \"./VendorBase.sol\";\n\ncontract StoreManager is Ownerble, StoreBase, VendorBase {//is Ownerble, UserManager {\n    \n    event StoreCreated(uint256 storesSize);\n    event StoreUpdated(bytes32 storeName, bytes32 description);\n    event StoreDeleteted(uint256 storesSize);\n\n    constructor() public {\n    \n    }\n        \n     function createStore(bytes32 storeName, bytes32 description) public  returns(uint){\n         //      vendors[account].state = AccountState.Approved;\n         require(vendors[msg.sender].state == AccountState.Approved);\n          Store memory store;\n          store.name = storeName;\n          store.description = description;\n          \n          stores[msg.sender].push(store);\n          \n          if(vendorSlot[msg.sender].initialized==false) {\n              vendorSlot[msg.sender] = VendorSlot(true,\n              vendorAccountsWithListedStores.length);\n              vendorAccountsWithListedStores.push(msg.sender);\n          }\n\n          emit StoreCreated(stores[msg.sender].length);\n \n          return  stores[msg.sender].length;\n    }\n    \n    function editStore(uint storeIndex, bytes32 storeName, bytes32 description) public returns(bool) {\n      require(vendors[msg.sender].state == AccountState.Approved);\n        require(stores[msg.sender].length > 0 && (storeIndex < stores[msg.sender].length));\n\n          stores[msg.sender][storeIndex].name = storeName;\n          stores[msg.sender][storeIndex].description = description;\n\n          emit StoreUpdated(storeName, description);\n    }\n    \n       function deleteStore(uint storeIndex) public returns(bool) {\n          require(vendors[msg.sender].state == AccountState.Approved);\n          require(stores[msg.sender].length> 0 && (storeIndex < stores[msg.sender].length));\n          \n          //COPY THE STORE IN THE LAST INDEX INTO THE DELETE INDEX (REPLACE)\n          stores[msg.sender][storeIndex] = stores[msg.sender][stores[msg.sender].length - 1];\n          //REDUCE STORE LENGTH BY 1\n          stores[msg.sender].length --;\n          \n          if(stores[msg.sender].length==0) {\n               vendorAccountsWithListedStores[vendorSlot[msg.sender].slot] = vendorAccountsWithListedStores[vendorAccountsWithListedStores.length - 1];\n               vendorAccountsWithListedStores.length--;\n               delete vendorSlot[msg.sender];\n          }\n\n          emit StoreDeleteted(stores[msg.sender].length);\n          \n          return true;\n    }\n    \n    //    mapping(address => Store[]) internal stores;\n    function getStorePrivate(uint storeIndex) public view returns(bytes32, bytes32, uint, uint){\n          uint revenue =  stores[msg.sender][storeIndex].revenue;\n          return (\n            stores[msg.sender][storeIndex].name,\n            stores[msg.sender][storeIndex].description,\n            revenue,\n             storeIndex\n         );\n        //return getStore(vendorSlot[msg.sender].slot, storeIndex);\n\n    }\n    \n    function getStorePublic(uint accountIndex, uint storeIndex) public view returns(bytes32, bytes32, uint, uint){\n        //check if the account is in accounts with listed store and the account has a store \n        require(accountIndex < vendorAccountsWithListedStores.length && stores[vendorAccountsWithListedStores[accountIndex]].length > 0);\n\n          return getStore(accountIndex, storeIndex);\n    }\n    \n    function getStore(uint accountIndex, uint storeIndex) private view returns (bytes32, bytes32, uint, uint) {\n          address user = vendorAccountsWithListedStores[accountIndex];\n          \n          return (\n            stores[user][storeIndex].name,\n            stores[user][storeIndex].description,\n            storeIndex,\n            accountIndex\n         );\n    }\n    \n    function getVendorAccountsWithListedStoresCount() public view returns(uint) {\n          return vendorAccountsWithListedStores.length;\n    }\n    \n    function getUserStoreCount() public view returns(uint) {\n           return stores[msg.sender].length;\n    }\n    \n    function getVendorStoreCountPublic(uint accountIndex) public view returns(uint, uint) {\n          \n          \n           return (\n                   accountIndex,\n                   stores[vendorAccountsWithListedStores[accountIndex]].length\n               );\n    }\n    \n\n}\n",
  "sourcePath": "/Users/yusufkelo/Documents/DEVELOPER/ETHEREAUM/blockchain-market/market-place/contracts/StoreManager.sol",
  "compiler": {
    "name": "solc",
    "version": "0.4.24+commit.e67f0147.Emscripten.clang"
  },
  "schemaVersion": "2.0.0",
  "updatedAt": "2018-08-23T12:05:25.139Z"
}