{
  "contractName": "StoreManager",
  "abi": [
    {
      "inputs": [],
      "payable": false,
      "stateMutability": "nonpayable",
      "type": "constructor"
    },
    {
      "constant": false,
      "inputs": [
        {
          "name": "storeName",
          "type": "bytes32"
        },
        {
          "name": "description",
          "type": "bytes32"
        }
      ],
      "name": "createStore",
      "outputs": [
        {
          "name": "",
          "type": "uint256"
        }
      ],
      "payable": false,
      "stateMutability": "nonpayable",
      "type": "function"
    },
    {
      "constant": false,
      "inputs": [
        {
          "name": "storeIndex",
          "type": "uint256"
        },
        {
          "name": "storeName",
          "type": "bytes32"
        },
        {
          "name": "description",
          "type": "bytes32"
        }
      ],
      "name": "editStore",
      "outputs": [
        {
          "name": "",
          "type": "bool"
        }
      ],
      "payable": false,
      "stateMutability": "nonpayable",
      "type": "function"
    },
    {
      "constant": false,
      "inputs": [
        {
          "name": "storeIndex",
          "type": "uint256"
        }
      ],
      "name": "deleteStore",
      "outputs": [
        {
          "name": "",
          "type": "bool"
        }
      ],
      "payable": false,
      "stateMutability": "nonpayable",
      "type": "function"
    },
    {
      "constant": true,
      "inputs": [
        {
          "name": "storeIndex",
          "type": "uint256"
        }
      ],
      "name": "getStorePrivate",
      "outputs": [
        {
          "name": "",
          "type": "bytes32"
        },
        {
          "name": "",
          "type": "bytes32"
        }
      ],
      "payable": false,
      "stateMutability": "view",
      "type": "function"
    },
    {
      "constant": true,
      "inputs": [
        {
          "name": "accountIndex",
          "type": "uint256"
        },
        {
          "name": "storeIndex",
          "type": "uint256"
        }
      ],
      "name": "getStorePublic",
      "outputs": [
        {
          "name": "",
          "type": "bytes32"
        },
        {
          "name": "",
          "type": "bytes32"
        }
      ],
      "payable": false,
      "stateMutability": "view",
      "type": "function"
    },
    {
      "constant": true,
      "inputs": [],
      "name": "getVendorAccountsWithListedStoresCount",
      "outputs": [
        {
          "name": "",
          "type": "uint256"
        }
      ],
      "payable": false,
      "stateMutability": "view",
      "type": "function"
    },
    {
      "constant": true,
      "inputs": [],
      "name": "getUserStoreCount",
      "outputs": [
        {
          "name": "",
          "type": "uint256"
        }
      ],
      "payable": false,
      "stateMutability": "view",
      "type": "function"
    },
    {
      "constant": true,
      "inputs": [
        {
          "name": "accountIndex",
          "type": "uint256"
        }
      ],
      "name": "getVendorStoreCountPublic",
      "outputs": [
        {
          "name": "",
          "type": "uint256"
        },
        {
          "name": "",
          "type": "uint256"
        }
      ],
      "payable": false,
      "stateMutability": "view",
      "type": "function"
    }
  ],
  "bytecode": "0x608060405234801561001057600080fd5b50610022640100000000610027810204565b61003b565b60008054600160a060020a03191633179055565b6108068061004a6000396000f30060806040526004361061008d5763ffffffff7c010000000000000000000000000000000000000000000000000000000060003504166317a5802381146100925780633a8fa895146100c3578063543c73f5146100de5780637105306a146101055780637cc693251461011d5780638f0c0f3614610149578063c08ed9b11461015e578063e64a282b1461017c575b600080fd5b34801561009e57600080fd5b506100aa600435610197565b6040805192835260208301919091528051918290030190f35b3480156100cf57600080fd5b506100aa6004356024356101dd565b3480156100ea57600080fd5b506100f361026d565b60408051918252519081900360200190f35b34801561011157600080fd5b506100aa600435610274565b34801561012957600080fd5b5061013560043561028a565b604080519115158252519081900360200190f35b34801561015557600080fd5b506100f3610429565b34801561016a57600080fd5b5061013560043560243560443561043c565b34801561018857600080fd5b506100f36004356024356104a6565b60008082600160006002868154811015156101ae57fe5b6000918252602080832090910154600160a060020a031683528201929092526040019020549092509050915091565b60025460009081908410801561022a575060006001600060028781548110151561020357fe5b6000918252602080832090910154600160a060020a03168352820192909252604001902054115b151561023557600080fd5b61026260028581548110151561024757fe5b600091825260209091200154600160a060020a0316846105db565b915091509250929050565b6002545b90565b60008061028133846105db565b91509150915091565b3360009081526001602052604081205482106102a557600080fd5b336000908152600160205260409020805460001981019081106102c457fe5b6000918252602080832033845260019091526040909220805460069092029092019190849081106102f157fe5b60009182526020909120825460069092020190815560018083015490820155600280830154908201556003808301805461032e9284019190610654565b506004918201549101553360009081526001602052604090208054906103589060001983016106a4565b503360009081526001602052604090205415156104215760028054600019810190811061038157fe5b6000918252602080832090910154338352600390915260409091206001015460028054600160a060020a039093169290919081106103bb57fe5b6000918252602090912001805473ffffffffffffffffffffffffffffffffffffffff1916600160a060020a039290921691909117905560028054906104049060001983016106d5565b50336000908152600360205260408120805460ff19168155600101555b506001919050565b3360009081526001602052604090205490565b33600090815260016020526040812080548491908690811061045a57fe5b6000918252602080832060069092029091019290925533815260019091526040902080548391908690811061048b57fe5b60009182526020909120600160069092020101559392505050565b60006104b06106f9565b8381526020808201848152336000908152600180845260408083208054808401808355918552938690208751600690950201938455935191830191909155840151600282015560608401518051929385936105119260038501920190610726565b5060809190910151600490910155503360009081526003602052604090205460ff1615156105c357604080518082018252600180825260028054602080850191825233600081815260039092529581209451855460ff1916901515178555905193830193909355805491820181559091527f405787fa12a823e0f2b7631cc41b3ba8828b3321ca811111fa75cd3aa3bb5ace01805473ffffffffffffffffffffffffffffffffffffffff191690911790555b50503360009081526001602052604090205492915050565b600160a060020a038216600090815260016020526040812080548291908490811061060257fe5b60009182526020808320600690920290910154600160a060020a03871683526001909152604090912080548590811061063757fe5b906000526020600020906006020160010154915091509250929050565b8280548282559060005260206000209081019282156106945760005260206000209182015b82811115610694578254825591600101919060010190610679565b506106a0929150610761565b5090565b8154818355818111156106d0576006028160060283600052602060002091820191016106d0919061077b565b505050565b8154818355818111156106d0576000838152602090206106d0918101908301610761565b6040805160a081018252600080825260208201819052918101829052606080820152608081019190915290565b828054828255906000526020600020908101928215610694579160200282015b82811115610694578251825591602001919060010190610746565b61027191905b808211156106a05760008155600101610767565b61027191905b808211156106a057600080825560018201819055600282018190556107a960038301826107b9565b5060006004820155600601610781565b50805460008255906000526020600020908101906107d79190610761565b505600a165627a7a72305820060b7d094a94530c28089719cea18959ed50cc253625abbf812d43c7f7b563c20029",
  "source": "pragma solidity ^0.4.18;\nimport './UserManager.sol';\nimport \"./Ownerble.sol\";\nimport \"./StoreBase.sol\";\n\ncontract StoreManager is Ownerble, StoreBase {//is Ownerble, UserManager {\n    \n   \n    struct VendorSlot{\n        bool initialized;\n        uint slot;\n    }\n    \n    address[] private vendorAccountsWithListedStores;\n    mapping(address => VendorSlot) private vendorSlot;\n     \n    constructor() public {\n    \n    }\n    \n        \n     function createStore(bytes32 storeName, bytes32 description) public  returns(uint){\n        \n          Store memory store;\n          store.name = storeName;\n          store.description = description;\n          \n          stores[msg.sender].push(store);\n          \n          if(vendorSlot[msg.sender].initialized==false) {\n              vendorSlot[msg.sender] = VendorSlot(true,\n              vendorAccountsWithListedStores.length);\n              vendorAccountsWithListedStores.push(msg.sender);\n          }\n \n          return  stores[msg.sender].length;\n    }\n    \n    function editStore(uint storeIndex, bytes32 storeName, bytes32 description) public returns(bool) {\n          stores[msg.sender][storeIndex].name = storeName;\n          stores[msg.sender][storeIndex].description = description;\n    }\n    \n       function deleteStore(uint storeIndex) public returns(bool) {\n          require(storeIndex < stores[msg.sender].length);\n          \n          //COPY THE STORE IN THE LAST INDEX INTO THE DELETE INDEX (REPLACE)\n          stores[msg.sender][storeIndex] = stores[msg.sender][stores[msg.sender].length - 1];\n          //REDUCE STORE LENGTH BY 1\n          stores[msg.sender].length --;\n          \n          if(stores[msg.sender].length==0) {\n               vendorAccountsWithListedStores[vendorSlot[msg.sender].slot] = vendorAccountsWithListedStores[vendorAccountsWithListedStores.length - 1];\n               vendorAccountsWithListedStores.length--;\n               delete vendorSlot[msg.sender];\n          }\n          \n          return true;\n    }\n    \n    //    mapping(address => Store[]) internal stores;\n    function getStorePrivate(uint storeIndex) public view returns(bytes32, bytes32){\n        return getStore(msg.sender, storeIndex);\n    }\n    \n    function getStorePublic(uint accountIndex, uint storeIndex) public view returns(bytes32, bytes32){\n        //check if the account is in accounts with listed store and the account has a store \n        require(accountIndex < vendorAccountsWithListedStores.length && stores[vendorAccountsWithListedStores[accountIndex]].length > 0);\n        \n        return getStore(vendorAccountsWithListedStores[accountIndex], storeIndex);\n    }\n    \n    function getStore(address user, uint storeIndex) private view returns (bytes32, bytes32) {\n          return (\n            stores[user][storeIndex].name,\n            stores[user][storeIndex].description\n        );\n    }\n    \n    function getVendorAccountsWithListedStoresCount() public view returns(uint) {\n          return vendorAccountsWithListedStores.length;\n    }\n    \n    function getUserStoreCount() public view returns(uint) {\n           return stores[msg.sender].length;\n    }\n    \n    function getVendorStoreCountPublic(uint accountIndex) public view returns(uint, uint) {\n           return (\n                   accountIndex,\n                   stores[vendorAccountsWithListedStores[accountIndex]].length\n               );\n    }\n    \n\n}\n",
  "sourcePath": "/Users/yusufkelo/Documents/DEVELOPER/ETHEREAUM/blockchain-market/market-place/contracts/StoreManager.sol",
  "compiler": {
    "name": "solc",
    "version": "0.4.24+commit.e67f0147.Emscripten.clang"
  },
  "schemaVersion": "2.0.0",
  "updatedAt": "2018-08-03T21:31:12.617Z"
}