{
  "contractName": "UserManager",
  "abi": [
    {
      "constant": true,
      "inputs": [],
      "name": "getPendingVendors",
      "outputs": [
        {
          "name": "",
          "type": "uint256"
        }
      ],
      "payable": false,
      "stateMutability": "view",
      "type": "function"
    },
    {
      "constant": true,
      "inputs": [
        {
          "name": "index",
          "type": "uint256"
        }
      ],
      "name": "getPendingVendorByIndex",
      "outputs": [
        {
          "name": "",
          "type": "string"
        },
        {
          "name": "",
          "type": "string"
        },
        {
          "name": "",
          "type": "string"
        },
        {
          "name": "",
          "type": "uint256"
        },
        {
          "name": "",
          "type": "address"
        }
      ],
      "payable": false,
      "stateMutability": "view",
      "type": "function"
    },
    {
      "constant": false,
      "inputs": [
        {
          "name": "_name",
          "type": "string"
        },
        {
          "name": "_email",
          "type": "string"
        },
        {
          "name": "_phone",
          "type": "string"
        }
      ],
      "name": "requestVendorAccount",
      "outputs": [
        {
          "name": "",
          "type": "bool"
        }
      ],
      "payable": false,
      "stateMutability": "nonpayable",
      "type": "function"
    },
    {
      "constant": true,
      "inputs": [],
      "name": "getPendingVendorsCount",
      "outputs": [
        {
          "name": "",
          "type": "uint256"
        }
      ],
      "payable": false,
      "stateMutability": "view",
      "type": "function"
    },
    {
      "constant": true,
      "inputs": [],
      "name": "getApprovedVendorsCount",
      "outputs": [
        {
          "name": "",
          "type": "uint256"
        }
      ],
      "payable": false,
      "stateMutability": "view",
      "type": "function"
    },
    {
      "constant": true,
      "inputs": [
        {
          "name": "account",
          "type": "address"
        }
      ],
      "name": "getVendorByAddress",
      "outputs": [
        {
          "name": "",
          "type": "string"
        },
        {
          "name": "",
          "type": "string"
        },
        {
          "name": "",
          "type": "string"
        },
        {
          "name": "",
          "type": "uint256"
        },
        {
          "name": "",
          "type": "address"
        }
      ],
      "payable": false,
      "stateMutability": "view",
      "type": "function"
    },
    {
      "constant": false,
      "inputs": [
        {
          "name": "name",
          "type": "string"
        },
        {
          "name": "account",
          "type": "address"
        },
        {
          "name": "role",
          "type": "uint256"
        }
      ],
      "name": "createAdminUser",
      "outputs": [
        {
          "name": "",
          "type": "bool"
        }
      ],
      "payable": false,
      "stateMutability": "nonpayable",
      "type": "function"
    },
    {
      "constant": true,
      "inputs": [
        {
          "name": "index",
          "type": "uint256"
        }
      ],
      "name": "getApprovedVendorByIndex",
      "outputs": [
        {
          "name": "",
          "type": "string"
        },
        {
          "name": "",
          "type": "string"
        },
        {
          "name": "",
          "type": "string"
        },
        {
          "name": "",
          "type": "uint256"
        },
        {
          "name": "",
          "type": "address"
        }
      ],
      "payable": false,
      "stateMutability": "view",
      "type": "function"
    },
    {
      "constant": true,
      "inputs": [],
      "name": "getAdminUsersCount",
      "outputs": [
        {
          "name": "",
          "type": "uint256"
        }
      ],
      "payable": false,
      "stateMutability": "view",
      "type": "function"
    },
    {
      "constant": false,
      "inputs": [
        {
          "name": "account",
          "type": "address"
        }
      ],
      "name": "approveVendorAccount",
      "outputs": [
        {
          "name": "",
          "type": "bool"
        }
      ],
      "payable": false,
      "stateMutability": "nonpayable",
      "type": "function"
    },
    {
      "constant": true,
      "inputs": [
        {
          "name": "index",
          "type": "uint256"
        }
      ],
      "name": "getAdminUserByIndex",
      "outputs": [
        {
          "name": "",
          "type": "string"
        },
        {
          "name": "",
          "type": "uint256"
        },
        {
          "name": "",
          "type": "address"
        }
      ],
      "payable": false,
      "stateMutability": "view",
      "type": "function"
    },
    {
      "constant": true,
      "inputs": [
        {
          "name": "account",
          "type": "address"
        }
      ],
      "name": "getAdminUserByAddress",
      "outputs": [
        {
          "name": "",
          "type": "string"
        },
        {
          "name": "",
          "type": "uint256"
        },
        {
          "name": "",
          "type": "address"
        }
      ],
      "payable": false,
      "stateMutability": "view",
      "type": "function"
    },
    {
      "constant": true,
      "inputs": [],
      "name": "getUserRole",
      "outputs": [
        {
          "name": "",
          "type": "uint256"
        }
      ],
      "payable": false,
      "stateMutability": "view",
      "type": "function"
    }
  ],
  "bytecode": "0x60806040526200001764010000000062000069810204565b60408051808201909152600581527f4f776e6572000000000000000000000000000000000000000000000000000000602082015262000062903360006401000000006200007d810204565b506200041c565b60008054600160a060020a03191633179055565b60008054600160a060020a031633146200009657600080fd5b6000826005811115620000a557fe5b6005811115620000b157fe5b146200014457604080517f08c379a000000000000000000000000000000000000000000000000000000000815260206004820152602760248201527f544845205350454349464945442041444d494e20524f4c4520444f4553204e4f60448201527f5420455849535400000000000000000000000000000000000000000000000000606482015290519081900360840190fd5b6200015a84848464010000000062000162810204565b949350505050565b60008054600160a060020a031633146200017b57600080fd5b6080604051908101604052808581526020018360058111156200019a57fe5b6005811115620001a657fe5b8152600160a060020a03851660208083018290526001604093840181905260009283528152919020825180519192620001e59284929091019062000377565b50602082015160018083018054909160ff19909116908360058111156200020857fe5b021790555060408281015160019092018054606090940151151575010000000000000000000000000000000000000000000260a860020a60ff0219600160a060020a039094166101000261010060a860020a03199095169490941792909216929092179055805160808101909152848152600290602081018460058111156200028d57fe5b60058111156200029957fe5b8152600160a060020a03861660208083019190915260016040909201829052835491820180855560009485529381902083518051600290940290910192620002e5928492019062000377565b50602082015160018083018054909160ff19909116908360058111156200030857fe5b0217905550604082015160019182018054606090940151151575010000000000000000000000000000000000000000000260a860020a60ff0219600160a060020a039093166101000261010060a860020a03199095169490941791909116929092179091559150509392505050565b828054600181600116156101000203166002900490600052602060002090601f016020900481019282601f10620003ba57805160ff1916838001178555620003ea565b82800160010185558215620003ea579182015b82811115620003ea578251825591602001919060010190620003cd565b50620003f8929150620003fc565b5090565b6200041991905b80821115620003f8576000815560010162000403565b90565b6119f8806200042c6000396000f3006080604052600436106100c45763ffffffff7c01000000000000000000000000000000000000000000000000000000006000350416630666742981146100c957806306cfcb86146100f057806328617c7c1461026c578063340cffbe146100c95780633d0559631461035557806343defc101461036a578063540621431461038b57806358e99175146103f55780637f2669041461040d57806399dcec8514610422578063a93e999d14610443578063bb3fac14146104f3578063bf04a10d14610514575b600080fd5b3480156100d557600080fd5b506100de610529565b60408051918252519081900360200190f35b3480156100fc57600080fd5b50610108600435610546565b6040518080602001806020018060200186815260200185600160a060020a0316600160a060020a03168152602001848103845289818151815260200191508051906020019080838360005b8381101561016b578181015183820152602001610153565b50505050905090810190601f1680156101985780820380516001836020036101000a031916815260200191505b5084810383528851815288516020918201918a019080838360005b838110156101cb5781810151838201526020016101b3565b50505050905090810190601f1680156101f85780820380516001836020036101000a031916815260200191505b50848103825287518152875160209182019189019080838360005b8381101561022b578181015183820152602001610213565b50505050905090810190601f1680156102585780820380516001836020036101000a031916815260200191505b509850505050505050505060405180910390f35b34801561027857600080fd5b506040805160206004803580820135601f810184900484028501840190955284845261034194369492936024939284019190819084018382808284375050604080516020601f89358b018035918201839004830284018301909452808352979a99988101979196509182019450925082915084018382808284375050604080516020601f89358b018035918201839004830284018301909452808352979a9998810197919650918201945092508291508401838280828437509497506108269650505050505050565b604080519115158252519081900360200190f35b34801561036157600080fd5b506100de610a0a565b34801561037657600080fd5b50610108600160a060020a0360043516610a20565b34801561039757600080fd5b506040805160206004803580820135601f810184900484028501840190955284845261034194369492936024939284019190819084018382808284375094975050508335600160a060020a0316945050506020909101359050610b0f565b34801561040157600080fd5b50610108600435610bf1565b34801561041957600080fd5b506100de610cf5565b34801561042e57600080fd5b50610341600160a060020a0360043516610d21565b34801561044f57600080fd5b5061045b600435610dac565b604051808060200184815260200183600160a060020a0316600160a060020a03168152602001828103825285818151815260200191508051906020019080838360005b838110156104b657818101518382015260200161049e565b50505050905090810190601f1680156104e35780820380516001836020036101000a031916815260200191505b5094505050505060405180910390f35b3480156104ff57600080fd5b5061045b600160a060020a0360043516610f04565b34801561052057600080fd5b506100de610fff565b60045460009081101561053f5750600454610543565b5060005b90565b6060806060600080600480549050861015156105ac576040805160e560020a62461bcd02815260206004820152600d60248201527f496e76616c696420696e64657800000000000000000000000000000000000000604482015290519081900360640190fd5b60048054879081106105ba57fe5b90600052602060002090600702016000016004878154811015156105da57fe5b90600052602060002090600702016001016004888154811015156105fa57fe5b906000526020600020906007020160020160048981548110151561061a57fe5b600091825260209091206003600790920201015460ff16600181111561063c57fe5b600480548b90811061064a57fe5b600091825260209182902060079190910201600301548554604080516002610100600185161581026000190190941604601f810186900486028201860190925281815291909204600160a060020a031692909187918301828280156106f05780601f106106c5576101008083540402835291602001916106f0565b820191906000526020600020905b8154815290600101906020018083116106d357829003601f168201915b5050875460408051602060026001851615610100026000190190941693909304601f8101849004840282018401909252818152959a508994509250840190508282801561077e5780601f106107535761010080835404028352916020019161077e565b820191906000526020600020905b81548152906001019060200180831161076157829003601f168201915b5050865460408051602060026001851615610100026000190190941693909304601f81018490048402820184019092528181529599508894509250840190508282801561080c5780601f106107e15761010080835404028352916020019161080c565b820191906000526020600020905b8154815290600101906020018083116107ef57829003601f168201915b505050505092509450945094509450945091939590929450565b3360009081526003602081905260408220015460a860020a900460ff1615610898576040805160e560020a62461bcd02815260206004820152601560248201527f5245515545535420495320494e2050524f434553530000000000000000000000604482015290519081900360640190fd5b60408051610120810182528581526020810185905290810183905260608101600081523360208201526001604082015260045460608201526080016108db61109e565b815260046020918201523360009081526003825260409020825180519192610908928492909101906117cd565b50602082810151805161092192600185019201906117cd565b506040820151805161093d9160028401916020909101906117cd565b50606082015160038201805460ff19166001838181111561095a57fe5b0217905550608082015160038201805460a085015174ffffffffffffffffffffffffffffffffffffffff0019909116610100600160a060020a0390941684021760a860020a60ff02191660a860020a9115159190910217905560c0830151600483015560e0830151600580840191909155908301516006830180549192909160ff19169060019084908111156109ec57fe5b02179055509050506109ff8484846110a4565b506001949350505050565b60055460009081101561053f5750600554610543565b600160a060020a0381166000908152600360208190526040822001546060918291829190819060a860020a900460ff161515610a5b57600080fd5b600160a060020a038616600090815260036020819052604090912090810154600180830191600284019160ff90911690811115610a9457fe5b600160a060020a038a811660009081526003602081815260409283902090910154875483516002610100600184161581026000190190931604601f81018590048502820185019095528481529104909316929187918301828280156106f05780601f106106c5576101008083540402835291602001916106f0565b60008054600160a060020a03163314610b2757600080fd5b6001826005811115610b3557fe5b6005811115610b4057fe5b1480610b6257506002826005811115610b5557fe5b6005811115610b6057fe5b145b1515610bde576040805160e560020a62461bcd02815260206004820152602760248201527f544845205350454349464945442041444d494e20524f4c4520444f4553204e4f60448201527f5420455849535400000000000000000000000000000000000000000000000000606482015290519081900360840190fd5b610be9848484611224565b949350505050565b606080606060008060058054905086101515610c57576040805160e560020a62461bcd02815260206004820152600d60248201527f496e76616c696420696e64657800000000000000000000000000000000000000604482015290519081900360640190fd5b6005805487908110610c6557fe5b9060005260206000209060070201600001600587815481101515610c8557fe5b9060005260206000209060070201600101600588815481101515610ca557fe5b9060005260206000209060070201600201600589815481101515610cc557fe5b600091825260209091206003600790920201015460ff166001811115610ce757fe5b600580548b90811061064a57fe5b60008054600160a060020a03163314610d0d57600080fd5b6002546000101561053f5750600254610543565b600160a060020a03811660009081526003602081905260408220015460a860020a900460ff161515600114610d5557600080fd5b600160a060020a0382166000908152600360208190526040909120808201805460ff19908116600117909155600690910180549091169091179055610d9982611424565b50610da38261162d565b50600192915050565b60008054606091908190600160a060020a03163314610dca57600080fd5b6002548410610dd857600080fd5b6002805485908110610de657fe5b9060005260206000209060020201600001600285815481101515610e0657fe5b600091825260209091206001600290920201015460ff166005811115610e2857fe5b6002805487908110610e3657fe5b906000526020600020906002020160010160019054906101000a9004600160a060020a0316828054600181600116156101000203166002900480601f016020809104026020016040519081016040528092919081815260200182805460018160011615610100020316600290048015610ef05780601f10610ec557610100808354040283529160200191610ef0565b820191906000526020600020905b815481529060010190602001808311610ed357829003601f168201915b505050505092509250925092509193909250565b60008054606091908190600160a060020a03163314610f2257600080fd5b600160a060020a0384166000908152600160208190526040909120015460a860020a900460ff161515610f5457600080fd5b600160a060020a03841660009081526001602081905260409091209081015460ff166005811115610f8157fe5b600160a060020a038681166000908152600160208181526040928390208201548654845160026101009583161586026000190190921691909104601f81018490048402820184019095528481529290049093169290918591830182828015610ef05780601f10610ec557610100808354040283529160200191610ef0565b3360009081526003602081905260408220015460a860020a900460ff1615156001141561104e573360009081526003602052604090206006015460ff16600581111561104757fe5b9050610543565b33600090815260016020819052604090912081015460a860020a900460ff161515141561109757336000908152600160208190526040909120015460ff16600581111561104757fe5b6005611047565b60001990565b60006001600461012060405190810160405280878152602001868152602001858152602001600060018111156110d657fe5b81523360208201526001604082015260045460608201526080016110f861109e565b8152600460209182015282546001810180855560009485529382902083518051600790930290910192611130928492909101906117cd565b50602082810151805161114992600185019201906117cd565b50604082015180516111659160028401916020909101906117cd565b50606082015160038201805460ff19166001838181111561118257fe5b0217905550608082015160038201805460a085015174ffffffffffffffffffffffffffffffffffffffff0019909116610100600160a060020a0390941684021760a860020a60ff02191660a860020a9115159190910217905560c0830151600483015560e0830151600580840191909155908301516006830180549192909160ff191690600190849081111561121457fe5b0217905550505050509392505050565b60008054600160a060020a0316331461123c57600080fd5b60806040519081016040528085815260200183600581111561125a57fe5b600581111561126557fe5b8152600160a060020a038516602080830182905260016040938401819052600092835281529190208251805191926112a2928492909101906117cd565b50602082015160018083018054909160ff19909116908360058111156112c457fe5b021790555060408281015160019092018054606090940151151560a860020a0260a860020a60ff0219600160a060020a039094166101000274ffffffffffffffffffffffffffffffffffffffff001990951694909417929092169290921790558051608081019091528481526002906020810184600581111561134357fe5b600581111561134e57fe5b8152600160a060020a0386166020808301919091526001604090920182905283549182018085556000948552938190208351805160029094029091019261139892849201906117cd565b50602082015160018083018054909160ff19909116908360058111156113ba57fe5b0217905550604082015160019182018054606090940151151560a860020a0260a860020a60ff0219600160a060020a039093166101000274ffffffffffffffffffffffffffffffffffffffff00199095169490941791909116929092179091559150509392505050565b600160a060020a0381166000908152600360205260408120600401546000191261144d57600080fd5b60048054600019810190811061145f57fe5b906000526020600020906007020160046003600085600160a060020a0316600160a060020a03168152602001908152602001600020600401548154811015156114a457fe5b9060005260206000209060070201600082018160000190805460018160011615610100020316600290046114d992919061184b565b506001820181600101908054600181600116156101000203166002900461150192919061184b565b506002828101805461152692848101929160001961010060018316150201160461184b565b50600382810154908201805460ff9092169160ff19166001838181111561154957fe5b021790555060038281018054918301805474ffffffffffffffffffffffffffffffffffffffff00191661010093849004600160a060020a031690930292909217808355905460a860020a60ff021990911660a860020a9182900460ff9081161515909202179091556004808401549083015560058084015481840155600680850154908401805491909316929160ff199091169060019084908111156115eb57fe5b02179055509050506115fb61109e565b600160a060020a0383166000908152600360205260409020600490810191909155805490610da39060001983016118c0565b60058054600160a060020a038316600090815260036020526040812080840183905560018084018086559483528154929493919260079092027f036b6384b5eca791c62761152d0c79bb0604c104a5fb6f4eb0703f3154bb3db001916116ab918391859160026101009183161591909102600019019091160461184b565b50600182018160010190805460018160011615610100020316600290046116d392919061184b565b50600282810180546116f892848101929160001961010060018316150201160461184b565b50600382810154908201805460ff9092169160ff19166001838181111561171b57fe5b021790555060038281018054918301805474ffffffffffffffffffffffffffffffffffffffff00191661010093849004600160a060020a031690930292909217808355905460a860020a60ff021990911660a860020a9182900460ff9081161515909202179091556004808401549083015560058084015481840155600680850154908401805491909316929160ff199091169060019084908111156117bd57fe5b0217905550600195945050505050565b828054600181600116156101000203166002900490600052602060002090601f016020900481019282601f1061180e57805160ff191683800117855561183b565b8280016001018555821561183b579182015b8281111561183b578251825591602001919060010190611820565b506118479291506118f1565b5090565b828054600181600116156101000203166002900490600052602060002090601f016020900481019282601f10611884578054855561183b565b8280016001018555821561183b57600052602060002091601f016020900482015b8281111561183b5782548255916001019190600101906118a5565b8154818355818111156118ec576007028160070283600052602060002091820191016118ec919061190b565b505050565b61054391905b8082111561184757600081556001016118f7565b61054391905b808211156118475760006119258282611985565b611933600183016000611985565b611941600283016000611985565b5060038101805475ffffffffffffffffffffffffffffffffffffffffffff19169055600060048201819055600582015560068101805460ff19169055600701611911565b50805460018160011615610100020316600290046000825580601f106119ab57506119c9565b601f0160209004906000526020600020908101906119c991906118f1565b505600a165627a7a7230582016a5fbc641b24aebcfb76a55f478c264926d8952d025a89587c1089d9c775f340029",
  "source": "pragma solidity ^0.4.18;\nimport \"./Ownerble.sol\";\nimport \"./VendorManager.sol\";\nimport \"./AdminUserManager.sol\";\n\ncontract UserManager is Ownerble, AdminUserManager, VendorManager {\n    \n    \n    function getUserRole() public view returns(uint) {\n        \n        if(vendors[msg.sender].isVendorOrApplicant == true) {\n            return uint(AppRole(vendors[msg.sender].role));\n        }\n        else if(adminstratorAccounts[msg.sender].isAdmin == true) {\n             return uint(AppRole(adminstratorAccounts[msg.sender].role));\n        }else {\n            return uint(AppRole.Customer);\n        }\n    }\n    \n    \n}",
  "sourcePath": "/Users/yusufkelo/Documents/DEVELOPER/ETHEREAUM/blockchain-market/market-place/contracts/UserManager.sol",
  "compiler": {
    "name": "solc",
    "version": "0.4.24+commit.e67f0147.Emscripten.clang"
  },
  "schemaVersion": "2.0.0",
  "updatedAt": "2018-08-03T21:31:12.618Z"
}