{
  "contractName": "UserManager",
  "abi": [
    {
      "constant": true,
      "inputs": [],
      "name": "getPendingVendors",
      "outputs": [
        {
          "name": "",
          "type": "uint256"
        }
      ],
      "payable": false,
      "stateMutability": "view",
      "type": "function"
    },
    {
      "constant": true,
      "inputs": [
        {
          "name": "index",
          "type": "uint256"
        }
      ],
      "name": "getPendingVendorByIndex",
      "outputs": [
        {
          "name": "",
          "type": "string"
        },
        {
          "name": "",
          "type": "string"
        },
        {
          "name": "",
          "type": "string"
        },
        {
          "name": "",
          "type": "uint256"
        },
        {
          "name": "",
          "type": "address"
        }
      ],
      "payable": false,
      "stateMutability": "view",
      "type": "function"
    },
    {
      "constant": false,
      "inputs": [
        {
          "name": "_name",
          "type": "string"
        },
        {
          "name": "_email",
          "type": "string"
        },
        {
          "name": "_phone",
          "type": "string"
        }
      ],
      "name": "requestVendorAccount",
      "outputs": [
        {
          "name": "",
          "type": "bool"
        }
      ],
      "payable": false,
      "stateMutability": "nonpayable",
      "type": "function"
    },
    {
      "constant": true,
      "inputs": [],
      "name": "getPendingVendorsCount",
      "outputs": [
        {
          "name": "",
          "type": "uint256"
        }
      ],
      "payable": false,
      "stateMutability": "view",
      "type": "function"
    },
    {
      "constant": true,
      "inputs": [],
      "name": "getApprovedVendorsCount",
      "outputs": [
        {
          "name": "",
          "type": "uint256"
        }
      ],
      "payable": false,
      "stateMutability": "view",
      "type": "function"
    },
    {
      "constant": true,
      "inputs": [
        {
          "name": "account",
          "type": "address"
        }
      ],
      "name": "getVendorByAddress",
      "outputs": [
        {
          "name": "",
          "type": "string"
        },
        {
          "name": "",
          "type": "string"
        },
        {
          "name": "",
          "type": "string"
        },
        {
          "name": "",
          "type": "uint256"
        },
        {
          "name": "",
          "type": "address"
        }
      ],
      "payable": false,
      "stateMutability": "view",
      "type": "function"
    },
    {
      "constant": false,
      "inputs": [
        {
          "name": "name",
          "type": "string"
        },
        {
          "name": "account",
          "type": "address"
        },
        {
          "name": "role",
          "type": "uint256"
        }
      ],
      "name": "createAdminUser",
      "outputs": [
        {
          "name": "",
          "type": "bool"
        }
      ],
      "payable": false,
      "stateMutability": "nonpayable",
      "type": "function"
    },
    {
      "constant": true,
      "inputs": [
        {
          "name": "index",
          "type": "uint256"
        }
      ],
      "name": "getApprovedVendorByIndex",
      "outputs": [
        {
          "name": "",
          "type": "string"
        },
        {
          "name": "",
          "type": "string"
        },
        {
          "name": "",
          "type": "string"
        },
        {
          "name": "",
          "type": "uint256"
        },
        {
          "name": "",
          "type": "address"
        }
      ],
      "payable": false,
      "stateMutability": "view",
      "type": "function"
    },
    {
      "constant": true,
      "inputs": [],
      "name": "getVendorBalance",
      "outputs": [
        {
          "name": "",
          "type": "uint256"
        }
      ],
      "payable": false,
      "stateMutability": "view",
      "type": "function"
    },
    {
      "constant": true,
      "inputs": [],
      "name": "getAdminUsersCount",
      "outputs": [
        {
          "name": "",
          "type": "uint256"
        }
      ],
      "payable": false,
      "stateMutability": "view",
      "type": "function"
    },
    {
      "constant": false,
      "inputs": [
        {
          "name": "account",
          "type": "address"
        }
      ],
      "name": "approveVendorAccount",
      "outputs": [
        {
          "name": "",
          "type": "bool"
        }
      ],
      "payable": false,
      "stateMutability": "nonpayable",
      "type": "function"
    },
    {
      "constant": true,
      "inputs": [
        {
          "name": "index",
          "type": "uint256"
        }
      ],
      "name": "getAdminUserByIndex",
      "outputs": [
        {
          "name": "",
          "type": "string"
        },
        {
          "name": "",
          "type": "uint256"
        },
        {
          "name": "",
          "type": "address"
        }
      ],
      "payable": false,
      "stateMutability": "view",
      "type": "function"
    },
    {
      "constant": true,
      "inputs": [
        {
          "name": "account",
          "type": "address"
        }
      ],
      "name": "getAdminUserByAddress",
      "outputs": [
        {
          "name": "",
          "type": "string"
        },
        {
          "name": "",
          "type": "uint256"
        },
        {
          "name": "",
          "type": "address"
        }
      ],
      "payable": false,
      "stateMutability": "view",
      "type": "function"
    },
    {
      "anonymous": false,
      "inputs": [
        {
          "indexed": false,
          "name": "status",
          "type": "bool"
        }
      ],
      "name": "VendorAccountRequested",
      "type": "event"
    },
    {
      "anonymous": false,
      "inputs": [
        {
          "indexed": false,
          "name": "status",
          "type": "bool"
        }
      ],
      "name": "VendorAccountApproved",
      "type": "event"
    },
    {
      "anonymous": false,
      "inputs": [
        {
          "indexed": false,
          "name": "name",
          "type": "string"
        }
      ],
      "name": "UserCreated",
      "type": "event"
    },
    {
      "constant": true,
      "inputs": [],
      "name": "getUserRole",
      "outputs": [
        {
          "name": "",
          "type": "uint256"
        }
      ],
      "payable": false,
      "stateMutability": "view",
      "type": "function"
    }
  ],
  "bytecode": "0x60806040526200001764010000000062000069810204565b60408051808201909152600581527f4f776e6572000000000000000000000000000000000000000000000000000000602082015262000062903360006401000000006200007d810204565b50620004b5565b60008054600160a060020a03191633179055565b60008054600160a060020a031633146200009657600080fd5b6000826005811115620000a557fe5b6005811115620000b157fe5b146200014457604080517f08c379a000000000000000000000000000000000000000000000000000000000815260206004820152602760248201527f544845205350454349464945442041444d494e20524f4c4520444f4553204e4f60448201527f5420455849535400000000000000000000000000000000000000000000000000606482015290519081900360840190fd5b6200015a84848464010000000062000162810204565b949350505050565b60008054600160a060020a031633146200017b57600080fd5b6080604051908101604052808581526020018360058111156200019a57fe5b6005811115620001a657fe5b8152600160a060020a03851660208083018290526001604093840181905260009283528152919020825180519192620001e59284929091019062000410565b50602082015160018083018054909160ff19909116908360058111156200020857fe5b021790555060408281015160019092018054606090940151151575010000000000000000000000000000000000000000000260a860020a60ff0219600160a060020a039094166101000261010060a860020a03199095169490941792909216929092179055805160808101909152848152600290602081018460058111156200028d57fe5b60058111156200029957fe5b8152600160a060020a03861660208083019190915260016040909201829052835491820180855560009485529381902083518051600290940290910192620002e5928492019062000410565b50602082015160018083018054909160ff19909116908360058111156200030857fe5b021790555060408281015160019092018054606090940151151575010000000000000000000000000000000000000000000260a860020a60ff0219600160a060020a039094166101000261010060a860020a031990951694909417929092169290921790558051602080825287518183015287517f56b0a2dda7952cd07f438433182565929ba3aba4c3404a7d29a0840ac6284da4945088938392908301919085019080838360005b83811015620003cb578181015183820152602001620003b1565b50505050905090810190601f168015620003f95780820380516001836020036101000a031916815260200191505b509250505060405180910390a15060019392505050565b828054600181600116156101000203166002900490600052602060002090601f016020900481019282601f106200045357805160ff191683800117855562000483565b8280016001018555821562000483579182015b828111156200048357825182559160200191906001019062000466565b506200049192915062000495565b5090565b620004b291905b808211156200049157600081556001016200049c565b90565b611be180620004c56000396000f3006080604052600436106100cf5763ffffffff7c01000000000000000000000000000000000000000000000000000000006000350416630666742981146100d457806306cfcb86146100fb57806328617c7c14610277578063340cffbe146100d45780633d0559631461036057806343defc1014610375578063540621431461039657806358e99175146104005780636e91c6b8146104185780637f2669041461042d57806399dcec8514610442578063a93e999d14610463578063bb3fac1414610513578063bf04a10d14610534575b600080fd5b3480156100e057600080fd5b506100e9610549565b60408051918252519081900360200190f35b34801561010757600080fd5b50610113600435610566565b6040518080602001806020018060200186815260200185600160a060020a0316600160a060020a03168152602001848103845289818151815260200191508051906020019080838360005b8381101561017657818101518382015260200161015e565b50505050905090810190601f1680156101a35780820380516001836020036101000a031916815260200191505b5084810383528851815288516020918201918a019080838360005b838110156101d65781810151838201526020016101be565b50505050905090810190601f1680156102035780820380516001836020036101000a031916815260200191505b50848103825287518152875160209182019189019080838360005b8381101561023657818101518382015260200161021e565b50505050905090810190601f1680156102635780820380516001836020036101000a031916815260200191505b509850505050505050505060405180910390f35b34801561028357600080fd5b506040805160206004803580820135601f810184900484028501840190955284845261034c94369492936024939284019190819084018382808284375050604080516020601f89358b018035918201839004830284018301909452808352979a99988101979196509182019450925082915084018382808284375050604080516020601f89358b018035918201839004830284018301909452808352979a9998810197919650918201945092508291508401838280828437509497506108469650505050505050565b604080519115158252519081900360200190f35b34801561036c57600080fd5b506100e9610a6f565b34801561038157600080fd5b50610113600160a060020a0360043516610a85565b3480156103a257600080fd5b506040805160206004803580820135601f810184900484028501840190955284845261034c94369492936024939284019190819084018382808284375094975050508335600160a060020a0316945050506020909101359050610b74565b34801561040c57600080fd5b50610113600435610c56565b34801561042457600080fd5b506100e9610d5a565b34801561043957600080fd5b506100e9610d9e565b34801561044e57600080fd5b5061034c600160a060020a0360043516610dca565b34801561046f57600080fd5b5061047b600435610ea2565b604051808060200184815260200183600160a060020a0316600160a060020a03168152602001828103825285818151815260200191508051906020019080838360005b838110156104d65781810151838201526020016104be565b50505050905090810190601f1680156105035780820380516001836020036101000a031916815260200191505b5094505050505060405180910390f35b34801561051f57600080fd5b5061047b600160a060020a0360043516610ffa565b34801561054057600080fd5b506100e96110f5565b60045460009081101561055f5750600454610563565b5060005b90565b6060806060600080600480549050861015156105cc576040805160e560020a62461bcd02815260206004820152600d60248201527f496e76616c696420696e64657800000000000000000000000000000000000000604482015290519081900360640190fd5b60048054879081106105da57fe5b90600052602060002090600802016000016004878154811015156105fa57fe5b906000526020600020906008020160010160048881548110151561061a57fe5b906000526020600020906008020160020160048981548110151561063a57fe5b600091825260209091206003600890920201015460ff16600181111561065c57fe5b600480548b90811061066a57fe5b600091825260209182902060089190910201600301548554604080516002610100600185161581026000190190941604601f810186900486028201860190925281815291909204600160a060020a031692909187918301828280156107105780601f106106e557610100808354040283529160200191610710565b820191906000526020600020905b8154815290600101906020018083116106f357829003601f168201915b5050875460408051602060026001851615610100026000190190941693909304601f8101849004840282018401909252818152959a508994509250840190508282801561079e5780601f106107735761010080835404028352916020019161079e565b820191906000526020600020905b81548152906001019060200180831161078157829003601f168201915b5050865460408051602060026001851615610100026000190190941693909304601f81018490048402820184019092528181529599508894509250840190508282801561082c5780601f106108015761010080835404028352916020019161082c565b820191906000526020600020905b81548152906001019060200180831161080f57829003601f168201915b505050505092509450945094509450945091939590929450565b3360009081526003602081905260408220015460a860020a900460ff16156108b8576040805160e560020a62461bcd02815260206004820152601560248201527f5245515545535420495320494e2050524f434553530000000000000000000000604482015290519081900360640190fd5b60408051610140810182528581526020810185905290810183905260608101600081523360208201526001604082015260045460608201526080016108fb611194565b81526020016004815260006020918201819052338152600382526040902082518051919261092e928492909101906119af565b50602082810151805161094792600185019201906119af565b50604082015180516109639160028401916020909101906119af565b50606082015160038201805460ff19166001838181111561098057fe5b0217905550608082015160038201805460a085015174ffffffffffffffffffffffffffffffffffffffff0019909116610100600160a060020a0390941684021760a860020a60ff02191660a860020a9115159190910217905560c0830151600483015560e0830151600580840191909155908301516006830180549192909160ff1916906001908490811115610a1257fe5b02179055506101208201518160070155905050610a3084848461119a565b50604080516001815290517fd249fc9da5140e2e7baacc07add09262bad65b9822b19b86dcece6e652e015519181900360200190a15060019392505050565b60055460009081101561055f5750600554610563565b600160a060020a0381166000908152600360208190526040822001546060918291829190819060a860020a900460ff161515610ac057600080fd5b600160a060020a038616600090815260036020819052604090912090810154600180830191600284019160ff90911690811115610af957fe5b600160a060020a038a811660009081526003602081815260409283902090910154875483516002610100600184161581026000190190931604601f81018590048502820185019095528481529104909316929187918301828280156107105780601f106106e557610100808354040283529160200191610710565b60008054600160a060020a03163314610b8c57600080fd5b6001826005811115610b9a57fe5b6005811115610ba557fe5b1480610bc757506002826005811115610bba57fe5b6005811115610bc557fe5b145b1515610c43576040805160e560020a62461bcd02815260206004820152602760248201527f544845205350454349464945442041444d494e20524f4c4520444f4553204e4f60448201527f5420455849535400000000000000000000000000000000000000000000000000606482015290519081900360840190fd5b610c4e84848461132c565b949350505050565b606080606060008060058054905086101515610cbc576040805160e560020a62461bcd02815260206004820152600d60248201527f496e76616c696420696e64657800000000000000000000000000000000000000604482015290519081900360640190fd5b6005805487908110610cca57fe5b9060005260206000209060080201600001600587815481101515610cea57fe5b9060005260206000209060080201600101600588815481101515610d0a57fe5b9060005260206000209060080201600201600589815481101515610d2a57fe5b600091825260209091206003600890920201015460ff166001811115610d4c57fe5b600580548b90811061066a57fe5b3360009081526003602081905260408220015460019060ff1681811115610d7d57fe5b14610d8757600080fd5b503360009081526003602052604090206007015490565b60008054600160a060020a03163314610db657600080fd5b6002546000101561055f5750600254610563565b60008054600160a060020a03163314610de257600080fd5b600160a060020a0382166000908152600360208190526040909120015460a860020a900460ff161515600114610e1757600080fd5b600160a060020a0382166000908152600360208190526040909120808201805460ff19908116600117909155600690910180549091169091179055610e5b826115c2565b50610e65826117da565b50604080516001815290517fe3e79272c9f952f960a5911aee0622f58aedfcfe35abc490183d5e96a84cbae19181900360200190a1506001919050565b60008054606091908190600160a060020a03163314610ec057600080fd5b6002548410610ece57600080fd5b6002805485908110610edc57fe5b9060005260206000209060020201600001600285815481101515610efc57fe5b600091825260209091206001600290920201015460ff166005811115610f1e57fe5b6002805487908110610f2c57fe5b906000526020600020906002020160010160019054906101000a9004600160a060020a0316828054600181600116156101000203166002900480601f016020809104026020016040519081016040528092919081815260200182805460018160011615610100020316600290048015610fe65780601f10610fbb57610100808354040283529160200191610fe6565b820191906000526020600020905b815481529060010190602001808311610fc957829003601f168201915b505050505092509250925092509193909250565b60008054606091908190600160a060020a0316331461101857600080fd5b600160a060020a0384166000908152600160208190526040909120015460a860020a900460ff16151561104a57600080fd5b600160a060020a03841660009081526001602081905260409091209081015460ff16600581111561107757fe5b600160a060020a038681166000908152600160208181526040928390208201548654845160026101009583161586026000190190921691909104601f81018490048402820184019095528481529290049093169290918591830182828015610fe65780601f10610fbb57610100808354040283529160200191610fe6565b3360009081526003602081905260408220015460a860020a900460ff16151560011415611144573360009081526003602052604090206006015460ff16600581111561113d57fe5b9050610563565b33600090815260016020819052604090912081015460a860020a900460ff161515141561118d57336000908152600160208190526040909120015460ff16600581111561113d57fe5b600561113d565b60001990565b60006001600461014060405190810160405280878152602001868152602001858152602001600060018111156111cc57fe5b81523360208201526001604082015260045460608201526080016111ee611194565b81526020016004815260006020918201819052835460018101808655948252908290208351805160089093029091019261122d928492909101906119af565b50602082810151805161124692600185019201906119af565b50604082015180516112629160028401916020909101906119af565b50606082015160038201805460ff19166001838181111561127f57fe5b0217905550608082015160038201805460a085015174ffffffffffffffffffffffffffffffffffffffff0019909116610100600160a060020a0390941684021760a860020a60ff02191660a860020a9115159190910217905560c0830151600483015560e0830151600580840191909155908301516006830180549192909160ff191690600190849081111561131157fe5b02179055506101208201518160070155505050509392505050565b60008054600160a060020a0316331461134457600080fd5b60806040519081016040528085815260200183600581111561136257fe5b600581111561136d57fe5b8152600160a060020a038516602080830182905260016040938401819052600092835281529190208251805191926113aa928492909101906119af565b50602082015160018083018054909160ff19909116908360058111156113cc57fe5b021790555060408281015160019092018054606090940151151560a860020a0260a860020a60ff0219600160a060020a039094166101000274ffffffffffffffffffffffffffffffffffffffff001990951694909417929092169290921790558051608081019091528481526002906020810184600581111561144b57fe5b600581111561145657fe5b8152600160a060020a038616602080830191909152600160409092018290528354918201808555600094855293819020835180516002909402909101926114a092849201906119af565b50602082015160018083018054909160ff19909116908360058111156114c257fe5b021790555060408281015160019092018054606090940151151560a860020a0260a860020a60ff0219600160a060020a039094166101000274ffffffffffffffffffffffffffffffffffffffff001990951694909417929092169290921790558051602080825287518183015287517f56b0a2dda7952cd07f438433182565929ba3aba4c3404a7d29a0840ac6284da4945088938392908301919085019080838360005b8381101561157e578181015183820152602001611566565b50505050905090810190601f1680156115ab5780820380516001836020036101000a031916815260200191505b509250505060405180910390a15060019392505050565b600160a060020a038116600090815260036020526040812060040154600019126115eb57600080fd5b6004805460001981019081106115fd57fe5b906000526020600020906008020160046003600085600160a060020a0316600160a060020a031681526020019081526020016000206004015481548110151561164257fe5b906000526020600020906008020160008201816000019080546001816001161561010002031660029004611677929190611a2d565b506001820181600101908054600181600116156101000203166002900461169f929190611a2d565b50600282810180546116c4928481019291600019610100600183161502011604611a2d565b50600382810154908201805460ff9092169160ff1916600183818111156116e757fe5b021790555060038281018054918301805474ffffffffffffffffffffffffffffffffffffffff00191661010093849004600160a060020a031690930292909217808355905460a860020a60ff021990911660a860020a9182900460ff9081161515909202179091556004808401549083015560058084015481840155600680850154908401805491909316929160ff1990911690600190849081111561178957fe5b021790555060079182015491015561179f611194565b600160a060020a03831660009081526003602052604090206004908101919091558054906117d1906000198301611aa2565b50600192915050565b600160a060020a03811660009081526003602081905260408220015460a860020a900460ff16151560011461180e57600080fd5b60058054600160a060020a0384166000908152600360205260408120808401839055600180840180865594909252805490926008027f036b6384b5eca791c62761152d0c79bb0604c104a5fb6f4eb0703f3154bb3db00191611886918391859160026101009282161592909202600019011604611a2d565b50600182018160010190805460018160011615610100020316600290046118ae929190611a2d565b50600282810180546118d3928481019291600019610100600183161502011604611a2d565b50600382810154908201805460ff9092169160ff1916600183818111156118f657fe5b021790555060038281018054918301805474ffffffffffffffffffffffffffffffffffffffff00191661010093849004600160a060020a031690930292909217808355905460a860020a60ff021990911660a860020a9182900460ff9081161515909202179091556004808401549083015560058084015481840155600680850154908401805491909316929160ff1990911690600190849081111561199857fe5b021790555060079182015491015550600192915050565b828054600181600116156101000203166002900490600052602060002090601f016020900481019282601f106119f057805160ff1916838001178555611a1d565b82800160010185558215611a1d579182015b82811115611a1d578251825591602001919060010190611a02565b50611a29929150611ad3565b5090565b828054600181600116156101000203166002900490600052602060002090601f016020900481019282601f10611a665780548555611a1d565b82800160010185558215611a1d57600052602060002091601f016020900482015b82811115611a1d578254825591600101919060010190611a87565b815481835581811115611ace57600802816008028360005260206000209182019101611ace9190611aed565b505050565b61056391905b80821115611a295760008155600101611ad9565b61056391905b80821115611a29576000611b078282611b6e565b611b15600183016000611b6e565b611b23600283016000611b6e565b5060038101805475ffffffffffffffffffffffffffffffffffffffffffff191690556000600482018190556005820181905560068201805460ff191690556007820155600801611af3565b50805460018160011615610100020316600290046000825580601f10611b945750611bb2565b601f016020900490600052602060002090810190611bb29190611ad3565b505600a165627a7a72305820d53dc54c7f3845a83022291cc946e17785955ef1ed034357c9d8e7ade4c5dca80029",
  "source": "pragma solidity 0.4.24;\nimport \"./Ownerble.sol\";\nimport \"./VendorManager.sol\";\nimport \"./AdminUserManager.sol\";\n\n/**@title managers users inherits Ownerble, AdminUserManager, VendorManager */\ncontract UserManager is Ownerble, AdminUserManager, VendorManager {\n    \n    /**\n            * @dev  RETURNS USER ROLE\n            * @return uint user role \n            */\n    function getUserRole() public view returns(uint) {\n        \n        if(vendors[msg.sender].isVendorOrApplicant == true) {\n            return uint(AppRole(vendors[msg.sender].role));\n        }\n        else if(adminstratorAccounts[msg.sender].isAdmin == true) {\n             return uint(AppRole(adminstratorAccounts[msg.sender].role));\n        }else {\n            return uint(AppRole.Customer);\n        }\n    }\n    \n    \n}",
  "sourcePath": "/Users/yusufkelo/Documents/DEVELOPER/ETHEREAUM/blockchain-market/market-place/contracts/UserManager.sol",
  "compiler": {
    "name": "solc",
    "version": "0.4.24+commit.e67f0147.Emscripten.clang"
  },
  "schemaVersion": "2.0.0",
  "updatedAt": "2018-08-27T18:06:05.727Z"
}