{
  "contractName": "VendorManager",
  "abi": [
    {
      "constant": true,
      "inputs": [],
      "name": "getPendingVendorsCount",
      "outputs": [
        {
          "name": "",
          "type": "uint256"
        }
      ],
      "payable": false,
      "stateMutability": "view",
      "type": "function"
    },
    {
      "constant": true,
      "inputs": [],
      "name": "getApprovedVendorsCount",
      "outputs": [
        {
          "name": "",
          "type": "uint256"
        }
      ],
      "payable": false,
      "stateMutability": "view",
      "type": "function"
    },
    {
      "constant": true,
      "inputs": [],
      "name": "getPendingVendors",
      "outputs": [
        {
          "name": "",
          "type": "uint256"
        }
      ],
      "payable": false,
      "stateMutability": "view",
      "type": "function"
    },
    {
      "constant": true,
      "inputs": [
        {
          "name": "index",
          "type": "uint256"
        }
      ],
      "name": "getApprovedVendorByIndex",
      "outputs": [
        {
          "name": "",
          "type": "string"
        },
        {
          "name": "",
          "type": "string"
        },
        {
          "name": "",
          "type": "string"
        },
        {
          "name": "",
          "type": "uint256"
        },
        {
          "name": "",
          "type": "address"
        }
      ],
      "payable": false,
      "stateMutability": "view",
      "type": "function"
    },
    {
      "constant": true,
      "inputs": [
        {
          "name": "index",
          "type": "uint256"
        }
      ],
      "name": "getPendingVendorByIndex",
      "outputs": [
        {
          "name": "",
          "type": "string"
        },
        {
          "name": "",
          "type": "string"
        },
        {
          "name": "",
          "type": "string"
        },
        {
          "name": "",
          "type": "uint256"
        },
        {
          "name": "",
          "type": "address"
        }
      ],
      "payable": false,
      "stateMutability": "view",
      "type": "function"
    },
    {
      "constant": true,
      "inputs": [
        {
          "name": "account",
          "type": "address"
        }
      ],
      "name": "getVendorByAddress",
      "outputs": [
        {
          "name": "",
          "type": "string"
        },
        {
          "name": "",
          "type": "string"
        },
        {
          "name": "",
          "type": "string"
        },
        {
          "name": "",
          "type": "uint256"
        },
        {
          "name": "",
          "type": "address"
        }
      ],
      "payable": false,
      "stateMutability": "view",
      "type": "function"
    },
    {
      "constant": false,
      "inputs": [
        {
          "name": "_name",
          "type": "string"
        },
        {
          "name": "_email",
          "type": "string"
        },
        {
          "name": "_phone",
          "type": "string"
        }
      ],
      "name": "requestVendorAccount",
      "outputs": [
        {
          "name": "",
          "type": "bool"
        }
      ],
      "payable": false,
      "stateMutability": "nonpayable",
      "type": "function"
    },
    {
      "constant": false,
      "inputs": [
        {
          "name": "account",
          "type": "address"
        }
      ],
      "name": "approveVendorAccount",
      "outputs": [
        {
          "name": "",
          "type": "bool"
        }
      ],
      "payable": false,
      "stateMutability": "nonpayable",
      "type": "function"
    }
  ],
  "bytecode": "0x608060405261001564010000000061001a810204565b61002e565b60008054600160a060020a03191633179055565b6113148061003d6000396000f30060806040526004361061008d5763ffffffff7c010000000000000000000000000000000000000000000000000000000060003504166306667429811461009257806306cfcb86146100b957806328617c7c14610235578063340cffbe146100925780633d0559631461031e57806343defc101461033357806358e991751461035457806399dcec851461036c575b600080fd5b34801561009e57600080fd5b506100a761038d565b60408051918252519081900360200190f35b3480156100c557600080fd5b506100d16004356103aa565b6040518080602001806020018060200186815260200185600160a060020a0316600160a060020a03168152602001848103845289818151815260200191508051906020019080838360005b8381101561013457818101518382015260200161011c565b50505050905090810190601f1680156101615780820380516001836020036101000a031916815260200191505b5084810383528851815288516020918201918a019080838360005b8381101561019457818101518382015260200161017c565b50505050905090810190601f1680156101c15780820380516001836020036101000a031916815260200191505b50848103825287518152875160209182019189019080838360005b838110156101f45781810151838201526020016101dc565b50505050905090810190601f1680156102215780820380516001836020036101000a031916815260200191505b509850505050505050505060405180910390f35b34801561024157600080fd5b506040805160206004803580820135601f810184900484028501840190955284845261030a94369492936024939284019190819084018382808284375050604080516020601f89358b018035918201839004830284018301909452808352979a99988101979196509182019450925082915084018382808284375050604080516020601f89358b018035918201839004830284018301909452808352979a9998810197919650918201945092508291508401838280828437509497506106a19650505050505050565b604080519115158252519081900360200190f35b34801561032a57600080fd5b506100a76108bc565b34801561033f57600080fd5b506100d1600160a060020a03600435166108d2565b34801561036057600080fd5b506100d16004356109c6565b34801561037857600080fd5b5061030a600160a060020a0360043516610ae1565b6002546000908110156103a357506002546103a7565b5060005b90565b60608060606000806002805490508610151561042757604080517f08c379a000000000000000000000000000000000000000000000000000000000815260206004820152600d60248201527f496e76616c696420696e64657800000000000000000000000000000000000000604482015290519081900360640190fd5b600280548790811061043557fe5b906000526020600020906008020160000160028781548110151561045557fe5b906000526020600020906008020160010160028881548110151561047557fe5b906000526020600020906008020160020160028981548110151561049557fe5b600091825260209091206003600890920201015460ff1660018111156104b757fe5b600280548b9081106104c557fe5b600091825260209182902060089190910201600301548554604080516002610100600185161581026000190190941604601f810186900486028201860190925281815291909204600160a060020a0316929091879183018282801561056b5780601f106105405761010080835404028352916020019161056b565b820191906000526020600020905b81548152906001019060200180831161054e57829003601f168201915b5050875460408051602060026001851615610100026000190190941693909304601f8101849004840282018401909252818152959a50899450925084019050828280156105f95780601f106105ce576101008083540402835291602001916105f9565b820191906000526020600020905b8154815290600101906020018083116105dc57829003601f168201915b5050865460408051602060026001851615610100026000190190941693909304601f8101849004840282018401909252818152959950889450925084019050828280156106875780601f1061065c57610100808354040283529160200191610687565b820191906000526020600020905b81548152906001019060200180831161066a57829003601f168201915b505050505092509450945094509450945091939590929450565b3360009081526001602052604081206003015460a860020a900460ff161561072a57604080517f08c379a000000000000000000000000000000000000000000000000000000000815260206004820152601560248201527f5245515545535420495320494e2050524f434553530000000000000000000000604482015290519081900360640190fd5b604080516101408101825285815260208101859052908101839052606081016000815233602082015260016040820152600254606082015260800161076d610b6b565b8152602001600481526000602091820181905233815260018252604090208251805191926107a0928492909101906110e2565b5060208281015180516107b992600185019201906110e2565b50604082015180516107d59160028401916020909101906110e2565b50606082015160038201805460ff1916600183818111156107f257fe5b0217905550608082015160038201805460a085015174ffffffffffffffffffffffffffffffffffffffff0019909116610100600160a060020a0390941684021775ff000000000000000000000000000000000000000000191660a860020a9115159190910217905560c0830151600483015560e0830151600580840191909155908301516006830180549192909160ff191690600190849081111561089357fe5b021790555061012082015181600701559050506108b1848484610b71565b506001949350505050565b6003546000908110156103a357506003546103a7565b600160a060020a0381166000908152600160205260408120600301546060918291829190819060a860020a900460ff16151561090d57600080fd5b600160a060020a03861660009081526001602081905260409091206003810154909182810191600284019160ff9091169081111561094757fe5b600160a060020a038a8116600090815260016020818152604092839020600301548854845160026101009583161586026000190190921691909104601f8101849004840282018401909552848152929004909316929091879183018282801561056b5780601f106105405761010080835404028352916020019161056b565b606080606060008060038054905086101515610a4357604080517f08c379a000000000000000000000000000000000000000000000000000000000815260206004820152600d60248201527f496e76616c696420696e64657800000000000000000000000000000000000000604482015290519081900360640190fd5b6003805487908110610a5157fe5b9060005260206000209060080201600001600387815481101515610a7157fe5b9060005260206000209060080201600101600388815481101515610a9157fe5b9060005260206000209060080201600201600389815481101515610ab157fe5b600091825260209091206003600890920201015460ff166001811115610ad357fe5b600380548b9081106104c557fe5b600160a060020a038116600090815260016020819052604082206003015460a860020a900460ff16151514610b1557600080fd5b600160a060020a03821660009081526001602081905260409091206003808201805460ff19908116909417905560069091018054909216179055610b5882610d12565b50610b6282610f2d565b50600192915050565b60001990565b6000600160026101406040519081016040528087815260200186815260200185815260200160006001811115610ba357fe5b8152336020820152600160408201526002546060820152608001610bc5610b6b565b815260200160048152600060209182018190528354600181018086559482529082902083518051600890930290910192610c04928492909101906110e2565b506020828101518051610c1d92600185019201906110e2565b5060408201518051610c399160028401916020909101906110e2565b50606082015160038201805460ff191660018381811115610c5657fe5b0217905550608082015160038201805460a085015174ffffffffffffffffffffffffffffffffffffffff0019909116610100600160a060020a0390941684021775ff000000000000000000000000000000000000000000191660a860020a9115159190910217905560c0830151600483015560e0830151600580840191909155908301516006830180549192909160ff1916906001908490811115610cf757fe5b02179055506101208201518160070155505050509392505050565b600160a060020a03811660009081526001602052604081206004015460001912610d3b57600080fd5b600280546000198101908110610d4d57fe5b906000526020600020906008020160026001600085600160a060020a0316600160a060020a0316815260200190815260200160002060040154815481101515610d9257fe5b906000526020600020906008020160008201816000019080546001816001161561010002031660029004610dc7929190611160565b5060018201816001019080546001816001161561010002031660029004610def929190611160565b5060028281018054610e14928481019291600019610100600183161502011604611160565b50600382810154908201805460ff9092169160ff191660018381811115610e3757fe5b021790555060038281018054918301805474ffffffffffffffffffffffffffffffffffffffff00191661010093849004600160a060020a031690930292909217808355905475ff0000000000000000000000000000000000000000001990911660a860020a9182900460ff9081161515909202179091556004808401549083015560058084015481840155600680850154908401805491909316929160ff19909116906001908490811115610ee857fe5b0217905550600791820154910155610efe610b6b565b600160a060020a0383166000908152600160205260409020600401556002805490610b629060001983016111d5565b60038054600160a060020a03831660009081526001602081905260408220600581018490558184018086559483528054929493909260089091027fc2575a0e9e593c00f959f8c92f12db2869c3395a3b0502d05e2516446f71f85b0191610faa918391859160026101009282161592909202600019011604611160565b5060018201816001019080546001816001161561010002031660029004610fd2929190611160565b5060028281018054610ff7928481019291600019610100600183161502011604611160565b50600382810154908201805460ff9092169160ff19166001838181111561101a57fe5b021790555060038281018054918301805474ffffffffffffffffffffffffffffffffffffffff00191661010093849004600160a060020a031690930292909217808355905475ff0000000000000000000000000000000000000000001990911660a860020a9182900460ff9081161515909202179091556004808401549083015560058084015481840155600680850154908401805491909316929160ff199091169060019084908111156110cb57fe5b021790555060079182015491015550600192915050565b828054600181600116156101000203166002900490600052602060002090601f016020900481019282601f1061112357805160ff1916838001178555611150565b82800160010185558215611150579182015b82811115611150578251825591602001919060010190611135565b5061115c929150611206565b5090565b828054600181600116156101000203166002900490600052602060002090601f016020900481019282601f106111995780548555611150565b8280016001018555821561115057600052602060002091601f016020900482015b828111156111505782548255916001019190600101906111ba565b815481835581811115611201576008028160080283600052602060002091820191016112019190611220565b505050565b6103a791905b8082111561115c576000815560010161120c565b6103a791905b8082111561115c57600061123a82826112a1565b6112486001830160006112a1565b6112566002830160006112a1565b5060038101805475ffffffffffffffffffffffffffffffffffffffffffff191690556000600482018190556005820181905560068201805460ff191690556007820155600801611226565b50805460018160011615610100020316600290046000825580601f106112c757506112e5565b601f0160209004906000526020600020908101906112e59190611206565b505600a165627a7a723058202a7736c69d81867c367abe92eceab83a588dc46acc4b9a06c26d26e7f20e0e190029",
  "source": "pragma solidity ^0.4.18;\nimport \"./Ownerble.sol\";\nimport \"./UserManager.sol\";\nimport \"./Base.sol\";\nimport \"./VendorBase.sol\"; \n\ncontract VendorManager is Base, Ownerble, VendorBase {\n    \n    Vendor[] internal pendingVendors;\n    Vendor[] internal approvedVendors;\n    \n\n    function getPendingVendorsCount() public view returns (uint) {\n          if(pendingVendors.length>0) {\n                return pendingVendors.length;\n          }\n          return 0;\n         \n    }\n    \n    function getApprovedVendorsCount() public view returns (uint) {\n        if(approvedVendors.length>0) {\n               return approvedVendors.length;\n          }\n          return 0;\n    }\n    \n    function getPendingVendors() public view returns (uint) {\n          if(pendingVendors.length>0) {\n               return pendingVendors.length;\n          }\n          return 0;\n    }\n    \n    function getApprovedVendorByIndex(uint index) public view returns (string, string, string, uint, address) {\n         require(index < approvedVendors.length, \"Invalid index\");\n          return(\n              approvedVendors[index].name,\n              approvedVendors[index].email,\n              approvedVendors[index].phone,\n              uint(approvedVendors[index].state),\n              approvedVendors[index].account\n          );\n    }\n    \n     function getPendingVendorByIndex(uint index) public view returns (string, string, string, uint, address) {\n         require(index < pendingVendors.length, \"Invalid index\");\n          return(\n              pendingVendors[index].name,\n              pendingVendors[index].email,\n              pendingVendors[index].phone,\n              uint(pendingVendors[index].state),\n              pendingVendors[index].account\n          );\n    }\n    \n     function getVendorByAddress(address account) public view returns (string, string, string, uint, address) {\n         require(vendors[account].isVendorOrApplicant);\n          return(\n              vendors[account].name,\n              vendors[account].email,\n              vendors[account].phone,\n              uint(vendors[account].state),\n              vendors[account].account\n          );\n    }\n    \n    \n    \n    function requestVendorAccount(string _name, string _email,  string _phone) public returns(bool) {\n          require(vendors[msg.sender].isVendorOrApplicant == false, \"REQUEST IS IN PROCESS\");\n           \n          vendors[msg.sender] = Vendor(_name, _email, _phone, AccountState.Pending, \n          msg.sender, true,  int(pendingVendors.length),getNotExistsIndex(), AppRole.VendorAwaitingApproval, 0);\n          setPendingVendor(_name,_email,_phone);\n                                         \n         return true;\n    }\n    \n    function setPendingVendor(string _name, string _email,  string _phone) private returns (uint){\n\n         pendingVendors.push(Vendor(_name, _email, _phone, AccountState.Pending,\n         msg.sender, true, int(pendingVendors.length),getNotExistsIndex(),AppRole.VendorAwaitingApproval,0)) -1;\n         \n    }\n    \n    function approveVendorAccount(address account) public returns(bool) {\n         require(vendors[account].isVendorOrApplicant == true);\n          vendors[account].state = AccountState.Approved;\n          vendors[account].role = AppRole.Vendor;\n          removeAccountFromPendingList(account);\n          addAccountToApprovedList(account);\n          return true;\n    }\n    \n    function removeAccountFromPendingList(address account) private returns(bool) {\n          require(vendors[account].pendingListIndex > -1);\n          pendingVendors[uint(vendors[account].pendingListIndex)] = pendingVendors[pendingVendors.length - 1];\n          vendors[account].pendingListIndex = getNotExistsIndex();\n          pendingVendors.length --;\n           \n          return true;\n    }\n    \n    function addAccountToApprovedList(address account) private returns(bool) {\n          vendors[account].approveListIndex = int(approvedVendors.length);\n          approvedVendors.push(vendors[account]);\n          return true;\n    }\n    \n    \n}",
  "sourcePath": "/Users/yusufkelo/Documents/DEVELOPER/ETHEREAUM/blockchain-market/market-place/contracts/VendorManager.sol",
  "compiler": {
    "name": "solc",
    "version": "0.4.24+commit.e67f0147.Emscripten.clang"
  },
  "schemaVersion": "2.0.0",
  "updatedAt": "2018-08-07T19:41:28.700Z"
}