{
  "contractName": "VendorManager",
  "abi": [
    {
      "constant": true,
      "inputs": [],
      "name": "getVendorBalance",
      "outputs": [
        {
          "name": "",
          "type": "uint256"
        }
      ],
      "payable": false,
      "stateMutability": "view",
      "type": "function"
    },
    {
      "anonymous": false,
      "inputs": [
        {
          "indexed": false,
          "name": "status",
          "type": "bool"
        }
      ],
      "name": "VendorAccountRequested",
      "type": "event"
    },
    {
      "anonymous": false,
      "inputs": [
        {
          "indexed": false,
          "name": "status",
          "type": "bool"
        }
      ],
      "name": "VendorAccountApproved",
      "type": "event"
    },
    {
      "constant": true,
      "inputs": [],
      "name": "getPendingVendorsCount",
      "outputs": [
        {
          "name": "",
          "type": "uint256"
        }
      ],
      "payable": false,
      "stateMutability": "view",
      "type": "function"
    },
    {
      "constant": true,
      "inputs": [],
      "name": "getApprovedVendorsCount",
      "outputs": [
        {
          "name": "",
          "type": "uint256"
        }
      ],
      "payable": false,
      "stateMutability": "view",
      "type": "function"
    },
    {
      "constant": true,
      "inputs": [],
      "name": "getPendingVendors",
      "outputs": [
        {
          "name": "",
          "type": "uint256"
        }
      ],
      "payable": false,
      "stateMutability": "view",
      "type": "function"
    },
    {
      "constant": true,
      "inputs": [
        {
          "name": "index",
          "type": "uint256"
        }
      ],
      "name": "getApprovedVendorByIndex",
      "outputs": [
        {
          "name": "",
          "type": "string"
        },
        {
          "name": "",
          "type": "string"
        },
        {
          "name": "",
          "type": "string"
        },
        {
          "name": "",
          "type": "uint256"
        },
        {
          "name": "",
          "type": "address"
        }
      ],
      "payable": false,
      "stateMutability": "view",
      "type": "function"
    },
    {
      "constant": true,
      "inputs": [
        {
          "name": "index",
          "type": "uint256"
        }
      ],
      "name": "getPendingVendorByIndex",
      "outputs": [
        {
          "name": "",
          "type": "string"
        },
        {
          "name": "",
          "type": "string"
        },
        {
          "name": "",
          "type": "string"
        },
        {
          "name": "",
          "type": "uint256"
        },
        {
          "name": "",
          "type": "address"
        }
      ],
      "payable": false,
      "stateMutability": "view",
      "type": "function"
    },
    {
      "constant": true,
      "inputs": [
        {
          "name": "account",
          "type": "address"
        }
      ],
      "name": "getVendorByAddress",
      "outputs": [
        {
          "name": "",
          "type": "string"
        },
        {
          "name": "",
          "type": "string"
        },
        {
          "name": "",
          "type": "string"
        },
        {
          "name": "",
          "type": "uint256"
        },
        {
          "name": "",
          "type": "address"
        }
      ],
      "payable": false,
      "stateMutability": "view",
      "type": "function"
    },
    {
      "constant": false,
      "inputs": [
        {
          "name": "_name",
          "type": "string"
        },
        {
          "name": "_email",
          "type": "string"
        },
        {
          "name": "_phone",
          "type": "string"
        }
      ],
      "name": "requestVendorAccount",
      "outputs": [
        {
          "name": "",
          "type": "bool"
        }
      ],
      "payable": false,
      "stateMutability": "nonpayable",
      "type": "function"
    },
    {
      "constant": false,
      "inputs": [
        {
          "name": "account",
          "type": "address"
        }
      ],
      "name": "approveVendorAccount",
      "outputs": [
        {
          "name": "",
          "type": "bool"
        }
      ],
      "payable": false,
      "stateMutability": "nonpayable",
      "type": "function"
    }
  ],
  "bytecode": "0x608060405261001564010000000061001a810204565b61002e565b60008054600160a060020a03191633179055565b6114338061003d6000396000f3006080604052600436106100985763ffffffff7c010000000000000000000000000000000000000000000000000000000060003504166306667429811461009d57806306cfcb86146100c457806328617c7c14610240578063340cffbe1461009d5780633d0559631461032957806343defc101461033e57806358e991751461035f5780636e91c6b81461037757806399dcec851461038c575b600080fd5b3480156100a957600080fd5b506100b26103ad565b60408051918252519081900360200190f35b3480156100d057600080fd5b506100dc6004356103ca565b6040518080602001806020018060200186815260200185600160a060020a0316600160a060020a03168152602001848103845289818151815260200191508051906020019080838360005b8381101561013f578181015183820152602001610127565b50505050905090810190601f16801561016c5780820380516001836020036101000a031916815260200191505b5084810383528851815288516020918201918a019080838360005b8381101561019f578181015183820152602001610187565b50505050905090810190601f1680156101cc5780820380516001836020036101000a031916815260200191505b50848103825287518152875160209182019189019080838360005b838110156101ff5781810151838201526020016101e7565b50505050905090810190601f16801561022c5780820380516001836020036101000a031916815260200191505b509850505050505050505060405180910390f35b34801561024c57600080fd5b506040805160206004803580820135601f810184900484028501840190955284845261031594369492936024939284019190819084018382808284375050604080516020601f89358b018035918201839004830284018301909452808352979a99988101979196509182019450925082915084018382808284375050604080516020601f89358b018035918201839004830284018301909452808352979a9998810197919650918201945092508291508401838280828437509497506106c19650505050505050565b604080519115158252519081900360200190f35b34801561033557600080fd5b506100b2610910565b34801561034a57600080fd5b506100dc600160a060020a0360043516610926565b34801561036b57600080fd5b506100dc600435610a1a565b34801561038357600080fd5b506100b2610b35565b34801561039857600080fd5b50610315600160a060020a0360043516610b78565b6002546000908110156103c357506002546103c7565b5060005b90565b60608060606000806002805490508610151561044757604080517f08c379a000000000000000000000000000000000000000000000000000000000815260206004820152600d60248201527f496e76616c696420696e64657800000000000000000000000000000000000000604482015290519081900360640190fd5b600280548790811061045557fe5b906000526020600020906008020160000160028781548110151561047557fe5b906000526020600020906008020160010160028881548110151561049557fe5b90600052602060002090600802016002016002898154811015156104b557fe5b600091825260209091206003600890920201015460ff1660018111156104d757fe5b600280548b9081106104e557fe5b600091825260209182902060089190910201600301548554604080516002610100600185161581026000190190941604601f810186900486028201860190925281815291909204600160a060020a0316929091879183018282801561058b5780601f106105605761010080835404028352916020019161058b565b820191906000526020600020905b81548152906001019060200180831161056e57829003601f168201915b5050875460408051602060026001851615610100026000190190941693909304601f8101849004840282018401909252818152959a50899450925084019050828280156106195780601f106105ee57610100808354040283529160200191610619565b820191906000526020600020905b8154815290600101906020018083116105fc57829003601f168201915b5050865460408051602060026001851615610100026000190190941693909304601f8101849004840282018401909252818152959950889450925084019050828280156106a75780601f1061067c576101008083540402835291602001916106a7565b820191906000526020600020905b81548152906001019060200180831161068a57829003601f168201915b505050505092509450945094509450945091939590929450565b3360009081526001602052604081206003015460a860020a900460ff161561074a57604080517f08c379a000000000000000000000000000000000000000000000000000000000815260206004820152601560248201527f5245515545535420495320494e2050524f434553530000000000000000000000604482015290519081900360640190fd5b604080516101408101825285815260208101859052908101839052606081016000815233602082015260016040820152600254606082015260800161078d610c4f565b8152602001600481526000602091820181905233815260018252604090208251805191926107c092849290910190611201565b5060208281015180516107d99260018501920190611201565b50604082015180516107f5916002840191602090910190611201565b50606082015160038201805460ff19166001838181111561081257fe5b0217905550608082015160038201805460a085015174ffffffffffffffffffffffffffffffffffffffff0019909116610100600160a060020a0390941684021775ff000000000000000000000000000000000000000000191660a860020a9115159190910217905560c0830151600483015560e0830151600580840191909155908301516006830180549192909160ff19169060019084908111156108b357fe5b021790555061012082015181600701559050506108d1848484610c55565b50604080516001815290517fd249fc9da5140e2e7baacc07add09262bad65b9822b19b86dcece6e652e015519181900360200190a15060019392505050565b6003546000908110156103c357506003546103c7565b600160a060020a0381166000908152600160205260408120600301546060918291829190819060a860020a900460ff16151561096157600080fd5b600160a060020a03861660009081526001602081905260409091206003810154909182810191600284019160ff9091169081111561099b57fe5b600160a060020a038a8116600090815260016020818152604092839020600301548854845160026101009583161586026000190190921691909104601f8101849004840282018401909552848152929004909316929091879183018282801561058b5780601f106105605761010080835404028352916020019161058b565b606080606060008060038054905086101515610a9757604080517f08c379a000000000000000000000000000000000000000000000000000000000815260206004820152600d60248201527f496e76616c696420696e64657800000000000000000000000000000000000000604482015290519081900360640190fd5b6003805487908110610aa557fe5b9060005260206000209060080201600001600387815481101515610ac557fe5b9060005260206000209060080201600101600388815481101515610ae557fe5b9060005260206000209060080201600201600389815481101515610b0557fe5b600091825260209091206003600890920201015460ff166001811115610b2757fe5b600380548b9081106104e557fe5b33600090815260016020819052604082206003015460ff1681811115610b5757fe5b14610b6157600080fd5b503360009081526001602052604090206007015490565b60008054600160a060020a03163314610b9057600080fd5b600160a060020a03821660009081526001602081905260409091206003015460a860020a900460ff16151514610bc557600080fd5b600160a060020a03821660009081526001602081905260409091206003808201805460ff19908116909417905560069091018054909216179055610c0882610df6565b50610c128261101a565b50604080516001815290517fe3e79272c9f952f960a5911aee0622f58aedfcfe35abc490183d5e96a84cbae19181900360200190a1506001919050565b60001990565b6000600160026101406040519081016040528087815260200186815260200185815260200160006001811115610c8757fe5b8152336020820152600160408201526002546060820152608001610ca9610c4f565b815260200160048152600060209182018190528354600181018086559482529082902083518051600890930290910192610ce892849290910190611201565b506020828101518051610d019260018501920190611201565b5060408201518051610d1d916002840191602090910190611201565b50606082015160038201805460ff191660018381811115610d3a57fe5b0217905550608082015160038201805460a085015174ffffffffffffffffffffffffffffffffffffffff0019909116610100600160a060020a0390941684021775ff000000000000000000000000000000000000000000191660a860020a9115159190910217905560c0830151600483015560e0830151600580840191909155908301516006830180549192909160ff1916906001908490811115610ddb57fe5b02179055506101208201518160070155505050509392505050565b600160a060020a03811660009081526001602052604081206004015460001912610e1f57600080fd5b600280546000198101908110610e3157fe5b906000526020600020906008020160026001600085600160a060020a0316600160a060020a0316815260200190815260200160002060040154815481101515610e7657fe5b906000526020600020906008020160008201816000019080546001816001161561010002031660029004610eab92919061127f565b5060018201816001019080546001816001161561010002031660029004610ed392919061127f565b5060028281018054610ef892848101929160001961010060018316150201160461127f565b50600382810154908201805460ff9092169160ff191660018381811115610f1b57fe5b021790555060038281018054918301805474ffffffffffffffffffffffffffffffffffffffff00191661010093849004600160a060020a031690930292909217808355905475ff0000000000000000000000000000000000000000001990911660a860020a9182900460ff9081161515909202179091556004808401549083015560058084015481840155600680850154908401805491909316929160ff19909116906001908490811115610fcc57fe5b0217905550600791820154910155610fe2610c4f565b600160a060020a03831660009081526001602052604090206004015560028054906110119060001983016112f4565b50600192915050565b600160a060020a038116600090815260016020819052604082206003015460a860020a900460ff1615151461104e57600080fd5b60038054600160a060020a038416600090815260016020819052604082206005810184905581840180865594909252815491926008027fc2575a0e9e593c00f959f8c92f12db2869c3395a3b0502d05e2516446f71f85b01916110c9918391859160026101009183161591909102600019019091160461127f565b50600182018160010190805460018160011615610100020316600290046110f192919061127f565b506002828101805461111692848101929160001961010060018316150201160461127f565b50600382810154908201805460ff9092169160ff19166001838181111561113957fe5b021790555060038281018054918301805474ffffffffffffffffffffffffffffffffffffffff00191661010093849004600160a060020a031690930292909217808355905475ff0000000000000000000000000000000000000000001990911660a860020a9182900460ff9081161515909202179091556004808401549083015560058084015481840155600680850154908401805491909316929160ff199091169060019084908111156111ea57fe5b021790555060079182015491015550600192915050565b828054600181600116156101000203166002900490600052602060002090601f016020900481019282601f1061124257805160ff191683800117855561126f565b8280016001018555821561126f579182015b8281111561126f578251825591602001919060010190611254565b5061127b929150611325565b5090565b828054600181600116156101000203166002900490600052602060002090601f016020900481019282601f106112b8578054855561126f565b8280016001018555821561126f57600052602060002091601f016020900482015b8281111561126f5782548255916001019190600101906112d9565b81548183558181111561132057600802816008028360005260206000209182019101611320919061133f565b505050565b6103c791905b8082111561127b576000815560010161132b565b6103c791905b8082111561127b57600061135982826113c0565b6113676001830160006113c0565b6113756002830160006113c0565b5060038101805475ffffffffffffffffffffffffffffffffffffffffffff191690556000600482018190556005820181905560068201805460ff191690556007820155600801611345565b50805460018160011615610100020316600290046000825580601f106113e65750611404565b601f0160209004906000526020600020908101906114049190611325565b505600a165627a7a723058209ea97cd5bf6ec43e9c8c11cf7de2e682be3c8072376882f85a8072ce47d8dd450029",
  "source": "pragma solidity 0.4.24;\nimport \"./Ownerble.sol\";\nimport \"./UserManager.sol\";\nimport \"./Base.sol\";\nimport \"./VendorBase.sol\"; \n\n/**@title USED BY THE APP OWNER TO MANAGE VENDORS */\ncontract VendorManager is Base, Ownerble, VendorBase {\n    \n    Vendor[] internal pendingVendors;\n    Vendor[] internal approvedVendors;\n    \n     /**\n            * @dev EMITS VENDOR ACCOUNT REQUESTED EVENT\n            * @param status true if success \n            */\n    event  VendorAccountRequested(bool status);\n    /**\n            * @dev EMITS VENDOR ACCOUNT APPROVEDEVENT\n            * @param status true if success \n            */\n    event  VendorAccountApproved(bool status);\n\n     /**\n            * @dev RETURNS THE LSIT OF USERS THAT HAVE PLACED A REQUEST FOR A VENDOR ACCOUNT\n            * @return uint number of pending vendors \n            */\n    function getPendingVendorsCount() public view returns (uint) {\n          if(pendingVendors.length>0) {\n                return pendingVendors.length;\n          }\n          return 0;\n         \n    }\n\n       /**\n            * @dev RETURNS THE LIST OF APPROVED VENDORS\n            * @return uint number of approved vendors \n            */\n    function getApprovedVendorsCount() public view returns (uint) {\n        if(approvedVendors.length>0) {\n               return approvedVendors.length;\n          }\n          return 0;\n    }\n    \n     /**\n            * @dev RETURNS THE NUMBER OF PENDING VENDORS\n            * @return uint number of approved vendors \n            */\n    function getPendingVendors() public view returns (uint) {\n          if(pendingVendors.length>0) {\n               return pendingVendors.length;\n          }\n          return 0;\n    }\n    \n     /**\n            * @dev RETURNS APPROVED VENDOR\n            * @param index array index of vendor\n            * @return name name of vendor\n            * @return email email of vendor\n            * @return phone phone number of vendor\n            * @return state vendor status - approved / pending \n            * @return account vendor address\n            */\n    function getApprovedVendorByIndex(uint index) public view returns (string, string, string, uint, address) {\n         require(index < approvedVendors.length, \"Invalid index\");\n          return(\n              approvedVendors[index].name,\n              approvedVendors[index].email,\n              approvedVendors[index].phone,\n              uint(approvedVendors[index].state),\n              approvedVendors[index].account\n          );\n    }\n\n     /**\n            * @dev RETURNS PENDING VENDOR\n            * @param index array index of vendor\n            * @return name name of vendor\n            * @return email email of vendor\n            * @return phone phone number of vendor\n            * @return state vendor status - approved / pending \n            * @return account vendor address\n            */\n     function getPendingVendorByIndex(uint index) public view returns (string, string, string, uint, address) {\n         require(index < pendingVendors.length, \"Invalid index\");\n          return(\n              pendingVendors[index].name,\n              pendingVendors[index].email,\n              pendingVendors[index].phone,\n              uint(pendingVendors[index].state),\n              pendingVendors[index].account\n          );\n    }\n    \n     /**\n            * @dev RETURNS APPROVED VENDOR\n            * @param account address of vendor\n            * @return name name of vendor\n            * @return email email of vendor\n            * @return phone phone number of vendor\n            * @return state vendor status - approved / pending \n            * @return account vendor address\n            */\n     function getVendorByAddress(address account) public view returns (string, string, string, uint, address) {\n         require(vendors[account].isVendorOrApplicant);\n          return(\n              vendors[account].name,\n              vendors[account].email,\n              vendors[account].phone,\n              uint(vendors[account].state),\n              vendors[account].account\n          ); \n    }\n    \n\n      /**\n            * @dev ALLOWS USERS TO PLACE REQUEST FOR A VENDOR ACCOUNT\n            * @param _name name of user\n            * @param _email email of user\n            * @param _phone phone number of user\n            * @return bool true if success\n            */\n    function requestVendorAccount(string _name, string _email,  string _phone) public returns(bool) {\n         //REVERT IF THE USER HAS ALREADY PLACED A REQUEST FOR A VENDOR ACCOUNT\n          require(vendors[msg.sender].isVendorOrApplicant == false, \"REQUEST IS IN PROCESS\");\n           \n           //ADD THE USER TO THE LIST OF  VENDORS AS PENDING\n          vendors[msg.sender] = Vendor(_name, _email, _phone, AccountState.Pending, \n          msg.sender, true,  int(pendingVendors.length),getNotExistsIndex(), AppRole.VendorAwaitingApproval, 0);\n         \n          setPendingVendor(_name,_email,_phone);\n\n          emit VendorAccountRequested(true);\n                                         \n         return true;\n    }\n    \n    /**\n            * @dev ADDS USER TO PENDING VENDORS\n            * @param _name name of user\n            * @param _email email of user\n            * @param _phone phone number of user\n            * @return number count of pending vendors\n            */\n    function setPendingVendor(string _name, string _email,  string _phone) private returns (uint){\n\n         pendingVendors.push(Vendor(_name, _email, _phone, AccountState.Pending,\n         msg.sender, true, int(pendingVendors.length),getNotExistsIndex(),AppRole.VendorAwaitingApproval,0)) -1;\n         \n    }\n\n     /**\n            * @dev APPROVE A USER TO BECOME A VENDOR\n            * @param account address of vendor\n            * @return bool trufe if success \n            */\n    function approveVendorAccount(address account) public ownerOnly returns(bool) {\n         require(vendors[account].isVendorOrApplicant == true);\n          vendors[account].state = AccountState.Approved;\n          vendors[account].role = AppRole.Vendor;\n          removeAccountFromPendingList(account);\n          addAccountToApprovedList(account);\n\n          emit VendorAccountApproved(true);\n\n          return true;\n    }\n    \n\n     /**\n            * @dev REMOVES APPROVED VENDOR FROM PENDING VENDORS LIST\n            * @param account address of vendor\n            * @return bool true if success \n            */\n    function removeAccountFromPendingList(address account) private returns(bool) {\n          require(vendors[account].pendingListIndex > -1);\n          pendingVendors[uint(vendors[account].pendingListIndex)] = pendingVendors[pendingVendors.length - 1];\n          vendors[account].pendingListIndex = getNotExistsIndex();\n          pendingVendors.length --;\n           \n      \n\n          return true;\n    }\n    \n\n      /**\n            * @dev ADDS APPROVED VENDOR TO APPROVED VENDORS LIST\n            * @param account address of vendor\n            * @return bool true if success \n            */\n    function addAccountToApprovedList(address account) private returns(bool) {\n          require(vendors[account].isVendorOrApplicant == true);\n          vendors[account].approveListIndex = int(approvedVendors.length);\n          approvedVendors.push(vendors[account]);\n          return true;\n    }\n    \n    \n}",
  "sourcePath": "/Users/yusufkelo/Documents/DEVELOPER/ETHEREAUM/blockchain-market/market-place/contracts/VendorManager.sol",
  "compiler": {
    "name": "solc",
    "version": "0.4.24+commit.e67f0147.Emscripten.clang"
  },
  "schemaVersion": "2.0.0",
  "updatedAt": "2018-08-27T19:07:48.808Z"
}