{
  "contractName": "VendorBase",
  "abi": [
    {
      "constant": true,
      "inputs": [],
      "name": "getVendorBalance",
      "outputs": [
        {
          "name": "",
          "type": "uint256"
        }
      ],
      "payable": false,
      "stateMutability": "view",
      "type": "function"
    }
  ],
  "bytecode": "0x608060405261001564010000000061001a810204565b61002e565b60008054600160a060020a03191633179055565b60d48061003c6000396000f300608060405260043610603e5763ffffffff7c01000000000000000000000000000000000000000000000000000000006000350416636e91c6b881146043575b600080fd5b348015604e57600080fd5b5060556067565b60408051918252519081900360200190f35b33600090815260016020819052604082206003015460ff1681811115608857fe5b14609157600080fd5b5033600090815260016020526040902060070154905600a165627a7a7230582033cd72a95914ffe4f7adbca6edc341e282bef8291bcc0b2a443cab22230440b30029",
  "source": "pragma solidity ^0.4.0;\nimport \"./Ownerble.sol\";\n\ncontract VendorBase is Ownerble {\n    \n    mapping(address => Vendor) internal vendors;\n\n     struct Vendor {\n        string name;\n        string email;\n        string phone;\n        AccountState state;\n        address account;\n        bool isVendorOrApplicant;\n        int pendingListIndex;\n        int approveListIndex;\n        AppRole role;\n        uint balance;\n    }\n\n \n    function getVendorBalance() public view returns(uint) {\n        require(vendors[msg.sender].state == AccountState.Approved);\n        \n        return vendors[msg.sender].balance;\n    }\n}",
  "sourcePath": "/Users/yusufkelo/Documents/DEVELOPER/ETHEREAUM/blockchain-market/market-place/contracts/VendorBase.sol",
  "compiler": {
    "name": "solc",
    "version": "0.4.24+commit.e67f0147.Emscripten.clang"
  },
  "schemaVersion": "2.0.0",
  "updatedAt": "2018-08-24T16:54:26.846Z"
}