{
  "contractName": "Withdrawable",
  "abi": [
    {
      "constant": false,
      "inputs": [],
      "name": "withdraw",
      "outputs": [
        {
          "name": "",
          "type": "bool"
        }
      ],
      "payable": false,
      "stateMutability": "nonpayable",
      "type": "function"
    }
  ],
  "bytecode": "0x608060405261001564010000000061001a810204565b61002e565b60008054600160a060020a03191633179055565b6101418061003d6000396000f3006080604052600436106100405763ffffffff7c01000000000000000000000000000000000000000000000000000000006000350416633ccfd60b8114610045575b600080fd5b34801561005157600080fd5b5061005a61006e565b604080519115158252519081900360200190f35b33600090815260016020819052604082206003015482919060ff168181111561009357fe5b1461009d57600080fd5b33600090815260016020526040812060070154111561010c575033600081815260016020526040808220600701805490839055905190929183156108fc02918491818181858888f19350505050151561010c573360009081526001602052604081206007018290559150610111565b600191505b50905600a165627a7a72305820df3e4a223bc0c1ee9a42e078bcfe940cf99fcb793b246941aa2456bbc4d6cc4e0029",
  "source": "pragma solidity ^0.4.22;\nimport \"./VendorBase.sol\";\nimport \"./Ownerble.sol\";\n/*\n  DIRECTLY INVOKING THE TRANSFER FUNCTION ON AN ADDRESS IS A SECURITY RISK\n  THE WITHDRAWAL PATTERN ALLOWS US TO KEEP TRACK OF ANY WITHDRAWALS THAT ARE \n  PENDING AND PROVIDES A SIMPLE WITHDRAWAL FUNCTION WHERE OTHERS CAN TAKE \n  OUT THERE ETHER FROM THE CONTRACT SO INSTEAD OF THE CONTRACT FUNCTIONS \n  DIRECTLY CALLING TRANSFER ON AN ADDRESSES AND POTENTIAL OPENING THEMSELVES \n  UP TO AN ATTACK, OUR CONTRACT JUST UPDATES THE STATE OF THE PENDING \n  WITHDRAWALS , THIS WOULD THEN ALLOW THE EXTERNAL ADDRESS TO CALL INTO \n  THE WITHDRAWAL FUNCTION TO COLLECT ITS ETHER.\n  THE IDEA IS THAT THE ATTACK VECTOR IS ALLOWED TO ONLY THE WITHDRWAL function\n  AND THE ATTACKER CANNOT COMPROMISE THE FUNCTIONALITY OF THE REST OF THE \n  CONTRACT\n*/\n\n\ncontract Withdrawable is Ownerble, VendorBase {\n    \n    function withdraw() public returns (bool) {\n        \n        require(vendors[msg.sender].state == AccountState.Approved);\n        if(vendors[msg.sender].balance > 0) {\n            \n            uint balance = vendors[msg.sender].balance;\n            \n            vendors[msg.sender].balance = 0;\n            \n            if(!msg.sender.send(balance)) {\n                vendors[msg.sender].balance = balance;\n                return false;\n            }\n        }\n        \n        return true;\n        \n    }\n    \n}",
  "sourcePath": "/Users/yusufkelo/Documents/DEVELOPER/ETHEREAUM/blockchain-market/market-place/contracts/Withdrawable.sol",
  "compiler": {
    "name": "solc",
    "version": "0.4.24+commit.e67f0147.Emscripten.clang"
  },
  "schemaVersion": "2.0.0",
  "updatedAt": "2018-08-07T19:41:28.702Z"
}