{
  "contractName": "Withdrawable",
  "abi": [
    {
      "constant": true,
      "inputs": [],
      "name": "getVendorBalance",
      "outputs": [
        {
          "name": "",
          "type": "uint256"
        }
      ],
      "payable": false,
      "stateMutability": "view",
      "type": "function"
    },
    {
      "anonymous": false,
      "inputs": [
        {
          "indexed": false,
          "name": "amount",
          "type": "uint256"
        }
      ],
      "name": "WithdrawalCompletedSuccessfully",
      "type": "event"
    },
    {
      "constant": false,
      "inputs": [],
      "name": "withdraw",
      "outputs": [
        {
          "name": "",
          "type": "bool"
        }
      ],
      "payable": false,
      "stateMutability": "nonpayable",
      "type": "function"
    }
  ],
  "bytecode": "0x608060405261001564010000000061001a810204565b61002e565b60008054600160a060020a03191633179055565b6101ea8061003d6000396000f30060806040526004361061004b5763ffffffff7c01000000000000000000000000000000000000000000000000000000006000350416633ccfd60b81146100505780636e91c6b814610079575b600080fd5b34801561005c57600080fd5b506100656100a0565b604080519115158252519081900360200190f35b34801561008557600080fd5b5061008e61017b565b60408051918252519081900360200190f35b33600090815260016020819052604082206003015482919060ff16818111156100c557fe5b146100cf57600080fd5b336000908152600160205260408120600701541115610172575033600081815260016020526040808220600701805490839055905190929183156108fc02918491818181858888f19350505050151561013e573360009081526001602052604081206007018290559150610177565b6040805182815290517fdb4153325201f1faa4d39b6107ff1314df0a4854f49f82955f3686029d726b2b9181900360200190a15b600191505b5090565b33600090815260016020819052604082206003015460ff168181111561019d57fe5b146101a757600080fd5b5033600090815260016020526040902060070154905600a165627a7a72305820feefc53a33acf6d5c194ab7fc325cab556d27c51201e65e8bddc6a1ebead91180029",
  "source": "pragma solidity 0.4.24;\nimport \"./VendorBase.sol\";\nimport \"./Ownerble.sol\";\n/*\n  DIRECTLY INVOKING THE TRANSFER FUNCTION ON AN ADDRESS IS A SECURITY RISK\n  THE WITHDRAWAL PATTERN ALLOWS US TO KEEP TRACK OF ANY WITHDRAWALS THAT ARE \n  PENDING AND PROVIDES A SIMPLE WITHDRAWAL FUNCTION WHERE OTHERS CAN TAKE \n  OUT THERE ETHER FROM THE CONTRACT SO INSTEAD OF THE CONTRACT FUNCTIONS \n  DIRECTLY CALLING TRANSFER ON AN ADDRESSES AND POTENTIAL OPENING THEMSELVES \n  UP TO AN ATTACK, OUR CONTRACT JUST UPDATES THE STATE OF THE PENDING \n  WITHDRAWALS , THIS WOULD THEN ALLOW THE EXTERNAL ADDRESS TO CALL INTO \n  THE WITHDRAWAL FUNCTION TO COLLECT ITS ETHER.\n  THE IDEA IS THAT THE ATTACK VECTOR IS ALLOWED TO ONLY THE WITHDRWAL function\n  AND THE ATTACKER CANNOT COMPROMISE THE FUNCTIONALITY OF THE REST OF THE \n  CONTRACT\n*/\n\n/**@title Withdrawable allows vendors to withdraw funcds to their wallet */\ncontract Withdrawable is Ownerble, VendorBase {\n    \n    /**\n            * @dev EMITS FUNDS WITHDRWAL SUCCESS\n            * @param amount true if success\n            */\n    event WithdrawalCompletedSuccessfully(uint amount);\n\n        /**\n            * @dev WITHDRWAS VENDORS FUNDS\n            * @return bool true if success\n            */\n    function withdraw() public returns (bool) {\n        \n        require(vendors[msg.sender].state == AccountState.Approved);\n        if(vendors[msg.sender].balance > 0) {\n            \n            uint balance = vendors[msg.sender].balance;\n            \n            vendors[msg.sender].balance = 0;\n            \n            if(!msg.sender.send(balance)) {\n                vendors[msg.sender].balance = balance;\n                return false;\n            }\n\n            emit WithdrawalCompletedSuccessfully(balance);\n        }\n        \n        return true;\n        \n    }\n\n\n\n    \n}",
  "sourcePath": "/Users/yusufkelo/Documents/DEVELOPER/ETHEREAUM/blockchain-market/market-place/contracts/Withdrawable.sol",
  "compiler": {
    "name": "solc",
    "version": "0.4.24+commit.e67f0147.Emscripten.clang"
  },
  "schemaVersion": "2.0.0",
  "updatedAt": "2018-08-27T16:53:05.511Z"
}